{
	"PrimeiroSC.sol": {
		"PrimeiroSC": {
			"abi": [
				{
					"inputs": [],
					"stateMutability": "nonpayable",
					"type": "constructor"
				},
				{
					"inputs": [],
					"name": "externalFunction",
					"outputs": [],
					"stateMutability": "nonpayable",
					"type": "function"
				},
				{
					"inputs": [],
					"name": "externalPayableFunction",
					"outputs": [],
					"stateMutability": "payable",
					"type": "function"
				},
				{
					"inputs": [
						{
							"internalType": "uint256",
							"name": "_um",
							"type": "uint256"
						},
						{
							"internalType": "uint256",
							"name": "_dois",
							"type": "uint256"
						}
					],
					"name": "externalPureFunction",
					"outputs": [
						{
							"internalType": "uint256",
							"name": "_exemplo",
							"type": "uint256"
						}
					],
					"stateMutability": "pure",
					"type": "function"
				},
				{
					"inputs": [],
					"name": "externalViewBalance",
					"outputs": [
						{
							"internalType": "uint256",
							"name": "",
							"type": "uint256"
						}
					],
					"stateMutability": "view",
					"type": "function"
				},
				{
					"inputs": [],
					"name": "externalViewFunction",
					"outputs": [
						{
							"internalType": "uint256",
							"name": "_exemplo",
							"type": "uint256"
						}
					],
					"stateMutability": "view",
					"type": "function"
				},
				{
					"inputs": [],
					"name": "externalViewFunctionDois",
					"outputs": [
						{
							"internalType": "uint256",
							"name": "",
							"type": "uint256"
						}
					],
					"stateMutability": "view",
					"type": "function"
				},
				{
					"inputs": [],
					"name": "publicFunction",
					"outputs": [],
					"stateMutability": "nonpayable",
					"type": "function"
				},
				{
					"inputs": [],
					"name": "s_contractOwner",
					"outputs": [
						{
							"internalType": "address",
							"name": "",
							"type": "address"
						}
					],
					"stateMutability": "view",
					"type": "function"
				},
				{
					"inputs": [
						{
							"internalType": "address payable",
							"name": "_owner",
							"type": "address"
						}
					],
					"name": "withdraw",
					"outputs": [],
					"stateMutability": "nonpayable",
					"type": "function"
				}
			],
			"devdoc": {
				"kind": "dev",
				"methods": {},
				"version": 1
			},
			"evm": {
				"assembly": "    /* \"PrimeiroSC.sol\":225:3570  contract PrimeiroSC {... */\n  mstore(0x40, 0x80)\n    /* \"PrimeiroSC.sol\":1353:1562  constructor() {... */\n  callvalue\n  dup1\n  iszero\n  tag_1\n  jumpi\n  0x00\n  dup1\n  revert\ntag_1:\n  pop\n    /* \"PrimeiroSC.sol\":1438:1448  msg.sender */\n  caller\n    /* \"PrimeiroSC.sol\":1420:1435  s_contractOwner */\n  0x02\n  0x00\n    /* \"PrimeiroSC.sol\":1420:1448  s_contractOwner = msg.sender */\n  0x0100\n  exp\n  dup2\n  sload\n  dup2\n  0xffffffffffffffffffffffffffffffffffffffff\n  mul\n  not\n  and\n  swap1\n  dup4\n  0xffffffffffffffffffffffffffffffffffffffff\n  and\n  mul\n  or\n  swap1\n  sstore\n  pop\n    /* \"PrimeiroSC.sol\":225:3570  contract PrimeiroSC {... */\n  dataSize(sub_0)\n  dup1\n  dataOffset(sub_0)\n  0x00\n  codecopy\n  0x00\n  return\nstop\n\nsub_0: assembly {\n        /* \"PrimeiroSC.sol\":225:3570  contract PrimeiroSC {... */\n      mstore(0x40, 0x80)\n      jumpi(tag_1, lt(calldatasize, 0x04))\n      shr(0xe0, calldataload(0x00))\n      dup1\n      0x6984f020\n      gt\n      tag_11\n      jumpi\n      dup1\n      0x6984f020\n      eq\n      tag_6\n      jumpi\n      dup1\n      0x7b5d520b\n      eq\n      tag_7\n      jumpi\n      dup1\n      0x8c5d78f4\n      eq\n      tag_8\n      jumpi\n      dup1\n      0x9f4a079b\n      eq\n      tag_9\n      jumpi\n      dup1\n      0xe4685ab3\n      eq\n      tag_10\n      jumpi\n      jump(tag_1)\n    tag_11:\n      dup1\n      0x3a32b549\n      eq\n      tag_2\n      jumpi\n      dup1\n      0x514d56ac\n      eq\n      tag_3\n      jumpi\n      dup1\n      0x51cff8d9\n      eq\n      tag_4\n      jumpi\n      dup1\n      0x5a37fb4e\n      eq\n      tag_5\n      jumpi\n    tag_1:\n      0x00\n      dup1\n      revert\n        /* \"PrimeiroSC.sol\":1738:1869  function externalFunction() external {... */\n    tag_2:\n      callvalue\n      dup1\n      iszero\n      tag_12\n      jumpi\n      0x00\n      dup1\n      revert\n    tag_12:\n      pop\n      tag_13\n      tag_14\n      jump\t// in\n    tag_13:\n      stop\n        /* \"PrimeiroSC.sol\":618:648  address public s_contractOwner */\n    tag_3:\n      callvalue\n      dup1\n      iszero\n      tag_15\n      jumpi\n      0x00\n      dup1\n      revert\n    tag_15:\n      pop\n      tag_16\n      tag_17\n      jump\t// in\n    tag_16:\n      mload(0x40)\n      tag_18\n      swap2\n      swap1\n      tag_19\n      jump\t// in\n    tag_18:\n      mload(0x40)\n      dup1\n      swap2\n      sub\n      swap1\n      return\n        /* \"PrimeiroSC.sol\":2075:2438  function withdraw(address payable _owner) external {... */\n    tag_4:\n      callvalue\n      dup1\n      iszero\n      tag_20\n      jumpi\n      0x00\n      dup1\n      revert\n    tag_20:\n      pop\n      tag_21\n      0x04\n      dup1\n      calldatasize\n      sub\n      dup2\n      add\n      swap1\n      tag_22\n      swap2\n      swap1\n      tag_23\n      jump\t// in\n    tag_22:\n      tag_24\n      jump\t// in\n    tag_21:\n      stop\n        /* \"PrimeiroSC.sol\":3323:3567  function externalPureFunction(uint256 _um, uint256 _dois) external pure returns(uint256 _exemplo) {... */\n    tag_5:\n      callvalue\n      dup1\n      iszero\n      tag_25\n      jumpi\n      0x00\n      dup1\n      revert\n    tag_25:\n      pop\n      tag_26\n      0x04\n      dup1\n      calldatasize\n      sub\n      dup2\n      add\n      swap1\n      tag_27\n      swap2\n      swap1\n      tag_28\n      jump\t// in\n    tag_27:\n      tag_29\n      jump\t// in\n    tag_26:\n      mload(0x40)\n      tag_30\n      swap2\n      swap1\n      tag_31\n      jump\t// in\n    tag_30:\n      mload(0x40)\n      dup1\n      swap2\n      sub\n      swap1\n      return\n        /* \"PrimeiroSC.sol\":3107:3204  function externalViewFunctionDois() external view returns(uint256) {... */\n    tag_6:\n      callvalue\n      dup1\n      iszero\n      tag_32\n      jumpi\n      0x00\n      dup1\n      revert\n    tag_32:\n      pop\n      tag_33\n      tag_34\n      jump\t// in\n    tag_33:\n      mload(0x40)\n      tag_35\n      swap2\n      swap1\n      tag_31\n      jump\t// in\n    tag_35:\n      mload(0x40)\n      dup1\n      swap2\n      sub\n      swap1\n      return\n        /* \"PrimeiroSC.sol\":2495:2573  function publicFunction() public {... */\n    tag_7:\n      callvalue\n      dup1\n      iszero\n      tag_36\n      jumpi\n      0x00\n      dup1\n      revert\n    tag_36:\n      pop\n      tag_37\n      tag_38\n      jump\t// in\n    tag_37:\n      stop\n        /* \"PrimeiroSC.sol\":3210:3317  function externalViewBalance() external view returns(uint256) {... */\n    tag_8:\n      callvalue\n      dup1\n      iszero\n      tag_39\n      jumpi\n      0x00\n      dup1\n      revert\n    tag_39:\n      pop\n      tag_40\n      tag_41\n      jump\t// in\n    tag_40:\n      mload(0x40)\n      tag_42\n      swap2\n      swap1\n      tag_31\n      jump\t// in\n    tag_42:\n      mload(0x40)\n      dup1\n      swap2\n      sub\n      swap1\n      return\n        /* \"PrimeiroSC.sol\":2994:3100  function externalViewFunction() external view returns(uint256 _exemplo) {... */\n    tag_9:\n      callvalue\n      dup1\n      iszero\n      tag_43\n      jumpi\n      0x00\n      dup1\n      revert\n    tag_43:\n      pop\n      tag_44\n      tag_45\n      jump\t// in\n    tag_44:\n      mload(0x40)\n      tag_46\n      swap2\n      swap1\n      tag_31\n      jump\t// in\n    tag_46:\n      mload(0x40)\n      dup1\n      swap2\n      sub\n      swap1\n      return\n        /* \"PrimeiroSC.sol\":1874:2070  function externalPayableFunction() external payable {... */\n    tag_10:\n      tag_47\n      tag_48\n      jump\t// in\n    tag_47:\n      stop\n        /* \"PrimeiroSC.sol\":1738:1869  function externalFunction() external {... */\n    tag_14:\n      jump\t// out\n        /* \"PrimeiroSC.sol\":618:648  address public s_contractOwner */\n    tag_17:\n      0x02\n      0x00\n      swap1\n      sload\n      swap1\n      0x0100\n      exp\n      swap1\n      div\n      0xffffffffffffffffffffffffffffffffffffffff\n      and\n      dup2\n      jump\t// out\n        /* \"PrimeiroSC.sol\":2075:2438  function withdraw(address payable _owner) external {... */\n    tag_24:\n        /* \"PrimeiroSC.sol\":2137:2149  bool success */\n      0x00\n        /* \"PrimeiroSC.sol\":2151:2170  bytes memory _error */\n      dup1\n        /* \"PrimeiroSC.sol\":2174:2180  _owner */\n      dup3\n        /* \"PrimeiroSC.sol\":2174:2185  _owner.call */\n      0xffffffffffffffffffffffffffffffffffffffff\n      and\n        /* \"PrimeiroSC.sol\":2193:2214  address(this).balance */\n      selfbalance\n        /* \"PrimeiroSC.sol\":2174:2219  _owner.call{value: address(this).balance}(\"\") */\n      mload(0x40)\n      tag_51\n      swap1\n      tag_52\n      jump\t// in\n    tag_51:\n      0x00\n      mload(0x40)\n      dup1\n      dup4\n      sub\n      dup2\n      dup6\n      dup8\n      gas\n      call\n      swap3\n      pop\n      pop\n      pop\n      returndatasize\n      dup1\n      0x00\n      dup2\n      eq\n      tag_55\n      jumpi\n      mload(0x40)\n      swap2\n      pop\n      and(add(returndatasize, 0x3f), not(0x1f))\n      dup3\n      add\n      0x40\n      mstore\n      returndatasize\n      dup3\n      mstore\n      returndatasize\n      0x00\n      0x20\n      dup5\n      add\n      returndatacopy\n      jump(tag_54)\n    tag_55:\n      0x60\n      swap2\n      pop\n    tag_54:\n      pop\n        /* \"PrimeiroSC.sol\":2136:2219  (bool success, bytes memory _error) = _owner.call{value: address(this).balance}(\"\") */\n      swap2\n      pop\n      swap2\n      pop\n        /* \"PrimeiroSC.sol\":2233:2240  success */\n      dup2\n        /* \"PrimeiroSC.sol\":2229:2252  if(!success) revert(\"\") */\n      tag_56\n      jumpi\n        /* \"PrimeiroSC.sol\":2242:2252  revert(\"\") */\n      mload(0x40)\n      0x08c379a000000000000000000000000000000000000000000000000000000000\n      dup2\n      mstore\n      0x04\n      add\n      tag_57\n      swap1\n      tag_58\n      jump\t// in\n    tag_57:\n      mload(0x40)\n      dup1\n      swap2\n      sub\n      swap1\n      revert\n        /* \"PrimeiroSC.sol\":2229:2252  if(!success) revert(\"\") */\n    tag_56:\n        /* \"PrimeiroSC.sol\":2126:2438  {... */\n      pop\n      pop\n        /* \"PrimeiroSC.sol\":2075:2438  function withdraw(address payable _owner) external {... */\n      pop\n      jump\t// out\n        /* \"PrimeiroSC.sol\":3323:3567  function externalPureFunction(uint256 _um, uint256 _dois) external pure returns(uint256 _exemplo) {... */\n    tag_29:\n        /* \"PrimeiroSC.sol\":3403:3419  uint256 _exemplo */\n      0x00\n        /* \"PrimeiroSC.sol\":3555:3560  _dois */\n      dup2\n        /* \"PrimeiroSC.sol\":3549:3552  _um */\n      dup4\n        /* \"PrimeiroSC.sol\":3549:3560  _um * _dois */\n      tag_60\n      swap2\n      swap1\n      tag_61\n      jump\t// in\n    tag_60:\n        /* \"PrimeiroSC.sol\":3538:3560  _exemplo = _um * _dois */\n      swap1\n      pop\n        /* \"PrimeiroSC.sol\":3323:3567  function externalPureFunction(uint256 _um, uint256 _dois) external pure returns(uint256 _exemplo) {... */\n      swap3\n      swap2\n      pop\n      pop\n      jump\t// out\n        /* \"PrimeiroSC.sol\":3107:3204  function externalViewFunctionDois() external view returns(uint256) {... */\n    tag_34:\n        /* \"PrimeiroSC.sol\":3165:3172  uint256 */\n      0x00\n        /* \"PrimeiroSC.sol\":3191:3197  s_uint */\n      dup1\n      sload\n        /* \"PrimeiroSC.sol\":3184:3197  return s_uint */\n      swap1\n      pop\n        /* \"PrimeiroSC.sol\":3107:3204  function externalViewFunctionDois() external view returns(uint256) {... */\n      swap1\n      jump\t// out\n        /* \"PrimeiroSC.sol\":2495:2573  function publicFunction() public {... */\n    tag_38:\n      jump\t// out\n        /* \"PrimeiroSC.sol\":3210:3317  function externalViewBalance() external view returns(uint256) {... */\n    tag_41:\n        /* \"PrimeiroSC.sol\":3263:3270  uint256 */\n      0x00\n        /* \"PrimeiroSC.sol\":3289:3310  address(this).balance */\n      selfbalance\n        /* \"PrimeiroSC.sol\":3282:3310  return address(this).balance */\n      swap1\n      pop\n        /* \"PrimeiroSC.sol\":3210:3317  function externalViewBalance() external view returns(uint256) {... */\n      swap1\n      jump\t// out\n        /* \"PrimeiroSC.sol\":2994:3100  function externalViewFunction() external view returns(uint256 _exemplo) {... */\n    tag_45:\n        /* \"PrimeiroSC.sol\":3048:3064  uint256 _exemplo */\n      0x00\n        /* \"PrimeiroSC.sol\":3087:3093  s_uint */\n      dup1\n      sload\n        /* \"PrimeiroSC.sol\":3076:3093  _exemplo = s_uint */\n      swap1\n      pop\n        /* \"PrimeiroSC.sol\":2994:3100  function externalViewFunction() external view returns(uint256 _exemplo) {... */\n      swap1\n      jump\t// out\n        /* \"PrimeiroSC.sol\":1874:2070  function externalPayableFunction() external payable {... */\n    tag_48:\n      jump\t// out\n        /* \"#utility.yul\":7:133   */\n    tag_67:\n        /* \"#utility.yul\":44:51   */\n      0x00\n        /* \"#utility.yul\":84:126   */\n      0xffffffffffffffffffffffffffffffffffffffff\n        /* \"#utility.yul\":77:82   */\n      dup3\n        /* \"#utility.yul\":73:127   */\n      and\n        /* \"#utility.yul\":62:127   */\n      swap1\n      pop\n        /* \"#utility.yul\":7:133   */\n      swap2\n      swap1\n      pop\n      jump\t// out\n        /* \"#utility.yul\":139:235   */\n    tag_68:\n        /* \"#utility.yul\":176:183   */\n      0x00\n        /* \"#utility.yul\":205:229   */\n      tag_89\n        /* \"#utility.yul\":223:228   */\n      dup3\n        /* \"#utility.yul\":205:229   */\n      tag_67\n      jump\t// in\n    tag_89:\n        /* \"#utility.yul\":194:229   */\n      swap1\n      pop\n        /* \"#utility.yul\":139:235   */\n      swap2\n      swap1\n      pop\n      jump\t// out\n        /* \"#utility.yul\":241:359   */\n    tag_69:\n        /* \"#utility.yul\":328:352   */\n      tag_91\n        /* \"#utility.yul\":346:351   */\n      dup2\n        /* \"#utility.yul\":328:352   */\n      tag_68\n      jump\t// in\n    tag_91:\n        /* \"#utility.yul\":323:326   */\n      dup3\n        /* \"#utility.yul\":316:353   */\n      mstore\n        /* \"#utility.yul\":241:359   */\n      pop\n      pop\n      jump\t// out\n        /* \"#utility.yul\":365:587   */\n    tag_19:\n        /* \"#utility.yul\":458:462   */\n      0x00\n        /* \"#utility.yul\":496:498   */\n      0x20\n        /* \"#utility.yul\":485:494   */\n      dup3\n        /* \"#utility.yul\":481:499   */\n      add\n        /* \"#utility.yul\":473:499   */\n      swap1\n      pop\n        /* \"#utility.yul\":509:580   */\n      tag_93\n        /* \"#utility.yul\":577:578   */\n      0x00\n        /* \"#utility.yul\":566:575   */\n      dup4\n        /* \"#utility.yul\":562:579   */\n      add\n        /* \"#utility.yul\":553:559   */\n      dup5\n        /* \"#utility.yul\":509:580   */\n      tag_69\n      jump\t// in\n    tag_93:\n        /* \"#utility.yul\":365:587   */\n      swap3\n      swap2\n      pop\n      pop\n      jump\t// out\n        /* \"#utility.yul\":674:791   */\n    tag_71:\n        /* \"#utility.yul\":783:784   */\n      0x00\n        /* \"#utility.yul\":780:781   */\n      dup1\n        /* \"#utility.yul\":773:785   */\n      revert\n        /* \"#utility.yul\":920:1024   */\n    tag_73:\n        /* \"#utility.yul\":965:972   */\n      0x00\n        /* \"#utility.yul\":994:1018   */\n      tag_98\n        /* \"#utility.yul\":1012:1017   */\n      dup3\n        /* \"#utility.yul\":994:1018   */\n      tag_67\n      jump\t// in\n    tag_98:\n        /* \"#utility.yul\":983:1018   */\n      swap1\n      pop\n        /* \"#utility.yul\":920:1024   */\n      swap2\n      swap1\n      pop\n      jump\t// out\n        /* \"#utility.yul\":1030:1168   */\n    tag_74:\n        /* \"#utility.yul\":1111:1143   */\n      tag_100\n        /* \"#utility.yul\":1137:1142   */\n      dup2\n        /* \"#utility.yul\":1111:1143   */\n      tag_73\n      jump\t// in\n    tag_100:\n        /* \"#utility.yul\":1104:1109   */\n      dup2\n        /* \"#utility.yul\":1101:1144   */\n      eq\n        /* \"#utility.yul\":1091:1162   */\n      tag_101\n      jumpi\n        /* \"#utility.yul\":1158:1159   */\n      0x00\n        /* \"#utility.yul\":1155:1156   */\n      dup1\n        /* \"#utility.yul\":1148:1160   */\n      revert\n        /* \"#utility.yul\":1091:1162   */\n    tag_101:\n        /* \"#utility.yul\":1030:1168   */\n      pop\n      jump\t// out\n        /* \"#utility.yul\":1174:1329   */\n    tag_75:\n        /* \"#utility.yul\":1228:1233   */\n      0x00\n        /* \"#utility.yul\":1266:1272   */\n      dup2\n        /* \"#utility.yul\":1253:1273   */\n      calldataload\n        /* \"#utility.yul\":1244:1273   */\n      swap1\n      pop\n        /* \"#utility.yul\":1282:1323   */\n      tag_103\n        /* \"#utility.yul\":1317:1322   */\n      dup2\n        /* \"#utility.yul\":1282:1323   */\n      tag_74\n      jump\t// in\n    tag_103:\n        /* \"#utility.yul\":1174:1329   */\n      swap3\n      swap2\n      pop\n      pop\n      jump\t// out\n        /* \"#utility.yul\":1335:1680   */\n    tag_23:\n        /* \"#utility.yul\":1402:1408   */\n      0x00\n        /* \"#utility.yul\":1451:1453   */\n      0x20\n        /* \"#utility.yul\":1439:1448   */\n      dup3\n        /* \"#utility.yul\":1430:1437   */\n      dup5\n        /* \"#utility.yul\":1426:1449   */\n      sub\n        /* \"#utility.yul\":1422:1454   */\n      slt\n        /* \"#utility.yul\":1419:1538   */\n      iszero\n      tag_105\n      jumpi\n        /* \"#utility.yul\":1457:1536   */\n      tag_106\n      tag_71\n      jump\t// in\n    tag_106:\n        /* \"#utility.yul\":1419:1538   */\n    tag_105:\n        /* \"#utility.yul\":1577:1578   */\n      0x00\n        /* \"#utility.yul\":1602:1663   */\n      tag_107\n        /* \"#utility.yul\":1655:1662   */\n      dup5\n        /* \"#utility.yul\":1646:1652   */\n      dup3\n        /* \"#utility.yul\":1635:1644   */\n      dup6\n        /* \"#utility.yul\":1631:1653   */\n      add\n        /* \"#utility.yul\":1602:1663   */\n      tag_75\n      jump\t// in\n    tag_107:\n        /* \"#utility.yul\":1592:1663   */\n      swap2\n      pop\n        /* \"#utility.yul\":1548:1673   */\n      pop\n        /* \"#utility.yul\":1335:1680   */\n      swap3\n      swap2\n      pop\n      pop\n      jump\t// out\n        /* \"#utility.yul\":1686:1763   */\n    tag_76:\n        /* \"#utility.yul\":1723:1730   */\n      0x00\n        /* \"#utility.yul\":1752:1757   */\n      dup2\n        /* \"#utility.yul\":1741:1757   */\n      swap1\n      pop\n        /* \"#utility.yul\":1686:1763   */\n      swap2\n      swap1\n      pop\n      jump\t// out\n        /* \"#utility.yul\":1769:1891   */\n    tag_77:\n        /* \"#utility.yul\":1842:1866   */\n      tag_110\n        /* \"#utility.yul\":1860:1865   */\n      dup2\n        /* \"#utility.yul\":1842:1866   */\n      tag_76\n      jump\t// in\n    tag_110:\n        /* \"#utility.yul\":1835:1840   */\n      dup2\n        /* \"#utility.yul\":1832:1867   */\n      eq\n        /* \"#utility.yul\":1822:1885   */\n      tag_111\n      jumpi\n        /* \"#utility.yul\":1881:1882   */\n      0x00\n        /* \"#utility.yul\":1878:1879   */\n      dup1\n        /* \"#utility.yul\":1871:1883   */\n      revert\n        /* \"#utility.yul\":1822:1885   */\n    tag_111:\n        /* \"#utility.yul\":1769:1891   */\n      pop\n      jump\t// out\n        /* \"#utility.yul\":1897:2036   */\n    tag_78:\n        /* \"#utility.yul\":1943:1948   */\n      0x00\n        /* \"#utility.yul\":1981:1987   */\n      dup2\n        /* \"#utility.yul\":1968:1988   */\n      calldataload\n        /* \"#utility.yul\":1959:1988   */\n      swap1\n      pop\n        /* \"#utility.yul\":1997:2030   */\n      tag_113\n        /* \"#utility.yul\":2024:2029   */\n      dup2\n        /* \"#utility.yul\":1997:2030   */\n      tag_77\n      jump\t// in\n    tag_113:\n        /* \"#utility.yul\":1897:2036   */\n      swap3\n      swap2\n      pop\n      pop\n      jump\t// out\n        /* \"#utility.yul\":2042:2516   */\n    tag_28:\n        /* \"#utility.yul\":2110:2116   */\n      0x00\n        /* \"#utility.yul\":2118:2124   */\n      dup1\n        /* \"#utility.yul\":2167:2169   */\n      0x40\n        /* \"#utility.yul\":2155:2164   */\n      dup4\n        /* \"#utility.yul\":2146:2153   */\n      dup6\n        /* \"#utility.yul\":2142:2165   */\n      sub\n        /* \"#utility.yul\":2138:2170   */\n      slt\n        /* \"#utility.yul\":2135:2254   */\n      iszero\n      tag_115\n      jumpi\n        /* \"#utility.yul\":2173:2252   */\n      tag_116\n      tag_71\n      jump\t// in\n    tag_116:\n        /* \"#utility.yul\":2135:2254   */\n    tag_115:\n        /* \"#utility.yul\":2293:2294   */\n      0x00\n        /* \"#utility.yul\":2318:2371   */\n      tag_117\n        /* \"#utility.yul\":2363:2370   */\n      dup6\n        /* \"#utility.yul\":2354:2360   */\n      dup3\n        /* \"#utility.yul\":2343:2352   */\n      dup7\n        /* \"#utility.yul\":2339:2361   */\n      add\n        /* \"#utility.yul\":2318:2371   */\n      tag_78\n      jump\t// in\n    tag_117:\n        /* \"#utility.yul\":2308:2371   */\n      swap3\n      pop\n        /* \"#utility.yul\":2264:2381   */\n      pop\n        /* \"#utility.yul\":2420:2422   */\n      0x20\n        /* \"#utility.yul\":2446:2499   */\n      tag_118\n        /* \"#utility.yul\":2491:2498   */\n      dup6\n        /* \"#utility.yul\":2482:2488   */\n      dup3\n        /* \"#utility.yul\":2471:2480   */\n      dup7\n        /* \"#utility.yul\":2467:2489   */\n      add\n        /* \"#utility.yul\":2446:2499   */\n      tag_78\n      jump\t// in\n    tag_118:\n        /* \"#utility.yul\":2436:2499   */\n      swap2\n      pop\n        /* \"#utility.yul\":2391:2509   */\n      pop\n        /* \"#utility.yul\":2042:2516   */\n      swap3\n      pop\n      swap3\n      swap1\n      pop\n      jump\t// out\n        /* \"#utility.yul\":2522:2640   */\n    tag_79:\n        /* \"#utility.yul\":2609:2633   */\n      tag_120\n        /* \"#utility.yul\":2627:2632   */\n      dup2\n        /* \"#utility.yul\":2609:2633   */\n      tag_76\n      jump\t// in\n    tag_120:\n        /* \"#utility.yul\":2604:2607   */\n      dup3\n        /* \"#utility.yul\":2597:2634   */\n      mstore\n        /* \"#utility.yul\":2522:2640   */\n      pop\n      pop\n      jump\t// out\n        /* \"#utility.yul\":2646:2868   */\n    tag_31:\n        /* \"#utility.yul\":2739:2743   */\n      0x00\n        /* \"#utility.yul\":2777:2779   */\n      0x20\n        /* \"#utility.yul\":2766:2775   */\n      dup3\n        /* \"#utility.yul\":2762:2780   */\n      add\n        /* \"#utility.yul\":2754:2780   */\n      swap1\n      pop\n        /* \"#utility.yul\":2790:2861   */\n      tag_122\n        /* \"#utility.yul\":2858:2859   */\n      0x00\n        /* \"#utility.yul\":2847:2856   */\n      dup4\n        /* \"#utility.yul\":2843:2860   */\n      add\n        /* \"#utility.yul\":2834:2840   */\n      dup5\n        /* \"#utility.yul\":2790:2861   */\n      tag_79\n      jump\t// in\n    tag_122:\n        /* \"#utility.yul\":2646:2868   */\n      swap3\n      swap2\n      pop\n      pop\n      jump\t// out\n        /* \"#utility.yul\":2874:3021   */\n    tag_80:\n        /* \"#utility.yul\":2975:2986   */\n      0x00\n        /* \"#utility.yul\":3012:3015   */\n      dup2\n        /* \"#utility.yul\":2997:3015   */\n      swap1\n      pop\n        /* \"#utility.yul\":2874:3021   */\n      swap3\n      swap2\n      pop\n      pop\n      jump\t// out\n        /* \"#utility.yul\":3027:3141   */\n    tag_81:\n      pop\n      jump\t// out\n        /* \"#utility.yul\":3147:3545   */\n    tag_82:\n        /* \"#utility.yul\":3306:3309   */\n      0x00\n        /* \"#utility.yul\":3327:3410   */\n      tag_126\n        /* \"#utility.yul\":3408:3409   */\n      0x00\n        /* \"#utility.yul\":3403:3406   */\n      dup4\n        /* \"#utility.yul\":3327:3410   */\n      tag_80\n      jump\t// in\n    tag_126:\n        /* \"#utility.yul\":3320:3410   */\n      swap2\n      pop\n        /* \"#utility.yul\":3419:3512   */\n      tag_127\n        /* \"#utility.yul\":3508:3511   */\n      dup3\n        /* \"#utility.yul\":3419:3512   */\n      tag_81\n      jump\t// in\n    tag_127:\n        /* \"#utility.yul\":3537:3538   */\n      0x00\n        /* \"#utility.yul\":3532:3535   */\n      dup3\n        /* \"#utility.yul\":3528:3539   */\n      add\n        /* \"#utility.yul\":3521:3539   */\n      swap1\n      pop\n        /* \"#utility.yul\":3147:3545   */\n      swap2\n      swap1\n      pop\n      jump\t// out\n        /* \"#utility.yul\":3551:3930   */\n    tag_52:\n        /* \"#utility.yul\":3735:3738   */\n      0x00\n        /* \"#utility.yul\":3757:3904   */\n      tag_129\n        /* \"#utility.yul\":3900:3903   */\n      dup3\n        /* \"#utility.yul\":3757:3904   */\n      tag_82\n      jump\t// in\n    tag_129:\n        /* \"#utility.yul\":3750:3904   */\n      swap2\n      pop\n        /* \"#utility.yul\":3921:3924   */\n      dup2\n        /* \"#utility.yul\":3914:3924   */\n      swap1\n      pop\n        /* \"#utility.yul\":3551:3930   */\n      swap2\n      swap1\n      pop\n      jump\t// out\n        /* \"#utility.yul\":3936:4105   */\n    tag_83:\n        /* \"#utility.yul\":4020:4031   */\n      0x00\n        /* \"#utility.yul\":4054:4060   */\n      dup3\n        /* \"#utility.yul\":4049:4052   */\n      dup3\n        /* \"#utility.yul\":4042:4061   */\n      mstore\n        /* \"#utility.yul\":4094:4098   */\n      0x20\n        /* \"#utility.yul\":4089:4092   */\n      dup3\n        /* \"#utility.yul\":4085:4099   */\n      add\n        /* \"#utility.yul\":4070:4099   */\n      swap1\n      pop\n        /* \"#utility.yul\":3936:4105   */\n      swap3\n      swap2\n      pop\n      pop\n      jump\t// out\n        /* \"#utility.yul\":4111:4475   */\n    tag_84:\n        /* \"#utility.yul\":4253:4256   */\n      0x00\n        /* \"#utility.yul\":4274:4340   */\n      tag_132\n        /* \"#utility.yul\":4338:4339   */\n      0x00\n        /* \"#utility.yul\":4333:4336   */\n      dup4\n        /* \"#utility.yul\":4274:4340   */\n      tag_83\n      jump\t// in\n    tag_132:\n        /* \"#utility.yul\":4267:4340   */\n      swap2\n      pop\n        /* \"#utility.yul\":4349:4442   */\n      tag_133\n        /* \"#utility.yul\":4438:4441   */\n      dup3\n        /* \"#utility.yul\":4349:4442   */\n      tag_81\n      jump\t// in\n    tag_133:\n        /* \"#utility.yul\":4467:4468   */\n      0x00\n        /* \"#utility.yul\":4462:4465   */\n      dup3\n        /* \"#utility.yul\":4458:4469   */\n      add\n        /* \"#utility.yul\":4451:4469   */\n      swap1\n      pop\n        /* \"#utility.yul\":4111:4475   */\n      swap2\n      swap1\n      pop\n      jump\t// out\n        /* \"#utility.yul\":4481:4900   */\n    tag_58:\n        /* \"#utility.yul\":4647:4651   */\n      0x00\n        /* \"#utility.yul\":4685:4687   */\n      0x20\n        /* \"#utility.yul\":4674:4683   */\n      dup3\n        /* \"#utility.yul\":4670:4688   */\n      add\n        /* \"#utility.yul\":4662:4688   */\n      swap1\n      pop\n        /* \"#utility.yul\":4734:4743   */\n      dup2\n        /* \"#utility.yul\":4728:4732   */\n      dup2\n        /* \"#utility.yul\":4724:4744   */\n      sub\n        /* \"#utility.yul\":4720:4721   */\n      0x00\n        /* \"#utility.yul\":4709:4718   */\n      dup4\n        /* \"#utility.yul\":4705:4722   */\n      add\n        /* \"#utility.yul\":4698:4745   */\n      mstore\n        /* \"#utility.yul\":4762:4893   */\n      tag_135\n        /* \"#utility.yul\":4888:4892   */\n      dup2\n        /* \"#utility.yul\":4762:4893   */\n      tag_84\n      jump\t// in\n    tag_135:\n        /* \"#utility.yul\":4754:4893   */\n      swap1\n      pop\n        /* \"#utility.yul\":4481:4900   */\n      swap2\n      swap1\n      pop\n      jump\t// out\n        /* \"#utility.yul\":4906:5086   */\n    tag_85:\n        /* \"#utility.yul\":4954:5031   */\n      0x4e487b7100000000000000000000000000000000000000000000000000000000\n        /* \"#utility.yul\":4951:4952   */\n      0x00\n        /* \"#utility.yul\":4944:5032   */\n      mstore\n        /* \"#utility.yul\":5051:5055   */\n      0x11\n        /* \"#utility.yul\":5048:5049   */\n      0x04\n        /* \"#utility.yul\":5041:5056   */\n      mstore\n        /* \"#utility.yul\":5075:5079   */\n      0x24\n        /* \"#utility.yul\":5072:5073   */\n      0x00\n        /* \"#utility.yul\":5065:5080   */\n      revert\n        /* \"#utility.yul\":5092:5502   */\n    tag_61:\n        /* \"#utility.yul\":5132:5139   */\n      0x00\n        /* \"#utility.yul\":5155:5175   */\n      tag_138\n        /* \"#utility.yul\":5173:5174   */\n      dup3\n        /* \"#utility.yul\":5155:5175   */\n      tag_76\n      jump\t// in\n    tag_138:\n        /* \"#utility.yul\":5150:5175   */\n      swap2\n      pop\n        /* \"#utility.yul\":5189:5209   */\n      tag_139\n        /* \"#utility.yul\":5207:5208   */\n      dup4\n        /* \"#utility.yul\":5189:5209   */\n      tag_76\n      jump\t// in\n    tag_139:\n        /* \"#utility.yul\":5184:5209   */\n      swap3\n      pop\n        /* \"#utility.yul\":5244:5245   */\n      dup3\n        /* \"#utility.yul\":5241:5242   */\n      dup3\n        /* \"#utility.yul\":5237:5246   */\n      mul\n        /* \"#utility.yul\":5266:5296   */\n      tag_140\n        /* \"#utility.yul\":5284:5295   */\n      dup2\n        /* \"#utility.yul\":5266:5296   */\n      tag_76\n      jump\t// in\n    tag_140:\n        /* \"#utility.yul\":5255:5296   */\n      swap2\n      pop\n        /* \"#utility.yul\":5445:5446   */\n      dup3\n        /* \"#utility.yul\":5436:5443   */\n      dup3\n        /* \"#utility.yul\":5432:5447   */\n      div\n        /* \"#utility.yul\":5429:5430   */\n      dup5\n        /* \"#utility.yul\":5426:5448   */\n      eq\n        /* \"#utility.yul\":5406:5407   */\n      dup4\n        /* \"#utility.yul\":5399:5408   */\n      iszero\n        /* \"#utility.yul\":5379:5462   */\n      or\n        /* \"#utility.yul\":5356:5495   */\n      tag_141\n      jumpi\n        /* \"#utility.yul\":5475:5493   */\n      tag_142\n      tag_85\n      jump\t// in\n    tag_142:\n        /* \"#utility.yul\":5356:5495   */\n    tag_141:\n        /* \"#utility.yul\":5140:5502   */\n      pop\n        /* \"#utility.yul\":5092:5502   */\n      swap3\n      swap2\n      pop\n      pop\n      jump\t// out\n\n    auxdata: 0xa26469706673582212201f382ed74ee6098b992026c60653b368326704b8df98b3739dfd0918dff001b964736f6c63430008140033\n}\n",
				"bytecode": {
					"linkReferences": {},
					"object": "608060405234801561000f575f80fd5b503360025f6101000a81548173ffffffffffffffffffffffffffffffffffffffff021916908373ffffffffffffffffffffffffffffffffffffffff16021790555061055f8061005d5f395ff3fe608060405260043610610085575f3560e01c80636984f020116100585780636984f0201461012d5780637b5d520b146101575780638c5d78f41461016d5780639f4a079b14610197578063e4685ab3146101c157610085565b80633a32b54914610089578063514d56ac1461009f57806351cff8d9146100c95780635a37fb4e146100f1575b5f80fd5b348015610094575f80fd5b5061009d6101cb565b005b3480156100aa575f80fd5b506100b36101cd565b6040516100c09190610310565b60405180910390f35b3480156100d4575f80fd5b506100ef60048036038101906100ea9190610368565b6101f2565b005b3480156100fc575f80fd5b50610117600480360381019061011291906103c6565b6102a1565b6040516101249190610413565b60405180910390f35b348015610138575f80fd5b506101416102b6565b60405161014e9190610413565b60405180910390f35b348015610162575f80fd5b5061016b6102be565b005b348015610178575f80fd5b506101816102c0565b60405161018e9190610413565b60405180910390f35b3480156101a2575f80fd5b506101ab6102c7565b6040516101b89190610413565b60405180910390f35b6101c96102cf565b005b565b60025f9054906101000a900473ffffffffffffffffffffffffffffffffffffffff1681565b5f808273ffffffffffffffffffffffffffffffffffffffff164760405161021890610459565b5f6040518083038185875af1925050503d805f8114610252576040519150601f19603f3d011682016040523d82523d5f602084013e610257565b606091505b50915091508161029c576040517f08c379a00000000000000000000000000000000000000000000000000000000081526004016102939061049d565b60405180910390fd5b505050565b5f81836102ae91906104e8565b905092915050565b5f8054905090565b565b5f47905090565b5f8054905090565b565b5f73ffffffffffffffffffffffffffffffffffffffff82169050919050565b5f6102fa826102d1565b9050919050565b61030a816102f0565b82525050565b5f6020820190506103235f830184610301565b92915050565b5f80fd5b5f610337826102d1565b9050919050565b6103478161032d565b8114610351575f80fd5b50565b5f813590506103628161033e565b92915050565b5f6020828403121561037d5761037c610329565b5b5f61038a84828501610354565b91505092915050565b5f819050919050565b6103a581610393565b81146103af575f80fd5b50565b5f813590506103c08161039c565b92915050565b5f80604083850312156103dc576103db610329565b5b5f6103e9858286016103b2565b92505060206103fa858286016103b2565b9150509250929050565b61040d81610393565b82525050565b5f6020820190506104265f830184610404565b92915050565b5f81905092915050565b50565b5f6104445f8361042c565b915061044f82610436565b5f82019050919050565b5f61046382610439565b9150819050919050565b5f82825260208201905092915050565b5f6104885f8361046d565b915061049382610436565b5f82019050919050565b5f6020820190508181035f8301526104b48161047d565b9050919050565b7f4e487b71000000000000000000000000000000000000000000000000000000005f52601160045260245ffd5b5f6104f282610393565b91506104fd83610393565b925082820261050b81610393565b91508282048414831517610522576105216104bb565b5b509291505056fea26469706673582212201f382ed74ee6098b992026c60653b368326704b8df98b3739dfd0918dff001b964736f6c63430008140033",
					"opcodes": "PUSH1 0x80 PUSH1 0x40 MSTORE CALLVALUE DUP1 ISZERO PUSH2 0xF JUMPI PUSH0 DUP1 REVERT JUMPDEST POP CALLER PUSH1 0x2 PUSH0 PUSH2 0x100 EXP DUP2 SLOAD DUP2 PUSH20 0xFFFFFFFFFFFFFFFFFFFFFFFFFFFFFFFFFFFFFFFF MUL NOT AND SWAP1 DUP4 PUSH20 0xFFFFFFFFFFFFFFFFFFFFFFFFFFFFFFFFFFFFFFFF AND MUL OR SWAP1 SSTORE POP PUSH2 0x55F DUP1 PUSH2 0x5D PUSH0 CODECOPY PUSH0 RETURN INVALID PUSH1 0x80 PUSH1 0x40 MSTORE PUSH1 0x4 CALLDATASIZE LT PUSH2 0x85 JUMPI PUSH0 CALLDATALOAD PUSH1 0xE0 SHR DUP1 PUSH4 0x6984F020 GT PUSH2 0x58 JUMPI DUP1 PUSH4 0x6984F020 EQ PUSH2 0x12D JUMPI DUP1 PUSH4 0x7B5D520B EQ PUSH2 0x157 JUMPI DUP1 PUSH4 0x8C5D78F4 EQ PUSH2 0x16D JUMPI DUP1 PUSH4 0x9F4A079B EQ PUSH2 0x197 JUMPI DUP1 PUSH4 0xE4685AB3 EQ PUSH2 0x1C1 JUMPI PUSH2 0x85 JUMP JUMPDEST DUP1 PUSH4 0x3A32B549 EQ PUSH2 0x89 JUMPI DUP1 PUSH4 0x514D56AC EQ PUSH2 0x9F JUMPI DUP1 PUSH4 0x51CFF8D9 EQ PUSH2 0xC9 JUMPI DUP1 PUSH4 0x5A37FB4E EQ PUSH2 0xF1 JUMPI JUMPDEST PUSH0 DUP1 REVERT JUMPDEST CALLVALUE DUP1 ISZERO PUSH2 0x94 JUMPI PUSH0 DUP1 REVERT JUMPDEST POP PUSH2 0x9D PUSH2 0x1CB JUMP JUMPDEST STOP JUMPDEST CALLVALUE DUP1 ISZERO PUSH2 0xAA JUMPI PUSH0 DUP1 REVERT JUMPDEST POP PUSH2 0xB3 PUSH2 0x1CD JUMP JUMPDEST PUSH1 0x40 MLOAD PUSH2 0xC0 SWAP2 SWAP1 PUSH2 0x310 JUMP JUMPDEST PUSH1 0x40 MLOAD DUP1 SWAP2 SUB SWAP1 RETURN JUMPDEST CALLVALUE DUP1 ISZERO PUSH2 0xD4 JUMPI PUSH0 DUP1 REVERT JUMPDEST POP PUSH2 0xEF PUSH1 0x4 DUP1 CALLDATASIZE SUB DUP2 ADD SWAP1 PUSH2 0xEA SWAP2 SWAP1 PUSH2 0x368 JUMP JUMPDEST PUSH2 0x1F2 JUMP JUMPDEST STOP JUMPDEST CALLVALUE DUP1 ISZERO PUSH2 0xFC JUMPI PUSH0 DUP1 REVERT JUMPDEST POP PUSH2 0x117 PUSH1 0x4 DUP1 CALLDATASIZE SUB DUP2 ADD SWAP1 PUSH2 0x112 SWAP2 SWAP1 PUSH2 0x3C6 JUMP JUMPDEST PUSH2 0x2A1 JUMP JUMPDEST PUSH1 0x40 MLOAD PUSH2 0x124 SWAP2 SWAP1 PUSH2 0x413 JUMP JUMPDEST PUSH1 0x40 MLOAD DUP1 SWAP2 SUB SWAP1 RETURN JUMPDEST CALLVALUE DUP1 ISZERO PUSH2 0x138 JUMPI PUSH0 DUP1 REVERT JUMPDEST POP PUSH2 0x141 PUSH2 0x2B6 JUMP JUMPDEST PUSH1 0x40 MLOAD PUSH2 0x14E SWAP2 SWAP1 PUSH2 0x413 JUMP JUMPDEST PUSH1 0x40 MLOAD DUP1 SWAP2 SUB SWAP1 RETURN JUMPDEST CALLVALUE DUP1 ISZERO PUSH2 0x162 JUMPI PUSH0 DUP1 REVERT JUMPDEST POP PUSH2 0x16B PUSH2 0x2BE JUMP JUMPDEST STOP JUMPDEST CALLVALUE DUP1 ISZERO PUSH2 0x178 JUMPI PUSH0 DUP1 REVERT JUMPDEST POP PUSH2 0x181 PUSH2 0x2C0 JUMP JUMPDEST PUSH1 0x40 MLOAD PUSH2 0x18E SWAP2 SWAP1 PUSH2 0x413 JUMP JUMPDEST PUSH1 0x40 MLOAD DUP1 SWAP2 SUB SWAP1 RETURN JUMPDEST CALLVALUE DUP1 ISZERO PUSH2 0x1A2 JUMPI PUSH0 DUP1 REVERT JUMPDEST POP PUSH2 0x1AB PUSH2 0x2C7 JUMP JUMPDEST PUSH1 0x40 MLOAD PUSH2 0x1B8 SWAP2 SWAP1 PUSH2 0x413 JUMP JUMPDEST PUSH1 0x40 MLOAD DUP1 SWAP2 SUB SWAP1 RETURN JUMPDEST PUSH2 0x1C9 PUSH2 0x2CF JUMP JUMPDEST STOP JUMPDEST JUMP JUMPDEST PUSH1 0x2 PUSH0 SWAP1 SLOAD SWAP1 PUSH2 0x100 EXP SWAP1 DIV PUSH20 0xFFFFFFFFFFFFFFFFFFFFFFFFFFFFFFFFFFFFFFFF AND DUP2 JUMP JUMPDEST PUSH0 DUP1 DUP3 PUSH20 0xFFFFFFFFFFFFFFFFFFFFFFFFFFFFFFFFFFFFFFFF AND SELFBALANCE PUSH1 0x40 MLOAD PUSH2 0x218 SWAP1 PUSH2 0x459 JUMP JUMPDEST PUSH0 PUSH1 0x40 MLOAD DUP1 DUP4 SUB DUP2 DUP6 DUP8 GAS CALL SWAP3 POP POP POP RETURNDATASIZE DUP1 PUSH0 DUP2 EQ PUSH2 0x252 JUMPI PUSH1 0x40 MLOAD SWAP2 POP PUSH1 0x1F NOT PUSH1 0x3F RETURNDATASIZE ADD AND DUP3 ADD PUSH1 0x40 MSTORE RETURNDATASIZE DUP3 MSTORE RETURNDATASIZE PUSH0 PUSH1 0x20 DUP5 ADD RETURNDATACOPY PUSH2 0x257 JUMP JUMPDEST PUSH1 0x60 SWAP2 POP JUMPDEST POP SWAP2 POP SWAP2 POP DUP2 PUSH2 0x29C JUMPI PUSH1 0x40 MLOAD PUSH32 0x8C379A000000000000000000000000000000000000000000000000000000000 DUP2 MSTORE PUSH1 0x4 ADD PUSH2 0x293 SWAP1 PUSH2 0x49D JUMP JUMPDEST PUSH1 0x40 MLOAD DUP1 SWAP2 SUB SWAP1 REVERT JUMPDEST POP POP POP JUMP JUMPDEST PUSH0 DUP2 DUP4 PUSH2 0x2AE SWAP2 SWAP1 PUSH2 0x4E8 JUMP JUMPDEST SWAP1 POP SWAP3 SWAP2 POP POP JUMP JUMPDEST PUSH0 DUP1 SLOAD SWAP1 POP SWAP1 JUMP JUMPDEST JUMP JUMPDEST PUSH0 SELFBALANCE SWAP1 POP SWAP1 JUMP JUMPDEST PUSH0 DUP1 SLOAD SWAP1 POP SWAP1 JUMP JUMPDEST JUMP JUMPDEST PUSH0 PUSH20 0xFFFFFFFFFFFFFFFFFFFFFFFFFFFFFFFFFFFFFFFF DUP3 AND SWAP1 POP SWAP2 SWAP1 POP JUMP JUMPDEST PUSH0 PUSH2 0x2FA DUP3 PUSH2 0x2D1 JUMP JUMPDEST SWAP1 POP SWAP2 SWAP1 POP JUMP JUMPDEST PUSH2 0x30A DUP2 PUSH2 0x2F0 JUMP JUMPDEST DUP3 MSTORE POP POP JUMP JUMPDEST PUSH0 PUSH1 0x20 DUP3 ADD SWAP1 POP PUSH2 0x323 PUSH0 DUP4 ADD DUP5 PUSH2 0x301 JUMP JUMPDEST SWAP3 SWAP2 POP POP JUMP JUMPDEST PUSH0 DUP1 REVERT JUMPDEST PUSH0 PUSH2 0x337 DUP3 PUSH2 0x2D1 JUMP JUMPDEST SWAP1 POP SWAP2 SWAP1 POP JUMP JUMPDEST PUSH2 0x347 DUP2 PUSH2 0x32D JUMP JUMPDEST DUP2 EQ PUSH2 0x351 JUMPI PUSH0 DUP1 REVERT JUMPDEST POP JUMP JUMPDEST PUSH0 DUP2 CALLDATALOAD SWAP1 POP PUSH2 0x362 DUP2 PUSH2 0x33E JUMP JUMPDEST SWAP3 SWAP2 POP POP JUMP JUMPDEST PUSH0 PUSH1 0x20 DUP3 DUP5 SUB SLT ISZERO PUSH2 0x37D JUMPI PUSH2 0x37C PUSH2 0x329 JUMP JUMPDEST JUMPDEST PUSH0 PUSH2 0x38A DUP5 DUP3 DUP6 ADD PUSH2 0x354 JUMP JUMPDEST SWAP2 POP POP SWAP3 SWAP2 POP POP JUMP JUMPDEST PUSH0 DUP2 SWAP1 POP SWAP2 SWAP1 POP JUMP JUMPDEST PUSH2 0x3A5 DUP2 PUSH2 0x393 JUMP JUMPDEST DUP2 EQ PUSH2 0x3AF JUMPI PUSH0 DUP1 REVERT JUMPDEST POP JUMP JUMPDEST PUSH0 DUP2 CALLDATALOAD SWAP1 POP PUSH2 0x3C0 DUP2 PUSH2 0x39C JUMP JUMPDEST SWAP3 SWAP2 POP POP JUMP JUMPDEST PUSH0 DUP1 PUSH1 0x40 DUP4 DUP6 SUB SLT ISZERO PUSH2 0x3DC JUMPI PUSH2 0x3DB PUSH2 0x329 JUMP JUMPDEST JUMPDEST PUSH0 PUSH2 0x3E9 DUP6 DUP3 DUP7 ADD PUSH2 0x3B2 JUMP JUMPDEST SWAP3 POP POP PUSH1 0x20 PUSH2 0x3FA DUP6 DUP3 DUP7 ADD PUSH2 0x3B2 JUMP JUMPDEST SWAP2 POP POP SWAP3 POP SWAP3 SWAP1 POP JUMP JUMPDEST PUSH2 0x40D DUP2 PUSH2 0x393 JUMP JUMPDEST DUP3 MSTORE POP POP JUMP JUMPDEST PUSH0 PUSH1 0x20 DUP3 ADD SWAP1 POP PUSH2 0x426 PUSH0 DUP4 ADD DUP5 PUSH2 0x404 JUMP JUMPDEST SWAP3 SWAP2 POP POP JUMP JUMPDEST PUSH0 DUP2 SWAP1 POP SWAP3 SWAP2 POP POP JUMP JUMPDEST POP JUMP JUMPDEST PUSH0 PUSH2 0x444 PUSH0 DUP4 PUSH2 0x42C JUMP JUMPDEST SWAP2 POP PUSH2 0x44F DUP3 PUSH2 0x436 JUMP JUMPDEST PUSH0 DUP3 ADD SWAP1 POP SWAP2 SWAP1 POP JUMP JUMPDEST PUSH0 PUSH2 0x463 DUP3 PUSH2 0x439 JUMP JUMPDEST SWAP2 POP DUP2 SWAP1 POP SWAP2 SWAP1 POP JUMP JUMPDEST PUSH0 DUP3 DUP3 MSTORE PUSH1 0x20 DUP3 ADD SWAP1 POP SWAP3 SWAP2 POP POP JUMP JUMPDEST PUSH0 PUSH2 0x488 PUSH0 DUP4 PUSH2 0x46D JUMP JUMPDEST SWAP2 POP PUSH2 0x493 DUP3 PUSH2 0x436 JUMP JUMPDEST PUSH0 DUP3 ADD SWAP1 POP SWAP2 SWAP1 POP JUMP JUMPDEST PUSH0 PUSH1 0x20 DUP3 ADD SWAP1 POP DUP2 DUP2 SUB PUSH0 DUP4 ADD MSTORE PUSH2 0x4B4 DUP2 PUSH2 0x47D JUMP JUMPDEST SWAP1 POP SWAP2 SWAP1 POP JUMP JUMPDEST PUSH32 0x4E487B7100000000000000000000000000000000000000000000000000000000 PUSH0 MSTORE PUSH1 0x11 PUSH1 0x4 MSTORE PUSH1 0x24 PUSH0 REVERT JUMPDEST PUSH0 PUSH2 0x4F2 DUP3 PUSH2 0x393 JUMP JUMPDEST SWAP2 POP PUSH2 0x4FD DUP4 PUSH2 0x393 JUMP JUMPDEST SWAP3 POP DUP3 DUP3 MUL PUSH2 0x50B DUP2 PUSH2 0x393 JUMP JUMPDEST SWAP2 POP DUP3 DUP3 DIV DUP5 EQ DUP4 ISZERO OR PUSH2 0x522 JUMPI PUSH2 0x521 PUSH2 0x4BB JUMP JUMPDEST JUMPDEST POP SWAP3 SWAP2 POP POP JUMP INVALID LOG2 PUSH5 0x6970667358 0x22 SLT KECCAK256 0x1F CODESIZE 0x2E 0xD7 0x4E 0xE6 MULMOD DUP12 SWAP10 KECCAK256 0x26 0xC6 MOD MSTORE8 0xB3 PUSH9 0x326704B8DF98B3739D REVERT MULMOD XOR 0xDF CREATE ADD 0xB9 PUSH5 0x736F6C6343 STOP ADDMOD EQ STOP CALLER "
				},
				"gasEstimates": {
					"creation": {
						"codeDepositCost": "275000",
						"executionCost": "24575",
						"totalCost": "299575"
					},
					"external": {
						"externalFunction()": "144",
						"externalPayableFunction()": "207",
						"externalPureFunction(uint256,uint256)": "infinite",
						"externalViewBalance()": "378",
						"externalViewFunction()": "2498",
						"externalViewFunctionDois()": "2432",
						"publicFunction()": "165",
						"s_contractOwner()": "2531",
						"withdraw(address)": "infinite"
					},
					"internal": {
						"internalFunction()": "infinite",
						"privateFunction()": "infinite"
					}
				},
				"methodIdentifiers": {
					"externalFunction()": "3a32b549",
					"externalPayableFunction()": "e4685ab3",
					"externalPureFunction(uint256,uint256)": "5a37fb4e",
					"externalViewBalance()": "8c5d78f4",
					"externalViewFunction()": "9f4a079b",
					"externalViewFunctionDois()": "6984f020",
					"publicFunction()": "7b5d520b",
					"s_contractOwner()": "514d56ac",
					"withdraw(address)": "51cff8d9"
				}
			},
			"storageLayout": {
				"storage": [
					{
						"astId": 5,
						"contract": "PrimeiroSC.sol:PrimeiroSC",
						"label": "s_uint",
						"offset": 0,
						"slot": "0",
						"type": "t_uint256"
					},
					{
						"astId": 7,
						"contract": "PrimeiroSC.sol:PrimeiroSC",
						"label": "s_int",
						"offset": 0,
						"slot": "1",
						"type": "t_int256"
					},
					{
						"astId": 9,
						"contract": "PrimeiroSC.sol:PrimeiroSC",
						"label": "s_contractOwner",
						"offset": 0,
						"slot": "2",
						"type": "t_address"
					},
					{
						"astId": 11,
						"contract": "PrimeiroSC.sol:PrimeiroSC",
						"label": "s_exemploHash",
						"offset": 0,
						"slot": "3",
						"type": "t_bytes32"
					},
					{
						"astId": 13,
						"contract": "PrimeiroSC.sol:PrimeiroSC",
						"label": "s_bool",
						"offset": 0,
						"slot": "4",
						"type": "t_bool"
					},
					{
						"astId": 15,
						"contract": "PrimeiroSC.sol:PrimeiroSC",
						"label": "s_str",
						"offset": 0,
						"slot": "5",
						"type": "t_string_storage"
					},
					{
						"astId": 17,
						"contract": "PrimeiroSC.sol:PrimeiroSC",
						"label": "s_textoBytes",
						"offset": 0,
						"slot": "6",
						"type": "t_bytes_storage"
					}
				],
				"types": {
					"t_address": {
						"encoding": "inplace",
						"label": "address",
						"numberOfBytes": "20"
					},
					"t_bool": {
						"encoding": "inplace",
						"label": "bool",
						"numberOfBytes": "1"
					},
					"t_bytes32": {
						"encoding": "inplace",
						"label": "bytes32",
						"numberOfBytes": "32"
					},
					"t_bytes_storage": {
						"encoding": "bytes",
						"label": "bytes",
						"numberOfBytes": "32"
					},
					"t_int256": {
						"encoding": "inplace",
						"label": "int256",
						"numberOfBytes": "32"
					},
					"t_string_storage": {
						"encoding": "bytes",
						"label": "string",
						"numberOfBytes": "32"
					},
					"t_uint256": {
						"encoding": "inplace",
						"label": "uint256",
						"numberOfBytes": "32"
					}
				}
			},
			"userdoc": {
				"kind": "user",
				"methods": {
					"constructor": {
						"notice": "constructor///"
					},
					"externalFunction()": {
						"notice": "external///"
					},
					"externalViewFunction()": {
						"notice": "view & pure///"
					},
					"publicFunction()": {
						"notice": "public///"
					}
				},
				"notice": "Interfaces, Libraries///",
				"version": 1
			}
		}
	}
}