{
	"OperatorDemo.sol": {
		"OperatorDemo": {
			"abi": [
				{
					"inputs": [],
					"name": "addition",
					"outputs": [
						{
							"internalType": "uint256",
							"name": "",
							"type": "uint256"
						}
					],
					"stateMutability": "view",
					"type": "function"
				},
				{
					"inputs": [],
					"name": "decrement",
					"outputs": [
						{
							"internalType": "uint256",
							"name": "",
							"type": "uint256"
						}
					],
					"stateMutability": "view",
					"type": "function"
				},
				{
					"inputs": [],
					"name": "division",
					"outputs": [
						{
							"internalType": "uint256",
							"name": "",
							"type": "uint256"
						}
					],
					"stateMutability": "view",
					"type": "function"
				},
				{
					"inputs": [],
					"name": "first",
					"outputs": [
						{
							"internalType": "uint16",
							"name": "",
							"type": "uint16"
						}
					],
					"stateMutability": "view",
					"type": "function"
				},
				{
					"inputs": [],
					"name": "increment",
					"outputs": [
						{
							"internalType": "uint256",
							"name": "",
							"type": "uint256"
						}
					],
					"stateMutability": "view",
					"type": "function"
				},
				{
					"inputs": [],
					"name": "modulus",
					"outputs": [
						{
							"internalType": "uint256",
							"name": "",
							"type": "uint256"
						}
					],
					"stateMutability": "view",
					"type": "function"
				},
				{
					"inputs": [],
					"name": "multiplication",
					"outputs": [
						{
							"internalType": "uint256",
							"name": "",
							"type": "uint256"
						}
					],
					"stateMutability": "view",
					"type": "function"
				},
				{
					"inputs": [],
					"name": "second",
					"outputs": [
						{
							"internalType": "uint16",
							"name": "",
							"type": "uint16"
						}
					],
					"stateMutability": "view",
					"type": "function"
				},
				{
					"inputs": [],
					"name": "subtraction",
					"outputs": [
						{
							"internalType": "uint256",
							"name": "",
							"type": "uint256"
						}
					],
					"stateMutability": "view",
					"type": "function"
				}
			],
			"devdoc": {
				"kind": "dev",
				"methods": {},
				"version": 1
			},
			"evm": {
				"assembly": "    /* \"OperatorDemo.sol\":58:884  contract OperatorDemo {... */\n  mstore(0x40, 0x80)\n    /* \"OperatorDemo.sol\":137:139  10 */\n  0x0a\n    /* \"OperatorDemo.sol\":115:139  uint16 public first = 10 */\n  0x00\n  dup1\n  0x0100\n  exp\n  dup2\n  sload\n  dup2\n  0xffff\n  mul\n  not\n  and\n  swap1\n  dup4\n  0xffff\n  and\n  mul\n  or\n  swap1\n  sstore\n  pop\n    /* \"OperatorDemo.sol\":168:170  30 */\n  0x1e\n    /* \"OperatorDemo.sol\":145:170  uint16 public second = 30 */\n  0x00\n  exp(0x0100, 0x02)\n  dup2\n  sload\n  dup2\n  0xffff\n  mul\n  not\n  and\n  swap1\n  dup4\n  0xffff\n  and\n  mul\n  or\n  swap1\n  sstore\n  pop\n    /* \"OperatorDemo.sol\":264:270  second */\n  0x00\n  0x02\n  swap1\n  sload\n  swap1\n  0x0100\n  exp\n  swap1\n  div\n  0xffff\n  and\n    /* \"OperatorDemo.sol\":256:261  first */\n  0x00\n  dup1\n  sload\n  swap1\n  0x0100\n  exp\n  swap1\n  div\n  0xffff\n  and\n    /* \"OperatorDemo.sol\":256:270  first + second */\n  tag_1\n  swap2\n  swap1\n  tag_2\n  jump\t// in\ntag_1:\n    /* \"OperatorDemo.sol\":232:270  uint public addition  = first + second */\n  0xffff\n  and\n  0x01\n  sstore\n    /* \"OperatorDemo.sol\":369:374  first */\n  0x00\n  dup1\n  sload\n  swap1\n  0x0100\n  exp\n  swap1\n  div\n  0xffff\n  and\n    /* \"OperatorDemo.sol\":360:366  second */\n  0x00\n  0x02\n  swap1\n  sload\n  swap1\n  0x0100\n  exp\n  swap1\n  div\n  0xffff\n  and\n    /* \"OperatorDemo.sol\":360:374  second - first */\n  tag_3\n  swap2\n  swap1\n  tag_4\n  jump\t// in\ntag_3:\n    /* \"OperatorDemo.sol\":333:374  uint public subtraction  = second - first */\n  0xffff\n  and\n  0x02\n  sstore\n    /* \"OperatorDemo.sol\":475:481  second */\n  0x00\n  0x02\n  swap1\n  sload\n  swap1\n  0x0100\n  exp\n  swap1\n  div\n  0xffff\n  and\n    /* \"OperatorDemo.sol\":467:472  first */\n  0x00\n  dup1\n  sload\n  swap1\n  0x0100\n  exp\n  swap1\n  div\n  0xffff\n  and\n    /* \"OperatorDemo.sol\":467:481  first * second */\n  tag_5\n  swap2\n  swap1\n  tag_6\n  jump\t// in\ntag_5:\n    /* \"OperatorDemo.sol\":437:481  uint public multiplication  = first * second */\n  0xffff\n  and\n  0x03\n  sstore\n    /* \"OperatorDemo.sol\":583:589  second */\n  0x00\n  0x02\n  swap1\n  sload\n  swap1\n  0x0100\n  exp\n  swap1\n  div\n  0xffff\n  and\n    /* \"OperatorDemo.sol\":575:580  first */\n  0x00\n  dup1\n  sload\n  swap1\n  0x0100\n  exp\n  swap1\n  div\n  0xffff\n  and\n    /* \"OperatorDemo.sol\":575:589  first / second */\n  tag_7\n  swap2\n  swap1\n  tag_8\n  jump\t// in\ntag_7:\n    /* \"OperatorDemo.sol\":552:589  uint public division = first / second */\n  0xffff\n  and\n  0x04\n  sstore\n    /* \"OperatorDemo.sol\":672:678  second */\n  0x00\n  0x02\n  swap1\n  sload\n  swap1\n  0x0100\n  exp\n  swap1\n  div\n  0xffff\n  and\n    /* \"OperatorDemo.sol\":664:669  first */\n  0x00\n  dup1\n  sload\n  swap1\n  0x0100\n  exp\n  swap1\n  div\n  0xffff\n  and\n    /* \"OperatorDemo.sol\":664:678  first % second */\n  tag_9\n  swap2\n  swap1\n  tag_10\n  jump\t// in\ntag_9:\n    /* \"OperatorDemo.sol\":642:678  uint public modulus = first % second */\n  0xffff\n  and\n  0x05\n  sstore\n    /* \"OperatorDemo.sol\":772:778  second */\n  0x00\n  0x02\n    /* \"OperatorDemo.sol\":770:778  --second */\n  dup2\n  dup2\n  swap1\n  sload\n  swap1\n  0x0100\n  exp\n  swap1\n  div\n  0xffff\n  and\n  tag_11\n  swap1\n  tag_12\n  jump\t// in\ntag_11:\n  swap2\n  swap1\n  0x0100\n  exp\n  dup2\n  sload\n  dup2\n  0xffff\n  mul\n  not\n  and\n  swap1\n  dup4\n  0xffff\n  and\n  mul\n  or\n  swap1\n  sstore\n    /* \"OperatorDemo.sol\":746:778  uint public decrement = --second */\n  0xffff\n  and\n  0x06\n  sstore\n    /* \"OperatorDemo.sol\":875:880  first */\n  0x00\n  dup1\n    /* \"OperatorDemo.sol\":873:880  ++first */\n  dup2\n  dup2\n  swap1\n  sload\n  swap1\n  0x0100\n  exp\n  swap1\n  div\n  0xffff\n  and\n  tag_13\n  swap1\n  tag_14\n  jump\t// in\ntag_13:\n  swap2\n  swap1\n  0x0100\n  exp\n  dup2\n  sload\n  dup2\n  0xffff\n  mul\n  not\n  and\n  swap1\n  dup4\n  0xffff\n  and\n  mul\n  or\n  swap1\n  sstore\n    /* \"OperatorDemo.sol\":849:880  uint public increment = ++first */\n  0xffff\n  and\n  0x07\n  sstore\n    /* \"OperatorDemo.sol\":58:884  contract OperatorDemo {... */\n  callvalue\n  dup1\n  iszero\n  tag_15\n  jumpi\n  0x00\n  dup1\n  revert\ntag_15:\n  pop\n  jump(tag_16)\n    /* \"#utility.yul\":7:96   */\ntag_17:\n    /* \"#utility.yul\":43:50   */\n  0x00\n    /* \"#utility.yul\":83:89   */\n  0xffff\n    /* \"#utility.yul\":76:81   */\n  dup3\n    /* \"#utility.yul\":72:90   */\n  and\n    /* \"#utility.yul\":61:90   */\n  swap1\n  pop\n    /* \"#utility.yul\":7:96   */\n  swap2\n  swap1\n  pop\n  jump\t// out\n    /* \"#utility.yul\":102:282   */\ntag_18:\n    /* \"#utility.yul\":150:227   */\n  0x4e487b7100000000000000000000000000000000000000000000000000000000\n    /* \"#utility.yul\":147:148   */\n  0x00\n    /* \"#utility.yul\":140:228   */\n  mstore\n    /* \"#utility.yul\":247:251   */\n  0x11\n    /* \"#utility.yul\":244:245   */\n  0x04\n    /* \"#utility.yul\":237:252   */\n  mstore\n    /* \"#utility.yul\":271:275   */\n  0x24\n    /* \"#utility.yul\":268:269   */\n  0x00\n    /* \"#utility.yul\":261:276   */\n  revert\n    /* \"#utility.yul\":288:481   */\ntag_2:\n    /* \"#utility.yul\":327:330   */\n  0x00\n    /* \"#utility.yul\":346:365   */\n  tag_24\n    /* \"#utility.yul\":363:364   */\n  dup3\n    /* \"#utility.yul\":346:365   */\n  tag_17\n  jump\t// in\ntag_24:\n    /* \"#utility.yul\":341:365   */\n  swap2\n  pop\n    /* \"#utility.yul\":379:398   */\n  tag_25\n    /* \"#utility.yul\":396:397   */\n  dup4\n    /* \"#utility.yul\":379:398   */\n  tag_17\n  jump\t// in\ntag_25:\n    /* \"#utility.yul\":374:398   */\n  swap3\n  pop\n    /* \"#utility.yul\":421:422   */\n  dup3\n    /* \"#utility.yul\":418:419   */\n  dup3\n    /* \"#utility.yul\":414:423   */\n  add\n    /* \"#utility.yul\":407:423   */\n  swap1\n  pop\n    /* \"#utility.yul\":444:450   */\n  0xffff\n    /* \"#utility.yul\":439:442   */\n  dup2\n    /* \"#utility.yul\":436:451   */\n  gt\n    /* \"#utility.yul\":433:474   */\n  iszero\n  tag_26\n  jumpi\n    /* \"#utility.yul\":454:472   */\n  tag_27\n  tag_18\n  jump\t// in\ntag_27:\n    /* \"#utility.yul\":433:474   */\ntag_26:\n    /* \"#utility.yul\":288:481   */\n  swap3\n  swap2\n  pop\n  pop\n  jump\t// out\n    /* \"#utility.yul\":487:683   */\ntag_4:\n    /* \"#utility.yul\":526:530   */\n  0x00\n    /* \"#utility.yul\":546:565   */\n  tag_29\n    /* \"#utility.yul\":563:564   */\n  dup3\n    /* \"#utility.yul\":546:565   */\n  tag_17\n  jump\t// in\ntag_29:\n    /* \"#utility.yul\":541:565   */\n  swap2\n  pop\n    /* \"#utility.yul\":579:598   */\n  tag_30\n    /* \"#utility.yul\":596:597   */\n  dup4\n    /* \"#utility.yul\":579:598   */\n  tag_17\n  jump\t// in\ntag_30:\n    /* \"#utility.yul\":574:598   */\n  swap3\n  pop\n    /* \"#utility.yul\":622:623   */\n  dup3\n    /* \"#utility.yul\":619:620   */\n  dup3\n    /* \"#utility.yul\":615:624   */\n  sub\n    /* \"#utility.yul\":607:624   */\n  swap1\n  pop\n    /* \"#utility.yul\":646:652   */\n  0xffff\n    /* \"#utility.yul\":640:644   */\n  dup2\n    /* \"#utility.yul\":637:653   */\n  gt\n    /* \"#utility.yul\":634:676   */\n  iszero\n  tag_31\n  jumpi\n    /* \"#utility.yul\":656:674   */\n  tag_32\n  tag_18\n  jump\t// in\ntag_32:\n    /* \"#utility.yul\":634:676   */\ntag_31:\n    /* \"#utility.yul\":487:683   */\n  swap3\n  swap2\n  pop\n  pop\n  jump\t// out\n    /* \"#utility.yul\":689:964   */\ntag_6:\n    /* \"#utility.yul\":728:735   */\n  0x00\n    /* \"#utility.yul\":751:770   */\n  tag_34\n    /* \"#utility.yul\":768:769   */\n  dup3\n    /* \"#utility.yul\":751:770   */\n  tag_17\n  jump\t// in\ntag_34:\n    /* \"#utility.yul\":746:770   */\n  swap2\n  pop\n    /* \"#utility.yul\":784:803   */\n  tag_35\n    /* \"#utility.yul\":801:802   */\n  dup4\n    /* \"#utility.yul\":784:803   */\n  tag_17\n  jump\t// in\ntag_35:\n    /* \"#utility.yul\":779:803   */\n  swap3\n  pop\n    /* \"#utility.yul\":838:839   */\n  dup3\n    /* \"#utility.yul\":835:836   */\n  dup3\n    /* \"#utility.yul\":831:840   */\n  mul\n    /* \"#utility.yul\":860:889   */\n  tag_36\n    /* \"#utility.yul\":877:888   */\n  dup2\n    /* \"#utility.yul\":860:889   */\n  tag_17\n  jump\t// in\ntag_36:\n    /* \"#utility.yul\":849:889   */\n  swap2\n  pop\n    /* \"#utility.yul\":921:932   */\n  dup1\n    /* \"#utility.yul\":912:919   */\n  dup3\n    /* \"#utility.yul\":909:933   */\n  eq\n    /* \"#utility.yul\":899:957   */\n  tag_37\n  jumpi\n    /* \"#utility.yul\":937:955   */\n  tag_38\n  tag_18\n  jump\t// in\ntag_38:\n    /* \"#utility.yul\":899:957   */\ntag_37:\n    /* \"#utility.yul\":736:964   */\n  pop\n    /* \"#utility.yul\":689:964   */\n  swap3\n  swap2\n  pop\n  pop\n  jump\t// out\n    /* \"#utility.yul\":970:1150   */\ntag_19:\n    /* \"#utility.yul\":1018:1095   */\n  0x4e487b7100000000000000000000000000000000000000000000000000000000\n    /* \"#utility.yul\":1015:1016   */\n  0x00\n    /* \"#utility.yul\":1008:1096   */\n  mstore\n    /* \"#utility.yul\":1115:1119   */\n  0x12\n    /* \"#utility.yul\":1112:1113   */\n  0x04\n    /* \"#utility.yul\":1105:1120   */\n  mstore\n    /* \"#utility.yul\":1139:1143   */\n  0x24\n    /* \"#utility.yul\":1136:1137   */\n  0x00\n    /* \"#utility.yul\":1129:1144   */\n  revert\n    /* \"#utility.yul\":1156:1338   */\ntag_8:\n    /* \"#utility.yul\":1195:1196   */\n  0x00\n    /* \"#utility.yul\":1212:1231   */\n  tag_41\n    /* \"#utility.yul\":1229:1230   */\n  dup3\n    /* \"#utility.yul\":1212:1231   */\n  tag_17\n  jump\t// in\ntag_41:\n    /* \"#utility.yul\":1207:1231   */\n  swap2\n  pop\n    /* \"#utility.yul\":1245:1264   */\n  tag_42\n    /* \"#utility.yul\":1262:1263   */\n  dup4\n    /* \"#utility.yul\":1245:1264   */\n  tag_17\n  jump\t// in\ntag_42:\n    /* \"#utility.yul\":1240:1264   */\n  swap3\n  pop\n    /* \"#utility.yul\":1283:1284   */\n  dup3\n    /* \"#utility.yul\":1273:1308   */\n  tag_43\n  jumpi\n    /* \"#utility.yul\":1288:1306   */\n  tag_44\n  tag_19\n  jump\t// in\ntag_44:\n    /* \"#utility.yul\":1273:1308   */\ntag_43:\n    /* \"#utility.yul\":1330:1331   */\n  dup3\n    /* \"#utility.yul\":1327:1328   */\n  dup3\n    /* \"#utility.yul\":1323:1332   */\n  div\n    /* \"#utility.yul\":1318:1332   */\n  swap1\n  pop\n    /* \"#utility.yul\":1156:1338   */\n  swap3\n  swap2\n  pop\n  pop\n  jump\t// out\n    /* \"#utility.yul\":1344:1517   */\ntag_10:\n    /* \"#utility.yul\":1375:1376   */\n  0x00\n    /* \"#utility.yul\":1392:1411   */\n  tag_46\n    /* \"#utility.yul\":1409:1410   */\n  dup3\n    /* \"#utility.yul\":1392:1411   */\n  tag_17\n  jump\t// in\ntag_46:\n    /* \"#utility.yul\":1387:1411   */\n  swap2\n  pop\n    /* \"#utility.yul\":1425:1444   */\n  tag_47\n    /* \"#utility.yul\":1442:1443   */\n  dup4\n    /* \"#utility.yul\":1425:1444   */\n  tag_17\n  jump\t// in\ntag_47:\n    /* \"#utility.yul\":1420:1444   */\n  swap3\n  pop\n    /* \"#utility.yul\":1463:1464   */\n  dup3\n    /* \"#utility.yul\":1453:1488   */\n  tag_48\n  jumpi\n    /* \"#utility.yul\":1468:1486   */\n  tag_49\n  tag_19\n  jump\t// in\ntag_49:\n    /* \"#utility.yul\":1453:1488   */\ntag_48:\n    /* \"#utility.yul\":1509:1510   */\n  dup3\n    /* \"#utility.yul\":1506:1507   */\n  dup3\n    /* \"#utility.yul\":1502:1511   */\n  mod\n    /* \"#utility.yul\":1497:1511   */\n  swap1\n  pop\n    /* \"#utility.yul\":1344:1517   */\n  swap3\n  swap2\n  pop\n  pop\n  jump\t// out\n    /* \"#utility.yul\":1523:1692   */\ntag_12:\n    /* \"#utility.yul\":1561:1564   */\n  0x00\n    /* \"#utility.yul\":1584:1607   */\n  tag_51\n    /* \"#utility.yul\":1601:1606   */\n  dup3\n    /* \"#utility.yul\":1584:1607   */\n  tag_17\n  jump\t// in\ntag_51:\n    /* \"#utility.yul\":1575:1607   */\n  swap2\n  pop\n    /* \"#utility.yul\":1629:1633   */\n  0x00\n    /* \"#utility.yul\":1622:1627   */\n  dup3\n    /* \"#utility.yul\":1619:1634   */\n  sub\n    /* \"#utility.yul\":1616:1657   */\n  tag_52\n  jumpi\n    /* \"#utility.yul\":1637:1655   */\n  tag_53\n  tag_18\n  jump\t// in\ntag_53:\n    /* \"#utility.yul\":1616:1657   */\ntag_52:\n    /* \"#utility.yul\":1684:1685   */\n  0x01\n    /* \"#utility.yul\":1677:1682   */\n  dup3\n    /* \"#utility.yul\":1673:1686   */\n  sub\n    /* \"#utility.yul\":1666:1686   */\n  swap1\n  pop\n    /* \"#utility.yul\":1523:1692   */\n  swap2\n  swap1\n  pop\n  jump\t// out\n    /* \"#utility.yul\":1698:1869   */\ntag_14:\n    /* \"#utility.yul\":1736:1739   */\n  0x00\n    /* \"#utility.yul\":1759:1782   */\n  tag_55\n    /* \"#utility.yul\":1776:1781   */\n  dup3\n    /* \"#utility.yul\":1759:1782   */\n  tag_17\n  jump\t// in\ntag_55:\n    /* \"#utility.yul\":1750:1782   */\n  swap2\n  pop\n    /* \"#utility.yul\":1804:1810   */\n  0xffff\n    /* \"#utility.yul\":1797:1802   */\n  dup3\n    /* \"#utility.yul\":1794:1811   */\n  sub\n    /* \"#utility.yul\":1791:1834   */\n  tag_56\n  jumpi\n    /* \"#utility.yul\":1814:1832   */\n  tag_57\n  tag_18\n  jump\t// in\ntag_57:\n    /* \"#utility.yul\":1791:1834   */\ntag_56:\n    /* \"#utility.yul\":1861:1862   */\n  0x01\n    /* \"#utility.yul\":1854:1859   */\n  dup3\n    /* \"#utility.yul\":1850:1863   */\n  add\n    /* \"#utility.yul\":1843:1863   */\n  swap1\n  pop\n    /* \"#utility.yul\":1698:1869   */\n  swap2\n  swap1\n  pop\n  jump\t// out\n    /* \"OperatorDemo.sol\":58:884  contract OperatorDemo {... */\ntag_16:\n  dataSize(sub_0)\n  dup1\n  dataOffset(sub_0)\n  0x00\n  codecopy\n  0x00\n  return\nstop\n\nsub_0: assembly {\n        /* \"OperatorDemo.sol\":58:884  contract OperatorDemo {... */\n      mstore(0x40, 0x80)\n      callvalue\n      dup1\n      iszero\n      tag_1\n      jumpi\n      0x00\n      dup1\n      revert\n    tag_1:\n      pop\n      jumpi(tag_2, lt(calldatasize, 0x04))\n      shr(0xe0, calldataload(0x00))\n      dup1\n      0x5a8ac02d\n      gt\n      tag_12\n      jumpi\n      dup1\n      0x5a8ac02d\n      eq\n      tag_7\n      jumpi\n      dup1\n      0xd09de08a\n      eq\n      tag_8\n      jumpi\n      dup1\n      0xe3ec0251\n      eq\n      tag_9\n      jumpi\n      dup1\n      0xec597128\n      eq\n      tag_10\n      jumpi\n      dup1\n      0xff4b0400\n      eq\n      tag_11\n      jumpi\n      jump(tag_2)\n    tag_12:\n      dup1\n      0x011285da\n      eq\n      tag_3\n      jumpi\n      dup1\n      0x2baeceb7\n      eq\n      tag_4\n      jumpi\n      dup1\n      0x3205f5fc\n      eq\n      tag_5\n      jumpi\n      dup1\n      0x3df4ddf4\n      eq\n      tag_6\n      jumpi\n    tag_2:\n      0x00\n      dup1\n      revert\n        /* \"OperatorDemo.sol\":437:481  uint public multiplication  = first * second */\n    tag_3:\n      tag_13\n      tag_14\n      jump\t// in\n    tag_13:\n      mload(0x40)\n      tag_15\n      swap2\n      swap1\n      tag_16\n      jump\t// in\n    tag_15:\n      mload(0x40)\n      dup1\n      swap2\n      sub\n      swap1\n      return\n        /* \"OperatorDemo.sol\":746:778  uint public decrement = --second */\n    tag_4:\n      tag_17\n      tag_18\n      jump\t// in\n    tag_17:\n      mload(0x40)\n      tag_19\n      swap2\n      swap1\n      tag_16\n      jump\t// in\n    tag_19:\n      mload(0x40)\n      dup1\n      swap2\n      sub\n      swap1\n      return\n        /* \"OperatorDemo.sol\":552:589  uint public division = first / second */\n    tag_5:\n      tag_20\n      tag_21\n      jump\t// in\n    tag_20:\n      mload(0x40)\n      tag_22\n      swap2\n      swap1\n      tag_16\n      jump\t// in\n    tag_22:\n      mload(0x40)\n      dup1\n      swap2\n      sub\n      swap1\n      return\n        /* \"OperatorDemo.sol\":115:139  uint16 public first = 10 */\n    tag_6:\n      tag_23\n      tag_24\n      jump\t// in\n    tag_23:\n      mload(0x40)\n      tag_25\n      swap2\n      swap1\n      tag_26\n      jump\t// in\n    tag_25:\n      mload(0x40)\n      dup1\n      swap2\n      sub\n      swap1\n      return\n        /* \"OperatorDemo.sol\":145:170  uint16 public second = 30 */\n    tag_7:\n      tag_27\n      tag_28\n      jump\t// in\n    tag_27:\n      mload(0x40)\n      tag_29\n      swap2\n      swap1\n      tag_26\n      jump\t// in\n    tag_29:\n      mload(0x40)\n      dup1\n      swap2\n      sub\n      swap1\n      return\n        /* \"OperatorDemo.sol\":849:880  uint public increment = ++first */\n    tag_8:\n      tag_30\n      tag_31\n      jump\t// in\n    tag_30:\n      mload(0x40)\n      tag_32\n      swap2\n      swap1\n      tag_16\n      jump\t// in\n    tag_32:\n      mload(0x40)\n      dup1\n      swap2\n      sub\n      swap1\n      return\n        /* \"OperatorDemo.sol\":333:374  uint public subtraction  = second - first */\n    tag_9:\n      tag_33\n      tag_34\n      jump\t// in\n    tag_33:\n      mload(0x40)\n      tag_35\n      swap2\n      swap1\n      tag_16\n      jump\t// in\n    tag_35:\n      mload(0x40)\n      dup1\n      swap2\n      sub\n      swap1\n      return\n        /* \"OperatorDemo.sol\":232:270  uint public addition  = first + second */\n    tag_10:\n      tag_36\n      tag_37\n      jump\t// in\n    tag_36:\n      mload(0x40)\n      tag_38\n      swap2\n      swap1\n      tag_16\n      jump\t// in\n    tag_38:\n      mload(0x40)\n      dup1\n      swap2\n      sub\n      swap1\n      return\n        /* \"OperatorDemo.sol\":642:678  uint public modulus = first % second */\n    tag_11:\n      tag_39\n      tag_40\n      jump\t// in\n    tag_39:\n      mload(0x40)\n      tag_41\n      swap2\n      swap1\n      tag_16\n      jump\t// in\n    tag_41:\n      mload(0x40)\n      dup1\n      swap2\n      sub\n      swap1\n      return\n        /* \"OperatorDemo.sol\":437:481  uint public multiplication  = first * second */\n    tag_14:\n      sload(0x03)\n      dup2\n      jump\t// out\n        /* \"OperatorDemo.sol\":746:778  uint public decrement = --second */\n    tag_18:\n      sload(0x06)\n      dup2\n      jump\t// out\n        /* \"OperatorDemo.sol\":552:589  uint public division = first / second */\n    tag_21:\n      sload(0x04)\n      dup2\n      jump\t// out\n        /* \"OperatorDemo.sol\":115:139  uint16 public first = 10 */\n    tag_24:\n      0x00\n      dup1\n      sload\n      swap1\n      0x0100\n      exp\n      swap1\n      div\n      0xffff\n      and\n      dup2\n      jump\t// out\n        /* \"OperatorDemo.sol\":145:170  uint16 public second = 30 */\n    tag_28:\n      0x00\n      0x02\n      swap1\n      sload\n      swap1\n      0x0100\n      exp\n      swap1\n      div\n      0xffff\n      and\n      dup2\n      jump\t// out\n        /* \"OperatorDemo.sol\":849:880  uint public increment = ++first */\n    tag_31:\n      sload(0x07)\n      dup2\n      jump\t// out\n        /* \"OperatorDemo.sol\":333:374  uint public subtraction  = second - first */\n    tag_34:\n      sload(0x02)\n      dup2\n      jump\t// out\n        /* \"OperatorDemo.sol\":232:270  uint public addition  = first + second */\n    tag_37:\n      sload(0x01)\n      dup2\n      jump\t// out\n        /* \"OperatorDemo.sol\":642:678  uint public modulus = first % second */\n    tag_40:\n      sload(0x05)\n      dup2\n      jump\t// out\n        /* \"#utility.yul\":7:84   */\n    tag_42:\n        /* \"#utility.yul\":44:51   */\n      0x00\n        /* \"#utility.yul\":73:78   */\n      dup2\n        /* \"#utility.yul\":62:78   */\n      swap1\n      pop\n        /* \"#utility.yul\":7:84   */\n      swap2\n      swap1\n      pop\n      jump\t// out\n        /* \"#utility.yul\":90:208   */\n    tag_43:\n        /* \"#utility.yul\":177:201   */\n      tag_49\n        /* \"#utility.yul\":195:200   */\n      dup2\n        /* \"#utility.yul\":177:201   */\n      tag_42\n      jump\t// in\n    tag_49:\n        /* \"#utility.yul\":172:175   */\n      dup3\n        /* \"#utility.yul\":165:202   */\n      mstore\n        /* \"#utility.yul\":90:208   */\n      pop\n      pop\n      jump\t// out\n        /* \"#utility.yul\":214:436   */\n    tag_16:\n        /* \"#utility.yul\":307:311   */\n      0x00\n        /* \"#utility.yul\":345:347   */\n      0x20\n        /* \"#utility.yul\":334:343   */\n      dup3\n        /* \"#utility.yul\":330:348   */\n      add\n        /* \"#utility.yul\":322:348   */\n      swap1\n      pop\n        /* \"#utility.yul\":358:429   */\n      tag_51\n        /* \"#utility.yul\":426:427   */\n      0x00\n        /* \"#utility.yul\":415:424   */\n      dup4\n        /* \"#utility.yul\":411:428   */\n      add\n        /* \"#utility.yul\":402:408   */\n      dup5\n        /* \"#utility.yul\":358:429   */\n      tag_43\n      jump\t// in\n    tag_51:\n        /* \"#utility.yul\":214:436   */\n      swap3\n      swap2\n      pop\n      pop\n      jump\t// out\n        /* \"#utility.yul\":442:531   */\n    tag_44:\n        /* \"#utility.yul\":478:485   */\n      0x00\n        /* \"#utility.yul\":518:524   */\n      0xffff\n        /* \"#utility.yul\":511:516   */\n      dup3\n        /* \"#utility.yul\":507:525   */\n      and\n        /* \"#utility.yul\":496:525   */\n      swap1\n      pop\n        /* \"#utility.yul\":442:531   */\n      swap2\n      swap1\n      pop\n      jump\t// out\n        /* \"#utility.yul\":537:652   */\n    tag_45:\n        /* \"#utility.yul\":622:645   */\n      tag_54\n        /* \"#utility.yul\":639:644   */\n      dup2\n        /* \"#utility.yul\":622:645   */\n      tag_44\n      jump\t// in\n    tag_54:\n        /* \"#utility.yul\":617:620   */\n      dup3\n        /* \"#utility.yul\":610:646   */\n      mstore\n        /* \"#utility.yul\":537:652   */\n      pop\n      pop\n      jump\t// out\n        /* \"#utility.yul\":658:876   */\n    tag_26:\n        /* \"#utility.yul\":749:753   */\n      0x00\n        /* \"#utility.yul\":787:789   */\n      0x20\n        /* \"#utility.yul\":776:785   */\n      dup3\n        /* \"#utility.yul\":772:790   */\n      add\n        /* \"#utility.yul\":764:790   */\n      swap1\n      pop\n        /* \"#utility.yul\":800:869   */\n      tag_56\n        /* \"#utility.yul\":866:867   */\n      0x00\n        /* \"#utility.yul\":855:864   */\n      dup4\n        /* \"#utility.yul\":851:868   */\n      add\n        /* \"#utility.yul\":842:848   */\n      dup5\n        /* \"#utility.yul\":800:869   */\n      tag_45\n      jump\t// in\n    tag_56:\n        /* \"#utility.yul\":658:876   */\n      swap3\n      swap2\n      pop\n      pop\n      jump\t// out\n\n    auxdata: 0xa264697066735822122061dd5a46923541cc276ad7549e00fd4c8c8f7787e73e6673fc604029ce20f99064736f6c63430008140033\n}\n",
				"bytecode": {
					"linkReferences": {},
					"object": "6080604052600a5f806101000a81548161ffff021916908361ffff160217905550601e5f60026101000a81548161ffff021916908361ffff1602179055505f60029054906101000a900461ffff165f8054906101000a900461ffff1661006591906101e8565b61ffff166001555f8054906101000a900461ffff165f60029054906101000a900461ffff16610094919061021d565b61ffff166002555f60029054906101000a900461ffff165f8054906101000a900461ffff166100c39190610252565b61ffff166003555f60029054906101000a900461ffff165f8054906101000a900461ffff166100f291906102bb565b61ffff166004555f60029054906101000a900461ffff165f8054906101000a900461ffff1661012191906102eb565b61ffff166005555f600281819054906101000a900461ffff166101439061031b565b91906101000a81548161ffff021916908361ffff160217905561ffff166006555f8081819054906101000a900461ffff1661017d90610342565b91906101000a81548161ffff021916908361ffff160217905561ffff166007553480156101a8575f80fd5b5061036b565b5f61ffff82169050919050565b7f4e487b71000000000000000000000000000000000000000000000000000000005f52601160045260245ffd5b5f6101f2826101ae565b91506101fd836101ae565b9250828201905061ffff811115610217576102166101bb565b5b92915050565b5f610227826101ae565b9150610232836101ae565b9250828203905061ffff81111561024c5761024b6101bb565b5b92915050565b5f61025c826101ae565b9150610267836101ae565b9250828202610275816101ae565b9150808214610287576102866101bb565b5b5092915050565b7f4e487b71000000000000000000000000000000000000000000000000000000005f52601260045260245ffd5b5f6102c5826101ae565b91506102d0836101ae565b9250826102e0576102df61028e565b5b828204905092915050565b5f6102f5826101ae565b9150610300836101ae565b9250826103105761030f61028e565b5b828206905092915050565b5f610325826101ae565b91505f8203610337576103366101bb565b5b600182039050919050565b5f61034c826101ae565b915061ffff82036103605761035f6101bb565b5b600182019050919050565b61028d806103785f395ff3fe608060405234801561000f575f80fd5b5060043610610091575f3560e01c80635a8ac02d116100645780635a8ac02d1461010d578063d09de08a1461012b578063e3ec025114610149578063ec59712814610167578063ff4b04001461018557610091565b8063011285da146100955780632baeceb7146100b35780633205f5fc146100d15780633df4ddf4146100ef575b5f80fd5b61009d6101a3565b6040516100aa9190610209565b60405180910390f35b6100bb6101a9565b6040516100c89190610209565b60405180910390f35b6100d96101af565b6040516100e69190610209565b60405180910390f35b6100f76101b5565b604051610104919061023e565b60405180910390f35b6101156101c6565b604051610122919061023e565b60405180910390f35b6101336101d9565b6040516101409190610209565b60405180910390f35b6101516101df565b60405161015e9190610209565b60405180910390f35b61016f6101e5565b60405161017c9190610209565b60405180910390f35b61018d6101eb565b60405161019a9190610209565b60405180910390f35b60035481565b60065481565b60045481565b5f8054906101000a900461ffff1681565b5f60029054906101000a900461ffff1681565b60075481565b60025481565b60015481565b60055481565b5f819050919050565b610203816101f1565b82525050565b5f60208201905061021c5f8301846101fa565b92915050565b5f61ffff82169050919050565b61023881610222565b82525050565b5f6020820190506102515f83018461022f565b9291505056fea264697066735822122061dd5a46923541cc276ad7549e00fd4c8c8f7787e73e6673fc604029ce20f99064736f6c63430008140033",
					"opcodes": "PUSH1 0x80 PUSH1 0x40 MSTORE PUSH1 0xA PUSH0 DUP1 PUSH2 0x100 EXP DUP2 SLOAD DUP2 PUSH2 0xFFFF MUL NOT AND SWAP1 DUP4 PUSH2 0xFFFF AND MUL OR SWAP1 SSTORE POP PUSH1 0x1E PUSH0 PUSH1 0x2 PUSH2 0x100 EXP DUP2 SLOAD DUP2 PUSH2 0xFFFF MUL NOT AND SWAP1 DUP4 PUSH2 0xFFFF AND MUL OR SWAP1 SSTORE POP PUSH0 PUSH1 0x2 SWAP1 SLOAD SWAP1 PUSH2 0x100 EXP SWAP1 DIV PUSH2 0xFFFF AND PUSH0 DUP1 SLOAD SWAP1 PUSH2 0x100 EXP SWAP1 DIV PUSH2 0xFFFF AND PUSH2 0x65 SWAP2 SWAP1 PUSH2 0x1E8 JUMP JUMPDEST PUSH2 0xFFFF AND PUSH1 0x1 SSTORE PUSH0 DUP1 SLOAD SWAP1 PUSH2 0x100 EXP SWAP1 DIV PUSH2 0xFFFF AND PUSH0 PUSH1 0x2 SWAP1 SLOAD SWAP1 PUSH2 0x100 EXP SWAP1 DIV PUSH2 0xFFFF AND PUSH2 0x94 SWAP2 SWAP1 PUSH2 0x21D JUMP JUMPDEST PUSH2 0xFFFF AND PUSH1 0x2 SSTORE PUSH0 PUSH1 0x2 SWAP1 SLOAD SWAP1 PUSH2 0x100 EXP SWAP1 DIV PUSH2 0xFFFF AND PUSH0 DUP1 SLOAD SWAP1 PUSH2 0x100 EXP SWAP1 DIV PUSH2 0xFFFF AND PUSH2 0xC3 SWAP2 SWAP1 PUSH2 0x252 JUMP JUMPDEST PUSH2 0xFFFF AND PUSH1 0x3 SSTORE PUSH0 PUSH1 0x2 SWAP1 SLOAD SWAP1 PUSH2 0x100 EXP SWAP1 DIV PUSH2 0xFFFF AND PUSH0 DUP1 SLOAD SWAP1 PUSH2 0x100 EXP SWAP1 DIV PUSH2 0xFFFF AND PUSH2 0xF2 SWAP2 SWAP1 PUSH2 0x2BB JUMP JUMPDEST PUSH2 0xFFFF AND PUSH1 0x4 SSTORE PUSH0 PUSH1 0x2 SWAP1 SLOAD SWAP1 PUSH2 0x100 EXP SWAP1 DIV PUSH2 0xFFFF AND PUSH0 DUP1 SLOAD SWAP1 PUSH2 0x100 EXP SWAP1 DIV PUSH2 0xFFFF AND PUSH2 0x121 SWAP2 SWAP1 PUSH2 0x2EB JUMP JUMPDEST PUSH2 0xFFFF AND PUSH1 0x5 SSTORE PUSH0 PUSH1 0x2 DUP2 DUP2 SWAP1 SLOAD SWAP1 PUSH2 0x100 EXP SWAP1 DIV PUSH2 0xFFFF AND PUSH2 0x143 SWAP1 PUSH2 0x31B JUMP JUMPDEST SWAP2 SWAP1 PUSH2 0x100 EXP DUP2 SLOAD DUP2 PUSH2 0xFFFF MUL NOT AND SWAP1 DUP4 PUSH2 0xFFFF AND MUL OR SWAP1 SSTORE PUSH2 0xFFFF AND PUSH1 0x6 SSTORE PUSH0 DUP1 DUP2 DUP2 SWAP1 SLOAD SWAP1 PUSH2 0x100 EXP SWAP1 DIV PUSH2 0xFFFF AND PUSH2 0x17D SWAP1 PUSH2 0x342 JUMP JUMPDEST SWAP2 SWAP1 PUSH2 0x100 EXP DUP2 SLOAD DUP2 PUSH2 0xFFFF MUL NOT AND SWAP1 DUP4 PUSH2 0xFFFF AND MUL OR SWAP1 SSTORE PUSH2 0xFFFF AND PUSH1 0x7 SSTORE CALLVALUE DUP1 ISZERO PUSH2 0x1A8 JUMPI PUSH0 DUP1 REVERT JUMPDEST POP PUSH2 0x36B JUMP JUMPDEST PUSH0 PUSH2 0xFFFF DUP3 AND SWAP1 POP SWAP2 SWAP1 POP JUMP JUMPDEST PUSH32 0x4E487B7100000000000000000000000000000000000000000000000000000000 PUSH0 MSTORE PUSH1 0x11 PUSH1 0x4 MSTORE PUSH1 0x24 PUSH0 REVERT JUMPDEST PUSH0 PUSH2 0x1F2 DUP3 PUSH2 0x1AE JUMP JUMPDEST SWAP2 POP PUSH2 0x1FD DUP4 PUSH2 0x1AE JUMP JUMPDEST SWAP3 POP DUP3 DUP3 ADD SWAP1 POP PUSH2 0xFFFF DUP2 GT ISZERO PUSH2 0x217 JUMPI PUSH2 0x216 PUSH2 0x1BB JUMP JUMPDEST JUMPDEST SWAP3 SWAP2 POP POP JUMP JUMPDEST PUSH0 PUSH2 0x227 DUP3 PUSH2 0x1AE JUMP JUMPDEST SWAP2 POP PUSH2 0x232 DUP4 PUSH2 0x1AE JUMP JUMPDEST SWAP3 POP DUP3 DUP3 SUB SWAP1 POP PUSH2 0xFFFF DUP2 GT ISZERO PUSH2 0x24C JUMPI PUSH2 0x24B PUSH2 0x1BB JUMP JUMPDEST JUMPDEST SWAP3 SWAP2 POP POP JUMP JUMPDEST PUSH0 PUSH2 0x25C DUP3 PUSH2 0x1AE JUMP JUMPDEST SWAP2 POP PUSH2 0x267 DUP4 PUSH2 0x1AE JUMP JUMPDEST SWAP3 POP DUP3 DUP3 MUL PUSH2 0x275 DUP2 PUSH2 0x1AE JUMP JUMPDEST SWAP2 POP DUP1 DUP3 EQ PUSH2 0x287 JUMPI PUSH2 0x286 PUSH2 0x1BB JUMP JUMPDEST JUMPDEST POP SWAP3 SWAP2 POP POP JUMP JUMPDEST PUSH32 0x4E487B7100000000000000000000000000000000000000000000000000000000 PUSH0 MSTORE PUSH1 0x12 PUSH1 0x4 MSTORE PUSH1 0x24 PUSH0 REVERT JUMPDEST PUSH0 PUSH2 0x2C5 DUP3 PUSH2 0x1AE JUMP JUMPDEST SWAP2 POP PUSH2 0x2D0 DUP4 PUSH2 0x1AE JUMP JUMPDEST SWAP3 POP DUP3 PUSH2 0x2E0 JUMPI PUSH2 0x2DF PUSH2 0x28E JUMP JUMPDEST JUMPDEST DUP3 DUP3 DIV SWAP1 POP SWAP3 SWAP2 POP POP JUMP JUMPDEST PUSH0 PUSH2 0x2F5 DUP3 PUSH2 0x1AE JUMP JUMPDEST SWAP2 POP PUSH2 0x300 DUP4 PUSH2 0x1AE JUMP JUMPDEST SWAP3 POP DUP3 PUSH2 0x310 JUMPI PUSH2 0x30F PUSH2 0x28E JUMP JUMPDEST JUMPDEST DUP3 DUP3 MOD SWAP1 POP SWAP3 SWAP2 POP POP JUMP JUMPDEST PUSH0 PUSH2 0x325 DUP3 PUSH2 0x1AE JUMP JUMPDEST SWAP2 POP PUSH0 DUP3 SUB PUSH2 0x337 JUMPI PUSH2 0x336 PUSH2 0x1BB JUMP JUMPDEST JUMPDEST PUSH1 0x1 DUP3 SUB SWAP1 POP SWAP2 SWAP1 POP JUMP JUMPDEST PUSH0 PUSH2 0x34C DUP3 PUSH2 0x1AE JUMP JUMPDEST SWAP2 POP PUSH2 0xFFFF DUP3 SUB PUSH2 0x360 JUMPI PUSH2 0x35F PUSH2 0x1BB JUMP JUMPDEST JUMPDEST PUSH1 0x1 DUP3 ADD SWAP1 POP SWAP2 SWAP1 POP JUMP JUMPDEST PUSH2 0x28D DUP1 PUSH2 0x378 PUSH0 CODECOPY PUSH0 RETURN INVALID PUSH1 0x80 PUSH1 0x40 MSTORE CALLVALUE DUP1 ISZERO PUSH2 0xF JUMPI PUSH0 DUP1 REVERT JUMPDEST POP PUSH1 0x4 CALLDATASIZE LT PUSH2 0x91 JUMPI PUSH0 CALLDATALOAD PUSH1 0xE0 SHR DUP1 PUSH4 0x5A8AC02D GT PUSH2 0x64 JUMPI DUP1 PUSH4 0x5A8AC02D EQ PUSH2 0x10D JUMPI DUP1 PUSH4 0xD09DE08A EQ PUSH2 0x12B JUMPI DUP1 PUSH4 0xE3EC0251 EQ PUSH2 0x149 JUMPI DUP1 PUSH4 0xEC597128 EQ PUSH2 0x167 JUMPI DUP1 PUSH4 0xFF4B0400 EQ PUSH2 0x185 JUMPI PUSH2 0x91 JUMP JUMPDEST DUP1 PUSH4 0x11285DA EQ PUSH2 0x95 JUMPI DUP1 PUSH4 0x2BAECEB7 EQ PUSH2 0xB3 JUMPI DUP1 PUSH4 0x3205F5FC EQ PUSH2 0xD1 JUMPI DUP1 PUSH4 0x3DF4DDF4 EQ PUSH2 0xEF JUMPI JUMPDEST PUSH0 DUP1 REVERT JUMPDEST PUSH2 0x9D PUSH2 0x1A3 JUMP JUMPDEST PUSH1 0x40 MLOAD PUSH2 0xAA SWAP2 SWAP1 PUSH2 0x209 JUMP JUMPDEST PUSH1 0x40 MLOAD DUP1 SWAP2 SUB SWAP1 RETURN JUMPDEST PUSH2 0xBB PUSH2 0x1A9 JUMP JUMPDEST PUSH1 0x40 MLOAD PUSH2 0xC8 SWAP2 SWAP1 PUSH2 0x209 JUMP JUMPDEST PUSH1 0x40 MLOAD DUP1 SWAP2 SUB SWAP1 RETURN JUMPDEST PUSH2 0xD9 PUSH2 0x1AF JUMP JUMPDEST PUSH1 0x40 MLOAD PUSH2 0xE6 SWAP2 SWAP1 PUSH2 0x209 JUMP JUMPDEST PUSH1 0x40 MLOAD DUP1 SWAP2 SUB SWAP1 RETURN JUMPDEST PUSH2 0xF7 PUSH2 0x1B5 JUMP JUMPDEST PUSH1 0x40 MLOAD PUSH2 0x104 SWAP2 SWAP1 PUSH2 0x23E JUMP JUMPDEST PUSH1 0x40 MLOAD DUP1 SWAP2 SUB SWAP1 RETURN JUMPDEST PUSH2 0x115 PUSH2 0x1C6 JUMP JUMPDEST PUSH1 0x40 MLOAD PUSH2 0x122 SWAP2 SWAP1 PUSH2 0x23E JUMP JUMPDEST PUSH1 0x40 MLOAD DUP1 SWAP2 SUB SWAP1 RETURN JUMPDEST PUSH2 0x133 PUSH2 0x1D9 JUMP JUMPDEST PUSH1 0x40 MLOAD PUSH2 0x140 SWAP2 SWAP1 PUSH2 0x209 JUMP JUMPDEST PUSH1 0x40 MLOAD DUP1 SWAP2 SUB SWAP1 RETURN JUMPDEST PUSH2 0x151 PUSH2 0x1DF JUMP JUMPDEST PUSH1 0x40 MLOAD PUSH2 0x15E SWAP2 SWAP1 PUSH2 0x209 JUMP JUMPDEST PUSH1 0x40 MLOAD DUP1 SWAP2 SUB SWAP1 RETURN JUMPDEST PUSH2 0x16F PUSH2 0x1E5 JUMP JUMPDEST PUSH1 0x40 MLOAD PUSH2 0x17C SWAP2 SWAP1 PUSH2 0x209 JUMP JUMPDEST PUSH1 0x40 MLOAD DUP1 SWAP2 SUB SWAP1 RETURN JUMPDEST PUSH2 0x18D PUSH2 0x1EB JUMP JUMPDEST PUSH1 0x40 MLOAD PUSH2 0x19A SWAP2 SWAP1 PUSH2 0x209 JUMP JUMPDEST PUSH1 0x40 MLOAD DUP1 SWAP2 SUB SWAP1 RETURN JUMPDEST PUSH1 0x3 SLOAD DUP2 JUMP JUMPDEST PUSH1 0x6 SLOAD DUP2 JUMP JUMPDEST PUSH1 0x4 SLOAD DUP2 JUMP JUMPDEST PUSH0 DUP1 SLOAD SWAP1 PUSH2 0x100 EXP SWAP1 DIV PUSH2 0xFFFF AND DUP2 JUMP JUMPDEST PUSH0 PUSH1 0x2 SWAP1 SLOAD SWAP1 PUSH2 0x100 EXP SWAP1 DIV PUSH2 0xFFFF AND DUP2 JUMP JUMPDEST PUSH1 0x7 SLOAD DUP2 JUMP JUMPDEST PUSH1 0x2 SLOAD DUP2 JUMP JUMPDEST PUSH1 0x1 SLOAD DUP2 JUMP JUMPDEST PUSH1 0x5 SLOAD DUP2 JUMP JUMPDEST PUSH0 DUP2 SWAP1 POP SWAP2 SWAP1 POP JUMP JUMPDEST PUSH2 0x203 DUP2 PUSH2 0x1F1 JUMP JUMPDEST DUP3 MSTORE POP POP JUMP JUMPDEST PUSH0 PUSH1 0x20 DUP3 ADD SWAP1 POP PUSH2 0x21C PUSH0 DUP4 ADD DUP5 PUSH2 0x1FA JUMP JUMPDEST SWAP3 SWAP2 POP POP JUMP JUMPDEST PUSH0 PUSH2 0xFFFF DUP3 AND SWAP1 POP SWAP2 SWAP1 POP JUMP JUMPDEST PUSH2 0x238 DUP2 PUSH2 0x222 JUMP JUMPDEST DUP3 MSTORE POP POP JUMP JUMPDEST PUSH0 PUSH1 0x20 DUP3 ADD SWAP1 POP PUSH2 0x251 PUSH0 DUP4 ADD DUP5 PUSH2 0x22F JUMP JUMPDEST SWAP3 SWAP2 POP POP JUMP INVALID LOG2 PUSH5 0x6970667358 0x22 SLT KECCAK256 PUSH2 0xDD5A CHAINID SWAP3 CALLDATALOAD COINBASE 0xCC 0x27 PUSH11 0xD7549E00FD4C8C8F7787E7 RETURNDATACOPY PUSH7 0x73FC604029CE20 0xF9 SWAP1 PUSH5 0x736F6C6343 STOP ADDMOD EQ STOP CALLER "
				},
				"gasEstimates": {
					"creation": {
						"codeDepositCost": "130600",
						"executionCost": "infinite",
						"totalCost": "infinite"
					},
					"external": {
						"addition()": "2491",
						"decrement()": "2448",
						"division()": "2470",
						"first()": "2530",
						"increment()": "2447",
						"modulus()": "2513",
						"multiplication()": "2426",
						"second()": "2516",
						"subtraction()": "2469"
					}
				},
				"methodIdentifiers": {
					"addition()": "ec597128",
					"decrement()": "2baeceb7",
					"division()": "3205f5fc",
					"first()": "3df4ddf4",
					"increment()": "d09de08a",
					"modulus()": "ff4b0400",
					"multiplication()": "011285da",
					"second()": "5a8ac02d",
					"subtraction()": "e3ec0251"
				}
			},
			"storageLayout": {
				"storage": [
					{
						"astId": 4,
						"contract": "OperatorDemo.sol:OperatorDemo",
						"label": "first",
						"offset": 0,
						"slot": "0",
						"type": "t_uint16"
					},
					{
						"astId": 7,
						"contract": "OperatorDemo.sol:OperatorDemo",
						"label": "second",
						"offset": 2,
						"slot": "0",
						"type": "t_uint16"
					},
					{
						"astId": 12,
						"contract": "OperatorDemo.sol:OperatorDemo",
						"label": "addition",
						"offset": 0,
						"slot": "1",
						"type": "t_uint256"
					},
					{
						"astId": 17,
						"contract": "OperatorDemo.sol:OperatorDemo",
						"label": "subtraction",
						"offset": 0,
						"slot": "2",
						"type": "t_uint256"
					},
					{
						"astId": 22,
						"contract": "OperatorDemo.sol:OperatorDemo",
						"label": "multiplication",
						"offset": 0,
						"slot": "3",
						"type": "t_uint256"
					},
					{
						"astId": 27,
						"contract": "OperatorDemo.sol:OperatorDemo",
						"label": "division",
						"offset": 0,
						"slot": "4",
						"type": "t_uint256"
					},
					{
						"astId": 32,
						"contract": "OperatorDemo.sol:OperatorDemo",
						"label": "modulus",
						"offset": 0,
						"slot": "5",
						"type": "t_uint256"
					},
					{
						"astId": 36,
						"contract": "OperatorDemo.sol:OperatorDemo",
						"label": "decrement",
						"offset": 0,
						"slot": "6",
						"type": "t_uint256"
					},
					{
						"astId": 40,
						"contract": "OperatorDemo.sol:OperatorDemo",
						"label": "increment",
						"offset": 0,
						"slot": "7",
						"type": "t_uint256"
					}
				],
				"types": {
					"t_uint16": {
						"encoding": "inplace",
						"label": "uint16",
						"numberOfBytes": "2"
					},
					"t_uint256": {
						"encoding": "inplace",
						"label": "uint256",
						"numberOfBytes": "32"
					}
				}
			},
			"userdoc": {
				"kind": "user",
				"methods": {},
				"version": 1
			}
		}
	}
}