{
	"Exercicio7.sol": {
		"Exercicio7Guba": {
			"abi": [
				{
					"inputs": [],
					"stateMutability": "nonpayable",
					"type": "constructor"
				},
				{
					"inputs": [
						{
							"internalType": "address",
							"name": "caller",
							"type": "address"
						}
					],
					"name": "Exercicio7Guba_Forbidden",
					"type": "error"
				},
				{
					"inputs": [
						{
							"internalType": "address",
							"name": "caller",
							"type": "address"
						},
						{
							"internalType": "address",
							"name": "owner",
							"type": "address"
						}
					],
					"name": "Exercicio7Guba_NotTheOwner",
					"type": "error"
				},
				{
					"anonymous": false,
					"inputs": [
						{
							"indexed": false,
							"internalType": "string",
							"name": "newInfo",
							"type": "string"
						}
					],
					"name": "Exercicio7Guba_InfoAdded",
					"type": "event"
				},
				{
					"anonymous": false,
					"inputs": [
						{
							"indexed": false,
							"internalType": "uint256",
							"name": "index",
							"type": "uint256"
						},
						{
							"indexed": false,
							"internalType": "string",
							"name": "newInfo",
							"type": "string"
						}
					],
					"name": "Exercicio7Guba_InfoUpdated",
					"type": "event"
				},
				{
					"anonymous": false,
					"inputs": [
						{
							"indexed": false,
							"internalType": "address",
							"name": "client",
							"type": "address"
						},
						{
							"indexed": false,
							"internalType": "bool",
							"name": "canDoIt",
							"type": "bool"
						}
					],
					"name": "Exercicio7Guba_WhitelistAdded",
					"type": "event"
				},
				{
					"anonymous": false,
					"inputs": [
						{
							"indexed": false,
							"internalType": "address",
							"name": "client",
							"type": "address"
						}
					],
					"name": "Exercicio7Guba_WhitelistDeleted",
					"type": "event"
				},
				{
					"inputs": [
						{
							"internalType": "string",
							"name": "myInfo",
							"type": "string"
						}
					],
					"name": "addInfo",
					"outputs": [],
					"stateMutability": "nonpayable",
					"type": "function"
				},
				{
					"inputs": [
						{
							"internalType": "address",
							"name": "client",
							"type": "address"
						},
						{
							"internalType": "bool",
							"name": "canDoIt",
							"type": "bool"
						}
					],
					"name": "addWhitelistItem",
					"outputs": [],
					"stateMutability": "nonpayable",
					"type": "function"
				},
				{
					"inputs": [],
					"name": "countChanges",
					"outputs": [
						{
							"internalType": "uint256",
							"name": "",
							"type": "uint256"
						}
					],
					"stateMutability": "view",
					"type": "function"
				},
				{
					"inputs": [
						{
							"internalType": "address",
							"name": "client",
							"type": "address"
						}
					],
					"name": "deleteWhitelistItem",
					"outputs": [],
					"stateMutability": "nonpayable",
					"type": "function"
				},
				{
					"inputs": [],
					"name": "getCompleteArray",
					"outputs": [
						{
							"internalType": "string[]",
							"name": "",
							"type": "string[]"
						}
					],
					"stateMutability": "view",
					"type": "function"
				},
				{
					"inputs": [
						{
							"internalType": "uint256",
							"name": "index",
							"type": "uint256"
						}
					],
					"name": "getIndexInfo",
					"outputs": [
						{
							"internalType": "string",
							"name": "",
							"type": "string"
						}
					],
					"stateMutability": "view",
					"type": "function"
				},
				{
					"inputs": [],
					"name": "getLastInfo",
					"outputs": [
						{
							"internalType": "string",
							"name": "",
							"type": "string"
						}
					],
					"stateMutability": "view",
					"type": "function"
				},
				{
					"inputs": [],
					"name": "s_owner",
					"outputs": [
						{
							"internalType": "address",
							"name": "",
							"type": "address"
						}
					],
					"stateMutability": "view",
					"type": "function"
				},
				{
					"inputs": [
						{
							"internalType": "address",
							"name": "",
							"type": "address"
						}
					],
					"name": "s_whitelist",
					"outputs": [
						{
							"internalType": "bool",
							"name": "",
							"type": "bool"
						}
					],
					"stateMutability": "view",
					"type": "function"
				},
				{
					"inputs": [
						{
							"internalType": "uint256",
							"name": "",
							"type": "uint256"
						}
					],
					"name": "storedInfo",
					"outputs": [
						{
							"internalType": "string",
							"name": "",
							"type": "string"
						}
					],
					"stateMutability": "view",
					"type": "function"
				},
				{
					"inputs": [
						{
							"internalType": "uint256",
							"name": "index",
							"type": "uint256"
						},
						{
							"internalType": "string",
							"name": "newInfo",
							"type": "string"
						}
					],
					"name": "updateInfo",
					"outputs": [],
					"stateMutability": "nonpayable",
					"type": "function"
				}
			],
			"devdoc": {
				"author": "Gustavo Gialluisi",
				"kind": "dev",
				"methods": {
					"addInfo(string)": {
						"details": "stores the string in the state variable `storedInfo` and update the counter",
						"params": {
							"myInfo": "the new string to store"
						}
					},
					"getIndexInfo(uint256)": {
						"details": "retrieves the string of the state variable `storedInfo`",
						"returns": {
							"_0": "the stored string"
						}
					}
				},
				"title": "Concepts: variable uint with public visibility",
				"version": 1
			},
			"evm": {
				"assembly": "    /* \"Exercicio7.sol\":259:2457  contract Exercicio7Guba {... */\n  mstore(0x40, 0x80)\n    /* \"Exercicio7.sol\":376:377  0 */\n  0x00\n    /* \"Exercicio7.sol\":349:377  uint public countChanges = 0 */\n  0x02\n  sstore\n    /* \"Exercicio7.sol\":953:1084  constructor(){... */\n  callvalue\n  dup1\n  iszero\n  tag_1\n  jumpi\n  0x00\n  dup1\n  revert\ntag_1:\n  pop\n    /* \"Exercicio7.sol\":986:996  msg.sender */\n  caller\n    /* \"Exercicio7.sol\":976:983  s_owner */\n  0x00\n  dup1\n    /* \"Exercicio7.sol\":976:996  s_owner = msg.sender */\n  0x0100\n  exp\n  dup2\n  sload\n  dup2\n  0xffffffffffffffffffffffffffffffffffffffff\n  mul\n  not\n  and\n  swap1\n  dup4\n  0xffffffffffffffffffffffffffffffffffffffff\n  and\n  mul\n  or\n  swap1\n  sstore\n  pop\n    /* \"Exercicio7.sol\":1073:1077  true */\n  0x01\n    /* \"Exercicio7.sol\":1050:1061  s_whitelist */\n  0x03\n    /* \"Exercicio7.sol\":1050:1070  s_whitelist[s_owner] */\n  0x00\n    /* \"Exercicio7.sol\":1062:1069  s_owner */\n  dup1\n  0x00\n  swap1\n  sload\n  swap1\n  0x0100\n  exp\n  swap1\n  div\n  0xffffffffffffffffffffffffffffffffffffffff\n  and\n    /* \"Exercicio7.sol\":1050:1070  s_whitelist[s_owner] */\n  0xffffffffffffffffffffffffffffffffffffffff\n  and\n  0xffffffffffffffffffffffffffffffffffffffff\n  and\n  dup2\n  mstore\n  0x20\n  add\n  swap1\n  dup2\n  mstore\n  0x20\n  add\n  0x00\n  keccak256\n  0x00\n    /* \"Exercicio7.sol\":1050:1077  s_whitelist[s_owner] = true */\n  0x0100\n  exp\n  dup2\n  sload\n  dup2\n  0xff\n  mul\n  not\n  and\n  swap1\n  dup4\n  iszero\n  iszero\n  mul\n  or\n  swap1\n  sstore\n  pop\n    /* \"Exercicio7.sol\":259:2457  contract Exercicio7Guba {... */\n  dataSize(sub_0)\n  dup1\n  dataOffset(sub_0)\n  0x00\n  codecopy\n  0x00\n  return\nstop\n\nsub_0: assembly {\n        /* \"Exercicio7.sol\":259:2457  contract Exercicio7Guba {... */\n      mstore(0x40, 0x80)\n      callvalue\n      dup1\n      iszero\n      tag_1\n      jumpi\n      0x00\n      dup1\n      revert\n    tag_1:\n      pop\n      jumpi(tag_2, lt(calldatasize, 0x04))\n      shr(0xe0, calldataload(0x00))\n      dup1\n      0x78e5da07\n      gt\n      tag_14\n      jumpi\n      dup1\n      0x78e5da07\n      eq\n      tag_8\n      jumpi\n      dup1\n      0x8811c669\n      eq\n      tag_9\n      jumpi\n      dup1\n      0xb81155b5\n      eq\n      tag_10\n      jumpi\n      dup1\n      0xdbde10d7\n      eq\n      tag_11\n      jumpi\n      dup1\n      0xe3978240\n      eq\n      tag_12\n      jumpi\n      dup1\n      0xf5524fba\n      eq\n      tag_13\n      jumpi\n      jump(tag_2)\n    tag_14:\n      dup1\n      0x2d4da6\n      eq\n      tag_3\n      jumpi\n      dup1\n      0x0bf803e4\n      eq\n      tag_4\n      jumpi\n      dup1\n      0x2af2bc27\n      eq\n      tag_5\n      jumpi\n      dup1\n      0x50c00197\n      eq\n      tag_6\n      jumpi\n      dup1\n      0x63440301\n      eq\n      tag_7\n      jumpi\n    tag_2:\n      0x00\n      dup1\n      revert\n        /* \"Exercicio7.sol\":384:427  mapping(address => bool) public s_whitelist */\n    tag_3:\n      tag_15\n      0x04\n      dup1\n      calldatasize\n      sub\n      dup2\n      add\n      swap1\n      tag_16\n      swap2\n      swap1\n      tag_17\n      jump\t// in\n    tag_16:\n      tag_18\n      jump\t// in\n    tag_15:\n      mload(0x40)\n      tag_19\n      swap2\n      swap1\n      tag_20\n      jump\t// in\n    tag_19:\n      mload(0x40)\n      dup1\n      swap2\n      sub\n      swap1\n      return\n        /* \"Exercicio7.sol\":1334:1506  function addInfo(string memory myInfo) external onlyWhitelist{... */\n    tag_4:\n      tag_21\n      0x04\n      dup1\n      calldatasize\n      sub\n      dup2\n      add\n      swap1\n      tag_22\n      swap2\n      swap1\n      tag_23\n      jump\t// in\n    tag_22:\n      tag_24\n      jump\t// in\n    tag_21:\n      stop\n        /* \"Exercicio7.sol\":349:377  uint public countChanges = 0 */\n    tag_5:\n      tag_25\n      tag_26\n      jump\t// in\n    tag_25:\n      mload(0x40)\n      tag_27\n      swap2\n      swap1\n      tag_28\n      jump\t// in\n    tag_27:\n      mload(0x40)\n      dup1\n      swap2\n      sub\n      swap1\n      return\n        /* \"Exercicio7.sol\":1512:1717  function updateInfo(uint256 index, string memory newInfo) external onlyWhitelist{... */\n    tag_6:\n      tag_29\n      0x04\n      dup1\n      calldatasize\n      sub\n      dup2\n      add\n      swap1\n      tag_30\n      swap2\n      swap1\n      tag_31\n      jump\t// in\n    tag_30:\n      tag_32\n      jump\t// in\n    tag_29:\n      stop\n        /* \"Exercicio7.sol\":1723:1843  function addWhitelistItem(address client, bool canDoIt) external onlyOwner{... */\n    tag_7:\n      tag_33\n      0x04\n      dup1\n      calldatasize\n      sub\n      dup2\n      add\n      swap1\n      tag_34\n      swap2\n      swap1\n      tag_35\n      jump\t// in\n    tag_34:\n      tag_36\n      jump\t// in\n    tag_33:\n      stop\n        /* \"Exercicio7.sol\":2228:2346  function getLastInfo() external view returns (string memory) {... */\n    tag_8:\n      tag_37\n      tag_38\n      jump\t// in\n    tag_37:\n      mload(0x40)\n      tag_39\n      swap2\n      swap1\n      tag_40\n      jump\t// in\n    tag_39:\n      mload(0x40)\n      dup1\n      swap2\n      sub\n      swap1\n      return\n        /* \"Exercicio7.sol\":317:343  string[] public storedInfo */\n    tag_9:\n      tag_41\n      0x04\n      dup1\n      calldatasize\n      sub\n      dup2\n      add\n      swap1\n      tag_42\n      swap2\n      swap1\n      tag_43\n      jump\t// in\n    tag_42:\n      tag_44\n      jump\t// in\n    tag_41:\n      mload(0x40)\n      tag_45\n      swap2\n      swap1\n      tag_40\n      jump\t// in\n    tag_45:\n      mload(0x40)\n      dup1\n      swap2\n      sub\n      swap1\n      return\n        /* \"Exercicio7.sol\":2106:2222  function getIndexInfo(uint256 index) external view returns (string memory) {... */\n    tag_10:\n      tag_46\n      0x04\n      dup1\n      calldatasize\n      sub\n      dup2\n      add\n      swap1\n      tag_47\n      swap2\n      swap1\n      tag_43\n      jump\t// in\n    tag_47:\n      tag_48\n      jump\t// in\n    tag_46:\n      mload(0x40)\n      tag_49\n      swap2\n      swap1\n      tag_40\n      jump\t// in\n    tag_49:\n      mload(0x40)\n      dup1\n      swap2\n      sub\n      swap1\n      return\n        /* \"Exercicio7.sol\":1849:1955  function deleteWhitelistItem(address client) external onlyOwner{... */\n    tag_11:\n      tag_50\n      0x04\n      dup1\n      calldatasize\n      sub\n      dup2\n      add\n      swap1\n      tag_51\n      swap2\n      swap1\n      tag_17\n      jump\t// in\n    tag_51:\n      tag_52\n      jump\t// in\n    tag_50:\n      stop\n        /* \"Exercicio7.sol\":289:311  address public s_owner */\n    tag_12:\n      tag_53\n      tag_54\n      jump\t// in\n    tag_53:\n      mload(0x40)\n      tag_55\n      swap2\n      swap1\n      tag_56\n      jump\t// in\n    tag_55:\n      mload(0x40)\n      dup1\n      swap2\n      sub\n      swap1\n      return\n        /* \"Exercicio7.sol\":2352:2454  function getCompleteArray() external view returns (string[] memory) {... */\n    tag_13:\n      tag_57\n      tag_58\n      jump\t// in\n    tag_57:\n      mload(0x40)\n      tag_59\n      swap2\n      swap1\n      tag_60\n      jump\t// in\n    tag_59:\n      mload(0x40)\n      dup1\n      swap2\n      sub\n      swap1\n      return\n        /* \"Exercicio7.sol\":384:427  mapping(address => bool) public s_whitelist */\n    tag_18:\n      mstore(0x20, 0x03)\n      dup1\n      0x00\n      mstore\n      keccak256(0x00, 0x40)\n      0x00\n      swap2\n      pop\n      sload\n      swap1\n      0x0100\n      exp\n      swap1\n      div\n      0xff\n      and\n      dup2\n      jump\t// out\n        /* \"Exercicio7.sol\":1334:1506  function addInfo(string memory myInfo) external onlyWhitelist{... */\n    tag_24:\n        /* \"Exercicio7.sol\":861:872  s_whitelist */\n      0x03\n        /* \"Exercicio7.sol\":861:884  s_whitelist[msg.sender] */\n      0x00\n        /* \"Exercicio7.sol\":873:883  msg.sender */\n      caller\n        /* \"Exercicio7.sol\":861:884  s_whitelist[msg.sender] */\n      0xffffffffffffffffffffffffffffffffffffffff\n      and\n      0xffffffffffffffffffffffffffffffffffffffff\n      and\n      dup2\n      mstore\n      0x20\n      add\n      swap1\n      dup2\n      mstore\n      0x20\n      add\n      0x00\n      keccak256\n      0x00\n      swap1\n      sload\n      swap1\n      0x0100\n      exp\n      swap1\n      div\n      0xff\n      and\n        /* \"Exercicio7.sol\":857:929  if(!s_whitelist[msg.sender]) revert Exercicio7Guba_Forbidden(msg.sender) */\n      tag_62\n      jumpi\n        /* \"Exercicio7.sol\":918:928  msg.sender */\n      caller\n        /* \"Exercicio7.sol\":893:929  Exercicio7Guba_Forbidden(msg.sender) */\n      mload(0x40)\n      0xd01264d000000000000000000000000000000000000000000000000000000000\n      dup2\n      mstore\n      0x04\n      add\n      tag_63\n      swap2\n      swap1\n      tag_56\n      jump\t// in\n    tag_63:\n      mload(0x40)\n      dup1\n      swap2\n      sub\n      swap1\n      revert\n        /* \"Exercicio7.sol\":857:929  if(!s_whitelist[msg.sender]) revert Exercicio7Guba_Forbidden(msg.sender) */\n    tag_62:\n        /* \"Exercicio7.sol\":1405:1415  storedInfo */\n      0x01\n        /* \"Exercicio7.sol\":1421:1427  myInfo */\n      dup2\n        /* \"Exercicio7.sol\":1405:1428  storedInfo.push(myInfo) */\n      swap1\n      dup1\n      0x01\n      dup2\n      sload\n      add\n      dup1\n      dup3\n      sstore\n      dup1\n      swap2\n      pop\n      pop\n      0x01\n      swap1\n      sub\n      swap1\n      0x00\n      mstore\n      keccak256(0x00, 0x20)\n      add\n      0x00\n      swap1\n      swap2\n      swap1\n      swap2\n      swap1\n      swap2\n      pop\n      swap1\n      dup2\n      tag_66\n      swap2\n      swap1\n      tag_67\n      jump\t// in\n    tag_66:\n      pop\n        /* \"Exercicio7.sol\":1438:1450  countChanges */\n      0x02\n      0x00\n        /* \"Exercicio7.sol\":1438:1452  countChanges++ */\n      dup2\n      sload\n      dup1\n      swap3\n      swap2\n      swap1\n      tag_68\n      swap1\n      tag_69\n      jump\t// in\n    tag_68:\n      swap2\n      swap1\n      pop\n      sstore\n      pop\n        /* \"Exercicio7.sol\":1467:1499  Exercicio7Guba_InfoAdded(myInfo) */\n      0xe42581e5ab424aef106c0291b069bd6dc16c918bd8726a9cc6f5ed8997baa750\n        /* \"Exercicio7.sol\":1492:1498  myInfo */\n      dup2\n        /* \"Exercicio7.sol\":1467:1499  Exercicio7Guba_InfoAdded(myInfo) */\n      mload(0x40)\n      tag_70\n      swap2\n      swap1\n      tag_40\n      jump\t// in\n    tag_70:\n      mload(0x40)\n      dup1\n      swap2\n      sub\n      swap1\n      log1\n        /* \"Exercicio7.sol\":1334:1506  function addInfo(string memory myInfo) external onlyWhitelist{... */\n      pop\n      jump\t// out\n        /* \"Exercicio7.sol\":349:377  uint public countChanges = 0 */\n    tag_26:\n      sload(0x02)\n      dup2\n      jump\t// out\n        /* \"Exercicio7.sol\":1512:1717  function updateInfo(uint256 index, string memory newInfo) external onlyWhitelist{... */\n    tag_32:\n        /* \"Exercicio7.sol\":861:872  s_whitelist */\n      0x03\n        /* \"Exercicio7.sol\":861:884  s_whitelist[msg.sender] */\n      0x00\n        /* \"Exercicio7.sol\":873:883  msg.sender */\n      caller\n        /* \"Exercicio7.sol\":861:884  s_whitelist[msg.sender] */\n      0xffffffffffffffffffffffffffffffffffffffff\n      and\n      0xffffffffffffffffffffffffffffffffffffffff\n      and\n      dup2\n      mstore\n      0x20\n      add\n      swap1\n      dup2\n      mstore\n      0x20\n      add\n      0x00\n      keccak256\n      0x00\n      swap1\n      sload\n      swap1\n      0x0100\n      exp\n      swap1\n      div\n      0xff\n      and\n        /* \"Exercicio7.sol\":857:929  if(!s_whitelist[msg.sender]) revert Exercicio7Guba_Forbidden(msg.sender) */\n      tag_72\n      jumpi\n        /* \"Exercicio7.sol\":918:928  msg.sender */\n      caller\n        /* \"Exercicio7.sol\":893:929  Exercicio7Guba_Forbidden(msg.sender) */\n      mload(0x40)\n      0xd01264d000000000000000000000000000000000000000000000000000000000\n      dup2\n      mstore\n      0x04\n      add\n      tag_73\n      swap2\n      swap1\n      tag_56\n      jump\t// in\n    tag_73:\n      mload(0x40)\n      dup1\n      swap2\n      sub\n      swap1\n      revert\n        /* \"Exercicio7.sol\":857:929  if(!s_whitelist[msg.sender]) revert Exercicio7Guba_Forbidden(msg.sender) */\n    tag_72:\n        /* \"Exercicio7.sol\":1622:1629  newInfo */\n      dup1\n        /* \"Exercicio7.sol\":1602:1612  storedInfo */\n      0x01\n        /* \"Exercicio7.sol\":1613:1618  index */\n      dup4\n        /* \"Exercicio7.sol\":1602:1619  storedInfo[index] */\n      dup2\n      sload\n      dup2\n      lt\n      tag_75\n      jumpi\n      tag_76\n      tag_77\n      jump\t// in\n    tag_76:\n    tag_75:\n      swap1\n      0x00\n      mstore\n      keccak256(0x00, 0x20)\n      add\n        /* \"Exercicio7.sol\":1602:1629  storedInfo[index] = newInfo */\n      swap1\n      dup2\n      tag_79\n      swap2\n      swap1\n      tag_67\n      jump\t// in\n    tag_79:\n      pop\n        /* \"Exercicio7.sol\":1639:1651  countChanges */\n      0x02\n      0x00\n        /* \"Exercicio7.sol\":1639:1653  countChanges++ */\n      dup2\n      sload\n      dup1\n      swap3\n      swap2\n      swap1\n      tag_80\n      swap1\n      tag_69\n      jump\t// in\n    tag_80:\n      swap2\n      swap1\n      pop\n      sstore\n      pop\n        /* \"Exercicio7.sol\":1668:1710  Exercicio7Guba_InfoUpdated(index, newInfo) */\n      0x09078fa42f4570bd49b427f703b5ec916a5a0e70c4d5b359fd8bc4ffbeaa6b42\n        /* \"Exercicio7.sol\":1695:1700  index */\n      dup3\n        /* \"Exercicio7.sol\":1702:1709  newInfo */\n      dup3\n        /* \"Exercicio7.sol\":1668:1710  Exercicio7Guba_InfoUpdated(index, newInfo) */\n      mload(0x40)\n      tag_81\n      swap3\n      swap2\n      swap1\n      tag_82\n      jump\t// in\n    tag_81:\n      mload(0x40)\n      dup1\n      swap2\n      sub\n      swap1\n      log1\n        /* \"Exercicio7.sol\":1512:1717  function updateInfo(uint256 index, string memory newInfo) external onlyWhitelist{... */\n      pop\n      pop\n      jump\t// out\n        /* \"Exercicio7.sol\":1723:1843  function addWhitelistItem(address client, bool canDoIt) external onlyOwner{... */\n    tag_36:\n        /* \"Exercicio7.sol\":732:742  msg.sender */\n      caller\n        /* \"Exercicio7.sol\":721:742  s_owner != msg.sender */\n      0xffffffffffffffffffffffffffffffffffffffff\n      and\n        /* \"Exercicio7.sol\":721:728  s_owner */\n      0x00\n      dup1\n      sload\n      swap1\n      0x0100\n      exp\n      swap1\n      div\n      0xffffffffffffffffffffffffffffffffffffffff\n      and\n        /* \"Exercicio7.sol\":721:742  s_owner != msg.sender */\n      0xffffffffffffffffffffffffffffffffffffffff\n      and\n      eq\n        /* \"Exercicio7.sol\":718:798  if(s_owner != msg.sender) revert Exercicio7Guba_NotTheOwner(msg.sender, s_owner) */\n      tag_84\n      jumpi\n        /* \"Exercicio7.sol\":778:788  msg.sender */\n      caller\n        /* \"Exercicio7.sol\":790:797  s_owner */\n      0x00\n      dup1\n      sload\n      swap1\n      0x0100\n      exp\n      swap1\n      div\n      0xffffffffffffffffffffffffffffffffffffffff\n      and\n        /* \"Exercicio7.sol\":751:798  Exercicio7Guba_NotTheOwner(msg.sender, s_owner) */\n      mload(0x40)\n      0x82716adb00000000000000000000000000000000000000000000000000000000\n      dup2\n      mstore\n      0x04\n      add\n      tag_85\n      swap3\n      swap2\n      swap1\n      tag_86\n      jump\t// in\n    tag_85:\n      mload(0x40)\n      dup1\n      swap2\n      sub\n      swap1\n      revert\n        /* \"Exercicio7.sol\":718:798  if(s_owner != msg.sender) revert Exercicio7Guba_NotTheOwner(msg.sender, s_owner) */\n    tag_84:\n        /* \"Exercicio7.sol\":1829:1836  canDoIt */\n      dup1\n        /* \"Exercicio7.sol\":1807:1818  s_whitelist */\n      0x03\n        /* \"Exercicio7.sol\":1807:1826  s_whitelist[client] */\n      0x00\n        /* \"Exercicio7.sol\":1819:1825  client */\n      dup5\n        /* \"Exercicio7.sol\":1807:1826  s_whitelist[client] */\n      0xffffffffffffffffffffffffffffffffffffffff\n      and\n      0xffffffffffffffffffffffffffffffffffffffff\n      and\n      dup2\n      mstore\n      0x20\n      add\n      swap1\n      dup2\n      mstore\n      0x20\n      add\n      0x00\n      keccak256\n      0x00\n        /* \"Exercicio7.sol\":1807:1836  s_whitelist[client] = canDoIt */\n      0x0100\n      exp\n      dup2\n      sload\n      dup2\n      0xff\n      mul\n      not\n      and\n      swap1\n      dup4\n      iszero\n      iszero\n      mul\n      or\n      swap1\n      sstore\n      pop\n        /* \"Exercicio7.sol\":1723:1843  function addWhitelistItem(address client, bool canDoIt) external onlyOwner{... */\n      pop\n      pop\n      jump\t// out\n        /* \"Exercicio7.sol\":2228:2346  function getLastInfo() external view returns (string memory) {... */\n    tag_38:\n        /* \"Exercicio7.sol\":2274:2287  string memory */\n      0x60\n        /* \"Exercicio7.sol\":2306:2316  storedInfo */\n      0x01\n        /* \"Exercicio7.sol\":2337:2338  1 */\n      dup1\n        /* \"Exercicio7.sol\":2317:2327  storedInfo */\n      dup1\n        /* \"Exercicio7.sol\":2317:2334  storedInfo.length */\n      dup1\n      sload\n      swap1\n      pop\n        /* \"Exercicio7.sol\":2317:2338  storedInfo.length - 1 */\n      tag_89\n      swap2\n      swap1\n      tag_90\n      jump\t// in\n    tag_89:\n        /* \"Exercicio7.sol\":2306:2339  storedInfo[storedInfo.length - 1] */\n      dup2\n      sload\n      dup2\n      lt\n      tag_91\n      jumpi\n      tag_92\n      tag_77\n      jump\t// in\n    tag_92:\n    tag_91:\n      swap1\n      0x00\n      mstore\n      keccak256(0x00, 0x20)\n      add\n        /* \"Exercicio7.sol\":2299:2339  return storedInfo[storedInfo.length - 1] */\n      dup1\n      sload\n      tag_94\n      swap1\n      tag_95\n      jump\t// in\n    tag_94:\n      dup1\n      0x1f\n      add\n      0x20\n      dup1\n      swap2\n      div\n      mul\n      0x20\n      add\n      mload(0x40)\n      swap1\n      dup2\n      add\n      0x40\n      mstore\n      dup1\n      swap3\n      swap2\n      swap1\n      dup2\n      dup2\n      mstore\n      0x20\n      add\n      dup3\n      dup1\n      sload\n      tag_96\n      swap1\n      tag_95\n      jump\t// in\n    tag_96:\n      dup1\n      iszero\n      tag_97\n      jumpi\n      dup1\n      0x1f\n      lt\n      tag_98\n      jumpi\n      0x0100\n      dup1\n      dup4\n      sload\n      div\n      mul\n      dup4\n      mstore\n      swap2\n      0x20\n      add\n      swap2\n      jump(tag_97)\n    tag_98:\n      dup3\n      add\n      swap2\n      swap1\n      0x00\n      mstore\n      keccak256(0x00, 0x20)\n      swap1\n    tag_99:\n      dup2\n      sload\n      dup2\n      mstore\n      swap1\n      0x01\n      add\n      swap1\n      0x20\n      add\n      dup1\n      dup4\n      gt\n      tag_99\n      jumpi\n      dup3\n      swap1\n      sub\n      0x1f\n      and\n      dup3\n      add\n      swap2\n    tag_97:\n      pop\n      pop\n      pop\n      pop\n      pop\n      swap1\n      pop\n        /* \"Exercicio7.sol\":2228:2346  function getLastInfo() external view returns (string memory) {... */\n      swap1\n      jump\t// out\n        /* \"Exercicio7.sol\":317:343  string[] public storedInfo */\n    tag_44:\n      0x01\n      dup2\n      dup2\n      sload\n      dup2\n      lt\n      tag_100\n      jumpi\n      0x00\n      dup1\n      revert\n    tag_100:\n      swap1\n      0x00\n      mstore\n      keccak256(0x00, 0x20)\n      add\n      0x00\n      swap2\n      pop\n      swap1\n      pop\n      dup1\n      sload\n      tag_102\n      swap1\n      tag_95\n      jump\t// in\n    tag_102:\n      dup1\n      0x1f\n      add\n      0x20\n      dup1\n      swap2\n      div\n      mul\n      0x20\n      add\n      mload(0x40)\n      swap1\n      dup2\n      add\n      0x40\n      mstore\n      dup1\n      swap3\n      swap2\n      swap1\n      dup2\n      dup2\n      mstore\n      0x20\n      add\n      dup3\n      dup1\n      sload\n      tag_103\n      swap1\n      tag_95\n      jump\t// in\n    tag_103:\n      dup1\n      iszero\n      tag_104\n      jumpi\n      dup1\n      0x1f\n      lt\n      tag_105\n      jumpi\n      0x0100\n      dup1\n      dup4\n      sload\n      div\n      mul\n      dup4\n      mstore\n      swap2\n      0x20\n      add\n      swap2\n      jump(tag_104)\n    tag_105:\n      dup3\n      add\n      swap2\n      swap1\n      0x00\n      mstore\n      keccak256(0x00, 0x20)\n      swap1\n    tag_106:\n      dup2\n      sload\n      dup2\n      mstore\n      swap1\n      0x01\n      add\n      swap1\n      0x20\n      add\n      dup1\n      dup4\n      gt\n      tag_106\n      jumpi\n      dup3\n      swap1\n      sub\n      0x1f\n      and\n      dup3\n      add\n      swap2\n    tag_104:\n      pop\n      pop\n      pop\n      pop\n      pop\n      dup2\n      jump\t// out\n        /* \"Exercicio7.sol\":2106:2222  function getIndexInfo(uint256 index) external view returns (string memory) {... */\n    tag_48:\n        /* \"Exercicio7.sol\":2166:2179  string memory */\n      0x60\n        /* \"Exercicio7.sol\":2198:2208  storedInfo */\n      0x01\n        /* \"Exercicio7.sol\":2209:2214  index */\n      dup3\n        /* \"Exercicio7.sol\":2198:2215  storedInfo[index] */\n      dup2\n      sload\n      dup2\n      lt\n      tag_108\n      jumpi\n      tag_109\n      tag_77\n      jump\t// in\n    tag_109:\n    tag_108:\n      swap1\n      0x00\n      mstore\n      keccak256(0x00, 0x20)\n      add\n        /* \"Exercicio7.sol\":2191:2215  return storedInfo[index] */\n      dup1\n      sload\n      tag_111\n      swap1\n      tag_95\n      jump\t// in\n    tag_111:\n      dup1\n      0x1f\n      add\n      0x20\n      dup1\n      swap2\n      div\n      mul\n      0x20\n      add\n      mload(0x40)\n      swap1\n      dup2\n      add\n      0x40\n      mstore\n      dup1\n      swap3\n      swap2\n      swap1\n      dup2\n      dup2\n      mstore\n      0x20\n      add\n      dup3\n      dup1\n      sload\n      tag_112\n      swap1\n      tag_95\n      jump\t// in\n    tag_112:\n      dup1\n      iszero\n      tag_113\n      jumpi\n      dup1\n      0x1f\n      lt\n      tag_114\n      jumpi\n      0x0100\n      dup1\n      dup4\n      sload\n      div\n      mul\n      dup4\n      mstore\n      swap2\n      0x20\n      add\n      swap2\n      jump(tag_113)\n    tag_114:\n      dup3\n      add\n      swap2\n      swap1\n      0x00\n      mstore\n      keccak256(0x00, 0x20)\n      swap1\n    tag_115:\n      dup2\n      sload\n      dup2\n      mstore\n      swap1\n      0x01\n      add\n      swap1\n      0x20\n      add\n      dup1\n      dup4\n      gt\n      tag_115\n      jumpi\n      dup3\n      swap1\n      sub\n      0x1f\n      and\n      dup3\n      add\n      swap2\n    tag_113:\n      pop\n      pop\n      pop\n      pop\n      pop\n      swap1\n      pop\n        /* \"Exercicio7.sol\":2106:2222  function getIndexInfo(uint256 index) external view returns (string memory) {... */\n      swap2\n      swap1\n      pop\n      jump\t// out\n        /* \"Exercicio7.sol\":1849:1955  function deleteWhitelistItem(address client) external onlyOwner{... */\n    tag_52:\n        /* \"Exercicio7.sol\":732:742  msg.sender */\n      caller\n        /* \"Exercicio7.sol\":721:742  s_owner != msg.sender */\n      0xffffffffffffffffffffffffffffffffffffffff\n      and\n        /* \"Exercicio7.sol\":721:728  s_owner */\n      0x00\n      dup1\n      sload\n      swap1\n      0x0100\n      exp\n      swap1\n      div\n      0xffffffffffffffffffffffffffffffffffffffff\n      and\n        /* \"Exercicio7.sol\":721:742  s_owner != msg.sender */\n      0xffffffffffffffffffffffffffffffffffffffff\n      and\n      eq\n        /* \"Exercicio7.sol\":718:798  if(s_owner != msg.sender) revert Exercicio7Guba_NotTheOwner(msg.sender, s_owner) */\n      tag_117\n      jumpi\n        /* \"Exercicio7.sol\":778:788  msg.sender */\n      caller\n        /* \"Exercicio7.sol\":790:797  s_owner */\n      0x00\n      dup1\n      sload\n      swap1\n      0x0100\n      exp\n      swap1\n      div\n      0xffffffffffffffffffffffffffffffffffffffff\n      and\n        /* \"Exercicio7.sol\":751:798  Exercicio7Guba_NotTheOwner(msg.sender, s_owner) */\n      mload(0x40)\n      0x82716adb00000000000000000000000000000000000000000000000000000000\n      dup2\n      mstore\n      0x04\n      add\n      tag_118\n      swap3\n      swap2\n      swap1\n      tag_86\n      jump\t// in\n    tag_118:\n      mload(0x40)\n      dup1\n      swap2\n      sub\n      swap1\n      revert\n        /* \"Exercicio7.sol\":718:798  if(s_owner != msg.sender) revert Exercicio7Guba_NotTheOwner(msg.sender, s_owner) */\n    tag_117:\n        /* \"Exercicio7.sol\":1929:1940  s_whitelist */\n      0x03\n        /* \"Exercicio7.sol\":1929:1948  s_whitelist[client] */\n      0x00\n        /* \"Exercicio7.sol\":1941:1947  client */\n      dup3\n        /* \"Exercicio7.sol\":1929:1948  s_whitelist[client] */\n      0xffffffffffffffffffffffffffffffffffffffff\n      and\n      0xffffffffffffffffffffffffffffffffffffffff\n      and\n      dup2\n      mstore\n      0x20\n      add\n      swap1\n      dup2\n      mstore\n      0x20\n      add\n      0x00\n      keccak256\n      0x00\n        /* \"Exercicio7.sol\":1922:1948  delete s_whitelist[client] */\n      0x0100\n      exp\n      dup2\n      sload\n      swap1\n      0xff\n      mul\n      not\n      and\n      swap1\n      sstore\n        /* \"Exercicio7.sol\":1849:1955  function deleteWhitelistItem(address client) external onlyOwner{... */\n      pop\n      jump\t// out\n        /* \"Exercicio7.sol\":289:311  address public s_owner */\n    tag_54:\n      0x00\n      dup1\n      sload\n      swap1\n      0x0100\n      exp\n      swap1\n      div\n      0xffffffffffffffffffffffffffffffffffffffff\n      and\n      dup2\n      jump\t// out\n        /* \"Exercicio7.sol\":2352:2454  function getCompleteArray() external view returns (string[] memory) {... */\n    tag_58:\n        /* \"Exercicio7.sol\":2403:2418  string[] memory */\n      0x60\n        /* \"Exercicio7.sol\":2437:2447  storedInfo */\n      0x01\n        /* \"Exercicio7.sol\":2430:2447  return storedInfo */\n      dup1\n      sload\n      dup1\n      0x20\n      mul\n      0x20\n      add\n      mload(0x40)\n      swap1\n      dup2\n      add\n      0x40\n      mstore\n      dup1\n      swap3\n      swap2\n      swap1\n      dup2\n      dup2\n      mstore\n      0x20\n      add\n      0x00\n      swap1\n    tag_121:\n      dup3\n      dup3\n      lt\n      iszero\n      tag_122\n      jumpi\n      dup4\n      dup3\n      swap1\n      0x00\n      mstore\n      keccak256(0x00, 0x20)\n      add\n      dup1\n      sload\n      tag_124\n      swap1\n      tag_95\n      jump\t// in\n    tag_124:\n      dup1\n      0x1f\n      add\n      0x20\n      dup1\n      swap2\n      div\n      mul\n      0x20\n      add\n      mload(0x40)\n      swap1\n      dup2\n      add\n      0x40\n      mstore\n      dup1\n      swap3\n      swap2\n      swap1\n      dup2\n      dup2\n      mstore\n      0x20\n      add\n      dup3\n      dup1\n      sload\n      tag_125\n      swap1\n      tag_95\n      jump\t// in\n    tag_125:\n      dup1\n      iszero\n      tag_126\n      jumpi\n      dup1\n      0x1f\n      lt\n      tag_127\n      jumpi\n      0x0100\n      dup1\n      dup4\n      sload\n      div\n      mul\n      dup4\n      mstore\n      swap2\n      0x20\n      add\n      swap2\n      jump(tag_126)\n    tag_127:\n      dup3\n      add\n      swap2\n      swap1\n      0x00\n      mstore\n      keccak256(0x00, 0x20)\n      swap1\n    tag_128:\n      dup2\n      sload\n      dup2\n      mstore\n      swap1\n      0x01\n      add\n      swap1\n      0x20\n      add\n      dup1\n      dup4\n      gt\n      tag_128\n      jumpi\n      dup3\n      swap1\n      sub\n      0x1f\n      and\n      dup3\n      add\n      swap2\n    tag_126:\n      pop\n      pop\n      pop\n      pop\n      pop\n      dup2\n      mstore\n      0x20\n      add\n      swap1\n      0x01\n      add\n      swap1\n      jump(tag_121)\n    tag_122:\n      pop\n      pop\n      pop\n      pop\n      swap1\n      pop\n        /* \"Exercicio7.sol\":2352:2454  function getCompleteArray() external view returns (string[] memory) {... */\n      swap1\n      jump\t// out\n        /* \"#utility.yul\":7:82   */\n    tag_129:\n        /* \"#utility.yul\":40:46   */\n      0x00\n        /* \"#utility.yul\":73:75   */\n      0x40\n        /* \"#utility.yul\":67:76   */\n      mload\n        /* \"#utility.yul\":57:76   */\n      swap1\n      pop\n        /* \"#utility.yul\":7:82   */\n      swap1\n      jump\t// out\n        /* \"#utility.yul\":88:205   */\n    tag_130:\n        /* \"#utility.yul\":197:198   */\n      0x00\n        /* \"#utility.yul\":194:195   */\n      dup1\n        /* \"#utility.yul\":187:199   */\n      revert\n        /* \"#utility.yul\":211:328   */\n    tag_131:\n        /* \"#utility.yul\":320:321   */\n      0x00\n        /* \"#utility.yul\":317:318   */\n      dup1\n        /* \"#utility.yul\":310:322   */\n      revert\n        /* \"#utility.yul\":334:460   */\n    tag_132:\n        /* \"#utility.yul\":371:378   */\n      0x00\n        /* \"#utility.yul\":411:453   */\n      0xffffffffffffffffffffffffffffffffffffffff\n        /* \"#utility.yul\":404:409   */\n      dup3\n        /* \"#utility.yul\":400:454   */\n      and\n        /* \"#utility.yul\":389:454   */\n      swap1\n      pop\n        /* \"#utility.yul\":334:460   */\n      swap2\n      swap1\n      pop\n      jump\t// out\n        /* \"#utility.yul\":466:562   */\n    tag_133:\n        /* \"#utility.yul\":503:510   */\n      0x00\n        /* \"#utility.yul\":532:556   */\n      tag_190\n        /* \"#utility.yul\":550:555   */\n      dup3\n        /* \"#utility.yul\":532:556   */\n      tag_132\n      jump\t// in\n    tag_190:\n        /* \"#utility.yul\":521:556   */\n      swap1\n      pop\n        /* \"#utility.yul\":466:562   */\n      swap2\n      swap1\n      pop\n      jump\t// out\n        /* \"#utility.yul\":568:690   */\n    tag_134:\n        /* \"#utility.yul\":641:665   */\n      tag_192\n        /* \"#utility.yul\":659:664   */\n      dup2\n        /* \"#utility.yul\":641:665   */\n      tag_133\n      jump\t// in\n    tag_192:\n        /* \"#utility.yul\":634:639   */\n      dup2\n        /* \"#utility.yul\":631:666   */\n      eq\n        /* \"#utility.yul\":621:684   */\n      tag_193\n      jumpi\n        /* \"#utility.yul\":680:681   */\n      0x00\n        /* \"#utility.yul\":677:678   */\n      dup1\n        /* \"#utility.yul\":670:682   */\n      revert\n        /* \"#utility.yul\":621:684   */\n    tag_193:\n        /* \"#utility.yul\":568:690   */\n      pop\n      jump\t// out\n        /* \"#utility.yul\":696:835   */\n    tag_135:\n        /* \"#utility.yul\":742:747   */\n      0x00\n        /* \"#utility.yul\":780:786   */\n      dup2\n        /* \"#utility.yul\":767:787   */\n      calldataload\n        /* \"#utility.yul\":758:787   */\n      swap1\n      pop\n        /* \"#utility.yul\":796:829   */\n      tag_195\n        /* \"#utility.yul\":823:828   */\n      dup2\n        /* \"#utility.yul\":796:829   */\n      tag_134\n      jump\t// in\n    tag_195:\n        /* \"#utility.yul\":696:835   */\n      swap3\n      swap2\n      pop\n      pop\n      jump\t// out\n        /* \"#utility.yul\":841:1170   */\n    tag_17:\n        /* \"#utility.yul\":900:906   */\n      0x00\n        /* \"#utility.yul\":949:951   */\n      0x20\n        /* \"#utility.yul\":937:946   */\n      dup3\n        /* \"#utility.yul\":928:935   */\n      dup5\n        /* \"#utility.yul\":924:947   */\n      sub\n        /* \"#utility.yul\":920:952   */\n      slt\n        /* \"#utility.yul\":917:1036   */\n      iszero\n      tag_197\n      jumpi\n        /* \"#utility.yul\":955:1034   */\n      tag_198\n      tag_130\n      jump\t// in\n    tag_198:\n        /* \"#utility.yul\":917:1036   */\n    tag_197:\n        /* \"#utility.yul\":1075:1076   */\n      0x00\n        /* \"#utility.yul\":1100:1153   */\n      tag_199\n        /* \"#utility.yul\":1145:1152   */\n      dup5\n        /* \"#utility.yul\":1136:1142   */\n      dup3\n        /* \"#utility.yul\":1125:1134   */\n      dup6\n        /* \"#utility.yul\":1121:1143   */\n      add\n        /* \"#utility.yul\":1100:1153   */\n      tag_135\n      jump\t// in\n    tag_199:\n        /* \"#utility.yul\":1090:1153   */\n      swap2\n      pop\n        /* \"#utility.yul\":1046:1163   */\n      pop\n        /* \"#utility.yul\":841:1170   */\n      swap3\n      swap2\n      pop\n      pop\n      jump\t// out\n        /* \"#utility.yul\":1176:1266   */\n    tag_136:\n        /* \"#utility.yul\":1210:1217   */\n      0x00\n        /* \"#utility.yul\":1253:1258   */\n      dup2\n        /* \"#utility.yul\":1246:1259   */\n      iszero\n        /* \"#utility.yul\":1239:1260   */\n      iszero\n        /* \"#utility.yul\":1228:1260   */\n      swap1\n      pop\n        /* \"#utility.yul\":1176:1266   */\n      swap2\n      swap1\n      pop\n      jump\t// out\n        /* \"#utility.yul\":1272:1381   */\n    tag_137:\n        /* \"#utility.yul\":1353:1374   */\n      tag_202\n        /* \"#utility.yul\":1368:1373   */\n      dup2\n        /* \"#utility.yul\":1353:1374   */\n      tag_136\n      jump\t// in\n    tag_202:\n        /* \"#utility.yul\":1348:1351   */\n      dup3\n        /* \"#utility.yul\":1341:1375   */\n      mstore\n        /* \"#utility.yul\":1272:1381   */\n      pop\n      pop\n      jump\t// out\n        /* \"#utility.yul\":1387:1597   */\n    tag_20:\n        /* \"#utility.yul\":1474:1478   */\n      0x00\n        /* \"#utility.yul\":1512:1514   */\n      0x20\n        /* \"#utility.yul\":1501:1510   */\n      dup3\n        /* \"#utility.yul\":1497:1515   */\n      add\n        /* \"#utility.yul\":1489:1515   */\n      swap1\n      pop\n        /* \"#utility.yul\":1525:1590   */\n      tag_204\n        /* \"#utility.yul\":1587:1588   */\n      0x00\n        /* \"#utility.yul\":1576:1585   */\n      dup4\n        /* \"#utility.yul\":1572:1589   */\n      add\n        /* \"#utility.yul\":1563:1569   */\n      dup5\n        /* \"#utility.yul\":1525:1590   */\n      tag_137\n      jump\t// in\n    tag_204:\n        /* \"#utility.yul\":1387:1597   */\n      swap3\n      swap2\n      pop\n      pop\n      jump\t// out\n        /* \"#utility.yul\":1603:1720   */\n    tag_138:\n        /* \"#utility.yul\":1712:1713   */\n      0x00\n        /* \"#utility.yul\":1709:1710   */\n      dup1\n        /* \"#utility.yul\":1702:1714   */\n      revert\n        /* \"#utility.yul\":1726:1843   */\n    tag_139:\n        /* \"#utility.yul\":1835:1836   */\n      0x00\n        /* \"#utility.yul\":1832:1833   */\n      dup1\n        /* \"#utility.yul\":1825:1837   */\n      revert\n        /* \"#utility.yul\":1849:1951   */\n    tag_140:\n        /* \"#utility.yul\":1890:1896   */\n      0x00\n        /* \"#utility.yul\":1941:1943   */\n      0x1f\n        /* \"#utility.yul\":1937:1944   */\n      not\n        /* \"#utility.yul\":1932:1934   */\n      0x1f\n        /* \"#utility.yul\":1925:1930   */\n      dup4\n        /* \"#utility.yul\":1921:1935   */\n      add\n        /* \"#utility.yul\":1917:1945   */\n      and\n        /* \"#utility.yul\":1907:1945   */\n      swap1\n      pop\n        /* \"#utility.yul\":1849:1951   */\n      swap2\n      swap1\n      pop\n      jump\t// out\n        /* \"#utility.yul\":1957:2137   */\n    tag_141:\n        /* \"#utility.yul\":2005:2082   */\n      0x4e487b7100000000000000000000000000000000000000000000000000000000\n        /* \"#utility.yul\":2002:2003   */\n      0x00\n        /* \"#utility.yul\":1995:2083   */\n      mstore\n        /* \"#utility.yul\":2102:2106   */\n      0x41\n        /* \"#utility.yul\":2099:2100   */\n      0x04\n        /* \"#utility.yul\":2092:2107   */\n      mstore\n        /* \"#utility.yul\":2126:2130   */\n      0x24\n        /* \"#utility.yul\":2123:2124   */\n      0x00\n        /* \"#utility.yul\":2116:2131   */\n      revert\n        /* \"#utility.yul\":2143:2424   */\n    tag_142:\n        /* \"#utility.yul\":2226:2253   */\n      tag_210\n        /* \"#utility.yul\":2248:2252   */\n      dup3\n        /* \"#utility.yul\":2226:2253   */\n      tag_140\n      jump\t// in\n    tag_210:\n        /* \"#utility.yul\":2218:2224   */\n      dup2\n        /* \"#utility.yul\":2214:2254   */\n      add\n        /* \"#utility.yul\":2356:2362   */\n      dup2\n        /* \"#utility.yul\":2344:2354   */\n      dup2\n        /* \"#utility.yul\":2341:2363   */\n      lt\n        /* \"#utility.yul\":2320:2338   */\n      0xffffffffffffffff\n        /* \"#utility.yul\":2308:2318   */\n      dup3\n        /* \"#utility.yul\":2305:2339   */\n      gt\n        /* \"#utility.yul\":2302:2364   */\n      or\n        /* \"#utility.yul\":2299:2387   */\n      iszero\n      tag_211\n      jumpi\n        /* \"#utility.yul\":2367:2385   */\n      tag_212\n      tag_141\n      jump\t// in\n    tag_212:\n        /* \"#utility.yul\":2299:2387   */\n    tag_211:\n        /* \"#utility.yul\":2407:2417   */\n      dup1\n        /* \"#utility.yul\":2403:2405   */\n      0x40\n        /* \"#utility.yul\":2396:2418   */\n      mstore\n        /* \"#utility.yul\":2186:2424   */\n      pop\n        /* \"#utility.yul\":2143:2424   */\n      pop\n      pop\n      jump\t// out\n        /* \"#utility.yul\":2430:2559   */\n    tag_143:\n        /* \"#utility.yul\":2464:2470   */\n      0x00\n        /* \"#utility.yul\":2491:2511   */\n      tag_214\n      tag_129\n      jump\t// in\n    tag_214:\n        /* \"#utility.yul\":2481:2511   */\n      swap1\n      pop\n        /* \"#utility.yul\":2520:2553   */\n      tag_215\n        /* \"#utility.yul\":2548:2552   */\n      dup3\n        /* \"#utility.yul\":2540:2546   */\n      dup3\n        /* \"#utility.yul\":2520:2553   */\n      tag_142\n      jump\t// in\n    tag_215:\n        /* \"#utility.yul\":2430:2559   */\n      swap2\n      swap1\n      pop\n      jump\t// out\n        /* \"#utility.yul\":2565:2873   */\n    tag_144:\n        /* \"#utility.yul\":2627:2631   */\n      0x00\n        /* \"#utility.yul\":2717:2735   */\n      0xffffffffffffffff\n        /* \"#utility.yul\":2709:2715   */\n      dup3\n        /* \"#utility.yul\":2706:2736   */\n      gt\n        /* \"#utility.yul\":2703:2759   */\n      iszero\n      tag_217\n      jumpi\n        /* \"#utility.yul\":2739:2757   */\n      tag_218\n      tag_141\n      jump\t// in\n    tag_218:\n        /* \"#utility.yul\":2703:2759   */\n    tag_217:\n        /* \"#utility.yul\":2777:2806   */\n      tag_219\n        /* \"#utility.yul\":2799:2805   */\n      dup3\n        /* \"#utility.yul\":2777:2806   */\n      tag_140\n      jump\t// in\n    tag_219:\n        /* \"#utility.yul\":2769:2806   */\n      swap1\n      pop\n        /* \"#utility.yul\":2861:2865   */\n      0x20\n        /* \"#utility.yul\":2855:2859   */\n      dup2\n        /* \"#utility.yul\":2851:2866   */\n      add\n        /* \"#utility.yul\":2843:2866   */\n      swap1\n      pop\n        /* \"#utility.yul\":2565:2873   */\n      swap2\n      swap1\n      pop\n      jump\t// out\n        /* \"#utility.yul\":2879:3025   */\n    tag_145:\n        /* \"#utility.yul\":2976:2982   */\n      dup3\n        /* \"#utility.yul\":2971:2974   */\n      dup2\n        /* \"#utility.yul\":2966:2969   */\n      dup4\n        /* \"#utility.yul\":2953:2983   */\n      calldatacopy\n        /* \"#utility.yul\":3017:3018   */\n      0x00\n        /* \"#utility.yul\":3008:3014   */\n      dup4\n        /* \"#utility.yul\":3003:3006   */\n      dup4\n        /* \"#utility.yul\":2999:3015   */\n      add\n        /* \"#utility.yul\":2992:3019   */\n      mstore\n        /* \"#utility.yul\":2879:3025   */\n      pop\n      pop\n      pop\n      jump\t// out\n        /* \"#utility.yul\":3031:3456   */\n    tag_146:\n        /* \"#utility.yul\":3109:3114   */\n      0x00\n        /* \"#utility.yul\":3134:3200   */\n      tag_222\n        /* \"#utility.yul\":3150:3199   */\n      tag_223\n        /* \"#utility.yul\":3192:3198   */\n      dup5\n        /* \"#utility.yul\":3150:3199   */\n      tag_144\n      jump\t// in\n    tag_223:\n        /* \"#utility.yul\":3134:3200   */\n      tag_143\n      jump\t// in\n    tag_222:\n        /* \"#utility.yul\":3125:3200   */\n      swap1\n      pop\n        /* \"#utility.yul\":3223:3229   */\n      dup3\n        /* \"#utility.yul\":3216:3221   */\n      dup2\n        /* \"#utility.yul\":3209:3230   */\n      mstore\n        /* \"#utility.yul\":3261:3265   */\n      0x20\n        /* \"#utility.yul\":3254:3259   */\n      dup2\n        /* \"#utility.yul\":3250:3266   */\n      add\n        /* \"#utility.yul\":3299:3302   */\n      dup5\n        /* \"#utility.yul\":3290:3296   */\n      dup5\n        /* \"#utility.yul\":3285:3288   */\n      dup5\n        /* \"#utility.yul\":3281:3297   */\n      add\n        /* \"#utility.yul\":3278:3303   */\n      gt\n        /* \"#utility.yul\":3275:3387   */\n      iszero\n      tag_224\n      jumpi\n        /* \"#utility.yul\":3306:3385   */\n      tag_225\n      tag_139\n      jump\t// in\n    tag_225:\n        /* \"#utility.yul\":3275:3387   */\n    tag_224:\n        /* \"#utility.yul\":3396:3450   */\n      tag_226\n        /* \"#utility.yul\":3443:3449   */\n      dup5\n        /* \"#utility.yul\":3438:3441   */\n      dup3\n        /* \"#utility.yul\":3433:3436   */\n      dup6\n        /* \"#utility.yul\":3396:3450   */\n      tag_145\n      jump\t// in\n    tag_226:\n        /* \"#utility.yul\":3115:3456   */\n      pop\n        /* \"#utility.yul\":3031:3456   */\n      swap4\n      swap3\n      pop\n      pop\n      pop\n      jump\t// out\n        /* \"#utility.yul\":3476:3816   */\n    tag_147:\n        /* \"#utility.yul\":3532:3537   */\n      0x00\n        /* \"#utility.yul\":3581:3584   */\n      dup3\n        /* \"#utility.yul\":3574:3578   */\n      0x1f\n        /* \"#utility.yul\":3566:3572   */\n      dup4\n        /* \"#utility.yul\":3562:3579   */\n      add\n        /* \"#utility.yul\":3558:3585   */\n      slt\n        /* \"#utility.yul\":3548:3670   */\n      tag_228\n      jumpi\n        /* \"#utility.yul\":3589:3668   */\n      tag_229\n      tag_138\n      jump\t// in\n    tag_229:\n        /* \"#utility.yul\":3548:3670   */\n    tag_228:\n        /* \"#utility.yul\":3706:3712   */\n      dup2\n        /* \"#utility.yul\":3693:3713   */\n      calldataload\n        /* \"#utility.yul\":3731:3810   */\n      tag_230\n        /* \"#utility.yul\":3806:3809   */\n      dup5\n        /* \"#utility.yul\":3798:3804   */\n      dup3\n        /* \"#utility.yul\":3791:3795   */\n      0x20\n        /* \"#utility.yul\":3783:3789   */\n      dup7\n        /* \"#utility.yul\":3779:3796   */\n      add\n        /* \"#utility.yul\":3731:3810   */\n      tag_146\n      jump\t// in\n    tag_230:\n        /* \"#utility.yul\":3722:3810   */\n      swap2\n      pop\n        /* \"#utility.yul\":3538:3816   */\n      pop\n        /* \"#utility.yul\":3476:3816   */\n      swap3\n      swap2\n      pop\n      pop\n      jump\t// out\n        /* \"#utility.yul\":3822:4331   */\n    tag_23:\n        /* \"#utility.yul\":3891:3897   */\n      0x00\n        /* \"#utility.yul\":3940:3942   */\n      0x20\n        /* \"#utility.yul\":3928:3937   */\n      dup3\n        /* \"#utility.yul\":3919:3926   */\n      dup5\n        /* \"#utility.yul\":3915:3938   */\n      sub\n        /* \"#utility.yul\":3911:3943   */\n      slt\n        /* \"#utility.yul\":3908:4027   */\n      iszero\n      tag_232\n      jumpi\n        /* \"#utility.yul\":3946:4025   */\n      tag_233\n      tag_130\n      jump\t// in\n    tag_233:\n        /* \"#utility.yul\":3908:4027   */\n    tag_232:\n        /* \"#utility.yul\":4094:4095   */\n      0x00\n        /* \"#utility.yul\":4083:4092   */\n      dup3\n        /* \"#utility.yul\":4079:4096   */\n      add\n        /* \"#utility.yul\":4066:4097   */\n      calldataload\n        /* \"#utility.yul\":4124:4142   */\n      0xffffffffffffffff\n        /* \"#utility.yul\":4116:4122   */\n      dup2\n        /* \"#utility.yul\":4113:4143   */\n      gt\n        /* \"#utility.yul\":4110:4227   */\n      iszero\n      tag_234\n      jumpi\n        /* \"#utility.yul\":4146:4225   */\n      tag_235\n      tag_131\n      jump\t// in\n    tag_235:\n        /* \"#utility.yul\":4110:4227   */\n    tag_234:\n        /* \"#utility.yul\":4251:4314   */\n      tag_236\n        /* \"#utility.yul\":4306:4313   */\n      dup5\n        /* \"#utility.yul\":4297:4303   */\n      dup3\n        /* \"#utility.yul\":4286:4295   */\n      dup6\n        /* \"#utility.yul\":4282:4304   */\n      add\n        /* \"#utility.yul\":4251:4314   */\n      tag_147\n      jump\t// in\n    tag_236:\n        /* \"#utility.yul\":4241:4314   */\n      swap2\n      pop\n        /* \"#utility.yul\":4037:4324   */\n      pop\n        /* \"#utility.yul\":3822:4331   */\n      swap3\n      swap2\n      pop\n      pop\n      jump\t// out\n        /* \"#utility.yul\":4337:4414   */\n    tag_148:\n        /* \"#utility.yul\":4374:4381   */\n      0x00\n        /* \"#utility.yul\":4403:4408   */\n      dup2\n        /* \"#utility.yul\":4392:4408   */\n      swap1\n      pop\n        /* \"#utility.yul\":4337:4414   */\n      swap2\n      swap1\n      pop\n      jump\t// out\n        /* \"#utility.yul\":4420:4538   */\n    tag_149:\n        /* \"#utility.yul\":4507:4531   */\n      tag_239\n        /* \"#utility.yul\":4525:4530   */\n      dup2\n        /* \"#utility.yul\":4507:4531   */\n      tag_148\n      jump\t// in\n    tag_239:\n        /* \"#utility.yul\":4502:4505   */\n      dup3\n        /* \"#utility.yul\":4495:4532   */\n      mstore\n        /* \"#utility.yul\":4420:4538   */\n      pop\n      pop\n      jump\t// out\n        /* \"#utility.yul\":4544:4766   */\n    tag_28:\n        /* \"#utility.yul\":4637:4641   */\n      0x00\n        /* \"#utility.yul\":4675:4677   */\n      0x20\n        /* \"#utility.yul\":4664:4673   */\n      dup3\n        /* \"#utility.yul\":4660:4678   */\n      add\n        /* \"#utility.yul\":4652:4678   */\n      swap1\n      pop\n        /* \"#utility.yul\":4688:4759   */\n      tag_241\n        /* \"#utility.yul\":4756:4757   */\n      0x00\n        /* \"#utility.yul\":4745:4754   */\n      dup4\n        /* \"#utility.yul\":4741:4758   */\n      add\n        /* \"#utility.yul\":4732:4738   */\n      dup5\n        /* \"#utility.yul\":4688:4759   */\n      tag_149\n      jump\t// in\n    tag_241:\n        /* \"#utility.yul\":4544:4766   */\n      swap3\n      swap2\n      pop\n      pop\n      jump\t// out\n        /* \"#utility.yul\":4772:4894   */\n    tag_150:\n        /* \"#utility.yul\":4845:4869   */\n      tag_243\n        /* \"#utility.yul\":4863:4868   */\n      dup2\n        /* \"#utility.yul\":4845:4869   */\n      tag_148\n      jump\t// in\n    tag_243:\n        /* \"#utility.yul\":4838:4843   */\n      dup2\n        /* \"#utility.yul\":4835:4870   */\n      eq\n        /* \"#utility.yul\":4825:4888   */\n      tag_244\n      jumpi\n        /* \"#utility.yul\":4884:4885   */\n      0x00\n        /* \"#utility.yul\":4881:4882   */\n      dup1\n        /* \"#utility.yul\":4874:4886   */\n      revert\n        /* \"#utility.yul\":4825:4888   */\n    tag_244:\n        /* \"#utility.yul\":4772:4894   */\n      pop\n      jump\t// out\n        /* \"#utility.yul\":4900:5039   */\n    tag_151:\n        /* \"#utility.yul\":4946:4951   */\n      0x00\n        /* \"#utility.yul\":4984:4990   */\n      dup2\n        /* \"#utility.yul\":4971:4991   */\n      calldataload\n        /* \"#utility.yul\":4962:4991   */\n      swap1\n      pop\n        /* \"#utility.yul\":5000:5033   */\n      tag_246\n        /* \"#utility.yul\":5027:5032   */\n      dup2\n        /* \"#utility.yul\":5000:5033   */\n      tag_150\n      jump\t// in\n    tag_246:\n        /* \"#utility.yul\":4900:5039   */\n      swap3\n      swap2\n      pop\n      pop\n      jump\t// out\n        /* \"#utility.yul\":5045:5699   */\n    tag_31:\n        /* \"#utility.yul\":5123:5129   */\n      0x00\n        /* \"#utility.yul\":5131:5137   */\n      dup1\n        /* \"#utility.yul\":5180:5182   */\n      0x40\n        /* \"#utility.yul\":5168:5177   */\n      dup4\n        /* \"#utility.yul\":5159:5166   */\n      dup6\n        /* \"#utility.yul\":5155:5178   */\n      sub\n        /* \"#utility.yul\":5151:5183   */\n      slt\n        /* \"#utility.yul\":5148:5267   */\n      iszero\n      tag_248\n      jumpi\n        /* \"#utility.yul\":5186:5265   */\n      tag_249\n      tag_130\n      jump\t// in\n    tag_249:\n        /* \"#utility.yul\":5148:5267   */\n    tag_248:\n        /* \"#utility.yul\":5306:5307   */\n      0x00\n        /* \"#utility.yul\":5331:5384   */\n      tag_250\n        /* \"#utility.yul\":5376:5383   */\n      dup6\n        /* \"#utility.yul\":5367:5373   */\n      dup3\n        /* \"#utility.yul\":5356:5365   */\n      dup7\n        /* \"#utility.yul\":5352:5374   */\n      add\n        /* \"#utility.yul\":5331:5384   */\n      tag_151\n      jump\t// in\n    tag_250:\n        /* \"#utility.yul\":5321:5384   */\n      swap3\n      pop\n        /* \"#utility.yul\":5277:5394   */\n      pop\n        /* \"#utility.yul\":5461:5463   */\n      0x20\n        /* \"#utility.yul\":5450:5459   */\n      dup4\n        /* \"#utility.yul\":5446:5464   */\n      add\n        /* \"#utility.yul\":5433:5465   */\n      calldataload\n        /* \"#utility.yul\":5492:5510   */\n      0xffffffffffffffff\n        /* \"#utility.yul\":5484:5490   */\n      dup2\n        /* \"#utility.yul\":5481:5511   */\n      gt\n        /* \"#utility.yul\":5478:5595   */\n      iszero\n      tag_251\n      jumpi\n        /* \"#utility.yul\":5514:5593   */\n      tag_252\n      tag_131\n      jump\t// in\n    tag_252:\n        /* \"#utility.yul\":5478:5595   */\n    tag_251:\n        /* \"#utility.yul\":5619:5682   */\n      tag_253\n        /* \"#utility.yul\":5674:5681   */\n      dup6\n        /* \"#utility.yul\":5665:5671   */\n      dup3\n        /* \"#utility.yul\":5654:5663   */\n      dup7\n        /* \"#utility.yul\":5650:5672   */\n      add\n        /* \"#utility.yul\":5619:5682   */\n      tag_147\n      jump\t// in\n    tag_253:\n        /* \"#utility.yul\":5609:5682   */\n      swap2\n      pop\n        /* \"#utility.yul\":5404:5692   */\n      pop\n        /* \"#utility.yul\":5045:5699   */\n      swap3\n      pop\n      swap3\n      swap1\n      pop\n      jump\t// out\n        /* \"#utility.yul\":5705:5821   */\n    tag_152:\n        /* \"#utility.yul\":5775:5796   */\n      tag_255\n        /* \"#utility.yul\":5790:5795   */\n      dup2\n        /* \"#utility.yul\":5775:5796   */\n      tag_136\n      jump\t// in\n    tag_255:\n        /* \"#utility.yul\":5768:5773   */\n      dup2\n        /* \"#utility.yul\":5765:5797   */\n      eq\n        /* \"#utility.yul\":5755:5815   */\n      tag_256\n      jumpi\n        /* \"#utility.yul\":5811:5812   */\n      0x00\n        /* \"#utility.yul\":5808:5809   */\n      dup1\n        /* \"#utility.yul\":5801:5813   */\n      revert\n        /* \"#utility.yul\":5755:5815   */\n    tag_256:\n        /* \"#utility.yul\":5705:5821   */\n      pop\n      jump\t// out\n        /* \"#utility.yul\":5827:5960   */\n    tag_153:\n        /* \"#utility.yul\":5870:5875   */\n      0x00\n        /* \"#utility.yul\":5908:5914   */\n      dup2\n        /* \"#utility.yul\":5895:5915   */\n      calldataload\n        /* \"#utility.yul\":5886:5915   */\n      swap1\n      pop\n        /* \"#utility.yul\":5924:5954   */\n      tag_258\n        /* \"#utility.yul\":5948:5953   */\n      dup2\n        /* \"#utility.yul\":5924:5954   */\n      tag_152\n      jump\t// in\n    tag_258:\n        /* \"#utility.yul\":5827:5960   */\n      swap3\n      swap2\n      pop\n      pop\n      jump\t// out\n        /* \"#utility.yul\":5966:6434   */\n    tag_35:\n        /* \"#utility.yul\":6031:6037   */\n      0x00\n        /* \"#utility.yul\":6039:6045   */\n      dup1\n        /* \"#utility.yul\":6088:6090   */\n      0x40\n        /* \"#utility.yul\":6076:6085   */\n      dup4\n        /* \"#utility.yul\":6067:6074   */\n      dup6\n        /* \"#utility.yul\":6063:6086   */\n      sub\n        /* \"#utility.yul\":6059:6091   */\n      slt\n        /* \"#utility.yul\":6056:6175   */\n      iszero\n      tag_260\n      jumpi\n        /* \"#utility.yul\":6094:6173   */\n      tag_261\n      tag_130\n      jump\t// in\n    tag_261:\n        /* \"#utility.yul\":6056:6175   */\n    tag_260:\n        /* \"#utility.yul\":6214:6215   */\n      0x00\n        /* \"#utility.yul\":6239:6292   */\n      tag_262\n        /* \"#utility.yul\":6284:6291   */\n      dup6\n        /* \"#utility.yul\":6275:6281   */\n      dup3\n        /* \"#utility.yul\":6264:6273   */\n      dup7\n        /* \"#utility.yul\":6260:6282   */\n      add\n        /* \"#utility.yul\":6239:6292   */\n      tag_135\n      jump\t// in\n    tag_262:\n        /* \"#utility.yul\":6229:6292   */\n      swap3\n      pop\n        /* \"#utility.yul\":6185:6302   */\n      pop\n        /* \"#utility.yul\":6341:6343   */\n      0x20\n        /* \"#utility.yul\":6367:6417   */\n      tag_263\n        /* \"#utility.yul\":6409:6416   */\n      dup6\n        /* \"#utility.yul\":6400:6406   */\n      dup3\n        /* \"#utility.yul\":6389:6398   */\n      dup7\n        /* \"#utility.yul\":6385:6407   */\n      add\n        /* \"#utility.yul\":6367:6417   */\n      tag_153\n      jump\t// in\n    tag_263:\n        /* \"#utility.yul\":6357:6417   */\n      swap2\n      pop\n        /* \"#utility.yul\":6312:6427   */\n      pop\n        /* \"#utility.yul\":5966:6434   */\n      swap3\n      pop\n      swap3\n      swap1\n      pop\n      jump\t// out\n        /* \"#utility.yul\":6440:6539   */\n    tag_154:\n        /* \"#utility.yul\":6492:6498   */\n      0x00\n        /* \"#utility.yul\":6526:6531   */\n      dup2\n        /* \"#utility.yul\":6520:6532   */\n      mload\n        /* \"#utility.yul\":6510:6532   */\n      swap1\n      pop\n        /* \"#utility.yul\":6440:6539   */\n      swap2\n      swap1\n      pop\n      jump\t// out\n        /* \"#utility.yul\":6545:6714   */\n    tag_155:\n        /* \"#utility.yul\":6629:6640   */\n      0x00\n        /* \"#utility.yul\":6663:6669   */\n      dup3\n        /* \"#utility.yul\":6658:6661   */\n      dup3\n        /* \"#utility.yul\":6651:6670   */\n      mstore\n        /* \"#utility.yul\":6703:6707   */\n      0x20\n        /* \"#utility.yul\":6698:6701   */\n      dup3\n        /* \"#utility.yul\":6694:6708   */\n      add\n        /* \"#utility.yul\":6679:6708   */\n      swap1\n      pop\n        /* \"#utility.yul\":6545:6714   */\n      swap3\n      swap2\n      pop\n      pop\n      jump\t// out\n        /* \"#utility.yul\":6720:6966   */\n    tag_156:\n        /* \"#utility.yul\":6801:6802   */\n      0x00\n        /* \"#utility.yul\":6811:6924   */\n    tag_267:\n        /* \"#utility.yul\":6825:6831   */\n      dup4\n        /* \"#utility.yul\":6822:6823   */\n      dup2\n        /* \"#utility.yul\":6819:6832   */\n      lt\n        /* \"#utility.yul\":6811:6924   */\n      iszero\n      tag_269\n      jumpi\n        /* \"#utility.yul\":6910:6911   */\n      dup1\n        /* \"#utility.yul\":6905:6908   */\n      dup3\n        /* \"#utility.yul\":6901:6912   */\n      add\n        /* \"#utility.yul\":6895:6913   */\n      mload\n        /* \"#utility.yul\":6891:6892   */\n      dup2\n        /* \"#utility.yul\":6886:6889   */\n      dup5\n        /* \"#utility.yul\":6882:6893   */\n      add\n        /* \"#utility.yul\":6875:6914   */\n      mstore\n        /* \"#utility.yul\":6847:6849   */\n      0x20\n        /* \"#utility.yul\":6844:6845   */\n      dup2\n        /* \"#utility.yul\":6840:6850   */\n      add\n        /* \"#utility.yul\":6835:6850   */\n      swap1\n      pop\n        /* \"#utility.yul\":6811:6924   */\n      jump(tag_267)\n    tag_269:\n        /* \"#utility.yul\":6958:6959   */\n      0x00\n        /* \"#utility.yul\":6949:6955   */\n      dup5\n        /* \"#utility.yul\":6944:6947   */\n      dup5\n        /* \"#utility.yul\":6940:6956   */\n      add\n        /* \"#utility.yul\":6933:6960   */\n      mstore\n        /* \"#utility.yul\":6782:6966   */\n      pop\n        /* \"#utility.yul\":6720:6966   */\n      pop\n      pop\n      pop\n      jump\t// out\n        /* \"#utility.yul\":6972:7349   */\n    tag_157:\n        /* \"#utility.yul\":7060:7063   */\n      0x00\n        /* \"#utility.yul\":7088:7127   */\n      tag_271\n        /* \"#utility.yul\":7121:7126   */\n      dup3\n        /* \"#utility.yul\":7088:7127   */\n      tag_154\n      jump\t// in\n    tag_271:\n        /* \"#utility.yul\":7143:7214   */\n      tag_272\n        /* \"#utility.yul\":7207:7213   */\n      dup2\n        /* \"#utility.yul\":7202:7205   */\n      dup6\n        /* \"#utility.yul\":7143:7214   */\n      tag_155\n      jump\t// in\n    tag_272:\n        /* \"#utility.yul\":7136:7214   */\n      swap4\n      pop\n        /* \"#utility.yul\":7223:7288   */\n      tag_273\n        /* \"#utility.yul\":7281:7287   */\n      dup2\n        /* \"#utility.yul\":7276:7279   */\n      dup6\n        /* \"#utility.yul\":7269:7273   */\n      0x20\n        /* \"#utility.yul\":7262:7267   */\n      dup7\n        /* \"#utility.yul\":7258:7274   */\n      add\n        /* \"#utility.yul\":7223:7288   */\n      tag_156\n      jump\t// in\n    tag_273:\n        /* \"#utility.yul\":7313:7342   */\n      tag_274\n        /* \"#utility.yul\":7335:7341   */\n      dup2\n        /* \"#utility.yul\":7313:7342   */\n      tag_140\n      jump\t// in\n    tag_274:\n        /* \"#utility.yul\":7308:7311   */\n      dup5\n        /* \"#utility.yul\":7304:7343   */\n      add\n        /* \"#utility.yul\":7297:7343   */\n      swap2\n      pop\n        /* \"#utility.yul\":7064:7349   */\n      pop\n        /* \"#utility.yul\":6972:7349   */\n      swap3\n      swap2\n      pop\n      pop\n      jump\t// out\n        /* \"#utility.yul\":7355:7668   */\n    tag_40:\n        /* \"#utility.yul\":7468:7472   */\n      0x00\n        /* \"#utility.yul\":7506:7508   */\n      0x20\n        /* \"#utility.yul\":7495:7504   */\n      dup3\n        /* \"#utility.yul\":7491:7509   */\n      add\n        /* \"#utility.yul\":7483:7509   */\n      swap1\n      pop\n        /* \"#utility.yul\":7555:7564   */\n      dup2\n        /* \"#utility.yul\":7549:7553   */\n      dup2\n        /* \"#utility.yul\":7545:7565   */\n      sub\n        /* \"#utility.yul\":7541:7542   */\n      0x00\n        /* \"#utility.yul\":7530:7539   */\n      dup4\n        /* \"#utility.yul\":7526:7543   */\n      add\n        /* \"#utility.yul\":7519:7566   */\n      mstore\n        /* \"#utility.yul\":7583:7661   */\n      tag_276\n        /* \"#utility.yul\":7656:7660   */\n      dup2\n        /* \"#utility.yul\":7647:7653   */\n      dup5\n        /* \"#utility.yul\":7583:7661   */\n      tag_157\n      jump\t// in\n    tag_276:\n        /* \"#utility.yul\":7575:7661   */\n      swap1\n      pop\n        /* \"#utility.yul\":7355:7668   */\n      swap3\n      swap2\n      pop\n      pop\n      jump\t// out\n        /* \"#utility.yul\":7674:8003   */\n    tag_43:\n        /* \"#utility.yul\":7733:7739   */\n      0x00\n        /* \"#utility.yul\":7782:7784   */\n      0x20\n        /* \"#utility.yul\":7770:7779   */\n      dup3\n        /* \"#utility.yul\":7761:7768   */\n      dup5\n        /* \"#utility.yul\":7757:7780   */\n      sub\n        /* \"#utility.yul\":7753:7785   */\n      slt\n        /* \"#utility.yul\":7750:7869   */\n      iszero\n      tag_278\n      jumpi\n        /* \"#utility.yul\":7788:7867   */\n      tag_279\n      tag_130\n      jump\t// in\n    tag_279:\n        /* \"#utility.yul\":7750:7869   */\n    tag_278:\n        /* \"#utility.yul\":7908:7909   */\n      0x00\n        /* \"#utility.yul\":7933:7986   */\n      tag_280\n        /* \"#utility.yul\":7978:7985   */\n      dup5\n        /* \"#utility.yul\":7969:7975   */\n      dup3\n        /* \"#utility.yul\":7958:7967   */\n      dup6\n        /* \"#utility.yul\":7954:7976   */\n      add\n        /* \"#utility.yul\":7933:7986   */\n      tag_151\n      jump\t// in\n    tag_280:\n        /* \"#utility.yul\":7923:7986   */\n      swap2\n      pop\n        /* \"#utility.yul\":7879:7996   */\n      pop\n        /* \"#utility.yul\":7674:8003   */\n      swap3\n      swap2\n      pop\n      pop\n      jump\t// out\n        /* \"#utility.yul\":8009:8127   */\n    tag_158:\n        /* \"#utility.yul\":8096:8120   */\n      tag_282\n        /* \"#utility.yul\":8114:8119   */\n      dup2\n        /* \"#utility.yul\":8096:8120   */\n      tag_133\n      jump\t// in\n    tag_282:\n        /* \"#utility.yul\":8091:8094   */\n      dup3\n        /* \"#utility.yul\":8084:8121   */\n      mstore\n        /* \"#utility.yul\":8009:8127   */\n      pop\n      pop\n      jump\t// out\n        /* \"#utility.yul\":8133:8355   */\n    tag_56:\n        /* \"#utility.yul\":8226:8230   */\n      0x00\n        /* \"#utility.yul\":8264:8266   */\n      0x20\n        /* \"#utility.yul\":8253:8262   */\n      dup3\n        /* \"#utility.yul\":8249:8267   */\n      add\n        /* \"#utility.yul\":8241:8267   */\n      swap1\n      pop\n        /* \"#utility.yul\":8277:8348   */\n      tag_284\n        /* \"#utility.yul\":8345:8346   */\n      0x00\n        /* \"#utility.yul\":8334:8343   */\n      dup4\n        /* \"#utility.yul\":8330:8347   */\n      add\n        /* \"#utility.yul\":8321:8327   */\n      dup5\n        /* \"#utility.yul\":8277:8348   */\n      tag_158\n      jump\t// in\n    tag_284:\n        /* \"#utility.yul\":8133:8355   */\n      swap3\n      swap2\n      pop\n      pop\n      jump\t// out\n        /* \"#utility.yul\":8361:8485   */\n    tag_159:\n        /* \"#utility.yul\":8438:8444   */\n      0x00\n        /* \"#utility.yul\":8472:8477   */\n      dup2\n        /* \"#utility.yul\":8466:8478   */\n      mload\n        /* \"#utility.yul\":8456:8478   */\n      swap1\n      pop\n        /* \"#utility.yul\":8361:8485   */\n      swap2\n      swap1\n      pop\n      jump\t// out\n        /* \"#utility.yul\":8491:8685   */\n    tag_160:\n        /* \"#utility.yul\":8600:8611   */\n      0x00\n        /* \"#utility.yul\":8634:8640   */\n      dup3\n        /* \"#utility.yul\":8629:8632   */\n      dup3\n        /* \"#utility.yul\":8622:8641   */\n      mstore\n        /* \"#utility.yul\":8674:8678   */\n      0x20\n        /* \"#utility.yul\":8669:8672   */\n      dup3\n        /* \"#utility.yul\":8665:8679   */\n      add\n        /* \"#utility.yul\":8650:8679   */\n      swap1\n      pop\n        /* \"#utility.yul\":8491:8685   */\n      swap3\n      swap2\n      pop\n      pop\n      jump\t// out\n        /* \"#utility.yul\":8691:8833   */\n    tag_161:\n        /* \"#utility.yul\":8768:8772   */\n      0x00\n        /* \"#utility.yul\":8791:8794   */\n      dup2\n        /* \"#utility.yul\":8783:8794   */\n      swap1\n      pop\n        /* \"#utility.yul\":8821:8825   */\n      0x20\n        /* \"#utility.yul\":8816:8819   */\n      dup3\n        /* \"#utility.yul\":8812:8826   */\n      add\n        /* \"#utility.yul\":8804:8826   */\n      swap1\n      pop\n        /* \"#utility.yul\":8691:8833   */\n      swap2\n      swap1\n      pop\n      jump\t// out\n        /* \"#utility.yul\":8839:8998   */\n    tag_162:\n        /* \"#utility.yul\":8913:8924   */\n      0x00\n        /* \"#utility.yul\":8947:8953   */\n      dup3\n        /* \"#utility.yul\":8942:8945   */\n      dup3\n        /* \"#utility.yul\":8935:8954   */\n      mstore\n        /* \"#utility.yul\":8987:8991   */\n      0x20\n        /* \"#utility.yul\":8982:8985   */\n      dup3\n        /* \"#utility.yul\":8978:8992   */\n      add\n        /* \"#utility.yul\":8963:8992   */\n      swap1\n      pop\n        /* \"#utility.yul\":8839:8998   */\n      swap3\n      swap2\n      pop\n      pop\n      jump\t// out\n        /* \"#utility.yul\":9004:9361   */\n    tag_163:\n        /* \"#utility.yul\":9082:9085   */\n      0x00\n        /* \"#utility.yul\":9110:9149   */\n      tag_290\n        /* \"#utility.yul\":9143:9148   */\n      dup3\n        /* \"#utility.yul\":9110:9149   */\n      tag_154\n      jump\t// in\n    tag_290:\n        /* \"#utility.yul\":9165:9226   */\n      tag_291\n        /* \"#utility.yul\":9219:9225   */\n      dup2\n        /* \"#utility.yul\":9214:9217   */\n      dup6\n        /* \"#utility.yul\":9165:9226   */\n      tag_162\n      jump\t// in\n    tag_291:\n        /* \"#utility.yul\":9158:9226   */\n      swap4\n      pop\n        /* \"#utility.yul\":9235:9300   */\n      tag_292\n        /* \"#utility.yul\":9293:9299   */\n      dup2\n        /* \"#utility.yul\":9288:9291   */\n      dup6\n        /* \"#utility.yul\":9281:9285   */\n      0x20\n        /* \"#utility.yul\":9274:9279   */\n      dup7\n        /* \"#utility.yul\":9270:9286   */\n      add\n        /* \"#utility.yul\":9235:9300   */\n      tag_156\n      jump\t// in\n    tag_292:\n        /* \"#utility.yul\":9325:9354   */\n      tag_293\n        /* \"#utility.yul\":9347:9353   */\n      dup2\n        /* \"#utility.yul\":9325:9354   */\n      tag_140\n      jump\t// in\n    tag_293:\n        /* \"#utility.yul\":9320:9323   */\n      dup5\n        /* \"#utility.yul\":9316:9355   */\n      add\n        /* \"#utility.yul\":9309:9355   */\n      swap2\n      pop\n        /* \"#utility.yul\":9086:9361   */\n      pop\n        /* \"#utility.yul\":9004:9361   */\n      swap3\n      swap2\n      pop\n      pop\n      jump\t// out\n        /* \"#utility.yul\":9367:9563   */\n    tag_164:\n        /* \"#utility.yul\":9456:9466   */\n      0x00\n        /* \"#utility.yul\":9491:9557   */\n      tag_295\n        /* \"#utility.yul\":9553:9556   */\n      dup4\n        /* \"#utility.yul\":9545:9551   */\n      dup4\n        /* \"#utility.yul\":9491:9557   */\n      tag_163\n      jump\t// in\n    tag_295:\n        /* \"#utility.yul\":9477:9557   */\n      swap1\n      pop\n        /* \"#utility.yul\":9367:9563   */\n      swap3\n      swap2\n      pop\n      pop\n      jump\t// out\n        /* \"#utility.yul\":9569:9692   */\n    tag_165:\n        /* \"#utility.yul\":9649:9653   */\n      0x00\n        /* \"#utility.yul\":9681:9685   */\n      0x20\n        /* \"#utility.yul\":9676:9679   */\n      dup3\n        /* \"#utility.yul\":9672:9686   */\n      add\n        /* \"#utility.yul\":9664:9686   */\n      swap1\n      pop\n        /* \"#utility.yul\":9569:9692   */\n      swap2\n      swap1\n      pop\n      jump\t// out\n        /* \"#utility.yul\":9726:10717   */\n    tag_166:\n        /* \"#utility.yul\":9865:9868   */\n      0x00\n        /* \"#utility.yul\":9894:9958   */\n      tag_298\n        /* \"#utility.yul\":9952:9957   */\n      dup3\n        /* \"#utility.yul\":9894:9958   */\n      tag_159\n      jump\t// in\n    tag_298:\n        /* \"#utility.yul\":9974:10070   */\n      tag_299\n        /* \"#utility.yul\":10063:10069   */\n      dup2\n        /* \"#utility.yul\":10058:10061   */\n      dup6\n        /* \"#utility.yul\":9974:10070   */\n      tag_160\n      jump\t// in\n    tag_299:\n        /* \"#utility.yul\":9967:10070   */\n      swap4\n      pop\n        /* \"#utility.yul\":10096:10099   */\n      dup4\n        /* \"#utility.yul\":10141:10145   */\n      0x20\n        /* \"#utility.yul\":10133:10139   */\n      dup3\n        /* \"#utility.yul\":10129:10146   */\n      mul\n        /* \"#utility.yul\":10124:10127   */\n      dup6\n        /* \"#utility.yul\":10120:10147   */\n      add\n        /* \"#utility.yul\":10171:10237   */\n      tag_300\n        /* \"#utility.yul\":10231:10236   */\n      dup6\n        /* \"#utility.yul\":10171:10237   */\n      tag_161\n      jump\t// in\n    tag_300:\n        /* \"#utility.yul\":10260:10267   */\n      dup1\n        /* \"#utility.yul\":10291:10292   */\n      0x00\n        /* \"#utility.yul\":10276:10672   */\n    tag_301:\n        /* \"#utility.yul\":10301:10307   */\n      dup6\n        /* \"#utility.yul\":10298:10299   */\n      dup2\n        /* \"#utility.yul\":10295:10308   */\n      lt\n        /* \"#utility.yul\":10276:10672   */\n      iszero\n      tag_303\n      jumpi\n        /* \"#utility.yul\":10372:10381   */\n      dup5\n        /* \"#utility.yul\":10366:10370   */\n      dup5\n        /* \"#utility.yul\":10362:10382   */\n      sub\n        /* \"#utility.yul\":10357:10360   */\n      dup10\n        /* \"#utility.yul\":10350:10383   */\n      mstore\n        /* \"#utility.yul\":10423:10429   */\n      dup2\n        /* \"#utility.yul\":10417:10430   */\n      mload\n        /* \"#utility.yul\":10451:10535   */\n      tag_304\n        /* \"#utility.yul\":10530:10534   */\n      dup6\n        /* \"#utility.yul\":10515:10528   */\n      dup3\n        /* \"#utility.yul\":10451:10535   */\n      tag_164\n      jump\t// in\n    tag_304:\n        /* \"#utility.yul\":10443:10535   */\n      swap5\n      pop\n        /* \"#utility.yul\":10558:10628   */\n      tag_305\n        /* \"#utility.yul\":10621:10627   */\n      dup4\n        /* \"#utility.yul\":10558:10628   */\n      tag_165\n      jump\t// in\n    tag_305:\n        /* \"#utility.yul\":10548:10628   */\n      swap3\n      pop\n        /* \"#utility.yul\":10657:10661   */\n      0x20\n        /* \"#utility.yul\":10652:10655   */\n      dup11\n        /* \"#utility.yul\":10648:10662   */\n      add\n        /* \"#utility.yul\":10641:10662   */\n      swap10\n      pop\n        /* \"#utility.yul\":10336:10672   */\n      pop\n        /* \"#utility.yul\":10323:10324   */\n      0x01\n        /* \"#utility.yul\":10320:10321   */\n      dup2\n        /* \"#utility.yul\":10316:10325   */\n      add\n        /* \"#utility.yul\":10311:10325   */\n      swap1\n      pop\n        /* \"#utility.yul\":10276:10672   */\n      jump(tag_301)\n    tag_303:\n        /* \"#utility.yul\":10280:10294   */\n      pop\n        /* \"#utility.yul\":10688:10692   */\n      dup3\n        /* \"#utility.yul\":10681:10692   */\n      swap8\n      pop\n        /* \"#utility.yul\":10708:10711   */\n      dup8\n        /* \"#utility.yul\":10701:10711   */\n      swap6\n      pop\n        /* \"#utility.yul\":9870:10717   */\n      pop\n      pop\n      pop\n      pop\n      pop\n        /* \"#utility.yul\":9726:10717   */\n      swap3\n      swap2\n      pop\n      pop\n      jump\t// out\n        /* \"#utility.yul\":10723:11136   */\n    tag_60:\n        /* \"#utility.yul\":10886:10890   */\n      0x00\n        /* \"#utility.yul\":10924:10926   */\n      0x20\n        /* \"#utility.yul\":10913:10922   */\n      dup3\n        /* \"#utility.yul\":10909:10927   */\n      add\n        /* \"#utility.yul\":10901:10927   */\n      swap1\n      pop\n        /* \"#utility.yul\":10973:10982   */\n      dup2\n        /* \"#utility.yul\":10967:10971   */\n      dup2\n        /* \"#utility.yul\":10963:10983   */\n      sub\n        /* \"#utility.yul\":10959:10960   */\n      0x00\n        /* \"#utility.yul\":10948:10957   */\n      dup4\n        /* \"#utility.yul\":10944:10961   */\n      add\n        /* \"#utility.yul\":10937:10984   */\n      mstore\n        /* \"#utility.yul\":11001:11129   */\n      tag_307\n        /* \"#utility.yul\":11124:11128   */\n      dup2\n        /* \"#utility.yul\":11115:11121   */\n      dup5\n        /* \"#utility.yul\":11001:11129   */\n      tag_166\n      jump\t// in\n    tag_307:\n        /* \"#utility.yul\":10993:11129   */\n      swap1\n      pop\n        /* \"#utility.yul\":10723:11136   */\n      swap3\n      swap2\n      pop\n      pop\n      jump\t// out\n        /* \"#utility.yul\":11142:11322   */\n    tag_167:\n        /* \"#utility.yul\":11190:11267   */\n      0x4e487b7100000000000000000000000000000000000000000000000000000000\n        /* \"#utility.yul\":11187:11188   */\n      0x00\n        /* \"#utility.yul\":11180:11268   */\n      mstore\n        /* \"#utility.yul\":11287:11291   */\n      0x22\n        /* \"#utility.yul\":11284:11285   */\n      0x04\n        /* \"#utility.yul\":11277:11292   */\n      mstore\n        /* \"#utility.yul\":11311:11315   */\n      0x24\n        /* \"#utility.yul\":11308:11309   */\n      0x00\n        /* \"#utility.yul\":11301:11316   */\n      revert\n        /* \"#utility.yul\":11328:11648   */\n    tag_95:\n        /* \"#utility.yul\":11372:11378   */\n      0x00\n        /* \"#utility.yul\":11409:11410   */\n      0x02\n        /* \"#utility.yul\":11403:11407   */\n      dup3\n        /* \"#utility.yul\":11399:11411   */\n      div\n        /* \"#utility.yul\":11389:11411   */\n      swap1\n      pop\n        /* \"#utility.yul\":11456:11457   */\n      0x01\n        /* \"#utility.yul\":11450:11454   */\n      dup3\n        /* \"#utility.yul\":11446:11458   */\n      and\n        /* \"#utility.yul\":11477:11495   */\n      dup1\n        /* \"#utility.yul\":11467:11548   */\n      tag_310\n      jumpi\n        /* \"#utility.yul\":11533:11537   */\n      0x7f\n        /* \"#utility.yul\":11525:11531   */\n      dup3\n        /* \"#utility.yul\":11521:11538   */\n      and\n        /* \"#utility.yul\":11511:11538   */\n      swap2\n      pop\n        /* \"#utility.yul\":11467:11548   */\n    tag_310:\n        /* \"#utility.yul\":11595:11597   */\n      0x20\n        /* \"#utility.yul\":11587:11593   */\n      dup3\n        /* \"#utility.yul\":11584:11598   */\n      lt\n        /* \"#utility.yul\":11564:11582   */\n      dup2\n        /* \"#utility.yul\":11561:11599   */\n      sub\n        /* \"#utility.yul\":11558:11642   */\n      tag_311\n      jumpi\n        /* \"#utility.yul\":11614:11632   */\n      tag_312\n      tag_167\n      jump\t// in\n    tag_312:\n        /* \"#utility.yul\":11558:11642   */\n    tag_311:\n        /* \"#utility.yul\":11379:11648   */\n      pop\n        /* \"#utility.yul\":11328:11648   */\n      swap2\n      swap1\n      pop\n      jump\t// out\n        /* \"#utility.yul\":11654:11795   */\n    tag_168:\n        /* \"#utility.yul\":11703:11707   */\n      0x00\n        /* \"#utility.yul\":11726:11729   */\n      dup2\n        /* \"#utility.yul\":11718:11729   */\n      swap1\n      pop\n        /* \"#utility.yul\":11749:11752   */\n      dup2\n        /* \"#utility.yul\":11746:11747   */\n      0x00\n        /* \"#utility.yul\":11739:11753   */\n      mstore\n        /* \"#utility.yul\":11783:11787   */\n      0x20\n        /* \"#utility.yul\":11780:11781   */\n      0x00\n        /* \"#utility.yul\":11770:11788   */\n      keccak256\n        /* \"#utility.yul\":11762:11788   */\n      swap1\n      pop\n        /* \"#utility.yul\":11654:11795   */\n      swap2\n      swap1\n      pop\n      jump\t// out\n        /* \"#utility.yul\":11801:11894   */\n    tag_169:\n        /* \"#utility.yul\":11838:11844   */\n      0x00\n        /* \"#utility.yul\":11885:11887   */\n      0x20\n        /* \"#utility.yul\":11880:11882   */\n      0x1f\n        /* \"#utility.yul\":11873:11878   */\n      dup4\n        /* \"#utility.yul\":11869:11883   */\n      add\n        /* \"#utility.yul\":11865:11888   */\n      div\n        /* \"#utility.yul\":11855:11888   */\n      swap1\n      pop\n        /* \"#utility.yul\":11801:11894   */\n      swap2\n      swap1\n      pop\n      jump\t// out\n        /* \"#utility.yul\":11900:12007   */\n    tag_170:\n        /* \"#utility.yul\":11944:11952   */\n      0x00\n        /* \"#utility.yul\":11994:11999   */\n      dup3\n        /* \"#utility.yul\":11988:11992   */\n      dup3\n        /* \"#utility.yul\":11984:12000   */\n      shl\n        /* \"#utility.yul\":11963:12000   */\n      swap1\n      pop\n        /* \"#utility.yul\":11900:12007   */\n      swap3\n      swap2\n      pop\n      pop\n      jump\t// out\n        /* \"#utility.yul\":12013:12406   */\n    tag_171:\n        /* \"#utility.yul\":12082:12088   */\n      0x00\n        /* \"#utility.yul\":12132:12133   */\n      0x08\n        /* \"#utility.yul\":12120:12130   */\n      dup4\n        /* \"#utility.yul\":12116:12134   */\n      mul\n        /* \"#utility.yul\":12155:12252   */\n      tag_317\n        /* \"#utility.yul\":12185:12251   */\n      0xffffffffffffffffffffffffffffffffffffffffffffffffffffffffffffffff\n        /* \"#utility.yul\":12174:12183   */\n      dup3\n        /* \"#utility.yul\":12155:12252   */\n      tag_170\n      jump\t// in\n    tag_317:\n        /* \"#utility.yul\":12273:12312   */\n      tag_318\n        /* \"#utility.yul\":12303:12311   */\n      dup7\n        /* \"#utility.yul\":12292:12301   */\n      dup4\n        /* \"#utility.yul\":12273:12312   */\n      tag_170\n      jump\t// in\n    tag_318:\n        /* \"#utility.yul\":12261:12312   */\n      swap6\n      pop\n        /* \"#utility.yul\":12345:12349   */\n      dup1\n        /* \"#utility.yul\":12341:12350   */\n      not\n        /* \"#utility.yul\":12334:12339   */\n      dup5\n        /* \"#utility.yul\":12330:12351   */\n      and\n        /* \"#utility.yul\":12321:12351   */\n      swap4\n      pop\n        /* \"#utility.yul\":12394:12398   */\n      dup1\n        /* \"#utility.yul\":12384:12392   */\n      dup7\n        /* \"#utility.yul\":12380:12399   */\n      and\n        /* \"#utility.yul\":12373:12378   */\n      dup5\n        /* \"#utility.yul\":12370:12400   */\n      or\n        /* \"#utility.yul\":12360:12400   */\n      swap3\n      pop\n        /* \"#utility.yul\":12089:12406   */\n      pop\n      pop\n        /* \"#utility.yul\":12013:12406   */\n      swap4\n      swap3\n      pop\n      pop\n      pop\n      jump\t// out\n        /* \"#utility.yul\":12412:12472   */\n    tag_172:\n        /* \"#utility.yul\":12440:12443   */\n      0x00\n        /* \"#utility.yul\":12461:12466   */\n      dup2\n        /* \"#utility.yul\":12454:12466   */\n      swap1\n      pop\n        /* \"#utility.yul\":12412:12472   */\n      swap2\n      swap1\n      pop\n      jump\t// out\n        /* \"#utility.yul\":12478:12620   */\n    tag_173:\n        /* \"#utility.yul\":12528:12537   */\n      0x00\n        /* \"#utility.yul\":12561:12614   */\n      tag_321\n        /* \"#utility.yul\":12579:12613   */\n      tag_322\n        /* \"#utility.yul\":12588:12612   */\n      tag_323\n        /* \"#utility.yul\":12606:12611   */\n      dup5\n        /* \"#utility.yul\":12588:12612   */\n      tag_148\n      jump\t// in\n    tag_323:\n        /* \"#utility.yul\":12579:12613   */\n      tag_172\n      jump\t// in\n    tag_322:\n        /* \"#utility.yul\":12561:12614   */\n      tag_148\n      jump\t// in\n    tag_321:\n        /* \"#utility.yul\":12548:12614   */\n      swap1\n      pop\n        /* \"#utility.yul\":12478:12620   */\n      swap2\n      swap1\n      pop\n      jump\t// out\n        /* \"#utility.yul\":12626:12701   */\n    tag_174:\n        /* \"#utility.yul\":12669:12672   */\n      0x00\n        /* \"#utility.yul\":12690:12695   */\n      dup2\n        /* \"#utility.yul\":12683:12695   */\n      swap1\n      pop\n        /* \"#utility.yul\":12626:12701   */\n      swap2\n      swap1\n      pop\n      jump\t// out\n        /* \"#utility.yul\":12707:12976   */\n    tag_175:\n        /* \"#utility.yul\":12817:12856   */\n      tag_326\n        /* \"#utility.yul\":12848:12855   */\n      dup4\n        /* \"#utility.yul\":12817:12856   */\n      tag_173\n      jump\t// in\n    tag_326:\n        /* \"#utility.yul\":12878:12969   */\n      tag_327\n        /* \"#utility.yul\":12927:12968   */\n      tag_328\n        /* \"#utility.yul\":12951:12967   */\n      dup3\n        /* \"#utility.yul\":12927:12968   */\n      tag_174\n      jump\t// in\n    tag_328:\n        /* \"#utility.yul\":12919:12925   */\n      dup5\n        /* \"#utility.yul\":12912:12916   */\n      dup5\n        /* \"#utility.yul\":12906:12917   */\n      sload\n        /* \"#utility.yul\":12878:12969   */\n      tag_171\n      jump\t// in\n    tag_327:\n        /* \"#utility.yul\":12872:12876   */\n      dup3\n        /* \"#utility.yul\":12865:12970   */\n      sstore\n        /* \"#utility.yul\":12783:12976   */\n      pop\n        /* \"#utility.yul\":12707:12976   */\n      pop\n      pop\n      pop\n      jump\t// out\n        /* \"#utility.yul\":12982:13055   */\n    tag_176:\n        /* \"#utility.yul\":13027:13030   */\n      0x00\n        /* \"#utility.yul\":12982:13055   */\n      swap1\n      jump\t// out\n        /* \"#utility.yul\":13061:13250   */\n    tag_177:\n        /* \"#utility.yul\":13138:13170   */\n      tag_331\n      tag_176\n      jump\t// in\n    tag_331:\n        /* \"#utility.yul\":13179:13244   */\n      tag_332\n        /* \"#utility.yul\":13237:13243   */\n      dup2\n        /* \"#utility.yul\":13229:13235   */\n      dup5\n        /* \"#utility.yul\":13223:13227   */\n      dup5\n        /* \"#utility.yul\":13179:13244   */\n      tag_175\n      jump\t// in\n    tag_332:\n        /* \"#utility.yul\":13114:13250   */\n      pop\n        /* \"#utility.yul\":13061:13250   */\n      pop\n      pop\n      jump\t// out\n        /* \"#utility.yul\":13256:13442   */\n    tag_178:\n        /* \"#utility.yul\":13316:13436   */\n    tag_334:\n        /* \"#utility.yul\":13333:13336   */\n      dup2\n        /* \"#utility.yul\":13326:13331   */\n      dup2\n        /* \"#utility.yul\":13323:13337   */\n      lt\n        /* \"#utility.yul\":13316:13436   */\n      iszero\n      tag_336\n      jumpi\n        /* \"#utility.yul\":13387:13426   */\n      tag_337\n        /* \"#utility.yul\":13424:13425   */\n      0x00\n        /* \"#utility.yul\":13417:13422   */\n      dup3\n        /* \"#utility.yul\":13387:13426   */\n      tag_177\n      jump\t// in\n    tag_337:\n        /* \"#utility.yul\":13360:13361   */\n      0x01\n        /* \"#utility.yul\":13353:13358   */\n      dup2\n        /* \"#utility.yul\":13349:13362   */\n      add\n        /* \"#utility.yul\":13340:13362   */\n      swap1\n      pop\n        /* \"#utility.yul\":13316:13436   */\n      jump(tag_334)\n    tag_336:\n        /* \"#utility.yul\":13256:13442   */\n      pop\n      pop\n      jump\t// out\n        /* \"#utility.yul\":13448:13991   */\n    tag_179:\n        /* \"#utility.yul\":13549:13551   */\n      0x1f\n        /* \"#utility.yul\":13544:13547   */\n      dup3\n        /* \"#utility.yul\":13541:13552   */\n      gt\n        /* \"#utility.yul\":13538:13984   */\n      iszero\n      tag_339\n      jumpi\n        /* \"#utility.yul\":13583:13621   */\n      tag_340\n        /* \"#utility.yul\":13615:13620   */\n      dup2\n        /* \"#utility.yul\":13583:13621   */\n      tag_168\n      jump\t// in\n    tag_340:\n        /* \"#utility.yul\":13667:13696   */\n      tag_341\n        /* \"#utility.yul\":13685:13695   */\n      dup5\n        /* \"#utility.yul\":13667:13696   */\n      tag_169\n      jump\t// in\n    tag_341:\n        /* \"#utility.yul\":13657:13665   */\n      dup2\n        /* \"#utility.yul\":13653:13697   */\n      add\n        /* \"#utility.yul\":13850:13852   */\n      0x20\n        /* \"#utility.yul\":13838:13848   */\n      dup6\n        /* \"#utility.yul\":13835:13853   */\n      lt\n        /* \"#utility.yul\":13832:13881   */\n      iszero\n      tag_342\n      jumpi\n        /* \"#utility.yul\":13871:13879   */\n      dup2\n        /* \"#utility.yul\":13856:13879   */\n      swap1\n      pop\n        /* \"#utility.yul\":13832:13881   */\n    tag_342:\n        /* \"#utility.yul\":13894:13974   */\n      tag_343\n        /* \"#utility.yul\":13950:13972   */\n      tag_344\n        /* \"#utility.yul\":13968:13971   */\n      dup6\n        /* \"#utility.yul\":13950:13972   */\n      tag_169\n      jump\t// in\n    tag_344:\n        /* \"#utility.yul\":13940:13948   */\n      dup4\n        /* \"#utility.yul\":13936:13973   */\n      add\n        /* \"#utility.yul\":13923:13934   */\n      dup3\n        /* \"#utility.yul\":13894:13974   */\n      tag_178\n      jump\t// in\n    tag_343:\n        /* \"#utility.yul\":13553:13984   */\n      pop\n      pop\n        /* \"#utility.yul\":13538:13984   */\n    tag_339:\n        /* \"#utility.yul\":13448:13991   */\n      pop\n      pop\n      pop\n      jump\t// out\n        /* \"#utility.yul\":13997:14114   */\n    tag_180:\n        /* \"#utility.yul\":14051:14059   */\n      0x00\n        /* \"#utility.yul\":14101:14106   */\n      dup3\n        /* \"#utility.yul\":14095:14099   */\n      dup3\n        /* \"#utility.yul\":14091:14107   */\n      shr\n        /* \"#utility.yul\":14070:14107   */\n      swap1\n      pop\n        /* \"#utility.yul\":13997:14114   */\n      swap3\n      swap2\n      pop\n      pop\n      jump\t// out\n        /* \"#utility.yul\":14120:14289   */\n    tag_181:\n        /* \"#utility.yul\":14164:14170   */\n      0x00\n        /* \"#utility.yul\":14197:14248   */\n      tag_347\n        /* \"#utility.yul\":14245:14246   */\n      0x00\n        /* \"#utility.yul\":14241:14247   */\n      not\n        /* \"#utility.yul\":14233:14238   */\n      dup5\n        /* \"#utility.yul\":14230:14231   */\n      0x08\n        /* \"#utility.yul\":14226:14239   */\n      mul\n        /* \"#utility.yul\":14197:14248   */\n      tag_180\n      jump\t// in\n    tag_347:\n        /* \"#utility.yul\":14193:14249   */\n      not\n        /* \"#utility.yul\":14278:14282   */\n      dup1\n        /* \"#utility.yul\":14272:14276   */\n      dup4\n        /* \"#utility.yul\":14268:14283   */\n      and\n        /* \"#utility.yul\":14258:14283   */\n      swap2\n      pop\n        /* \"#utility.yul\":14171:14289   */\n      pop\n        /* \"#utility.yul\":14120:14289   */\n      swap3\n      swap2\n      pop\n      pop\n      jump\t// out\n        /* \"#utility.yul\":14294:14589   */\n    tag_182:\n        /* \"#utility.yul\":14370:14374   */\n      0x00\n        /* \"#utility.yul\":14516:14545   */\n      tag_349\n        /* \"#utility.yul\":14541:14544   */\n      dup4\n        /* \"#utility.yul\":14535:14539   */\n      dup4\n        /* \"#utility.yul\":14516:14545   */\n      tag_181\n      jump\t// in\n    tag_349:\n        /* \"#utility.yul\":14508:14545   */\n      swap2\n      pop\n        /* \"#utility.yul\":14578:14581   */\n      dup3\n        /* \"#utility.yul\":14575:14576   */\n      0x02\n        /* \"#utility.yul\":14571:14582   */\n      mul\n        /* \"#utility.yul\":14565:14569   */\n      dup3\n        /* \"#utility.yul\":14562:14583   */\n      or\n        /* \"#utility.yul\":14554:14583   */\n      swap1\n      pop\n        /* \"#utility.yul\":14294:14589   */\n      swap3\n      swap2\n      pop\n      pop\n      jump\t// out\n        /* \"#utility.yul\":14594:15989   */\n    tag_67:\n        /* \"#utility.yul\":14711:14748   */\n      tag_351\n        /* \"#utility.yul\":14744:14747   */\n      dup3\n        /* \"#utility.yul\":14711:14748   */\n      tag_154\n      jump\t// in\n    tag_351:\n        /* \"#utility.yul\":14813:14831   */\n      0xffffffffffffffff\n        /* \"#utility.yul\":14805:14811   */\n      dup2\n        /* \"#utility.yul\":14802:14832   */\n      gt\n        /* \"#utility.yul\":14799:14855   */\n      iszero\n      tag_352\n      jumpi\n        /* \"#utility.yul\":14835:14853   */\n      tag_353\n      tag_141\n      jump\t// in\n    tag_353:\n        /* \"#utility.yul\":14799:14855   */\n    tag_352:\n        /* \"#utility.yul\":14879:14917   */\n      tag_354\n        /* \"#utility.yul\":14911:14915   */\n      dup3\n        /* \"#utility.yul\":14905:14916   */\n      sload\n        /* \"#utility.yul\":14879:14917   */\n      tag_95\n      jump\t// in\n    tag_354:\n        /* \"#utility.yul\":14964:15031   */\n      tag_355\n        /* \"#utility.yul\":15024:15030   */\n      dup3\n        /* \"#utility.yul\":15016:15022   */\n      dup3\n        /* \"#utility.yul\":15010:15014   */\n      dup6\n        /* \"#utility.yul\":14964:15031   */\n      tag_179\n      jump\t// in\n    tag_355:\n        /* \"#utility.yul\":15058:15059   */\n      0x00\n        /* \"#utility.yul\":15082:15086   */\n      0x20\n        /* \"#utility.yul\":15069:15086   */\n      swap1\n      pop\n        /* \"#utility.yul\":15114:15116   */\n      0x1f\n        /* \"#utility.yul\":15106:15112   */\n      dup4\n        /* \"#utility.yul\":15103:15117   */\n      gt\n        /* \"#utility.yul\":15131:15132   */\n      0x01\n        /* \"#utility.yul\":15126:15744   */\n      dup2\n      eq\n      tag_357\n      jumpi\n        /* \"#utility.yul\":15788:15789   */\n      0x00\n        /* \"#utility.yul\":15805:15811   */\n      dup5\n        /* \"#utility.yul\":15802:15879   */\n      iszero\n      tag_358\n      jumpi\n        /* \"#utility.yul\":15854:15863   */\n      dup3\n        /* \"#utility.yul\":15849:15852   */\n      dup8\n        /* \"#utility.yul\":15845:15864   */\n      add\n        /* \"#utility.yul\":15839:15865   */\n      mload\n        /* \"#utility.yul\":15830:15865   */\n      swap1\n      pop\n        /* \"#utility.yul\":15802:15879   */\n    tag_358:\n        /* \"#utility.yul\":15905:15972   */\n      tag_359\n        /* \"#utility.yul\":15965:15971   */\n      dup6\n        /* \"#utility.yul\":15958:15963   */\n      dup3\n        /* \"#utility.yul\":15905:15972   */\n      tag_182\n      jump\t// in\n    tag_359:\n        /* \"#utility.yul\":15899:15903   */\n      dup7\n        /* \"#utility.yul\":15892:15973   */\n      sstore\n        /* \"#utility.yul\":15761:15983   */\n      pop\n        /* \"#utility.yul\":15096:15983   */\n      jump(tag_356)\n        /* \"#utility.yul\":15126:15744   */\n    tag_357:\n        /* \"#utility.yul\":15178:15182   */\n      0x1f\n        /* \"#utility.yul\":15174:15183   */\n      not\n        /* \"#utility.yul\":15166:15172   */\n      dup5\n        /* \"#utility.yul\":15162:15184   */\n      and\n        /* \"#utility.yul\":15212:15249   */\n      tag_360\n        /* \"#utility.yul\":15244:15248   */\n      dup7\n        /* \"#utility.yul\":15212:15249   */\n      tag_168\n      jump\t// in\n    tag_360:\n        /* \"#utility.yul\":15271:15272   */\n      0x00\n        /* \"#utility.yul\":15285:15493   */\n    tag_361:\n        /* \"#utility.yul\":15299:15306   */\n      dup3\n        /* \"#utility.yul\":15296:15297   */\n      dup2\n        /* \"#utility.yul\":15293:15307   */\n      lt\n        /* \"#utility.yul\":15285:15493   */\n      iszero\n      tag_363\n      jumpi\n        /* \"#utility.yul\":15378:15387   */\n      dup5\n        /* \"#utility.yul\":15373:15376   */\n      dup10\n        /* \"#utility.yul\":15369:15388   */\n      add\n        /* \"#utility.yul\":15363:15389   */\n      mload\n        /* \"#utility.yul\":15355:15361   */\n      dup3\n        /* \"#utility.yul\":15348:15390   */\n      sstore\n        /* \"#utility.yul\":15429:15430   */\n      0x01\n        /* \"#utility.yul\":15421:15427   */\n      dup3\n        /* \"#utility.yul\":15417:15431   */\n      add\n        /* \"#utility.yul\":15407:15431   */\n      swap2\n      pop\n        /* \"#utility.yul\":15476:15478   */\n      0x20\n        /* \"#utility.yul\":15465:15474   */\n      dup6\n        /* \"#utility.yul\":15461:15479   */\n      add\n        /* \"#utility.yul\":15448:15479   */\n      swap5\n      pop\n        /* \"#utility.yul\":15322:15326   */\n      0x20\n        /* \"#utility.yul\":15319:15320   */\n      dup2\n        /* \"#utility.yul\":15315:15327   */\n      add\n        /* \"#utility.yul\":15310:15327   */\n      swap1\n      pop\n        /* \"#utility.yul\":15285:15493   */\n      jump(tag_361)\n    tag_363:\n        /* \"#utility.yul\":15521:15527   */\n      dup7\n        /* \"#utility.yul\":15512:15519   */\n      dup4\n        /* \"#utility.yul\":15509:15528   */\n      lt\n        /* \"#utility.yul\":15506:15685   */\n      iszero\n      tag_364\n      jumpi\n        /* \"#utility.yul\":15579:15588   */\n      dup5\n        /* \"#utility.yul\":15574:15577   */\n      dup10\n        /* \"#utility.yul\":15570:15589   */\n      add\n        /* \"#utility.yul\":15564:15590   */\n      mload\n        /* \"#utility.yul\":15622:15670   */\n      tag_365\n        /* \"#utility.yul\":15664:15668   */\n      0x1f\n        /* \"#utility.yul\":15656:15662   */\n      dup10\n        /* \"#utility.yul\":15652:15669   */\n      and\n        /* \"#utility.yul\":15641:15650   */\n      dup3\n        /* \"#utility.yul\":15622:15670   */\n      tag_181\n      jump\t// in\n    tag_365:\n        /* \"#utility.yul\":15614:15620   */\n      dup4\n        /* \"#utility.yul\":15607:15671   */\n      sstore\n        /* \"#utility.yul\":15529:15685   */\n      pop\n        /* \"#utility.yul\":15506:15685   */\n    tag_364:\n        /* \"#utility.yul\":15731:15732   */\n      0x01\n        /* \"#utility.yul\":15727:15728   */\n      0x02\n        /* \"#utility.yul\":15719:15725   */\n      dup9\n        /* \"#utility.yul\":15715:15729   */\n      mul\n        /* \"#utility.yul\":15711:15733   */\n      add\n        /* \"#utility.yul\":15705:15709   */\n      dup9\n        /* \"#utility.yul\":15698:15734   */\n      sstore\n        /* \"#utility.yul\":15133:15744   */\n      pop\n      pop\n      pop\n        /* \"#utility.yul\":15096:15983   */\n    tag_356:\n      pop\n        /* \"#utility.yul\":14686:15989   */\n      pop\n      pop\n      pop\n        /* \"#utility.yul\":14594:15989   */\n      pop\n      pop\n      jump\t// out\n        /* \"#utility.yul\":15995:16175   */\n    tag_183:\n        /* \"#utility.yul\":16043:16120   */\n      0x4e487b7100000000000000000000000000000000000000000000000000000000\n        /* \"#utility.yul\":16040:16041   */\n      0x00\n        /* \"#utility.yul\":16033:16121   */\n      mstore\n        /* \"#utility.yul\":16140:16144   */\n      0x11\n        /* \"#utility.yul\":16137:16138   */\n      0x04\n        /* \"#utility.yul\":16130:16145   */\n      mstore\n        /* \"#utility.yul\":16164:16168   */\n      0x24\n        /* \"#utility.yul\":16161:16162   */\n      0x00\n        /* \"#utility.yul\":16154:16169   */\n      revert\n        /* \"#utility.yul\":16181:16414   */\n    tag_69:\n        /* \"#utility.yul\":16220:16223   */\n      0x00\n        /* \"#utility.yul\":16243:16267   */\n      tag_368\n        /* \"#utility.yul\":16261:16266   */\n      dup3\n        /* \"#utility.yul\":16243:16267   */\n      tag_148\n      jump\t// in\n    tag_368:\n        /* \"#utility.yul\":16234:16267   */\n      swap2\n      pop\n        /* \"#utility.yul\":16289:16355   */\n      0xffffffffffffffffffffffffffffffffffffffffffffffffffffffffffffffff\n        /* \"#utility.yul\":16282:16287   */\n      dup3\n        /* \"#utility.yul\":16279:16356   */\n      sub\n        /* \"#utility.yul\":16276:16379   */\n      tag_369\n      jumpi\n        /* \"#utility.yul\":16359:16377   */\n      tag_370\n      tag_183\n      jump\t// in\n    tag_370:\n        /* \"#utility.yul\":16276:16379   */\n    tag_369:\n        /* \"#utility.yul\":16406:16407   */\n      0x01\n        /* \"#utility.yul\":16399:16404   */\n      dup3\n        /* \"#utility.yul\":16395:16408   */\n      add\n        /* \"#utility.yul\":16388:16408   */\n      swap1\n      pop\n        /* \"#utility.yul\":16181:16414   */\n      swap2\n      swap1\n      pop\n      jump\t// out\n        /* \"#utility.yul\":16420:16600   */\n    tag_77:\n        /* \"#utility.yul\":16468:16545   */\n      0x4e487b7100000000000000000000000000000000000000000000000000000000\n        /* \"#utility.yul\":16465:16466   */\n      0x00\n        /* \"#utility.yul\":16458:16546   */\n      mstore\n        /* \"#utility.yul\":16565:16569   */\n      0x32\n        /* \"#utility.yul\":16562:16563   */\n      0x04\n        /* \"#utility.yul\":16555:16570   */\n      mstore\n        /* \"#utility.yul\":16589:16593   */\n      0x24\n        /* \"#utility.yul\":16586:16587   */\n      0x00\n        /* \"#utility.yul\":16579:16594   */\n      revert\n        /* \"#utility.yul\":16606:17029   */\n    tag_82:\n        /* \"#utility.yul\":16747:16751   */\n      0x00\n        /* \"#utility.yul\":16785:16787   */\n      0x40\n        /* \"#utility.yul\":16774:16783   */\n      dup3\n        /* \"#utility.yul\":16770:16788   */\n      add\n        /* \"#utility.yul\":16762:16788   */\n      swap1\n      pop\n        /* \"#utility.yul\":16798:16869   */\n      tag_373\n        /* \"#utility.yul\":16866:16867   */\n      0x00\n        /* \"#utility.yul\":16855:16864   */\n      dup4\n        /* \"#utility.yul\":16851:16868   */\n      add\n        /* \"#utility.yul\":16842:16848   */\n      dup6\n        /* \"#utility.yul\":16798:16869   */\n      tag_149\n      jump\t// in\n    tag_373:\n        /* \"#utility.yul\":16916:16925   */\n      dup2\n        /* \"#utility.yul\":16910:16914   */\n      dup2\n        /* \"#utility.yul\":16906:16926   */\n      sub\n        /* \"#utility.yul\":16901:16903   */\n      0x20\n        /* \"#utility.yul\":16890:16899   */\n      dup4\n        /* \"#utility.yul\":16886:16904   */\n      add\n        /* \"#utility.yul\":16879:16927   */\n      mstore\n        /* \"#utility.yul\":16944:17022   */\n      tag_374\n        /* \"#utility.yul\":17017:17021   */\n      dup2\n        /* \"#utility.yul\":17008:17014   */\n      dup5\n        /* \"#utility.yul\":16944:17022   */\n      tag_157\n      jump\t// in\n    tag_374:\n        /* \"#utility.yul\":16936:17022   */\n      swap1\n      pop\n        /* \"#utility.yul\":16606:17029   */\n      swap4\n      swap3\n      pop\n      pop\n      pop\n      jump\t// out\n        /* \"#utility.yul\":17035:17367   */\n    tag_86:\n        /* \"#utility.yul\":17156:17160   */\n      0x00\n        /* \"#utility.yul\":17194:17196   */\n      0x40\n        /* \"#utility.yul\":17183:17192   */\n      dup3\n        /* \"#utility.yul\":17179:17197   */\n      add\n        /* \"#utility.yul\":17171:17197   */\n      swap1\n      pop\n        /* \"#utility.yul\":17207:17278   */\n      tag_376\n        /* \"#utility.yul\":17275:17276   */\n      0x00\n        /* \"#utility.yul\":17264:17273   */\n      dup4\n        /* \"#utility.yul\":17260:17277   */\n      add\n        /* \"#utility.yul\":17251:17257   */\n      dup6\n        /* \"#utility.yul\":17207:17278   */\n      tag_158\n      jump\t// in\n    tag_376:\n        /* \"#utility.yul\":17288:17360   */\n      tag_377\n        /* \"#utility.yul\":17356:17358   */\n      0x20\n        /* \"#utility.yul\":17345:17354   */\n      dup4\n        /* \"#utility.yul\":17341:17359   */\n      add\n        /* \"#utility.yul\":17332:17338   */\n      dup5\n        /* \"#utility.yul\":17288:17360   */\n      tag_158\n      jump\t// in\n    tag_377:\n        /* \"#utility.yul\":17035:17367   */\n      swap4\n      swap3\n      pop\n      pop\n      pop\n      jump\t// out\n        /* \"#utility.yul\":17373:17567   */\n    tag_90:\n        /* \"#utility.yul\":17413:17417   */\n      0x00\n        /* \"#utility.yul\":17433:17453   */\n      tag_379\n        /* \"#utility.yul\":17451:17452   */\n      dup3\n        /* \"#utility.yul\":17433:17453   */\n      tag_148\n      jump\t// in\n    tag_379:\n        /* \"#utility.yul\":17428:17453   */\n      swap2\n      pop\n        /* \"#utility.yul\":17467:17487   */\n      tag_380\n        /* \"#utility.yul\":17485:17486   */\n      dup4\n        /* \"#utility.yul\":17467:17487   */\n      tag_148\n      jump\t// in\n    tag_380:\n        /* \"#utility.yul\":17462:17487   */\n      swap3\n      pop\n        /* \"#utility.yul\":17511:17512   */\n      dup3\n        /* \"#utility.yul\":17508:17509   */\n      dup3\n        /* \"#utility.yul\":17504:17513   */\n      sub\n        /* \"#utility.yul\":17496:17513   */\n      swap1\n      pop\n        /* \"#utility.yul\":17535:17536   */\n      dup2\n        /* \"#utility.yul\":17529:17533   */\n      dup2\n        /* \"#utility.yul\":17526:17537   */\n      gt\n        /* \"#utility.yul\":17523:17560   */\n      iszero\n      tag_381\n      jumpi\n        /* \"#utility.yul\":17540:17558   */\n      tag_382\n      tag_183\n      jump\t// in\n    tag_382:\n        /* \"#utility.yul\":17523:17560   */\n    tag_381:\n        /* \"#utility.yul\":17373:17567   */\n      swap3\n      swap2\n      pop\n      pop\n      jump\t// out\n\n    auxdata: 0xa264697066735822122052bc267404c43da02011f2cc1b5d8e1e65f59ab2ad49fcf26b34a23e0d4333d064736f6c63430008140033\n}\n",
				"bytecode": {
					"linkReferences": {},
					"object": "60806040525f600255348015610013575f80fd5b50335f806101000a81548173ffffffffffffffffffffffffffffffffffffffff021916908373ffffffffffffffffffffffffffffffffffffffff160217905550600160035f805f9054906101000a900473ffffffffffffffffffffffffffffffffffffffff1673ffffffffffffffffffffffffffffffffffffffff1673ffffffffffffffffffffffffffffffffffffffff1681526020019081526020015f205f6101000a81548160ff021916908315150217905550611306806100d55f395ff3fe608060405234801561000f575f80fd5b50600436106100a6575f3560e01c806378e5da071161006f57806378e5da071461014c5780638811c6691461016a578063b81155b51461019a578063dbde10d7146101ca578063e3978240146101e6578063f5524fba14610204576100a6565b80622d4da6146100aa5780630bf803e4146100da5780632af2bc27146100f657806350c00197146101145780636344030114610130575b5f80fd5b6100c460048036038101906100bf91906109d0565b610222565b6040516100d19190610a15565b60405180910390f35b6100f460048036038101906100ef9190610b6a565b61023f565b005b6100fe61034d565b60405161010b9190610bc9565b60405180910390f35b61012e60048036038101906101299190610c0c565b610353565b005b61014a60048036038101906101459190610c90565b61045c565b005b610154610564565b6040516101619190610d48565b60405180910390f35b610184600480360381019061017f9190610d68565b61061d565b6040516101919190610d48565b60405180910390f35b6101b460048036038101906101af9190610d68565b6106c3565b6040516101c19190610d48565b60405180910390f35b6101e460048036038101906101df91906109d0565b61076f565b005b6101ee61086e565b6040516101fb9190610da2565b60405180910390f35b61020c610891565b6040516102199190610ebe565b60405180910390f35b6003602052805f5260405f205f915054906101000a900460ff1681565b60035f3373ffffffffffffffffffffffffffffffffffffffff1673ffffffffffffffffffffffffffffffffffffffff1681526020019081526020015f205f9054906101000a900460ff166102ca57336040517fd01264d00000000000000000000000000000000000000000000000000000000081526004016102c19190610da2565b60405180910390fd5b600181908060018154018082558091505060019003905f5260205f20015f9091909190915090816102fb91906110d8565b5060025f81548092919061030e906111d4565b91905055507fe42581e5ab424aef106c0291b069bd6dc16c918bd8726a9cc6f5ed8997baa750816040516103429190610d48565b60405180910390a150565b60025481565b60035f3373ffffffffffffffffffffffffffffffffffffffff1673ffffffffffffffffffffffffffffffffffffffff1681526020019081526020015f205f9054906101000a900460ff166103de57336040517fd01264d00000000000000000000000000000000000000000000000000000000081526004016103d59190610da2565b60405180910390fd5b80600183815481106103f3576103f261121b565b5b905f5260205f2001908161040791906110d8565b5060025f81548092919061041a906111d4565b91905055507f09078fa42f4570bd49b427f703b5ec916a5a0e70c4d5b359fd8bc4ffbeaa6b428282604051610450929190611248565b60405180910390a15050565b3373ffffffffffffffffffffffffffffffffffffffff165f8054906101000a900473ffffffffffffffffffffffffffffffffffffffff1673ffffffffffffffffffffffffffffffffffffffff161461050c57335f8054906101000a900473ffffffffffffffffffffffffffffffffffffffff166040517f82716adb000000000000000000000000000000000000000000000000000000008152600401610503929190611276565b60405180910390fd5b8060035f8473ffffffffffffffffffffffffffffffffffffffff1673ffffffffffffffffffffffffffffffffffffffff1681526020019081526020015f205f6101000a81548160ff0219169083151502179055505050565b60606001808080549050610578919061129d565b815481106105895761058861121b565b5b905f5260205f2001805461059c90610f0b565b80601f01602080910402602001604051908101604052809291908181526020018280546105c890610f0b565b80156106135780601f106105ea57610100808354040283529160200191610613565b820191905f5260205f20905b8154815290600101906020018083116105f657829003601f168201915b5050505050905090565b6001818154811061062c575f80fd5b905f5260205f20015f91509050805461064490610f0b565b80601f016020809104026020016040519081016040528092919081815260200182805461067090610f0b565b80156106bb5780601f10610692576101008083540402835291602001916106bb565b820191905f5260205f20905b81548152906001019060200180831161069e57829003601f168201915b505050505081565b6060600182815481106106d9576106d861121b565b5b905f5260205f200180546106ec90610f0b565b80601f016020809104026020016040519081016040528092919081815260200182805461071890610f0b565b80156107635780601f1061073a57610100808354040283529160200191610763565b820191905f5260205f20905b81548152906001019060200180831161074657829003601f168201915b50505050509050919050565b3373ffffffffffffffffffffffffffffffffffffffff165f8054906101000a900473ffffffffffffffffffffffffffffffffffffffff1673ffffffffffffffffffffffffffffffffffffffff161461081f57335f8054906101000a900473ffffffffffffffffffffffffffffffffffffffff166040517f82716adb000000000000000000000000000000000000000000000000000000008152600401610816929190611276565b60405180910390fd5b60035f8273ffffffffffffffffffffffffffffffffffffffff1673ffffffffffffffffffffffffffffffffffffffff1681526020019081526020015f205f6101000a81549060ff021916905550565b5f8054906101000a900473ffffffffffffffffffffffffffffffffffffffff1681565b60606001805480602002602001604051908101604052809291908181526020015f905b8282101561095c578382905f5260205f200180546108d190610f0b565b80601f01602080910402602001604051908101604052809291908181526020018280546108fd90610f0b565b80156109485780601f1061091f57610100808354040283529160200191610948565b820191905f5260205f20905b81548152906001019060200180831161092b57829003601f168201915b5050505050815260200190600101906108b4565b50505050905090565b5f604051905090565b5f80fd5b5f80fd5b5f73ffffffffffffffffffffffffffffffffffffffff82169050919050565b5f61099f82610976565b9050919050565b6109af81610995565b81146109b9575f80fd5b50565b5f813590506109ca816109a6565b92915050565b5f602082840312156109e5576109e461096e565b5b5f6109f2848285016109bc565b91505092915050565b5f8115159050919050565b610a0f816109fb565b82525050565b5f602082019050610a285f830184610a06565b92915050565b5f80fd5b5f80fd5b5f601f19601f8301169050919050565b7f4e487b71000000000000000000000000000000000000000000000000000000005f52604160045260245ffd5b610a7c82610a36565b810181811067ffffffffffffffff82111715610a9b57610a9a610a46565b5b80604052505050565b5f610aad610965565b9050610ab98282610a73565b919050565b5f67ffffffffffffffff821115610ad857610ad7610a46565b5b610ae182610a36565b9050602081019050919050565b828183375f83830152505050565b5f610b0e610b0984610abe565b610aa4565b905082815260208101848484011115610b2a57610b29610a32565b5b610b35848285610aee565b509392505050565b5f82601f830112610b5157610b50610a2e565b5b8135610b61848260208601610afc565b91505092915050565b5f60208284031215610b7f57610b7e61096e565b5b5f82013567ffffffffffffffff811115610b9c57610b9b610972565b5b610ba884828501610b3d565b91505092915050565b5f819050919050565b610bc381610bb1565b82525050565b5f602082019050610bdc5f830184610bba565b92915050565b610beb81610bb1565b8114610bf5575f80fd5b50565b5f81359050610c0681610be2565b92915050565b5f8060408385031215610c2257610c2161096e565b5b5f610c2f85828601610bf8565b925050602083013567ffffffffffffffff811115610c5057610c4f610972565b5b610c5c85828601610b3d565b9150509250929050565b610c6f816109fb565b8114610c79575f80fd5b50565b5f81359050610c8a81610c66565b92915050565b5f8060408385031215610ca657610ca561096e565b5b5f610cb3858286016109bc565b9250506020610cc485828601610c7c565b9150509250929050565b5f81519050919050565b5f82825260208201905092915050565b5f5b83811015610d05578082015181840152602081019050610cea565b5f8484015250505050565b5f610d1a82610cce565b610d248185610cd8565b9350610d34818560208601610ce8565b610d3d81610a36565b840191505092915050565b5f6020820190508181035f830152610d608184610d10565b905092915050565b5f60208284031215610d7d57610d7c61096e565b5b5f610d8a84828501610bf8565b91505092915050565b610d9c81610995565b82525050565b5f602082019050610db55f830184610d93565b92915050565b5f81519050919050565b5f82825260208201905092915050565b5f819050602082019050919050565b5f82825260208201905092915050565b5f610dfe82610cce565b610e088185610de4565b9350610e18818560208601610ce8565b610e2181610a36565b840191505092915050565b5f610e378383610df4565b905092915050565b5f602082019050919050565b5f610e5582610dbb565b610e5f8185610dc5565b935083602082028501610e7185610dd5565b805f5b85811015610eac5784840389528151610e8d8582610e2c565b9450610e9883610e3f565b925060208a01995050600181019050610e74565b50829750879550505050505092915050565b5f6020820190508181035f830152610ed68184610e4b565b905092915050565b7f4e487b71000000000000000000000000000000000000000000000000000000005f52602260045260245ffd5b5f6002820490506001821680610f2257607f821691505b602082108103610f3557610f34610ede565b5b50919050565b5f819050815f5260205f209050919050565b5f6020601f8301049050919050565b5f82821b905092915050565b5f60088302610f977fffffffffffffffffffffffffffffffffffffffffffffffffffffffffffffffff82610f5c565b610fa18683610f5c565b95508019841693508086168417925050509392505050565b5f819050919050565b5f610fdc610fd7610fd284610bb1565b610fb9565b610bb1565b9050919050565b5f819050919050565b610ff583610fc2565b61100961100182610fe3565b848454610f68565b825550505050565b5f90565b61101d611011565b611028818484610fec565b505050565b5b8181101561104b576110405f82611015565b60018101905061102e565b5050565b601f8211156110905761106181610f3b565b61106a84610f4d565b81016020851015611079578190505b61108d61108585610f4d565b83018261102d565b50505b505050565b5f82821c905092915050565b5f6110b05f1984600802611095565b1980831691505092915050565b5f6110c883836110a1565b9150826002028217905092915050565b6110e182610cce565b67ffffffffffffffff8111156110fa576110f9610a46565b5b6111048254610f0b565b61110f82828561104f565b5f60209050601f831160018114611140575f841561112e578287015190505b61113885826110bd565b86555061119f565b601f19841661114e86610f3b565b5f5b8281101561117557848901518255600182019150602085019450602081019050611150565b86831015611192578489015161118e601f8916826110a1565b8355505b6001600288020188555050505b505050505050565b7f4e487b71000000000000000000000000000000000000000000000000000000005f52601160045260245ffd5b5f6111de82610bb1565b91507fffffffffffffffffffffffffffffffffffffffffffffffffffffffffffffffff82036112105761120f6111a7565b5b600182019050919050565b7f4e487b71000000000000000000000000000000000000000000000000000000005f52603260045260245ffd5b5f60408201905061125b5f830185610bba565b818103602083015261126d8184610d10565b90509392505050565b5f6040820190506112895f830185610d93565b6112966020830184610d93565b9392505050565b5f6112a782610bb1565b91506112b283610bb1565b92508282039050818111156112ca576112c96111a7565b5b9291505056fea264697066735822122052bc267404c43da02011f2cc1b5d8e1e65f59ab2ad49fcf26b34a23e0d4333d064736f6c63430008140033",
					"opcodes": "PUSH1 0x80 PUSH1 0x40 MSTORE PUSH0 PUSH1 0x2 SSTORE CALLVALUE DUP1 ISZERO PUSH2 0x13 JUMPI PUSH0 DUP1 REVERT JUMPDEST POP CALLER PUSH0 DUP1 PUSH2 0x100 EXP DUP2 SLOAD DUP2 PUSH20 0xFFFFFFFFFFFFFFFFFFFFFFFFFFFFFFFFFFFFFFFF MUL NOT AND SWAP1 DUP4 PUSH20 0xFFFFFFFFFFFFFFFFFFFFFFFFFFFFFFFFFFFFFFFF AND MUL OR SWAP1 SSTORE POP PUSH1 0x1 PUSH1 0x3 PUSH0 DUP1 PUSH0 SWAP1 SLOAD SWAP1 PUSH2 0x100 EXP SWAP1 DIV PUSH20 0xFFFFFFFFFFFFFFFFFFFFFFFFFFFFFFFFFFFFFFFF AND PUSH20 0xFFFFFFFFFFFFFFFFFFFFFFFFFFFFFFFFFFFFFFFF AND PUSH20 0xFFFFFFFFFFFFFFFFFFFFFFFFFFFFFFFFFFFFFFFF AND DUP2 MSTORE PUSH1 0x20 ADD SWAP1 DUP2 MSTORE PUSH1 0x20 ADD PUSH0 KECCAK256 PUSH0 PUSH2 0x100 EXP DUP2 SLOAD DUP2 PUSH1 0xFF MUL NOT AND SWAP1 DUP4 ISZERO ISZERO MUL OR SWAP1 SSTORE POP PUSH2 0x1306 DUP1 PUSH2 0xD5 PUSH0 CODECOPY PUSH0 RETURN INVALID PUSH1 0x80 PUSH1 0x40 MSTORE CALLVALUE DUP1 ISZERO PUSH2 0xF JUMPI PUSH0 DUP1 REVERT JUMPDEST POP PUSH1 0x4 CALLDATASIZE LT PUSH2 0xA6 JUMPI PUSH0 CALLDATALOAD PUSH1 0xE0 SHR DUP1 PUSH4 0x78E5DA07 GT PUSH2 0x6F JUMPI DUP1 PUSH4 0x78E5DA07 EQ PUSH2 0x14C JUMPI DUP1 PUSH4 0x8811C669 EQ PUSH2 0x16A JUMPI DUP1 PUSH4 0xB81155B5 EQ PUSH2 0x19A JUMPI DUP1 PUSH4 0xDBDE10D7 EQ PUSH2 0x1CA JUMPI DUP1 PUSH4 0xE3978240 EQ PUSH2 0x1E6 JUMPI DUP1 PUSH4 0xF5524FBA EQ PUSH2 0x204 JUMPI PUSH2 0xA6 JUMP JUMPDEST DUP1 PUSH3 0x2D4DA6 EQ PUSH2 0xAA JUMPI DUP1 PUSH4 0xBF803E4 EQ PUSH2 0xDA JUMPI DUP1 PUSH4 0x2AF2BC27 EQ PUSH2 0xF6 JUMPI DUP1 PUSH4 0x50C00197 EQ PUSH2 0x114 JUMPI DUP1 PUSH4 0x63440301 EQ PUSH2 0x130 JUMPI JUMPDEST PUSH0 DUP1 REVERT JUMPDEST PUSH2 0xC4 PUSH1 0x4 DUP1 CALLDATASIZE SUB DUP2 ADD SWAP1 PUSH2 0xBF SWAP2 SWAP1 PUSH2 0x9D0 JUMP JUMPDEST PUSH2 0x222 JUMP JUMPDEST PUSH1 0x40 MLOAD PUSH2 0xD1 SWAP2 SWAP1 PUSH2 0xA15 JUMP JUMPDEST PUSH1 0x40 MLOAD DUP1 SWAP2 SUB SWAP1 RETURN JUMPDEST PUSH2 0xF4 PUSH1 0x4 DUP1 CALLDATASIZE SUB DUP2 ADD SWAP1 PUSH2 0xEF SWAP2 SWAP1 PUSH2 0xB6A JUMP JUMPDEST PUSH2 0x23F JUMP JUMPDEST STOP JUMPDEST PUSH2 0xFE PUSH2 0x34D JUMP JUMPDEST PUSH1 0x40 MLOAD PUSH2 0x10B SWAP2 SWAP1 PUSH2 0xBC9 JUMP JUMPDEST PUSH1 0x40 MLOAD DUP1 SWAP2 SUB SWAP1 RETURN JUMPDEST PUSH2 0x12E PUSH1 0x4 DUP1 CALLDATASIZE SUB DUP2 ADD SWAP1 PUSH2 0x129 SWAP2 SWAP1 PUSH2 0xC0C JUMP JUMPDEST PUSH2 0x353 JUMP JUMPDEST STOP JUMPDEST PUSH2 0x14A PUSH1 0x4 DUP1 CALLDATASIZE SUB DUP2 ADD SWAP1 PUSH2 0x145 SWAP2 SWAP1 PUSH2 0xC90 JUMP JUMPDEST PUSH2 0x45C JUMP JUMPDEST STOP JUMPDEST PUSH2 0x154 PUSH2 0x564 JUMP JUMPDEST PUSH1 0x40 MLOAD PUSH2 0x161 SWAP2 SWAP1 PUSH2 0xD48 JUMP JUMPDEST PUSH1 0x40 MLOAD DUP1 SWAP2 SUB SWAP1 RETURN JUMPDEST PUSH2 0x184 PUSH1 0x4 DUP1 CALLDATASIZE SUB DUP2 ADD SWAP1 PUSH2 0x17F SWAP2 SWAP1 PUSH2 0xD68 JUMP JUMPDEST PUSH2 0x61D JUMP JUMPDEST PUSH1 0x40 MLOAD PUSH2 0x191 SWAP2 SWAP1 PUSH2 0xD48 JUMP JUMPDEST PUSH1 0x40 MLOAD DUP1 SWAP2 SUB SWAP1 RETURN JUMPDEST PUSH2 0x1B4 PUSH1 0x4 DUP1 CALLDATASIZE SUB DUP2 ADD SWAP1 PUSH2 0x1AF SWAP2 SWAP1 PUSH2 0xD68 JUMP JUMPDEST PUSH2 0x6C3 JUMP JUMPDEST PUSH1 0x40 MLOAD PUSH2 0x1C1 SWAP2 SWAP1 PUSH2 0xD48 JUMP JUMPDEST PUSH1 0x40 MLOAD DUP1 SWAP2 SUB SWAP1 RETURN JUMPDEST PUSH2 0x1E4 PUSH1 0x4 DUP1 CALLDATASIZE SUB DUP2 ADD SWAP1 PUSH2 0x1DF SWAP2 SWAP1 PUSH2 0x9D0 JUMP JUMPDEST PUSH2 0x76F JUMP JUMPDEST STOP JUMPDEST PUSH2 0x1EE PUSH2 0x86E JUMP JUMPDEST PUSH1 0x40 MLOAD PUSH2 0x1FB SWAP2 SWAP1 PUSH2 0xDA2 JUMP JUMPDEST PUSH1 0x40 MLOAD DUP1 SWAP2 SUB SWAP1 RETURN JUMPDEST PUSH2 0x20C PUSH2 0x891 JUMP JUMPDEST PUSH1 0x40 MLOAD PUSH2 0x219 SWAP2 SWAP1 PUSH2 0xEBE JUMP JUMPDEST PUSH1 0x40 MLOAD DUP1 SWAP2 SUB SWAP1 RETURN JUMPDEST PUSH1 0x3 PUSH1 0x20 MSTORE DUP1 PUSH0 MSTORE PUSH1 0x40 PUSH0 KECCAK256 PUSH0 SWAP2 POP SLOAD SWAP1 PUSH2 0x100 EXP SWAP1 DIV PUSH1 0xFF AND DUP2 JUMP JUMPDEST PUSH1 0x3 PUSH0 CALLER PUSH20 0xFFFFFFFFFFFFFFFFFFFFFFFFFFFFFFFFFFFFFFFF AND PUSH20 0xFFFFFFFFFFFFFFFFFFFFFFFFFFFFFFFFFFFFFFFF AND DUP2 MSTORE PUSH1 0x20 ADD SWAP1 DUP2 MSTORE PUSH1 0x20 ADD PUSH0 KECCAK256 PUSH0 SWAP1 SLOAD SWAP1 PUSH2 0x100 EXP SWAP1 DIV PUSH1 0xFF AND PUSH2 0x2CA JUMPI CALLER PUSH1 0x40 MLOAD PUSH32 0xD01264D000000000000000000000000000000000000000000000000000000000 DUP2 MSTORE PUSH1 0x4 ADD PUSH2 0x2C1 SWAP2 SWAP1 PUSH2 0xDA2 JUMP JUMPDEST PUSH1 0x40 MLOAD DUP1 SWAP2 SUB SWAP1 REVERT JUMPDEST PUSH1 0x1 DUP2 SWAP1 DUP1 PUSH1 0x1 DUP2 SLOAD ADD DUP1 DUP3 SSTORE DUP1 SWAP2 POP POP PUSH1 0x1 SWAP1 SUB SWAP1 PUSH0 MSTORE PUSH1 0x20 PUSH0 KECCAK256 ADD PUSH0 SWAP1 SWAP2 SWAP1 SWAP2 SWAP1 SWAP2 POP SWAP1 DUP2 PUSH2 0x2FB SWAP2 SWAP1 PUSH2 0x10D8 JUMP JUMPDEST POP PUSH1 0x2 PUSH0 DUP2 SLOAD DUP1 SWAP3 SWAP2 SWAP1 PUSH2 0x30E SWAP1 PUSH2 0x11D4 JUMP JUMPDEST SWAP2 SWAP1 POP SSTORE POP PUSH32 0xE42581E5AB424AEF106C0291B069BD6DC16C918BD8726A9CC6F5ED8997BAA750 DUP2 PUSH1 0x40 MLOAD PUSH2 0x342 SWAP2 SWAP1 PUSH2 0xD48 JUMP JUMPDEST PUSH1 0x40 MLOAD DUP1 SWAP2 SUB SWAP1 LOG1 POP JUMP JUMPDEST PUSH1 0x2 SLOAD DUP2 JUMP JUMPDEST PUSH1 0x3 PUSH0 CALLER PUSH20 0xFFFFFFFFFFFFFFFFFFFFFFFFFFFFFFFFFFFFFFFF AND PUSH20 0xFFFFFFFFFFFFFFFFFFFFFFFFFFFFFFFFFFFFFFFF AND DUP2 MSTORE PUSH1 0x20 ADD SWAP1 DUP2 MSTORE PUSH1 0x20 ADD PUSH0 KECCAK256 PUSH0 SWAP1 SLOAD SWAP1 PUSH2 0x100 EXP SWAP1 DIV PUSH1 0xFF AND PUSH2 0x3DE JUMPI CALLER PUSH1 0x40 MLOAD PUSH32 0xD01264D000000000000000000000000000000000000000000000000000000000 DUP2 MSTORE PUSH1 0x4 ADD PUSH2 0x3D5 SWAP2 SWAP1 PUSH2 0xDA2 JUMP JUMPDEST PUSH1 0x40 MLOAD DUP1 SWAP2 SUB SWAP1 REVERT JUMPDEST DUP1 PUSH1 0x1 DUP4 DUP2 SLOAD DUP2 LT PUSH2 0x3F3 JUMPI PUSH2 0x3F2 PUSH2 0x121B JUMP JUMPDEST JUMPDEST SWAP1 PUSH0 MSTORE PUSH1 0x20 PUSH0 KECCAK256 ADD SWAP1 DUP2 PUSH2 0x407 SWAP2 SWAP1 PUSH2 0x10D8 JUMP JUMPDEST POP PUSH1 0x2 PUSH0 DUP2 SLOAD DUP1 SWAP3 SWAP2 SWAP1 PUSH2 0x41A SWAP1 PUSH2 0x11D4 JUMP JUMPDEST SWAP2 SWAP1 POP SSTORE POP PUSH32 0x9078FA42F4570BD49B427F703B5EC916A5A0E70C4D5B359FD8BC4FFBEAA6B42 DUP3 DUP3 PUSH1 0x40 MLOAD PUSH2 0x450 SWAP3 SWAP2 SWAP1 PUSH2 0x1248 JUMP JUMPDEST PUSH1 0x40 MLOAD DUP1 SWAP2 SUB SWAP1 LOG1 POP POP JUMP JUMPDEST CALLER PUSH20 0xFFFFFFFFFFFFFFFFFFFFFFFFFFFFFFFFFFFFFFFF AND PUSH0 DUP1 SLOAD SWAP1 PUSH2 0x100 EXP SWAP1 DIV PUSH20 0xFFFFFFFFFFFFFFFFFFFFFFFFFFFFFFFFFFFFFFFF AND PUSH20 0xFFFFFFFFFFFFFFFFFFFFFFFFFFFFFFFFFFFFFFFF AND EQ PUSH2 0x50C JUMPI CALLER PUSH0 DUP1 SLOAD SWAP1 PUSH2 0x100 EXP SWAP1 DIV PUSH20 0xFFFFFFFFFFFFFFFFFFFFFFFFFFFFFFFFFFFFFFFF AND PUSH1 0x40 MLOAD PUSH32 0x82716ADB00000000000000000000000000000000000000000000000000000000 DUP2 MSTORE PUSH1 0x4 ADD PUSH2 0x503 SWAP3 SWAP2 SWAP1 PUSH2 0x1276 JUMP JUMPDEST PUSH1 0x40 MLOAD DUP1 SWAP2 SUB SWAP1 REVERT JUMPDEST DUP1 PUSH1 0x3 PUSH0 DUP5 PUSH20 0xFFFFFFFFFFFFFFFFFFFFFFFFFFFFFFFFFFFFFFFF AND PUSH20 0xFFFFFFFFFFFFFFFFFFFFFFFFFFFFFFFFFFFFFFFF AND DUP2 MSTORE PUSH1 0x20 ADD SWAP1 DUP2 MSTORE PUSH1 0x20 ADD PUSH0 KECCAK256 PUSH0 PUSH2 0x100 EXP DUP2 SLOAD DUP2 PUSH1 0xFF MUL NOT AND SWAP1 DUP4 ISZERO ISZERO MUL OR SWAP1 SSTORE POP POP POP JUMP JUMPDEST PUSH1 0x60 PUSH1 0x1 DUP1 DUP1 DUP1 SLOAD SWAP1 POP PUSH2 0x578 SWAP2 SWAP1 PUSH2 0x129D JUMP JUMPDEST DUP2 SLOAD DUP2 LT PUSH2 0x589 JUMPI PUSH2 0x588 PUSH2 0x121B JUMP JUMPDEST JUMPDEST SWAP1 PUSH0 MSTORE PUSH1 0x20 PUSH0 KECCAK256 ADD DUP1 SLOAD PUSH2 0x59C SWAP1 PUSH2 0xF0B JUMP JUMPDEST DUP1 PUSH1 0x1F ADD PUSH1 0x20 DUP1 SWAP2 DIV MUL PUSH1 0x20 ADD PUSH1 0x40 MLOAD SWAP1 DUP2 ADD PUSH1 0x40 MSTORE DUP1 SWAP3 SWAP2 SWAP1 DUP2 DUP2 MSTORE PUSH1 0x20 ADD DUP3 DUP1 SLOAD PUSH2 0x5C8 SWAP1 PUSH2 0xF0B JUMP JUMPDEST DUP1 ISZERO PUSH2 0x613 JUMPI DUP1 PUSH1 0x1F LT PUSH2 0x5EA JUMPI PUSH2 0x100 DUP1 DUP4 SLOAD DIV MUL DUP4 MSTORE SWAP2 PUSH1 0x20 ADD SWAP2 PUSH2 0x613 JUMP JUMPDEST DUP3 ADD SWAP2 SWAP1 PUSH0 MSTORE PUSH1 0x20 PUSH0 KECCAK256 SWAP1 JUMPDEST DUP2 SLOAD DUP2 MSTORE SWAP1 PUSH1 0x1 ADD SWAP1 PUSH1 0x20 ADD DUP1 DUP4 GT PUSH2 0x5F6 JUMPI DUP3 SWAP1 SUB PUSH1 0x1F AND DUP3 ADD SWAP2 JUMPDEST POP POP POP POP POP SWAP1 POP SWAP1 JUMP JUMPDEST PUSH1 0x1 DUP2 DUP2 SLOAD DUP2 LT PUSH2 0x62C JUMPI PUSH0 DUP1 REVERT JUMPDEST SWAP1 PUSH0 MSTORE PUSH1 0x20 PUSH0 KECCAK256 ADD PUSH0 SWAP2 POP SWAP1 POP DUP1 SLOAD PUSH2 0x644 SWAP1 PUSH2 0xF0B JUMP JUMPDEST DUP1 PUSH1 0x1F ADD PUSH1 0x20 DUP1 SWAP2 DIV MUL PUSH1 0x20 ADD PUSH1 0x40 MLOAD SWAP1 DUP2 ADD PUSH1 0x40 MSTORE DUP1 SWAP3 SWAP2 SWAP1 DUP2 DUP2 MSTORE PUSH1 0x20 ADD DUP3 DUP1 SLOAD PUSH2 0x670 SWAP1 PUSH2 0xF0B JUMP JUMPDEST DUP1 ISZERO PUSH2 0x6BB JUMPI DUP1 PUSH1 0x1F LT PUSH2 0x692 JUMPI PUSH2 0x100 DUP1 DUP4 SLOAD DIV MUL DUP4 MSTORE SWAP2 PUSH1 0x20 ADD SWAP2 PUSH2 0x6BB JUMP JUMPDEST DUP3 ADD SWAP2 SWAP1 PUSH0 MSTORE PUSH1 0x20 PUSH0 KECCAK256 SWAP1 JUMPDEST DUP2 SLOAD DUP2 MSTORE SWAP1 PUSH1 0x1 ADD SWAP1 PUSH1 0x20 ADD DUP1 DUP4 GT PUSH2 0x69E JUMPI DUP3 SWAP1 SUB PUSH1 0x1F AND DUP3 ADD SWAP2 JUMPDEST POP POP POP POP POP DUP2 JUMP JUMPDEST PUSH1 0x60 PUSH1 0x1 DUP3 DUP2 SLOAD DUP2 LT PUSH2 0x6D9 JUMPI PUSH2 0x6D8 PUSH2 0x121B JUMP JUMPDEST JUMPDEST SWAP1 PUSH0 MSTORE PUSH1 0x20 PUSH0 KECCAK256 ADD DUP1 SLOAD PUSH2 0x6EC SWAP1 PUSH2 0xF0B JUMP JUMPDEST DUP1 PUSH1 0x1F ADD PUSH1 0x20 DUP1 SWAP2 DIV MUL PUSH1 0x20 ADD PUSH1 0x40 MLOAD SWAP1 DUP2 ADD PUSH1 0x40 MSTORE DUP1 SWAP3 SWAP2 SWAP1 DUP2 DUP2 MSTORE PUSH1 0x20 ADD DUP3 DUP1 SLOAD PUSH2 0x718 SWAP1 PUSH2 0xF0B JUMP JUMPDEST DUP1 ISZERO PUSH2 0x763 JUMPI DUP1 PUSH1 0x1F LT PUSH2 0x73A JUMPI PUSH2 0x100 DUP1 DUP4 SLOAD DIV MUL DUP4 MSTORE SWAP2 PUSH1 0x20 ADD SWAP2 PUSH2 0x763 JUMP JUMPDEST DUP3 ADD SWAP2 SWAP1 PUSH0 MSTORE PUSH1 0x20 PUSH0 KECCAK256 SWAP1 JUMPDEST DUP2 SLOAD DUP2 MSTORE SWAP1 PUSH1 0x1 ADD SWAP1 PUSH1 0x20 ADD DUP1 DUP4 GT PUSH2 0x746 JUMPI DUP3 SWAP1 SUB PUSH1 0x1F AND DUP3 ADD SWAP2 JUMPDEST POP POP POP POP POP SWAP1 POP SWAP2 SWAP1 POP JUMP JUMPDEST CALLER PUSH20 0xFFFFFFFFFFFFFFFFFFFFFFFFFFFFFFFFFFFFFFFF AND PUSH0 DUP1 SLOAD SWAP1 PUSH2 0x100 EXP SWAP1 DIV PUSH20 0xFFFFFFFFFFFFFFFFFFFFFFFFFFFFFFFFFFFFFFFF AND PUSH20 0xFFFFFFFFFFFFFFFFFFFFFFFFFFFFFFFFFFFFFFFF AND EQ PUSH2 0x81F JUMPI CALLER PUSH0 DUP1 SLOAD SWAP1 PUSH2 0x100 EXP SWAP1 DIV PUSH20 0xFFFFFFFFFFFFFFFFFFFFFFFFFFFFFFFFFFFFFFFF AND PUSH1 0x40 MLOAD PUSH32 0x82716ADB00000000000000000000000000000000000000000000000000000000 DUP2 MSTORE PUSH1 0x4 ADD PUSH2 0x816 SWAP3 SWAP2 SWAP1 PUSH2 0x1276 JUMP JUMPDEST PUSH1 0x40 MLOAD DUP1 SWAP2 SUB SWAP1 REVERT JUMPDEST PUSH1 0x3 PUSH0 DUP3 PUSH20 0xFFFFFFFFFFFFFFFFFFFFFFFFFFFFFFFFFFFFFFFF AND PUSH20 0xFFFFFFFFFFFFFFFFFFFFFFFFFFFFFFFFFFFFFFFF AND DUP2 MSTORE PUSH1 0x20 ADD SWAP1 DUP2 MSTORE PUSH1 0x20 ADD PUSH0 KECCAK256 PUSH0 PUSH2 0x100 EXP DUP2 SLOAD SWAP1 PUSH1 0xFF MUL NOT AND SWAP1 SSTORE POP JUMP JUMPDEST PUSH0 DUP1 SLOAD SWAP1 PUSH2 0x100 EXP SWAP1 DIV PUSH20 0xFFFFFFFFFFFFFFFFFFFFFFFFFFFFFFFFFFFFFFFF AND DUP2 JUMP JUMPDEST PUSH1 0x60 PUSH1 0x1 DUP1 SLOAD DUP1 PUSH1 0x20 MUL PUSH1 0x20 ADD PUSH1 0x40 MLOAD SWAP1 DUP2 ADD PUSH1 0x40 MSTORE DUP1 SWAP3 SWAP2 SWAP1 DUP2 DUP2 MSTORE PUSH1 0x20 ADD PUSH0 SWAP1 JUMPDEST DUP3 DUP3 LT ISZERO PUSH2 0x95C JUMPI DUP4 DUP3 SWAP1 PUSH0 MSTORE PUSH1 0x20 PUSH0 KECCAK256 ADD DUP1 SLOAD PUSH2 0x8D1 SWAP1 PUSH2 0xF0B JUMP JUMPDEST DUP1 PUSH1 0x1F ADD PUSH1 0x20 DUP1 SWAP2 DIV MUL PUSH1 0x20 ADD PUSH1 0x40 MLOAD SWAP1 DUP2 ADD PUSH1 0x40 MSTORE DUP1 SWAP3 SWAP2 SWAP1 DUP2 DUP2 MSTORE PUSH1 0x20 ADD DUP3 DUP1 SLOAD PUSH2 0x8FD SWAP1 PUSH2 0xF0B JUMP JUMPDEST DUP1 ISZERO PUSH2 0x948 JUMPI DUP1 PUSH1 0x1F LT PUSH2 0x91F JUMPI PUSH2 0x100 DUP1 DUP4 SLOAD DIV MUL DUP4 MSTORE SWAP2 PUSH1 0x20 ADD SWAP2 PUSH2 0x948 JUMP JUMPDEST DUP3 ADD SWAP2 SWAP1 PUSH0 MSTORE PUSH1 0x20 PUSH0 KECCAK256 SWAP1 JUMPDEST DUP2 SLOAD DUP2 MSTORE SWAP1 PUSH1 0x1 ADD SWAP1 PUSH1 0x20 ADD DUP1 DUP4 GT PUSH2 0x92B JUMPI DUP3 SWAP1 SUB PUSH1 0x1F AND DUP3 ADD SWAP2 JUMPDEST POP POP POP POP POP DUP2 MSTORE PUSH1 0x20 ADD SWAP1 PUSH1 0x1 ADD SWAP1 PUSH2 0x8B4 JUMP JUMPDEST POP POP POP POP SWAP1 POP SWAP1 JUMP JUMPDEST PUSH0 PUSH1 0x40 MLOAD SWAP1 POP SWAP1 JUMP JUMPDEST PUSH0 DUP1 REVERT JUMPDEST PUSH0 DUP1 REVERT JUMPDEST PUSH0 PUSH20 0xFFFFFFFFFFFFFFFFFFFFFFFFFFFFFFFFFFFFFFFF DUP3 AND SWAP1 POP SWAP2 SWAP1 POP JUMP JUMPDEST PUSH0 PUSH2 0x99F DUP3 PUSH2 0x976 JUMP JUMPDEST SWAP1 POP SWAP2 SWAP1 POP JUMP JUMPDEST PUSH2 0x9AF DUP2 PUSH2 0x995 JUMP JUMPDEST DUP2 EQ PUSH2 0x9B9 JUMPI PUSH0 DUP1 REVERT JUMPDEST POP JUMP JUMPDEST PUSH0 DUP2 CALLDATALOAD SWAP1 POP PUSH2 0x9CA DUP2 PUSH2 0x9A6 JUMP JUMPDEST SWAP3 SWAP2 POP POP JUMP JUMPDEST PUSH0 PUSH1 0x20 DUP3 DUP5 SUB SLT ISZERO PUSH2 0x9E5 JUMPI PUSH2 0x9E4 PUSH2 0x96E JUMP JUMPDEST JUMPDEST PUSH0 PUSH2 0x9F2 DUP5 DUP3 DUP6 ADD PUSH2 0x9BC JUMP JUMPDEST SWAP2 POP POP SWAP3 SWAP2 POP POP JUMP JUMPDEST PUSH0 DUP2 ISZERO ISZERO SWAP1 POP SWAP2 SWAP1 POP JUMP JUMPDEST PUSH2 0xA0F DUP2 PUSH2 0x9FB JUMP JUMPDEST DUP3 MSTORE POP POP JUMP JUMPDEST PUSH0 PUSH1 0x20 DUP3 ADD SWAP1 POP PUSH2 0xA28 PUSH0 DUP4 ADD DUP5 PUSH2 0xA06 JUMP JUMPDEST SWAP3 SWAP2 POP POP JUMP JUMPDEST PUSH0 DUP1 REVERT JUMPDEST PUSH0 DUP1 REVERT JUMPDEST PUSH0 PUSH1 0x1F NOT PUSH1 0x1F DUP4 ADD AND SWAP1 POP SWAP2 SWAP1 POP JUMP JUMPDEST PUSH32 0x4E487B7100000000000000000000000000000000000000000000000000000000 PUSH0 MSTORE PUSH1 0x41 PUSH1 0x4 MSTORE PUSH1 0x24 PUSH0 REVERT JUMPDEST PUSH2 0xA7C DUP3 PUSH2 0xA36 JUMP JUMPDEST DUP2 ADD DUP2 DUP2 LT PUSH8 0xFFFFFFFFFFFFFFFF DUP3 GT OR ISZERO PUSH2 0xA9B JUMPI PUSH2 0xA9A PUSH2 0xA46 JUMP JUMPDEST JUMPDEST DUP1 PUSH1 0x40 MSTORE POP POP POP JUMP JUMPDEST PUSH0 PUSH2 0xAAD PUSH2 0x965 JUMP JUMPDEST SWAP1 POP PUSH2 0xAB9 DUP3 DUP3 PUSH2 0xA73 JUMP JUMPDEST SWAP2 SWAP1 POP JUMP JUMPDEST PUSH0 PUSH8 0xFFFFFFFFFFFFFFFF DUP3 GT ISZERO PUSH2 0xAD8 JUMPI PUSH2 0xAD7 PUSH2 0xA46 JUMP JUMPDEST JUMPDEST PUSH2 0xAE1 DUP3 PUSH2 0xA36 JUMP JUMPDEST SWAP1 POP PUSH1 0x20 DUP2 ADD SWAP1 POP SWAP2 SWAP1 POP JUMP JUMPDEST DUP3 DUP2 DUP4 CALLDATACOPY PUSH0 DUP4 DUP4 ADD MSTORE POP POP POP JUMP JUMPDEST PUSH0 PUSH2 0xB0E PUSH2 0xB09 DUP5 PUSH2 0xABE JUMP JUMPDEST PUSH2 0xAA4 JUMP JUMPDEST SWAP1 POP DUP3 DUP2 MSTORE PUSH1 0x20 DUP2 ADD DUP5 DUP5 DUP5 ADD GT ISZERO PUSH2 0xB2A JUMPI PUSH2 0xB29 PUSH2 0xA32 JUMP JUMPDEST JUMPDEST PUSH2 0xB35 DUP5 DUP3 DUP6 PUSH2 0xAEE JUMP JUMPDEST POP SWAP4 SWAP3 POP POP POP JUMP JUMPDEST PUSH0 DUP3 PUSH1 0x1F DUP4 ADD SLT PUSH2 0xB51 JUMPI PUSH2 0xB50 PUSH2 0xA2E JUMP JUMPDEST JUMPDEST DUP2 CALLDATALOAD PUSH2 0xB61 DUP5 DUP3 PUSH1 0x20 DUP7 ADD PUSH2 0xAFC JUMP JUMPDEST SWAP2 POP POP SWAP3 SWAP2 POP POP JUMP JUMPDEST PUSH0 PUSH1 0x20 DUP3 DUP5 SUB SLT ISZERO PUSH2 0xB7F JUMPI PUSH2 0xB7E PUSH2 0x96E JUMP JUMPDEST JUMPDEST PUSH0 DUP3 ADD CALLDATALOAD PUSH8 0xFFFFFFFFFFFFFFFF DUP2 GT ISZERO PUSH2 0xB9C JUMPI PUSH2 0xB9B PUSH2 0x972 JUMP JUMPDEST JUMPDEST PUSH2 0xBA8 DUP5 DUP3 DUP6 ADD PUSH2 0xB3D JUMP JUMPDEST SWAP2 POP POP SWAP3 SWAP2 POP POP JUMP JUMPDEST PUSH0 DUP2 SWAP1 POP SWAP2 SWAP1 POP JUMP JUMPDEST PUSH2 0xBC3 DUP2 PUSH2 0xBB1 JUMP JUMPDEST DUP3 MSTORE POP POP JUMP JUMPDEST PUSH0 PUSH1 0x20 DUP3 ADD SWAP1 POP PUSH2 0xBDC PUSH0 DUP4 ADD DUP5 PUSH2 0xBBA JUMP JUMPDEST SWAP3 SWAP2 POP POP JUMP JUMPDEST PUSH2 0xBEB DUP2 PUSH2 0xBB1 JUMP JUMPDEST DUP2 EQ PUSH2 0xBF5 JUMPI PUSH0 DUP1 REVERT JUMPDEST POP JUMP JUMPDEST PUSH0 DUP2 CALLDATALOAD SWAP1 POP PUSH2 0xC06 DUP2 PUSH2 0xBE2 JUMP JUMPDEST SWAP3 SWAP2 POP POP JUMP JUMPDEST PUSH0 DUP1 PUSH1 0x40 DUP4 DUP6 SUB SLT ISZERO PUSH2 0xC22 JUMPI PUSH2 0xC21 PUSH2 0x96E JUMP JUMPDEST JUMPDEST PUSH0 PUSH2 0xC2F DUP6 DUP3 DUP7 ADD PUSH2 0xBF8 JUMP JUMPDEST SWAP3 POP POP PUSH1 0x20 DUP4 ADD CALLDATALOAD PUSH8 0xFFFFFFFFFFFFFFFF DUP2 GT ISZERO PUSH2 0xC50 JUMPI PUSH2 0xC4F PUSH2 0x972 JUMP JUMPDEST JUMPDEST PUSH2 0xC5C DUP6 DUP3 DUP7 ADD PUSH2 0xB3D JUMP JUMPDEST SWAP2 POP POP SWAP3 POP SWAP3 SWAP1 POP JUMP JUMPDEST PUSH2 0xC6F DUP2 PUSH2 0x9FB JUMP JUMPDEST DUP2 EQ PUSH2 0xC79 JUMPI PUSH0 DUP1 REVERT JUMPDEST POP JUMP JUMPDEST PUSH0 DUP2 CALLDATALOAD SWAP1 POP PUSH2 0xC8A DUP2 PUSH2 0xC66 JUMP JUMPDEST SWAP3 SWAP2 POP POP JUMP JUMPDEST PUSH0 DUP1 PUSH1 0x40 DUP4 DUP6 SUB SLT ISZERO PUSH2 0xCA6 JUMPI PUSH2 0xCA5 PUSH2 0x96E JUMP JUMPDEST JUMPDEST PUSH0 PUSH2 0xCB3 DUP6 DUP3 DUP7 ADD PUSH2 0x9BC JUMP JUMPDEST SWAP3 POP POP PUSH1 0x20 PUSH2 0xCC4 DUP6 DUP3 DUP7 ADD PUSH2 0xC7C JUMP JUMPDEST SWAP2 POP POP SWAP3 POP SWAP3 SWAP1 POP JUMP JUMPDEST PUSH0 DUP2 MLOAD SWAP1 POP SWAP2 SWAP1 POP JUMP JUMPDEST PUSH0 DUP3 DUP3 MSTORE PUSH1 0x20 DUP3 ADD SWAP1 POP SWAP3 SWAP2 POP POP JUMP JUMPDEST PUSH0 JUMPDEST DUP4 DUP2 LT ISZERO PUSH2 0xD05 JUMPI DUP1 DUP3 ADD MLOAD DUP2 DUP5 ADD MSTORE PUSH1 0x20 DUP2 ADD SWAP1 POP PUSH2 0xCEA JUMP JUMPDEST PUSH0 DUP5 DUP5 ADD MSTORE POP POP POP POP JUMP JUMPDEST PUSH0 PUSH2 0xD1A DUP3 PUSH2 0xCCE JUMP JUMPDEST PUSH2 0xD24 DUP2 DUP6 PUSH2 0xCD8 JUMP JUMPDEST SWAP4 POP PUSH2 0xD34 DUP2 DUP6 PUSH1 0x20 DUP7 ADD PUSH2 0xCE8 JUMP JUMPDEST PUSH2 0xD3D DUP2 PUSH2 0xA36 JUMP JUMPDEST DUP5 ADD SWAP2 POP POP SWAP3 SWAP2 POP POP JUMP JUMPDEST PUSH0 PUSH1 0x20 DUP3 ADD SWAP1 POP DUP2 DUP2 SUB PUSH0 DUP4 ADD MSTORE PUSH2 0xD60 DUP2 DUP5 PUSH2 0xD10 JUMP JUMPDEST SWAP1 POP SWAP3 SWAP2 POP POP JUMP JUMPDEST PUSH0 PUSH1 0x20 DUP3 DUP5 SUB SLT ISZERO PUSH2 0xD7D JUMPI PUSH2 0xD7C PUSH2 0x96E JUMP JUMPDEST JUMPDEST PUSH0 PUSH2 0xD8A DUP5 DUP3 DUP6 ADD PUSH2 0xBF8 JUMP JUMPDEST SWAP2 POP POP SWAP3 SWAP2 POP POP JUMP JUMPDEST PUSH2 0xD9C DUP2 PUSH2 0x995 JUMP JUMPDEST DUP3 MSTORE POP POP JUMP JUMPDEST PUSH0 PUSH1 0x20 DUP3 ADD SWAP1 POP PUSH2 0xDB5 PUSH0 DUP4 ADD DUP5 PUSH2 0xD93 JUMP JUMPDEST SWAP3 SWAP2 POP POP JUMP JUMPDEST PUSH0 DUP2 MLOAD SWAP1 POP SWAP2 SWAP1 POP JUMP JUMPDEST PUSH0 DUP3 DUP3 MSTORE PUSH1 0x20 DUP3 ADD SWAP1 POP SWAP3 SWAP2 POP POP JUMP JUMPDEST PUSH0 DUP2 SWAP1 POP PUSH1 0x20 DUP3 ADD SWAP1 POP SWAP2 SWAP1 POP JUMP JUMPDEST PUSH0 DUP3 DUP3 MSTORE PUSH1 0x20 DUP3 ADD SWAP1 POP SWAP3 SWAP2 POP POP JUMP JUMPDEST PUSH0 PUSH2 0xDFE DUP3 PUSH2 0xCCE JUMP JUMPDEST PUSH2 0xE08 DUP2 DUP6 PUSH2 0xDE4 JUMP JUMPDEST SWAP4 POP PUSH2 0xE18 DUP2 DUP6 PUSH1 0x20 DUP7 ADD PUSH2 0xCE8 JUMP JUMPDEST PUSH2 0xE21 DUP2 PUSH2 0xA36 JUMP JUMPDEST DUP5 ADD SWAP2 POP POP SWAP3 SWAP2 POP POP JUMP JUMPDEST PUSH0 PUSH2 0xE37 DUP4 DUP4 PUSH2 0xDF4 JUMP JUMPDEST SWAP1 POP SWAP3 SWAP2 POP POP JUMP JUMPDEST PUSH0 PUSH1 0x20 DUP3 ADD SWAP1 POP SWAP2 SWAP1 POP JUMP JUMPDEST PUSH0 PUSH2 0xE55 DUP3 PUSH2 0xDBB JUMP JUMPDEST PUSH2 0xE5F DUP2 DUP6 PUSH2 0xDC5 JUMP JUMPDEST SWAP4 POP DUP4 PUSH1 0x20 DUP3 MUL DUP6 ADD PUSH2 0xE71 DUP6 PUSH2 0xDD5 JUMP JUMPDEST DUP1 PUSH0 JUMPDEST DUP6 DUP2 LT ISZERO PUSH2 0xEAC JUMPI DUP5 DUP5 SUB DUP10 MSTORE DUP2 MLOAD PUSH2 0xE8D DUP6 DUP3 PUSH2 0xE2C JUMP JUMPDEST SWAP5 POP PUSH2 0xE98 DUP4 PUSH2 0xE3F JUMP JUMPDEST SWAP3 POP PUSH1 0x20 DUP11 ADD SWAP10 POP POP PUSH1 0x1 DUP2 ADD SWAP1 POP PUSH2 0xE74 JUMP JUMPDEST POP DUP3 SWAP8 POP DUP8 SWAP6 POP POP POP POP POP POP SWAP3 SWAP2 POP POP JUMP JUMPDEST PUSH0 PUSH1 0x20 DUP3 ADD SWAP1 POP DUP2 DUP2 SUB PUSH0 DUP4 ADD MSTORE PUSH2 0xED6 DUP2 DUP5 PUSH2 0xE4B JUMP JUMPDEST SWAP1 POP SWAP3 SWAP2 POP POP JUMP JUMPDEST PUSH32 0x4E487B7100000000000000000000000000000000000000000000000000000000 PUSH0 MSTORE PUSH1 0x22 PUSH1 0x4 MSTORE PUSH1 0x24 PUSH0 REVERT JUMPDEST PUSH0 PUSH1 0x2 DUP3 DIV SWAP1 POP PUSH1 0x1 DUP3 AND DUP1 PUSH2 0xF22 JUMPI PUSH1 0x7F DUP3 AND SWAP2 POP JUMPDEST PUSH1 0x20 DUP3 LT DUP2 SUB PUSH2 0xF35 JUMPI PUSH2 0xF34 PUSH2 0xEDE JUMP JUMPDEST JUMPDEST POP SWAP2 SWAP1 POP JUMP JUMPDEST PUSH0 DUP2 SWAP1 POP DUP2 PUSH0 MSTORE PUSH1 0x20 PUSH0 KECCAK256 SWAP1 POP SWAP2 SWAP1 POP JUMP JUMPDEST PUSH0 PUSH1 0x20 PUSH1 0x1F DUP4 ADD DIV SWAP1 POP SWAP2 SWAP1 POP JUMP JUMPDEST PUSH0 DUP3 DUP3 SHL SWAP1 POP SWAP3 SWAP2 POP POP JUMP JUMPDEST PUSH0 PUSH1 0x8 DUP4 MUL PUSH2 0xF97 PUSH32 0xFFFFFFFFFFFFFFFFFFFFFFFFFFFFFFFFFFFFFFFFFFFFFFFFFFFFFFFFFFFFFFFF DUP3 PUSH2 0xF5C JUMP JUMPDEST PUSH2 0xFA1 DUP7 DUP4 PUSH2 0xF5C JUMP JUMPDEST SWAP6 POP DUP1 NOT DUP5 AND SWAP4 POP DUP1 DUP7 AND DUP5 OR SWAP3 POP POP POP SWAP4 SWAP3 POP POP POP JUMP JUMPDEST PUSH0 DUP2 SWAP1 POP SWAP2 SWAP1 POP JUMP JUMPDEST PUSH0 PUSH2 0xFDC PUSH2 0xFD7 PUSH2 0xFD2 DUP5 PUSH2 0xBB1 JUMP JUMPDEST PUSH2 0xFB9 JUMP JUMPDEST PUSH2 0xBB1 JUMP JUMPDEST SWAP1 POP SWAP2 SWAP1 POP JUMP JUMPDEST PUSH0 DUP2 SWAP1 POP SWAP2 SWAP1 POP JUMP JUMPDEST PUSH2 0xFF5 DUP4 PUSH2 0xFC2 JUMP JUMPDEST PUSH2 0x1009 PUSH2 0x1001 DUP3 PUSH2 0xFE3 JUMP JUMPDEST DUP5 DUP5 SLOAD PUSH2 0xF68 JUMP JUMPDEST DUP3 SSTORE POP POP POP POP JUMP JUMPDEST PUSH0 SWAP1 JUMP JUMPDEST PUSH2 0x101D PUSH2 0x1011 JUMP JUMPDEST PUSH2 0x1028 DUP2 DUP5 DUP5 PUSH2 0xFEC JUMP JUMPDEST POP POP POP JUMP JUMPDEST JUMPDEST DUP2 DUP2 LT ISZERO PUSH2 0x104B JUMPI PUSH2 0x1040 PUSH0 DUP3 PUSH2 0x1015 JUMP JUMPDEST PUSH1 0x1 DUP2 ADD SWAP1 POP PUSH2 0x102E JUMP JUMPDEST POP POP JUMP JUMPDEST PUSH1 0x1F DUP3 GT ISZERO PUSH2 0x1090 JUMPI PUSH2 0x1061 DUP2 PUSH2 0xF3B JUMP JUMPDEST PUSH2 0x106A DUP5 PUSH2 0xF4D JUMP JUMPDEST DUP2 ADD PUSH1 0x20 DUP6 LT ISZERO PUSH2 0x1079 JUMPI DUP2 SWAP1 POP JUMPDEST PUSH2 0x108D PUSH2 0x1085 DUP6 PUSH2 0xF4D JUMP JUMPDEST DUP4 ADD DUP3 PUSH2 0x102D JUMP JUMPDEST POP POP JUMPDEST POP POP POP JUMP JUMPDEST PUSH0 DUP3 DUP3 SHR SWAP1 POP SWAP3 SWAP2 POP POP JUMP JUMPDEST PUSH0 PUSH2 0x10B0 PUSH0 NOT DUP5 PUSH1 0x8 MUL PUSH2 0x1095 JUMP JUMPDEST NOT DUP1 DUP4 AND SWAP2 POP POP SWAP3 SWAP2 POP POP JUMP JUMPDEST PUSH0 PUSH2 0x10C8 DUP4 DUP4 PUSH2 0x10A1 JUMP JUMPDEST SWAP2 POP DUP3 PUSH1 0x2 MUL DUP3 OR SWAP1 POP SWAP3 SWAP2 POP POP JUMP JUMPDEST PUSH2 0x10E1 DUP3 PUSH2 0xCCE JUMP JUMPDEST PUSH8 0xFFFFFFFFFFFFFFFF DUP2 GT ISZERO PUSH2 0x10FA JUMPI PUSH2 0x10F9 PUSH2 0xA46 JUMP JUMPDEST JUMPDEST PUSH2 0x1104 DUP3 SLOAD PUSH2 0xF0B JUMP JUMPDEST PUSH2 0x110F DUP3 DUP3 DUP6 PUSH2 0x104F JUMP JUMPDEST PUSH0 PUSH1 0x20 SWAP1 POP PUSH1 0x1F DUP4 GT PUSH1 0x1 DUP2 EQ PUSH2 0x1140 JUMPI PUSH0 DUP5 ISZERO PUSH2 0x112E JUMPI DUP3 DUP8 ADD MLOAD SWAP1 POP JUMPDEST PUSH2 0x1138 DUP6 DUP3 PUSH2 0x10BD JUMP JUMPDEST DUP7 SSTORE POP PUSH2 0x119F JUMP JUMPDEST PUSH1 0x1F NOT DUP5 AND PUSH2 0x114E DUP7 PUSH2 0xF3B JUMP JUMPDEST PUSH0 JUMPDEST DUP3 DUP2 LT ISZERO PUSH2 0x1175 JUMPI DUP5 DUP10 ADD MLOAD DUP3 SSTORE PUSH1 0x1 DUP3 ADD SWAP2 POP PUSH1 0x20 DUP6 ADD SWAP5 POP PUSH1 0x20 DUP2 ADD SWAP1 POP PUSH2 0x1150 JUMP JUMPDEST DUP7 DUP4 LT ISZERO PUSH2 0x1192 JUMPI DUP5 DUP10 ADD MLOAD PUSH2 0x118E PUSH1 0x1F DUP10 AND DUP3 PUSH2 0x10A1 JUMP JUMPDEST DUP4 SSTORE POP JUMPDEST PUSH1 0x1 PUSH1 0x2 DUP9 MUL ADD DUP9 SSTORE POP POP POP JUMPDEST POP POP POP POP POP POP JUMP JUMPDEST PUSH32 0x4E487B7100000000000000000000000000000000000000000000000000000000 PUSH0 MSTORE PUSH1 0x11 PUSH1 0x4 MSTORE PUSH1 0x24 PUSH0 REVERT JUMPDEST PUSH0 PUSH2 0x11DE DUP3 PUSH2 0xBB1 JUMP JUMPDEST SWAP2 POP PUSH32 0xFFFFFFFFFFFFFFFFFFFFFFFFFFFFFFFFFFFFFFFFFFFFFFFFFFFFFFFFFFFFFFFF DUP3 SUB PUSH2 0x1210 JUMPI PUSH2 0x120F PUSH2 0x11A7 JUMP JUMPDEST JUMPDEST PUSH1 0x1 DUP3 ADD SWAP1 POP SWAP2 SWAP1 POP JUMP JUMPDEST PUSH32 0x4E487B7100000000000000000000000000000000000000000000000000000000 PUSH0 MSTORE PUSH1 0x32 PUSH1 0x4 MSTORE PUSH1 0x24 PUSH0 REVERT JUMPDEST PUSH0 PUSH1 0x40 DUP3 ADD SWAP1 POP PUSH2 0x125B PUSH0 DUP4 ADD DUP6 PUSH2 0xBBA JUMP JUMPDEST DUP2 DUP2 SUB PUSH1 0x20 DUP4 ADD MSTORE PUSH2 0x126D DUP2 DUP5 PUSH2 0xD10 JUMP JUMPDEST SWAP1 POP SWAP4 SWAP3 POP POP POP JUMP JUMPDEST PUSH0 PUSH1 0x40 DUP3 ADD SWAP1 POP PUSH2 0x1289 PUSH0 DUP4 ADD DUP6 PUSH2 0xD93 JUMP JUMPDEST PUSH2 0x1296 PUSH1 0x20 DUP4 ADD DUP5 PUSH2 0xD93 JUMP JUMPDEST SWAP4 SWAP3 POP POP POP JUMP JUMPDEST PUSH0 PUSH2 0x12A7 DUP3 PUSH2 0xBB1 JUMP JUMPDEST SWAP2 POP PUSH2 0x12B2 DUP4 PUSH2 0xBB1 JUMP JUMPDEST SWAP3 POP DUP3 DUP3 SUB SWAP1 POP DUP2 DUP2 GT ISZERO PUSH2 0x12CA JUMPI PUSH2 0x12C9 PUSH2 0x11A7 JUMP JUMPDEST JUMPDEST SWAP3 SWAP2 POP POP JUMP INVALID LOG2 PUSH5 0x6970667358 0x22 SLT KECCAK256 MSTORE 0xBC 0x26 PUSH21 0x4C43DA02011F2CC1B5D8E1E65F59AB2AD49FCF26B CALLVALUE LOG2 RETURNDATACOPY 0xD NUMBER CALLER 0xD0 PUSH5 0x736F6C6343 STOP ADDMOD EQ STOP CALLER "
				},
				"gasEstimates": {
					"creation": {
						"codeDepositCost": "974000",
						"executionCost": "56771",
						"totalCost": "1030771"
					},
					"external": {
						"addInfo(string)": "infinite",
						"addWhitelistItem(address,bool)": "infinite",
						"countChanges()": "2470",
						"deleteWhitelistItem(address)": "infinite",
						"getCompleteArray()": "infinite",
						"getIndexInfo(uint256)": "infinite",
						"getLastInfo()": "infinite",
						"s_owner()": "2593",
						"s_whitelist(address)": "2834",
						"storedInfo(uint256)": "infinite",
						"updateInfo(uint256,string)": "infinite"
					}
				},
				"methodIdentifiers": {
					"addInfo(string)": "0bf803e4",
					"addWhitelistItem(address,bool)": "63440301",
					"countChanges()": "2af2bc27",
					"deleteWhitelistItem(address)": "dbde10d7",
					"getCompleteArray()": "f5524fba",
					"getIndexInfo(uint256)": "b81155b5",
					"getLastInfo()": "78e5da07",
					"s_owner()": "e3978240",
					"s_whitelist(address)": "002d4da6",
					"storedInfo(uint256)": "8811c669",
					"updateInfo(uint256,string)": "50c00197"
				}
			},
			"storageLayout": {
				"storage": [
					{
						"astId": 14,
						"contract": "Exercicio7.sol:Exercicio7Guba",
						"label": "s_owner",
						"offset": 0,
						"slot": "0",
						"type": "t_address"
					},
					{
						"astId": 17,
						"contract": "Exercicio7.sol:Exercicio7Guba",
						"label": "storedInfo",
						"offset": 0,
						"slot": "1",
						"type": "t_array(t_string_storage)dyn_storage"
					},
					{
						"astId": 20,
						"contract": "Exercicio7.sol:Exercicio7Guba",
						"label": "countChanges",
						"offset": 0,
						"slot": "2",
						"type": "t_uint256"
					},
					{
						"astId": 24,
						"contract": "Exercicio7.sol:Exercicio7Guba",
						"label": "s_whitelist",
						"offset": 0,
						"slot": "3",
						"type": "t_mapping(t_address,t_bool)"
					}
				],
				"types": {
					"t_address": {
						"encoding": "inplace",
						"label": "address",
						"numberOfBytes": "20"
					},
					"t_array(t_string_storage)dyn_storage": {
						"base": "t_string_storage",
						"encoding": "dynamic_array",
						"label": "string[]",
						"numberOfBytes": "32"
					},
					"t_bool": {
						"encoding": "inplace",
						"label": "bool",
						"numberOfBytes": "1"
					},
					"t_mapping(t_address,t_bool)": {
						"encoding": "mapping",
						"key": "t_address",
						"label": "mapping(address => bool)",
						"numberOfBytes": "32",
						"value": "t_bool"
					},
					"t_string_storage": {
						"encoding": "bytes",
						"label": "string",
						"numberOfBytes": "32"
					},
					"t_uint256": {
						"encoding": "inplace",
						"label": "uint256",
						"numberOfBytes": "32"
					}
				}
			},
			"userdoc": {
				"kind": "user",
				"methods": {
					"addInfo(string)": {
						"notice": "Store `myInfo` Increase the counter which manage how many times storedInfo is updated"
					},
					"getIndexInfo(uint256)": {
						"notice": "Return the stored string"
					}
				},
				"version": 1
			}
		}
	}
}