{
	"ExemploDeStruct.sol": {
		"ExemploDeStruct": {
			"abi": [
				{
					"inputs": [
						{
							"internalType": "uint256",
							"name": "_idade",
							"type": "uint256"
						}
					],
					"name": "atualizarIdade",
					"outputs": [],
					"stateMutability": "nonpayable",
					"type": "function"
				},
				{
					"inputs": [
						{
							"internalType": "string",
							"name": "_nome",
							"type": "string"
						},
						{
							"internalType": "uint256",
							"name": "_idade",
							"type": "uint256"
						}
					],
					"name": "criarPessoa",
					"outputs": [],
					"stateMutability": "nonpayable",
					"type": "function"
				},
				{
					"inputs": [
						{
							"internalType": "address",
							"name": "wallet",
							"type": "address"
						}
					],
					"name": "s_mappingPessoa",
					"outputs": [
						{
							"internalType": "string",
							"name": "nome",
							"type": "string"
						},
						{
							"internalType": "uint256",
							"name": "idade",
							"type": "uint256"
						},
						{
							"internalType": "bool",
							"name": "ativo",
							"type": "bool"
						}
					],
					"stateMutability": "view",
					"type": "function"
				},
				{
					"inputs": [],
					"name": "s_pessoa",
					"outputs": [
						{
							"internalType": "string",
							"name": "nome",
							"type": "string"
						},
						{
							"internalType": "uint256",
							"name": "idade",
							"type": "uint256"
						},
						{
							"internalType": "bool",
							"name": "ativo",
							"type": "bool"
						}
					],
					"stateMutability": "view",
					"type": "function"
				},
				{
					"inputs": [
						{
							"internalType": "uint256",
							"name": "",
							"type": "uint256"
						}
					],
					"name": "s_pessoas",
					"outputs": [
						{
							"internalType": "string",
							"name": "nome",
							"type": "string"
						},
						{
							"internalType": "uint256",
							"name": "idade",
							"type": "uint256"
						},
						{
							"internalType": "bool",
							"name": "ativo",
							"type": "bool"
						}
					],
					"stateMutability": "view",
					"type": "function"
				}
			],
			"devdoc": {
				"kind": "dev",
				"methods": {},
				"version": 1
			},
			"evm": {
				"assembly": "    /* \"ExemploDeStruct.sol\":58:700  contract ExemploDeStruct {... */\n  mstore(0x40, 0x80)\n  callvalue\n  dup1\n  iszero\n  tag_1\n  jumpi\n  0x00\n  dup1\n  revert\ntag_1:\n  pop\n  dataSize(sub_0)\n  dup1\n  dataOffset(sub_0)\n  0x00\n  codecopy\n  0x00\n  return\nstop\n\nsub_0: assembly {\n        /* \"ExemploDeStruct.sol\":58:700  contract ExemploDeStruct {... */\n      mstore(0x40, 0x80)\n      callvalue\n      dup1\n      iszero\n      tag_1\n      jumpi\n      0x00\n      dup1\n      revert\n    tag_1:\n      pop\n      jumpi(tag_2, lt(calldatasize, 0x04))\n      shr(0xe0, calldataload(0x00))\n      dup1\n      0x28c45a83\n      eq\n      tag_3\n      jumpi\n      dup1\n      0x36108f3f\n      eq\n      tag_4\n      jumpi\n      dup1\n      0x3844c8c1\n      eq\n      tag_5\n      jumpi\n      dup1\n      0x8007891f\n      eq\n      tag_6\n      jumpi\n      dup1\n      0x822c8f9b\n      eq\n      tag_7\n      jumpi\n    tag_2:\n      0x00\n      dup1\n      revert\n        /* \"ExemploDeStruct.sol\":207:229  Pessoa public s_pessoa */\n    tag_3:\n      tag_8\n      tag_9\n      jump\t// in\n    tag_8:\n      mload(0x40)\n      tag_10\n      swap4\n      swap3\n      swap2\n      swap1\n      tag_11\n      jump\t// in\n    tag_10:\n      mload(0x40)\n      dup1\n      swap2\n      sub\n      swap1\n      return\n        /* \"ExemploDeStruct.sol\":266:322  mapping(address wallet => Pessoa) public s_mappingPessoa */\n    tag_4:\n      tag_12\n      0x04\n      dup1\n      calldatasize\n      sub\n      dup2\n      add\n      swap1\n      tag_13\n      swap2\n      swap1\n      tag_14\n      jump\t// in\n    tag_13:\n      tag_15\n      jump\t// in\n    tag_12:\n      mload(0x40)\n      tag_16\n      swap4\n      swap3\n      swap2\n      swap1\n      tag_11\n      jump\t// in\n    tag_16:\n      mload(0x40)\n      dup1\n      swap2\n      sub\n      swap1\n      return\n        /* \"ExemploDeStruct.sol\":235:260  Pessoa[] public s_pessoas */\n    tag_5:\n      tag_17\n      0x04\n      dup1\n      calldatasize\n      sub\n      dup2\n      add\n      swap1\n      tag_18\n      swap2\n      swap1\n      tag_19\n      jump\t// in\n    tag_18:\n      tag_20\n      jump\t// in\n    tag_17:\n      mload(0x40)\n      tag_21\n      swap4\n      swap3\n      swap2\n      swap1\n      tag_11\n      jump\t// in\n    tag_21:\n      mload(0x40)\n      dup1\n      swap2\n      sub\n      swap1\n      return\n        /* \"ExemploDeStruct.sol\":614:698  function atualizarIdade(uint _idade) public {... */\n    tag_6:\n      tag_22\n      0x04\n      dup1\n      calldatasize\n      sub\n      dup2\n      add\n      swap1\n      tag_23\n      swap2\n      swap1\n      tag_19\n      jump\t// in\n    tag_23:\n      tag_24\n      jump\t// in\n    tag_22:\n      stop\n        /* \"ExemploDeStruct.sol\":373:558  function criarPessoa(string memory _nome, uint _idade) public {... */\n    tag_7:\n      tag_25\n      0x04\n      dup1\n      calldatasize\n      sub\n      dup2\n      add\n      swap1\n      tag_26\n      swap2\n      swap1\n      tag_27\n      jump\t// in\n    tag_26:\n      tag_28\n      jump\t// in\n    tag_25:\n      stop\n        /* \"ExemploDeStruct.sol\":207:229  Pessoa public s_pessoa */\n    tag_9:\n      0x00\n      dup1\n      0x00\n      add\n      dup1\n      sload\n      tag_29\n      swap1\n      tag_30\n      jump\t// in\n    tag_29:\n      dup1\n      0x1f\n      add\n      0x20\n      dup1\n      swap2\n      div\n      mul\n      0x20\n      add\n      mload(0x40)\n      swap1\n      dup2\n      add\n      0x40\n      mstore\n      dup1\n      swap3\n      swap2\n      swap1\n      dup2\n      dup2\n      mstore\n      0x20\n      add\n      dup3\n      dup1\n      sload\n      tag_31\n      swap1\n      tag_30\n      jump\t// in\n    tag_31:\n      dup1\n      iszero\n      tag_32\n      jumpi\n      dup1\n      0x1f\n      lt\n      tag_33\n      jumpi\n      0x0100\n      dup1\n      dup4\n      sload\n      div\n      mul\n      dup4\n      mstore\n      swap2\n      0x20\n      add\n      swap2\n      jump(tag_32)\n    tag_33:\n      dup3\n      add\n      swap2\n      swap1\n      0x00\n      mstore\n      keccak256(0x00, 0x20)\n      swap1\n    tag_34:\n      dup2\n      sload\n      dup2\n      mstore\n      swap1\n      0x01\n      add\n      swap1\n      0x20\n      add\n      dup1\n      dup4\n      gt\n      tag_34\n      jumpi\n      dup3\n      swap1\n      sub\n      0x1f\n      and\n      dup3\n      add\n      swap2\n    tag_32:\n      pop\n      pop\n      pop\n      pop\n      pop\n      swap1\n      dup1\n      0x01\n      add\n      sload\n      swap1\n      dup1\n      0x02\n      add\n      0x00\n      swap1\n      sload\n      swap1\n      0x0100\n      exp\n      swap1\n      div\n      0xff\n      and\n      swap1\n      pop\n      dup4\n      jump\t// out\n        /* \"ExemploDeStruct.sol\":266:322  mapping(address wallet => Pessoa) public s_mappingPessoa */\n    tag_15:\n      mstore(0x20, 0x04)\n      dup1\n      0x00\n      mstore\n      keccak256(0x00, 0x40)\n      0x00\n      swap2\n      pop\n      swap1\n      pop\n      dup1\n      0x00\n      add\n      dup1\n      sload\n      tag_35\n      swap1\n      tag_30\n      jump\t// in\n    tag_35:\n      dup1\n      0x1f\n      add\n      0x20\n      dup1\n      swap2\n      div\n      mul\n      0x20\n      add\n      mload(0x40)\n      swap1\n      dup2\n      add\n      0x40\n      mstore\n      dup1\n      swap3\n      swap2\n      swap1\n      dup2\n      dup2\n      mstore\n      0x20\n      add\n      dup3\n      dup1\n      sload\n      tag_36\n      swap1\n      tag_30\n      jump\t// in\n    tag_36:\n      dup1\n      iszero\n      tag_37\n      jumpi\n      dup1\n      0x1f\n      lt\n      tag_38\n      jumpi\n      0x0100\n      dup1\n      dup4\n      sload\n      div\n      mul\n      dup4\n      mstore\n      swap2\n      0x20\n      add\n      swap2\n      jump(tag_37)\n    tag_38:\n      dup3\n      add\n      swap2\n      swap1\n      0x00\n      mstore\n      keccak256(0x00, 0x20)\n      swap1\n    tag_39:\n      dup2\n      sload\n      dup2\n      mstore\n      swap1\n      0x01\n      add\n      swap1\n      0x20\n      add\n      dup1\n      dup4\n      gt\n      tag_39\n      jumpi\n      dup3\n      swap1\n      sub\n      0x1f\n      and\n      dup3\n      add\n      swap2\n    tag_37:\n      pop\n      pop\n      pop\n      pop\n      pop\n      swap1\n      dup1\n      0x01\n      add\n      sload\n      swap1\n      dup1\n      0x02\n      add\n      0x00\n      swap1\n      sload\n      swap1\n      0x0100\n      exp\n      swap1\n      div\n      0xff\n      and\n      swap1\n      pop\n      dup4\n      jump\t// out\n        /* \"ExemploDeStruct.sol\":235:260  Pessoa[] public s_pessoas */\n    tag_20:\n      0x03\n      dup2\n      dup2\n      sload\n      dup2\n      lt\n      tag_40\n      jumpi\n      0x00\n      dup1\n      revert\n    tag_40:\n      swap1\n      0x00\n      mstore\n      keccak256(0x00, 0x20)\n      swap1\n      0x03\n      mul\n      add\n      0x00\n      swap2\n      pop\n      swap1\n      pop\n      dup1\n      0x00\n      add\n      dup1\n      sload\n      tag_42\n      swap1\n      tag_30\n      jump\t// in\n    tag_42:\n      dup1\n      0x1f\n      add\n      0x20\n      dup1\n      swap2\n      div\n      mul\n      0x20\n      add\n      mload(0x40)\n      swap1\n      dup2\n      add\n      0x40\n      mstore\n      dup1\n      swap3\n      swap2\n      swap1\n      dup2\n      dup2\n      mstore\n      0x20\n      add\n      dup3\n      dup1\n      sload\n      tag_43\n      swap1\n      tag_30\n      jump\t// in\n    tag_43:\n      dup1\n      iszero\n      tag_44\n      jumpi\n      dup1\n      0x1f\n      lt\n      tag_45\n      jumpi\n      0x0100\n      dup1\n      dup4\n      sload\n      div\n      mul\n      dup4\n      mstore\n      swap2\n      0x20\n      add\n      swap2\n      jump(tag_44)\n    tag_45:\n      dup3\n      add\n      swap2\n      swap1\n      0x00\n      mstore\n      keccak256(0x00, 0x20)\n      swap1\n    tag_46:\n      dup2\n      sload\n      dup2\n      mstore\n      swap1\n      0x01\n      add\n      swap1\n      0x20\n      add\n      dup1\n      dup4\n      gt\n      tag_46\n      jumpi\n      dup3\n      swap1\n      sub\n      0x1f\n      and\n      dup3\n      add\n      swap2\n    tag_44:\n      pop\n      pop\n      pop\n      pop\n      pop\n      swap1\n      dup1\n      0x01\n      add\n      sload\n      swap1\n      dup1\n      0x02\n      add\n      0x00\n      swap1\n      sload\n      swap1\n      0x0100\n      exp\n      swap1\n      div\n      0xff\n      and\n      swap1\n      pop\n      dup4\n      jump\t// out\n        /* \"ExemploDeStruct.sol\":614:698  function atualizarIdade(uint _idade) public {... */\n    tag_24:\n        /* \"ExemploDeStruct.sol\":685:691  _idade */\n      dup1\n        /* \"ExemploDeStruct.sol\":668:676  s_pessoa */\n      0x00\n        /* \"ExemploDeStruct.sol\":668:682  s_pessoa.idade */\n      0x01\n      add\n        /* \"ExemploDeStruct.sol\":668:691  s_pessoa.idade = _idade */\n      dup2\n      swap1\n      sstore\n      pop\n        /* \"ExemploDeStruct.sol\":614:698  function atualizarIdade(uint _idade) public {... */\n      pop\n      jump\t// out\n        /* \"ExemploDeStruct.sol\":373:558  function criarPessoa(string memory _nome, uint _idade) public {... */\n    tag_28:\n        /* \"ExemploDeStruct.sol\":456:551  Pessoa({... */\n      mload(0x40)\n      dup1\n      0x60\n      add\n      0x40\n      mstore\n      dup1\n        /* \"ExemploDeStruct.sol\":483:488  _nome */\n      dup4\n        /* \"ExemploDeStruct.sol\":456:551  Pessoa({... */\n      dup2\n      mstore\n      0x20\n      add\n        /* \"ExemploDeStruct.sol\":509:515  _idade */\n      dup3\n        /* \"ExemploDeStruct.sol\":456:551  Pessoa({... */\n      dup2\n      mstore\n      0x20\n      add\n        /* \"ExemploDeStruct.sol\":536:540  true */\n      0x01\n        /* \"ExemploDeStruct.sol\":456:551  Pessoa({... */\n      iszero\n      iszero\n      dup2\n      mstore\n      pop\n        /* \"ExemploDeStruct.sol\":445:453  s_pessoa */\n      0x00\n        /* \"ExemploDeStruct.sol\":445:551  s_pessoa = Pessoa({... */\n      dup1\n      dup3\n      add\n      mload\n      dup2\n      0x00\n      add\n      swap1\n      dup2\n      tag_49\n      swap2\n      swap1\n      tag_50\n      jump\t// in\n    tag_49:\n      pop\n      0x20\n      dup3\n      add\n      mload\n      dup2\n      0x01\n      add\n      sstore\n      0x40\n      dup3\n      add\n      mload\n      dup2\n      0x02\n      add\n      exp(0x0100, 0x00)\n      dup2\n      sload\n      dup2\n      0xff\n      mul\n      not\n      and\n      swap1\n      dup4\n      iszero\n      iszero\n      mul\n      or\n      swap1\n      sstore\n      pop\n      swap1\n      pop\n      pop\n        /* \"ExemploDeStruct.sol\":373:558  function criarPessoa(string memory _nome, uint _idade) public {... */\n      pop\n      pop\n      jump\t// out\n        /* \"#utility.yul\":7:106   */\n    tag_51:\n        /* \"#utility.yul\":59:65   */\n      0x00\n        /* \"#utility.yul\":93:98   */\n      dup2\n        /* \"#utility.yul\":87:99   */\n      mload\n        /* \"#utility.yul\":77:99   */\n      swap1\n      pop\n        /* \"#utility.yul\":7:106   */\n      swap2\n      swap1\n      pop\n      jump\t// out\n        /* \"#utility.yul\":112:281   */\n    tag_52:\n        /* \"#utility.yul\":196:207   */\n      0x00\n        /* \"#utility.yul\":230:236   */\n      dup3\n        /* \"#utility.yul\":225:228   */\n      dup3\n        /* \"#utility.yul\":218:237   */\n      mstore\n        /* \"#utility.yul\":270:274   */\n      0x20\n        /* \"#utility.yul\":265:268   */\n      dup3\n        /* \"#utility.yul\":261:275   */\n      add\n        /* \"#utility.yul\":246:275   */\n      swap1\n      pop\n        /* \"#utility.yul\":112:281   */\n      swap3\n      swap2\n      pop\n      pop\n      jump\t// out\n        /* \"#utility.yul\":287:426   */\n    tag_53:\n        /* \"#utility.yul\":376:382   */\n      dup3\n        /* \"#utility.yul\":371:374   */\n      dup2\n        /* \"#utility.yul\":366:369   */\n      dup4\n        /* \"#utility.yul\":360:383   */\n      mcopy\n        /* \"#utility.yul\":417:418   */\n      0x00\n        /* \"#utility.yul\":408:414   */\n      dup4\n        /* \"#utility.yul\":403:406   */\n      dup4\n        /* \"#utility.yul\":399:415   */\n      add\n        /* \"#utility.yul\":392:419   */\n      mstore\n        /* \"#utility.yul\":287:426   */\n      pop\n      pop\n      pop\n      jump\t// out\n        /* \"#utility.yul\":432:534   */\n    tag_54:\n        /* \"#utility.yul\":473:479   */\n      0x00\n        /* \"#utility.yul\":524:526   */\n      0x1f\n        /* \"#utility.yul\":520:527   */\n      not\n        /* \"#utility.yul\":515:517   */\n      0x1f\n        /* \"#utility.yul\":508:513   */\n      dup4\n        /* \"#utility.yul\":504:518   */\n      add\n        /* \"#utility.yul\":500:528   */\n      and\n        /* \"#utility.yul\":490:528   */\n      swap1\n      pop\n        /* \"#utility.yul\":432:534   */\n      swap2\n      swap1\n      pop\n      jump\t// out\n        /* \"#utility.yul\":540:917   */\n    tag_55:\n        /* \"#utility.yul\":628:631   */\n      0x00\n        /* \"#utility.yul\":656:695   */\n      tag_100\n        /* \"#utility.yul\":689:694   */\n      dup3\n        /* \"#utility.yul\":656:695   */\n      tag_51\n      jump\t// in\n    tag_100:\n        /* \"#utility.yul\":711:782   */\n      tag_101\n        /* \"#utility.yul\":775:781   */\n      dup2\n        /* \"#utility.yul\":770:773   */\n      dup6\n        /* \"#utility.yul\":711:782   */\n      tag_52\n      jump\t// in\n    tag_101:\n        /* \"#utility.yul\":704:782   */\n      swap4\n      pop\n        /* \"#utility.yul\":791:856   */\n      tag_102\n        /* \"#utility.yul\":849:855   */\n      dup2\n        /* \"#utility.yul\":844:847   */\n      dup6\n        /* \"#utility.yul\":837:841   */\n      0x20\n        /* \"#utility.yul\":830:835   */\n      dup7\n        /* \"#utility.yul\":826:842   */\n      add\n        /* \"#utility.yul\":791:856   */\n      tag_53\n      jump\t// in\n    tag_102:\n        /* \"#utility.yul\":881:910   */\n      tag_103\n        /* \"#utility.yul\":903:909   */\n      dup2\n        /* \"#utility.yul\":881:910   */\n      tag_54\n      jump\t// in\n    tag_103:\n        /* \"#utility.yul\":876:879   */\n      dup5\n        /* \"#utility.yul\":872:911   */\n      add\n        /* \"#utility.yul\":865:911   */\n      swap2\n      pop\n        /* \"#utility.yul\":632:917   */\n      pop\n        /* \"#utility.yul\":540:917   */\n      swap3\n      swap2\n      pop\n      pop\n      jump\t// out\n        /* \"#utility.yul\":923:1000   */\n    tag_56:\n        /* \"#utility.yul\":960:967   */\n      0x00\n        /* \"#utility.yul\":989:994   */\n      dup2\n        /* \"#utility.yul\":978:994   */\n      swap1\n      pop\n        /* \"#utility.yul\":923:1000   */\n      swap2\n      swap1\n      pop\n      jump\t// out\n        /* \"#utility.yul\":1006:1124   */\n    tag_57:\n        /* \"#utility.yul\":1093:1117   */\n      tag_106\n        /* \"#utility.yul\":1111:1116   */\n      dup2\n        /* \"#utility.yul\":1093:1117   */\n      tag_56\n      jump\t// in\n    tag_106:\n        /* \"#utility.yul\":1088:1091   */\n      dup3\n        /* \"#utility.yul\":1081:1118   */\n      mstore\n        /* \"#utility.yul\":1006:1124   */\n      pop\n      pop\n      jump\t// out\n        /* \"#utility.yul\":1130:1220   */\n    tag_58:\n        /* \"#utility.yul\":1164:1171   */\n      0x00\n        /* \"#utility.yul\":1207:1212   */\n      dup2\n        /* \"#utility.yul\":1200:1213   */\n      iszero\n        /* \"#utility.yul\":1193:1214   */\n      iszero\n        /* \"#utility.yul\":1182:1214   */\n      swap1\n      pop\n        /* \"#utility.yul\":1130:1220   */\n      swap2\n      swap1\n      pop\n      jump\t// out\n        /* \"#utility.yul\":1226:1335   */\n    tag_59:\n        /* \"#utility.yul\":1307:1328   */\n      tag_109\n        /* \"#utility.yul\":1322:1327   */\n      dup2\n        /* \"#utility.yul\":1307:1328   */\n      tag_58\n      jump\t// in\n    tag_109:\n        /* \"#utility.yul\":1302:1305   */\n      dup3\n        /* \"#utility.yul\":1295:1329   */\n      mstore\n        /* \"#utility.yul\":1226:1335   */\n      pop\n      pop\n      jump\t// out\n        /* \"#utility.yul\":1341:1862   */\n    tag_11:\n        /* \"#utility.yul\":1504:1508   */\n      0x00\n        /* \"#utility.yul\":1542:1544   */\n      0x60\n        /* \"#utility.yul\":1531:1540   */\n      dup3\n        /* \"#utility.yul\":1527:1545   */\n      add\n        /* \"#utility.yul\":1519:1545   */\n      swap1\n      pop\n        /* \"#utility.yul\":1591:1600   */\n      dup2\n        /* \"#utility.yul\":1585:1589   */\n      dup2\n        /* \"#utility.yul\":1581:1601   */\n      sub\n        /* \"#utility.yul\":1577:1578   */\n      0x00\n        /* \"#utility.yul\":1566:1575   */\n      dup4\n        /* \"#utility.yul\":1562:1579   */\n      add\n        /* \"#utility.yul\":1555:1602   */\n      mstore\n        /* \"#utility.yul\":1619:1697   */\n      tag_111\n        /* \"#utility.yul\":1692:1696   */\n      dup2\n        /* \"#utility.yul\":1683:1689   */\n      dup7\n        /* \"#utility.yul\":1619:1697   */\n      tag_55\n      jump\t// in\n    tag_111:\n        /* \"#utility.yul\":1611:1697   */\n      swap1\n      pop\n        /* \"#utility.yul\":1707:1779   */\n      tag_112\n        /* \"#utility.yul\":1775:1777   */\n      0x20\n        /* \"#utility.yul\":1764:1773   */\n      dup4\n        /* \"#utility.yul\":1760:1778   */\n      add\n        /* \"#utility.yul\":1751:1757   */\n      dup6\n        /* \"#utility.yul\":1707:1779   */\n      tag_57\n      jump\t// in\n    tag_112:\n        /* \"#utility.yul\":1789:1855   */\n      tag_113\n        /* \"#utility.yul\":1851:1853   */\n      0x40\n        /* \"#utility.yul\":1840:1849   */\n      dup4\n        /* \"#utility.yul\":1836:1854   */\n      add\n        /* \"#utility.yul\":1827:1833   */\n      dup5\n        /* \"#utility.yul\":1789:1855   */\n      tag_59\n      jump\t// in\n    tag_113:\n        /* \"#utility.yul\":1341:1862   */\n      swap5\n      swap4\n      pop\n      pop\n      pop\n      pop\n      jump\t// out\n        /* \"#utility.yul\":1868:1943   */\n    tag_60:\n        /* \"#utility.yul\":1901:1907   */\n      0x00\n        /* \"#utility.yul\":1934:1936   */\n      0x40\n        /* \"#utility.yul\":1928:1937   */\n      mload\n        /* \"#utility.yul\":1918:1937   */\n      swap1\n      pop\n        /* \"#utility.yul\":1868:1943   */\n      swap1\n      jump\t// out\n        /* \"#utility.yul\":1949:2066   */\n    tag_61:\n        /* \"#utility.yul\":2058:2059   */\n      0x00\n        /* \"#utility.yul\":2055:2056   */\n      dup1\n        /* \"#utility.yul\":2048:2060   */\n      revert\n        /* \"#utility.yul\":2072:2189   */\n    tag_62:\n        /* \"#utility.yul\":2181:2182   */\n      0x00\n        /* \"#utility.yul\":2178:2179   */\n      dup1\n        /* \"#utility.yul\":2171:2183   */\n      revert\n        /* \"#utility.yul\":2195:2321   */\n    tag_63:\n        /* \"#utility.yul\":2232:2239   */\n      0x00\n        /* \"#utility.yul\":2272:2314   */\n      0xffffffffffffffffffffffffffffffffffffffff\n        /* \"#utility.yul\":2265:2270   */\n      dup3\n        /* \"#utility.yul\":2261:2315   */\n      and\n        /* \"#utility.yul\":2250:2315   */\n      swap1\n      pop\n        /* \"#utility.yul\":2195:2321   */\n      swap2\n      swap1\n      pop\n      jump\t// out\n        /* \"#utility.yul\":2327:2423   */\n    tag_64:\n        /* \"#utility.yul\":2364:2371   */\n      0x00\n        /* \"#utility.yul\":2393:2417   */\n      tag_119\n        /* \"#utility.yul\":2411:2416   */\n      dup3\n        /* \"#utility.yul\":2393:2417   */\n      tag_63\n      jump\t// in\n    tag_119:\n        /* \"#utility.yul\":2382:2417   */\n      swap1\n      pop\n        /* \"#utility.yul\":2327:2423   */\n      swap2\n      swap1\n      pop\n      jump\t// out\n        /* \"#utility.yul\":2429:2551   */\n    tag_65:\n        /* \"#utility.yul\":2502:2526   */\n      tag_121\n        /* \"#utility.yul\":2520:2525   */\n      dup2\n        /* \"#utility.yul\":2502:2526   */\n      tag_64\n      jump\t// in\n    tag_121:\n        /* \"#utility.yul\":2495:2500   */\n      dup2\n        /* \"#utility.yul\":2492:2527   */\n      eq\n        /* \"#utility.yul\":2482:2545   */\n      tag_122\n      jumpi\n        /* \"#utility.yul\":2541:2542   */\n      0x00\n        /* \"#utility.yul\":2538:2539   */\n      dup1\n        /* \"#utility.yul\":2531:2543   */\n      revert\n        /* \"#utility.yul\":2482:2545   */\n    tag_122:\n        /* \"#utility.yul\":2429:2551   */\n      pop\n      jump\t// out\n        /* \"#utility.yul\":2557:2696   */\n    tag_66:\n        /* \"#utility.yul\":2603:2608   */\n      0x00\n        /* \"#utility.yul\":2641:2647   */\n      dup2\n        /* \"#utility.yul\":2628:2648   */\n      calldataload\n        /* \"#utility.yul\":2619:2648   */\n      swap1\n      pop\n        /* \"#utility.yul\":2657:2690   */\n      tag_124\n        /* \"#utility.yul\":2684:2689   */\n      dup2\n        /* \"#utility.yul\":2657:2690   */\n      tag_65\n      jump\t// in\n    tag_124:\n        /* \"#utility.yul\":2557:2696   */\n      swap3\n      swap2\n      pop\n      pop\n      jump\t// out\n        /* \"#utility.yul\":2702:3031   */\n    tag_14:\n        /* \"#utility.yul\":2761:2767   */\n      0x00\n        /* \"#utility.yul\":2810:2812   */\n      0x20\n        /* \"#utility.yul\":2798:2807   */\n      dup3\n        /* \"#utility.yul\":2789:2796   */\n      dup5\n        /* \"#utility.yul\":2785:2808   */\n      sub\n        /* \"#utility.yul\":2781:2813   */\n      slt\n        /* \"#utility.yul\":2778:2897   */\n      iszero\n      tag_126\n      jumpi\n        /* \"#utility.yul\":2816:2895   */\n      tag_127\n      tag_61\n      jump\t// in\n    tag_127:\n        /* \"#utility.yul\":2778:2897   */\n    tag_126:\n        /* \"#utility.yul\":2936:2937   */\n      0x00\n        /* \"#utility.yul\":2961:3014   */\n      tag_128\n        /* \"#utility.yul\":3006:3013   */\n      dup5\n        /* \"#utility.yul\":2997:3003   */\n      dup3\n        /* \"#utility.yul\":2986:2995   */\n      dup6\n        /* \"#utility.yul\":2982:3004   */\n      add\n        /* \"#utility.yul\":2961:3014   */\n      tag_66\n      jump\t// in\n    tag_128:\n        /* \"#utility.yul\":2951:3014   */\n      swap2\n      pop\n        /* \"#utility.yul\":2907:3024   */\n      pop\n        /* \"#utility.yul\":2702:3031   */\n      swap3\n      swap2\n      pop\n      pop\n      jump\t// out\n        /* \"#utility.yul\":3037:3159   */\n    tag_67:\n        /* \"#utility.yul\":3110:3134   */\n      tag_130\n        /* \"#utility.yul\":3128:3133   */\n      dup2\n        /* \"#utility.yul\":3110:3134   */\n      tag_56\n      jump\t// in\n    tag_130:\n        /* \"#utility.yul\":3103:3108   */\n      dup2\n        /* \"#utility.yul\":3100:3135   */\n      eq\n        /* \"#utility.yul\":3090:3153   */\n      tag_131\n      jumpi\n        /* \"#utility.yul\":3149:3150   */\n      0x00\n        /* \"#utility.yul\":3146:3147   */\n      dup1\n        /* \"#utility.yul\":3139:3151   */\n      revert\n        /* \"#utility.yul\":3090:3153   */\n    tag_131:\n        /* \"#utility.yul\":3037:3159   */\n      pop\n      jump\t// out\n        /* \"#utility.yul\":3165:3304   */\n    tag_68:\n        /* \"#utility.yul\":3211:3216   */\n      0x00\n        /* \"#utility.yul\":3249:3255   */\n      dup2\n        /* \"#utility.yul\":3236:3256   */\n      calldataload\n        /* \"#utility.yul\":3227:3256   */\n      swap1\n      pop\n        /* \"#utility.yul\":3265:3298   */\n      tag_133\n        /* \"#utility.yul\":3292:3297   */\n      dup2\n        /* \"#utility.yul\":3265:3298   */\n      tag_67\n      jump\t// in\n    tag_133:\n        /* \"#utility.yul\":3165:3304   */\n      swap3\n      swap2\n      pop\n      pop\n      jump\t// out\n        /* \"#utility.yul\":3310:3639   */\n    tag_19:\n        /* \"#utility.yul\":3369:3375   */\n      0x00\n        /* \"#utility.yul\":3418:3420   */\n      0x20\n        /* \"#utility.yul\":3406:3415   */\n      dup3\n        /* \"#utility.yul\":3397:3404   */\n      dup5\n        /* \"#utility.yul\":3393:3416   */\n      sub\n        /* \"#utility.yul\":3389:3421   */\n      slt\n        /* \"#utility.yul\":3386:3505   */\n      iszero\n      tag_135\n      jumpi\n        /* \"#utility.yul\":3424:3503   */\n      tag_136\n      tag_61\n      jump\t// in\n    tag_136:\n        /* \"#utility.yul\":3386:3505   */\n    tag_135:\n        /* \"#utility.yul\":3544:3545   */\n      0x00\n        /* \"#utility.yul\":3569:3622   */\n      tag_137\n        /* \"#utility.yul\":3614:3621   */\n      dup5\n        /* \"#utility.yul\":3605:3611   */\n      dup3\n        /* \"#utility.yul\":3594:3603   */\n      dup6\n        /* \"#utility.yul\":3590:3612   */\n      add\n        /* \"#utility.yul\":3569:3622   */\n      tag_68\n      jump\t// in\n    tag_137:\n        /* \"#utility.yul\":3559:3622   */\n      swap2\n      pop\n        /* \"#utility.yul\":3515:3632   */\n      pop\n        /* \"#utility.yul\":3310:3639   */\n      swap3\n      swap2\n      pop\n      pop\n      jump\t// out\n        /* \"#utility.yul\":3645:3762   */\n    tag_69:\n        /* \"#utility.yul\":3754:3755   */\n      0x00\n        /* \"#utility.yul\":3751:3752   */\n      dup1\n        /* \"#utility.yul\":3744:3756   */\n      revert\n        /* \"#utility.yul\":3768:3885   */\n    tag_70:\n        /* \"#utility.yul\":3877:3878   */\n      0x00\n        /* \"#utility.yul\":3874:3875   */\n      dup1\n        /* \"#utility.yul\":3867:3879   */\n      revert\n        /* \"#utility.yul\":3891:4071   */\n    tag_71:\n        /* \"#utility.yul\":3939:4016   */\n      0x4e487b7100000000000000000000000000000000000000000000000000000000\n        /* \"#utility.yul\":3936:3937   */\n      0x00\n        /* \"#utility.yul\":3929:4017   */\n      mstore\n        /* \"#utility.yul\":4036:4040   */\n      0x41\n        /* \"#utility.yul\":4033:4034   */\n      0x04\n        /* \"#utility.yul\":4026:4041   */\n      mstore\n        /* \"#utility.yul\":4060:4064   */\n      0x24\n        /* \"#utility.yul\":4057:4058   */\n      0x00\n        /* \"#utility.yul\":4050:4065   */\n      revert\n        /* \"#utility.yul\":4077:4358   */\n    tag_72:\n        /* \"#utility.yul\":4160:4187   */\n      tag_142\n        /* \"#utility.yul\":4182:4186   */\n      dup3\n        /* \"#utility.yul\":4160:4187   */\n      tag_54\n      jump\t// in\n    tag_142:\n        /* \"#utility.yul\":4152:4158   */\n      dup2\n        /* \"#utility.yul\":4148:4188   */\n      add\n        /* \"#utility.yul\":4290:4296   */\n      dup2\n        /* \"#utility.yul\":4278:4288   */\n      dup2\n        /* \"#utility.yul\":4275:4297   */\n      lt\n        /* \"#utility.yul\":4254:4272   */\n      0xffffffffffffffff\n        /* \"#utility.yul\":4242:4252   */\n      dup3\n        /* \"#utility.yul\":4239:4273   */\n      gt\n        /* \"#utility.yul\":4236:4298   */\n      or\n        /* \"#utility.yul\":4233:4321   */\n      iszero\n      tag_143\n      jumpi\n        /* \"#utility.yul\":4301:4319   */\n      tag_144\n      tag_71\n      jump\t// in\n    tag_144:\n        /* \"#utility.yul\":4233:4321   */\n    tag_143:\n        /* \"#utility.yul\":4341:4351   */\n      dup1\n        /* \"#utility.yul\":4337:4339   */\n      0x40\n        /* \"#utility.yul\":4330:4352   */\n      mstore\n        /* \"#utility.yul\":4120:4358   */\n      pop\n        /* \"#utility.yul\":4077:4358   */\n      pop\n      pop\n      jump\t// out\n        /* \"#utility.yul\":4364:4493   */\n    tag_73:\n        /* \"#utility.yul\":4398:4404   */\n      0x00\n        /* \"#utility.yul\":4425:4445   */\n      tag_146\n      tag_60\n      jump\t// in\n    tag_146:\n        /* \"#utility.yul\":4415:4445   */\n      swap1\n      pop\n        /* \"#utility.yul\":4454:4487   */\n      tag_147\n        /* \"#utility.yul\":4482:4486   */\n      dup3\n        /* \"#utility.yul\":4474:4480   */\n      dup3\n        /* \"#utility.yul\":4454:4487   */\n      tag_72\n      jump\t// in\n    tag_147:\n        /* \"#utility.yul\":4364:4493   */\n      swap2\n      swap1\n      pop\n      jump\t// out\n        /* \"#utility.yul\":4499:4807   */\n    tag_74:\n        /* \"#utility.yul\":4561:4565   */\n      0x00\n        /* \"#utility.yul\":4651:4669   */\n      0xffffffffffffffff\n        /* \"#utility.yul\":4643:4649   */\n      dup3\n        /* \"#utility.yul\":4640:4670   */\n      gt\n        /* \"#utility.yul\":4637:4693   */\n      iszero\n      tag_149\n      jumpi\n        /* \"#utility.yul\":4673:4691   */\n      tag_150\n      tag_71\n      jump\t// in\n    tag_150:\n        /* \"#utility.yul\":4637:4693   */\n    tag_149:\n        /* \"#utility.yul\":4711:4740   */\n      tag_151\n        /* \"#utility.yul\":4733:4739   */\n      dup3\n        /* \"#utility.yul\":4711:4740   */\n      tag_54\n      jump\t// in\n    tag_151:\n        /* \"#utility.yul\":4703:4740   */\n      swap1\n      pop\n        /* \"#utility.yul\":4795:4799   */\n      0x20\n        /* \"#utility.yul\":4789:4793   */\n      dup2\n        /* \"#utility.yul\":4785:4800   */\n      add\n        /* \"#utility.yul\":4777:4800   */\n      swap1\n      pop\n        /* \"#utility.yul\":4499:4807   */\n      swap2\n      swap1\n      pop\n      jump\t// out\n        /* \"#utility.yul\":4813:4961   */\n    tag_75:\n        /* \"#utility.yul\":4911:4917   */\n      dup3\n        /* \"#utility.yul\":4906:4909   */\n      dup2\n        /* \"#utility.yul\":4901:4904   */\n      dup4\n        /* \"#utility.yul\":4888:4918   */\n      calldatacopy\n        /* \"#utility.yul\":4952:4953   */\n      0x00\n        /* \"#utility.yul\":4943:4949   */\n      dup4\n        /* \"#utility.yul\":4938:4941   */\n      dup4\n        /* \"#utility.yul\":4934:4950   */\n      add\n        /* \"#utility.yul\":4927:4954   */\n      mstore\n        /* \"#utility.yul\":4813:4961   */\n      pop\n      pop\n      pop\n      jump\t// out\n        /* \"#utility.yul\":4967:5392   */\n    tag_76:\n        /* \"#utility.yul\":5045:5050   */\n      0x00\n        /* \"#utility.yul\":5070:5136   */\n      tag_154\n        /* \"#utility.yul\":5086:5135   */\n      tag_155\n        /* \"#utility.yul\":5128:5134   */\n      dup5\n        /* \"#utility.yul\":5086:5135   */\n      tag_74\n      jump\t// in\n    tag_155:\n        /* \"#utility.yul\":5070:5136   */\n      tag_73\n      jump\t// in\n    tag_154:\n        /* \"#utility.yul\":5061:5136   */\n      swap1\n      pop\n        /* \"#utility.yul\":5159:5165   */\n      dup3\n        /* \"#utility.yul\":5152:5157   */\n      dup2\n        /* \"#utility.yul\":5145:5166   */\n      mstore\n        /* \"#utility.yul\":5197:5201   */\n      0x20\n        /* \"#utility.yul\":5190:5195   */\n      dup2\n        /* \"#utility.yul\":5186:5202   */\n      add\n        /* \"#utility.yul\":5235:5238   */\n      dup5\n        /* \"#utility.yul\":5226:5232   */\n      dup5\n        /* \"#utility.yul\":5221:5224   */\n      dup5\n        /* \"#utility.yul\":5217:5233   */\n      add\n        /* \"#utility.yul\":5214:5239   */\n      gt\n        /* \"#utility.yul\":5211:5323   */\n      iszero\n      tag_156\n      jumpi\n        /* \"#utility.yul\":5242:5321   */\n      tag_157\n      tag_70\n      jump\t// in\n    tag_157:\n        /* \"#utility.yul\":5211:5323   */\n    tag_156:\n        /* \"#utility.yul\":5332:5386   */\n      tag_158\n        /* \"#utility.yul\":5379:5385   */\n      dup5\n        /* \"#utility.yul\":5374:5377   */\n      dup3\n        /* \"#utility.yul\":5369:5372   */\n      dup6\n        /* \"#utility.yul\":5332:5386   */\n      tag_75\n      jump\t// in\n    tag_158:\n        /* \"#utility.yul\":5051:5392   */\n      pop\n        /* \"#utility.yul\":4967:5392   */\n      swap4\n      swap3\n      pop\n      pop\n      pop\n      jump\t// out\n        /* \"#utility.yul\":5412:5752   */\n    tag_77:\n        /* \"#utility.yul\":5468:5473   */\n      0x00\n        /* \"#utility.yul\":5517:5520   */\n      dup3\n        /* \"#utility.yul\":5510:5514   */\n      0x1f\n        /* \"#utility.yul\":5502:5508   */\n      dup4\n        /* \"#utility.yul\":5498:5515   */\n      add\n        /* \"#utility.yul\":5494:5521   */\n      slt\n        /* \"#utility.yul\":5484:5606   */\n      tag_160\n      jumpi\n        /* \"#utility.yul\":5525:5604   */\n      tag_161\n      tag_69\n      jump\t// in\n    tag_161:\n        /* \"#utility.yul\":5484:5606   */\n    tag_160:\n        /* \"#utility.yul\":5642:5648   */\n      dup2\n        /* \"#utility.yul\":5629:5649   */\n      calldataload\n        /* \"#utility.yul\":5667:5746   */\n      tag_162\n        /* \"#utility.yul\":5742:5745   */\n      dup5\n        /* \"#utility.yul\":5734:5740   */\n      dup3\n        /* \"#utility.yul\":5727:5731   */\n      0x20\n        /* \"#utility.yul\":5719:5725   */\n      dup7\n        /* \"#utility.yul\":5715:5732   */\n      add\n        /* \"#utility.yul\":5667:5746   */\n      tag_76\n      jump\t// in\n    tag_162:\n        /* \"#utility.yul\":5658:5746   */\n      swap2\n      pop\n        /* \"#utility.yul\":5474:5752   */\n      pop\n        /* \"#utility.yul\":5412:5752   */\n      swap3\n      swap2\n      pop\n      pop\n      jump\t// out\n        /* \"#utility.yul\":5758:6412   */\n    tag_27:\n        /* \"#utility.yul\":5836:5842   */\n      0x00\n        /* \"#utility.yul\":5844:5850   */\n      dup1\n        /* \"#utility.yul\":5893:5895   */\n      0x40\n        /* \"#utility.yul\":5881:5890   */\n      dup4\n        /* \"#utility.yul\":5872:5879   */\n      dup6\n        /* \"#utility.yul\":5868:5891   */\n      sub\n        /* \"#utility.yul\":5864:5896   */\n      slt\n        /* \"#utility.yul\":5861:5980   */\n      iszero\n      tag_164\n      jumpi\n        /* \"#utility.yul\":5899:5978   */\n      tag_165\n      tag_61\n      jump\t// in\n    tag_165:\n        /* \"#utility.yul\":5861:5980   */\n    tag_164:\n        /* \"#utility.yul\":6047:6048   */\n      0x00\n        /* \"#utility.yul\":6036:6045   */\n      dup4\n        /* \"#utility.yul\":6032:6049   */\n      add\n        /* \"#utility.yul\":6019:6050   */\n      calldataload\n        /* \"#utility.yul\":6077:6095   */\n      0xffffffffffffffff\n        /* \"#utility.yul\":6069:6075   */\n      dup2\n        /* \"#utility.yul\":6066:6096   */\n      gt\n        /* \"#utility.yul\":6063:6180   */\n      iszero\n      tag_166\n      jumpi\n        /* \"#utility.yul\":6099:6178   */\n      tag_167\n      tag_62\n      jump\t// in\n    tag_167:\n        /* \"#utility.yul\":6063:6180   */\n    tag_166:\n        /* \"#utility.yul\":6204:6267   */\n      tag_168\n        /* \"#utility.yul\":6259:6266   */\n      dup6\n        /* \"#utility.yul\":6250:6256   */\n      dup3\n        /* \"#utility.yul\":6239:6248   */\n      dup7\n        /* \"#utility.yul\":6235:6257   */\n      add\n        /* \"#utility.yul\":6204:6267   */\n      tag_77\n      jump\t// in\n    tag_168:\n        /* \"#utility.yul\":6194:6267   */\n      swap3\n      pop\n        /* \"#utility.yul\":5990:6277   */\n      pop\n        /* \"#utility.yul\":6316:6318   */\n      0x20\n        /* \"#utility.yul\":6342:6395   */\n      tag_169\n        /* \"#utility.yul\":6387:6394   */\n      dup6\n        /* \"#utility.yul\":6378:6384   */\n      dup3\n        /* \"#utility.yul\":6367:6376   */\n      dup7\n        /* \"#utility.yul\":6363:6385   */\n      add\n        /* \"#utility.yul\":6342:6395   */\n      tag_68\n      jump\t// in\n    tag_169:\n        /* \"#utility.yul\":6332:6395   */\n      swap2\n      pop\n        /* \"#utility.yul\":6287:6405   */\n      pop\n        /* \"#utility.yul\":5758:6412   */\n      swap3\n      pop\n      swap3\n      swap1\n      pop\n      jump\t// out\n        /* \"#utility.yul\":6418:6598   */\n    tag_78:\n        /* \"#utility.yul\":6466:6543   */\n      0x4e487b7100000000000000000000000000000000000000000000000000000000\n        /* \"#utility.yul\":6463:6464   */\n      0x00\n        /* \"#utility.yul\":6456:6544   */\n      mstore\n        /* \"#utility.yul\":6563:6567   */\n      0x22\n        /* \"#utility.yul\":6560:6561   */\n      0x04\n        /* \"#utility.yul\":6553:6568   */\n      mstore\n        /* \"#utility.yul\":6587:6591   */\n      0x24\n        /* \"#utility.yul\":6584:6585   */\n      0x00\n        /* \"#utility.yul\":6577:6592   */\n      revert\n        /* \"#utility.yul\":6604:6924   */\n    tag_30:\n        /* \"#utility.yul\":6648:6654   */\n      0x00\n        /* \"#utility.yul\":6685:6686   */\n      0x02\n        /* \"#utility.yul\":6679:6683   */\n      dup3\n        /* \"#utility.yul\":6675:6687   */\n      div\n        /* \"#utility.yul\":6665:6687   */\n      swap1\n      pop\n        /* \"#utility.yul\":6732:6733   */\n      0x01\n        /* \"#utility.yul\":6726:6730   */\n      dup3\n        /* \"#utility.yul\":6722:6734   */\n      and\n        /* \"#utility.yul\":6753:6771   */\n      dup1\n        /* \"#utility.yul\":6743:6824   */\n      tag_172\n      jumpi\n        /* \"#utility.yul\":6809:6813   */\n      0x7f\n        /* \"#utility.yul\":6801:6807   */\n      dup3\n        /* \"#utility.yul\":6797:6814   */\n      and\n        /* \"#utility.yul\":6787:6814   */\n      swap2\n      pop\n        /* \"#utility.yul\":6743:6824   */\n    tag_172:\n        /* \"#utility.yul\":6871:6873   */\n      0x20\n        /* \"#utility.yul\":6863:6869   */\n      dup3\n        /* \"#utility.yul\":6860:6874   */\n      lt\n        /* \"#utility.yul\":6840:6858   */\n      dup2\n        /* \"#utility.yul\":6837:6875   */\n      sub\n        /* \"#utility.yul\":6834:6918   */\n      tag_173\n      jumpi\n        /* \"#utility.yul\":6890:6908   */\n      tag_174\n      tag_78\n      jump\t// in\n    tag_174:\n        /* \"#utility.yul\":6834:6918   */\n    tag_173:\n        /* \"#utility.yul\":6655:6924   */\n      pop\n        /* \"#utility.yul\":6604:6924   */\n      swap2\n      swap1\n      pop\n      jump\t// out\n        /* \"#utility.yul\":6930:7071   */\n    tag_79:\n        /* \"#utility.yul\":6979:6983   */\n      0x00\n        /* \"#utility.yul\":7002:7005   */\n      dup2\n        /* \"#utility.yul\":6994:7005   */\n      swap1\n      pop\n        /* \"#utility.yul\":7025:7028   */\n      dup2\n        /* \"#utility.yul\":7022:7023   */\n      0x00\n        /* \"#utility.yul\":7015:7029   */\n      mstore\n        /* \"#utility.yul\":7059:7063   */\n      0x20\n        /* \"#utility.yul\":7056:7057   */\n      0x00\n        /* \"#utility.yul\":7046:7064   */\n      keccak256\n        /* \"#utility.yul\":7038:7064   */\n      swap1\n      pop\n        /* \"#utility.yul\":6930:7071   */\n      swap2\n      swap1\n      pop\n      jump\t// out\n        /* \"#utility.yul\":7077:7170   */\n    tag_80:\n        /* \"#utility.yul\":7114:7120   */\n      0x00\n        /* \"#utility.yul\":7161:7163   */\n      0x20\n        /* \"#utility.yul\":7156:7158   */\n      0x1f\n        /* \"#utility.yul\":7149:7154   */\n      dup4\n        /* \"#utility.yul\":7145:7159   */\n      add\n        /* \"#utility.yul\":7141:7164   */\n      div\n        /* \"#utility.yul\":7131:7164   */\n      swap1\n      pop\n        /* \"#utility.yul\":7077:7170   */\n      swap2\n      swap1\n      pop\n      jump\t// out\n        /* \"#utility.yul\":7176:7283   */\n    tag_81:\n        /* \"#utility.yul\":7220:7228   */\n      0x00\n        /* \"#utility.yul\":7270:7275   */\n      dup3\n        /* \"#utility.yul\":7264:7268   */\n      dup3\n        /* \"#utility.yul\":7260:7276   */\n      shl\n        /* \"#utility.yul\":7239:7276   */\n      swap1\n      pop\n        /* \"#utility.yul\":7176:7283   */\n      swap3\n      swap2\n      pop\n      pop\n      jump\t// out\n        /* \"#utility.yul\":7289:7682   */\n    tag_82:\n        /* \"#utility.yul\":7358:7364   */\n      0x00\n        /* \"#utility.yul\":7408:7409   */\n      0x08\n        /* \"#utility.yul\":7396:7406   */\n      dup4\n        /* \"#utility.yul\":7392:7410   */\n      mul\n        /* \"#utility.yul\":7431:7528   */\n      tag_179\n        /* \"#utility.yul\":7461:7527   */\n      0xffffffffffffffffffffffffffffffffffffffffffffffffffffffffffffffff\n        /* \"#utility.yul\":7450:7459   */\n      dup3\n        /* \"#utility.yul\":7431:7528   */\n      tag_81\n      jump\t// in\n    tag_179:\n        /* \"#utility.yul\":7549:7588   */\n      tag_180\n        /* \"#utility.yul\":7579:7587   */\n      dup7\n        /* \"#utility.yul\":7568:7577   */\n      dup4\n        /* \"#utility.yul\":7549:7588   */\n      tag_81\n      jump\t// in\n    tag_180:\n        /* \"#utility.yul\":7537:7588   */\n      swap6\n      pop\n        /* \"#utility.yul\":7621:7625   */\n      dup1\n        /* \"#utility.yul\":7617:7626   */\n      not\n        /* \"#utility.yul\":7610:7615   */\n      dup5\n        /* \"#utility.yul\":7606:7627   */\n      and\n        /* \"#utility.yul\":7597:7627   */\n      swap4\n      pop\n        /* \"#utility.yul\":7670:7674   */\n      dup1\n        /* \"#utility.yul\":7660:7668   */\n      dup7\n        /* \"#utility.yul\":7656:7675   */\n      and\n        /* \"#utility.yul\":7649:7654   */\n      dup5\n        /* \"#utility.yul\":7646:7676   */\n      or\n        /* \"#utility.yul\":7636:7676   */\n      swap3\n      pop\n        /* \"#utility.yul\":7365:7682   */\n      pop\n      pop\n        /* \"#utility.yul\":7289:7682   */\n      swap4\n      swap3\n      pop\n      pop\n      pop\n      jump\t// out\n        /* \"#utility.yul\":7688:7748   */\n    tag_83:\n        /* \"#utility.yul\":7716:7719   */\n      0x00\n        /* \"#utility.yul\":7737:7742   */\n      dup2\n        /* \"#utility.yul\":7730:7742   */\n      swap1\n      pop\n        /* \"#utility.yul\":7688:7748   */\n      swap2\n      swap1\n      pop\n      jump\t// out\n        /* \"#utility.yul\":7754:7896   */\n    tag_84:\n        /* \"#utility.yul\":7804:7813   */\n      0x00\n        /* \"#utility.yul\":7837:7890   */\n      tag_183\n        /* \"#utility.yul\":7855:7889   */\n      tag_184\n        /* \"#utility.yul\":7864:7888   */\n      tag_185\n        /* \"#utility.yul\":7882:7887   */\n      dup5\n        /* \"#utility.yul\":7864:7888   */\n      tag_56\n      jump\t// in\n    tag_185:\n        /* \"#utility.yul\":7855:7889   */\n      tag_83\n      jump\t// in\n    tag_184:\n        /* \"#utility.yul\":7837:7890   */\n      tag_56\n      jump\t// in\n    tag_183:\n        /* \"#utility.yul\":7824:7890   */\n      swap1\n      pop\n        /* \"#utility.yul\":7754:7896   */\n      swap2\n      swap1\n      pop\n      jump\t// out\n        /* \"#utility.yul\":7902:7977   */\n    tag_85:\n        /* \"#utility.yul\":7945:7948   */\n      0x00\n        /* \"#utility.yul\":7966:7971   */\n      dup2\n        /* \"#utility.yul\":7959:7971   */\n      swap1\n      pop\n        /* \"#utility.yul\":7902:7977   */\n      swap2\n      swap1\n      pop\n      jump\t// out\n        /* \"#utility.yul\":7983:8252   */\n    tag_86:\n        /* \"#utility.yul\":8093:8132   */\n      tag_188\n        /* \"#utility.yul\":8124:8131   */\n      dup4\n        /* \"#utility.yul\":8093:8132   */\n      tag_84\n      jump\t// in\n    tag_188:\n        /* \"#utility.yul\":8154:8245   */\n      tag_189\n        /* \"#utility.yul\":8203:8244   */\n      tag_190\n        /* \"#utility.yul\":8227:8243   */\n      dup3\n        /* \"#utility.yul\":8203:8244   */\n      tag_85\n      jump\t// in\n    tag_190:\n        /* \"#utility.yul\":8195:8201   */\n      dup5\n        /* \"#utility.yul\":8188:8192   */\n      dup5\n        /* \"#utility.yul\":8182:8193   */\n      sload\n        /* \"#utility.yul\":8154:8245   */\n      tag_82\n      jump\t// in\n    tag_189:\n        /* \"#utility.yul\":8148:8152   */\n      dup3\n        /* \"#utility.yul\":8141:8246   */\n      sstore\n        /* \"#utility.yul\":8059:8252   */\n      pop\n        /* \"#utility.yul\":7983:8252   */\n      pop\n      pop\n      pop\n      jump\t// out\n        /* \"#utility.yul\":8258:8331   */\n    tag_87:\n        /* \"#utility.yul\":8303:8306   */\n      0x00\n        /* \"#utility.yul\":8258:8331   */\n      swap1\n      jump\t// out\n        /* \"#utility.yul\":8337:8526   */\n    tag_88:\n        /* \"#utility.yul\":8414:8446   */\n      tag_193\n      tag_87\n      jump\t// in\n    tag_193:\n        /* \"#utility.yul\":8455:8520   */\n      tag_194\n        /* \"#utility.yul\":8513:8519   */\n      dup2\n        /* \"#utility.yul\":8505:8511   */\n      dup5\n        /* \"#utility.yul\":8499:8503   */\n      dup5\n        /* \"#utility.yul\":8455:8520   */\n      tag_86\n      jump\t// in\n    tag_194:\n        /* \"#utility.yul\":8390:8526   */\n      pop\n        /* \"#utility.yul\":8337:8526   */\n      pop\n      pop\n      jump\t// out\n        /* \"#utility.yul\":8532:8718   */\n    tag_89:\n        /* \"#utility.yul\":8592:8712   */\n    tag_196:\n        /* \"#utility.yul\":8609:8612   */\n      dup2\n        /* \"#utility.yul\":8602:8607   */\n      dup2\n        /* \"#utility.yul\":8599:8613   */\n      lt\n        /* \"#utility.yul\":8592:8712   */\n      iszero\n      tag_198\n      jumpi\n        /* \"#utility.yul\":8663:8702   */\n      tag_199\n        /* \"#utility.yul\":8700:8701   */\n      0x00\n        /* \"#utility.yul\":8693:8698   */\n      dup3\n        /* \"#utility.yul\":8663:8702   */\n      tag_88\n      jump\t// in\n    tag_199:\n        /* \"#utility.yul\":8636:8637   */\n      0x01\n        /* \"#utility.yul\":8629:8634   */\n      dup2\n        /* \"#utility.yul\":8625:8638   */\n      add\n        /* \"#utility.yul\":8616:8638   */\n      swap1\n      pop\n        /* \"#utility.yul\":8592:8712   */\n      jump(tag_196)\n    tag_198:\n        /* \"#utility.yul\":8532:8718   */\n      pop\n      pop\n      jump\t// out\n        /* \"#utility.yul\":8724:9267   */\n    tag_90:\n        /* \"#utility.yul\":8825:8827   */\n      0x1f\n        /* \"#utility.yul\":8820:8823   */\n      dup3\n        /* \"#utility.yul\":8817:8828   */\n      gt\n        /* \"#utility.yul\":8814:9260   */\n      iszero\n      tag_201\n      jumpi\n        /* \"#utility.yul\":8859:8897   */\n      tag_202\n        /* \"#utility.yul\":8891:8896   */\n      dup2\n        /* \"#utility.yul\":8859:8897   */\n      tag_79\n      jump\t// in\n    tag_202:\n        /* \"#utility.yul\":8943:8972   */\n      tag_203\n        /* \"#utility.yul\":8961:8971   */\n      dup5\n        /* \"#utility.yul\":8943:8972   */\n      tag_80\n      jump\t// in\n    tag_203:\n        /* \"#utility.yul\":8933:8941   */\n      dup2\n        /* \"#utility.yul\":8929:8973   */\n      add\n        /* \"#utility.yul\":9126:9128   */\n      0x20\n        /* \"#utility.yul\":9114:9124   */\n      dup6\n        /* \"#utility.yul\":9111:9129   */\n      lt\n        /* \"#utility.yul\":9108:9157   */\n      iszero\n      tag_204\n      jumpi\n        /* \"#utility.yul\":9147:9155   */\n      dup2\n        /* \"#utility.yul\":9132:9155   */\n      swap1\n      pop\n        /* \"#utility.yul\":9108:9157   */\n    tag_204:\n        /* \"#utility.yul\":9170:9250   */\n      tag_205\n        /* \"#utility.yul\":9226:9248   */\n      tag_206\n        /* \"#utility.yul\":9244:9247   */\n      dup6\n        /* \"#utility.yul\":9226:9248   */\n      tag_80\n      jump\t// in\n    tag_206:\n        /* \"#utility.yul\":9216:9224   */\n      dup4\n        /* \"#utility.yul\":9212:9249   */\n      add\n        /* \"#utility.yul\":9199:9210   */\n      dup3\n        /* \"#utility.yul\":9170:9250   */\n      tag_89\n      jump\t// in\n    tag_205:\n        /* \"#utility.yul\":8829:9260   */\n      pop\n      pop\n        /* \"#utility.yul\":8814:9260   */\n    tag_201:\n        /* \"#utility.yul\":8724:9267   */\n      pop\n      pop\n      pop\n      jump\t// out\n        /* \"#utility.yul\":9273:9390   */\n    tag_91:\n        /* \"#utility.yul\":9327:9335   */\n      0x00\n        /* \"#utility.yul\":9377:9382   */\n      dup3\n        /* \"#utility.yul\":9371:9375   */\n      dup3\n        /* \"#utility.yul\":9367:9383   */\n      shr\n        /* \"#utility.yul\":9346:9383   */\n      swap1\n      pop\n        /* \"#utility.yul\":9273:9390   */\n      swap3\n      swap2\n      pop\n      pop\n      jump\t// out\n        /* \"#utility.yul\":9396:9565   */\n    tag_92:\n        /* \"#utility.yul\":9440:9446   */\n      0x00\n        /* \"#utility.yul\":9473:9524   */\n      tag_209\n        /* \"#utility.yul\":9521:9522   */\n      0x00\n        /* \"#utility.yul\":9517:9523   */\n      not\n        /* \"#utility.yul\":9509:9514   */\n      dup5\n        /* \"#utility.yul\":9506:9507   */\n      0x08\n        /* \"#utility.yul\":9502:9515   */\n      mul\n        /* \"#utility.yul\":9473:9524   */\n      tag_91\n      jump\t// in\n    tag_209:\n        /* \"#utility.yul\":9469:9525   */\n      not\n        /* \"#utility.yul\":9554:9558   */\n      dup1\n        /* \"#utility.yul\":9548:9552   */\n      dup4\n        /* \"#utility.yul\":9544:9559   */\n      and\n        /* \"#utility.yul\":9534:9559   */\n      swap2\n      pop\n        /* \"#utility.yul\":9447:9565   */\n      pop\n        /* \"#utility.yul\":9396:9565   */\n      swap3\n      swap2\n      pop\n      pop\n      jump\t// out\n        /* \"#utility.yul\":9570:9865   */\n    tag_93:\n        /* \"#utility.yul\":9646:9650   */\n      0x00\n        /* \"#utility.yul\":9792:9821   */\n      tag_211\n        /* \"#utility.yul\":9817:9820   */\n      dup4\n        /* \"#utility.yul\":9811:9815   */\n      dup4\n        /* \"#utility.yul\":9792:9821   */\n      tag_92\n      jump\t// in\n    tag_211:\n        /* \"#utility.yul\":9784:9821   */\n      swap2\n      pop\n        /* \"#utility.yul\":9854:9857   */\n      dup3\n        /* \"#utility.yul\":9851:9852   */\n      0x02\n        /* \"#utility.yul\":9847:9858   */\n      mul\n        /* \"#utility.yul\":9841:9845   */\n      dup3\n        /* \"#utility.yul\":9838:9859   */\n      or\n        /* \"#utility.yul\":9830:9859   */\n      swap1\n      pop\n        /* \"#utility.yul\":9570:9865   */\n      swap3\n      swap2\n      pop\n      pop\n      jump\t// out\n        /* \"#utility.yul\":9870:11265   */\n    tag_50:\n        /* \"#utility.yul\":9987:10024   */\n      tag_213\n        /* \"#utility.yul\":10020:10023   */\n      dup3\n        /* \"#utility.yul\":9987:10024   */\n      tag_51\n      jump\t// in\n    tag_213:\n        /* \"#utility.yul\":10089:10107   */\n      0xffffffffffffffff\n        /* \"#utility.yul\":10081:10087   */\n      dup2\n        /* \"#utility.yul\":10078:10108   */\n      gt\n        /* \"#utility.yul\":10075:10131   */\n      iszero\n      tag_214\n      jumpi\n        /* \"#utility.yul\":10111:10129   */\n      tag_215\n      tag_71\n      jump\t// in\n    tag_215:\n        /* \"#utility.yul\":10075:10131   */\n    tag_214:\n        /* \"#utility.yul\":10155:10193   */\n      tag_216\n        /* \"#utility.yul\":10187:10191   */\n      dup3\n        /* \"#utility.yul\":10181:10192   */\n      sload\n        /* \"#utility.yul\":10155:10193   */\n      tag_30\n      jump\t// in\n    tag_216:\n        /* \"#utility.yul\":10240:10307   */\n      tag_217\n        /* \"#utility.yul\":10300:10306   */\n      dup3\n        /* \"#utility.yul\":10292:10298   */\n      dup3\n        /* \"#utility.yul\":10286:10290   */\n      dup6\n        /* \"#utility.yul\":10240:10307   */\n      tag_90\n      jump\t// in\n    tag_217:\n        /* \"#utility.yul\":10334:10335   */\n      0x00\n        /* \"#utility.yul\":10358:10362   */\n      0x20\n        /* \"#utility.yul\":10345:10362   */\n      swap1\n      pop\n        /* \"#utility.yul\":10390:10392   */\n      0x1f\n        /* \"#utility.yul\":10382:10388   */\n      dup4\n        /* \"#utility.yul\":10379:10393   */\n      gt\n        /* \"#utility.yul\":10407:10408   */\n      0x01\n        /* \"#utility.yul\":10402:11020   */\n      dup2\n      eq\n      tag_219\n      jumpi\n        /* \"#utility.yul\":11064:11065   */\n      0x00\n        /* \"#utility.yul\":11081:11087   */\n      dup5\n        /* \"#utility.yul\":11078:11155   */\n      iszero\n      tag_220\n      jumpi\n        /* \"#utility.yul\":11130:11139   */\n      dup3\n        /* \"#utility.yul\":11125:11128   */\n      dup8\n        /* \"#utility.yul\":11121:11140   */\n      add\n        /* \"#utility.yul\":11115:11141   */\n      mload\n        /* \"#utility.yul\":11106:11141   */\n      swap1\n      pop\n        /* \"#utility.yul\":11078:11155   */\n    tag_220:\n        /* \"#utility.yul\":11181:11248   */\n      tag_221\n        /* \"#utility.yul\":11241:11247   */\n      dup6\n        /* \"#utility.yul\":11234:11239   */\n      dup3\n        /* \"#utility.yul\":11181:11248   */\n      tag_93\n      jump\t// in\n    tag_221:\n        /* \"#utility.yul\":11175:11179   */\n      dup7\n        /* \"#utility.yul\":11168:11249   */\n      sstore\n        /* \"#utility.yul\":11037:11259   */\n      pop\n        /* \"#utility.yul\":10372:11259   */\n      jump(tag_218)\n        /* \"#utility.yul\":10402:11020   */\n    tag_219:\n        /* \"#utility.yul\":10454:10458   */\n      0x1f\n        /* \"#utility.yul\":10450:10459   */\n      not\n        /* \"#utility.yul\":10442:10448   */\n      dup5\n        /* \"#utility.yul\":10438:10460   */\n      and\n        /* \"#utility.yul\":10488:10525   */\n      tag_222\n        /* \"#utility.yul\":10520:10524   */\n      dup7\n        /* \"#utility.yul\":10488:10525   */\n      tag_79\n      jump\t// in\n    tag_222:\n        /* \"#utility.yul\":10547:10548   */\n      0x00\n        /* \"#utility.yul\":10561:10769   */\n    tag_223:\n        /* \"#utility.yul\":10575:10582   */\n      dup3\n        /* \"#utility.yul\":10572:10573   */\n      dup2\n        /* \"#utility.yul\":10569:10583   */\n      lt\n        /* \"#utility.yul\":10561:10769   */\n      iszero\n      tag_225\n      jumpi\n        /* \"#utility.yul\":10654:10663   */\n      dup5\n        /* \"#utility.yul\":10649:10652   */\n      dup10\n        /* \"#utility.yul\":10645:10664   */\n      add\n        /* \"#utility.yul\":10639:10665   */\n      mload\n        /* \"#utility.yul\":10631:10637   */\n      dup3\n        /* \"#utility.yul\":10624:10666   */\n      sstore\n        /* \"#utility.yul\":10705:10706   */\n      0x01\n        /* \"#utility.yul\":10697:10703   */\n      dup3\n        /* \"#utility.yul\":10693:10707   */\n      add\n        /* \"#utility.yul\":10683:10707   */\n      swap2\n      pop\n        /* \"#utility.yul\":10752:10754   */\n      0x20\n        /* \"#utility.yul\":10741:10750   */\n      dup6\n        /* \"#utility.yul\":10737:10755   */\n      add\n        /* \"#utility.yul\":10724:10755   */\n      swap5\n      pop\n        /* \"#utility.yul\":10598:10602   */\n      0x20\n        /* \"#utility.yul\":10595:10596   */\n      dup2\n        /* \"#utility.yul\":10591:10603   */\n      add\n        /* \"#utility.yul\":10586:10603   */\n      swap1\n      pop\n        /* \"#utility.yul\":10561:10769   */\n      jump(tag_223)\n    tag_225:\n        /* \"#utility.yul\":10797:10803   */\n      dup7\n        /* \"#utility.yul\":10788:10795   */\n      dup4\n        /* \"#utility.yul\":10785:10804   */\n      lt\n        /* \"#utility.yul\":10782:10961   */\n      iszero\n      tag_226\n      jumpi\n        /* \"#utility.yul\":10855:10864   */\n      dup5\n        /* \"#utility.yul\":10850:10853   */\n      dup10\n        /* \"#utility.yul\":10846:10865   */\n      add\n        /* \"#utility.yul\":10840:10866   */\n      mload\n        /* \"#utility.yul\":10898:10946   */\n      tag_227\n        /* \"#utility.yul\":10940:10944   */\n      0x1f\n        /* \"#utility.yul\":10932:10938   */\n      dup10\n        /* \"#utility.yul\":10928:10945   */\n      and\n        /* \"#utility.yul\":10917:10926   */\n      dup3\n        /* \"#utility.yul\":10898:10946   */\n      tag_92\n      jump\t// in\n    tag_227:\n        /* \"#utility.yul\":10890:10896   */\n      dup4\n        /* \"#utility.yul\":10883:10947   */\n      sstore\n        /* \"#utility.yul\":10805:10961   */\n      pop\n        /* \"#utility.yul\":10782:10961   */\n    tag_226:\n        /* \"#utility.yul\":11007:11008   */\n      0x01\n        /* \"#utility.yul\":11003:11004   */\n      0x02\n        /* \"#utility.yul\":10995:11001   */\n      dup9\n        /* \"#utility.yul\":10991:11005   */\n      mul\n        /* \"#utility.yul\":10987:11009   */\n      add\n        /* \"#utility.yul\":10981:10985   */\n      dup9\n        /* \"#utility.yul\":10974:11010   */\n      sstore\n        /* \"#utility.yul\":10409:11020   */\n      pop\n      pop\n      pop\n        /* \"#utility.yul\":10372:11259   */\n    tag_218:\n      pop\n        /* \"#utility.yul\":9962:11265   */\n      pop\n      pop\n      pop\n        /* \"#utility.yul\":9870:11265   */\n      pop\n      pop\n      jump\t// out\n\n    auxdata: 0xa2646970667358221220c9a289797803f8a0bc5dc659122a3d37fcfa3a818a82a899674bfb80fbd7d94864736f6c634300081a0033\n}\n",
				"bytecode": {
					"linkReferences": {},
					"object": "6080604052348015600e575f80fd5b506109f98061001c5f395ff3fe608060405234801561000f575f80fd5b5060043610610055575f3560e01c806328c45a831461005957806336108f3f146100795780633844c8c1146100ab5780638007891f146100dd578063822c8f9b146100f9575b5f80fd5b610061610115565b6040516100709392919061044d565b60405180910390f35b610093600480360381019061008e91906104f4565b6101bd565b6040516100a29392919061044d565b60405180910390f35b6100c560048036038101906100c09190610549565b610275565b6040516100d49392919061044d565b60405180910390f35b6100f760048036038101906100f29190610549565b61033c565b005b610113600480360381019061010e91906106a0565b610348565b005b5f805f01805461012490610727565b80601f016020809104026020016040519081016040528092919081815260200182805461015090610727565b801561019b5780601f106101725761010080835404028352916020019161019b565b820191905f5260205f20905b81548152906001019060200180831161017e57829003601f168201915b505050505090806001015490806002015f9054906101000a900460ff16905083565b6004602052805f5260405f205f91509050805f0180546101dc90610727565b80601f016020809104026020016040519081016040528092919081815260200182805461020890610727565b80156102535780601f1061022a57610100808354040283529160200191610253565b820191905f5260205f20905b81548152906001019060200180831161023657829003601f168201915b505050505090806001015490806002015f9054906101000a900460ff16905083565b60038181548110610284575f80fd5b905f5260205f2090600302015f91509050805f0180546102a390610727565b80601f01602080910402602001604051908101604052809291908181526020018280546102cf90610727565b801561031a5780601f106102f15761010080835404028352916020019161031a565b820191905f5260205f20905b8154815290600101906020018083116102fd57829003601f168201915b505050505090806001015490806002015f9054906101000a900460ff16905083565b805f6001018190555050565b6040518060600160405280838152602001828152602001600115158152505f80820151815f01908161037a91906108f4565b50602082015181600101556040820151816002015f6101000a81548160ff0219169083151502179055509050505050565b5f81519050919050565b5f82825260208201905092915050565b8281835e5f83830152505050565b5f601f19601f8301169050919050565b5f6103ed826103ab565b6103f781856103b5565b93506104078185602086016103c5565b610410816103d3565b840191505092915050565b5f819050919050565b61042d8161041b565b82525050565b5f8115159050919050565b61044781610433565b82525050565b5f6060820190508181035f83015261046581866103e3565b90506104746020830185610424565b610481604083018461043e565b949350505050565b5f604051905090565b5f80fd5b5f80fd5b5f73ffffffffffffffffffffffffffffffffffffffff82169050919050565b5f6104c38261049a565b9050919050565b6104d3816104b9565b81146104dd575f80fd5b50565b5f813590506104ee816104ca565b92915050565b5f6020828403121561050957610508610492565b5b5f610516848285016104e0565b91505092915050565b6105288161041b565b8114610532575f80fd5b50565b5f813590506105438161051f565b92915050565b5f6020828403121561055e5761055d610492565b5b5f61056b84828501610535565b91505092915050565b5f80fd5b5f80fd5b7f4e487b71000000000000000000000000000000000000000000000000000000005f52604160045260245ffd5b6105b2826103d3565b810181811067ffffffffffffffff821117156105d1576105d061057c565b5b80604052505050565b5f6105e3610489565b90506105ef82826105a9565b919050565b5f67ffffffffffffffff82111561060e5761060d61057c565b5b610617826103d3565b9050602081019050919050565b828183375f83830152505050565b5f61064461063f846105f4565b6105da565b9050828152602081018484840111156106605761065f610578565b5b61066b848285610624565b509392505050565b5f82601f83011261068757610686610574565b5b8135610697848260208601610632565b91505092915050565b5f80604083850312156106b6576106b5610492565b5b5f83013567ffffffffffffffff8111156106d3576106d2610496565b5b6106df85828601610673565b92505060206106f085828601610535565b9150509250929050565b7f4e487b71000000000000000000000000000000000000000000000000000000005f52602260045260245ffd5b5f600282049050600182168061073e57607f821691505b602082108103610751576107506106fa565b5b50919050565b5f819050815f5260205f209050919050565b5f6020601f8301049050919050565b5f82821b905092915050565b5f600883026107b37fffffffffffffffffffffffffffffffffffffffffffffffffffffffffffffffff82610778565b6107bd8683610778565b95508019841693508086168417925050509392505050565b5f819050919050565b5f6107f86107f36107ee8461041b565b6107d5565b61041b565b9050919050565b5f819050919050565b610811836107de565b61082561081d826107ff565b848454610784565b825550505050565b5f90565b61083961082d565b610844818484610808565b505050565b5b818110156108675761085c5f82610831565b60018101905061084a565b5050565b601f8211156108ac5761087d81610757565b61088684610769565b81016020851015610895578190505b6108a96108a185610769565b830182610849565b50505b505050565b5f82821c905092915050565b5f6108cc5f19846008026108b1565b1980831691505092915050565b5f6108e483836108bd565b9150826002028217905092915050565b6108fd826103ab565b67ffffffffffffffff8111156109165761091561057c565b5b6109208254610727565b61092b82828561086b565b5f60209050601f83116001811461095c575f841561094a578287015190505b61095485826108d9565b8655506109bb565b601f19841661096a86610757565b5f5b828110156109915784890151825560018201915060208501945060208101905061096c565b868310156109ae57848901516109aa601f8916826108bd565b8355505b6001600288020188555050505b50505050505056fea2646970667358221220c9a289797803f8a0bc5dc659122a3d37fcfa3a818a82a899674bfb80fbd7d94864736f6c634300081a0033",
					"opcodes": "PUSH1 0x80 PUSH1 0x40 MSTORE CALLVALUE DUP1 ISZERO PUSH1 0xE JUMPI PUSH0 DUP1 REVERT JUMPDEST POP PUSH2 0x9F9 DUP1 PUSH2 0x1C PUSH0 CODECOPY PUSH0 RETURN INVALID PUSH1 0x80 PUSH1 0x40 MSTORE CALLVALUE DUP1 ISZERO PUSH2 0xF JUMPI PUSH0 DUP1 REVERT JUMPDEST POP PUSH1 0x4 CALLDATASIZE LT PUSH2 0x55 JUMPI PUSH0 CALLDATALOAD PUSH1 0xE0 SHR DUP1 PUSH4 0x28C45A83 EQ PUSH2 0x59 JUMPI DUP1 PUSH4 0x36108F3F EQ PUSH2 0x79 JUMPI DUP1 PUSH4 0x3844C8C1 EQ PUSH2 0xAB JUMPI DUP1 PUSH4 0x8007891F EQ PUSH2 0xDD JUMPI DUP1 PUSH4 0x822C8F9B EQ PUSH2 0xF9 JUMPI JUMPDEST PUSH0 DUP1 REVERT JUMPDEST PUSH2 0x61 PUSH2 0x115 JUMP JUMPDEST PUSH1 0x40 MLOAD PUSH2 0x70 SWAP4 SWAP3 SWAP2 SWAP1 PUSH2 0x44D JUMP JUMPDEST PUSH1 0x40 MLOAD DUP1 SWAP2 SUB SWAP1 RETURN JUMPDEST PUSH2 0x93 PUSH1 0x4 DUP1 CALLDATASIZE SUB DUP2 ADD SWAP1 PUSH2 0x8E SWAP2 SWAP1 PUSH2 0x4F4 JUMP JUMPDEST PUSH2 0x1BD JUMP JUMPDEST PUSH1 0x40 MLOAD PUSH2 0xA2 SWAP4 SWAP3 SWAP2 SWAP1 PUSH2 0x44D JUMP JUMPDEST PUSH1 0x40 MLOAD DUP1 SWAP2 SUB SWAP1 RETURN JUMPDEST PUSH2 0xC5 PUSH1 0x4 DUP1 CALLDATASIZE SUB DUP2 ADD SWAP1 PUSH2 0xC0 SWAP2 SWAP1 PUSH2 0x549 JUMP JUMPDEST PUSH2 0x275 JUMP JUMPDEST PUSH1 0x40 MLOAD PUSH2 0xD4 SWAP4 SWAP3 SWAP2 SWAP1 PUSH2 0x44D JUMP JUMPDEST PUSH1 0x40 MLOAD DUP1 SWAP2 SUB SWAP1 RETURN JUMPDEST PUSH2 0xF7 PUSH1 0x4 DUP1 CALLDATASIZE SUB DUP2 ADD SWAP1 PUSH2 0xF2 SWAP2 SWAP1 PUSH2 0x549 JUMP JUMPDEST PUSH2 0x33C JUMP JUMPDEST STOP JUMPDEST PUSH2 0x113 PUSH1 0x4 DUP1 CALLDATASIZE SUB DUP2 ADD SWAP1 PUSH2 0x10E SWAP2 SWAP1 PUSH2 0x6A0 JUMP JUMPDEST PUSH2 0x348 JUMP JUMPDEST STOP JUMPDEST PUSH0 DUP1 PUSH0 ADD DUP1 SLOAD PUSH2 0x124 SWAP1 PUSH2 0x727 JUMP JUMPDEST DUP1 PUSH1 0x1F ADD PUSH1 0x20 DUP1 SWAP2 DIV MUL PUSH1 0x20 ADD PUSH1 0x40 MLOAD SWAP1 DUP2 ADD PUSH1 0x40 MSTORE DUP1 SWAP3 SWAP2 SWAP1 DUP2 DUP2 MSTORE PUSH1 0x20 ADD DUP3 DUP1 SLOAD PUSH2 0x150 SWAP1 PUSH2 0x727 JUMP JUMPDEST DUP1 ISZERO PUSH2 0x19B JUMPI DUP1 PUSH1 0x1F LT PUSH2 0x172 JUMPI PUSH2 0x100 DUP1 DUP4 SLOAD DIV MUL DUP4 MSTORE SWAP2 PUSH1 0x20 ADD SWAP2 PUSH2 0x19B JUMP JUMPDEST DUP3 ADD SWAP2 SWAP1 PUSH0 MSTORE PUSH1 0x20 PUSH0 KECCAK256 SWAP1 JUMPDEST DUP2 SLOAD DUP2 MSTORE SWAP1 PUSH1 0x1 ADD SWAP1 PUSH1 0x20 ADD DUP1 DUP4 GT PUSH2 0x17E JUMPI DUP3 SWAP1 SUB PUSH1 0x1F AND DUP3 ADD SWAP2 JUMPDEST POP POP POP POP POP SWAP1 DUP1 PUSH1 0x1 ADD SLOAD SWAP1 DUP1 PUSH1 0x2 ADD PUSH0 SWAP1 SLOAD SWAP1 PUSH2 0x100 EXP SWAP1 DIV PUSH1 0xFF AND SWAP1 POP DUP4 JUMP JUMPDEST PUSH1 0x4 PUSH1 0x20 MSTORE DUP1 PUSH0 MSTORE PUSH1 0x40 PUSH0 KECCAK256 PUSH0 SWAP2 POP SWAP1 POP DUP1 PUSH0 ADD DUP1 SLOAD PUSH2 0x1DC SWAP1 PUSH2 0x727 JUMP JUMPDEST DUP1 PUSH1 0x1F ADD PUSH1 0x20 DUP1 SWAP2 DIV MUL PUSH1 0x20 ADD PUSH1 0x40 MLOAD SWAP1 DUP2 ADD PUSH1 0x40 MSTORE DUP1 SWAP3 SWAP2 SWAP1 DUP2 DUP2 MSTORE PUSH1 0x20 ADD DUP3 DUP1 SLOAD PUSH2 0x208 SWAP1 PUSH2 0x727 JUMP JUMPDEST DUP1 ISZERO PUSH2 0x253 JUMPI DUP1 PUSH1 0x1F LT PUSH2 0x22A JUMPI PUSH2 0x100 DUP1 DUP4 SLOAD DIV MUL DUP4 MSTORE SWAP2 PUSH1 0x20 ADD SWAP2 PUSH2 0x253 JUMP JUMPDEST DUP3 ADD SWAP2 SWAP1 PUSH0 MSTORE PUSH1 0x20 PUSH0 KECCAK256 SWAP1 JUMPDEST DUP2 SLOAD DUP2 MSTORE SWAP1 PUSH1 0x1 ADD SWAP1 PUSH1 0x20 ADD DUP1 DUP4 GT PUSH2 0x236 JUMPI DUP3 SWAP1 SUB PUSH1 0x1F AND DUP3 ADD SWAP2 JUMPDEST POP POP POP POP POP SWAP1 DUP1 PUSH1 0x1 ADD SLOAD SWAP1 DUP1 PUSH1 0x2 ADD PUSH0 SWAP1 SLOAD SWAP1 PUSH2 0x100 EXP SWAP1 DIV PUSH1 0xFF AND SWAP1 POP DUP4 JUMP JUMPDEST PUSH1 0x3 DUP2 DUP2 SLOAD DUP2 LT PUSH2 0x284 JUMPI PUSH0 DUP1 REVERT JUMPDEST SWAP1 PUSH0 MSTORE PUSH1 0x20 PUSH0 KECCAK256 SWAP1 PUSH1 0x3 MUL ADD PUSH0 SWAP2 POP SWAP1 POP DUP1 PUSH0 ADD DUP1 SLOAD PUSH2 0x2A3 SWAP1 PUSH2 0x727 JUMP JUMPDEST DUP1 PUSH1 0x1F ADD PUSH1 0x20 DUP1 SWAP2 DIV MUL PUSH1 0x20 ADD PUSH1 0x40 MLOAD SWAP1 DUP2 ADD PUSH1 0x40 MSTORE DUP1 SWAP3 SWAP2 SWAP1 DUP2 DUP2 MSTORE PUSH1 0x20 ADD DUP3 DUP1 SLOAD PUSH2 0x2CF SWAP1 PUSH2 0x727 JUMP JUMPDEST DUP1 ISZERO PUSH2 0x31A JUMPI DUP1 PUSH1 0x1F LT PUSH2 0x2F1 JUMPI PUSH2 0x100 DUP1 DUP4 SLOAD DIV MUL DUP4 MSTORE SWAP2 PUSH1 0x20 ADD SWAP2 PUSH2 0x31A JUMP JUMPDEST DUP3 ADD SWAP2 SWAP1 PUSH0 MSTORE PUSH1 0x20 PUSH0 KECCAK256 SWAP1 JUMPDEST DUP2 SLOAD DUP2 MSTORE SWAP1 PUSH1 0x1 ADD SWAP1 PUSH1 0x20 ADD DUP1 DUP4 GT PUSH2 0x2FD JUMPI DUP3 SWAP1 SUB PUSH1 0x1F AND DUP3 ADD SWAP2 JUMPDEST POP POP POP POP POP SWAP1 DUP1 PUSH1 0x1 ADD SLOAD SWAP1 DUP1 PUSH1 0x2 ADD PUSH0 SWAP1 SLOAD SWAP1 PUSH2 0x100 EXP SWAP1 DIV PUSH1 0xFF AND SWAP1 POP DUP4 JUMP JUMPDEST DUP1 PUSH0 PUSH1 0x1 ADD DUP2 SWAP1 SSTORE POP POP JUMP JUMPDEST PUSH1 0x40 MLOAD DUP1 PUSH1 0x60 ADD PUSH1 0x40 MSTORE DUP1 DUP4 DUP2 MSTORE PUSH1 0x20 ADD DUP3 DUP2 MSTORE PUSH1 0x20 ADD PUSH1 0x1 ISZERO ISZERO DUP2 MSTORE POP PUSH0 DUP1 DUP3 ADD MLOAD DUP2 PUSH0 ADD SWAP1 DUP2 PUSH2 0x37A SWAP2 SWAP1 PUSH2 0x8F4 JUMP JUMPDEST POP PUSH1 0x20 DUP3 ADD MLOAD DUP2 PUSH1 0x1 ADD SSTORE PUSH1 0x40 DUP3 ADD MLOAD DUP2 PUSH1 0x2 ADD PUSH0 PUSH2 0x100 EXP DUP2 SLOAD DUP2 PUSH1 0xFF MUL NOT AND SWAP1 DUP4 ISZERO ISZERO MUL OR SWAP1 SSTORE POP SWAP1 POP POP POP POP JUMP JUMPDEST PUSH0 DUP2 MLOAD SWAP1 POP SWAP2 SWAP1 POP JUMP JUMPDEST PUSH0 DUP3 DUP3 MSTORE PUSH1 0x20 DUP3 ADD SWAP1 POP SWAP3 SWAP2 POP POP JUMP JUMPDEST DUP3 DUP2 DUP4 MCOPY PUSH0 DUP4 DUP4 ADD MSTORE POP POP POP JUMP JUMPDEST PUSH0 PUSH1 0x1F NOT PUSH1 0x1F DUP4 ADD AND SWAP1 POP SWAP2 SWAP1 POP JUMP JUMPDEST PUSH0 PUSH2 0x3ED DUP3 PUSH2 0x3AB JUMP JUMPDEST PUSH2 0x3F7 DUP2 DUP6 PUSH2 0x3B5 JUMP JUMPDEST SWAP4 POP PUSH2 0x407 DUP2 DUP6 PUSH1 0x20 DUP7 ADD PUSH2 0x3C5 JUMP JUMPDEST PUSH2 0x410 DUP2 PUSH2 0x3D3 JUMP JUMPDEST DUP5 ADD SWAP2 POP POP SWAP3 SWAP2 POP POP JUMP JUMPDEST PUSH0 DUP2 SWAP1 POP SWAP2 SWAP1 POP JUMP JUMPDEST PUSH2 0x42D DUP2 PUSH2 0x41B JUMP JUMPDEST DUP3 MSTORE POP POP JUMP JUMPDEST PUSH0 DUP2 ISZERO ISZERO SWAP1 POP SWAP2 SWAP1 POP JUMP JUMPDEST PUSH2 0x447 DUP2 PUSH2 0x433 JUMP JUMPDEST DUP3 MSTORE POP POP JUMP JUMPDEST PUSH0 PUSH1 0x60 DUP3 ADD SWAP1 POP DUP2 DUP2 SUB PUSH0 DUP4 ADD MSTORE PUSH2 0x465 DUP2 DUP7 PUSH2 0x3E3 JUMP JUMPDEST SWAP1 POP PUSH2 0x474 PUSH1 0x20 DUP4 ADD DUP6 PUSH2 0x424 JUMP JUMPDEST PUSH2 0x481 PUSH1 0x40 DUP4 ADD DUP5 PUSH2 0x43E JUMP JUMPDEST SWAP5 SWAP4 POP POP POP POP JUMP JUMPDEST PUSH0 PUSH1 0x40 MLOAD SWAP1 POP SWAP1 JUMP JUMPDEST PUSH0 DUP1 REVERT JUMPDEST PUSH0 DUP1 REVERT JUMPDEST PUSH0 PUSH20 0xFFFFFFFFFFFFFFFFFFFFFFFFFFFFFFFFFFFFFFFF DUP3 AND SWAP1 POP SWAP2 SWAP1 POP JUMP JUMPDEST PUSH0 PUSH2 0x4C3 DUP3 PUSH2 0x49A JUMP JUMPDEST SWAP1 POP SWAP2 SWAP1 POP JUMP JUMPDEST PUSH2 0x4D3 DUP2 PUSH2 0x4B9 JUMP JUMPDEST DUP2 EQ PUSH2 0x4DD JUMPI PUSH0 DUP1 REVERT JUMPDEST POP JUMP JUMPDEST PUSH0 DUP2 CALLDATALOAD SWAP1 POP PUSH2 0x4EE DUP2 PUSH2 0x4CA JUMP JUMPDEST SWAP3 SWAP2 POP POP JUMP JUMPDEST PUSH0 PUSH1 0x20 DUP3 DUP5 SUB SLT ISZERO PUSH2 0x509 JUMPI PUSH2 0x508 PUSH2 0x492 JUMP JUMPDEST JUMPDEST PUSH0 PUSH2 0x516 DUP5 DUP3 DUP6 ADD PUSH2 0x4E0 JUMP JUMPDEST SWAP2 POP POP SWAP3 SWAP2 POP POP JUMP JUMPDEST PUSH2 0x528 DUP2 PUSH2 0x41B JUMP JUMPDEST DUP2 EQ PUSH2 0x532 JUMPI PUSH0 DUP1 REVERT JUMPDEST POP JUMP JUMPDEST PUSH0 DUP2 CALLDATALOAD SWAP1 POP PUSH2 0x543 DUP2 PUSH2 0x51F JUMP JUMPDEST SWAP3 SWAP2 POP POP JUMP JUMPDEST PUSH0 PUSH1 0x20 DUP3 DUP5 SUB SLT ISZERO PUSH2 0x55E JUMPI PUSH2 0x55D PUSH2 0x492 JUMP JUMPDEST JUMPDEST PUSH0 PUSH2 0x56B DUP5 DUP3 DUP6 ADD PUSH2 0x535 JUMP JUMPDEST SWAP2 POP POP SWAP3 SWAP2 POP POP JUMP JUMPDEST PUSH0 DUP1 REVERT JUMPDEST PUSH0 DUP1 REVERT JUMPDEST PUSH32 0x4E487B7100000000000000000000000000000000000000000000000000000000 PUSH0 MSTORE PUSH1 0x41 PUSH1 0x4 MSTORE PUSH1 0x24 PUSH0 REVERT JUMPDEST PUSH2 0x5B2 DUP3 PUSH2 0x3D3 JUMP JUMPDEST DUP2 ADD DUP2 DUP2 LT PUSH8 0xFFFFFFFFFFFFFFFF DUP3 GT OR ISZERO PUSH2 0x5D1 JUMPI PUSH2 0x5D0 PUSH2 0x57C JUMP JUMPDEST JUMPDEST DUP1 PUSH1 0x40 MSTORE POP POP POP JUMP JUMPDEST PUSH0 PUSH2 0x5E3 PUSH2 0x489 JUMP JUMPDEST SWAP1 POP PUSH2 0x5EF DUP3 DUP3 PUSH2 0x5A9 JUMP JUMPDEST SWAP2 SWAP1 POP JUMP JUMPDEST PUSH0 PUSH8 0xFFFFFFFFFFFFFFFF DUP3 GT ISZERO PUSH2 0x60E JUMPI PUSH2 0x60D PUSH2 0x57C JUMP JUMPDEST JUMPDEST PUSH2 0x617 DUP3 PUSH2 0x3D3 JUMP JUMPDEST SWAP1 POP PUSH1 0x20 DUP2 ADD SWAP1 POP SWAP2 SWAP1 POP JUMP JUMPDEST DUP3 DUP2 DUP4 CALLDATACOPY PUSH0 DUP4 DUP4 ADD MSTORE POP POP POP JUMP JUMPDEST PUSH0 PUSH2 0x644 PUSH2 0x63F DUP5 PUSH2 0x5F4 JUMP JUMPDEST PUSH2 0x5DA JUMP JUMPDEST SWAP1 POP DUP3 DUP2 MSTORE PUSH1 0x20 DUP2 ADD DUP5 DUP5 DUP5 ADD GT ISZERO PUSH2 0x660 JUMPI PUSH2 0x65F PUSH2 0x578 JUMP JUMPDEST JUMPDEST PUSH2 0x66B DUP5 DUP3 DUP6 PUSH2 0x624 JUMP JUMPDEST POP SWAP4 SWAP3 POP POP POP JUMP JUMPDEST PUSH0 DUP3 PUSH1 0x1F DUP4 ADD SLT PUSH2 0x687 JUMPI PUSH2 0x686 PUSH2 0x574 JUMP JUMPDEST JUMPDEST DUP2 CALLDATALOAD PUSH2 0x697 DUP5 DUP3 PUSH1 0x20 DUP7 ADD PUSH2 0x632 JUMP JUMPDEST SWAP2 POP POP SWAP3 SWAP2 POP POP JUMP JUMPDEST PUSH0 DUP1 PUSH1 0x40 DUP4 DUP6 SUB SLT ISZERO PUSH2 0x6B6 JUMPI PUSH2 0x6B5 PUSH2 0x492 JUMP JUMPDEST JUMPDEST PUSH0 DUP4 ADD CALLDATALOAD PUSH8 0xFFFFFFFFFFFFFFFF DUP2 GT ISZERO PUSH2 0x6D3 JUMPI PUSH2 0x6D2 PUSH2 0x496 JUMP JUMPDEST JUMPDEST PUSH2 0x6DF DUP6 DUP3 DUP7 ADD PUSH2 0x673 JUMP JUMPDEST SWAP3 POP POP PUSH1 0x20 PUSH2 0x6F0 DUP6 DUP3 DUP7 ADD PUSH2 0x535 JUMP JUMPDEST SWAP2 POP POP SWAP3 POP SWAP3 SWAP1 POP JUMP JUMPDEST PUSH32 0x4E487B7100000000000000000000000000000000000000000000000000000000 PUSH0 MSTORE PUSH1 0x22 PUSH1 0x4 MSTORE PUSH1 0x24 PUSH0 REVERT JUMPDEST PUSH0 PUSH1 0x2 DUP3 DIV SWAP1 POP PUSH1 0x1 DUP3 AND DUP1 PUSH2 0x73E JUMPI PUSH1 0x7F DUP3 AND SWAP2 POP JUMPDEST PUSH1 0x20 DUP3 LT DUP2 SUB PUSH2 0x751 JUMPI PUSH2 0x750 PUSH2 0x6FA JUMP JUMPDEST JUMPDEST POP SWAP2 SWAP1 POP JUMP JUMPDEST PUSH0 DUP2 SWAP1 POP DUP2 PUSH0 MSTORE PUSH1 0x20 PUSH0 KECCAK256 SWAP1 POP SWAP2 SWAP1 POP JUMP JUMPDEST PUSH0 PUSH1 0x20 PUSH1 0x1F DUP4 ADD DIV SWAP1 POP SWAP2 SWAP1 POP JUMP JUMPDEST PUSH0 DUP3 DUP3 SHL SWAP1 POP SWAP3 SWAP2 POP POP JUMP JUMPDEST PUSH0 PUSH1 0x8 DUP4 MUL PUSH2 0x7B3 PUSH32 0xFFFFFFFFFFFFFFFFFFFFFFFFFFFFFFFFFFFFFFFFFFFFFFFFFFFFFFFFFFFFFFFF DUP3 PUSH2 0x778 JUMP JUMPDEST PUSH2 0x7BD DUP7 DUP4 PUSH2 0x778 JUMP JUMPDEST SWAP6 POP DUP1 NOT DUP5 AND SWAP4 POP DUP1 DUP7 AND DUP5 OR SWAP3 POP POP POP SWAP4 SWAP3 POP POP POP JUMP JUMPDEST PUSH0 DUP2 SWAP1 POP SWAP2 SWAP1 POP JUMP JUMPDEST PUSH0 PUSH2 0x7F8 PUSH2 0x7F3 PUSH2 0x7EE DUP5 PUSH2 0x41B JUMP JUMPDEST PUSH2 0x7D5 JUMP JUMPDEST PUSH2 0x41B JUMP JUMPDEST SWAP1 POP SWAP2 SWAP1 POP JUMP JUMPDEST PUSH0 DUP2 SWAP1 POP SWAP2 SWAP1 POP JUMP JUMPDEST PUSH2 0x811 DUP4 PUSH2 0x7DE JUMP JUMPDEST PUSH2 0x825 PUSH2 0x81D DUP3 PUSH2 0x7FF JUMP JUMPDEST DUP5 DUP5 SLOAD PUSH2 0x784 JUMP JUMPDEST DUP3 SSTORE POP POP POP POP JUMP JUMPDEST PUSH0 SWAP1 JUMP JUMPDEST PUSH2 0x839 PUSH2 0x82D JUMP JUMPDEST PUSH2 0x844 DUP2 DUP5 DUP5 PUSH2 0x808 JUMP JUMPDEST POP POP POP JUMP JUMPDEST JUMPDEST DUP2 DUP2 LT ISZERO PUSH2 0x867 JUMPI PUSH2 0x85C PUSH0 DUP3 PUSH2 0x831 JUMP JUMPDEST PUSH1 0x1 DUP2 ADD SWAP1 POP PUSH2 0x84A JUMP JUMPDEST POP POP JUMP JUMPDEST PUSH1 0x1F DUP3 GT ISZERO PUSH2 0x8AC JUMPI PUSH2 0x87D DUP2 PUSH2 0x757 JUMP JUMPDEST PUSH2 0x886 DUP5 PUSH2 0x769 JUMP JUMPDEST DUP2 ADD PUSH1 0x20 DUP6 LT ISZERO PUSH2 0x895 JUMPI DUP2 SWAP1 POP JUMPDEST PUSH2 0x8A9 PUSH2 0x8A1 DUP6 PUSH2 0x769 JUMP JUMPDEST DUP4 ADD DUP3 PUSH2 0x849 JUMP JUMPDEST POP POP JUMPDEST POP POP POP JUMP JUMPDEST PUSH0 DUP3 DUP3 SHR SWAP1 POP SWAP3 SWAP2 POP POP JUMP JUMPDEST PUSH0 PUSH2 0x8CC PUSH0 NOT DUP5 PUSH1 0x8 MUL PUSH2 0x8B1 JUMP JUMPDEST NOT DUP1 DUP4 AND SWAP2 POP POP SWAP3 SWAP2 POP POP JUMP JUMPDEST PUSH0 PUSH2 0x8E4 DUP4 DUP4 PUSH2 0x8BD JUMP JUMPDEST SWAP2 POP DUP3 PUSH1 0x2 MUL DUP3 OR SWAP1 POP SWAP3 SWAP2 POP POP JUMP JUMPDEST PUSH2 0x8FD DUP3 PUSH2 0x3AB JUMP JUMPDEST PUSH8 0xFFFFFFFFFFFFFFFF DUP2 GT ISZERO PUSH2 0x916 JUMPI PUSH2 0x915 PUSH2 0x57C JUMP JUMPDEST JUMPDEST PUSH2 0x920 DUP3 SLOAD PUSH2 0x727 JUMP JUMPDEST PUSH2 0x92B DUP3 DUP3 DUP6 PUSH2 0x86B JUMP JUMPDEST PUSH0 PUSH1 0x20 SWAP1 POP PUSH1 0x1F DUP4 GT PUSH1 0x1 DUP2 EQ PUSH2 0x95C JUMPI PUSH0 DUP5 ISZERO PUSH2 0x94A JUMPI DUP3 DUP8 ADD MLOAD SWAP1 POP JUMPDEST PUSH2 0x954 DUP6 DUP3 PUSH2 0x8D9 JUMP JUMPDEST DUP7 SSTORE POP PUSH2 0x9BB JUMP JUMPDEST PUSH1 0x1F NOT DUP5 AND PUSH2 0x96A DUP7 PUSH2 0x757 JUMP JUMPDEST PUSH0 JUMPDEST DUP3 DUP2 LT ISZERO PUSH2 0x991 JUMPI DUP5 DUP10 ADD MLOAD DUP3 SSTORE PUSH1 0x1 DUP3 ADD SWAP2 POP PUSH1 0x20 DUP6 ADD SWAP5 POP PUSH1 0x20 DUP2 ADD SWAP1 POP PUSH2 0x96C JUMP JUMPDEST DUP7 DUP4 LT ISZERO PUSH2 0x9AE JUMPI DUP5 DUP10 ADD MLOAD PUSH2 0x9AA PUSH1 0x1F DUP10 AND DUP3 PUSH2 0x8BD JUMP JUMPDEST DUP4 SSTORE POP JUMPDEST PUSH1 0x1 PUSH1 0x2 DUP9 MUL ADD DUP9 SSTORE POP POP POP JUMPDEST POP POP POP POP POP POP JUMP INVALID LOG2 PUSH5 0x6970667358 0x22 SLT KECCAK256 0xC9 LOG2 DUP10 PUSH26 0x7803F8A0BC5DC659122A3D37FCFA3A818A82A899674BFB80FBD7 0xD9 BASEFEE PUSH5 0x736F6C6343 STOP ADDMOD BYTE STOP CALLER "
				},
				"gasEstimates": {
					"creation": {
						"codeDepositCost": "510600",
						"executionCost": "541",
						"totalCost": "511141"
					},
					"external": {
						"atualizarIdade(uint256)": "22564",
						"criarPessoa(string,uint256)": "infinite",
						"s_mappingPessoa(address)": "infinite",
						"s_pessoa()": "infinite",
						"s_pessoas(uint256)": "infinite"
					}
				},
				"methodIdentifiers": {
					"atualizarIdade(uint256)": "8007891f",
					"criarPessoa(string,uint256)": "822c8f9b",
					"s_mappingPessoa(address)": "36108f3f",
					"s_pessoa()": "28c45a83",
					"s_pessoas(uint256)": "3844c8c1"
				}
			},
			"storageLayout": {
				"storage": [
					{
						"astId": 11,
						"contract": "ExemploDeStruct.sol:ExemploDeStruct",
						"label": "s_pessoa",
						"offset": 0,
						"slot": "0",
						"type": "t_struct(Pessoa)8_storage"
					},
					{
						"astId": 15,
						"contract": "ExemploDeStruct.sol:ExemploDeStruct",
						"label": "s_pessoas",
						"offset": 0,
						"slot": "3",
						"type": "t_array(t_struct(Pessoa)8_storage)dyn_storage"
					},
					{
						"astId": 20,
						"contract": "ExemploDeStruct.sol:ExemploDeStruct",
						"label": "s_mappingPessoa",
						"offset": 0,
						"slot": "4",
						"type": "t_mapping(t_address,t_struct(Pessoa)8_storage)"
					}
				],
				"types": {
					"t_address": {
						"encoding": "inplace",
						"label": "address",
						"numberOfBytes": "20"
					},
					"t_array(t_struct(Pessoa)8_storage)dyn_storage": {
						"base": "t_struct(Pessoa)8_storage",
						"encoding": "dynamic_array",
						"label": "struct ExemploDeStruct.Pessoa[]",
						"numberOfBytes": "32"
					},
					"t_bool": {
						"encoding": "inplace",
						"label": "bool",
						"numberOfBytes": "1"
					},
					"t_mapping(t_address,t_struct(Pessoa)8_storage)": {
						"encoding": "mapping",
						"key": "t_address",
						"label": "mapping(address => struct ExemploDeStruct.Pessoa)",
						"numberOfBytes": "32",
						"value": "t_struct(Pessoa)8_storage"
					},
					"t_string_storage": {
						"encoding": "bytes",
						"label": "string",
						"numberOfBytes": "32"
					},
					"t_struct(Pessoa)8_storage": {
						"encoding": "inplace",
						"label": "struct ExemploDeStruct.Pessoa",
						"members": [
							{
								"astId": 3,
								"contract": "ExemploDeStruct.sol:ExemploDeStruct",
								"label": "nome",
								"offset": 0,
								"slot": "0",
								"type": "t_string_storage"
							},
							{
								"astId": 5,
								"contract": "ExemploDeStruct.sol:ExemploDeStruct",
								"label": "idade",
								"offset": 0,
								"slot": "1",
								"type": "t_uint256"
							},
							{
								"astId": 7,
								"contract": "ExemploDeStruct.sol:ExemploDeStruct",
								"label": "ativo",
								"offset": 0,
								"slot": "2",
								"type": "t_bool"
							}
						],
						"numberOfBytes": "96"
					},
					"t_uint256": {
						"encoding": "inplace",
						"label": "uint256",
						"numberOfBytes": "32"
					}
				}
			},
			"userdoc": {
				"kind": "user",
				"methods": {},
				"version": 1
			}
		}
	}
}