{
	"ExemploParaTCC.sol": {
		"Modulo": {
			"abi": [
				{
					"inputs": [],
					"stateMutability": "nonpayable",
					"type": "constructor"
				},
				{
					"inputs": [
						{
							"internalType": "uint256",
							"name": "amount",
							"type": "uint256"
						},
						{
							"internalType": "uint256",
							"name": "allowedAmount",
							"type": "uint256"
						}
					],
					"name": "Modulo_AmountTooLow",
					"type": "error"
				},
				{
					"inputs": [
						{
							"internalType": "address",
							"name": "caller",
							"type": "address"
						},
						{
							"internalType": "address",
							"name": "owner",
							"type": "address"
						}
					],
					"name": "Modulo_CallerNotAllowed",
					"type": "error"
				},
				{
					"inputs": [
						{
							"internalType": "uint256",
							"name": "amount",
							"type": "uint256"
						},
						{
							"internalType": "uint256",
							"name": "contractBalance",
							"type": "uint256"
						}
					],
					"name": "Modulo_NotEnoughBalance",
					"type": "error"
				},
				{
					"anonymous": false,
					"inputs": [
						{
							"indexed": false,
							"internalType": "address",
							"name": "depositante",
							"type": "address"
						},
						{
							"indexed": false,
							"internalType": "uint256",
							"name": "valor",
							"type": "uint256"
						}
					],
					"name": "Modulo_DepositoFeitoEUsuarioRegistrado",
					"type": "event"
				},
				{
					"anonymous": false,
					"inputs": [
						{
							"indexed": false,
							"internalType": "address",
							"name": "user",
							"type": "address"
						}
					],
					"name": "Modulo_SaldoDoUsuarioDeletado",
					"type": "event"
				},
				{
					"anonymous": false,
					"inputs": [
						{
							"indexed": false,
							"internalType": "string",
							"name": "message",
							"type": "string"
						}
					],
					"name": "Modulo_TextoDinamicoAtualizado",
					"type": "event"
				},
				{
					"anonymous": false,
					"inputs": [
						{
							"indexed": false,
							"internalType": "address",
							"name": "user",
							"type": "address"
						}
					],
					"name": "Modulo_UsuarioRemovido",
					"type": "event"
				},
				{
					"stateMutability": "payable",
					"type": "fallback"
				},
				{
					"inputs": [
						{
							"internalType": "address",
							"name": "_user",
							"type": "address"
						}
					],
					"name": "deleteArrayValue",
					"outputs": [],
					"stateMutability": "nonpayable",
					"type": "function"
				},
				{
					"inputs": [
						{
							"internalType": "address",
							"name": "_user",
							"type": "address"
						}
					],
					"name": "deleteMapping",
					"outputs": [],
					"stateMutability": "nonpayable",
					"type": "function"
				},
				{
					"inputs": [],
					"name": "deposit",
					"outputs": [],
					"stateMutability": "payable",
					"type": "function"
				},
				{
					"inputs": [],
					"name": "resetStruct",
					"outputs": [],
					"stateMutability": "nonpayable",
					"type": "function"
				},
				{
					"inputs": [
						{
							"internalType": "uint256",
							"name": "",
							"type": "uint256"
						}
					],
					"name": "s_depositantes",
					"outputs": [
						{
							"internalType": "address",
							"name": "",
							"type": "address"
						}
					],
					"stateMutability": "view",
					"type": "function"
				},
				{
					"inputs": [
						{
							"internalType": "address",
							"name": "carteira",
							"type": "address"
						}
					],
					"name": "s_saldo",
					"outputs": [
						{
							"internalType": "uint256",
							"name": "saldo",
							"type": "uint256"
						}
					],
					"stateMutability": "view",
					"type": "function"
				},
				{
					"inputs": [
						{
							"internalType": "string",
							"name": "_message",
							"type": "string"
						}
					],
					"name": "setMessage",
					"outputs": [],
					"stateMutability": "nonpayable",
					"type": "function"
				},
				{
					"inputs": [
						{
							"internalType": "address",
							"name": "_receiver",
							"type": "address"
						},
						{
							"internalType": "uint256",
							"name": "_amount",
							"type": "uint256"
						}
					],
					"name": "withdraw",
					"outputs": [],
					"stateMutability": "nonpayable",
					"type": "function"
				},
				{
					"stateMutability": "payable",
					"type": "receive"
				}
			],
			"devdoc": {
				"kind": "dev",
				"methods": {
					"setMessage(string)": {
						"details": "this function should be called by anyone",
						"params": {
							"_message": "the message that will be stored"
						}
					}
				},
				"version": 1
			},
			"evm": {
				"assembly": "    /* \"ExemploParaTCC.sol\":57:3325  contract Modulo {... */\n  mstore(0x40, 0xa0)\n    /* \"ExemploParaTCC.sol\":1158:1208  constructor(){... */\n  callvalue\n  dup1\n  iszero\n  tag_1\n  jumpi\n  revert(0x00, 0x00)\ntag_1:\n  pop\n    /* \"ExemploParaTCC.sol\":1191:1201  msg.sender */\n  caller\n    /* \"ExemploParaTCC.sol\":1181:1201  i_owner = msg.sender */\n  0xffffffffffffffffffffffffffffffffffffffff\n  and\n  0x80\n  dup2\n  0xffffffffffffffffffffffffffffffffffffffff\n  and\n  dup2\n  mstore\n  pop\n  pop\n    /* \"ExemploParaTCC.sol\":57:3325  contract Modulo {... */\n  mload(0x80)\n  codecopy(0x00, dataOffset(sub_0), dataSize(sub_0))\n  0x00\n  assignImmutable(\"0xeb09910a03c892999c305d4a86a46fa82693119d981eef22c8d043b31f9e8a31\")\n  return(0x00, dataSize(sub_0))\nstop\n\nsub_0: assembly {\n        /* \"ExemploParaTCC.sol\":57:3325  contract Modulo {... */\n      mstore(0x40, 0x80)\n      jumpi(tag_1, lt(calldatasize, 0x04))\n      shr(0xe0, calldataload(0x00))\n      dup1\n      0x672a4050\n      gt\n      tag_11\n      jumpi\n      dup1\n      0x672a4050\n      eq\n      tag_7\n      jumpi\n      dup1\n      0xd0e30db0\n      eq\n      tag_8\n      jumpi\n      dup1\n      0xf3800b38\n      eq\n      tag_9\n      jumpi\n      dup1\n      0xf3fef3a3\n      eq\n      tag_10\n      jumpi\n      jump(tag_2)\n    tag_11:\n      dup1\n      0x2d59f478\n      eq\n      tag_3\n      jumpi\n      dup1\n      0x368b8772\n      eq\n      tag_4\n      jumpi\n      dup1\n      0x49d318e8\n      eq\n      tag_5\n      jumpi\n      dup1\n      0x57970497\n      eq\n      tag_6\n      jumpi\n      jump(tag_2)\n    tag_1:\n    tag_2:\n      stop\n        /* \"ExemploParaTCC.sol\":2672:3098  function deleteArrayValue(address _user) external onlyOwner{... */\n    tag_3:\n      callvalue\n      dup1\n      iszero\n      tag_16\n      jumpi\n      revert(0x00, 0x00)\n    tag_16:\n      pop\n      tag_17\n      0x04\n      dup1\n      calldatasize\n      sub\n      dup2\n      add\n      swap1\n      tag_18\n      swap2\n      swap1\n      tag_19\n      jump\t// in\n    tag_18:\n      tag_20\n      jump\t// in\n    tag_17:\n      stop\n        /* \"ExemploParaTCC.sol\":2514:2666  function setMessage(string memory _message) external {... */\n    tag_4:\n      callvalue\n      dup1\n      iszero\n      tag_21\n      jumpi\n      revert(0x00, 0x00)\n    tag_21:\n      pop\n      tag_22\n      0x04\n      dup1\n      calldatasize\n      sub\n      dup2\n      add\n      swap1\n      tag_23\n      swap2\n      swap1\n      tag_24\n      jump\t// in\n    tag_23:\n      tag_25\n      jump\t// in\n    tag_22:\n      stop\n        /* \"ExemploParaTCC.sol\":809:840  address[] public s_depositantes */\n    tag_5:\n      callvalue\n      dup1\n      iszero\n      tag_26\n      jumpi\n      revert(0x00, 0x00)\n    tag_26:\n      pop\n      tag_27\n      0x04\n      dup1\n      calldatasize\n      sub\n      dup2\n      add\n      swap1\n      tag_28\n      swap2\n      swap1\n      tag_29\n      jump\t// in\n    tag_28:\n      tag_30\n      jump\t// in\n    tag_27:\n      mload(0x40)\n      tag_31\n      swap2\n      swap1\n      tag_32\n      jump\t// in\n    tag_31:\n      mload(0x40)\n      dup1\n      swap2\n      sub\n      swap1\n      return\n        /* \"ExemploParaTCC.sol\":846:903  mapping(address carteira => uint256 saldo) public s_saldo */\n    tag_6:\n      callvalue\n      dup1\n      iszero\n      tag_33\n      jumpi\n      revert(0x00, 0x00)\n    tag_33:\n      pop\n      tag_34\n      0x04\n      dup1\n      calldatasize\n      sub\n      dup2\n      add\n      swap1\n      tag_35\n      swap2\n      swap1\n      tag_19\n      jump\t// in\n    tag_35:\n      tag_36\n      jump\t// in\n    tag_34:\n      mload(0x40)\n      tag_37\n      swap2\n      swap1\n      tag_38\n      jump\t// in\n    tag_37:\n      mload(0x40)\n      dup1\n      swap2\n      sub\n      swap1\n      return\n        /* \"ExemploParaTCC.sol\":3256:3323  function resetStruct() external onlyOwner{... */\n    tag_7:\n      callvalue\n      dup1\n      iszero\n      tag_39\n      jumpi\n      revert(0x00, 0x00)\n    tag_39:\n      pop\n      tag_40\n      tag_41\n      jump\t// in\n    tag_40:\n      stop\n        /* \"ExemploParaTCC.sol\":1597:1799  function deposit() external payable {... */\n    tag_8:\n      tag_42\n      tag_43\n      jump\t// in\n    tag_42:\n      stop\n        /* \"ExemploParaTCC.sol\":3104:3250  function deleteMapping(address _user) external onlyOwner{... */\n    tag_9:\n      callvalue\n      dup1\n      iszero\n      tag_44\n      jumpi\n      revert(0x00, 0x00)\n    tag_44:\n      pop\n      tag_45\n      0x04\n      dup1\n      calldatasize\n      sub\n      dup2\n      add\n      swap1\n      tag_46\n      swap2\n      swap1\n      tag_19\n      jump\t// in\n    tag_46:\n      tag_47\n      jump\t// in\n    tag_45:\n      stop\n        /* \"ExemploParaTCC.sol\":1805:2299  function withdraw(address _receiver, uint256 _amount) external onlyOperators{... */\n    tag_10:\n      callvalue\n      dup1\n      iszero\n      tag_48\n      jumpi\n      revert(0x00, 0x00)\n    tag_48:\n      pop\n      tag_49\n      0x04\n      dup1\n      calldatasize\n      sub\n      dup2\n      add\n      swap1\n      tag_50\n      swap2\n      swap1\n      tag_51\n      jump\t// in\n    tag_50:\n      tag_52\n      jump\t// in\n    tag_49:\n      stop\n        /* \"ExemploParaTCC.sol\":2672:3098  function deleteArrayValue(address _user) external onlyOwner{... */\n    tag_20:\n        /* \"ExemploParaTCC.sol\":1261:1268  i_owner */\n      immutable(\"0xeb09910a03c892999c305d4a86a46fa82693119d981eef22c8d043b31f9e8a31\")\n        /* \"ExemploParaTCC.sol\":1247:1268  msg.sender != i_owner */\n      0xffffffffffffffffffffffffffffffffffffffff\n      and\n        /* \"ExemploParaTCC.sol\":1247:1257  msg.sender */\n      caller\n        /* \"ExemploParaTCC.sol\":1247:1268  msg.sender != i_owner */\n      0xffffffffffffffffffffffffffffffffffffffff\n      and\n      eq\n        /* \"ExemploParaTCC.sol\":1244:1321  if(msg.sender != i_owner) revert Modulo_CallerNotAllowed(msg.sender, i_owner) */\n      tag_54\n      jumpi\n        /* \"ExemploParaTCC.sol\":1301:1311  msg.sender */\n      caller\n        /* \"ExemploParaTCC.sol\":1313:1320  i_owner */\n      immutable(\"0xeb09910a03c892999c305d4a86a46fa82693119d981eef22c8d043b31f9e8a31\")\n        /* \"ExemploParaTCC.sol\":1277:1321  Modulo_CallerNotAllowed(msg.sender, i_owner) */\n      mload(0x40)\n      0x23213c1f00000000000000000000000000000000000000000000000000000000\n      dup2\n      mstore\n      0x04\n      add\n      tag_55\n      swap3\n      swap2\n      swap1\n      tag_56\n      jump\t// in\n    tag_55:\n      mload(0x40)\n      dup1\n      swap2\n      sub\n      swap1\n      revert\n        /* \"ExemploParaTCC.sol\":1244:1321  if(msg.sender != i_owner) revert Modulo_CallerNotAllowed(msg.sender, i_owner) */\n    tag_54:\n        /* \"ExemploParaTCC.sol\":2741:2763  uint256 tamanhoDoArray */\n      0x00\n        /* \"ExemploParaTCC.sol\":2766:2780  s_depositantes */\n      0x07\n        /* \"ExemploParaTCC.sol\":2766:2787  s_depositantes.length */\n      dup1\n      sload\n      swap1\n      pop\n        /* \"ExemploParaTCC.sol\":2741:2787  uint256 tamanhoDoArray = s_depositantes.length */\n      swap1\n      pop\n        /* \"ExemploParaTCC.sol\":2801:2810  uint256 i */\n      0x00\n        /* \"ExemploParaTCC.sol\":2797:3092  for(uint256 i; i < tamanhoDoArray; ++i){... */\n    tag_58:\n        /* \"ExemploParaTCC.sol\":2816:2830  tamanhoDoArray */\n      dup2\n        /* \"ExemploParaTCC.sol\":2812:2813  i */\n      dup2\n        /* \"ExemploParaTCC.sol\":2812:2830  i < tamanhoDoArray */\n      lt\n        /* \"ExemploParaTCC.sol\":2797:3092  for(uint256 i; i < tamanhoDoArray; ++i){... */\n      iszero\n      tag_59\n      jumpi\n        /* \"ExemploParaTCC.sol\":2874:2879  _user */\n      dup3\n        /* \"ExemploParaTCC.sol\":2853:2879  s_depositantes[i] == _user */\n      0xffffffffffffffffffffffffffffffffffffffff\n      and\n        /* \"ExemploParaTCC.sol\":2853:2867  s_depositantes */\n      0x07\n        /* \"ExemploParaTCC.sol\":2868:2869  i */\n      dup3\n        /* \"ExemploParaTCC.sol\":2853:2870  s_depositantes[i] */\n      dup2\n      sload\n      dup2\n      lt\n      tag_61\n      jumpi\n      tag_62\n      tag_63\n      jump\t// in\n    tag_62:\n    tag_61:\n      swap1\n      0x00\n      mstore\n      keccak256(0x00, 0x20)\n      add\n      0x00\n      swap1\n      sload\n      swap1\n      0x0100\n      exp\n      swap1\n      div\n      0xffffffffffffffffffffffffffffffffffffffff\n      and\n        /* \"ExemploParaTCC.sol\":2853:2879  s_depositantes[i] == _user */\n      0xffffffffffffffffffffffffffffffffffffffff\n      and\n      sub\n        /* \"ExemploParaTCC.sol\":2850:3082  if(s_depositantes[i] == _user){... */\n      tag_65\n      jumpi\n        /* \"ExemploParaTCC.sol\":2918:2932  s_depositantes */\n      0x07\n        /* \"ExemploParaTCC.sol\":2950:2951  1 */\n      0x01\n        /* \"ExemploParaTCC.sol\":2933:2947  tamanhoDoArray */\n      dup4\n        /* \"ExemploParaTCC.sol\":2933:2951  tamanhoDoArray - 1 */\n      tag_66\n      swap2\n      swap1\n      tag_67\n      jump\t// in\n    tag_66:\n        /* \"ExemploParaTCC.sol\":2918:2952  s_depositantes[tamanhoDoArray - 1] */\n      dup2\n      sload\n      dup2\n      lt\n      tag_68\n      jumpi\n      tag_69\n      tag_63\n      jump\t// in\n    tag_69:\n    tag_68:\n      swap1\n      0x00\n      mstore\n      keccak256(0x00, 0x20)\n      add\n      0x00\n      swap1\n      sload\n      swap1\n      0x0100\n      exp\n      swap1\n      div\n      0xffffffffffffffffffffffffffffffffffffffff\n      and\n        /* \"ExemploParaTCC.sol\":2898:2912  s_depositantes */\n      0x07\n        /* \"ExemploParaTCC.sol\":2913:2914  i */\n      dup3\n        /* \"ExemploParaTCC.sol\":2898:2915  s_depositantes[i] */\n      dup2\n      sload\n      dup2\n      lt\n      tag_71\n      jumpi\n      tag_72\n      tag_63\n      jump\t// in\n    tag_72:\n    tag_71:\n      swap1\n      0x00\n      mstore\n      keccak256(0x00, 0x20)\n      add\n      0x00\n        /* \"ExemploParaTCC.sol\":2898:2952  s_depositantes[i] = s_depositantes[tamanhoDoArray - 1] */\n      0x0100\n      exp\n      dup2\n      sload\n      dup2\n      0xffffffffffffffffffffffffffffffffffffffff\n      mul\n      not\n      and\n      swap1\n      dup4\n      0xffffffffffffffffffffffffffffffffffffffff\n      and\n      mul\n      or\n      swap1\n      sstore\n      pop\n        /* \"ExemploParaTCC.sol\":2970:2984  s_depositantes */\n      0x07\n        /* \"ExemploParaTCC.sol\":2970:2990  s_depositantes.pop() */\n      dup1\n      sload\n      dup1\n      tag_74\n      jumpi\n      tag_75\n      tag_76\n      jump\t// in\n    tag_75:\n    tag_74:\n      0x01\n      swap1\n      sub\n      dup2\n      dup2\n      swap1\n      0x00\n      mstore\n      keccak256(0x00, 0x20)\n      add\n      exp(0x0100, 0x00)\n      dup2\n      sload\n      swap1\n      0xffffffffffffffffffffffffffffffffffffffff\n      mul\n      not\n      and\n      swap1\n      sstore\n      swap1\n      sstore\n        /* \"ExemploParaTCC.sol\":3014:3043  Modulo_UsuarioRemovido(_user) */\n      0x5582416aebf278b650c6daddb8a9c0221d31e2f68e6d65a3a29a76752f46e26c\n        /* \"ExemploParaTCC.sol\":3037:3042  _user */\n      dup4\n        /* \"ExemploParaTCC.sol\":3014:3043  Modulo_UsuarioRemovido(_user) */\n      mload(0x40)\n      tag_78\n      swap2\n      swap1\n      tag_32\n      jump\t// in\n    tag_78:\n      mload(0x40)\n      dup1\n      swap2\n      sub\n      swap1\n      log1\n        /* \"ExemploParaTCC.sol\":3061:3068  return; */\n      pop\n      pop\n      jump(tag_57)\n        /* \"ExemploParaTCC.sol\":2850:3082  if(s_depositantes[i] == _user){... */\n    tag_65:\n        /* \"ExemploParaTCC.sol\":2832:2835  ++i */\n      dup1\n      0x01\n      add\n      swap1\n      pop\n        /* \"ExemploParaTCC.sol\":2797:3092  for(uint256 i; i < tamanhoDoArray; ++i){... */\n      jump(tag_58)\n    tag_59:\n      pop\n        /* \"ExemploParaTCC.sol\":2731:3098  {... */\n      pop\n        /* \"ExemploParaTCC.sol\":1331:1332  _ */\n    tag_57:\n        /* \"ExemploParaTCC.sol\":2672:3098  function deleteArrayValue(address _user) external onlyOwner{... */\n      pop\n      jump\t// out\n        /* \"ExemploParaTCC.sol\":2514:2666  function setMessage(string memory _message) external {... */\n    tag_25:\n        /* \"ExemploParaTCC.sol\":2595:2603  _message */\n      dup1\n        /* \"ExemploParaTCC.sol\":2577:2592  s_textoDinamico */\n      0x04\n        /* \"ExemploParaTCC.sol\":2577:2603  s_textoDinamico = _message */\n      swap1\n      dup2\n      tag_80\n      swap2\n      swap1\n      tag_81\n      jump\t// in\n    tag_80:\n      pop\n        /* \"ExemploParaTCC.sol\":2619:2659  Modulo_TextoDinamicoAtualizado(_message) */\n      0x82c9d772e1a9f4c0f41c81a56c5772cb71e0f2cce601e96c1588c793f5b69d97\n        /* \"ExemploParaTCC.sol\":2650:2658  _message */\n      dup2\n        /* \"ExemploParaTCC.sol\":2619:2659  Modulo_TextoDinamicoAtualizado(_message) */\n      mload(0x40)\n      tag_82\n      swap2\n      swap1\n      tag_83\n      jump\t// in\n    tag_82:\n      mload(0x40)\n      dup1\n      swap2\n      sub\n      swap1\n      log1\n        /* \"ExemploParaTCC.sol\":2514:2666  function setMessage(string memory _message) external {... */\n      pop\n      jump\t// out\n        /* \"ExemploParaTCC.sol\":809:840  address[] public s_depositantes */\n    tag_30:\n      0x07\n      dup2\n      dup2\n      sload\n      dup2\n      lt\n      tag_84\n      jumpi\n      0x00\n      dup1\n      revert\n    tag_84:\n      swap1\n      0x00\n      mstore\n      keccak256(0x00, 0x20)\n      add\n      0x00\n      swap2\n      pop\n      sload\n      swap1\n      0x0100\n      exp\n      swap1\n      div\n      0xffffffffffffffffffffffffffffffffffffffff\n      and\n      dup2\n      jump\t// out\n        /* \"ExemploParaTCC.sol\":846:903  mapping(address carteira => uint256 saldo) public s_saldo */\n    tag_36:\n      mstore(0x20, 0x08)\n      dup1\n      0x00\n      mstore\n      keccak256(0x00, 0x40)\n      0x00\n      swap2\n      pop\n      swap1\n      pop\n      sload\n      dup2\n      jump\t// out\n        /* \"ExemploParaTCC.sol\":3256:3323  function resetStruct() external onlyOwner{... */\n    tag_41:\n        /* \"ExemploParaTCC.sol\":1261:1268  i_owner */\n      immutable(\"0xeb09910a03c892999c305d4a86a46fa82693119d981eef22c8d043b31f9e8a31\")\n        /* \"ExemploParaTCC.sol\":1247:1268  msg.sender != i_owner */\n      0xffffffffffffffffffffffffffffffffffffffff\n      and\n        /* \"ExemploParaTCC.sol\":1247:1257  msg.sender */\n      caller\n        /* \"ExemploParaTCC.sol\":1247:1268  msg.sender != i_owner */\n      0xffffffffffffffffffffffffffffffffffffffff\n      and\n      eq\n        /* \"ExemploParaTCC.sol\":1244:1321  if(msg.sender != i_owner) revert Modulo_CallerNotAllowed(msg.sender, i_owner) */\n      tag_87\n      jumpi\n        /* \"ExemploParaTCC.sol\":1301:1311  msg.sender */\n      caller\n        /* \"ExemploParaTCC.sol\":1313:1320  i_owner */\n      immutable(\"0xeb09910a03c892999c305d4a86a46fa82693119d981eef22c8d043b31f9e8a31\")\n        /* \"ExemploParaTCC.sol\":1277:1321  Modulo_CallerNotAllowed(msg.sender, i_owner) */\n      mload(0x40)\n      0x23213c1f00000000000000000000000000000000000000000000000000000000\n      dup2\n      mstore\n      0x04\n      add\n      tag_88\n      swap3\n      swap2\n      swap1\n      tag_56\n      jump\t// in\n    tag_88:\n      mload(0x40)\n      dup1\n      swap2\n      sub\n      swap1\n      revert\n        /* \"ExemploParaTCC.sol\":1244:1321  if(msg.sender != i_owner) revert Modulo_CallerNotAllowed(msg.sender, i_owner) */\n    tag_87:\n        /* \"ExemploParaTCC.sol\":3314:3316  op */\n      0x00\n      0x00\n        /* \"ExemploParaTCC.sol\":3307:3316  delete op */\n      0x00\n      dup3\n      add\n      exp(0x0100, 0x00)\n      dup2\n      sload\n      swap1\n      0xffffffffffffffffffffffffffffffffffffffff\n      mul\n      not\n      and\n      swap1\n      sstore\n      0x00\n      dup3\n      add\n      exp(0x0100, 0x14)\n      dup2\n      sload\n      swap1\n      0xff\n      mul\n      not\n      and\n      swap1\n      sstore\n      pop\n      pop\n        /* \"ExemploParaTCC.sol\":3256:3323  function resetStruct() external onlyOwner{... */\n      jump\t// out\n        /* \"ExemploParaTCC.sol\":1597:1799  function deposit() external payable {... */\n    tag_43:\n        /* \"ExemploParaTCC.sol\":1665:1674  msg.value */\n      callvalue\n        /* \"ExemploParaTCC.sol\":1643:1650  s_saldo */\n      0x08\n        /* \"ExemploParaTCC.sol\":1643:1662  s_saldo[msg.sender] */\n      0x00\n        /* \"ExemploParaTCC.sol\":1651:1661  msg.sender */\n      caller\n        /* \"ExemploParaTCC.sol\":1643:1662  s_saldo[msg.sender] */\n      0xffffffffffffffffffffffffffffffffffffffff\n      and\n      0xffffffffffffffffffffffffffffffffffffffff\n      and\n      dup2\n      mstore\n      0x20\n      add\n      swap1\n      dup2\n      mstore\n      0x20\n      add\n      0x00\n      keccak256\n        /* \"ExemploParaTCC.sol\":1643:1674  s_saldo[msg.sender] = msg.value */\n      dup2\n      swap1\n      sstore\n      pop\n        /* \"ExemploParaTCC.sol\":1684:1698  s_depositantes */\n      0x07\n        /* \"ExemploParaTCC.sol\":1704:1714  msg.sender */\n      caller\n        /* \"ExemploParaTCC.sol\":1684:1715  s_depositantes.push(msg.sender) */\n      swap1\n      dup1\n      0x01\n      dup2\n      sload\n      add\n      dup1\n      dup3\n      sstore\n      dup1\n      swap2\n      pop\n      pop\n      0x01\n      swap1\n      sub\n      swap1\n      0x00\n      mstore\n      keccak256(0x00, 0x20)\n      add\n      0x00\n      swap1\n      swap2\n      swap1\n      swap2\n      swap1\n      swap2\n      0x0100\n      exp\n      dup2\n      sload\n      dup2\n      0xffffffffffffffffffffffffffffffffffffffff\n      mul\n      not\n      and\n      swap1\n      dup4\n      0xffffffffffffffffffffffffffffffffffffffff\n      and\n      mul\n      or\n      swap1\n      sstore\n      pop\n        /* \"ExemploParaTCC.sol\":1731:1792  Modulo_DepositoFeitoEUsuarioRegistrado(msg.sender, msg.value) */\n      0x54a7d39154b620d1a6998b1d444fd62390263215fa1b612388984926d631f1aa\n        /* \"ExemploParaTCC.sol\":1770:1780  msg.sender */\n      caller\n        /* \"ExemploParaTCC.sol\":1782:1791  msg.value */\n      callvalue\n        /* \"ExemploParaTCC.sol\":1731:1792  Modulo_DepositoFeitoEUsuarioRegistrado(msg.sender, msg.value) */\n      mload(0x40)\n      tag_92\n      swap3\n      swap2\n      swap1\n      tag_93\n      jump\t// in\n    tag_92:\n      mload(0x40)\n      dup1\n      swap2\n      sub\n      swap1\n      log1\n        /* \"ExemploParaTCC.sol\":1597:1799  function deposit() external payable {... */\n      jump\t// out\n        /* \"ExemploParaTCC.sol\":3104:3250  function deleteMapping(address _user) external onlyOwner{... */\n    tag_47:\n        /* \"ExemploParaTCC.sol\":1261:1268  i_owner */\n      immutable(\"0xeb09910a03c892999c305d4a86a46fa82693119d981eef22c8d043b31f9e8a31\")\n        /* \"ExemploParaTCC.sol\":1247:1268  msg.sender != i_owner */\n      0xffffffffffffffffffffffffffffffffffffffff\n      and\n        /* \"ExemploParaTCC.sol\":1247:1257  msg.sender */\n      caller\n        /* \"ExemploParaTCC.sol\":1247:1268  msg.sender != i_owner */\n      0xffffffffffffffffffffffffffffffffffffffff\n      and\n      eq\n        /* \"ExemploParaTCC.sol\":1244:1321  if(msg.sender != i_owner) revert Modulo_CallerNotAllowed(msg.sender, i_owner) */\n      tag_95\n      jumpi\n        /* \"ExemploParaTCC.sol\":1301:1311  msg.sender */\n      caller\n        /* \"ExemploParaTCC.sol\":1313:1320  i_owner */\n      immutable(\"0xeb09910a03c892999c305d4a86a46fa82693119d981eef22c8d043b31f9e8a31\")\n        /* \"ExemploParaTCC.sol\":1277:1321  Modulo_CallerNotAllowed(msg.sender, i_owner) */\n      mload(0x40)\n      0x23213c1f00000000000000000000000000000000000000000000000000000000\n      dup2\n      mstore\n      0x04\n      add\n      tag_96\n      swap3\n      swap2\n      swap1\n      tag_56\n      jump\t// in\n    tag_96:\n      mload(0x40)\n      dup1\n      swap2\n      sub\n      swap1\n      revert\n        /* \"ExemploParaTCC.sol\":1244:1321  if(msg.sender != i_owner) revert Modulo_CallerNotAllowed(msg.sender, i_owner) */\n    tag_95:\n        /* \"ExemploParaTCC.sol\":3177:3184  s_saldo */\n      0x08\n        /* \"ExemploParaTCC.sol\":3177:3191  s_saldo[_user] */\n      0x00\n        /* \"ExemploParaTCC.sol\":3185:3190  _user */\n      dup3\n        /* \"ExemploParaTCC.sol\":3177:3191  s_saldo[_user] */\n      0xffffffffffffffffffffffffffffffffffffffff\n      and\n      0xffffffffffffffffffffffffffffffffffffffff\n      and\n      dup2\n      mstore\n      0x20\n      add\n      swap1\n      dup2\n      mstore\n      0x20\n      add\n      0x00\n      keccak256\n        /* \"ExemploParaTCC.sol\":3170:3191  delete s_saldo[_user] */\n      0x00\n      swap1\n      sstore\n        /* \"ExemploParaTCC.sol\":3207:3243  Modulo_SaldoDoUsuarioDeletado(_user) */\n      0x62efaf0841a6265233114d664f73274d77d587710be72c6ca69f0002606112d4\n        /* \"ExemploParaTCC.sol\":3237:3242  _user */\n      dup2\n        /* \"ExemploParaTCC.sol\":3207:3243  Modulo_SaldoDoUsuarioDeletado(_user) */\n      mload(0x40)\n      tag_98\n      swap2\n      swap1\n      tag_32\n      jump\t// in\n    tag_98:\n      mload(0x40)\n      dup1\n      swap2\n      sub\n      swap1\n      log1\n        /* \"ExemploParaTCC.sol\":3104:3250  function deleteMapping(address _user) external onlyOwner{... */\n      pop\n      jump\t// out\n        /* \"ExemploParaTCC.sol\":1805:2299  function withdraw(address _receiver, uint256 _amount) external onlyOperators{... */\n    tag_52:\n        /* \"ExemploParaTCC.sol\":1397:1407  msg.sender */\n      caller\n        /* \"ExemploParaTCC.sol\":1382:1407  op.operador != msg.sender */\n      0xffffffffffffffffffffffffffffffffffffffff\n      and\n        /* \"ExemploParaTCC.sol\":1382:1384  op */\n      0x00\n        /* \"ExemploParaTCC.sol\":1382:1393  op.operador */\n      0x00\n      add\n      0x00\n      swap1\n      sload\n      swap1\n      0x0100\n      exp\n      swap1\n      div\n      0xffffffffffffffffffffffffffffffffffffffff\n      and\n        /* \"ExemploParaTCC.sol\":1382:1407  op.operador != msg.sender */\n      0xffffffffffffffffffffffffffffffffffffffff\n      and\n      eq\n      iszero\n        /* \"ExemploParaTCC.sol\":1382:1432  op.operador != msg.sender || op.isAllowed == false */\n      dup1\n      tag_100\n      jumpi\n      pop\n        /* \"ExemploParaTCC.sol\":1427:1432  false */\n      0x00\n        /* \"ExemploParaTCC.sol\":1411:1432  op.isAllowed == false */\n      iszero\n      iszero\n        /* \"ExemploParaTCC.sol\":1411:1413  op */\n      0x00\n        /* \"ExemploParaTCC.sol\":1411:1423  op.isAllowed */\n      0x00\n      add\n      0x14\n      swap1\n      sload\n      swap1\n      0x0100\n      exp\n      swap1\n      div\n      0xff\n      and\n        /* \"ExemploParaTCC.sol\":1411:1432  op.isAllowed == false */\n      iszero\n      iszero\n      eq\n        /* \"ExemploParaTCC.sol\":1382:1432  op.operador != msg.sender || op.isAllowed == false */\n    tag_100:\n        /* \"ExemploParaTCC.sol\":1379:1489  if(op.operador != msg.sender || op.isAllowed == false) revert Modulo_CallerNotAllowed(msg.sender, op.operador) */\n      iszero\n      tag_101\n      jumpi\n        /* \"ExemploParaTCC.sol\":1465:1475  msg.sender */\n      caller\n        /* \"ExemploParaTCC.sol\":1477:1479  op */\n      0x00\n        /* \"ExemploParaTCC.sol\":1477:1488  op.operador */\n      0x00\n      add\n      0x00\n      swap1\n      sload\n      swap1\n      0x0100\n      exp\n      swap1\n      div\n      0xffffffffffffffffffffffffffffffffffffffff\n      and\n        /* \"ExemploParaTCC.sol\":1441:1489  Modulo_CallerNotAllowed(msg.sender, op.operador) */\n      mload(0x40)\n      0x23213c1f00000000000000000000000000000000000000000000000000000000\n      dup2\n      mstore\n      0x04\n      add\n      tag_102\n      swap3\n      swap2\n      swap1\n      tag_56\n      jump\t// in\n    tag_102:\n      mload(0x40)\n      dup1\n      swap2\n      sub\n      swap1\n      revert\n        /* \"ExemploParaTCC.sol\":1379:1489  if(op.operador != msg.sender || op.isAllowed == false) revert Modulo_CallerNotAllowed(msg.sender, op.operador) */\n    tag_101:\n        /* \"ExemploParaTCC.sol\":1920:1921  0 */\n      0x00\n        /* \"ExemploParaTCC.sol\":1899:1922  _receiver != address(0) */\n      0xffffffffffffffffffffffffffffffffffffffff\n      and\n        /* \"ExemploParaTCC.sol\":1899:1908  _receiver */\n      dup3\n        /* \"ExemploParaTCC.sol\":1899:1922  _receiver != address(0) */\n      0xffffffffffffffffffffffffffffffffffffffff\n      and\n      sub\n        /* \"ExemploParaTCC.sol\":1891:1944  require(_receiver != address(0), \"Endereco Invalido\") */\n      tag_104\n      jumpi\n      mload(0x40)\n      0x08c379a000000000000000000000000000000000000000000000000000000000\n      dup2\n      mstore\n      0x04\n      add\n      tag_105\n      swap1\n      tag_106\n      jump\t// in\n    tag_105:\n      mload(0x40)\n      dup1\n      swap2\n      sub\n      swap1\n      revert\n    tag_104:\n        /* \"ExemploParaTCC.sol\":771:779  1*10**18 */\n      0x0de0b6b3a7640000\n        /* \"ExemploParaTCC.sol\":1988:1995  _amount */\n      dup2\n        /* \"ExemploParaTCC.sol\":1988:2008  _amount >= ONE_ETHER */\n      lt\n      iszero\n        /* \"ExemploParaTCC.sol\":2030:2037  _amount */\n      dup2\n        /* \"ExemploParaTCC.sol\":771:779  1*10**18 */\n      0x0de0b6b3a7640000\n        /* \"ExemploParaTCC.sol\":1980:2050  require(_amount >= ONE_ETHER, Modulo_AmountTooLow(_amount, ONE_ETHER)) */\n      swap1\n      swap2\n      tag_107\n      jumpi\n      mload(0x40)\n      0x6257f2a400000000000000000000000000000000000000000000000000000000\n      dup2\n      mstore\n      0x04\n      add\n      tag_108\n      swap3\n      swap2\n      swap1\n      tag_109\n      jump\t// in\n    tag_108:\n      mload(0x40)\n      dup1\n      swap2\n      sub\n      swap1\n      revert\n    tag_107:\n      pop\n      pop\n        /* \"ExemploParaTCC.sol\":2112:2133  address(this).balance */\n      selfbalance\n        /* \"ExemploParaTCC.sol\":2102:2109  _amount */\n      dup2\n        /* \"ExemploParaTCC.sol\":2102:2133  _amount > address(this).balance */\n      gt\n        /* \"ExemploParaTCC.sol\":2099:2197  if(_amount > address(this).balance) revert Modulo_NotEnoughBalance(_amount, address(this).balance) */\n      iszero\n      tag_110\n      jumpi\n        /* \"ExemploParaTCC.sol\":2166:2173  _amount */\n      dup1\n        /* \"ExemploParaTCC.sol\":2175:2196  address(this).balance */\n      selfbalance\n        /* \"ExemploParaTCC.sol\":2142:2197  Modulo_NotEnoughBalance(_amount, address(this).balance) */\n      mload(0x40)\n      0xa72052aa00000000000000000000000000000000000000000000000000000000\n      dup2\n      mstore\n      0x04\n      add\n      tag_111\n      swap3\n      swap2\n      swap1\n      tag_109\n      jump\t// in\n    tag_111:\n      mload(0x40)\n      dup1\n      swap2\n      sub\n      swap1\n      revert\n        /* \"ExemploParaTCC.sol\":2099:2197  if(_amount > address(this).balance) revert Modulo_NotEnoughBalance(_amount, address(this).balance) */\n    tag_110:\n        /* \"ExemploParaTCC.sol\":2209:2221  bool success */\n      0x00\n        /* \"ExemploParaTCC.sol\":2227:2236  _receiver */\n      dup3\n        /* \"ExemploParaTCC.sol\":2227:2241  _receiver.call */\n      0xffffffffffffffffffffffffffffffffffffffff\n      and\n        /* \"ExemploParaTCC.sol\":2249:2256  _amount */\n      dup3\n        /* \"ExemploParaTCC.sol\":2227:2261  _receiver.call{value: _amount}(\"\") */\n      mload(0x40)\n      tag_112\n      swap1\n      tag_113\n      jump\t// in\n    tag_112:\n      0x00\n      mload(0x40)\n      dup1\n      dup4\n      sub\n      dup2\n      dup6\n      dup8\n      gas\n      call\n      swap3\n      pop\n      pop\n      pop\n      returndatasize\n      dup1\n      0x00\n      dup2\n      eq\n      tag_116\n      jumpi\n      mload(0x40)\n      swap2\n      pop\n      and(add(returndatasize, 0x3f), not(0x1f))\n      dup3\n      add\n      0x40\n      mstore\n      returndatasize\n      dup3\n      mstore\n      returndatasize\n      0x00\n      0x20\n      dup5\n      add\n      returndatacopy\n      jump(tag_115)\n    tag_116:\n      0x60\n      swap2\n      pop\n    tag_115:\n      pop\n        /* \"ExemploParaTCC.sol\":2208:2261  (bool success, ) = _receiver.call{value: _amount}(\"\") */\n      pop\n      swap1\n      pop\n        /* \"ExemploParaTCC.sol\":2275:2282  success */\n      dup1\n        /* \"ExemploParaTCC.sol\":2271:2292  if(!success) revert() */\n      tag_117\n      jumpi\n        /* \"ExemploParaTCC.sol\":2284:2292  revert() */\n      revert(0x00, 0x00)\n        /* \"ExemploParaTCC.sol\":2271:2292  if(!success) revert() */\n    tag_117:\n        /* \"ExemploParaTCC.sol\":1881:2299  {... */\n      pop\n        /* \"ExemploParaTCC.sol\":1805:2299  function withdraw(address _receiver, uint256 _amount) external onlyOperators{... */\n      pop\n      pop\n      jump\t// out\n        /* \"#utility.yul\":7:82   */\n    tag_118:\n        /* \"#utility.yul\":40:46   */\n      0x00\n        /* \"#utility.yul\":73:75   */\n      0x40\n        /* \"#utility.yul\":67:76   */\n      mload\n        /* \"#utility.yul\":57:76   */\n      swap1\n      pop\n        /* \"#utility.yul\":7:82   */\n      swap1\n      jump\t// out\n        /* \"#utility.yul\":88:205   */\n    tag_119:\n        /* \"#utility.yul\":197:198   */\n      0x00\n        /* \"#utility.yul\":194:195   */\n      0x00\n        /* \"#utility.yul\":187:199   */\n      revert\n        /* \"#utility.yul\":211:328   */\n    tag_120:\n        /* \"#utility.yul\":320:321   */\n      0x00\n        /* \"#utility.yul\":317:318   */\n      0x00\n        /* \"#utility.yul\":310:322   */\n      revert\n        /* \"#utility.yul\":334:460   */\n    tag_121:\n        /* \"#utility.yul\":371:378   */\n      0x00\n        /* \"#utility.yul\":411:453   */\n      0xffffffffffffffffffffffffffffffffffffffff\n        /* \"#utility.yul\":404:409   */\n      dup3\n        /* \"#utility.yul\":400:454   */\n      and\n        /* \"#utility.yul\":389:454   */\n      swap1\n      pop\n        /* \"#utility.yul\":334:460   */\n      swap2\n      swap1\n      pop\n      jump\t// out\n        /* \"#utility.yul\":466:562   */\n    tag_122:\n        /* \"#utility.yul\":503:510   */\n      0x00\n        /* \"#utility.yul\":532:556   */\n      tag_173\n        /* \"#utility.yul\":550:555   */\n      dup3\n        /* \"#utility.yul\":532:556   */\n      tag_121\n      jump\t// in\n    tag_173:\n        /* \"#utility.yul\":521:556   */\n      swap1\n      pop\n        /* \"#utility.yul\":466:562   */\n      swap2\n      swap1\n      pop\n      jump\t// out\n        /* \"#utility.yul\":568:690   */\n    tag_123:\n        /* \"#utility.yul\":641:665   */\n      tag_175\n        /* \"#utility.yul\":659:664   */\n      dup2\n        /* \"#utility.yul\":641:665   */\n      tag_122\n      jump\t// in\n    tag_175:\n        /* \"#utility.yul\":634:639   */\n      dup2\n        /* \"#utility.yul\":631:666   */\n      eq\n        /* \"#utility.yul\":621:684   */\n      tag_176\n      jumpi\n        /* \"#utility.yul\":680:681   */\n      0x00\n        /* \"#utility.yul\":677:678   */\n      0x00\n        /* \"#utility.yul\":670:682   */\n      revert\n        /* \"#utility.yul\":621:684   */\n    tag_176:\n        /* \"#utility.yul\":568:690   */\n      pop\n      jump\t// out\n        /* \"#utility.yul\":696:835   */\n    tag_124:\n        /* \"#utility.yul\":742:747   */\n      0x00\n        /* \"#utility.yul\":780:786   */\n      dup2\n        /* \"#utility.yul\":767:787   */\n      calldataload\n        /* \"#utility.yul\":758:787   */\n      swap1\n      pop\n        /* \"#utility.yul\":796:829   */\n      tag_178\n        /* \"#utility.yul\":823:828   */\n      dup2\n        /* \"#utility.yul\":796:829   */\n      tag_123\n      jump\t// in\n    tag_178:\n        /* \"#utility.yul\":696:835   */\n      swap3\n      swap2\n      pop\n      pop\n      jump\t// out\n        /* \"#utility.yul\":841:1170   */\n    tag_19:\n        /* \"#utility.yul\":900:906   */\n      0x00\n        /* \"#utility.yul\":949:951   */\n      0x20\n        /* \"#utility.yul\":937:946   */\n      dup3\n        /* \"#utility.yul\":928:935   */\n      dup5\n        /* \"#utility.yul\":924:947   */\n      sub\n        /* \"#utility.yul\":920:952   */\n      slt\n        /* \"#utility.yul\":917:1036   */\n      iszero\n      tag_180\n      jumpi\n        /* \"#utility.yul\":955:1034   */\n      tag_181\n      tag_119\n      jump\t// in\n    tag_181:\n        /* \"#utility.yul\":917:1036   */\n    tag_180:\n        /* \"#utility.yul\":1075:1076   */\n      0x00\n        /* \"#utility.yul\":1100:1153   */\n      tag_182\n        /* \"#utility.yul\":1145:1152   */\n      dup5\n        /* \"#utility.yul\":1136:1142   */\n      dup3\n        /* \"#utility.yul\":1125:1134   */\n      dup6\n        /* \"#utility.yul\":1121:1143   */\n      add\n        /* \"#utility.yul\":1100:1153   */\n      tag_124\n      jump\t// in\n    tag_182:\n        /* \"#utility.yul\":1090:1153   */\n      swap2\n      pop\n        /* \"#utility.yul\":1046:1163   */\n      pop\n        /* \"#utility.yul\":841:1170   */\n      swap3\n      swap2\n      pop\n      pop\n      jump\t// out\n        /* \"#utility.yul\":1176:1293   */\n    tag_125:\n        /* \"#utility.yul\":1285:1286   */\n      0x00\n        /* \"#utility.yul\":1282:1283   */\n      0x00\n        /* \"#utility.yul\":1275:1287   */\n      revert\n        /* \"#utility.yul\":1299:1416   */\n    tag_126:\n        /* \"#utility.yul\":1408:1409   */\n      0x00\n        /* \"#utility.yul\":1405:1406   */\n      0x00\n        /* \"#utility.yul\":1398:1410   */\n      revert\n        /* \"#utility.yul\":1422:1524   */\n    tag_127:\n        /* \"#utility.yul\":1463:1469   */\n      0x00\n        /* \"#utility.yul\":1514:1516   */\n      0x1f\n        /* \"#utility.yul\":1510:1517   */\n      not\n        /* \"#utility.yul\":1505:1507   */\n      0x1f\n        /* \"#utility.yul\":1498:1503   */\n      dup4\n        /* \"#utility.yul\":1494:1508   */\n      add\n        /* \"#utility.yul\":1490:1518   */\n      and\n        /* \"#utility.yul\":1480:1518   */\n      swap1\n      pop\n        /* \"#utility.yul\":1422:1524   */\n      swap2\n      swap1\n      pop\n      jump\t// out\n        /* \"#utility.yul\":1530:1710   */\n    tag_128:\n        /* \"#utility.yul\":1578:1655   */\n      0x4e487b7100000000000000000000000000000000000000000000000000000000\n        /* \"#utility.yul\":1575:1576   */\n      0x00\n        /* \"#utility.yul\":1568:1656   */\n      mstore\n        /* \"#utility.yul\":1675:1679   */\n      0x41\n        /* \"#utility.yul\":1672:1673   */\n      0x04\n        /* \"#utility.yul\":1665:1680   */\n      mstore\n        /* \"#utility.yul\":1699:1703   */\n      0x24\n        /* \"#utility.yul\":1696:1697   */\n      0x00\n        /* \"#utility.yul\":1689:1704   */\n      revert\n        /* \"#utility.yul\":1716:1997   */\n    tag_129:\n        /* \"#utility.yul\":1799:1826   */\n      tag_188\n        /* \"#utility.yul\":1821:1825   */\n      dup3\n        /* \"#utility.yul\":1799:1826   */\n      tag_127\n      jump\t// in\n    tag_188:\n        /* \"#utility.yul\":1791:1797   */\n      dup2\n        /* \"#utility.yul\":1787:1827   */\n      add\n        /* \"#utility.yul\":1929:1935   */\n      dup2\n        /* \"#utility.yul\":1917:1927   */\n      dup2\n        /* \"#utility.yul\":1914:1936   */\n      lt\n        /* \"#utility.yul\":1893:1911   */\n      0xffffffffffffffff\n        /* \"#utility.yul\":1881:1891   */\n      dup3\n        /* \"#utility.yul\":1878:1912   */\n      gt\n        /* \"#utility.yul\":1875:1937   */\n      or\n        /* \"#utility.yul\":1872:1960   */\n      iszero\n      tag_189\n      jumpi\n        /* \"#utility.yul\":1940:1958   */\n      tag_190\n      tag_128\n      jump\t// in\n    tag_190:\n        /* \"#utility.yul\":1872:1960   */\n    tag_189:\n        /* \"#utility.yul\":1980:1990   */\n      dup1\n        /* \"#utility.yul\":1976:1978   */\n      0x40\n        /* \"#utility.yul\":1969:1991   */\n      mstore\n        /* \"#utility.yul\":1759:1997   */\n      pop\n        /* \"#utility.yul\":1716:1997   */\n      pop\n      pop\n      jump\t// out\n        /* \"#utility.yul\":2003:2132   */\n    tag_130:\n        /* \"#utility.yul\":2037:2043   */\n      0x00\n        /* \"#utility.yul\":2064:2084   */\n      tag_192\n      tag_118\n      jump\t// in\n    tag_192:\n        /* \"#utility.yul\":2054:2084   */\n      swap1\n      pop\n        /* \"#utility.yul\":2093:2126   */\n      tag_193\n        /* \"#utility.yul\":2121:2125   */\n      dup3\n        /* \"#utility.yul\":2113:2119   */\n      dup3\n        /* \"#utility.yul\":2093:2126   */\n      tag_129\n      jump\t// in\n    tag_193:\n        /* \"#utility.yul\":2003:2132   */\n      swap2\n      swap1\n      pop\n      jump\t// out\n        /* \"#utility.yul\":2138:2446   */\n    tag_131:\n        /* \"#utility.yul\":2200:2204   */\n      0x00\n        /* \"#utility.yul\":2290:2308   */\n      0xffffffffffffffff\n        /* \"#utility.yul\":2282:2288   */\n      dup3\n        /* \"#utility.yul\":2279:2309   */\n      gt\n        /* \"#utility.yul\":2276:2332   */\n      iszero\n      tag_195\n      jumpi\n        /* \"#utility.yul\":2312:2330   */\n      tag_196\n      tag_128\n      jump\t// in\n    tag_196:\n        /* \"#utility.yul\":2276:2332   */\n    tag_195:\n        /* \"#utility.yul\":2350:2379   */\n      tag_197\n        /* \"#utility.yul\":2372:2378   */\n      dup3\n        /* \"#utility.yul\":2350:2379   */\n      tag_127\n      jump\t// in\n    tag_197:\n        /* \"#utility.yul\":2342:2379   */\n      swap1\n      pop\n        /* \"#utility.yul\":2434:2438   */\n      0x20\n        /* \"#utility.yul\":2428:2432   */\n      dup2\n        /* \"#utility.yul\":2424:2439   */\n      add\n        /* \"#utility.yul\":2416:2439   */\n      swap1\n      pop\n        /* \"#utility.yul\":2138:2446   */\n      swap2\n      swap1\n      pop\n      jump\t// out\n        /* \"#utility.yul\":2452:2600   */\n    tag_132:\n        /* \"#utility.yul\":2550:2556   */\n      dup3\n        /* \"#utility.yul\":2545:2548   */\n      dup2\n        /* \"#utility.yul\":2540:2543   */\n      dup4\n        /* \"#utility.yul\":2527:2557   */\n      calldatacopy\n        /* \"#utility.yul\":2591:2592   */\n      0x00\n        /* \"#utility.yul\":2582:2588   */\n      dup4\n        /* \"#utility.yul\":2577:2580   */\n      dup4\n        /* \"#utility.yul\":2573:2589   */\n      add\n        /* \"#utility.yul\":2566:2593   */\n      mstore\n        /* \"#utility.yul\":2452:2600   */\n      pop\n      pop\n      pop\n      jump\t// out\n        /* \"#utility.yul\":2606:3031   */\n    tag_133:\n        /* \"#utility.yul\":2684:2689   */\n      0x00\n        /* \"#utility.yul\":2709:2775   */\n      tag_200\n        /* \"#utility.yul\":2725:2774   */\n      tag_201\n        /* \"#utility.yul\":2767:2773   */\n      dup5\n        /* \"#utility.yul\":2725:2774   */\n      tag_131\n      jump\t// in\n    tag_201:\n        /* \"#utility.yul\":2709:2775   */\n      tag_130\n      jump\t// in\n    tag_200:\n        /* \"#utility.yul\":2700:2775   */\n      swap1\n      pop\n        /* \"#utility.yul\":2798:2804   */\n      dup3\n        /* \"#utility.yul\":2791:2796   */\n      dup2\n        /* \"#utility.yul\":2784:2805   */\n      mstore\n        /* \"#utility.yul\":2836:2840   */\n      0x20\n        /* \"#utility.yul\":2829:2834   */\n      dup2\n        /* \"#utility.yul\":2825:2841   */\n      add\n        /* \"#utility.yul\":2874:2877   */\n      dup5\n        /* \"#utility.yul\":2865:2871   */\n      dup5\n        /* \"#utility.yul\":2860:2863   */\n      dup5\n        /* \"#utility.yul\":2856:2872   */\n      add\n        /* \"#utility.yul\":2853:2878   */\n      gt\n        /* \"#utility.yul\":2850:2962   */\n      iszero\n      tag_202\n      jumpi\n        /* \"#utility.yul\":2881:2960   */\n      tag_203\n      tag_126\n      jump\t// in\n    tag_203:\n        /* \"#utility.yul\":2850:2962   */\n    tag_202:\n        /* \"#utility.yul\":2971:3025   */\n      tag_204\n        /* \"#utility.yul\":3018:3024   */\n      dup5\n        /* \"#utility.yul\":3013:3016   */\n      dup3\n        /* \"#utility.yul\":3008:3011   */\n      dup6\n        /* \"#utility.yul\":2971:3025   */\n      tag_132\n      jump\t// in\n    tag_204:\n        /* \"#utility.yul\":2690:3031   */\n      pop\n        /* \"#utility.yul\":2606:3031   */\n      swap4\n      swap3\n      pop\n      pop\n      pop\n      jump\t// out\n        /* \"#utility.yul\":3051:3391   */\n    tag_134:\n        /* \"#utility.yul\":3107:3112   */\n      0x00\n        /* \"#utility.yul\":3156:3159   */\n      dup3\n        /* \"#utility.yul\":3149:3153   */\n      0x1f\n        /* \"#utility.yul\":3141:3147   */\n      dup4\n        /* \"#utility.yul\":3137:3154   */\n      add\n        /* \"#utility.yul\":3133:3160   */\n      slt\n        /* \"#utility.yul\":3123:3245   */\n      tag_206\n      jumpi\n        /* \"#utility.yul\":3164:3243   */\n      tag_207\n      tag_125\n      jump\t// in\n    tag_207:\n        /* \"#utility.yul\":3123:3245   */\n    tag_206:\n        /* \"#utility.yul\":3281:3287   */\n      dup2\n        /* \"#utility.yul\":3268:3288   */\n      calldataload\n        /* \"#utility.yul\":3306:3385   */\n      tag_208\n        /* \"#utility.yul\":3381:3384   */\n      dup5\n        /* \"#utility.yul\":3373:3379   */\n      dup3\n        /* \"#utility.yul\":3366:3370   */\n      0x20\n        /* \"#utility.yul\":3358:3364   */\n      dup7\n        /* \"#utility.yul\":3354:3371   */\n      add\n        /* \"#utility.yul\":3306:3385   */\n      tag_133\n      jump\t// in\n    tag_208:\n        /* \"#utility.yul\":3297:3385   */\n      swap2\n      pop\n        /* \"#utility.yul\":3113:3391   */\n      pop\n        /* \"#utility.yul\":3051:3391   */\n      swap3\n      swap2\n      pop\n      pop\n      jump\t// out\n        /* \"#utility.yul\":3397:3906   */\n    tag_24:\n        /* \"#utility.yul\":3466:3472   */\n      0x00\n        /* \"#utility.yul\":3515:3517   */\n      0x20\n        /* \"#utility.yul\":3503:3512   */\n      dup3\n        /* \"#utility.yul\":3494:3501   */\n      dup5\n        /* \"#utility.yul\":3490:3513   */\n      sub\n        /* \"#utility.yul\":3486:3518   */\n      slt\n        /* \"#utility.yul\":3483:3602   */\n      iszero\n      tag_210\n      jumpi\n        /* \"#utility.yul\":3521:3600   */\n      tag_211\n      tag_119\n      jump\t// in\n    tag_211:\n        /* \"#utility.yul\":3483:3602   */\n    tag_210:\n        /* \"#utility.yul\":3669:3670   */\n      0x00\n        /* \"#utility.yul\":3658:3667   */\n      dup3\n        /* \"#utility.yul\":3654:3671   */\n      add\n        /* \"#utility.yul\":3641:3672   */\n      calldataload\n        /* \"#utility.yul\":3699:3717   */\n      0xffffffffffffffff\n        /* \"#utility.yul\":3691:3697   */\n      dup2\n        /* \"#utility.yul\":3688:3718   */\n      gt\n        /* \"#utility.yul\":3685:3802   */\n      iszero\n      tag_212\n      jumpi\n        /* \"#utility.yul\":3721:3800   */\n      tag_213\n      tag_120\n      jump\t// in\n    tag_213:\n        /* \"#utility.yul\":3685:3802   */\n    tag_212:\n        /* \"#utility.yul\":3826:3889   */\n      tag_214\n        /* \"#utility.yul\":3881:3888   */\n      dup5\n        /* \"#utility.yul\":3872:3878   */\n      dup3\n        /* \"#utility.yul\":3861:3870   */\n      dup6\n        /* \"#utility.yul\":3857:3879   */\n      add\n        /* \"#utility.yul\":3826:3889   */\n      tag_134\n      jump\t// in\n    tag_214:\n        /* \"#utility.yul\":3816:3889   */\n      swap2\n      pop\n        /* \"#utility.yul\":3612:3899   */\n      pop\n        /* \"#utility.yul\":3397:3906   */\n      swap3\n      swap2\n      pop\n      pop\n      jump\t// out\n        /* \"#utility.yul\":3912:3989   */\n    tag_135:\n        /* \"#utility.yul\":3949:3956   */\n      0x00\n        /* \"#utility.yul\":3978:3983   */\n      dup2\n        /* \"#utility.yul\":3967:3983   */\n      swap1\n      pop\n        /* \"#utility.yul\":3912:3989   */\n      swap2\n      swap1\n      pop\n      jump\t// out\n        /* \"#utility.yul\":3995:4117   */\n    tag_136:\n        /* \"#utility.yul\":4068:4092   */\n      tag_217\n        /* \"#utility.yul\":4086:4091   */\n      dup2\n        /* \"#utility.yul\":4068:4092   */\n      tag_135\n      jump\t// in\n    tag_217:\n        /* \"#utility.yul\":4061:4066   */\n      dup2\n        /* \"#utility.yul\":4058:4093   */\n      eq\n        /* \"#utility.yul\":4048:4111   */\n      tag_218\n      jumpi\n        /* \"#utility.yul\":4107:4108   */\n      0x00\n        /* \"#utility.yul\":4104:4105   */\n      0x00\n        /* \"#utility.yul\":4097:4109   */\n      revert\n        /* \"#utility.yul\":4048:4111   */\n    tag_218:\n        /* \"#utility.yul\":3995:4117   */\n      pop\n      jump\t// out\n        /* \"#utility.yul\":4123:4262   */\n    tag_137:\n        /* \"#utility.yul\":4169:4174   */\n      0x00\n        /* \"#utility.yul\":4207:4213   */\n      dup2\n        /* \"#utility.yul\":4194:4214   */\n      calldataload\n        /* \"#utility.yul\":4185:4214   */\n      swap1\n      pop\n        /* \"#utility.yul\":4223:4256   */\n      tag_220\n        /* \"#utility.yul\":4250:4255   */\n      dup2\n        /* \"#utility.yul\":4223:4256   */\n      tag_136\n      jump\t// in\n    tag_220:\n        /* \"#utility.yul\":4123:4262   */\n      swap3\n      swap2\n      pop\n      pop\n      jump\t// out\n        /* \"#utility.yul\":4268:4597   */\n    tag_29:\n        /* \"#utility.yul\":4327:4333   */\n      0x00\n        /* \"#utility.yul\":4376:4378   */\n      0x20\n        /* \"#utility.yul\":4364:4373   */\n      dup3\n        /* \"#utility.yul\":4355:4362   */\n      dup5\n        /* \"#utility.yul\":4351:4374   */\n      sub\n        /* \"#utility.yul\":4347:4379   */\n      slt\n        /* \"#utility.yul\":4344:4463   */\n      iszero\n      tag_222\n      jumpi\n        /* \"#utility.yul\":4382:4461   */\n      tag_223\n      tag_119\n      jump\t// in\n    tag_223:\n        /* \"#utility.yul\":4344:4463   */\n    tag_222:\n        /* \"#utility.yul\":4502:4503   */\n      0x00\n        /* \"#utility.yul\":4527:4580   */\n      tag_224\n        /* \"#utility.yul\":4572:4579   */\n      dup5\n        /* \"#utility.yul\":4563:4569   */\n      dup3\n        /* \"#utility.yul\":4552:4561   */\n      dup6\n        /* \"#utility.yul\":4548:4570   */\n      add\n        /* \"#utility.yul\":4527:4580   */\n      tag_137\n      jump\t// in\n    tag_224:\n        /* \"#utility.yul\":4517:4580   */\n      swap2\n      pop\n        /* \"#utility.yul\":4473:4590   */\n      pop\n        /* \"#utility.yul\":4268:4597   */\n      swap3\n      swap2\n      pop\n      pop\n      jump\t// out\n        /* \"#utility.yul\":4603:4721   */\n    tag_138:\n        /* \"#utility.yul\":4690:4714   */\n      tag_226\n        /* \"#utility.yul\":4708:4713   */\n      dup2\n        /* \"#utility.yul\":4690:4714   */\n      tag_122\n      jump\t// in\n    tag_226:\n        /* \"#utility.yul\":4685:4688   */\n      dup3\n        /* \"#utility.yul\":4678:4715   */\n      mstore\n        /* \"#utility.yul\":4603:4721   */\n      pop\n      pop\n      jump\t// out\n        /* \"#utility.yul\":4727:4949   */\n    tag_32:\n        /* \"#utility.yul\":4820:4824   */\n      0x00\n        /* \"#utility.yul\":4858:4860   */\n      0x20\n        /* \"#utility.yul\":4847:4856   */\n      dup3\n        /* \"#utility.yul\":4843:4861   */\n      add\n        /* \"#utility.yul\":4835:4861   */\n      swap1\n      pop\n        /* \"#utility.yul\":4871:4942   */\n      tag_228\n        /* \"#utility.yul\":4939:4940   */\n      0x00\n        /* \"#utility.yul\":4928:4937   */\n      dup4\n        /* \"#utility.yul\":4924:4941   */\n      add\n        /* \"#utility.yul\":4915:4921   */\n      dup5\n        /* \"#utility.yul\":4871:4942   */\n      tag_138\n      jump\t// in\n    tag_228:\n        /* \"#utility.yul\":4727:4949   */\n      swap3\n      swap2\n      pop\n      pop\n      jump\t// out\n        /* \"#utility.yul\":4955:5073   */\n    tag_139:\n        /* \"#utility.yul\":5042:5066   */\n      tag_230\n        /* \"#utility.yul\":5060:5065   */\n      dup2\n        /* \"#utility.yul\":5042:5066   */\n      tag_135\n      jump\t// in\n    tag_230:\n        /* \"#utility.yul\":5037:5040   */\n      dup3\n        /* \"#utility.yul\":5030:5067   */\n      mstore\n        /* \"#utility.yul\":4955:5073   */\n      pop\n      pop\n      jump\t// out\n        /* \"#utility.yul\":5079:5301   */\n    tag_38:\n        /* \"#utility.yul\":5172:5176   */\n      0x00\n        /* \"#utility.yul\":5210:5212   */\n      0x20\n        /* \"#utility.yul\":5199:5208   */\n      dup3\n        /* \"#utility.yul\":5195:5213   */\n      add\n        /* \"#utility.yul\":5187:5213   */\n      swap1\n      pop\n        /* \"#utility.yul\":5223:5294   */\n      tag_232\n        /* \"#utility.yul\":5291:5292   */\n      0x00\n        /* \"#utility.yul\":5280:5289   */\n      dup4\n        /* \"#utility.yul\":5276:5293   */\n      add\n        /* \"#utility.yul\":5267:5273   */\n      dup5\n        /* \"#utility.yul\":5223:5294   */\n      tag_139\n      jump\t// in\n    tag_232:\n        /* \"#utility.yul\":5079:5301   */\n      swap3\n      swap2\n      pop\n      pop\n      jump\t// out\n        /* \"#utility.yul\":5307:5781   */\n    tag_51:\n        /* \"#utility.yul\":5375:5381   */\n      0x00\n        /* \"#utility.yul\":5383:5389   */\n      0x00\n        /* \"#utility.yul\":5432:5434   */\n      0x40\n        /* \"#utility.yul\":5420:5429   */\n      dup4\n        /* \"#utility.yul\":5411:5418   */\n      dup6\n        /* \"#utility.yul\":5407:5430   */\n      sub\n        /* \"#utility.yul\":5403:5435   */\n      slt\n        /* \"#utility.yul\":5400:5519   */\n      iszero\n      tag_234\n      jumpi\n        /* \"#utility.yul\":5438:5517   */\n      tag_235\n      tag_119\n      jump\t// in\n    tag_235:\n        /* \"#utility.yul\":5400:5519   */\n    tag_234:\n        /* \"#utility.yul\":5558:5559   */\n      0x00\n        /* \"#utility.yul\":5583:5636   */\n      tag_236\n        /* \"#utility.yul\":5628:5635   */\n      dup6\n        /* \"#utility.yul\":5619:5625   */\n      dup3\n        /* \"#utility.yul\":5608:5617   */\n      dup7\n        /* \"#utility.yul\":5604:5626   */\n      add\n        /* \"#utility.yul\":5583:5636   */\n      tag_124\n      jump\t// in\n    tag_236:\n        /* \"#utility.yul\":5573:5636   */\n      swap3\n      pop\n        /* \"#utility.yul\":5529:5646   */\n      pop\n        /* \"#utility.yul\":5685:5687   */\n      0x20\n        /* \"#utility.yul\":5711:5764   */\n      tag_237\n        /* \"#utility.yul\":5756:5763   */\n      dup6\n        /* \"#utility.yul\":5747:5753   */\n      dup3\n        /* \"#utility.yul\":5736:5745   */\n      dup7\n        /* \"#utility.yul\":5732:5754   */\n      add\n        /* \"#utility.yul\":5711:5764   */\n      tag_137\n      jump\t// in\n    tag_237:\n        /* \"#utility.yul\":5701:5764   */\n      swap2\n      pop\n        /* \"#utility.yul\":5656:5774   */\n      pop\n        /* \"#utility.yul\":5307:5781   */\n      swap3\n      pop\n      swap3\n      swap1\n      pop\n      jump\t// out\n        /* \"#utility.yul\":5787:6119   */\n    tag_56:\n        /* \"#utility.yul\":5908:5912   */\n      0x00\n        /* \"#utility.yul\":5946:5948   */\n      0x40\n        /* \"#utility.yul\":5935:5944   */\n      dup3\n        /* \"#utility.yul\":5931:5949   */\n      add\n        /* \"#utility.yul\":5923:5949   */\n      swap1\n      pop\n        /* \"#utility.yul\":5959:6030   */\n      tag_239\n        /* \"#utility.yul\":6027:6028   */\n      0x00\n        /* \"#utility.yul\":6016:6025   */\n      dup4\n        /* \"#utility.yul\":6012:6029   */\n      add\n        /* \"#utility.yul\":6003:6009   */\n      dup6\n        /* \"#utility.yul\":5959:6030   */\n      tag_138\n      jump\t// in\n    tag_239:\n        /* \"#utility.yul\":6040:6112   */\n      tag_240\n        /* \"#utility.yul\":6108:6110   */\n      0x20\n        /* \"#utility.yul\":6097:6106   */\n      dup4\n        /* \"#utility.yul\":6093:6111   */\n      add\n        /* \"#utility.yul\":6084:6090   */\n      dup5\n        /* \"#utility.yul\":6040:6112   */\n      tag_138\n      jump\t// in\n    tag_240:\n        /* \"#utility.yul\":5787:6119   */\n      swap4\n      swap3\n      pop\n      pop\n      pop\n      jump\t// out\n        /* \"#utility.yul\":6125:6305   */\n    tag_63:\n        /* \"#utility.yul\":6173:6250   */\n      0x4e487b7100000000000000000000000000000000000000000000000000000000\n        /* \"#utility.yul\":6170:6171   */\n      0x00\n        /* \"#utility.yul\":6163:6251   */\n      mstore\n        /* \"#utility.yul\":6270:6274   */\n      0x32\n        /* \"#utility.yul\":6267:6268   */\n      0x04\n        /* \"#utility.yul\":6260:6275   */\n      mstore\n        /* \"#utility.yul\":6294:6298   */\n      0x24\n        /* \"#utility.yul\":6291:6292   */\n      0x00\n        /* \"#utility.yul\":6284:6299   */\n      revert\n        /* \"#utility.yul\":6311:6491   */\n    tag_140:\n        /* \"#utility.yul\":6359:6436   */\n      0x4e487b7100000000000000000000000000000000000000000000000000000000\n        /* \"#utility.yul\":6356:6357   */\n      0x00\n        /* \"#utility.yul\":6349:6437   */\n      mstore\n        /* \"#utility.yul\":6456:6460   */\n      0x11\n        /* \"#utility.yul\":6453:6454   */\n      0x04\n        /* \"#utility.yul\":6446:6461   */\n      mstore\n        /* \"#utility.yul\":6480:6484   */\n      0x24\n        /* \"#utility.yul\":6477:6478   */\n      0x00\n        /* \"#utility.yul\":6470:6485   */\n      revert\n        /* \"#utility.yul\":6497:6691   */\n    tag_67:\n        /* \"#utility.yul\":6537:6541   */\n      0x00\n        /* \"#utility.yul\":6557:6577   */\n      tag_244\n        /* \"#utility.yul\":6575:6576   */\n      dup3\n        /* \"#utility.yul\":6557:6577   */\n      tag_135\n      jump\t// in\n    tag_244:\n        /* \"#utility.yul\":6552:6577   */\n      swap2\n      pop\n        /* \"#utility.yul\":6591:6611   */\n      tag_245\n        /* \"#utility.yul\":6609:6610   */\n      dup4\n        /* \"#utility.yul\":6591:6611   */\n      tag_135\n      jump\t// in\n    tag_245:\n        /* \"#utility.yul\":6586:6611   */\n      swap3\n      pop\n        /* \"#utility.yul\":6635:6636   */\n      dup3\n        /* \"#utility.yul\":6632:6633   */\n      dup3\n        /* \"#utility.yul\":6628:6637   */\n      sub\n        /* \"#utility.yul\":6620:6637   */\n      swap1\n      pop\n        /* \"#utility.yul\":6659:6660   */\n      dup2\n        /* \"#utility.yul\":6653:6657   */\n      dup2\n        /* \"#utility.yul\":6650:6661   */\n      gt\n        /* \"#utility.yul\":6647:6684   */\n      iszero\n      tag_246\n      jumpi\n        /* \"#utility.yul\":6664:6682   */\n      tag_247\n      tag_140\n      jump\t// in\n    tag_247:\n        /* \"#utility.yul\":6647:6684   */\n    tag_246:\n        /* \"#utility.yul\":6497:6691   */\n      swap3\n      swap2\n      pop\n      pop\n      jump\t// out\n        /* \"#utility.yul\":6697:6877   */\n    tag_76:\n        /* \"#utility.yul\":6745:6822   */\n      0x4e487b7100000000000000000000000000000000000000000000000000000000\n        /* \"#utility.yul\":6742:6743   */\n      0x00\n        /* \"#utility.yul\":6735:6823   */\n      mstore\n        /* \"#utility.yul\":6842:6846   */\n      0x31\n        /* \"#utility.yul\":6839:6840   */\n      0x04\n        /* \"#utility.yul\":6832:6847   */\n      mstore\n        /* \"#utility.yul\":6866:6870   */\n      0x24\n        /* \"#utility.yul\":6863:6864   */\n      0x00\n        /* \"#utility.yul\":6856:6871   */\n      revert\n        /* \"#utility.yul\":6883:6982   */\n    tag_141:\n        /* \"#utility.yul\":6935:6941   */\n      0x00\n        /* \"#utility.yul\":6969:6974   */\n      dup2\n        /* \"#utility.yul\":6963:6975   */\n      mload\n        /* \"#utility.yul\":6953:6975   */\n      swap1\n      pop\n        /* \"#utility.yul\":6883:6982   */\n      swap2\n      swap1\n      pop\n      jump\t// out\n        /* \"#utility.yul\":6988:7168   */\n    tag_142:\n        /* \"#utility.yul\":7036:7113   */\n      0x4e487b7100000000000000000000000000000000000000000000000000000000\n        /* \"#utility.yul\":7033:7034   */\n      0x00\n        /* \"#utility.yul\":7026:7114   */\n      mstore\n        /* \"#utility.yul\":7133:7137   */\n      0x22\n        /* \"#utility.yul\":7130:7131   */\n      0x04\n        /* \"#utility.yul\":7123:7138   */\n      mstore\n        /* \"#utility.yul\":7157:7161   */\n      0x24\n        /* \"#utility.yul\":7154:7155   */\n      0x00\n        /* \"#utility.yul\":7147:7162   */\n      revert\n        /* \"#utility.yul\":7174:7494   */\n    tag_143:\n        /* \"#utility.yul\":7218:7224   */\n      0x00\n        /* \"#utility.yul\":7255:7256   */\n      0x02\n        /* \"#utility.yul\":7249:7253   */\n      dup3\n        /* \"#utility.yul\":7245:7257   */\n      div\n        /* \"#utility.yul\":7235:7257   */\n      swap1\n      pop\n        /* \"#utility.yul\":7302:7303   */\n      0x01\n        /* \"#utility.yul\":7296:7300   */\n      dup3\n        /* \"#utility.yul\":7292:7304   */\n      and\n        /* \"#utility.yul\":7323:7341   */\n      dup1\n        /* \"#utility.yul\":7313:7394   */\n      tag_252\n      jumpi\n        /* \"#utility.yul\":7379:7383   */\n      0x7f\n        /* \"#utility.yul\":7371:7377   */\n      dup3\n        /* \"#utility.yul\":7367:7384   */\n      and\n        /* \"#utility.yul\":7357:7384   */\n      swap2\n      pop\n        /* \"#utility.yul\":7313:7394   */\n    tag_252:\n        /* \"#utility.yul\":7441:7443   */\n      0x20\n        /* \"#utility.yul\":7433:7439   */\n      dup3\n        /* \"#utility.yul\":7430:7444   */\n      lt\n        /* \"#utility.yul\":7410:7428   */\n      dup2\n        /* \"#utility.yul\":7407:7445   */\n      sub\n        /* \"#utility.yul\":7404:7488   */\n      tag_253\n      jumpi\n        /* \"#utility.yul\":7460:7478   */\n      tag_254\n      tag_142\n      jump\t// in\n    tag_254:\n        /* \"#utility.yul\":7404:7488   */\n    tag_253:\n        /* \"#utility.yul\":7225:7494   */\n      pop\n        /* \"#utility.yul\":7174:7494   */\n      swap2\n      swap1\n      pop\n      jump\t// out\n        /* \"#utility.yul\":7500:7641   */\n    tag_144:\n        /* \"#utility.yul\":7549:7553   */\n      0x00\n        /* \"#utility.yul\":7572:7575   */\n      dup2\n        /* \"#utility.yul\":7564:7575   */\n      swap1\n      pop\n        /* \"#utility.yul\":7595:7598   */\n      dup2\n        /* \"#utility.yul\":7592:7593   */\n      0x00\n        /* \"#utility.yul\":7585:7599   */\n      mstore\n        /* \"#utility.yul\":7629:7633   */\n      0x20\n        /* \"#utility.yul\":7626:7627   */\n      0x00\n        /* \"#utility.yul\":7616:7634   */\n      keccak256\n        /* \"#utility.yul\":7608:7634   */\n      swap1\n      pop\n        /* \"#utility.yul\":7500:7641   */\n      swap2\n      swap1\n      pop\n      jump\t// out\n        /* \"#utility.yul\":7647:7740   */\n    tag_145:\n        /* \"#utility.yul\":7684:7690   */\n      0x00\n        /* \"#utility.yul\":7731:7733   */\n      0x20\n        /* \"#utility.yul\":7726:7728   */\n      0x1f\n        /* \"#utility.yul\":7719:7724   */\n      dup4\n        /* \"#utility.yul\":7715:7729   */\n      add\n        /* \"#utility.yul\":7711:7734   */\n      div\n        /* \"#utility.yul\":7701:7734   */\n      swap1\n      pop\n        /* \"#utility.yul\":7647:7740   */\n      swap2\n      swap1\n      pop\n      jump\t// out\n        /* \"#utility.yul\":7746:7853   */\n    tag_146:\n        /* \"#utility.yul\":7790:7798   */\n      0x00\n        /* \"#utility.yul\":7840:7845   */\n      dup3\n        /* \"#utility.yul\":7834:7838   */\n      dup3\n        /* \"#utility.yul\":7830:7846   */\n      shl\n        /* \"#utility.yul\":7809:7846   */\n      swap1\n      pop\n        /* \"#utility.yul\":7746:7853   */\n      swap3\n      swap2\n      pop\n      pop\n      jump\t// out\n        /* \"#utility.yul\":7859:8252   */\n    tag_147:\n        /* \"#utility.yul\":7928:7934   */\n      0x00\n        /* \"#utility.yul\":7978:7979   */\n      0x08\n        /* \"#utility.yul\":7966:7976   */\n      dup4\n        /* \"#utility.yul\":7962:7980   */\n      mul\n        /* \"#utility.yul\":8001:8098   */\n      tag_259\n        /* \"#utility.yul\":8031:8097   */\n      0xffffffffffffffffffffffffffffffffffffffffffffffffffffffffffffffff\n        /* \"#utility.yul\":8020:8029   */\n      dup3\n        /* \"#utility.yul\":8001:8098   */\n      tag_146\n      jump\t// in\n    tag_259:\n        /* \"#utility.yul\":8119:8158   */\n      tag_260\n        /* \"#utility.yul\":8149:8157   */\n      dup7\n        /* \"#utility.yul\":8138:8147   */\n      dup4\n        /* \"#utility.yul\":8119:8158   */\n      tag_146\n      jump\t// in\n    tag_260:\n        /* \"#utility.yul\":8107:8158   */\n      swap6\n      pop\n        /* \"#utility.yul\":8191:8195   */\n      dup1\n        /* \"#utility.yul\":8187:8196   */\n      not\n        /* \"#utility.yul\":8180:8185   */\n      dup5\n        /* \"#utility.yul\":8176:8197   */\n      and\n        /* \"#utility.yul\":8167:8197   */\n      swap4\n      pop\n        /* \"#utility.yul\":8240:8244   */\n      dup1\n        /* \"#utility.yul\":8230:8238   */\n      dup7\n        /* \"#utility.yul\":8226:8245   */\n      and\n        /* \"#utility.yul\":8219:8224   */\n      dup5\n        /* \"#utility.yul\":8216:8246   */\n      or\n        /* \"#utility.yul\":8206:8246   */\n      swap3\n      pop\n        /* \"#utility.yul\":7935:8252   */\n      pop\n      pop\n        /* \"#utility.yul\":7859:8252   */\n      swap4\n      swap3\n      pop\n      pop\n      pop\n      jump\t// out\n        /* \"#utility.yul\":8258:8318   */\n    tag_148:\n        /* \"#utility.yul\":8286:8289   */\n      0x00\n        /* \"#utility.yul\":8307:8312   */\n      dup2\n        /* \"#utility.yul\":8300:8312   */\n      swap1\n      pop\n        /* \"#utility.yul\":8258:8318   */\n      swap2\n      swap1\n      pop\n      jump\t// out\n        /* \"#utility.yul\":8324:8466   */\n    tag_149:\n        /* \"#utility.yul\":8374:8383   */\n      0x00\n        /* \"#utility.yul\":8407:8460   */\n      tag_263\n        /* \"#utility.yul\":8425:8459   */\n      tag_264\n        /* \"#utility.yul\":8434:8458   */\n      tag_265\n        /* \"#utility.yul\":8452:8457   */\n      dup5\n        /* \"#utility.yul\":8434:8458   */\n      tag_135\n      jump\t// in\n    tag_265:\n        /* \"#utility.yul\":8425:8459   */\n      tag_148\n      jump\t// in\n    tag_264:\n        /* \"#utility.yul\":8407:8460   */\n      tag_135\n      jump\t// in\n    tag_263:\n        /* \"#utility.yul\":8394:8460   */\n      swap1\n      pop\n        /* \"#utility.yul\":8324:8466   */\n      swap2\n      swap1\n      pop\n      jump\t// out\n        /* \"#utility.yul\":8472:8547   */\n    tag_150:\n        /* \"#utility.yul\":8515:8518   */\n      0x00\n        /* \"#utility.yul\":8536:8541   */\n      dup2\n        /* \"#utility.yul\":8529:8541   */\n      swap1\n      pop\n        /* \"#utility.yul\":8472:8547   */\n      swap2\n      swap1\n      pop\n      jump\t// out\n        /* \"#utility.yul\":8553:8822   */\n    tag_151:\n        /* \"#utility.yul\":8663:8702   */\n      tag_268\n        /* \"#utility.yul\":8694:8701   */\n      dup4\n        /* \"#utility.yul\":8663:8702   */\n      tag_149\n      jump\t// in\n    tag_268:\n        /* \"#utility.yul\":8724:8815   */\n      tag_269\n        /* \"#utility.yul\":8773:8814   */\n      tag_270\n        /* \"#utility.yul\":8797:8813   */\n      dup3\n        /* \"#utility.yul\":8773:8814   */\n      tag_150\n      jump\t// in\n    tag_270:\n        /* \"#utility.yul\":8765:8771   */\n      dup5\n        /* \"#utility.yul\":8758:8762   */\n      dup5\n        /* \"#utility.yul\":8752:8763   */\n      sload\n        /* \"#utility.yul\":8724:8815   */\n      tag_147\n      jump\t// in\n    tag_269:\n        /* \"#utility.yul\":8718:8722   */\n      dup3\n        /* \"#utility.yul\":8711:8816   */\n      sstore\n        /* \"#utility.yul\":8629:8822   */\n      pop\n        /* \"#utility.yul\":8553:8822   */\n      pop\n      pop\n      pop\n      jump\t// out\n        /* \"#utility.yul\":8828:8901   */\n    tag_152:\n        /* \"#utility.yul\":8873:8876   */\n      0x00\n        /* \"#utility.yul\":8894:8895   */\n      0x00\n        /* \"#utility.yul\":8887:8895   */\n      swap1\n      pop\n        /* \"#utility.yul\":8828:8901   */\n      swap1\n      jump\t// out\n        /* \"#utility.yul\":8907:9096   */\n    tag_153:\n        /* \"#utility.yul\":8984:9016   */\n      tag_273\n      tag_152\n      jump\t// in\n    tag_273:\n        /* \"#utility.yul\":9025:9090   */\n      tag_274\n        /* \"#utility.yul\":9083:9089   */\n      dup2\n        /* \"#utility.yul\":9075:9081   */\n      dup5\n        /* \"#utility.yul\":9069:9073   */\n      dup5\n        /* \"#utility.yul\":9025:9090   */\n      tag_151\n      jump\t// in\n    tag_274:\n        /* \"#utility.yul\":8960:9096   */\n      pop\n        /* \"#utility.yul\":8907:9096   */\n      pop\n      pop\n      jump\t// out\n        /* \"#utility.yul\":9102:9288   */\n    tag_154:\n        /* \"#utility.yul\":9162:9282   */\n    tag_276:\n        /* \"#utility.yul\":9179:9182   */\n      dup2\n        /* \"#utility.yul\":9172:9177   */\n      dup2\n        /* \"#utility.yul\":9169:9183   */\n      lt\n        /* \"#utility.yul\":9162:9282   */\n      iszero\n      tag_278\n      jumpi\n        /* \"#utility.yul\":9233:9272   */\n      tag_279\n        /* \"#utility.yul\":9270:9271   */\n      0x00\n        /* \"#utility.yul\":9263:9268   */\n      dup3\n        /* \"#utility.yul\":9233:9272   */\n      tag_153\n      jump\t// in\n    tag_279:\n        /* \"#utility.yul\":9206:9207   */\n      0x01\n        /* \"#utility.yul\":9199:9204   */\n      dup2\n        /* \"#utility.yul\":9195:9208   */\n      add\n        /* \"#utility.yul\":9186:9208   */\n      swap1\n      pop\n        /* \"#utility.yul\":9162:9282   */\n      jump(tag_276)\n    tag_278:\n        /* \"#utility.yul\":9102:9288   */\n      pop\n      pop\n      jump\t// out\n        /* \"#utility.yul\":9294:9837   */\n    tag_155:\n        /* \"#utility.yul\":9395:9397   */\n      0x1f\n        /* \"#utility.yul\":9390:9393   */\n      dup3\n        /* \"#utility.yul\":9387:9398   */\n      gt\n        /* \"#utility.yul\":9384:9830   */\n      iszero\n      tag_281\n      jumpi\n        /* \"#utility.yul\":9429:9467   */\n      tag_282\n        /* \"#utility.yul\":9461:9466   */\n      dup2\n        /* \"#utility.yul\":9429:9467   */\n      tag_144\n      jump\t// in\n    tag_282:\n        /* \"#utility.yul\":9513:9542   */\n      tag_283\n        /* \"#utility.yul\":9531:9541   */\n      dup5\n        /* \"#utility.yul\":9513:9542   */\n      tag_145\n      jump\t// in\n    tag_283:\n        /* \"#utility.yul\":9503:9511   */\n      dup2\n        /* \"#utility.yul\":9499:9543   */\n      add\n        /* \"#utility.yul\":9696:9698   */\n      0x20\n        /* \"#utility.yul\":9684:9694   */\n      dup6\n        /* \"#utility.yul\":9681:9699   */\n      lt\n        /* \"#utility.yul\":9678:9727   */\n      iszero\n      tag_284\n      jumpi\n        /* \"#utility.yul\":9717:9725   */\n      dup2\n        /* \"#utility.yul\":9702:9725   */\n      swap1\n      pop\n        /* \"#utility.yul\":9678:9727   */\n    tag_284:\n        /* \"#utility.yul\":9740:9820   */\n      tag_285\n        /* \"#utility.yul\":9796:9818   */\n      tag_286\n        /* \"#utility.yul\":9814:9817   */\n      dup6\n        /* \"#utility.yul\":9796:9818   */\n      tag_145\n      jump\t// in\n    tag_286:\n        /* \"#utility.yul\":9786:9794   */\n      dup4\n        /* \"#utility.yul\":9782:9819   */\n      add\n        /* \"#utility.yul\":9769:9780   */\n      dup3\n        /* \"#utility.yul\":9740:9820   */\n      tag_154\n      jump\t// in\n    tag_285:\n        /* \"#utility.yul\":9399:9830   */\n      pop\n      pop\n        /* \"#utility.yul\":9384:9830   */\n    tag_281:\n        /* \"#utility.yul\":9294:9837   */\n      pop\n      pop\n      pop\n      jump\t// out\n        /* \"#utility.yul\":9843:9960   */\n    tag_156:\n        /* \"#utility.yul\":9897:9905   */\n      0x00\n        /* \"#utility.yul\":9947:9952   */\n      dup3\n        /* \"#utility.yul\":9941:9945   */\n      dup3\n        /* \"#utility.yul\":9937:9953   */\n      shr\n        /* \"#utility.yul\":9916:9953   */\n      swap1\n      pop\n        /* \"#utility.yul\":9843:9960   */\n      swap3\n      swap2\n      pop\n      pop\n      jump\t// out\n        /* \"#utility.yul\":9966:10135   */\n    tag_157:\n        /* \"#utility.yul\":10010:10016   */\n      0x00\n        /* \"#utility.yul\":10043:10094   */\n      tag_289\n        /* \"#utility.yul\":10091:10092   */\n      0x00\n        /* \"#utility.yul\":10087:10093   */\n      not\n        /* \"#utility.yul\":10079:10084   */\n      dup5\n        /* \"#utility.yul\":10076:10077   */\n      0x08\n        /* \"#utility.yul\":10072:10085   */\n      mul\n        /* \"#utility.yul\":10043:10094   */\n      tag_156\n      jump\t// in\n    tag_289:\n        /* \"#utility.yul\":10039:10095   */\n      not\n        /* \"#utility.yul\":10124:10128   */\n      dup1\n        /* \"#utility.yul\":10118:10122   */\n      dup4\n        /* \"#utility.yul\":10114:10129   */\n      and\n        /* \"#utility.yul\":10104:10129   */\n      swap2\n      pop\n        /* \"#utility.yul\":10017:10135   */\n      pop\n        /* \"#utility.yul\":9966:10135   */\n      swap3\n      swap2\n      pop\n      pop\n      jump\t// out\n        /* \"#utility.yul\":10140:10435   */\n    tag_158:\n        /* \"#utility.yul\":10216:10220   */\n      0x00\n        /* \"#utility.yul\":10362:10391   */\n      tag_291\n        /* \"#utility.yul\":10387:10390   */\n      dup4\n        /* \"#utility.yul\":10381:10385   */\n      dup4\n        /* \"#utility.yul\":10362:10391   */\n      tag_157\n      jump\t// in\n    tag_291:\n        /* \"#utility.yul\":10354:10391   */\n      swap2\n      pop\n        /* \"#utility.yul\":10424:10427   */\n      dup3\n        /* \"#utility.yul\":10421:10422   */\n      0x02\n        /* \"#utility.yul\":10417:10428   */\n      mul\n        /* \"#utility.yul\":10411:10415   */\n      dup3\n        /* \"#utility.yul\":10408:10429   */\n      or\n        /* \"#utility.yul\":10400:10429   */\n      swap1\n      pop\n        /* \"#utility.yul\":10140:10435   */\n      swap3\n      swap2\n      pop\n      pop\n      jump\t// out\n        /* \"#utility.yul\":10440:11835   */\n    tag_81:\n        /* \"#utility.yul\":10557:10594   */\n      tag_293\n        /* \"#utility.yul\":10590:10593   */\n      dup3\n        /* \"#utility.yul\":10557:10594   */\n      tag_141\n      jump\t// in\n    tag_293:\n        /* \"#utility.yul\":10659:10677   */\n      0xffffffffffffffff\n        /* \"#utility.yul\":10651:10657   */\n      dup2\n        /* \"#utility.yul\":10648:10678   */\n      gt\n        /* \"#utility.yul\":10645:10701   */\n      iszero\n      tag_294\n      jumpi\n        /* \"#utility.yul\":10681:10699   */\n      tag_295\n      tag_128\n      jump\t// in\n    tag_295:\n        /* \"#utility.yul\":10645:10701   */\n    tag_294:\n        /* \"#utility.yul\":10725:10763   */\n      tag_296\n        /* \"#utility.yul\":10757:10761   */\n      dup3\n        /* \"#utility.yul\":10751:10762   */\n      sload\n        /* \"#utility.yul\":10725:10763   */\n      tag_143\n      jump\t// in\n    tag_296:\n        /* \"#utility.yul\":10810:10877   */\n      tag_297\n        /* \"#utility.yul\":10870:10876   */\n      dup3\n        /* \"#utility.yul\":10862:10868   */\n      dup3\n        /* \"#utility.yul\":10856:10860   */\n      dup6\n        /* \"#utility.yul\":10810:10877   */\n      tag_155\n      jump\t// in\n    tag_297:\n        /* \"#utility.yul\":10904:10905   */\n      0x00\n        /* \"#utility.yul\":10928:10932   */\n      0x20\n        /* \"#utility.yul\":10915:10932   */\n      swap1\n      pop\n        /* \"#utility.yul\":10960:10962   */\n      0x1f\n        /* \"#utility.yul\":10952:10958   */\n      dup4\n        /* \"#utility.yul\":10949:10963   */\n      gt\n        /* \"#utility.yul\":10977:10978   */\n      0x01\n        /* \"#utility.yul\":10972:11590   */\n      dup2\n      eq\n      tag_299\n      jumpi\n        /* \"#utility.yul\":11634:11635   */\n      0x00\n        /* \"#utility.yul\":11651:11657   */\n      dup5\n        /* \"#utility.yul\":11648:11725   */\n      iszero\n      tag_300\n      jumpi\n        /* \"#utility.yul\":11700:11709   */\n      dup3\n        /* \"#utility.yul\":11695:11698   */\n      dup8\n        /* \"#utility.yul\":11691:11710   */\n      add\n        /* \"#utility.yul\":11685:11711   */\n      mload\n        /* \"#utility.yul\":11676:11711   */\n      swap1\n      pop\n        /* \"#utility.yul\":11648:11725   */\n    tag_300:\n        /* \"#utility.yul\":11751:11818   */\n      tag_301\n        /* \"#utility.yul\":11811:11817   */\n      dup6\n        /* \"#utility.yul\":11804:11809   */\n      dup3\n        /* \"#utility.yul\":11751:11818   */\n      tag_158\n      jump\t// in\n    tag_301:\n        /* \"#utility.yul\":11745:11749   */\n      dup7\n        /* \"#utility.yul\":11738:11819   */\n      sstore\n        /* \"#utility.yul\":11607:11829   */\n      pop\n        /* \"#utility.yul\":10942:11829   */\n      jump(tag_298)\n        /* \"#utility.yul\":10972:11590   */\n    tag_299:\n        /* \"#utility.yul\":11024:11028   */\n      0x1f\n        /* \"#utility.yul\":11020:11029   */\n      not\n        /* \"#utility.yul\":11012:11018   */\n      dup5\n        /* \"#utility.yul\":11008:11030   */\n      and\n        /* \"#utility.yul\":11058:11095   */\n      tag_302\n        /* \"#utility.yul\":11090:11094   */\n      dup7\n        /* \"#utility.yul\":11058:11095   */\n      tag_144\n      jump\t// in\n    tag_302:\n        /* \"#utility.yul\":11117:11118   */\n      0x00\n        /* \"#utility.yul\":11131:11339   */\n    tag_303:\n        /* \"#utility.yul\":11145:11152   */\n      dup3\n        /* \"#utility.yul\":11142:11143   */\n      dup2\n        /* \"#utility.yul\":11139:11153   */\n      lt\n        /* \"#utility.yul\":11131:11339   */\n      iszero\n      tag_305\n      jumpi\n        /* \"#utility.yul\":11224:11233   */\n      dup5\n        /* \"#utility.yul\":11219:11222   */\n      dup10\n        /* \"#utility.yul\":11215:11234   */\n      add\n        /* \"#utility.yul\":11209:11235   */\n      mload\n        /* \"#utility.yul\":11201:11207   */\n      dup3\n        /* \"#utility.yul\":11194:11236   */\n      sstore\n        /* \"#utility.yul\":11275:11276   */\n      0x01\n        /* \"#utility.yul\":11267:11273   */\n      dup3\n        /* \"#utility.yul\":11263:11277   */\n      add\n        /* \"#utility.yul\":11253:11277   */\n      swap2\n      pop\n        /* \"#utility.yul\":11322:11324   */\n      0x20\n        /* \"#utility.yul\":11311:11320   */\n      dup6\n        /* \"#utility.yul\":11307:11325   */\n      add\n        /* \"#utility.yul\":11294:11325   */\n      swap5\n      pop\n        /* \"#utility.yul\":11168:11172   */\n      0x20\n        /* \"#utility.yul\":11165:11166   */\n      dup2\n        /* \"#utility.yul\":11161:11173   */\n      add\n        /* \"#utility.yul\":11156:11173   */\n      swap1\n      pop\n        /* \"#utility.yul\":11131:11339   */\n      jump(tag_303)\n    tag_305:\n        /* \"#utility.yul\":11367:11373   */\n      dup7\n        /* \"#utility.yul\":11358:11365   */\n      dup4\n        /* \"#utility.yul\":11355:11374   */\n      lt\n        /* \"#utility.yul\":11352:11531   */\n      iszero\n      tag_306\n      jumpi\n        /* \"#utility.yul\":11425:11434   */\n      dup5\n        /* \"#utility.yul\":11420:11423   */\n      dup10\n        /* \"#utility.yul\":11416:11435   */\n      add\n        /* \"#utility.yul\":11410:11436   */\n      mload\n        /* \"#utility.yul\":11468:11516   */\n      tag_307\n        /* \"#utility.yul\":11510:11514   */\n      0x1f\n        /* \"#utility.yul\":11502:11508   */\n      dup10\n        /* \"#utility.yul\":11498:11515   */\n      and\n        /* \"#utility.yul\":11487:11496   */\n      dup3\n        /* \"#utility.yul\":11468:11516   */\n      tag_157\n      jump\t// in\n    tag_307:\n        /* \"#utility.yul\":11460:11466   */\n      dup4\n        /* \"#utility.yul\":11453:11517   */\n      sstore\n        /* \"#utility.yul\":11375:11531   */\n      pop\n        /* \"#utility.yul\":11352:11531   */\n    tag_306:\n        /* \"#utility.yul\":11577:11578   */\n      0x01\n        /* \"#utility.yul\":11573:11574   */\n      0x02\n        /* \"#utility.yul\":11565:11571   */\n      dup9\n        /* \"#utility.yul\":11561:11575   */\n      mul\n        /* \"#utility.yul\":11557:11579   */\n      add\n        /* \"#utility.yul\":11551:11555   */\n      dup9\n        /* \"#utility.yul\":11544:11580   */\n      sstore\n        /* \"#utility.yul\":10979:11590   */\n      pop\n      pop\n      pop\n        /* \"#utility.yul\":10942:11829   */\n    tag_298:\n      pop\n        /* \"#utility.yul\":10532:11835   */\n      pop\n      pop\n      pop\n        /* \"#utility.yul\":10440:11835   */\n      pop\n      pop\n      jump\t// out\n        /* \"#utility.yul\":11841:12010   */\n    tag_159:\n        /* \"#utility.yul\":11925:11936   */\n      0x00\n        /* \"#utility.yul\":11959:11965   */\n      dup3\n        /* \"#utility.yul\":11954:11957   */\n      dup3\n        /* \"#utility.yul\":11947:11966   */\n      mstore\n        /* \"#utility.yul\":11999:12003   */\n      0x20\n        /* \"#utility.yul\":11994:11997   */\n      dup3\n        /* \"#utility.yul\":11990:12004   */\n      add\n        /* \"#utility.yul\":11975:12004   */\n      swap1\n      pop\n        /* \"#utility.yul\":11841:12010   */\n      swap3\n      swap2\n      pop\n      pop\n      jump\t// out\n        /* \"#utility.yul\":12016:12155   */\n    tag_160:\n        /* \"#utility.yul\":12105:12111   */\n      dup3\n        /* \"#utility.yul\":12100:12103   */\n      dup2\n        /* \"#utility.yul\":12095:12098   */\n      dup4\n        /* \"#utility.yul\":12089:12112   */\n      mcopy\n        /* \"#utility.yul\":12146:12147   */\n      0x00\n        /* \"#utility.yul\":12137:12143   */\n      dup4\n        /* \"#utility.yul\":12132:12135   */\n      dup4\n        /* \"#utility.yul\":12128:12144   */\n      add\n        /* \"#utility.yul\":12121:12148   */\n      mstore\n        /* \"#utility.yul\":12016:12155   */\n      pop\n      pop\n      pop\n      jump\t// out\n        /* \"#utility.yul\":12161:12538   */\n    tag_161:\n        /* \"#utility.yul\":12249:12252   */\n      0x00\n        /* \"#utility.yul\":12277:12316   */\n      tag_311\n        /* \"#utility.yul\":12310:12315   */\n      dup3\n        /* \"#utility.yul\":12277:12316   */\n      tag_141\n      jump\t// in\n    tag_311:\n        /* \"#utility.yul\":12332:12403   */\n      tag_312\n        /* \"#utility.yul\":12396:12402   */\n      dup2\n        /* \"#utility.yul\":12391:12394   */\n      dup6\n        /* \"#utility.yul\":12332:12403   */\n      tag_159\n      jump\t// in\n    tag_312:\n        /* \"#utility.yul\":12325:12403   */\n      swap4\n      pop\n        /* \"#utility.yul\":12412:12477   */\n      tag_313\n        /* \"#utility.yul\":12470:12476   */\n      dup2\n        /* \"#utility.yul\":12465:12468   */\n      dup6\n        /* \"#utility.yul\":12458:12462   */\n      0x20\n        /* \"#utility.yul\":12451:12456   */\n      dup7\n        /* \"#utility.yul\":12447:12463   */\n      add\n        /* \"#utility.yul\":12412:12477   */\n      tag_160\n      jump\t// in\n    tag_313:\n        /* \"#utility.yul\":12502:12531   */\n      tag_314\n        /* \"#utility.yul\":12524:12530   */\n      dup2\n        /* \"#utility.yul\":12502:12531   */\n      tag_127\n      jump\t// in\n    tag_314:\n        /* \"#utility.yul\":12497:12500   */\n      dup5\n        /* \"#utility.yul\":12493:12532   */\n      add\n        /* \"#utility.yul\":12486:12532   */\n      swap2\n      pop\n        /* \"#utility.yul\":12253:12538   */\n      pop\n        /* \"#utility.yul\":12161:12538   */\n      swap3\n      swap2\n      pop\n      pop\n      jump\t// out\n        /* \"#utility.yul\":12544:12857   */\n    tag_83:\n        /* \"#utility.yul\":12657:12661   */\n      0x00\n        /* \"#utility.yul\":12695:12697   */\n      0x20\n        /* \"#utility.yul\":12684:12693   */\n      dup3\n        /* \"#utility.yul\":12680:12698   */\n      add\n        /* \"#utility.yul\":12672:12698   */\n      swap1\n      pop\n        /* \"#utility.yul\":12744:12753   */\n      dup2\n        /* \"#utility.yul\":12738:12742   */\n      dup2\n        /* \"#utility.yul\":12734:12754   */\n      sub\n        /* \"#utility.yul\":12730:12731   */\n      0x00\n        /* \"#utility.yul\":12719:12728   */\n      dup4\n        /* \"#utility.yul\":12715:12732   */\n      add\n        /* \"#utility.yul\":12708:12755   */\n      mstore\n        /* \"#utility.yul\":12772:12850   */\n      tag_316\n        /* \"#utility.yul\":12845:12849   */\n      dup2\n        /* \"#utility.yul\":12836:12842   */\n      dup5\n        /* \"#utility.yul\":12772:12850   */\n      tag_161\n      jump\t// in\n    tag_316:\n        /* \"#utility.yul\":12764:12850   */\n      swap1\n      pop\n        /* \"#utility.yul\":12544:12857   */\n      swap3\n      swap2\n      pop\n      pop\n      jump\t// out\n        /* \"#utility.yul\":12863:13195   */\n    tag_93:\n        /* \"#utility.yul\":12984:12988   */\n      0x00\n        /* \"#utility.yul\":13022:13024   */\n      0x40\n        /* \"#utility.yul\":13011:13020   */\n      dup3\n        /* \"#utility.yul\":13007:13025   */\n      add\n        /* \"#utility.yul\":12999:13025   */\n      swap1\n      pop\n        /* \"#utility.yul\":13035:13106   */\n      tag_318\n        /* \"#utility.yul\":13103:13104   */\n      0x00\n        /* \"#utility.yul\":13092:13101   */\n      dup4\n        /* \"#utility.yul\":13088:13105   */\n      add\n        /* \"#utility.yul\":13079:13085   */\n      dup6\n        /* \"#utility.yul\":13035:13106   */\n      tag_138\n      jump\t// in\n    tag_318:\n        /* \"#utility.yul\":13116:13188   */\n      tag_319\n        /* \"#utility.yul\":13184:13186   */\n      0x20\n        /* \"#utility.yul\":13173:13182   */\n      dup4\n        /* \"#utility.yul\":13169:13187   */\n      add\n        /* \"#utility.yul\":13160:13166   */\n      dup5\n        /* \"#utility.yul\":13116:13188   */\n      tag_139\n      jump\t// in\n    tag_319:\n        /* \"#utility.yul\":12863:13195   */\n      swap4\n      swap3\n      pop\n      pop\n      pop\n      jump\t// out\n        /* \"#utility.yul\":13201:13368   */\n    tag_162:\n        /* \"#utility.yul\":13341:13360   */\n      0x456e64657265636f20496e76616c69646f000000000000000000000000000000\n        /* \"#utility.yul\":13337:13338   */\n      0x00\n        /* \"#utility.yul\":13329:13335   */\n      dup3\n        /* \"#utility.yul\":13325:13339   */\n      add\n        /* \"#utility.yul\":13318:13361   */\n      mstore\n        /* \"#utility.yul\":13201:13368   */\n      pop\n      jump\t// out\n        /* \"#utility.yul\":13374:13740   */\n    tag_163:\n        /* \"#utility.yul\":13516:13519   */\n      0x00\n        /* \"#utility.yul\":13537:13604   */\n      tag_322\n        /* \"#utility.yul\":13601:13603   */\n      0x11\n        /* \"#utility.yul\":13596:13599   */\n      dup4\n        /* \"#utility.yul\":13537:13604   */\n      tag_159\n      jump\t// in\n    tag_322:\n        /* \"#utility.yul\":13530:13604   */\n      swap2\n      pop\n        /* \"#utility.yul\":13613:13706   */\n      tag_323\n        /* \"#utility.yul\":13702:13705   */\n      dup3\n        /* \"#utility.yul\":13613:13706   */\n      tag_162\n      jump\t// in\n    tag_323:\n        /* \"#utility.yul\":13731:13733   */\n      0x20\n        /* \"#utility.yul\":13726:13729   */\n      dup3\n        /* \"#utility.yul\":13722:13734   */\n      add\n        /* \"#utility.yul\":13715:13734   */\n      swap1\n      pop\n        /* \"#utility.yul\":13374:13740   */\n      swap2\n      swap1\n      pop\n      jump\t// out\n        /* \"#utility.yul\":13746:14165   */\n    tag_106:\n        /* \"#utility.yul\":13912:13916   */\n      0x00\n        /* \"#utility.yul\":13950:13952   */\n      0x20\n        /* \"#utility.yul\":13939:13948   */\n      dup3\n        /* \"#utility.yul\":13935:13953   */\n      add\n        /* \"#utility.yul\":13927:13953   */\n      swap1\n      pop\n        /* \"#utility.yul\":13999:14008   */\n      dup2\n        /* \"#utility.yul\":13993:13997   */\n      dup2\n        /* \"#utility.yul\":13989:14009   */\n      sub\n        /* \"#utility.yul\":13985:13986   */\n      0x00\n        /* \"#utility.yul\":13974:13983   */\n      dup4\n        /* \"#utility.yul\":13970:13987   */\n      add\n        /* \"#utility.yul\":13963:14010   */\n      mstore\n        /* \"#utility.yul\":14027:14158   */\n      tag_325\n        /* \"#utility.yul\":14153:14157   */\n      dup2\n        /* \"#utility.yul\":14027:14158   */\n      tag_163\n      jump\t// in\n    tag_325:\n        /* \"#utility.yul\":14019:14158   */\n      swap1\n      pop\n        /* \"#utility.yul\":13746:14165   */\n      swap2\n      swap1\n      pop\n      jump\t// out\n        /* \"#utility.yul\":14171:14503   */\n    tag_109:\n        /* \"#utility.yul\":14292:14296   */\n      0x00\n        /* \"#utility.yul\":14330:14332   */\n      0x40\n        /* \"#utility.yul\":14319:14328   */\n      dup3\n        /* \"#utility.yul\":14315:14333   */\n      add\n        /* \"#utility.yul\":14307:14333   */\n      swap1\n      pop\n        /* \"#utility.yul\":14343:14414   */\n      tag_327\n        /* \"#utility.yul\":14411:14412   */\n      0x00\n        /* \"#utility.yul\":14400:14409   */\n      dup4\n        /* \"#utility.yul\":14396:14413   */\n      add\n        /* \"#utility.yul\":14387:14393   */\n      dup6\n        /* \"#utility.yul\":14343:14414   */\n      tag_139\n      jump\t// in\n    tag_327:\n        /* \"#utility.yul\":14424:14496   */\n      tag_328\n        /* \"#utility.yul\":14492:14494   */\n      0x20\n        /* \"#utility.yul\":14481:14490   */\n      dup4\n        /* \"#utility.yul\":14477:14495   */\n      add\n        /* \"#utility.yul\":14468:14474   */\n      dup5\n        /* \"#utility.yul\":14424:14496   */\n      tag_139\n      jump\t// in\n    tag_328:\n        /* \"#utility.yul\":14171:14503   */\n      swap4\n      swap3\n      pop\n      pop\n      pop\n      jump\t// out\n        /* \"#utility.yul\":14509:14656   */\n    tag_164:\n        /* \"#utility.yul\":14610:14621   */\n      0x00\n        /* \"#utility.yul\":14647:14650   */\n      dup2\n        /* \"#utility.yul\":14632:14650   */\n      swap1\n      pop\n        /* \"#utility.yul\":14509:14656   */\n      swap3\n      swap2\n      pop\n      pop\n      jump\t// out\n        /* \"#utility.yul\":14662:14776   */\n    tag_165:\n      pop\n      jump\t// out\n        /* \"#utility.yul\":14782:15180   */\n    tag_166:\n        /* \"#utility.yul\":14941:14944   */\n      0x00\n        /* \"#utility.yul\":14962:15045   */\n      tag_332\n        /* \"#utility.yul\":15043:15044   */\n      0x00\n        /* \"#utility.yul\":15038:15041   */\n      dup4\n        /* \"#utility.yul\":14962:15045   */\n      tag_164\n      jump\t// in\n    tag_332:\n        /* \"#utility.yul\":14955:15045   */\n      swap2\n      pop\n        /* \"#utility.yul\":15054:15147   */\n      tag_333\n        /* \"#utility.yul\":15143:15146   */\n      dup3\n        /* \"#utility.yul\":15054:15147   */\n      tag_165\n      jump\t// in\n    tag_333:\n        /* \"#utility.yul\":15172:15173   */\n      0x00\n        /* \"#utility.yul\":15167:15170   */\n      dup3\n        /* \"#utility.yul\":15163:15174   */\n      add\n        /* \"#utility.yul\":15156:15174   */\n      swap1\n      pop\n        /* \"#utility.yul\":14782:15180   */\n      swap2\n      swap1\n      pop\n      jump\t// out\n        /* \"#utility.yul\":15186:15565   */\n    tag_113:\n        /* \"#utility.yul\":15370:15373   */\n      0x00\n        /* \"#utility.yul\":15392:15539   */\n      tag_335\n        /* \"#utility.yul\":15535:15538   */\n      dup3\n        /* \"#utility.yul\":15392:15539   */\n      tag_166\n      jump\t// in\n    tag_335:\n        /* \"#utility.yul\":15385:15539   */\n      swap2\n      pop\n        /* \"#utility.yul\":15556:15559   */\n      dup2\n        /* \"#utility.yul\":15549:15559   */\n      swap1\n      pop\n        /* \"#utility.yul\":15186:15565   */\n      swap2\n      swap1\n      pop\n      jump\t// out\n\n    auxdata: 0xa2646970667358221220fedc6520d2f850a213dc0a1c2f0d69676ecaaa7f4f6d33401d9704d072d4911e64736f6c634300081b0033\n}\n",
				"bytecode": {
					"linkReferences": {},
					"object": "60a060405234801561000f575f5ffd5b503373ffffffffffffffffffffffffffffffffffffffff1660808173ffffffffffffffffffffffffffffffffffffffff168152505060805161126e61007f5f395f81816101bb0152818161020f015281816104bc015281816105100152818161068901526106dd015261126e5ff3fe60806040526004361061007e575f3560e01c8063672a40501161004d578063672a405014610149578063d0e30db01461015f578063f3800b3814610169578063f3fef3a3146101915761007f565b80632d59f47814610081578063368b8772146100a957806349d318e8146100d1578063579704971461010d5761007f565b5b005b34801561008c575f5ffd5b506100a760048036038101906100a29190610a7a565b6101b9565b005b3480156100b4575f5ffd5b506100cf60048036038101906100ca9190610be1565b610420565b005b3480156100dc575f5ffd5b506100f760048036038101906100f29190610c5b565b61046a565b6040516101049190610c95565b60405180910390f35b348015610118575f5ffd5b50610133600480360381019061012e9190610a7a565b6104a5565b6040516101409190610cbd565b60405180910390f35b348015610154575f5ffd5b5061015d6104ba565b005b6101676105aa565b005b348015610174575f5ffd5b5061018f600480360381019061018a9190610a7a565b610687565b005b34801561019c575f5ffd5b506101b760048036038101906101b29190610cd6565b6107b3565b005b7f000000000000000000000000000000000000000000000000000000000000000073ffffffffffffffffffffffffffffffffffffffff163373ffffffffffffffffffffffffffffffffffffffff161461026b57337f00000000000000000000000000000000000000000000000000000000000000006040517f23213c1f000000000000000000000000000000000000000000000000000000008152600401610262929190610d14565b60405180910390fd5b5f60078054905090505f5b8181101561041a578273ffffffffffffffffffffffffffffffffffffffff16600782815481106102a9576102a8610d3b565b5b905f5260205f20015f9054906101000a900473ffffffffffffffffffffffffffffffffffffffff1673ffffffffffffffffffffffffffffffffffffffff160361040f5760076001836102fb9190610d95565b8154811061030c5761030b610d3b565b5b905f5260205f20015f9054906101000a900473ffffffffffffffffffffffffffffffffffffffff166007828154811061034857610347610d3b565b5b905f5260205f20015f6101000a81548173ffffffffffffffffffffffffffffffffffffffff021916908373ffffffffffffffffffffffffffffffffffffffff160217905550600780548061039f5761039e610dc8565b5b600190038181905f5260205f20015f6101000a81549073ffffffffffffffffffffffffffffffffffffffff021916905590557f5582416aebf278b650c6daddb8a9c0221d31e2f68e6d65a3a29a76752f46e26c836040516104009190610c95565b60405180910390a1505061041d565b806001019050610276565b50505b50565b806004908161042f9190610ffc565b507f82c9d772e1a9f4c0f41c81a56c5772cb71e0f2cce601e96c1588c793f5b69d978160405161045f9190611121565b60405180910390a150565b60078181548110610479575f80fd5b905f5260205f20015f915054906101000a900473ffffffffffffffffffffffffffffffffffffffff1681565b6008602052805f5260405f205f915090505481565b7f000000000000000000000000000000000000000000000000000000000000000073ffffffffffffffffffffffffffffffffffffffff163373ffffffffffffffffffffffffffffffffffffffff161461056c57337f00000000000000000000000000000000000000000000000000000000000000006040517f23213c1f000000000000000000000000000000000000000000000000000000008152600401610563929190610d14565b60405180910390fd5b5f5f5f82015f6101000a81549073ffffffffffffffffffffffffffffffffffffffff02191690555f820160146101000a81549060ff02191690555050565b3460085f3373ffffffffffffffffffffffffffffffffffffffff1673ffffffffffffffffffffffffffffffffffffffff1681526020019081526020015f2081905550600733908060018154018082558091505060019003905f5260205f20015f9091909190916101000a81548173ffffffffffffffffffffffffffffffffffffffff021916908373ffffffffffffffffffffffffffffffffffffffff1602179055507f54a7d39154b620d1a6998b1d444fd62390263215fa1b612388984926d631f1aa333460405161067d929190611141565b60405180910390a1565b7f000000000000000000000000000000000000000000000000000000000000000073ffffffffffffffffffffffffffffffffffffffff163373ffffffffffffffffffffffffffffffffffffffff161461073957337f00000000000000000000000000000000000000000000000000000000000000006040517f23213c1f000000000000000000000000000000000000000000000000000000008152600401610730929190610d14565b60405180910390fd5b60085f8273ffffffffffffffffffffffffffffffffffffffff1673ffffffffffffffffffffffffffffffffffffffff1681526020019081526020015f205f90557f62efaf0841a6265233114d664f73274d77d587710be72c6ca69f0002606112d4816040516107a89190610c95565b60405180910390a150565b3373ffffffffffffffffffffffffffffffffffffffff165f5f015f9054906101000a900473ffffffffffffffffffffffffffffffffffffffff1673ffffffffffffffffffffffffffffffffffffffff1614158061082357505f15155f5f0160149054906101000a900460ff161515145b1561088957335f5f015f9054906101000a900473ffffffffffffffffffffffffffffffffffffffff166040517f23213c1f000000000000000000000000000000000000000000000000000000008152600401610880929190610d14565b60405180910390fd5b5f73ffffffffffffffffffffffffffffffffffffffff168273ffffffffffffffffffffffffffffffffffffffff16036108f7576040517f08c379a00000000000000000000000000000000000000000000000000000000081526004016108ee906111b2565b60405180910390fd5b670de0b6b3a764000081101581670de0b6b3a76400009091610950576040517f6257f2a40000000000000000000000000000000000000000000000000000000081526004016109479291906111d0565b60405180910390fd5b5050478111156109995780476040517fa72052aa0000000000000000000000000000000000000000000000000000000081526004016109909291906111d0565b60405180910390fd5b5f8273ffffffffffffffffffffffffffffffffffffffff16826040516109be90611224565b5f6040518083038185875af1925050503d805f81146109f8576040519150601f19603f3d011682016040523d82523d5f602084013e6109fd565b606091505b5050905080610a0a575f5ffd5b505050565b5f604051905090565b5f5ffd5b5f5ffd5b5f73ffffffffffffffffffffffffffffffffffffffff82169050919050565b5f610a4982610a20565b9050919050565b610a5981610a3f565b8114610a63575f5ffd5b50565b5f81359050610a7481610a50565b92915050565b5f60208284031215610a8f57610a8e610a18565b5b5f610a9c84828501610a66565b91505092915050565b5f5ffd5b5f5ffd5b5f601f19601f8301169050919050565b7f4e487b71000000000000000000000000000000000000000000000000000000005f52604160045260245ffd5b610af382610aad565b810181811067ffffffffffffffff82111715610b1257610b11610abd565b5b80604052505050565b5f610b24610a0f565b9050610b308282610aea565b919050565b5f67ffffffffffffffff821115610b4f57610b4e610abd565b5b610b5882610aad565b9050602081019050919050565b828183375f83830152505050565b5f610b85610b8084610b35565b610b1b565b905082815260208101848484011115610ba157610ba0610aa9565b5b610bac848285610b65565b509392505050565b5f82601f830112610bc857610bc7610aa5565b5b8135610bd8848260208601610b73565b91505092915050565b5f60208284031215610bf657610bf5610a18565b5b5f82013567ffffffffffffffff811115610c1357610c12610a1c565b5b610c1f84828501610bb4565b91505092915050565b5f819050919050565b610c3a81610c28565b8114610c44575f5ffd5b50565b5f81359050610c5581610c31565b92915050565b5f60208284031215610c7057610c6f610a18565b5b5f610c7d84828501610c47565b91505092915050565b610c8f81610a3f565b82525050565b5f602082019050610ca85f830184610c86565b92915050565b610cb781610c28565b82525050565b5f602082019050610cd05f830184610cae565b92915050565b5f5f60408385031215610cec57610ceb610a18565b5b5f610cf985828601610a66565b9250506020610d0a85828601610c47565b9150509250929050565b5f604082019050610d275f830185610c86565b610d346020830184610c86565b9392505050565b7f4e487b71000000000000000000000000000000000000000000000000000000005f52603260045260245ffd5b7f4e487b71000000000000000000000000000000000000000000000000000000005f52601160045260245ffd5b5f610d9f82610c28565b9150610daa83610c28565b9250828203905081811115610dc257610dc1610d68565b5b92915050565b7f4e487b71000000000000000000000000000000000000000000000000000000005f52603160045260245ffd5b5f81519050919050565b7f4e487b71000000000000000000000000000000000000000000000000000000005f52602260045260245ffd5b5f6002820490506001821680610e4357607f821691505b602082108103610e5657610e55610dff565b5b50919050565b5f819050815f5260205f209050919050565b5f6020601f8301049050919050565b5f82821b905092915050565b5f60088302610eb87fffffffffffffffffffffffffffffffffffffffffffffffffffffffffffffffff82610e7d565b610ec28683610e7d565b95508019841693508086168417925050509392505050565b5f819050919050565b5f610efd610ef8610ef384610c28565b610eda565b610c28565b9050919050565b5f819050919050565b610f1683610ee3565b610f2a610f2282610f04565b848454610e89565b825550505050565b5f5f905090565b610f41610f32565b610f4c818484610f0d565b505050565b5b81811015610f6f57610f645f82610f39565b600181019050610f52565b5050565b601f821115610fb457610f8581610e5c565b610f8e84610e6e565b81016020851015610f9d578190505b610fb1610fa985610e6e565b830182610f51565b50505b505050565b5f82821c905092915050565b5f610fd45f1984600802610fb9565b1980831691505092915050565b5f610fec8383610fc5565b9150826002028217905092915050565b61100582610df5565b67ffffffffffffffff81111561101e5761101d610abd565b5b6110288254610e2c565b611033828285610f73565b5f60209050601f831160018114611064575f8415611052578287015190505b61105c8582610fe1565b8655506110c3565b601f19841661107286610e5c565b5f5b8281101561109957848901518255600182019150602085019450602081019050611074565b868310156110b657848901516110b2601f891682610fc5565b8355505b6001600288020188555050505b505050505050565b5f82825260208201905092915050565b8281835e5f83830152505050565b5f6110f382610df5565b6110fd81856110cb565b935061110d8185602086016110db565b61111681610aad565b840191505092915050565b5f6020820190508181035f83015261113981846110e9565b905092915050565b5f6040820190506111545f830185610c86565b6111616020830184610cae565b9392505050565b7f456e64657265636f20496e76616c69646f0000000000000000000000000000005f82015250565b5f61119c6011836110cb565b91506111a782611168565b602082019050919050565b5f6020820190508181035f8301526111c981611190565b9050919050565b5f6040820190506111e35f830185610cae565b6111f06020830184610cae565b9392505050565b5f81905092915050565b50565b5f61120f5f836111f7565b915061121a82611201565b5f82019050919050565b5f61122e82611204565b915081905091905056fea2646970667358221220fedc6520d2f850a213dc0a1c2f0d69676ecaaa7f4f6d33401d9704d072d4911e64736f6c634300081b0033",
					"opcodes": "PUSH1 0xA0 PUSH1 0x40 MSTORE CALLVALUE DUP1 ISZERO PUSH2 0xF JUMPI PUSH0 PUSH0 REVERT JUMPDEST POP CALLER PUSH20 0xFFFFFFFFFFFFFFFFFFFFFFFFFFFFFFFFFFFFFFFF AND PUSH1 0x80 DUP2 PUSH20 0xFFFFFFFFFFFFFFFFFFFFFFFFFFFFFFFFFFFFFFFF AND DUP2 MSTORE POP POP PUSH1 0x80 MLOAD PUSH2 0x126E PUSH2 0x7F PUSH0 CODECOPY PUSH0 DUP2 DUP2 PUSH2 0x1BB ADD MSTORE DUP2 DUP2 PUSH2 0x20F ADD MSTORE DUP2 DUP2 PUSH2 0x4BC ADD MSTORE DUP2 DUP2 PUSH2 0x510 ADD MSTORE DUP2 DUP2 PUSH2 0x689 ADD MSTORE PUSH2 0x6DD ADD MSTORE PUSH2 0x126E PUSH0 RETURN INVALID PUSH1 0x80 PUSH1 0x40 MSTORE PUSH1 0x4 CALLDATASIZE LT PUSH2 0x7E JUMPI PUSH0 CALLDATALOAD PUSH1 0xE0 SHR DUP1 PUSH4 0x672A4050 GT PUSH2 0x4D JUMPI DUP1 PUSH4 0x672A4050 EQ PUSH2 0x149 JUMPI DUP1 PUSH4 0xD0E30DB0 EQ PUSH2 0x15F JUMPI DUP1 PUSH4 0xF3800B38 EQ PUSH2 0x169 JUMPI DUP1 PUSH4 0xF3FEF3A3 EQ PUSH2 0x191 JUMPI PUSH2 0x7F JUMP JUMPDEST DUP1 PUSH4 0x2D59F478 EQ PUSH2 0x81 JUMPI DUP1 PUSH4 0x368B8772 EQ PUSH2 0xA9 JUMPI DUP1 PUSH4 0x49D318E8 EQ PUSH2 0xD1 JUMPI DUP1 PUSH4 0x57970497 EQ PUSH2 0x10D JUMPI PUSH2 0x7F JUMP JUMPDEST JUMPDEST STOP JUMPDEST CALLVALUE DUP1 ISZERO PUSH2 0x8C JUMPI PUSH0 PUSH0 REVERT JUMPDEST POP PUSH2 0xA7 PUSH1 0x4 DUP1 CALLDATASIZE SUB DUP2 ADD SWAP1 PUSH2 0xA2 SWAP2 SWAP1 PUSH2 0xA7A JUMP JUMPDEST PUSH2 0x1B9 JUMP JUMPDEST STOP JUMPDEST CALLVALUE DUP1 ISZERO PUSH2 0xB4 JUMPI PUSH0 PUSH0 REVERT JUMPDEST POP PUSH2 0xCF PUSH1 0x4 DUP1 CALLDATASIZE SUB DUP2 ADD SWAP1 PUSH2 0xCA SWAP2 SWAP1 PUSH2 0xBE1 JUMP JUMPDEST PUSH2 0x420 JUMP JUMPDEST STOP JUMPDEST CALLVALUE DUP1 ISZERO PUSH2 0xDC JUMPI PUSH0 PUSH0 REVERT JUMPDEST POP PUSH2 0xF7 PUSH1 0x4 DUP1 CALLDATASIZE SUB DUP2 ADD SWAP1 PUSH2 0xF2 SWAP2 SWAP1 PUSH2 0xC5B JUMP JUMPDEST PUSH2 0x46A JUMP JUMPDEST PUSH1 0x40 MLOAD PUSH2 0x104 SWAP2 SWAP1 PUSH2 0xC95 JUMP JUMPDEST PUSH1 0x40 MLOAD DUP1 SWAP2 SUB SWAP1 RETURN JUMPDEST CALLVALUE DUP1 ISZERO PUSH2 0x118 JUMPI PUSH0 PUSH0 REVERT JUMPDEST POP PUSH2 0x133 PUSH1 0x4 DUP1 CALLDATASIZE SUB DUP2 ADD SWAP1 PUSH2 0x12E SWAP2 SWAP1 PUSH2 0xA7A JUMP JUMPDEST PUSH2 0x4A5 JUMP JUMPDEST PUSH1 0x40 MLOAD PUSH2 0x140 SWAP2 SWAP1 PUSH2 0xCBD JUMP JUMPDEST PUSH1 0x40 MLOAD DUP1 SWAP2 SUB SWAP1 RETURN JUMPDEST CALLVALUE DUP1 ISZERO PUSH2 0x154 JUMPI PUSH0 PUSH0 REVERT JUMPDEST POP PUSH2 0x15D PUSH2 0x4BA JUMP JUMPDEST STOP JUMPDEST PUSH2 0x167 PUSH2 0x5AA JUMP JUMPDEST STOP JUMPDEST CALLVALUE DUP1 ISZERO PUSH2 0x174 JUMPI PUSH0 PUSH0 REVERT JUMPDEST POP PUSH2 0x18F PUSH1 0x4 DUP1 CALLDATASIZE SUB DUP2 ADD SWAP1 PUSH2 0x18A SWAP2 SWAP1 PUSH2 0xA7A JUMP JUMPDEST PUSH2 0x687 JUMP JUMPDEST STOP JUMPDEST CALLVALUE DUP1 ISZERO PUSH2 0x19C JUMPI PUSH0 PUSH0 REVERT JUMPDEST POP PUSH2 0x1B7 PUSH1 0x4 DUP1 CALLDATASIZE SUB DUP2 ADD SWAP1 PUSH2 0x1B2 SWAP2 SWAP1 PUSH2 0xCD6 JUMP JUMPDEST PUSH2 0x7B3 JUMP JUMPDEST STOP JUMPDEST PUSH32 0x0 PUSH20 0xFFFFFFFFFFFFFFFFFFFFFFFFFFFFFFFFFFFFFFFF AND CALLER PUSH20 0xFFFFFFFFFFFFFFFFFFFFFFFFFFFFFFFFFFFFFFFF AND EQ PUSH2 0x26B JUMPI CALLER PUSH32 0x0 PUSH1 0x40 MLOAD PUSH32 0x23213C1F00000000000000000000000000000000000000000000000000000000 DUP2 MSTORE PUSH1 0x4 ADD PUSH2 0x262 SWAP3 SWAP2 SWAP1 PUSH2 0xD14 JUMP JUMPDEST PUSH1 0x40 MLOAD DUP1 SWAP2 SUB SWAP1 REVERT JUMPDEST PUSH0 PUSH1 0x7 DUP1 SLOAD SWAP1 POP SWAP1 POP PUSH0 JUMPDEST DUP2 DUP2 LT ISZERO PUSH2 0x41A JUMPI DUP3 PUSH20 0xFFFFFFFFFFFFFFFFFFFFFFFFFFFFFFFFFFFFFFFF AND PUSH1 0x7 DUP3 DUP2 SLOAD DUP2 LT PUSH2 0x2A9 JUMPI PUSH2 0x2A8 PUSH2 0xD3B JUMP JUMPDEST JUMPDEST SWAP1 PUSH0 MSTORE PUSH1 0x20 PUSH0 KECCAK256 ADD PUSH0 SWAP1 SLOAD SWAP1 PUSH2 0x100 EXP SWAP1 DIV PUSH20 0xFFFFFFFFFFFFFFFFFFFFFFFFFFFFFFFFFFFFFFFF AND PUSH20 0xFFFFFFFFFFFFFFFFFFFFFFFFFFFFFFFFFFFFFFFF AND SUB PUSH2 0x40F JUMPI PUSH1 0x7 PUSH1 0x1 DUP4 PUSH2 0x2FB SWAP2 SWAP1 PUSH2 0xD95 JUMP JUMPDEST DUP2 SLOAD DUP2 LT PUSH2 0x30C JUMPI PUSH2 0x30B PUSH2 0xD3B JUMP JUMPDEST JUMPDEST SWAP1 PUSH0 MSTORE PUSH1 0x20 PUSH0 KECCAK256 ADD PUSH0 SWAP1 SLOAD SWAP1 PUSH2 0x100 EXP SWAP1 DIV PUSH20 0xFFFFFFFFFFFFFFFFFFFFFFFFFFFFFFFFFFFFFFFF AND PUSH1 0x7 DUP3 DUP2 SLOAD DUP2 LT PUSH2 0x348 JUMPI PUSH2 0x347 PUSH2 0xD3B JUMP JUMPDEST JUMPDEST SWAP1 PUSH0 MSTORE PUSH1 0x20 PUSH0 KECCAK256 ADD PUSH0 PUSH2 0x100 EXP DUP2 SLOAD DUP2 PUSH20 0xFFFFFFFFFFFFFFFFFFFFFFFFFFFFFFFFFFFFFFFF MUL NOT AND SWAP1 DUP4 PUSH20 0xFFFFFFFFFFFFFFFFFFFFFFFFFFFFFFFFFFFFFFFF AND MUL OR SWAP1 SSTORE POP PUSH1 0x7 DUP1 SLOAD DUP1 PUSH2 0x39F JUMPI PUSH2 0x39E PUSH2 0xDC8 JUMP JUMPDEST JUMPDEST PUSH1 0x1 SWAP1 SUB DUP2 DUP2 SWAP1 PUSH0 MSTORE PUSH1 0x20 PUSH0 KECCAK256 ADD PUSH0 PUSH2 0x100 EXP DUP2 SLOAD SWAP1 PUSH20 0xFFFFFFFFFFFFFFFFFFFFFFFFFFFFFFFFFFFFFFFF MUL NOT AND SWAP1 SSTORE SWAP1 SSTORE PUSH32 0x5582416AEBF278B650C6DADDB8A9C0221D31E2F68E6D65A3A29A76752F46E26C DUP4 PUSH1 0x40 MLOAD PUSH2 0x400 SWAP2 SWAP1 PUSH2 0xC95 JUMP JUMPDEST PUSH1 0x40 MLOAD DUP1 SWAP2 SUB SWAP1 LOG1 POP POP PUSH2 0x41D JUMP JUMPDEST DUP1 PUSH1 0x1 ADD SWAP1 POP PUSH2 0x276 JUMP JUMPDEST POP POP JUMPDEST POP JUMP JUMPDEST DUP1 PUSH1 0x4 SWAP1 DUP2 PUSH2 0x42F SWAP2 SWAP1 PUSH2 0xFFC JUMP JUMPDEST POP PUSH32 0x82C9D772E1A9F4C0F41C81A56C5772CB71E0F2CCE601E96C1588C793F5B69D97 DUP2 PUSH1 0x40 MLOAD PUSH2 0x45F SWAP2 SWAP1 PUSH2 0x1121 JUMP JUMPDEST PUSH1 0x40 MLOAD DUP1 SWAP2 SUB SWAP1 LOG1 POP JUMP JUMPDEST PUSH1 0x7 DUP2 DUP2 SLOAD DUP2 LT PUSH2 0x479 JUMPI PUSH0 DUP1 REVERT JUMPDEST SWAP1 PUSH0 MSTORE PUSH1 0x20 PUSH0 KECCAK256 ADD PUSH0 SWAP2 POP SLOAD SWAP1 PUSH2 0x100 EXP SWAP1 DIV PUSH20 0xFFFFFFFFFFFFFFFFFFFFFFFFFFFFFFFFFFFFFFFF AND DUP2 JUMP JUMPDEST PUSH1 0x8 PUSH1 0x20 MSTORE DUP1 PUSH0 MSTORE PUSH1 0x40 PUSH0 KECCAK256 PUSH0 SWAP2 POP SWAP1 POP SLOAD DUP2 JUMP JUMPDEST PUSH32 0x0 PUSH20 0xFFFFFFFFFFFFFFFFFFFFFFFFFFFFFFFFFFFFFFFF AND CALLER PUSH20 0xFFFFFFFFFFFFFFFFFFFFFFFFFFFFFFFFFFFFFFFF AND EQ PUSH2 0x56C JUMPI CALLER PUSH32 0x0 PUSH1 0x40 MLOAD PUSH32 0x23213C1F00000000000000000000000000000000000000000000000000000000 DUP2 MSTORE PUSH1 0x4 ADD PUSH2 0x563 SWAP3 SWAP2 SWAP1 PUSH2 0xD14 JUMP JUMPDEST PUSH1 0x40 MLOAD DUP1 SWAP2 SUB SWAP1 REVERT JUMPDEST PUSH0 PUSH0 PUSH0 DUP3 ADD PUSH0 PUSH2 0x100 EXP DUP2 SLOAD SWAP1 PUSH20 0xFFFFFFFFFFFFFFFFFFFFFFFFFFFFFFFFFFFFFFFF MUL NOT AND SWAP1 SSTORE PUSH0 DUP3 ADD PUSH1 0x14 PUSH2 0x100 EXP DUP2 SLOAD SWAP1 PUSH1 0xFF MUL NOT AND SWAP1 SSTORE POP POP JUMP JUMPDEST CALLVALUE PUSH1 0x8 PUSH0 CALLER PUSH20 0xFFFFFFFFFFFFFFFFFFFFFFFFFFFFFFFFFFFFFFFF AND PUSH20 0xFFFFFFFFFFFFFFFFFFFFFFFFFFFFFFFFFFFFFFFF AND DUP2 MSTORE PUSH1 0x20 ADD SWAP1 DUP2 MSTORE PUSH1 0x20 ADD PUSH0 KECCAK256 DUP2 SWAP1 SSTORE POP PUSH1 0x7 CALLER SWAP1 DUP1 PUSH1 0x1 DUP2 SLOAD ADD DUP1 DUP3 SSTORE DUP1 SWAP2 POP POP PUSH1 0x1 SWAP1 SUB SWAP1 PUSH0 MSTORE PUSH1 0x20 PUSH0 KECCAK256 ADD PUSH0 SWAP1 SWAP2 SWAP1 SWAP2 SWAP1 SWAP2 PUSH2 0x100 EXP DUP2 SLOAD DUP2 PUSH20 0xFFFFFFFFFFFFFFFFFFFFFFFFFFFFFFFFFFFFFFFF MUL NOT AND SWAP1 DUP4 PUSH20 0xFFFFFFFFFFFFFFFFFFFFFFFFFFFFFFFFFFFFFFFF AND MUL OR SWAP1 SSTORE POP PUSH32 0x54A7D39154B620D1A6998B1D444FD62390263215FA1B612388984926D631F1AA CALLER CALLVALUE PUSH1 0x40 MLOAD PUSH2 0x67D SWAP3 SWAP2 SWAP1 PUSH2 0x1141 JUMP JUMPDEST PUSH1 0x40 MLOAD DUP1 SWAP2 SUB SWAP1 LOG1 JUMP JUMPDEST PUSH32 0x0 PUSH20 0xFFFFFFFFFFFFFFFFFFFFFFFFFFFFFFFFFFFFFFFF AND CALLER PUSH20 0xFFFFFFFFFFFFFFFFFFFFFFFFFFFFFFFFFFFFFFFF AND EQ PUSH2 0x739 JUMPI CALLER PUSH32 0x0 PUSH1 0x40 MLOAD PUSH32 0x23213C1F00000000000000000000000000000000000000000000000000000000 DUP2 MSTORE PUSH1 0x4 ADD PUSH2 0x730 SWAP3 SWAP2 SWAP1 PUSH2 0xD14 JUMP JUMPDEST PUSH1 0x40 MLOAD DUP1 SWAP2 SUB SWAP1 REVERT JUMPDEST PUSH1 0x8 PUSH0 DUP3 PUSH20 0xFFFFFFFFFFFFFFFFFFFFFFFFFFFFFFFFFFFFFFFF AND PUSH20 0xFFFFFFFFFFFFFFFFFFFFFFFFFFFFFFFFFFFFFFFF AND DUP2 MSTORE PUSH1 0x20 ADD SWAP1 DUP2 MSTORE PUSH1 0x20 ADD PUSH0 KECCAK256 PUSH0 SWAP1 SSTORE PUSH32 0x62EFAF0841A6265233114D664F73274D77D587710BE72C6CA69F0002606112D4 DUP2 PUSH1 0x40 MLOAD PUSH2 0x7A8 SWAP2 SWAP1 PUSH2 0xC95 JUMP JUMPDEST PUSH1 0x40 MLOAD DUP1 SWAP2 SUB SWAP1 LOG1 POP JUMP JUMPDEST CALLER PUSH20 0xFFFFFFFFFFFFFFFFFFFFFFFFFFFFFFFFFFFFFFFF AND PUSH0 PUSH0 ADD PUSH0 SWAP1 SLOAD SWAP1 PUSH2 0x100 EXP SWAP1 DIV PUSH20 0xFFFFFFFFFFFFFFFFFFFFFFFFFFFFFFFFFFFFFFFF AND PUSH20 0xFFFFFFFFFFFFFFFFFFFFFFFFFFFFFFFFFFFFFFFF AND EQ ISZERO DUP1 PUSH2 0x823 JUMPI POP PUSH0 ISZERO ISZERO PUSH0 PUSH0 ADD PUSH1 0x14 SWAP1 SLOAD SWAP1 PUSH2 0x100 EXP SWAP1 DIV PUSH1 0xFF AND ISZERO ISZERO EQ JUMPDEST ISZERO PUSH2 0x889 JUMPI CALLER PUSH0 PUSH0 ADD PUSH0 SWAP1 SLOAD SWAP1 PUSH2 0x100 EXP SWAP1 DIV PUSH20 0xFFFFFFFFFFFFFFFFFFFFFFFFFFFFFFFFFFFFFFFF AND PUSH1 0x40 MLOAD PUSH32 0x23213C1F00000000000000000000000000000000000000000000000000000000 DUP2 MSTORE PUSH1 0x4 ADD PUSH2 0x880 SWAP3 SWAP2 SWAP1 PUSH2 0xD14 JUMP JUMPDEST PUSH1 0x40 MLOAD DUP1 SWAP2 SUB SWAP1 REVERT JUMPDEST PUSH0 PUSH20 0xFFFFFFFFFFFFFFFFFFFFFFFFFFFFFFFFFFFFFFFF AND DUP3 PUSH20 0xFFFFFFFFFFFFFFFFFFFFFFFFFFFFFFFFFFFFFFFF AND SUB PUSH2 0x8F7 JUMPI PUSH1 0x40 MLOAD PUSH32 0x8C379A000000000000000000000000000000000000000000000000000000000 DUP2 MSTORE PUSH1 0x4 ADD PUSH2 0x8EE SWAP1 PUSH2 0x11B2 JUMP JUMPDEST PUSH1 0x40 MLOAD DUP1 SWAP2 SUB SWAP1 REVERT JUMPDEST PUSH8 0xDE0B6B3A7640000 DUP2 LT ISZERO DUP2 PUSH8 0xDE0B6B3A7640000 SWAP1 SWAP2 PUSH2 0x950 JUMPI PUSH1 0x40 MLOAD PUSH32 0x6257F2A400000000000000000000000000000000000000000000000000000000 DUP2 MSTORE PUSH1 0x4 ADD PUSH2 0x947 SWAP3 SWAP2 SWAP1 PUSH2 0x11D0 JUMP JUMPDEST PUSH1 0x40 MLOAD DUP1 SWAP2 SUB SWAP1 REVERT JUMPDEST POP POP SELFBALANCE DUP2 GT ISZERO PUSH2 0x999 JUMPI DUP1 SELFBALANCE PUSH1 0x40 MLOAD PUSH32 0xA72052AA00000000000000000000000000000000000000000000000000000000 DUP2 MSTORE PUSH1 0x4 ADD PUSH2 0x990 SWAP3 SWAP2 SWAP1 PUSH2 0x11D0 JUMP JUMPDEST PUSH1 0x40 MLOAD DUP1 SWAP2 SUB SWAP1 REVERT JUMPDEST PUSH0 DUP3 PUSH20 0xFFFFFFFFFFFFFFFFFFFFFFFFFFFFFFFFFFFFFFFF AND DUP3 PUSH1 0x40 MLOAD PUSH2 0x9BE SWAP1 PUSH2 0x1224 JUMP JUMPDEST PUSH0 PUSH1 0x40 MLOAD DUP1 DUP4 SUB DUP2 DUP6 DUP8 GAS CALL SWAP3 POP POP POP RETURNDATASIZE DUP1 PUSH0 DUP2 EQ PUSH2 0x9F8 JUMPI PUSH1 0x40 MLOAD SWAP2 POP PUSH1 0x1F NOT PUSH1 0x3F RETURNDATASIZE ADD AND DUP3 ADD PUSH1 0x40 MSTORE RETURNDATASIZE DUP3 MSTORE RETURNDATASIZE PUSH0 PUSH1 0x20 DUP5 ADD RETURNDATACOPY PUSH2 0x9FD JUMP JUMPDEST PUSH1 0x60 SWAP2 POP JUMPDEST POP POP SWAP1 POP DUP1 PUSH2 0xA0A JUMPI PUSH0 PUSH0 REVERT JUMPDEST POP POP POP JUMP JUMPDEST PUSH0 PUSH1 0x40 MLOAD SWAP1 POP SWAP1 JUMP JUMPDEST PUSH0 PUSH0 REVERT JUMPDEST PUSH0 PUSH0 REVERT JUMPDEST PUSH0 PUSH20 0xFFFFFFFFFFFFFFFFFFFFFFFFFFFFFFFFFFFFFFFF DUP3 AND SWAP1 POP SWAP2 SWAP1 POP JUMP JUMPDEST PUSH0 PUSH2 0xA49 DUP3 PUSH2 0xA20 JUMP JUMPDEST SWAP1 POP SWAP2 SWAP1 POP JUMP JUMPDEST PUSH2 0xA59 DUP2 PUSH2 0xA3F JUMP JUMPDEST DUP2 EQ PUSH2 0xA63 JUMPI PUSH0 PUSH0 REVERT JUMPDEST POP JUMP JUMPDEST PUSH0 DUP2 CALLDATALOAD SWAP1 POP PUSH2 0xA74 DUP2 PUSH2 0xA50 JUMP JUMPDEST SWAP3 SWAP2 POP POP JUMP JUMPDEST PUSH0 PUSH1 0x20 DUP3 DUP5 SUB SLT ISZERO PUSH2 0xA8F JUMPI PUSH2 0xA8E PUSH2 0xA18 JUMP JUMPDEST JUMPDEST PUSH0 PUSH2 0xA9C DUP5 DUP3 DUP6 ADD PUSH2 0xA66 JUMP JUMPDEST SWAP2 POP POP SWAP3 SWAP2 POP POP JUMP JUMPDEST PUSH0 PUSH0 REVERT JUMPDEST PUSH0 PUSH0 REVERT JUMPDEST PUSH0 PUSH1 0x1F NOT PUSH1 0x1F DUP4 ADD AND SWAP1 POP SWAP2 SWAP1 POP JUMP JUMPDEST PUSH32 0x4E487B7100000000000000000000000000000000000000000000000000000000 PUSH0 MSTORE PUSH1 0x41 PUSH1 0x4 MSTORE PUSH1 0x24 PUSH0 REVERT JUMPDEST PUSH2 0xAF3 DUP3 PUSH2 0xAAD JUMP JUMPDEST DUP2 ADD DUP2 DUP2 LT PUSH8 0xFFFFFFFFFFFFFFFF DUP3 GT OR ISZERO PUSH2 0xB12 JUMPI PUSH2 0xB11 PUSH2 0xABD JUMP JUMPDEST JUMPDEST DUP1 PUSH1 0x40 MSTORE POP POP POP JUMP JUMPDEST PUSH0 PUSH2 0xB24 PUSH2 0xA0F JUMP JUMPDEST SWAP1 POP PUSH2 0xB30 DUP3 DUP3 PUSH2 0xAEA JUMP JUMPDEST SWAP2 SWAP1 POP JUMP JUMPDEST PUSH0 PUSH8 0xFFFFFFFFFFFFFFFF DUP3 GT ISZERO PUSH2 0xB4F JUMPI PUSH2 0xB4E PUSH2 0xABD JUMP JUMPDEST JUMPDEST PUSH2 0xB58 DUP3 PUSH2 0xAAD JUMP JUMPDEST SWAP1 POP PUSH1 0x20 DUP2 ADD SWAP1 POP SWAP2 SWAP1 POP JUMP JUMPDEST DUP3 DUP2 DUP4 CALLDATACOPY PUSH0 DUP4 DUP4 ADD MSTORE POP POP POP JUMP JUMPDEST PUSH0 PUSH2 0xB85 PUSH2 0xB80 DUP5 PUSH2 0xB35 JUMP JUMPDEST PUSH2 0xB1B JUMP JUMPDEST SWAP1 POP DUP3 DUP2 MSTORE PUSH1 0x20 DUP2 ADD DUP5 DUP5 DUP5 ADD GT ISZERO PUSH2 0xBA1 JUMPI PUSH2 0xBA0 PUSH2 0xAA9 JUMP JUMPDEST JUMPDEST PUSH2 0xBAC DUP5 DUP3 DUP6 PUSH2 0xB65 JUMP JUMPDEST POP SWAP4 SWAP3 POP POP POP JUMP JUMPDEST PUSH0 DUP3 PUSH1 0x1F DUP4 ADD SLT PUSH2 0xBC8 JUMPI PUSH2 0xBC7 PUSH2 0xAA5 JUMP JUMPDEST JUMPDEST DUP2 CALLDATALOAD PUSH2 0xBD8 DUP5 DUP3 PUSH1 0x20 DUP7 ADD PUSH2 0xB73 JUMP JUMPDEST SWAP2 POP POP SWAP3 SWAP2 POP POP JUMP JUMPDEST PUSH0 PUSH1 0x20 DUP3 DUP5 SUB SLT ISZERO PUSH2 0xBF6 JUMPI PUSH2 0xBF5 PUSH2 0xA18 JUMP JUMPDEST JUMPDEST PUSH0 DUP3 ADD CALLDATALOAD PUSH8 0xFFFFFFFFFFFFFFFF DUP2 GT ISZERO PUSH2 0xC13 JUMPI PUSH2 0xC12 PUSH2 0xA1C JUMP JUMPDEST JUMPDEST PUSH2 0xC1F DUP5 DUP3 DUP6 ADD PUSH2 0xBB4 JUMP JUMPDEST SWAP2 POP POP SWAP3 SWAP2 POP POP JUMP JUMPDEST PUSH0 DUP2 SWAP1 POP SWAP2 SWAP1 POP JUMP JUMPDEST PUSH2 0xC3A DUP2 PUSH2 0xC28 JUMP JUMPDEST DUP2 EQ PUSH2 0xC44 JUMPI PUSH0 PUSH0 REVERT JUMPDEST POP JUMP JUMPDEST PUSH0 DUP2 CALLDATALOAD SWAP1 POP PUSH2 0xC55 DUP2 PUSH2 0xC31 JUMP JUMPDEST SWAP3 SWAP2 POP POP JUMP JUMPDEST PUSH0 PUSH1 0x20 DUP3 DUP5 SUB SLT ISZERO PUSH2 0xC70 JUMPI PUSH2 0xC6F PUSH2 0xA18 JUMP JUMPDEST JUMPDEST PUSH0 PUSH2 0xC7D DUP5 DUP3 DUP6 ADD PUSH2 0xC47 JUMP JUMPDEST SWAP2 POP POP SWAP3 SWAP2 POP POP JUMP JUMPDEST PUSH2 0xC8F DUP2 PUSH2 0xA3F JUMP JUMPDEST DUP3 MSTORE POP POP JUMP JUMPDEST PUSH0 PUSH1 0x20 DUP3 ADD SWAP1 POP PUSH2 0xCA8 PUSH0 DUP4 ADD DUP5 PUSH2 0xC86 JUMP JUMPDEST SWAP3 SWAP2 POP POP JUMP JUMPDEST PUSH2 0xCB7 DUP2 PUSH2 0xC28 JUMP JUMPDEST DUP3 MSTORE POP POP JUMP JUMPDEST PUSH0 PUSH1 0x20 DUP3 ADD SWAP1 POP PUSH2 0xCD0 PUSH0 DUP4 ADD DUP5 PUSH2 0xCAE JUMP JUMPDEST SWAP3 SWAP2 POP POP JUMP JUMPDEST PUSH0 PUSH0 PUSH1 0x40 DUP4 DUP6 SUB SLT ISZERO PUSH2 0xCEC JUMPI PUSH2 0xCEB PUSH2 0xA18 JUMP JUMPDEST JUMPDEST PUSH0 PUSH2 0xCF9 DUP6 DUP3 DUP7 ADD PUSH2 0xA66 JUMP JUMPDEST SWAP3 POP POP PUSH1 0x20 PUSH2 0xD0A DUP6 DUP3 DUP7 ADD PUSH2 0xC47 JUMP JUMPDEST SWAP2 POP POP SWAP3 POP SWAP3 SWAP1 POP JUMP JUMPDEST PUSH0 PUSH1 0x40 DUP3 ADD SWAP1 POP PUSH2 0xD27 PUSH0 DUP4 ADD DUP6 PUSH2 0xC86 JUMP JUMPDEST PUSH2 0xD34 PUSH1 0x20 DUP4 ADD DUP5 PUSH2 0xC86 JUMP JUMPDEST SWAP4 SWAP3 POP POP POP JUMP JUMPDEST PUSH32 0x4E487B7100000000000000000000000000000000000000000000000000000000 PUSH0 MSTORE PUSH1 0x32 PUSH1 0x4 MSTORE PUSH1 0x24 PUSH0 REVERT JUMPDEST PUSH32 0x4E487B7100000000000000000000000000000000000000000000000000000000 PUSH0 MSTORE PUSH1 0x11 PUSH1 0x4 MSTORE PUSH1 0x24 PUSH0 REVERT JUMPDEST PUSH0 PUSH2 0xD9F DUP3 PUSH2 0xC28 JUMP JUMPDEST SWAP2 POP PUSH2 0xDAA DUP4 PUSH2 0xC28 JUMP JUMPDEST SWAP3 POP DUP3 DUP3 SUB SWAP1 POP DUP2 DUP2 GT ISZERO PUSH2 0xDC2 JUMPI PUSH2 0xDC1 PUSH2 0xD68 JUMP JUMPDEST JUMPDEST SWAP3 SWAP2 POP POP JUMP JUMPDEST PUSH32 0x4E487B7100000000000000000000000000000000000000000000000000000000 PUSH0 MSTORE PUSH1 0x31 PUSH1 0x4 MSTORE PUSH1 0x24 PUSH0 REVERT JUMPDEST PUSH0 DUP2 MLOAD SWAP1 POP SWAP2 SWAP1 POP JUMP JUMPDEST PUSH32 0x4E487B7100000000000000000000000000000000000000000000000000000000 PUSH0 MSTORE PUSH1 0x22 PUSH1 0x4 MSTORE PUSH1 0x24 PUSH0 REVERT JUMPDEST PUSH0 PUSH1 0x2 DUP3 DIV SWAP1 POP PUSH1 0x1 DUP3 AND DUP1 PUSH2 0xE43 JUMPI PUSH1 0x7F DUP3 AND SWAP2 POP JUMPDEST PUSH1 0x20 DUP3 LT DUP2 SUB PUSH2 0xE56 JUMPI PUSH2 0xE55 PUSH2 0xDFF JUMP JUMPDEST JUMPDEST POP SWAP2 SWAP1 POP JUMP JUMPDEST PUSH0 DUP2 SWAP1 POP DUP2 PUSH0 MSTORE PUSH1 0x20 PUSH0 KECCAK256 SWAP1 POP SWAP2 SWAP1 POP JUMP JUMPDEST PUSH0 PUSH1 0x20 PUSH1 0x1F DUP4 ADD DIV SWAP1 POP SWAP2 SWAP1 POP JUMP JUMPDEST PUSH0 DUP3 DUP3 SHL SWAP1 POP SWAP3 SWAP2 POP POP JUMP JUMPDEST PUSH0 PUSH1 0x8 DUP4 MUL PUSH2 0xEB8 PUSH32 0xFFFFFFFFFFFFFFFFFFFFFFFFFFFFFFFFFFFFFFFFFFFFFFFFFFFFFFFFFFFFFFFF DUP3 PUSH2 0xE7D JUMP JUMPDEST PUSH2 0xEC2 DUP7 DUP4 PUSH2 0xE7D JUMP JUMPDEST SWAP6 POP DUP1 NOT DUP5 AND SWAP4 POP DUP1 DUP7 AND DUP5 OR SWAP3 POP POP POP SWAP4 SWAP3 POP POP POP JUMP JUMPDEST PUSH0 DUP2 SWAP1 POP SWAP2 SWAP1 POP JUMP JUMPDEST PUSH0 PUSH2 0xEFD PUSH2 0xEF8 PUSH2 0xEF3 DUP5 PUSH2 0xC28 JUMP JUMPDEST PUSH2 0xEDA JUMP JUMPDEST PUSH2 0xC28 JUMP JUMPDEST SWAP1 POP SWAP2 SWAP1 POP JUMP JUMPDEST PUSH0 DUP2 SWAP1 POP SWAP2 SWAP1 POP JUMP JUMPDEST PUSH2 0xF16 DUP4 PUSH2 0xEE3 JUMP JUMPDEST PUSH2 0xF2A PUSH2 0xF22 DUP3 PUSH2 0xF04 JUMP JUMPDEST DUP5 DUP5 SLOAD PUSH2 0xE89 JUMP JUMPDEST DUP3 SSTORE POP POP POP POP JUMP JUMPDEST PUSH0 PUSH0 SWAP1 POP SWAP1 JUMP JUMPDEST PUSH2 0xF41 PUSH2 0xF32 JUMP JUMPDEST PUSH2 0xF4C DUP2 DUP5 DUP5 PUSH2 0xF0D JUMP JUMPDEST POP POP POP JUMP JUMPDEST JUMPDEST DUP2 DUP2 LT ISZERO PUSH2 0xF6F JUMPI PUSH2 0xF64 PUSH0 DUP3 PUSH2 0xF39 JUMP JUMPDEST PUSH1 0x1 DUP2 ADD SWAP1 POP PUSH2 0xF52 JUMP JUMPDEST POP POP JUMP JUMPDEST PUSH1 0x1F DUP3 GT ISZERO PUSH2 0xFB4 JUMPI PUSH2 0xF85 DUP2 PUSH2 0xE5C JUMP JUMPDEST PUSH2 0xF8E DUP5 PUSH2 0xE6E JUMP JUMPDEST DUP2 ADD PUSH1 0x20 DUP6 LT ISZERO PUSH2 0xF9D JUMPI DUP2 SWAP1 POP JUMPDEST PUSH2 0xFB1 PUSH2 0xFA9 DUP6 PUSH2 0xE6E JUMP JUMPDEST DUP4 ADD DUP3 PUSH2 0xF51 JUMP JUMPDEST POP POP JUMPDEST POP POP POP JUMP JUMPDEST PUSH0 DUP3 DUP3 SHR SWAP1 POP SWAP3 SWAP2 POP POP JUMP JUMPDEST PUSH0 PUSH2 0xFD4 PUSH0 NOT DUP5 PUSH1 0x8 MUL PUSH2 0xFB9 JUMP JUMPDEST NOT DUP1 DUP4 AND SWAP2 POP POP SWAP3 SWAP2 POP POP JUMP JUMPDEST PUSH0 PUSH2 0xFEC DUP4 DUP4 PUSH2 0xFC5 JUMP JUMPDEST SWAP2 POP DUP3 PUSH1 0x2 MUL DUP3 OR SWAP1 POP SWAP3 SWAP2 POP POP JUMP JUMPDEST PUSH2 0x1005 DUP3 PUSH2 0xDF5 JUMP JUMPDEST PUSH8 0xFFFFFFFFFFFFFFFF DUP2 GT ISZERO PUSH2 0x101E JUMPI PUSH2 0x101D PUSH2 0xABD JUMP JUMPDEST JUMPDEST PUSH2 0x1028 DUP3 SLOAD PUSH2 0xE2C JUMP JUMPDEST PUSH2 0x1033 DUP3 DUP3 DUP6 PUSH2 0xF73 JUMP JUMPDEST PUSH0 PUSH1 0x20 SWAP1 POP PUSH1 0x1F DUP4 GT PUSH1 0x1 DUP2 EQ PUSH2 0x1064 JUMPI PUSH0 DUP5 ISZERO PUSH2 0x1052 JUMPI DUP3 DUP8 ADD MLOAD SWAP1 POP JUMPDEST PUSH2 0x105C DUP6 DUP3 PUSH2 0xFE1 JUMP JUMPDEST DUP7 SSTORE POP PUSH2 0x10C3 JUMP JUMPDEST PUSH1 0x1F NOT DUP5 AND PUSH2 0x1072 DUP7 PUSH2 0xE5C JUMP JUMPDEST PUSH0 JUMPDEST DUP3 DUP2 LT ISZERO PUSH2 0x1099 JUMPI DUP5 DUP10 ADD MLOAD DUP3 SSTORE PUSH1 0x1 DUP3 ADD SWAP2 POP PUSH1 0x20 DUP6 ADD SWAP5 POP PUSH1 0x20 DUP2 ADD SWAP1 POP PUSH2 0x1074 JUMP JUMPDEST DUP7 DUP4 LT ISZERO PUSH2 0x10B6 JUMPI DUP5 DUP10 ADD MLOAD PUSH2 0x10B2 PUSH1 0x1F DUP10 AND DUP3 PUSH2 0xFC5 JUMP JUMPDEST DUP4 SSTORE POP JUMPDEST PUSH1 0x1 PUSH1 0x2 DUP9 MUL ADD DUP9 SSTORE POP POP POP JUMPDEST POP POP POP POP POP POP JUMP JUMPDEST PUSH0 DUP3 DUP3 MSTORE PUSH1 0x20 DUP3 ADD SWAP1 POP SWAP3 SWAP2 POP POP JUMP JUMPDEST DUP3 DUP2 DUP4 MCOPY PUSH0 DUP4 DUP4 ADD MSTORE POP POP POP JUMP JUMPDEST PUSH0 PUSH2 0x10F3 DUP3 PUSH2 0xDF5 JUMP JUMPDEST PUSH2 0x10FD DUP2 DUP6 PUSH2 0x10CB JUMP JUMPDEST SWAP4 POP PUSH2 0x110D DUP2 DUP6 PUSH1 0x20 DUP7 ADD PUSH2 0x10DB JUMP JUMPDEST PUSH2 0x1116 DUP2 PUSH2 0xAAD JUMP JUMPDEST DUP5 ADD SWAP2 POP POP SWAP3 SWAP2 POP POP JUMP JUMPDEST PUSH0 PUSH1 0x20 DUP3 ADD SWAP1 POP DUP2 DUP2 SUB PUSH0 DUP4 ADD MSTORE PUSH2 0x1139 DUP2 DUP5 PUSH2 0x10E9 JUMP JUMPDEST SWAP1 POP SWAP3 SWAP2 POP POP JUMP JUMPDEST PUSH0 PUSH1 0x40 DUP3 ADD SWAP1 POP PUSH2 0x1154 PUSH0 DUP4 ADD DUP6 PUSH2 0xC86 JUMP JUMPDEST PUSH2 0x1161 PUSH1 0x20 DUP4 ADD DUP5 PUSH2 0xCAE JUMP JUMPDEST SWAP4 SWAP3 POP POP POP JUMP JUMPDEST PUSH32 0x456E64657265636F20496E76616C69646F000000000000000000000000000000 PUSH0 DUP3 ADD MSTORE POP JUMP JUMPDEST PUSH0 PUSH2 0x119C PUSH1 0x11 DUP4 PUSH2 0x10CB JUMP JUMPDEST SWAP2 POP PUSH2 0x11A7 DUP3 PUSH2 0x1168 JUMP JUMPDEST PUSH1 0x20 DUP3 ADD SWAP1 POP SWAP2 SWAP1 POP JUMP JUMPDEST PUSH0 PUSH1 0x20 DUP3 ADD SWAP1 POP DUP2 DUP2 SUB PUSH0 DUP4 ADD MSTORE PUSH2 0x11C9 DUP2 PUSH2 0x1190 JUMP JUMPDEST SWAP1 POP SWAP2 SWAP1 POP JUMP JUMPDEST PUSH0 PUSH1 0x40 DUP3 ADD SWAP1 POP PUSH2 0x11E3 PUSH0 DUP4 ADD DUP6 PUSH2 0xCAE JUMP JUMPDEST PUSH2 0x11F0 PUSH1 0x20 DUP4 ADD DUP5 PUSH2 0xCAE JUMP JUMPDEST SWAP4 SWAP3 POP POP POP JUMP JUMPDEST PUSH0 DUP2 SWAP1 POP SWAP3 SWAP2 POP POP JUMP JUMPDEST POP JUMP JUMPDEST PUSH0 PUSH2 0x120F PUSH0 DUP4 PUSH2 0x11F7 JUMP JUMPDEST SWAP2 POP PUSH2 0x121A DUP3 PUSH2 0x1201 JUMP JUMPDEST PUSH0 DUP3 ADD SWAP1 POP SWAP2 SWAP1 POP JUMP JUMPDEST PUSH0 PUSH2 0x122E DUP3 PUSH2 0x1204 JUMP JUMPDEST SWAP2 POP DUP2 SWAP1 POP SWAP2 SWAP1 POP JUMP INVALID LOG2 PUSH5 0x6970667358 0x22 SLT KECCAK256 INVALID 0xDC PUSH6 0x20D2F850A213 0xDC EXP SHR 0x2F 0xD PUSH10 0x676ECAAA7F4F6D33401D SWAP8 DIV 0xD0 PUSH19 0xD4911E64736F6C634300081B00330000000000 "
				},
				"gasEstimates": {
					"creation": {
						"codeDepositCost": "943600",
						"executionCost": "infinite",
						"totalCost": "infinite"
					},
					"external": {
						"": "173",
						"deleteArrayValue(address)": "infinite",
						"deleteMapping(address)": "infinite",
						"deposit()": "72508",
						"resetStruct()": "infinite",
						"s_depositantes(uint256)": "4989",
						"s_saldo(address)": "2869",
						"setMessage(string)": "infinite",
						"withdraw(address,uint256)": "infinite"
					}
				},
				"methodIdentifiers": {
					"deleteArrayValue(address)": "2d59f478",
					"deleteMapping(address)": "f3800b38",
					"deposit()": "d0e30db0",
					"resetStruct()": "672a4050",
					"s_depositantes(uint256)": "49d318e8",
					"s_saldo(address)": "57970497",
					"setMessage(string)": "368b8772",
					"withdraw(address,uint256)": "f3fef3a3"
				}
			},
			"storageLayout": {
				"storage": [
					{
						"astId": 29,
						"contract": "ExemploParaTCC.sol:Modulo",
						"label": "op",
						"offset": 0,
						"slot": "0",
						"type": "t_struct(Operadores)26_storage"
					},
					{
						"astId": 32,
						"contract": "ExemploParaTCC.sol:Modulo",
						"label": "s_inteiroPositivo",
						"offset": 0,
						"slot": "1",
						"type": "t_uint256"
					},
					{
						"astId": 34,
						"contract": "ExemploParaTCC.sol:Modulo",
						"label": "s_inteiro",
						"offset": 0,
						"slot": "2",
						"type": "t_int256"
					},
					{
						"astId": 36,
						"contract": "ExemploParaTCC.sol:Modulo",
						"label": "s_user",
						"offset": 0,
						"slot": "3",
						"type": "t_address"
					},
					{
						"astId": 38,
						"contract": "ExemploParaTCC.sol:Modulo",
						"label": "s_NaoPermitido",
						"offset": 20,
						"slot": "3",
						"type": "t_bool"
					},
					{
						"astId": 40,
						"contract": "ExemploParaTCC.sol:Modulo",
						"label": "s_textoDinamico",
						"offset": 0,
						"slot": "4",
						"type": "t_string_storage"
					},
					{
						"astId": 42,
						"contract": "ExemploParaTCC.sol:Modulo",
						"label": "s_bytesDinamico",
						"offset": 0,
						"slot": "5",
						"type": "t_bytes_storage"
					},
					{
						"astId": 44,
						"contract": "ExemploParaTCC.sol:Modulo",
						"label": "s_bytesEstatico",
						"offset": 0,
						"slot": "6",
						"type": "t_bytes32"
					},
					{
						"astId": 59,
						"contract": "ExemploParaTCC.sol:Modulo",
						"label": "s_depositantes",
						"offset": 0,
						"slot": "7",
						"type": "t_array(t_address)dyn_storage"
					},
					{
						"astId": 63,
						"contract": "ExemploParaTCC.sol:Modulo",
						"label": "s_saldo",
						"offset": 0,
						"slot": "8",
						"type": "t_mapping(t_address,t_uint256)"
					}
				],
				"types": {
					"t_address": {
						"encoding": "inplace",
						"label": "address",
						"numberOfBytes": "20"
					},
					"t_array(t_address)dyn_storage": {
						"base": "t_address",
						"encoding": "dynamic_array",
						"label": "address[]",
						"numberOfBytes": "32"
					},
					"t_bool": {
						"encoding": "inplace",
						"label": "bool",
						"numberOfBytes": "1"
					},
					"t_bytes32": {
						"encoding": "inplace",
						"label": "bytes32",
						"numberOfBytes": "32"
					},
					"t_bytes_storage": {
						"encoding": "bytes",
						"label": "bytes",
						"numberOfBytes": "32"
					},
					"t_int256": {
						"encoding": "inplace",
						"label": "int256",
						"numberOfBytes": "32"
					},
					"t_mapping(t_address,t_uint256)": {
						"encoding": "mapping",
						"key": "t_address",
						"label": "mapping(address => uint256)",
						"numberOfBytes": "32",
						"value": "t_uint256"
					},
					"t_string_storage": {
						"encoding": "bytes",
						"label": "string",
						"numberOfBytes": "32"
					},
					"t_struct(Operadores)26_storage": {
						"encoding": "inplace",
						"label": "struct Modulo.Operadores",
						"members": [
							{
								"astId": 23,
								"contract": "ExemploParaTCC.sol:Modulo",
								"label": "operador",
								"offset": 0,
								"slot": "0",
								"type": "t_address"
							},
							{
								"astId": 25,
								"contract": "ExemploParaTCC.sol:Modulo",
								"label": "isAllowed",
								"offset": 20,
								"slot": "0",
								"type": "t_bool"
							}
						],
						"numberOfBytes": "32"
					},
					"t_uint256": {
						"encoding": "inplace",
						"label": "uint256",
						"numberOfBytes": "32"
					}
				}
			},
			"userdoc": {
				"errors": {
					"Modulo_CallerNotAllowed(address,address)": [
						{
							"notice": "ERROR"
						}
					]
				},
				"kind": "user",
				"methods": {
					"s_depositantes(uint256)": {
						"notice": "storage"
					},
					"setMessage(string)": {
						"notice": "function to update the value of s_textoDinamico storage variable"
					}
				},
				"version": 1
			}
		}
	}
}