{
	"Modifiers.sol": {
		"MyContract": {
			"abi": [
				{
					"inputs": [],
					"stateMutability": "nonpayable",
					"type": "constructor"
				},
				{
					"inputs": [
						{
							"internalType": "address",
							"name": "caller",
							"type": "address"
						},
						{
							"internalType": "address",
							"name": "owner",
							"type": "address"
						}
					],
					"name": "MyContract_NotTheOwner",
					"type": "error"
				},
				{
					"anonymous": false,
					"inputs": [
						{
							"indexed": false,
							"internalType": "bool",
							"name": "stateChanged",
							"type": "bool"
						}
					],
					"name": "MyContract_AvailabilityChanged",
					"type": "event"
				},
				{
					"inputs": [],
					"name": "disponibilidade",
					"outputs": [],
					"stateMutability": "nonpayable",
					"type": "function"
				},
				{
					"inputs": [],
					"name": "s_available",
					"outputs": [
						{
							"internalType": "bool",
							"name": "",
							"type": "bool"
						}
					],
					"stateMutability": "view",
					"type": "function"
				},
				{
					"inputs": [],
					"name": "s_owner",
					"outputs": [
						{
							"internalType": "address",
							"name": "",
							"type": "address"
						}
					],
					"stateMutability": "view",
					"type": "function"
				}
			],
			"devdoc": {
				"kind": "dev",
				"methods": {},
				"version": 1
			},
			"evm": {
				"assembly": "    /* \"Modifiers.sol\":118:797  contract MyContract {... */\n  mstore(0x40, 0x80)\n    /* \"Modifiers.sol\":264:315  constructor() {... */\n  callvalue\n  dup1\n  iszero\n  tag_1\n  jumpi\n  0x00\n  dup1\n  revert\ntag_1:\n  pop\n    /* \"Modifiers.sol\":298:308  msg.sender */\n  caller\n    /* \"Modifiers.sol\":288:295  s_owner */\n  0x00\n  dup1\n    /* \"Modifiers.sol\":288:308  s_owner = msg.sender */\n  0x0100\n  exp\n  dup2\n  sload\n  dup2\n  0xffffffffffffffffffffffffffffffffffffffff\n  mul\n  not\n  and\n  swap1\n  dup4\n  0xffffffffffffffffffffffffffffffffffffffff\n  and\n  mul\n  or\n  swap1\n  sstore\n  pop\n    /* \"Modifiers.sol\":118:797  contract MyContract {... */\n  dataSize(sub_0)\n  dup1\n  dataOffset(sub_0)\n  0x00\n  codecopy\n  0x00\n  return\nstop\n\nsub_0: assembly {\n        /* \"Modifiers.sol\":118:797  contract MyContract {... */\n      mstore(0x40, 0x80)\n      callvalue\n      dup1\n      iszero\n      tag_1\n      jumpi\n      0x00\n      dup1\n      revert\n    tag_1:\n      pop\n      jumpi(tag_2, lt(calldatasize, 0x04))\n      shr(0xe0, calldataload(0x00))\n      dup1\n      0x1091c2ea\n      eq\n      tag_3\n      jumpi\n      dup1\n      0x93b0ea50\n      eq\n      tag_4\n      jumpi\n      dup1\n      0xe3978240\n      eq\n      tag_5\n      jumpi\n    tag_2:\n      0x00\n      dup1\n      revert\n        /* \"Modifiers.sol\":172:195  bool public s_available */\n    tag_3:\n      tag_6\n      tag_7\n      jump\t// in\n    tag_6:\n      mload(0x40)\n      tag_8\n      swap2\n      swap1\n      tag_9\n      jump\t// in\n    tag_8:\n      mload(0x40)\n      dup1\n      swap2\n      sub\n      swap1\n      return\n        /* \"Modifiers.sol\":452:795  function disponibilidade() public onlyOwner {... */\n    tag_4:\n      tag_10\n      tag_11\n      jump\t// in\n    tag_10:\n      stop\n        /* \"Modifiers.sol\":144:166  address public s_owner */\n    tag_5:\n      tag_12\n      tag_13\n      jump\t// in\n    tag_12:\n      mload(0x40)\n      tag_14\n      swap2\n      swap1\n      tag_15\n      jump\t// in\n    tag_14:\n      mload(0x40)\n      dup1\n      swap2\n      sub\n      swap1\n      return\n        /* \"Modifiers.sol\":172:195  bool public s_available */\n    tag_7:\n      0x00\n      0x14\n      swap1\n      sload\n      swap1\n      0x0100\n      exp\n      swap1\n      div\n      0xff\n      and\n      dup2\n      jump\t// out\n        /* \"Modifiers.sol\":452:795  function disponibilidade() public onlyOwner {... */\n    tag_11:\n        /* \"Modifiers.sol\":366:376  msg.sender */\n      caller\n        /* \"Modifiers.sol\":355:376  s_owner != msg.sender */\n      0xffffffffffffffffffffffffffffffffffffffff\n      and\n        /* \"Modifiers.sol\":355:362  s_owner */\n      0x00\n      dup1\n      sload\n      swap1\n      0x0100\n      exp\n      swap1\n      div\n      0xffffffffffffffffffffffffffffffffffffffff\n      and\n        /* \"Modifiers.sol\":355:376  s_owner != msg.sender */\n      0xffffffffffffffffffffffffffffffffffffffff\n      and\n      eq\n        /* \"Modifiers.sol\":352:428  if(s_owner != msg.sender) revert MyContract_NotTheOwner(msg.sender, s_owner) */\n      tag_17\n      jumpi\n        /* \"Modifiers.sol\":408:418  msg.sender */\n      caller\n        /* \"Modifiers.sol\":420:427  s_owner */\n      0x00\n      dup1\n      sload\n      swap1\n      0x0100\n      exp\n      swap1\n      div\n      0xffffffffffffffffffffffffffffffffffffffff\n      and\n        /* \"Modifiers.sol\":385:428  MyContract_NotTheOwner(msg.sender, s_owner) */\n      mload(0x40)\n      0x8ffa16ab00000000000000000000000000000000000000000000000000000000\n      dup2\n      mstore\n      0x04\n      add\n      tag_18\n      swap3\n      swap2\n      swap1\n      tag_19\n      jump\t// in\n    tag_18:\n      mload(0x40)\n      dup1\n      swap2\n      sub\n      swap1\n      revert\n        /* \"Modifiers.sol\":352:428  if(s_owner != msg.sender) revert MyContract_NotTheOwner(msg.sender, s_owner) */\n    tag_17:\n        /* \"Modifiers.sol\":608:612  true */\n      0x01\n        /* \"Modifiers.sol\":593:612  s_available == true */\n      iszero\n      iszero\n        /* \"Modifiers.sol\":593:604  s_available */\n      0x00\n      0x14\n      swap1\n      sload\n      swap1\n      0x0100\n      exp\n      swap1\n      div\n      0xff\n      and\n        /* \"Modifiers.sol\":593:612  s_available == true */\n      iszero\n      iszero\n      sub\n        /* \"Modifiers.sol\":590:706  if(s_available == true){... */\n      tag_21\n      jumpi\n        /* \"Modifiers.sol\":641:646  false */\n      0x00\n        /* \"Modifiers.sol\":627:638  s_available */\n      dup1\n      0x14\n        /* \"Modifiers.sol\":627:646  s_available = false */\n      0x0100\n      exp\n      dup2\n      sload\n      dup2\n      0xff\n      mul\n      not\n      and\n      swap1\n      dup4\n      iszero\n      iszero\n      mul\n      or\n      swap1\n      sstore\n      pop\n        /* \"Modifiers.sol\":590:706  if(s_available == true){... */\n      jump(tag_22)\n    tag_21:\n        /* \"Modifiers.sol\":691:695  true */\n      0x01\n        /* \"Modifiers.sol\":677:688  s_available */\n      0x00\n      0x14\n        /* \"Modifiers.sol\":677:695  s_available = true */\n      0x0100\n      exp\n      dup2\n      sload\n      dup2\n      0xff\n      mul\n      not\n      and\n      swap1\n      dup4\n      iszero\n      iszero\n      mul\n      or\n      swap1\n      sstore\n      pop\n        /* \"Modifiers.sol\":590:706  if(s_available == true){... */\n    tag_22:\n        /* \"Modifiers.sol\":744:787  MyContract_AvailabilityChanged(s_available) */\n      0xcbf446ce3b44f80f05420775312677dcdb50fa3372c64f8612b5c3e108ccb9c4\n        /* \"Modifiers.sol\":775:786  s_available */\n      0x00\n      0x14\n      swap1\n      sload\n      swap1\n      0x0100\n      exp\n      swap1\n      div\n      0xff\n      and\n        /* \"Modifiers.sol\":744:787  MyContract_AvailabilityChanged(s_available) */\n      mload(0x40)\n      tag_23\n      swap2\n      swap1\n      tag_9\n      jump\t// in\n    tag_23:\n      mload(0x40)\n      dup1\n      swap2\n      sub\n      swap1\n      log1\n        /* \"Modifiers.sol\":452:795  function disponibilidade() public onlyOwner {... */\n      jump\t// out\n        /* \"Modifiers.sol\":144:166  address public s_owner */\n    tag_13:\n      0x00\n      dup1\n      sload\n      swap1\n      0x0100\n      exp\n      swap1\n      div\n      0xffffffffffffffffffffffffffffffffffffffff\n      and\n      dup2\n      jump\t// out\n        /* \"#utility.yul\":7:97   */\n    tag_24:\n        /* \"#utility.yul\":41:48   */\n      0x00\n        /* \"#utility.yul\":84:89   */\n      dup2\n        /* \"#utility.yul\":77:90   */\n      iszero\n        /* \"#utility.yul\":70:91   */\n      iszero\n        /* \"#utility.yul\":59:91   */\n      swap1\n      pop\n        /* \"#utility.yul\":7:97   */\n      swap2\n      swap1\n      pop\n      jump\t// out\n        /* \"#utility.yul\":103:212   */\n    tag_25:\n        /* \"#utility.yul\":184:205   */\n      tag_32\n        /* \"#utility.yul\":199:204   */\n      dup2\n        /* \"#utility.yul\":184:205   */\n      tag_24\n      jump\t// in\n    tag_32:\n        /* \"#utility.yul\":179:182   */\n      dup3\n        /* \"#utility.yul\":172:206   */\n      mstore\n        /* \"#utility.yul\":103:212   */\n      pop\n      pop\n      jump\t// out\n        /* \"#utility.yul\":218:428   */\n    tag_9:\n        /* \"#utility.yul\":305:309   */\n      0x00\n        /* \"#utility.yul\":343:345   */\n      0x20\n        /* \"#utility.yul\":332:341   */\n      dup3\n        /* \"#utility.yul\":328:346   */\n      add\n        /* \"#utility.yul\":320:346   */\n      swap1\n      pop\n        /* \"#utility.yul\":356:421   */\n      tag_34\n        /* \"#utility.yul\":418:419   */\n      0x00\n        /* \"#utility.yul\":407:416   */\n      dup4\n        /* \"#utility.yul\":403:420   */\n      add\n        /* \"#utility.yul\":394:400   */\n      dup5\n        /* \"#utility.yul\":356:421   */\n      tag_25\n      jump\t// in\n    tag_34:\n        /* \"#utility.yul\":218:428   */\n      swap3\n      swap2\n      pop\n      pop\n      jump\t// out\n        /* \"#utility.yul\":434:560   */\n    tag_26:\n        /* \"#utility.yul\":471:478   */\n      0x00\n        /* \"#utility.yul\":511:553   */\n      0xffffffffffffffffffffffffffffffffffffffff\n        /* \"#utility.yul\":504:509   */\n      dup3\n        /* \"#utility.yul\":500:554   */\n      and\n        /* \"#utility.yul\":489:554   */\n      swap1\n      pop\n        /* \"#utility.yul\":434:560   */\n      swap2\n      swap1\n      pop\n      jump\t// out\n        /* \"#utility.yul\":566:662   */\n    tag_27:\n        /* \"#utility.yul\":603:610   */\n      0x00\n        /* \"#utility.yul\":632:656   */\n      tag_37\n        /* \"#utility.yul\":650:655   */\n      dup3\n        /* \"#utility.yul\":632:656   */\n      tag_26\n      jump\t// in\n    tag_37:\n        /* \"#utility.yul\":621:656   */\n      swap1\n      pop\n        /* \"#utility.yul\":566:662   */\n      swap2\n      swap1\n      pop\n      jump\t// out\n        /* \"#utility.yul\":668:786   */\n    tag_28:\n        /* \"#utility.yul\":755:779   */\n      tag_39\n        /* \"#utility.yul\":773:778   */\n      dup2\n        /* \"#utility.yul\":755:779   */\n      tag_27\n      jump\t// in\n    tag_39:\n        /* \"#utility.yul\":750:753   */\n      dup3\n        /* \"#utility.yul\":743:780   */\n      mstore\n        /* \"#utility.yul\":668:786   */\n      pop\n      pop\n      jump\t// out\n        /* \"#utility.yul\":792:1014   */\n    tag_15:\n        /* \"#utility.yul\":885:889   */\n      0x00\n        /* \"#utility.yul\":923:925   */\n      0x20\n        /* \"#utility.yul\":912:921   */\n      dup3\n        /* \"#utility.yul\":908:926   */\n      add\n        /* \"#utility.yul\":900:926   */\n      swap1\n      pop\n        /* \"#utility.yul\":936:1007   */\n      tag_41\n        /* \"#utility.yul\":1004:1005   */\n      0x00\n        /* \"#utility.yul\":993:1002   */\n      dup4\n        /* \"#utility.yul\":989:1006   */\n      add\n        /* \"#utility.yul\":980:986   */\n      dup5\n        /* \"#utility.yul\":936:1007   */\n      tag_28\n      jump\t// in\n    tag_41:\n        /* \"#utility.yul\":792:1014   */\n      swap3\n      swap2\n      pop\n      pop\n      jump\t// out\n        /* \"#utility.yul\":1020:1352   */\n    tag_19:\n        /* \"#utility.yul\":1141:1145   */\n      0x00\n        /* \"#utility.yul\":1179:1181   */\n      0x40\n        /* \"#utility.yul\":1168:1177   */\n      dup3\n        /* \"#utility.yul\":1164:1182   */\n      add\n        /* \"#utility.yul\":1156:1182   */\n      swap1\n      pop\n        /* \"#utility.yul\":1192:1263   */\n      tag_43\n        /* \"#utility.yul\":1260:1261   */\n      0x00\n        /* \"#utility.yul\":1249:1258   */\n      dup4\n        /* \"#utility.yul\":1245:1262   */\n      add\n        /* \"#utility.yul\":1236:1242   */\n      dup6\n        /* \"#utility.yul\":1192:1263   */\n      tag_28\n      jump\t// in\n    tag_43:\n        /* \"#utility.yul\":1273:1345   */\n      tag_44\n        /* \"#utility.yul\":1341:1343   */\n      0x20\n        /* \"#utility.yul\":1330:1339   */\n      dup4\n        /* \"#utility.yul\":1326:1344   */\n      add\n        /* \"#utility.yul\":1317:1323   */\n      dup5\n        /* \"#utility.yul\":1273:1345   */\n      tag_28\n      jump\t// in\n    tag_44:\n        /* \"#utility.yul\":1020:1352   */\n      swap4\n      swap3\n      pop\n      pop\n      pop\n      jump\t// out\n\n    auxdata: 0xa2646970667358221220cefa218d0540739fd6ac33d6476686f9959c6613cbc3d45664e70ca2f38de7a264736f6c634300081a0033\n}\n",
				"bytecode": {
					"linkReferences": {},
					"object": "6080604052348015600e575f80fd5b50335f806101000a81548173ffffffffffffffffffffffffffffffffffffffff021916908373ffffffffffffffffffffffffffffffffffffffff1602179055506102f08061005b5f395ff3fe608060405234801561000f575f80fd5b506004361061003f575f3560e01c80631091c2ea1461004357806393b0ea5014610061578063e39782401461006b575b5f80fd5b61004b610089565b6040516100589190610222565b60405180910390f35b61006961009b565b005b6100736101e5565b604051610080919061027a565b60405180910390f35b5f60149054906101000a900460ff1681565b3373ffffffffffffffffffffffffffffffffffffffff165f8054906101000a900473ffffffffffffffffffffffffffffffffffffffff1673ffffffffffffffffffffffffffffffffffffffff161461014b57335f8054906101000a900473ffffffffffffffffffffffffffffffffffffffff166040517f8ffa16ab000000000000000000000000000000000000000000000000000000008152600401610142929190610293565b60405180910390fd5b600115155f60149054906101000a900460ff16151503610183575f8060146101000a81548160ff02191690831515021790555061019e565b60015f60146101000a81548160ff0219169083151502179055505b7fcbf446ce3b44f80f05420775312677dcdb50fa3372c64f8612b5c3e108ccb9c45f60149054906101000a900460ff166040516101db9190610222565b60405180910390a1565b5f8054906101000a900473ffffffffffffffffffffffffffffffffffffffff1681565b5f8115159050919050565b61021c81610208565b82525050565b5f6020820190506102355f830184610213565b92915050565b5f73ffffffffffffffffffffffffffffffffffffffff82169050919050565b5f6102648261023b565b9050919050565b6102748161025a565b82525050565b5f60208201905061028d5f83018461026b565b92915050565b5f6040820190506102a65f83018561026b565b6102b3602083018461026b565b939250505056fea2646970667358221220cefa218d0540739fd6ac33d6476686f9959c6613cbc3d45664e70ca2f38de7a264736f6c634300081a0033",
					"opcodes": "PUSH1 0x80 PUSH1 0x40 MSTORE CALLVALUE DUP1 ISZERO PUSH1 0xE JUMPI PUSH0 DUP1 REVERT JUMPDEST POP CALLER PUSH0 DUP1 PUSH2 0x100 EXP DUP2 SLOAD DUP2 PUSH20 0xFFFFFFFFFFFFFFFFFFFFFFFFFFFFFFFFFFFFFFFF MUL NOT AND SWAP1 DUP4 PUSH20 0xFFFFFFFFFFFFFFFFFFFFFFFFFFFFFFFFFFFFFFFF AND MUL OR SWAP1 SSTORE POP PUSH2 0x2F0 DUP1 PUSH2 0x5B PUSH0 CODECOPY PUSH0 RETURN INVALID PUSH1 0x80 PUSH1 0x40 MSTORE CALLVALUE DUP1 ISZERO PUSH2 0xF JUMPI PUSH0 DUP1 REVERT JUMPDEST POP PUSH1 0x4 CALLDATASIZE LT PUSH2 0x3F JUMPI PUSH0 CALLDATALOAD PUSH1 0xE0 SHR DUP1 PUSH4 0x1091C2EA EQ PUSH2 0x43 JUMPI DUP1 PUSH4 0x93B0EA50 EQ PUSH2 0x61 JUMPI DUP1 PUSH4 0xE3978240 EQ PUSH2 0x6B JUMPI JUMPDEST PUSH0 DUP1 REVERT JUMPDEST PUSH2 0x4B PUSH2 0x89 JUMP JUMPDEST PUSH1 0x40 MLOAD PUSH2 0x58 SWAP2 SWAP1 PUSH2 0x222 JUMP JUMPDEST PUSH1 0x40 MLOAD DUP1 SWAP2 SUB SWAP1 RETURN JUMPDEST PUSH2 0x69 PUSH2 0x9B JUMP JUMPDEST STOP JUMPDEST PUSH2 0x73 PUSH2 0x1E5 JUMP JUMPDEST PUSH1 0x40 MLOAD PUSH2 0x80 SWAP2 SWAP1 PUSH2 0x27A JUMP JUMPDEST PUSH1 0x40 MLOAD DUP1 SWAP2 SUB SWAP1 RETURN JUMPDEST PUSH0 PUSH1 0x14 SWAP1 SLOAD SWAP1 PUSH2 0x100 EXP SWAP1 DIV PUSH1 0xFF AND DUP2 JUMP JUMPDEST CALLER PUSH20 0xFFFFFFFFFFFFFFFFFFFFFFFFFFFFFFFFFFFFFFFF AND PUSH0 DUP1 SLOAD SWAP1 PUSH2 0x100 EXP SWAP1 DIV PUSH20 0xFFFFFFFFFFFFFFFFFFFFFFFFFFFFFFFFFFFFFFFF AND PUSH20 0xFFFFFFFFFFFFFFFFFFFFFFFFFFFFFFFFFFFFFFFF AND EQ PUSH2 0x14B JUMPI CALLER PUSH0 DUP1 SLOAD SWAP1 PUSH2 0x100 EXP SWAP1 DIV PUSH20 0xFFFFFFFFFFFFFFFFFFFFFFFFFFFFFFFFFFFFFFFF AND PUSH1 0x40 MLOAD PUSH32 0x8FFA16AB00000000000000000000000000000000000000000000000000000000 DUP2 MSTORE PUSH1 0x4 ADD PUSH2 0x142 SWAP3 SWAP2 SWAP1 PUSH2 0x293 JUMP JUMPDEST PUSH1 0x40 MLOAD DUP1 SWAP2 SUB SWAP1 REVERT JUMPDEST PUSH1 0x1 ISZERO ISZERO PUSH0 PUSH1 0x14 SWAP1 SLOAD SWAP1 PUSH2 0x100 EXP SWAP1 DIV PUSH1 0xFF AND ISZERO ISZERO SUB PUSH2 0x183 JUMPI PUSH0 DUP1 PUSH1 0x14 PUSH2 0x100 EXP DUP2 SLOAD DUP2 PUSH1 0xFF MUL NOT AND SWAP1 DUP4 ISZERO ISZERO MUL OR SWAP1 SSTORE POP PUSH2 0x19E JUMP JUMPDEST PUSH1 0x1 PUSH0 PUSH1 0x14 PUSH2 0x100 EXP DUP2 SLOAD DUP2 PUSH1 0xFF MUL NOT AND SWAP1 DUP4 ISZERO ISZERO MUL OR SWAP1 SSTORE POP JUMPDEST PUSH32 0xCBF446CE3B44F80F05420775312677DCDB50FA3372C64F8612B5C3E108CCB9C4 PUSH0 PUSH1 0x14 SWAP1 SLOAD SWAP1 PUSH2 0x100 EXP SWAP1 DIV PUSH1 0xFF AND PUSH1 0x40 MLOAD PUSH2 0x1DB SWAP2 SWAP1 PUSH2 0x222 JUMP JUMPDEST PUSH1 0x40 MLOAD DUP1 SWAP2 SUB SWAP1 LOG1 JUMP JUMPDEST PUSH0 DUP1 SLOAD SWAP1 PUSH2 0x100 EXP SWAP1 DIV PUSH20 0xFFFFFFFFFFFFFFFFFFFFFFFFFFFFFFFFFFFFFFFF AND DUP2 JUMP JUMPDEST PUSH0 DUP2 ISZERO ISZERO SWAP1 POP SWAP2 SWAP1 POP JUMP JUMPDEST PUSH2 0x21C DUP2 PUSH2 0x208 JUMP JUMPDEST DUP3 MSTORE POP POP JUMP JUMPDEST PUSH0 PUSH1 0x20 DUP3 ADD SWAP1 POP PUSH2 0x235 PUSH0 DUP4 ADD DUP5 PUSH2 0x213 JUMP JUMPDEST SWAP3 SWAP2 POP POP JUMP JUMPDEST PUSH0 PUSH20 0xFFFFFFFFFFFFFFFFFFFFFFFFFFFFFFFFFFFFFFFF DUP3 AND SWAP1 POP SWAP2 SWAP1 POP JUMP JUMPDEST PUSH0 PUSH2 0x264 DUP3 PUSH2 0x23B JUMP JUMPDEST SWAP1 POP SWAP2 SWAP1 POP JUMP JUMPDEST PUSH2 0x274 DUP2 PUSH2 0x25A JUMP JUMPDEST DUP3 MSTORE POP POP JUMP JUMPDEST PUSH0 PUSH1 0x20 DUP3 ADD SWAP1 POP PUSH2 0x28D PUSH0 DUP4 ADD DUP5 PUSH2 0x26B JUMP JUMPDEST SWAP3 SWAP2 POP POP JUMP JUMPDEST PUSH0 PUSH1 0x40 DUP3 ADD SWAP1 POP PUSH2 0x2A6 PUSH0 DUP4 ADD DUP6 PUSH2 0x26B JUMP JUMPDEST PUSH2 0x2B3 PUSH1 0x20 DUP4 ADD DUP5 PUSH2 0x26B JUMP JUMPDEST SWAP4 SWAP3 POP POP POP JUMP INVALID LOG2 PUSH5 0x6970667358 0x22 SLT KECCAK256 0xCE STATICCALL 0x21 DUP14 SDIV BLOCKHASH PUSH20 0x9FD6AC33D6476686F9959C6613CBC3D45664E70C LOG2 RETURN DUP14 0xE7 LOG2 PUSH5 0x736F6C6343 STOP ADDMOD BYTE STOP CALLER "
				},
				"gasEstimates": {
					"creation": {
						"codeDepositCost": "150400",
						"executionCost": "24459",
						"totalCost": "174859"
					},
					"external": {
						"disponibilidade()": "infinite",
						"s_available()": "2494",
						"s_owner()": "2527"
					}
				},
				"methodIdentifiers": {
					"disponibilidade()": "93b0ea50",
					"s_available()": "1091c2ea",
					"s_owner()": "e3978240"
				}
			},
			"storageLayout": {
				"storage": [
					{
						"astId": 9,
						"contract": "Modifiers.sol:MyContract",
						"label": "s_owner",
						"offset": 0,
						"slot": "0",
						"type": "t_address"
					},
					{
						"astId": 11,
						"contract": "Modifiers.sol:MyContract",
						"label": "s_available",
						"offset": 20,
						"slot": "0",
						"type": "t_bool"
					}
				],
				"types": {
					"t_address": {
						"encoding": "inplace",
						"label": "address",
						"numberOfBytes": "20"
					},
					"t_bool": {
						"encoding": "inplace",
						"label": "bool",
						"numberOfBytes": "1"
					}
				}
			},
			"userdoc": {
				"kind": "user",
				"methods": {},
				"version": 1
			}
		}
	}
}