{
	"KipuBank.sol": {
		"KipuBank": {
			"abi": [
				{
					"inputs": [
						{
							"internalType": "uint256",
							"name": "_bankCap_inWei",
							"type": "uint256"
						}
					],
					"stateMutability": "nonpayable",
					"type": "constructor"
				},
				{
					"inputs": [
						{
							"internalType": "address",
							"name": "_sender",
							"type": "address"
						}
					],
					"name": "KipuBank_BadRequest_ContractIsInactive",
					"type": "error"
				},
				{
					"inputs": [
						{
							"internalType": "address",
							"name": "_sender",
							"type": "address"
						},
						{
							"internalType": "uint256",
							"name": "_deposit_value_tried",
							"type": "uint256"
						},
						{
							"internalType": "uint256",
							"name": "_blocked_value_to_be",
							"type": "uint256"
						},
						{
							"internalType": "uint256",
							"name": "_bank_cap",
							"type": "uint256"
						}
					],
					"name": "KipuBank_BadRequest_ExceedsDepositLimit",
					"type": "error"
				},
				{
					"inputs": [
						{
							"internalType": "address",
							"name": "_sender",
							"type": "address"
						},
						{
							"internalType": "uint256",
							"name": "_withdraw_value_tried",
							"type": "uint256"
						},
						{
							"internalType": "uint256",
							"name": "_withdraw_limit",
							"type": "uint256"
						}
					],
					"name": "KipuBank_BadRequest_ExceedsWithdrawLimit",
					"type": "error"
				},
				{
					"inputs": [
						{
							"internalType": "address",
							"name": "_receiver",
							"type": "address"
						},
						{
							"internalType": "uint256",
							"name": "_withdraw_value_tried",
							"type": "uint256"
						},
						{
							"internalType": "uint256",
							"name": "_balance",
							"type": "uint256"
						}
					],
					"name": "KipuBank_BadRequest_InvalidReceiverAddress",
					"type": "error"
				},
				{
					"inputs": [
						{
							"internalType": "address",
							"name": "_receiver",
							"type": "address"
						},
						{
							"internalType": "uint256",
							"name": "_withdraw_value_tried",
							"type": "uint256"
						},
						{
							"internalType": "uint256",
							"name": "_balance",
							"type": "uint256"
						}
					],
					"name": "KipuBank_BadRequest_NotEnoughtBalance",
					"type": "error"
				},
				{
					"inputs": [
						{
							"internalType": "address",
							"name": "_sender",
							"type": "address"
						}
					],
					"name": "KipuBank_BadRequest_NotTheOwner",
					"type": "error"
				},
				{
					"inputs": [
						{
							"internalType": "address",
							"name": "_owner",
							"type": "address"
						},
						{
							"internalType": "bytes",
							"name": "_error",
							"type": "bytes"
						}
					],
					"name": "KipuBank_ServerError_ErrorOnCall",
					"type": "error"
				},
				{
					"anonymous": false,
					"inputs": [
						{
							"indexed": false,
							"internalType": "bool",
							"name": "isActive",
							"type": "bool"
						}
					],
					"name": "KipuBank_ActiveToggled",
					"type": "event"
				},
				{
					"anonymous": false,
					"inputs": [
						{
							"indexed": false,
							"internalType": "address",
							"name": "sender",
							"type": "address"
						},
						{
							"indexed": false,
							"internalType": "uint256",
							"name": "msg_value",
							"type": "uint256"
						},
						{
							"indexed": false,
							"internalType": "uint256",
							"name": "balance",
							"type": "uint256"
						}
					],
					"name": "KipuBank_DepositSucceeded",
					"type": "event"
				},
				{
					"anonymous": false,
					"inputs": [
						{
							"indexed": false,
							"internalType": "address",
							"name": "to",
							"type": "address"
						},
						{
							"indexed": false,
							"internalType": "uint256",
							"name": "value",
							"type": "uint256"
						},
						{
							"indexed": false,
							"internalType": "uint256",
							"name": "balance",
							"type": "uint256"
						}
					],
					"name": "KipuBank_WithdrawSucceeded",
					"type": "event"
				},
				{
					"inputs": [
						{
							"internalType": "address",
							"name": "wallet",
							"type": "address"
						}
					],
					"name": "balance",
					"outputs": [
						{
							"internalType": "uint256",
							"name": "",
							"type": "uint256"
						}
					],
					"stateMutability": "view",
					"type": "function"
				},
				{
					"inputs": [],
					"name": "bankCap",
					"outputs": [
						{
							"internalType": "uint256",
							"name": "",
							"type": "uint256"
						}
					],
					"stateMutability": "view",
					"type": "function"
				},
				{
					"inputs": [],
					"name": "currentDepositLimit",
					"outputs": [
						{
							"internalType": "uint256",
							"name": "",
							"type": "uint256"
						}
					],
					"stateMutability": "view",
					"type": "function"
				},
				{
					"inputs": [],
					"name": "depositForSender",
					"outputs": [],
					"stateMutability": "payable",
					"type": "function"
				},
				{
					"inputs": [],
					"name": "isContractActive",
					"outputs": [
						{
							"internalType": "bool",
							"name": "",
							"type": "bool"
						}
					],
					"stateMutability": "view",
					"type": "function"
				},
				{
					"inputs": [],
					"name": "toggleActive_ownerOnly",
					"outputs": [],
					"stateMutability": "nonpayable",
					"type": "function"
				},
				{
					"inputs": [
						{
							"internalType": "address",
							"name": "_receiver",
							"type": "address"
						},
						{
							"internalType": "uint256",
							"name": "_amountInWei",
							"type": "uint256"
						}
					],
					"name": "withdrawForReceiver_ownerOnly",
					"outputs": [],
					"stateMutability": "nonpayable",
					"type": "function"
				},
				{
					"inputs": [
						{
							"internalType": "uint256",
							"name": "_amountInWei",
							"type": "uint256"
						}
					],
					"name": "withdrawForSender",
					"outputs": [],
					"stateMutability": "nonpayable",
					"type": "function"
				}
			],
			"devdoc": {
				"kind": "dev",
				"methods": {
					"balance(address)": {
						"details": "Returns the balance of the informed wallet "
					},
					"constructor": {
						"details": "sets _owner for the publisher, and publishes contract as active",
						"params": {
							"_bankCap_inWei": "sets the maximum limit of global balance of the contract, in WEI"
						}
					},
					"depositForSender()": {
						"details": "deposits value in WEI for the msg.sender "
					},
					"isContractActive()": {
						"details": "Returns state variable s_isActive"
					},
					"toggleActive_ownerOnly()": {
						"details": "turns isActive to !isActive"
					},
					"withdrawForReceiver_ownerOnly(address,uint256)": {
						"details": "Withdraw for informed address. Only the contract owner can do this.",
						"params": {
							"_amountInWei": "value in WEI to be withdrawn",
							"_receiver": "address for the withdraw"
						}
					},
					"withdrawForSender(uint256)": {
						"details": "withdraw for the conected address withdraw will be made for the msg.sender address ",
						"params": {
							"_amountInWei": "value in WEI to be withdrawn"
						}
					}
				},
				"title": "KipuBank",
				"version": 1
			},
			"evm": {
				"assembly": "    /* \"KipuBank.sol\":201:7009  contract KipuBank {... */\n  mstore(0x40, 0xc0)\n    /* \"KipuBank.sol\":2105:2246  constructor(uint256 _bankCap_inWei) {... */\n  callvalue\n  dup1\n  iszero\n  tag_1\n  jumpi\n  0x00\n  dup1\n  revert\ntag_1:\n  pop\n  mload(0x40)\n  sub(codesize, bytecodeSize)\n  dup1\n  bytecodeSize\n  dup4\n  codecopy\n  dup2\n  dup2\n  add\n  0x40\n  mstore\n  dup2\n  add\n  swap1\n  tag_2\n  swap2\n  swap1\n  tag_3\n  jump\t// in\ntag_2:\n    /* \"KipuBank.sol\":2161:2171  msg.sender */\n  caller\n    /* \"KipuBank.sol\":2151:2171  i_owner = msg.sender */\n  0xffffffffffffffffffffffffffffffffffffffff\n  and\n  0x80\n  dup2\n  0xffffffffffffffffffffffffffffffffffffffff\n  and\n  dup2\n  mstore\n  pop\n  pop\n    /* \"KipuBank.sol\":2194:2198  true */\n  0x01\n    /* \"KipuBank.sol\":2181:2191  s_isActive */\n  dup1\n  0x00\n    /* \"KipuBank.sol\":2181:2198  s_isActive = true */\n  0x0100\n  exp\n  dup2\n  sload\n  dup2\n  0xff\n  mul\n  not\n  and\n  swap1\n  dup4\n  iszero\n  iszero\n  mul\n  or\n  swap1\n  sstore\n  pop\n    /* \"KipuBank.sol\":2225:2239  _bankCap_inWei */\n  dup1\n    /* \"KipuBank.sol\":2208:2239  i_balanceLimit = _bankCap_inWei */\n  0xa0\n  dup2\n  dup2\n  mstore\n  pop\n  pop\n    /* \"KipuBank.sol\":2105:2246  constructor(uint256 _bankCap_inWei) {... */\n  pop\n    /* \"KipuBank.sol\":201:7009  contract KipuBank {... */\n  jump(tag_6)\n    /* \"#utility.yul\":88:205   */\ntag_8:\n    /* \"#utility.yul\":197:198   */\n  0x00\n    /* \"#utility.yul\":194:195   */\n  dup1\n    /* \"#utility.yul\":187:199   */\n  revert\n    /* \"#utility.yul\":334:411   */\ntag_10:\n    /* \"#utility.yul\":371:378   */\n  0x00\n    /* \"#utility.yul\":400:405   */\n  dup2\n    /* \"#utility.yul\":389:405   */\n  swap1\n  pop\n    /* \"#utility.yul\":334:411   */\n  swap2\n  swap1\n  pop\n  jump\t// out\n    /* \"#utility.yul\":417:539   */\ntag_11:\n    /* \"#utility.yul\":490:514   */\n  tag_19\n    /* \"#utility.yul\":508:513   */\n  dup2\n    /* \"#utility.yul\":490:514   */\n  tag_10\n  jump\t// in\ntag_19:\n    /* \"#utility.yul\":483:488   */\n  dup2\n    /* \"#utility.yul\":480:515   */\n  eq\n    /* \"#utility.yul\":470:533   */\n  tag_20\n  jumpi\n    /* \"#utility.yul\":529:530   */\n  0x00\n    /* \"#utility.yul\":526:527   */\n  dup1\n    /* \"#utility.yul\":519:531   */\n  revert\n    /* \"#utility.yul\":470:533   */\ntag_20:\n    /* \"#utility.yul\":417:539   */\n  pop\n  jump\t// out\n    /* \"#utility.yul\":545:688   */\ntag_12:\n    /* \"#utility.yul\":602:607   */\n  0x00\n    /* \"#utility.yul\":633:639   */\n  dup2\n    /* \"#utility.yul\":627:640   */\n  mload\n    /* \"#utility.yul\":618:640   */\n  swap1\n  pop\n    /* \"#utility.yul\":649:682   */\n  tag_22\n    /* \"#utility.yul\":676:681   */\n  dup2\n    /* \"#utility.yul\":649:682   */\n  tag_11\n  jump\t// in\ntag_22:\n    /* \"#utility.yul\":545:688   */\n  swap3\n  swap2\n  pop\n  pop\n  jump\t// out\n    /* \"#utility.yul\":694:1045   */\ntag_3:\n    /* \"#utility.yul\":764:770   */\n  0x00\n    /* \"#utility.yul\":813:815   */\n  0x20\n    /* \"#utility.yul\":801:810   */\n  dup3\n    /* \"#utility.yul\":792:799   */\n  dup5\n    /* \"#utility.yul\":788:811   */\n  sub\n    /* \"#utility.yul\":784:816   */\n  slt\n    /* \"#utility.yul\":781:900   */\n  iszero\n  tag_24\n  jumpi\n    /* \"#utility.yul\":819:898   */\n  tag_25\n  tag_8\n  jump\t// in\ntag_25:\n    /* \"#utility.yul\":781:900   */\ntag_24:\n    /* \"#utility.yul\":939:940   */\n  0x00\n    /* \"#utility.yul\":964:1028   */\n  tag_26\n    /* \"#utility.yul\":1020:1027   */\n  dup5\n    /* \"#utility.yul\":1011:1017   */\n  dup3\n    /* \"#utility.yul\":1000:1009   */\n  dup6\n    /* \"#utility.yul\":996:1018   */\n  add\n    /* \"#utility.yul\":964:1028   */\n  tag_12\n  jump\t// in\ntag_26:\n    /* \"#utility.yul\":954:1028   */\n  swap2\n  pop\n    /* \"#utility.yul\":910:1038   */\n  pop\n    /* \"#utility.yul\":694:1045   */\n  swap3\n  swap2\n  pop\n  pop\n  jump\t// out\n    /* \"KipuBank.sol\":201:7009  contract KipuBank {... */\ntag_6:\n  mload(0x80)\n  mload(0xa0)\n  codecopy(0x00, dataOffset(sub_0), dataSize(sub_0))\n  0x00\n  assignImmutable(\"0x32da71dbd53bc029835bc5ecdd3e688035cc92bb61b1811d1685e67ba974e19f\")\n  0x00\n  assignImmutable(\"0x6b3e710f3089a74ecb6b0f5948e5ff07a3db6ba4da475d2be17624ba96b95b\")\n  return(0x00, dataSize(sub_0))\nstop\n\nsub_0: assembly {\n        /* \"KipuBank.sol\":201:7009  contract KipuBank {... */\n      mstore(0x40, 0x80)\n      jumpi(tag_1, lt(calldatasize, 0x04))\n      shr(0xe0, calldataload(0x00))\n      dup1\n      0xc2b2dd0f\n      gt\n      tag_10\n      jumpi\n      dup1\n      0xc2b2dd0f\n      eq\n      tag_6\n      jumpi\n      dup1\n      0xcdf92c51\n      eq\n      tag_7\n      jumpi\n      dup1\n      0xe3d670d7\n      eq\n      tag_8\n      jumpi\n      dup1\n      0xecbea24d\n      eq\n      tag_9\n      jumpi\n      jump(tag_1)\n    tag_10:\n      dup1\n      0x0295d71b\n      eq\n      tag_2\n      jumpi\n      dup1\n      0x4a7ba7d6\n      eq\n      tag_3\n      jumpi\n      dup1\n      0x6252db32\n      eq\n      tag_4\n      jumpi\n      dup1\n      0x8f5949f9\n      eq\n      tag_5\n      jumpi\n    tag_1:\n      0x00\n      dup1\n      revert\n        /* \"KipuBank.sol\":6466:6590  function currentDepositLimit() external view returns(uint256) {... */\n    tag_2:\n      callvalue\n      dup1\n      iszero\n      tag_11\n      jumpi\n      0x00\n      dup1\n      revert\n    tag_11:\n      pop\n      tag_12\n      tag_13\n      jump\t// in\n    tag_12:\n      mload(0x40)\n      tag_14\n      swap2\n      swap1\n      tag_15\n      jump\t// in\n    tag_14:\n      mload(0x40)\n      dup1\n      swap2\n      sub\n      swap1\n      return\n        /* \"KipuBank.sol\":3033:3815  function depositForSender() external payable activeCheck {... */\n    tag_3:\n      tag_16\n      tag_17\n      jump\t// in\n    tag_16:\n      stop\n        /* \"KipuBank.sol\":2525:2957  function toggleActive_ownerOnly() external {... */\n    tag_4:\n      callvalue\n      dup1\n      iszero\n      tag_18\n      jumpi\n      0x00\n      dup1\n      revert\n    tag_18:\n      pop\n      tag_19\n      tag_20\n      jump\t// in\n    tag_19:\n      stop\n        /* \"KipuBank.sol\":6285:6375  function isContractActive() external view returns(bool) {... */\n    tag_5:\n      callvalue\n      dup1\n      iszero\n      tag_21\n      jumpi\n      0x00\n      dup1\n      revert\n    tag_21:\n      pop\n      tag_22\n      tag_23\n      jump\t// in\n    tag_22:\n      mload(0x40)\n      tag_24\n      swap2\n      swap1\n      tag_25\n      jump\t// in\n    tag_24:\n      mload(0x40)\n      dup1\n      swap2\n      sub\n      swap1\n      return\n        /* \"KipuBank.sol\":4395:4761  function withdrawForReceiver_ownerOnly(address _receiver, uint256 _amountInWei) external activeCheck{... */\n    tag_6:\n      callvalue\n      dup1\n      iszero\n      tag_26\n      jumpi\n      0x00\n      dup1\n      revert\n    tag_26:\n      pop\n      tag_27\n      0x04\n      dup1\n      calldatasize\n      sub\n      dup2\n      add\n      swap1\n      tag_28\n      swap2\n      swap1\n      tag_29\n      jump\t// in\n    tag_28:\n      tag_30\n      jump\t// in\n    tag_27:\n      stop\n        /* \"KipuBank.sol\":4002:4188  function withdrawForSender(uint256 _amountInWei) external activeCheck{... */\n    tag_7:\n      callvalue\n      dup1\n      iszero\n      tag_31\n      jumpi\n      0x00\n      dup1\n      revert\n    tag_31:\n      pop\n      tag_32\n      0x04\n      dup1\n      calldatasize\n      sub\n      dup2\n      add\n      swap1\n      tag_33\n      swap2\n      swap1\n      tag_34\n      jump\t// in\n    tag_33:\n      tag_35\n      jump\t// in\n    tag_32:\n      stop\n        /* \"KipuBank.sol\":6901:7006  function balance(address wallet) external view returns(uint256) {... */\n    tag_8:\n      callvalue\n      dup1\n      iszero\n      tag_36\n      jumpi\n      0x00\n      dup1\n      revert\n    tag_36:\n      pop\n      tag_37\n      0x04\n      dup1\n      calldatasize\n      sub\n      dup2\n      add\n      swap1\n      tag_38\n      swap2\n      swap1\n      tag_39\n      jump\t// in\n    tag_38:\n      tag_40\n      jump\t// in\n    tag_37:\n      mload(0x40)\n      tag_41\n      swap2\n      swap1\n      tag_15\n      jump\t// in\n    tag_41:\n      mload(0x40)\n      dup1\n      swap2\n      sub\n      swap1\n      return\n        /* \"KipuBank.sol\":6675:6763  function bankCap() external view returns(uint256) {... */\n    tag_9:\n      callvalue\n      dup1\n      iszero\n      tag_42\n      jumpi\n      0x00\n      dup1\n      revert\n    tag_42:\n      pop\n      tag_43\n      tag_44\n      jump\t// in\n    tag_43:\n      mload(0x40)\n      tag_45\n      swap2\n      swap1\n      tag_15\n      jump\t// in\n    tag_45:\n      mload(0x40)\n      dup1\n      swap2\n      sub\n      swap1\n      return\n        /* \"KipuBank.sol\":6466:6590  function currentDepositLimit() external view returns(uint256) {... */\n    tag_13:\n        /* \"KipuBank.sol\":6519:6526  uint256 */\n      0x00\n        /* \"KipuBank.sol\":6562:6583  address(this).balance */\n      selfbalance\n        /* \"KipuBank.sol\":6545:6559  i_balanceLimit */\n      immutable(\"0x32da71dbd53bc029835bc5ecdd3e688035cc92bb61b1811d1685e67ba974e19f\")\n        /* \"KipuBank.sol\":6545:6583  i_balanceLimit - address(this).balance */\n      tag_47\n      swap2\n      swap1\n      tag_48\n      jump\t// in\n    tag_47:\n        /* \"KipuBank.sol\":6538:6583  return i_balanceLimit - address(this).balance */\n      swap1\n      pop\n        /* \"KipuBank.sol\":6466:6590  function currentDepositLimit() external view returns(uint256) {... */\n      swap1\n      jump\t// out\n        /* \"KipuBank.sol\":3033:3815  function depositForSender() external payable activeCheck {... */\n    tag_17:\n        /* \"KipuBank.sol\":1699:1709  s_isActive */\n      0x01\n      0x00\n      swap1\n      sload\n      swap1\n      0x0100\n      exp\n      swap1\n      div\n      0xff\n      and\n        /* \"KipuBank.sol\":1695:1768  if(!s_isActive) revert KipuBank_BadRequest_ContractIsInactive(msg.sender) */\n      tag_50\n      jumpi\n        /* \"KipuBank.sol\":1757:1767  msg.sender */\n      caller\n        /* \"KipuBank.sol\":1718:1768  KipuBank_BadRequest_ContractIsInactive(msg.sender) */\n      mload(0x40)\n      0x6769df4f00000000000000000000000000000000000000000000000000000000\n      dup2\n      mstore\n      0x04\n      add\n      tag_51\n      swap2\n      swap1\n      tag_52\n      jump\t// in\n    tag_51:\n      mload(0x40)\n      dup1\n      swap2\n      sub\n      swap1\n      revert\n        /* \"KipuBank.sol\":1695:1768  if(!s_isActive) revert KipuBank_BadRequest_ContractIsInactive(msg.sender) */\n    tag_50:\n        /* \"KipuBank.sol\":3243:3272  uint256 balance_after_deposit */\n      0x00\n        /* \"KipuBank.sol\":3275:3296  address(this).balance */\n      selfbalance\n        /* \"KipuBank.sol\":3243:3296  uint256 balance_after_deposit = address(this).balance */\n      swap1\n      pop\n        /* \"KipuBank.sol\":3334:3348  i_balanceLimit */\n      immutable(\"0x32da71dbd53bc029835bc5ecdd3e688035cc92bb61b1811d1685e67ba974e19f\")\n        /* \"KipuBank.sol\":3310:3331  balance_after_deposit */\n      dup2\n        /* \"KipuBank.sol\":3310:3348  balance_after_deposit > i_balanceLimit */\n      gt\n        /* \"KipuBank.sol\":3307:3458  if(balance_after_deposit > i_balanceLimit) revert KipuBank_BadRequest_ExceedsDepositLimit(msg.sender, msg.value, balance_after_deposit, i_balanceLimit) */\n      iszero\n      tag_54\n      jumpi\n        /* \"KipuBank.sol\":3397:3407  msg.sender */\n      caller\n        /* \"KipuBank.sol\":3409:3418  msg.value */\n      callvalue\n        /* \"KipuBank.sol\":3420:3441  balance_after_deposit */\n      dup3\n        /* \"KipuBank.sol\":3443:3457  i_balanceLimit */\n      immutable(\"0x32da71dbd53bc029835bc5ecdd3e688035cc92bb61b1811d1685e67ba974e19f\")\n        /* \"KipuBank.sol\":3357:3458  KipuBank_BadRequest_ExceedsDepositLimit(msg.sender, msg.value, balance_after_deposit, i_balanceLimit) */\n      mload(0x40)\n      0xbd8346e500000000000000000000000000000000000000000000000000000000\n      dup2\n      mstore\n      0x04\n      add\n      tag_55\n      swap5\n      swap4\n      swap3\n      swap2\n      swap1\n      tag_56\n      jump\t// in\n    tag_55:\n      mload(0x40)\n      dup1\n      swap2\n      sub\n      swap1\n      revert\n        /* \"KipuBank.sol\":3307:3458  if(balance_after_deposit > i_balanceLimit) revert KipuBank_BadRequest_ExceedsDepositLimit(msg.sender, msg.value, balance_after_deposit, i_balanceLimit) */\n    tag_54:\n        /* \"KipuBank.sol\":3582:3591  msg.value */\n      callvalue\n        /* \"KipuBank.sol\":3557:3566  s_balance */\n      0x00\n        /* \"KipuBank.sol\":3557:3578  s_balance[msg.sender] */\n      dup1\n        /* \"KipuBank.sol\":3567:3577  msg.sender */\n      caller\n        /* \"KipuBank.sol\":3557:3578  s_balance[msg.sender] */\n      0xffffffffffffffffffffffffffffffffffffffff\n      and\n      0xffffffffffffffffffffffffffffffffffffffff\n      and\n      dup2\n      mstore\n      0x20\n      add\n      swap1\n      dup2\n      mstore\n      0x20\n      add\n      0x00\n      keccak256\n      0x00\n        /* \"KipuBank.sol\":3557:3591  s_balance[msg.sender] += msg.value */\n      dup3\n      dup3\n      sload\n      tag_57\n      swap2\n      swap1\n      tag_58\n      jump\t// in\n    tag_57:\n      swap3\n      pop\n      pop\n      dup2\n      swap1\n      sstore\n      pop\n        /* \"KipuBank.sol\":3606:3677  KipuBank_DepositSucceeded(msg.sender, msg.value, s_balance[msg.sender]) */\n      0x564a88d09454cb949119782721636bab5e9d20e52ce5b8f74167a2752d794fec\n        /* \"KipuBank.sol\":3632:3642  msg.sender */\n      caller\n        /* \"KipuBank.sol\":3644:3653  msg.value */\n      callvalue\n        /* \"KipuBank.sol\":3655:3664  s_balance */\n      0x00\n        /* \"KipuBank.sol\":3655:3676  s_balance[msg.sender] */\n      dup1\n        /* \"KipuBank.sol\":3665:3675  msg.sender */\n      caller\n        /* \"KipuBank.sol\":3655:3676  s_balance[msg.sender] */\n      0xffffffffffffffffffffffffffffffffffffffff\n      and\n      0xffffffffffffffffffffffffffffffffffffffff\n      and\n      dup2\n      mstore\n      0x20\n      add\n      swap1\n      dup2\n      mstore\n      0x20\n      add\n      0x00\n      keccak256\n      sload\n        /* \"KipuBank.sol\":3606:3677  KipuBank_DepositSucceeded(msg.sender, msg.value, s_balance[msg.sender]) */\n      mload(0x40)\n      tag_59\n      swap4\n      swap3\n      swap2\n      swap1\n      tag_60\n      jump\t// in\n    tag_59:\n      mload(0x40)\n      dup1\n      swap2\n      sub\n      swap1\n      log1\n        /* \"KipuBank.sol\":3090:3815  {... */\n      pop\n        /* \"KipuBank.sol\":3033:3815  function depositForSender() external payable activeCheck {... */\n      jump\t// out\n        /* \"KipuBank.sol\":2525:2957  function toggleActive_ownerOnly() external {... */\n    tag_20:\n        /* \"KipuBank.sol\":2664:2674  msg.sender */\n      caller\n        /* \"KipuBank.sol\":2653:2674  i_owner != msg.sender */\n      0xffffffffffffffffffffffffffffffffffffffff\n      and\n        /* \"KipuBank.sol\":2653:2660  i_owner */\n      immutable(\"0x6b3e710f3089a74ecb6b0f5948e5ff07a3db6ba4da475d2be17624ba96b95b\")\n        /* \"KipuBank.sol\":2653:2674  i_owner != msg.sender */\n      0xffffffffffffffffffffffffffffffffffffffff\n      and\n      eq\n        /* \"KipuBank.sol\":2650:2726  if(i_owner != msg.sender) revert KipuBank_BadRequest_NotTheOwner(msg.sender) */\n      tag_62\n      jumpi\n        /* \"KipuBank.sol\":2715:2725  msg.sender */\n      caller\n        /* \"KipuBank.sol\":2683:2726  KipuBank_BadRequest_NotTheOwner(msg.sender) */\n      mload(0x40)\n      0xa096967c00000000000000000000000000000000000000000000000000000000\n      dup2\n      mstore\n      0x04\n      add\n      tag_63\n      swap2\n      swap1\n      tag_52\n      jump\t// in\n    tag_63:\n      mload(0x40)\n      dup1\n      swap2\n      sub\n      swap1\n      revert\n        /* \"KipuBank.sol\":2650:2726  if(i_owner != msg.sender) revert KipuBank_BadRequest_NotTheOwner(msg.sender) */\n    tag_62:\n        /* \"KipuBank.sol\":2832:2842  s_isActive */\n      0x01\n      0x00\n      swap1\n      sload\n      swap1\n      0x0100\n      exp\n      swap1\n      div\n      0xff\n      and\n        /* \"KipuBank.sol\":2831:2842  !s_isActive */\n      iszero\n        /* \"KipuBank.sol\":2818:2828  s_isActive */\n      0x01\n      0x00\n        /* \"KipuBank.sol\":2818:2842  s_isActive = !s_isActive */\n      0x0100\n      exp\n      dup2\n      sload\n      dup2\n      0xff\n      mul\n      not\n      and\n      swap1\n      dup4\n      iszero\n      iszero\n      mul\n      or\n      swap1\n      sstore\n      pop\n        /* \"KipuBank.sol\":2857:2891  KipuBank_ActiveToggled(s_isActive) */\n      0xf99b96adca25fb6b5f18efcd55fb526ce79dfd548d90e14b4e3aaa8e3f5a5e6d\n        /* \"KipuBank.sol\":2880:2890  s_isActive */\n      0x01\n      0x00\n      swap1\n      sload\n      swap1\n      0x0100\n      exp\n      swap1\n      div\n      0xff\n      and\n        /* \"KipuBank.sol\":2857:2891  KipuBank_ActiveToggled(s_isActive) */\n      mload(0x40)\n      tag_64\n      swap2\n      swap1\n      tag_25\n      jump\t// in\n    tag_64:\n      mload(0x40)\n      dup1\n      swap2\n      sub\n      swap1\n      log1\n        /* \"KipuBank.sol\":2525:2957  function toggleActive_ownerOnly() external {... */\n      jump\t// out\n        /* \"KipuBank.sol\":6285:6375  function isContractActive() external view returns(bool) {... */\n    tag_23:\n        /* \"KipuBank.sol\":6335:6339  bool */\n      0x00\n        /* \"KipuBank.sol\":6358:6368  s_isActive */\n      0x01\n      0x00\n      swap1\n      sload\n      swap1\n      0x0100\n      exp\n      swap1\n      div\n      0xff\n      and\n        /* \"KipuBank.sol\":6351:6368  return s_isActive */\n      swap1\n      pop\n        /* \"KipuBank.sol\":6285:6375  function isContractActive() external view returns(bool) {... */\n      swap1\n      jump\t// out\n        /* \"KipuBank.sol\":4395:4761  function withdrawForReceiver_ownerOnly(address _receiver, uint256 _amountInWei) external activeCheck{... */\n    tag_30:\n        /* \"KipuBank.sol\":1699:1709  s_isActive */\n      0x01\n      0x00\n      swap1\n      sload\n      swap1\n      0x0100\n      exp\n      swap1\n      div\n      0xff\n      and\n        /* \"KipuBank.sol\":1695:1768  if(!s_isActive) revert KipuBank_BadRequest_ContractIsInactive(msg.sender) */\n      tag_67\n      jumpi\n        /* \"KipuBank.sol\":1757:1767  msg.sender */\n      caller\n        /* \"KipuBank.sol\":1718:1768  KipuBank_BadRequest_ContractIsInactive(msg.sender) */\n      mload(0x40)\n      0x6769df4f00000000000000000000000000000000000000000000000000000000\n      dup2\n      mstore\n      0x04\n      add\n      tag_68\n      swap2\n      swap1\n      tag_52\n      jump\t// in\n    tag_68:\n      mload(0x40)\n      dup1\n      swap2\n      sub\n      swap1\n      revert\n        /* \"KipuBank.sol\":1695:1768  if(!s_isActive) revert KipuBank_BadRequest_ContractIsInactive(msg.sender) */\n    tag_67:\n        /* \"KipuBank.sol\":4613:4623  msg.sender */\n      caller\n        /* \"KipuBank.sol\":4602:4623  i_owner != msg.sender */\n      0xffffffffffffffffffffffffffffffffffffffff\n      and\n        /* \"KipuBank.sol\":4602:4609  i_owner */\n      immutable(\"0x6b3e710f3089a74ecb6b0f5948e5ff07a3db6ba4da475d2be17624ba96b95b\")\n        /* \"KipuBank.sol\":4602:4623  i_owner != msg.sender */\n      0xffffffffffffffffffffffffffffffffffffffff\n      and\n      eq\n        /* \"KipuBank.sol\":4599:4675  if(i_owner != msg.sender) revert KipuBank_BadRequest_NotTheOwner(msg.sender) */\n      tag_70\n      jumpi\n        /* \"KipuBank.sol\":4664:4674  msg.sender */\n      caller\n        /* \"KipuBank.sol\":4632:4675  KipuBank_BadRequest_NotTheOwner(msg.sender) */\n      mload(0x40)\n      0xa096967c00000000000000000000000000000000000000000000000000000000\n      dup2\n      mstore\n      0x04\n      add\n      tag_71\n      swap2\n      swap1\n      tag_52\n      jump\t// in\n    tag_71:\n      mload(0x40)\n      dup1\n      swap2\n      sub\n      swap1\n      revert\n        /* \"KipuBank.sol\":4599:4675  if(i_owner != msg.sender) revert KipuBank_BadRequest_NotTheOwner(msg.sender) */\n    tag_70:\n        /* \"KipuBank.sol\":4721:4754  withdraw(_receiver, _amountInWei) */\n      tag_72\n        /* \"KipuBank.sol\":4730:4739  _receiver */\n      dup3\n        /* \"KipuBank.sol\":4741:4753  _amountInWei */\n      dup3\n        /* \"KipuBank.sol\":4721:4729  withdraw */\n      tag_73\n        /* \"KipuBank.sol\":4721:4754  withdraw(_receiver, _amountInWei) */\n      jump\t// in\n    tag_72:\n        /* \"KipuBank.sol\":4395:4761  function withdrawForReceiver_ownerOnly(address _receiver, uint256 _amountInWei) external activeCheck{... */\n      pop\n      pop\n      jump\t// out\n        /* \"KipuBank.sol\":4002:4188  function withdrawForSender(uint256 _amountInWei) external activeCheck{... */\n    tag_35:\n        /* \"KipuBank.sol\":1699:1709  s_isActive */\n      0x01\n      0x00\n      swap1\n      sload\n      swap1\n      0x0100\n      exp\n      swap1\n      div\n      0xff\n      and\n        /* \"KipuBank.sol\":1695:1768  if(!s_isActive) revert KipuBank_BadRequest_ContractIsInactive(msg.sender) */\n      tag_75\n      jumpi\n        /* \"KipuBank.sol\":1757:1767  msg.sender */\n      caller\n        /* \"KipuBank.sol\":1718:1768  KipuBank_BadRequest_ContractIsInactive(msg.sender) */\n      mload(0x40)\n      0x6769df4f00000000000000000000000000000000000000000000000000000000\n      dup2\n      mstore\n      0x04\n      add\n      tag_76\n      swap2\n      swap1\n      tag_52\n      jump\t// in\n    tag_76:\n      mload(0x40)\n      dup1\n      swap2\n      sub\n      swap1\n      revert\n        /* \"KipuBank.sol\":1695:1768  if(!s_isActive) revert KipuBank_BadRequest_ContractIsInactive(msg.sender) */\n    tag_75:\n        /* \"KipuBank.sol\":4147:4181  withdraw(msg.sender, _amountInWei) */\n      tag_78\n        /* \"KipuBank.sol\":4156:4166  msg.sender */\n      caller\n        /* \"KipuBank.sol\":4168:4180  _amountInWei */\n      dup3\n        /* \"KipuBank.sol\":4147:4155  withdraw */\n      tag_73\n        /* \"KipuBank.sol\":4147:4181  withdraw(msg.sender, _amountInWei) */\n      jump\t// in\n    tag_78:\n        /* \"KipuBank.sol\":4002:4188  function withdrawForSender(uint256 _amountInWei) external activeCheck{... */\n      pop\n      jump\t// out\n        /* \"KipuBank.sol\":6901:7006  function balance(address wallet) external view returns(uint256) {... */\n    tag_40:\n        /* \"KipuBank.sol\":6956:6963  uint256 */\n      0x00\n        /* \"KipuBank.sol\":6982:6991  s_balance */\n      dup1\n        /* \"KipuBank.sol\":6982:6999  s_balance[wallet] */\n      0x00\n        /* \"KipuBank.sol\":6992:6998  wallet */\n      dup4\n        /* \"KipuBank.sol\":6982:6999  s_balance[wallet] */\n      0xffffffffffffffffffffffffffffffffffffffff\n      and\n      0xffffffffffffffffffffffffffffffffffffffff\n      and\n      dup2\n      mstore\n      0x20\n      add\n      swap1\n      dup2\n      mstore\n      0x20\n      add\n      0x00\n      keccak256\n      sload\n        /* \"KipuBank.sol\":6975:6999  return s_balance[wallet] */\n      swap1\n      pop\n        /* \"KipuBank.sol\":6901:7006  function balance(address wallet) external view returns(uint256) {... */\n      swap2\n      swap1\n      pop\n      jump\t// out\n        /* \"KipuBank.sol\":6675:6763  function bankCap() external view returns(uint256) {... */\n    tag_44:\n        /* \"KipuBank.sol\":6716:6723  uint256 */\n      0x00\n        /* \"KipuBank.sol\":6742:6756  i_balanceLimit */\n      immutable(\"0x32da71dbd53bc029835bc5ecdd3e688035cc92bb61b1811d1685e67ba974e19f\")\n        /* \"KipuBank.sol\":6735:6756  return i_balanceLimit */\n      swap1\n      pop\n        /* \"KipuBank.sol\":6675:6763  function bankCap() external view returns(uint256) {... */\n      swap1\n      jump\t// out\n        /* \"KipuBank.sol\":4973:6039  function withdraw(address _receiver, uint256 _amount) private {... */\n    tag_73:\n        /* \"KipuBank.sol\":5130:5131  0 */\n      0x00\n        /* \"KipuBank.sol\":5109:5132  _receiver == address(0) */\n      0xffffffffffffffffffffffffffffffffffffffff\n      and\n        /* \"KipuBank.sol\":5109:5118  _receiver */\n      dup3\n        /* \"KipuBank.sol\":5109:5132  _receiver == address(0) */\n      0xffffffffffffffffffffffffffffffffffffffff\n      and\n      sub\n        /* \"KipuBank.sol\":5106:5225  if(_receiver == address(0)) revert KipuBank_BadRequest_InvalidReceiverAddress(_receiver, _amount, s_balance[_receiver]) */\n      tag_82\n      jumpi\n        /* \"KipuBank.sol\":5184:5193  _receiver */\n      dup2\n        /* \"KipuBank.sol\":5195:5202  _amount */\n      dup2\n        /* \"KipuBank.sol\":5204:5213  s_balance */\n      0x00\n        /* \"KipuBank.sol\":5204:5224  s_balance[_receiver] */\n      dup1\n        /* \"KipuBank.sol\":5214:5223  _receiver */\n      dup6\n        /* \"KipuBank.sol\":5204:5224  s_balance[_receiver] */\n      0xffffffffffffffffffffffffffffffffffffffff\n      and\n      0xffffffffffffffffffffffffffffffffffffffff\n      and\n      dup2\n      mstore\n      0x20\n      add\n      swap1\n      dup2\n      mstore\n      0x20\n      add\n      0x00\n      keccak256\n      sload\n        /* \"KipuBank.sol\":5141:5225  KipuBank_BadRequest_InvalidReceiverAddress(_receiver, _amount, s_balance[_receiver]) */\n      mload(0x40)\n      0xf46664a500000000000000000000000000000000000000000000000000000000\n      dup2\n      mstore\n      0x04\n      add\n      tag_83\n      swap4\n      swap3\n      swap2\n      swap1\n      tag_60\n      jump\t// in\n    tag_83:\n      mload(0x40)\n      dup1\n      swap2\n      sub\n      swap1\n      revert\n        /* \"KipuBank.sol\":5106:5225  if(_receiver == address(0)) revert KipuBank_BadRequest_InvalidReceiverAddress(_receiver, _amount, s_balance[_receiver]) */\n    tag_82:\n        /* \"KipuBank.sol\":1220:1228  15 ether */\n      0xd02ab486cedc0000\n        /* \"KipuBank.sol\":5280:5287  _amount */\n      dup2\n        /* \"KipuBank.sol\":5280:5304  _amount > WITHDRAW_LIMIT */\n      gt\n        /* \"KipuBank.sol\":5277:5389  if(_amount > WITHDRAW_LIMIT) revert KipuBank_BadRequest_ExceedsWithdrawLimit(_receiver, _amount, WITHDRAW_LIMIT) */\n      iszero\n      tag_84\n      jumpi\n        /* \"KipuBank.sol\":5354:5363  _receiver */\n      dup2\n        /* \"KipuBank.sol\":5365:5372  _amount */\n      dup2\n        /* \"KipuBank.sol\":1220:1228  15 ether */\n      0xd02ab486cedc0000\n        /* \"KipuBank.sol\":5313:5389  KipuBank_BadRequest_ExceedsWithdrawLimit(_receiver, _amount, WITHDRAW_LIMIT) */\n      mload(0x40)\n      0xf046c68500000000000000000000000000000000000000000000000000000000\n      dup2\n      mstore\n      0x04\n      add\n      tag_85\n      swap4\n      swap3\n      swap2\n      swap1\n      tag_60\n      jump\t// in\n    tag_85:\n      mload(0x40)\n      dup1\n      swap2\n      sub\n      swap1\n      revert\n        /* \"KipuBank.sol\":5277:5389  if(_amount > WITHDRAW_LIMIT) revert KipuBank_BadRequest_ExceedsWithdrawLimit(_receiver, _amount, WITHDRAW_LIMIT) */\n    tag_84:\n        /* \"KipuBank.sol\":5464:5473  s_balance */\n      0x00\n        /* \"KipuBank.sol\":5464:5484  s_balance[_receiver] */\n      dup1\n        /* \"KipuBank.sol\":5474:5483  _receiver */\n      dup4\n        /* \"KipuBank.sol\":5464:5484  s_balance[_receiver] */\n      0xffffffffffffffffffffffffffffffffffffffff\n      and\n      0xffffffffffffffffffffffffffffffffffffffff\n      and\n      dup2\n      mstore\n      0x20\n      add\n      swap1\n      dup2\n      mstore\n      0x20\n      add\n      0x00\n      keccak256\n      sload\n        /* \"KipuBank.sol\":5454:5461  _amount */\n      dup2\n        /* \"KipuBank.sol\":5454:5484  _amount > s_balance[_receiver] */\n      gt\n        /* \"KipuBank.sol\":5451:5572  if(_amount > s_balance[_receiver]) revert KipuBank_BadRequest_NotEnoughtBalance(_receiver, _amount, s_balance[_receiver]) */\n      iszero\n      tag_86\n      jumpi\n        /* \"KipuBank.sol\":5531:5540  _receiver */\n      dup2\n        /* \"KipuBank.sol\":5542:5549  _amount */\n      dup2\n        /* \"KipuBank.sol\":5551:5560  s_balance */\n      0x00\n        /* \"KipuBank.sol\":5551:5571  s_balance[_receiver] */\n      dup1\n        /* \"KipuBank.sol\":5561:5570  _receiver */\n      dup6\n        /* \"KipuBank.sol\":5551:5571  s_balance[_receiver] */\n      0xffffffffffffffffffffffffffffffffffffffff\n      and\n      0xffffffffffffffffffffffffffffffffffffffff\n      and\n      dup2\n      mstore\n      0x20\n      add\n      swap1\n      dup2\n      mstore\n      0x20\n      add\n      0x00\n      keccak256\n      sload\n        /* \"KipuBank.sol\":5493:5572  KipuBank_BadRequest_NotEnoughtBalance(_receiver, _amount, s_balance[_receiver]) */\n      mload(0x40)\n      0x9149188400000000000000000000000000000000000000000000000000000000\n      dup2\n      mstore\n      0x04\n      add\n      tag_87\n      swap4\n      swap3\n      swap2\n      swap1\n      tag_60\n      jump\t// in\n    tag_87:\n      mload(0x40)\n      dup1\n      swap2\n      sub\n      swap1\n      revert\n        /* \"KipuBank.sol\":5451:5572  if(_amount > s_balance[_receiver]) revert KipuBank_BadRequest_NotEnoughtBalance(_receiver, _amount, s_balance[_receiver]) */\n    tag_86:\n        /* \"KipuBank.sol\":5705:5712  _amount */\n      dup1\n        /* \"KipuBank.sol\":5681:5690  s_balance */\n      0x00\n        /* \"KipuBank.sol\":5681:5701  s_balance[_receiver] */\n      dup1\n        /* \"KipuBank.sol\":5691:5700  _receiver */\n      dup5\n        /* \"KipuBank.sol\":5681:5701  s_balance[_receiver] */\n      0xffffffffffffffffffffffffffffffffffffffff\n      and\n      0xffffffffffffffffffffffffffffffffffffffff\n      and\n      dup2\n      mstore\n      0x20\n      add\n      swap1\n      dup2\n      mstore\n      0x20\n      add\n      0x00\n      keccak256\n      0x00\n        /* \"KipuBank.sol\":5681:5712  s_balance[_receiver] -= _amount */\n      dup3\n      dup3\n      sload\n      tag_88\n      swap2\n      swap1\n      tag_48\n      jump\t// in\n    tag_88:\n      swap3\n      pop\n      pop\n      dup2\n      swap1\n      sstore\n      pop\n        /* \"KipuBank.sol\":5727:5795  KipuBank_WithdrawSucceeded(_receiver, _amount, s_balance[_receiver]) */\n      0xfb9d45a4c4e0c9731e23b6b4b205d9bc6a36c8719c5200db0626fd91a33cb0f7\n        /* \"KipuBank.sol\":5754:5763  _receiver */\n      dup3\n        /* \"KipuBank.sol\":5765:5772  _amount */\n      dup3\n        /* \"KipuBank.sol\":5774:5783  s_balance */\n      0x00\n        /* \"KipuBank.sol\":5774:5794  s_balance[_receiver] */\n      dup1\n        /* \"KipuBank.sol\":5784:5793  _receiver */\n      dup7\n        /* \"KipuBank.sol\":5774:5794  s_balance[_receiver] */\n      0xffffffffffffffffffffffffffffffffffffffff\n      and\n      0xffffffffffffffffffffffffffffffffffffffff\n      and\n      dup2\n      mstore\n      0x20\n      add\n      swap1\n      dup2\n      mstore\n      0x20\n      add\n      0x00\n      keccak256\n      sload\n        /* \"KipuBank.sol\":5727:5795  KipuBank_WithdrawSucceeded(_receiver, _amount, s_balance[_receiver]) */\n      mload(0x40)\n      tag_89\n      swap4\n      swap3\n      swap2\n      swap1\n      tag_60\n      jump\t// in\n    tag_89:\n      mload(0x40)\n      dup1\n      swap2\n      sub\n      swap1\n      log1\n        /* \"KipuBank.sol\":5880:5892  bool success */\n      0x00\n        /* \"KipuBank.sol\":5894:5913  bytes memory _error */\n      dup1\n        /* \"KipuBank.sol\":5917:5926  _receiver */\n      dup4\n        /* \"KipuBank.sol\":5917:5931  _receiver.call */\n      0xffffffffffffffffffffffffffffffffffffffff\n      and\n        /* \"KipuBank.sol\":5939:5946  _amount */\n      dup4\n        /* \"KipuBank.sol\":5917:5951  _receiver.call{value: _amount}(\"\") */\n      mload(0x40)\n      tag_90\n      swap1\n      tag_91\n      jump\t// in\n    tag_90:\n      0x00\n      mload(0x40)\n      dup1\n      dup4\n      sub\n      dup2\n      dup6\n      dup8\n      gas\n      call\n      swap3\n      pop\n      pop\n      pop\n      returndatasize\n      dup1\n      0x00\n      dup2\n      eq\n      tag_94\n      jumpi\n      mload(0x40)\n      swap2\n      pop\n      and(add(returndatasize, 0x3f), not(0x1f))\n      dup3\n      add\n      0x40\n      mstore\n      returndatasize\n      dup3\n      mstore\n      returndatasize\n      0x00\n      0x20\n      dup5\n      add\n      returndatacopy\n      jump(tag_93)\n    tag_94:\n      0x60\n      swap2\n      pop\n    tag_93:\n      pop\n        /* \"KipuBank.sol\":5879:5951  (bool success, bytes memory _error) = _receiver.call{value: _amount}(\"\") */\n      swap2\n      pop\n      swap2\n      pop\n        /* \"KipuBank.sol\":5965:5972  success */\n      dup2\n        /* \"KipuBank.sol\":5961:6032  if(!success) revert KipuBank_ServerError_ErrorOnCall(_receiver, _error) */\n      tag_95\n      jumpi\n        /* \"KipuBank.sol\":6014:6023  _receiver */\n      dup4\n        /* \"KipuBank.sol\":6025:6031  _error */\n      dup2\n        /* \"KipuBank.sol\":5981:6032  KipuBank_ServerError_ErrorOnCall(_receiver, _error) */\n      mload(0x40)\n      0x4756034600000000000000000000000000000000000000000000000000000000\n      dup2\n      mstore\n      0x04\n      add\n      tag_96\n      swap3\n      swap2\n      swap1\n      tag_97\n      jump\t// in\n    tag_96:\n      mload(0x40)\n      dup1\n      swap2\n      sub\n      swap1\n      revert\n        /* \"KipuBank.sol\":5961:6032  if(!success) revert KipuBank_ServerError_ErrorOnCall(_receiver, _error) */\n    tag_95:\n        /* \"KipuBank.sol\":5035:6039  {... */\n      pop\n      pop\n        /* \"KipuBank.sol\":4973:6039  function withdraw(address _receiver, uint256 _amount) private {... */\n      pop\n      pop\n      jump\t// out\n        /* \"#utility.yul\":7:84   */\n    tag_98:\n        /* \"#utility.yul\":44:51   */\n      0x00\n        /* \"#utility.yul\":73:78   */\n      dup2\n        /* \"#utility.yul\":62:78   */\n      swap1\n      pop\n        /* \"#utility.yul\":7:84   */\n      swap2\n      swap1\n      pop\n      jump\t// out\n        /* \"#utility.yul\":90:208   */\n    tag_99:\n        /* \"#utility.yul\":177:201   */\n      tag_124\n        /* \"#utility.yul\":195:200   */\n      dup2\n        /* \"#utility.yul\":177:201   */\n      tag_98\n      jump\t// in\n    tag_124:\n        /* \"#utility.yul\":172:175   */\n      dup3\n        /* \"#utility.yul\":165:202   */\n      mstore\n        /* \"#utility.yul\":90:208   */\n      pop\n      pop\n      jump\t// out\n        /* \"#utility.yul\":214:436   */\n    tag_15:\n        /* \"#utility.yul\":307:311   */\n      0x00\n        /* \"#utility.yul\":345:347   */\n      0x20\n        /* \"#utility.yul\":334:343   */\n      dup3\n        /* \"#utility.yul\":330:348   */\n      add\n        /* \"#utility.yul\":322:348   */\n      swap1\n      pop\n        /* \"#utility.yul\":358:429   */\n      tag_126\n        /* \"#utility.yul\":426:427   */\n      0x00\n        /* \"#utility.yul\":415:424   */\n      dup4\n        /* \"#utility.yul\":411:428   */\n      add\n        /* \"#utility.yul\":402:408   */\n      dup5\n        /* \"#utility.yul\":358:429   */\n      tag_99\n      jump\t// in\n    tag_126:\n        /* \"#utility.yul\":214:436   */\n      swap3\n      swap2\n      pop\n      pop\n      jump\t// out\n        /* \"#utility.yul\":442:532   */\n    tag_100:\n        /* \"#utility.yul\":476:483   */\n      0x00\n        /* \"#utility.yul\":519:524   */\n      dup2\n        /* \"#utility.yul\":512:525   */\n      iszero\n        /* \"#utility.yul\":505:526   */\n      iszero\n        /* \"#utility.yul\":494:526   */\n      swap1\n      pop\n        /* \"#utility.yul\":442:532   */\n      swap2\n      swap1\n      pop\n      jump\t// out\n        /* \"#utility.yul\":538:647   */\n    tag_101:\n        /* \"#utility.yul\":619:640   */\n      tag_129\n        /* \"#utility.yul\":634:639   */\n      dup2\n        /* \"#utility.yul\":619:640   */\n      tag_100\n      jump\t// in\n    tag_129:\n        /* \"#utility.yul\":614:617   */\n      dup3\n        /* \"#utility.yul\":607:641   */\n      mstore\n        /* \"#utility.yul\":538:647   */\n      pop\n      pop\n      jump\t// out\n        /* \"#utility.yul\":653:863   */\n    tag_25:\n        /* \"#utility.yul\":740:744   */\n      0x00\n        /* \"#utility.yul\":778:780   */\n      0x20\n        /* \"#utility.yul\":767:776   */\n      dup3\n        /* \"#utility.yul\":763:781   */\n      add\n        /* \"#utility.yul\":755:781   */\n      swap1\n      pop\n        /* \"#utility.yul\":791:856   */\n      tag_131\n        /* \"#utility.yul\":853:854   */\n      0x00\n        /* \"#utility.yul\":842:851   */\n      dup4\n        /* \"#utility.yul\":838:855   */\n      add\n        /* \"#utility.yul\":829:835   */\n      dup5\n        /* \"#utility.yul\":791:856   */\n      tag_101\n      jump\t// in\n    tag_131:\n        /* \"#utility.yul\":653:863   */\n      swap3\n      swap2\n      pop\n      pop\n      jump\t// out\n        /* \"#utility.yul\":950:1067   */\n    tag_103:\n        /* \"#utility.yul\":1059:1060   */\n      0x00\n        /* \"#utility.yul\":1056:1057   */\n      dup1\n        /* \"#utility.yul\":1049:1061   */\n      revert\n        /* \"#utility.yul\":1196:1322   */\n    tag_105:\n        /* \"#utility.yul\":1233:1240   */\n      0x00\n        /* \"#utility.yul\":1273:1315   */\n      0xffffffffffffffffffffffffffffffffffffffff\n        /* \"#utility.yul\":1266:1271   */\n      dup3\n        /* \"#utility.yul\":1262:1316   */\n      and\n        /* \"#utility.yul\":1251:1316   */\n      swap1\n      pop\n        /* \"#utility.yul\":1196:1322   */\n      swap2\n      swap1\n      pop\n      jump\t// out\n        /* \"#utility.yul\":1328:1424   */\n    tag_106:\n        /* \"#utility.yul\":1365:1372   */\n      0x00\n        /* \"#utility.yul\":1394:1418   */\n      tag_137\n        /* \"#utility.yul\":1412:1417   */\n      dup3\n        /* \"#utility.yul\":1394:1418   */\n      tag_105\n      jump\t// in\n    tag_137:\n        /* \"#utility.yul\":1383:1418   */\n      swap1\n      pop\n        /* \"#utility.yul\":1328:1424   */\n      swap2\n      swap1\n      pop\n      jump\t// out\n        /* \"#utility.yul\":1430:1552   */\n    tag_107:\n        /* \"#utility.yul\":1503:1527   */\n      tag_139\n        /* \"#utility.yul\":1521:1526   */\n      dup2\n        /* \"#utility.yul\":1503:1527   */\n      tag_106\n      jump\t// in\n    tag_139:\n        /* \"#utility.yul\":1496:1501   */\n      dup2\n        /* \"#utility.yul\":1493:1528   */\n      eq\n        /* \"#utility.yul\":1483:1546   */\n      tag_140\n      jumpi\n        /* \"#utility.yul\":1542:1543   */\n      0x00\n        /* \"#utility.yul\":1539:1540   */\n      dup1\n        /* \"#utility.yul\":1532:1544   */\n      revert\n        /* \"#utility.yul\":1483:1546   */\n    tag_140:\n        /* \"#utility.yul\":1430:1552   */\n      pop\n      jump\t// out\n        /* \"#utility.yul\":1558:1697   */\n    tag_108:\n        /* \"#utility.yul\":1604:1609   */\n      0x00\n        /* \"#utility.yul\":1642:1648   */\n      dup2\n        /* \"#utility.yul\":1629:1649   */\n      calldataload\n        /* \"#utility.yul\":1620:1649   */\n      swap1\n      pop\n        /* \"#utility.yul\":1658:1691   */\n      tag_142\n        /* \"#utility.yul\":1685:1690   */\n      dup2\n        /* \"#utility.yul\":1658:1691   */\n      tag_107\n      jump\t// in\n    tag_142:\n        /* \"#utility.yul\":1558:1697   */\n      swap3\n      swap2\n      pop\n      pop\n      jump\t// out\n        /* \"#utility.yul\":1703:1825   */\n    tag_109:\n        /* \"#utility.yul\":1776:1800   */\n      tag_144\n        /* \"#utility.yul\":1794:1799   */\n      dup2\n        /* \"#utility.yul\":1776:1800   */\n      tag_98\n      jump\t// in\n    tag_144:\n        /* \"#utility.yul\":1769:1774   */\n      dup2\n        /* \"#utility.yul\":1766:1801   */\n      eq\n        /* \"#utility.yul\":1756:1819   */\n      tag_145\n      jumpi\n        /* \"#utility.yul\":1815:1816   */\n      0x00\n        /* \"#utility.yul\":1812:1813   */\n      dup1\n        /* \"#utility.yul\":1805:1817   */\n      revert\n        /* \"#utility.yul\":1756:1819   */\n    tag_145:\n        /* \"#utility.yul\":1703:1825   */\n      pop\n      jump\t// out\n        /* \"#utility.yul\":1831:1970   */\n    tag_110:\n        /* \"#utility.yul\":1877:1882   */\n      0x00\n        /* \"#utility.yul\":1915:1921   */\n      dup2\n        /* \"#utility.yul\":1902:1922   */\n      calldataload\n        /* \"#utility.yul\":1893:1922   */\n      swap1\n      pop\n        /* \"#utility.yul\":1931:1964   */\n      tag_147\n        /* \"#utility.yul\":1958:1963   */\n      dup2\n        /* \"#utility.yul\":1931:1964   */\n      tag_109\n      jump\t// in\n    tag_147:\n        /* \"#utility.yul\":1831:1970   */\n      swap3\n      swap2\n      pop\n      pop\n      jump\t// out\n        /* \"#utility.yul\":1976:2450   */\n    tag_29:\n        /* \"#utility.yul\":2044:2050   */\n      0x00\n        /* \"#utility.yul\":2052:2058   */\n      dup1\n        /* \"#utility.yul\":2101:2103   */\n      0x40\n        /* \"#utility.yul\":2089:2098   */\n      dup4\n        /* \"#utility.yul\":2080:2087   */\n      dup6\n        /* \"#utility.yul\":2076:2099   */\n      sub\n        /* \"#utility.yul\":2072:2104   */\n      slt\n        /* \"#utility.yul\":2069:2188   */\n      iszero\n      tag_149\n      jumpi\n        /* \"#utility.yul\":2107:2186   */\n      tag_150\n      tag_103\n      jump\t// in\n    tag_150:\n        /* \"#utility.yul\":2069:2188   */\n    tag_149:\n        /* \"#utility.yul\":2227:2228   */\n      0x00\n        /* \"#utility.yul\":2252:2305   */\n      tag_151\n        /* \"#utility.yul\":2297:2304   */\n      dup6\n        /* \"#utility.yul\":2288:2294   */\n      dup3\n        /* \"#utility.yul\":2277:2286   */\n      dup7\n        /* \"#utility.yul\":2273:2295   */\n      add\n        /* \"#utility.yul\":2252:2305   */\n      tag_108\n      jump\t// in\n    tag_151:\n        /* \"#utility.yul\":2242:2305   */\n      swap3\n      pop\n        /* \"#utility.yul\":2198:2315   */\n      pop\n        /* \"#utility.yul\":2354:2356   */\n      0x20\n        /* \"#utility.yul\":2380:2433   */\n      tag_152\n        /* \"#utility.yul\":2425:2432   */\n      dup6\n        /* \"#utility.yul\":2416:2422   */\n      dup3\n        /* \"#utility.yul\":2405:2414   */\n      dup7\n        /* \"#utility.yul\":2401:2423   */\n      add\n        /* \"#utility.yul\":2380:2433   */\n      tag_110\n      jump\t// in\n    tag_152:\n        /* \"#utility.yul\":2370:2433   */\n      swap2\n      pop\n        /* \"#utility.yul\":2325:2443   */\n      pop\n        /* \"#utility.yul\":1976:2450   */\n      swap3\n      pop\n      swap3\n      swap1\n      pop\n      jump\t// out\n        /* \"#utility.yul\":2456:2785   */\n    tag_34:\n        /* \"#utility.yul\":2515:2521   */\n      0x00\n        /* \"#utility.yul\":2564:2566   */\n      0x20\n        /* \"#utility.yul\":2552:2561   */\n      dup3\n        /* \"#utility.yul\":2543:2550   */\n      dup5\n        /* \"#utility.yul\":2539:2562   */\n      sub\n        /* \"#utility.yul\":2535:2567   */\n      slt\n        /* \"#utility.yul\":2532:2651   */\n      iszero\n      tag_154\n      jumpi\n        /* \"#utility.yul\":2570:2649   */\n      tag_155\n      tag_103\n      jump\t// in\n    tag_155:\n        /* \"#utility.yul\":2532:2651   */\n    tag_154:\n        /* \"#utility.yul\":2690:2691   */\n      0x00\n        /* \"#utility.yul\":2715:2768   */\n      tag_156\n        /* \"#utility.yul\":2760:2767   */\n      dup5\n        /* \"#utility.yul\":2751:2757   */\n      dup3\n        /* \"#utility.yul\":2740:2749   */\n      dup6\n        /* \"#utility.yul\":2736:2758   */\n      add\n        /* \"#utility.yul\":2715:2768   */\n      tag_110\n      jump\t// in\n    tag_156:\n        /* \"#utility.yul\":2705:2768   */\n      swap2\n      pop\n        /* \"#utility.yul\":2661:2778   */\n      pop\n        /* \"#utility.yul\":2456:2785   */\n      swap3\n      swap2\n      pop\n      pop\n      jump\t// out\n        /* \"#utility.yul\":2791:3120   */\n    tag_39:\n        /* \"#utility.yul\":2850:2856   */\n      0x00\n        /* \"#utility.yul\":2899:2901   */\n      0x20\n        /* \"#utility.yul\":2887:2896   */\n      dup3\n        /* \"#utility.yul\":2878:2885   */\n      dup5\n        /* \"#utility.yul\":2874:2897   */\n      sub\n        /* \"#utility.yul\":2870:2902   */\n      slt\n        /* \"#utility.yul\":2867:2986   */\n      iszero\n      tag_158\n      jumpi\n        /* \"#utility.yul\":2905:2984   */\n      tag_159\n      tag_103\n      jump\t// in\n    tag_159:\n        /* \"#utility.yul\":2867:2986   */\n    tag_158:\n        /* \"#utility.yul\":3025:3026   */\n      0x00\n        /* \"#utility.yul\":3050:3103   */\n      tag_160\n        /* \"#utility.yul\":3095:3102   */\n      dup5\n        /* \"#utility.yul\":3086:3092   */\n      dup3\n        /* \"#utility.yul\":3075:3084   */\n      dup6\n        /* \"#utility.yul\":3071:3093   */\n      add\n        /* \"#utility.yul\":3050:3103   */\n      tag_108\n      jump\t// in\n    tag_160:\n        /* \"#utility.yul\":3040:3103   */\n      swap2\n      pop\n        /* \"#utility.yul\":2996:3113   */\n      pop\n        /* \"#utility.yul\":2791:3120   */\n      swap3\n      swap2\n      pop\n      pop\n      jump\t// out\n        /* \"#utility.yul\":3126:3306   */\n    tag_111:\n        /* \"#utility.yul\":3174:3251   */\n      0x4e487b7100000000000000000000000000000000000000000000000000000000\n        /* \"#utility.yul\":3171:3172   */\n      0x00\n        /* \"#utility.yul\":3164:3252   */\n      mstore\n        /* \"#utility.yul\":3271:3275   */\n      0x11\n        /* \"#utility.yul\":3268:3269   */\n      0x04\n        /* \"#utility.yul\":3261:3276   */\n      mstore\n        /* \"#utility.yul\":3295:3299   */\n      0x24\n        /* \"#utility.yul\":3292:3293   */\n      0x00\n        /* \"#utility.yul\":3285:3300   */\n      revert\n        /* \"#utility.yul\":3312:3506   */\n    tag_48:\n        /* \"#utility.yul\":3352:3356   */\n      0x00\n        /* \"#utility.yul\":3372:3392   */\n      tag_163\n        /* \"#utility.yul\":3390:3391   */\n      dup3\n        /* \"#utility.yul\":3372:3392   */\n      tag_98\n      jump\t// in\n    tag_163:\n        /* \"#utility.yul\":3367:3392   */\n      swap2\n      pop\n        /* \"#utility.yul\":3406:3426   */\n      tag_164\n        /* \"#utility.yul\":3424:3425   */\n      dup4\n        /* \"#utility.yul\":3406:3426   */\n      tag_98\n      jump\t// in\n    tag_164:\n        /* \"#utility.yul\":3401:3426   */\n      swap3\n      pop\n        /* \"#utility.yul\":3450:3451   */\n      dup3\n        /* \"#utility.yul\":3447:3448   */\n      dup3\n        /* \"#utility.yul\":3443:3452   */\n      sub\n        /* \"#utility.yul\":3435:3452   */\n      swap1\n      pop\n        /* \"#utility.yul\":3474:3475   */\n      dup2\n        /* \"#utility.yul\":3468:3472   */\n      dup2\n        /* \"#utility.yul\":3465:3476   */\n      gt\n        /* \"#utility.yul\":3462:3499   */\n      iszero\n      tag_165\n      jumpi\n        /* \"#utility.yul\":3479:3497   */\n      tag_166\n      tag_111\n      jump\t// in\n    tag_166:\n        /* \"#utility.yul\":3462:3499   */\n    tag_165:\n        /* \"#utility.yul\":3312:3506   */\n      swap3\n      swap2\n      pop\n      pop\n      jump\t// out\n        /* \"#utility.yul\":3512:3630   */\n    tag_112:\n        /* \"#utility.yul\":3599:3623   */\n      tag_168\n        /* \"#utility.yul\":3617:3622   */\n      dup2\n        /* \"#utility.yul\":3599:3623   */\n      tag_106\n      jump\t// in\n    tag_168:\n        /* \"#utility.yul\":3594:3597   */\n      dup3\n        /* \"#utility.yul\":3587:3624   */\n      mstore\n        /* \"#utility.yul\":3512:3630   */\n      pop\n      pop\n      jump\t// out\n        /* \"#utility.yul\":3636:3858   */\n    tag_52:\n        /* \"#utility.yul\":3729:3733   */\n      0x00\n        /* \"#utility.yul\":3767:3769   */\n      0x20\n        /* \"#utility.yul\":3756:3765   */\n      dup3\n        /* \"#utility.yul\":3752:3770   */\n      add\n        /* \"#utility.yul\":3744:3770   */\n      swap1\n      pop\n        /* \"#utility.yul\":3780:3851   */\n      tag_170\n        /* \"#utility.yul\":3848:3849   */\n      0x00\n        /* \"#utility.yul\":3837:3846   */\n      dup4\n        /* \"#utility.yul\":3833:3850   */\n      add\n        /* \"#utility.yul\":3824:3830   */\n      dup5\n        /* \"#utility.yul\":3780:3851   */\n      tag_112\n      jump\t// in\n    tag_170:\n        /* \"#utility.yul\":3636:3858   */\n      swap3\n      swap2\n      pop\n      pop\n      jump\t// out\n        /* \"#utility.yul\":3864:4417   */\n    tag_56:\n        /* \"#utility.yul\":4041:4045   */\n      0x00\n        /* \"#utility.yul\":4079:4082   */\n      0x80\n        /* \"#utility.yul\":4068:4077   */\n      dup3\n        /* \"#utility.yul\":4064:4083   */\n      add\n        /* \"#utility.yul\":4056:4083   */\n      swap1\n      pop\n        /* \"#utility.yul\":4093:4164   */\n      tag_172\n        /* \"#utility.yul\":4161:4162   */\n      0x00\n        /* \"#utility.yul\":4150:4159   */\n      dup4\n        /* \"#utility.yul\":4146:4163   */\n      add\n        /* \"#utility.yul\":4137:4143   */\n      dup8\n        /* \"#utility.yul\":4093:4164   */\n      tag_112\n      jump\t// in\n    tag_172:\n        /* \"#utility.yul\":4174:4246   */\n      tag_173\n        /* \"#utility.yul\":4242:4244   */\n      0x20\n        /* \"#utility.yul\":4231:4240   */\n      dup4\n        /* \"#utility.yul\":4227:4245   */\n      add\n        /* \"#utility.yul\":4218:4224   */\n      dup7\n        /* \"#utility.yul\":4174:4246   */\n      tag_99\n      jump\t// in\n    tag_173:\n        /* \"#utility.yul\":4256:4328   */\n      tag_174\n        /* \"#utility.yul\":4324:4326   */\n      0x40\n        /* \"#utility.yul\":4313:4322   */\n      dup4\n        /* \"#utility.yul\":4309:4327   */\n      add\n        /* \"#utility.yul\":4300:4306   */\n      dup6\n        /* \"#utility.yul\":4256:4328   */\n      tag_99\n      jump\t// in\n    tag_174:\n        /* \"#utility.yul\":4338:4410   */\n      tag_175\n        /* \"#utility.yul\":4406:4408   */\n      0x60\n        /* \"#utility.yul\":4395:4404   */\n      dup4\n        /* \"#utility.yul\":4391:4409   */\n      add\n        /* \"#utility.yul\":4382:4388   */\n      dup5\n        /* \"#utility.yul\":4338:4410   */\n      tag_99\n      jump\t// in\n    tag_175:\n        /* \"#utility.yul\":3864:4417   */\n      swap6\n      swap5\n      pop\n      pop\n      pop\n      pop\n      pop\n      jump\t// out\n        /* \"#utility.yul\":4423:4614   */\n    tag_58:\n        /* \"#utility.yul\":4463:4466   */\n      0x00\n        /* \"#utility.yul\":4482:4502   */\n      tag_177\n        /* \"#utility.yul\":4500:4501   */\n      dup3\n        /* \"#utility.yul\":4482:4502   */\n      tag_98\n      jump\t// in\n    tag_177:\n        /* \"#utility.yul\":4477:4502   */\n      swap2\n      pop\n        /* \"#utility.yul\":4516:4536   */\n      tag_178\n        /* \"#utility.yul\":4534:4535   */\n      dup4\n        /* \"#utility.yul\":4516:4536   */\n      tag_98\n      jump\t// in\n    tag_178:\n        /* \"#utility.yul\":4511:4536   */\n      swap3\n      pop\n        /* \"#utility.yul\":4559:4560   */\n      dup3\n        /* \"#utility.yul\":4556:4557   */\n      dup3\n        /* \"#utility.yul\":4552:4561   */\n      add\n        /* \"#utility.yul\":4545:4561   */\n      swap1\n      pop\n        /* \"#utility.yul\":4580:4583   */\n      dup1\n        /* \"#utility.yul\":4577:4578   */\n      dup3\n        /* \"#utility.yul\":4574:4584   */\n      gt\n        /* \"#utility.yul\":4571:4607   */\n      iszero\n      tag_179\n      jumpi\n        /* \"#utility.yul\":4587:4605   */\n      tag_180\n      tag_111\n      jump\t// in\n    tag_180:\n        /* \"#utility.yul\":4571:4607   */\n    tag_179:\n        /* \"#utility.yul\":4423:4614   */\n      swap3\n      swap2\n      pop\n      pop\n      jump\t// out\n        /* \"#utility.yul\":4620:5062   */\n    tag_60:\n        /* \"#utility.yul\":4769:4773   */\n      0x00\n        /* \"#utility.yul\":4807:4809   */\n      0x60\n        /* \"#utility.yul\":4796:4805   */\n      dup3\n        /* \"#utility.yul\":4792:4810   */\n      add\n        /* \"#utility.yul\":4784:4810   */\n      swap1\n      pop\n        /* \"#utility.yul\":4820:4891   */\n      tag_182\n        /* \"#utility.yul\":4888:4889   */\n      0x00\n        /* \"#utility.yul\":4877:4886   */\n      dup4\n        /* \"#utility.yul\":4873:4890   */\n      add\n        /* \"#utility.yul\":4864:4870   */\n      dup7\n        /* \"#utility.yul\":4820:4891   */\n      tag_112\n      jump\t// in\n    tag_182:\n        /* \"#utility.yul\":4901:4973   */\n      tag_183\n        /* \"#utility.yul\":4969:4971   */\n      0x20\n        /* \"#utility.yul\":4958:4967   */\n      dup4\n        /* \"#utility.yul\":4954:4972   */\n      add\n        /* \"#utility.yul\":4945:4951   */\n      dup6\n        /* \"#utility.yul\":4901:4973   */\n      tag_99\n      jump\t// in\n    tag_183:\n        /* \"#utility.yul\":4983:5055   */\n      tag_184\n        /* \"#utility.yul\":5051:5053   */\n      0x40\n        /* \"#utility.yul\":5040:5049   */\n      dup4\n        /* \"#utility.yul\":5036:5054   */\n      add\n        /* \"#utility.yul\":5027:5033   */\n      dup5\n        /* \"#utility.yul\":4983:5055   */\n      tag_99\n      jump\t// in\n    tag_184:\n        /* \"#utility.yul\":4620:5062   */\n      swap5\n      swap4\n      pop\n      pop\n      pop\n      pop\n      jump\t// out\n        /* \"#utility.yul\":5068:5215   */\n    tag_113:\n        /* \"#utility.yul\":5169:5180   */\n      0x00\n        /* \"#utility.yul\":5206:5209   */\n      dup2\n        /* \"#utility.yul\":5191:5209   */\n      swap1\n      pop\n        /* \"#utility.yul\":5068:5215   */\n      swap3\n      swap2\n      pop\n      pop\n      jump\t// out\n        /* \"#utility.yul\":5221:5335   */\n    tag_114:\n      pop\n      jump\t// out\n        /* \"#utility.yul\":5341:5739   */\n    tag_115:\n        /* \"#utility.yul\":5500:5503   */\n      0x00\n        /* \"#utility.yul\":5521:5604   */\n      tag_188\n        /* \"#utility.yul\":5602:5603   */\n      0x00\n        /* \"#utility.yul\":5597:5600   */\n      dup4\n        /* \"#utility.yul\":5521:5604   */\n      tag_113\n      jump\t// in\n    tag_188:\n        /* \"#utility.yul\":5514:5604   */\n      swap2\n      pop\n        /* \"#utility.yul\":5613:5706   */\n      tag_189\n        /* \"#utility.yul\":5702:5705   */\n      dup3\n        /* \"#utility.yul\":5613:5706   */\n      tag_114\n      jump\t// in\n    tag_189:\n        /* \"#utility.yul\":5731:5732   */\n      0x00\n        /* \"#utility.yul\":5726:5729   */\n      dup3\n        /* \"#utility.yul\":5722:5733   */\n      add\n        /* \"#utility.yul\":5715:5733   */\n      swap1\n      pop\n        /* \"#utility.yul\":5341:5739   */\n      swap2\n      swap1\n      pop\n      jump\t// out\n        /* \"#utility.yul\":5745:6124   */\n    tag_91:\n        /* \"#utility.yul\":5929:5932   */\n      0x00\n        /* \"#utility.yul\":5951:6098   */\n      tag_191\n        /* \"#utility.yul\":6094:6097   */\n      dup3\n        /* \"#utility.yul\":5951:6098   */\n      tag_115\n      jump\t// in\n    tag_191:\n        /* \"#utility.yul\":5944:6098   */\n      swap2\n      pop\n        /* \"#utility.yul\":6115:6118   */\n      dup2\n        /* \"#utility.yul\":6108:6118   */\n      swap1\n      pop\n        /* \"#utility.yul\":5745:6124   */\n      swap2\n      swap1\n      pop\n      jump\t// out\n        /* \"#utility.yul\":6130:6228   */\n    tag_116:\n        /* \"#utility.yul\":6181:6187   */\n      0x00\n        /* \"#utility.yul\":6215:6220   */\n      dup2\n        /* \"#utility.yul\":6209:6221   */\n      mload\n        /* \"#utility.yul\":6199:6221   */\n      swap1\n      pop\n        /* \"#utility.yul\":6130:6228   */\n      swap2\n      swap1\n      pop\n      jump\t// out\n        /* \"#utility.yul\":6234:6402   */\n    tag_117:\n        /* \"#utility.yul\":6317:6328   */\n      0x00\n        /* \"#utility.yul\":6351:6357   */\n      dup3\n        /* \"#utility.yul\":6346:6349   */\n      dup3\n        /* \"#utility.yul\":6339:6358   */\n      mstore\n        /* \"#utility.yul\":6391:6395   */\n      0x20\n        /* \"#utility.yul\":6386:6389   */\n      dup3\n        /* \"#utility.yul\":6382:6396   */\n      add\n        /* \"#utility.yul\":6367:6396   */\n      swap1\n      pop\n        /* \"#utility.yul\":6234:6402   */\n      swap3\n      swap2\n      pop\n      pop\n      jump\t// out\n        /* \"#utility.yul\":6408:6654   */\n    tag_118:\n        /* \"#utility.yul\":6489:6490   */\n      0x00\n        /* \"#utility.yul\":6499:6612   */\n    tag_195:\n        /* \"#utility.yul\":6513:6519   */\n      dup4\n        /* \"#utility.yul\":6510:6511   */\n      dup2\n        /* \"#utility.yul\":6507:6520   */\n      lt\n        /* \"#utility.yul\":6499:6612   */\n      iszero\n      tag_197\n      jumpi\n        /* \"#utility.yul\":6598:6599   */\n      dup1\n        /* \"#utility.yul\":6593:6596   */\n      dup3\n        /* \"#utility.yul\":6589:6600   */\n      add\n        /* \"#utility.yul\":6583:6601   */\n      mload\n        /* \"#utility.yul\":6579:6580   */\n      dup2\n        /* \"#utility.yul\":6574:6577   */\n      dup5\n        /* \"#utility.yul\":6570:6581   */\n      add\n        /* \"#utility.yul\":6563:6602   */\n      mstore\n        /* \"#utility.yul\":6535:6537   */\n      0x20\n        /* \"#utility.yul\":6532:6533   */\n      dup2\n        /* \"#utility.yul\":6528:6538   */\n      add\n        /* \"#utility.yul\":6523:6538   */\n      swap1\n      pop\n        /* \"#utility.yul\":6499:6612   */\n      jump(tag_195)\n    tag_197:\n        /* \"#utility.yul\":6646:6647   */\n      0x00\n        /* \"#utility.yul\":6637:6643   */\n      dup5\n        /* \"#utility.yul\":6632:6635   */\n      dup5\n        /* \"#utility.yul\":6628:6644   */\n      add\n        /* \"#utility.yul\":6621:6648   */\n      mstore\n        /* \"#utility.yul\":6470:6654   */\n      pop\n        /* \"#utility.yul\":6408:6654   */\n      pop\n      pop\n      pop\n      jump\t// out\n        /* \"#utility.yul\":6660:6762   */\n    tag_119:\n        /* \"#utility.yul\":6701:6707   */\n      0x00\n        /* \"#utility.yul\":6752:6754   */\n      0x1f\n        /* \"#utility.yul\":6748:6755   */\n      not\n        /* \"#utility.yul\":6743:6745   */\n      0x1f\n        /* \"#utility.yul\":6736:6741   */\n      dup4\n        /* \"#utility.yul\":6732:6746   */\n      add\n        /* \"#utility.yul\":6728:6756   */\n      and\n        /* \"#utility.yul\":6718:6756   */\n      swap1\n      pop\n        /* \"#utility.yul\":6660:6762   */\n      swap2\n      swap1\n      pop\n      jump\t// out\n        /* \"#utility.yul\":6768:7141   */\n    tag_120:\n        /* \"#utility.yul\":6854:6857   */\n      0x00\n        /* \"#utility.yul\":6882:6920   */\n      tag_200\n        /* \"#utility.yul\":6914:6919   */\n      dup3\n        /* \"#utility.yul\":6882:6920   */\n      tag_116\n      jump\t// in\n    tag_200:\n        /* \"#utility.yul\":6936:7006   */\n      tag_201\n        /* \"#utility.yul\":6999:7005   */\n      dup2\n        /* \"#utility.yul\":6994:6997   */\n      dup6\n        /* \"#utility.yul\":6936:7006   */\n      tag_117\n      jump\t// in\n    tag_201:\n        /* \"#utility.yul\":6929:7006   */\n      swap4\n      pop\n        /* \"#utility.yul\":7015:7080   */\n      tag_202\n        /* \"#utility.yul\":7073:7079   */\n      dup2\n        /* \"#utility.yul\":7068:7071   */\n      dup6\n        /* \"#utility.yul\":7061:7065   */\n      0x20\n        /* \"#utility.yul\":7054:7059   */\n      dup7\n        /* \"#utility.yul\":7050:7066   */\n      add\n        /* \"#utility.yul\":7015:7080   */\n      tag_118\n      jump\t// in\n    tag_202:\n        /* \"#utility.yul\":7105:7134   */\n      tag_203\n        /* \"#utility.yul\":7127:7133   */\n      dup2\n        /* \"#utility.yul\":7105:7134   */\n      tag_119\n      jump\t// in\n    tag_203:\n        /* \"#utility.yul\":7100:7103   */\n      dup5\n        /* \"#utility.yul\":7096:7135   */\n      add\n        /* \"#utility.yul\":7089:7135   */\n      swap2\n      pop\n        /* \"#utility.yul\":6858:7141   */\n      pop\n        /* \"#utility.yul\":6768:7141   */\n      swap3\n      swap2\n      pop\n      pop\n      jump\t// out\n        /* \"#utility.yul\":7147:7566   */\n    tag_97:\n        /* \"#utility.yul\":7286:7290   */\n      0x00\n        /* \"#utility.yul\":7324:7326   */\n      0x40\n        /* \"#utility.yul\":7313:7322   */\n      dup3\n        /* \"#utility.yul\":7309:7327   */\n      add\n        /* \"#utility.yul\":7301:7327   */\n      swap1\n      pop\n        /* \"#utility.yul\":7337:7408   */\n      tag_205\n        /* \"#utility.yul\":7405:7406   */\n      0x00\n        /* \"#utility.yul\":7394:7403   */\n      dup4\n        /* \"#utility.yul\":7390:7407   */\n      add\n        /* \"#utility.yul\":7381:7387   */\n      dup6\n        /* \"#utility.yul\":7337:7408   */\n      tag_112\n      jump\t// in\n    tag_205:\n        /* \"#utility.yul\":7455:7464   */\n      dup2\n        /* \"#utility.yul\":7449:7453   */\n      dup2\n        /* \"#utility.yul\":7445:7465   */\n      sub\n        /* \"#utility.yul\":7440:7442   */\n      0x20\n        /* \"#utility.yul\":7429:7438   */\n      dup4\n        /* \"#utility.yul\":7425:7443   */\n      add\n        /* \"#utility.yul\":7418:7466   */\n      mstore\n        /* \"#utility.yul\":7483:7559   */\n      tag_206\n        /* \"#utility.yul\":7554:7558   */\n      dup2\n        /* \"#utility.yul\":7545:7551   */\n      dup5\n        /* \"#utility.yul\":7483:7559   */\n      tag_120\n      jump\t// in\n    tag_206:\n        /* \"#utility.yul\":7475:7559   */\n      swap1\n      pop\n        /* \"#utility.yul\":7147:7566   */\n      swap4\n      swap3\n      pop\n      pop\n      pop\n      jump\t// out\n\n    auxdata: 0xa2646970667358221220ff1967be894333be509435cd1f9b5aab46654324b49f1dcbe3d4d11cd5437a2064736f6c63430008140033\n}\n",
				"bytecode": {
					"linkReferences": {},
					"object": "60c060405234801561000f575f80fd5b50604051610ea4380380610ea4833981810160405281019061003191906100c3565b3373ffffffffffffffffffffffffffffffffffffffff1660808173ffffffffffffffffffffffffffffffffffffffff16815250506001805f6101000a81548160ff0219169083151502179055508060a08181525050506100ee565b5f80fd5b5f819050919050565b6100a281610090565b81146100ac575f80fd5b50565b5f815190506100bd81610099565b92915050565b5f602082840312156100d8576100d761008c565b5b5f6100e5848285016100af565b91505092915050565b60805160a051610d7961012b5f395f81816101ac015281816102300152818161025b015261062c01525f818161039e01526105020152610d795ff3fe60806040526004361061007a575f3560e01c8063c2b2dd0f1161004d578063c2b2dd0f146100f2578063cdf92c511461011a578063e3d670d714610142578063ecbea24d1461017e5761007a565b80630295d71b1461007e5780634a7ba7d6146100a85780636252db32146100b25780638f5949f9146100c8575b5f80fd5b348015610089575f80fd5b506100926101a8565b60405161009f91906109af565b60405180910390f35b6100b06101da565b005b3480156100bd575f80fd5b506100c6610385565b005b3480156100d3575f80fd5b506100dc610484565b6040516100e991906109e2565b60405180910390f35b3480156100fd575f80fd5b5061011860048036038101906101139190610a83565b610499565b005b348015610125575f80fd5b50610140600480360381019061013b9190610ac1565b610587565b005b34801561014d575f80fd5b5061016860048036038101906101639190610aec565b6105e4565b60405161017591906109af565b60405180910390f35b348015610189575f80fd5b50610192610629565b60405161019f91906109af565b60405180910390f35b5f477f00000000000000000000000000000000000000000000000000000000000000006101d59190610b44565b905090565b60015f9054906101000a900460ff1661022a57336040517f6769df4f0000000000000000000000000000000000000000000000000000000081526004016102219190610b86565b60405180910390fd5b5f4790507f00000000000000000000000000000000000000000000000000000000000000008111156102b9573334827f00000000000000000000000000000000000000000000000000000000000000006040517fbd8346e50000000000000000000000000000000000000000000000000000000081526004016102b09493929190610b9f565b60405180910390fd5b345f803373ffffffffffffffffffffffffffffffffffffffff1673ffffffffffffffffffffffffffffffffffffffff1681526020019081526020015f205f8282546103049190610be2565b925050819055507f564a88d09454cb949119782721636bab5e9d20e52ce5b8f74167a2752d794fec33345f803373ffffffffffffffffffffffffffffffffffffffff1673ffffffffffffffffffffffffffffffffffffffff1681526020019081526020015f205460405161037a93929190610c15565b60405180910390a150565b3373ffffffffffffffffffffffffffffffffffffffff167f000000000000000000000000000000000000000000000000000000000000000073ffffffffffffffffffffffffffffffffffffffff161461041557336040517fa096967c00000000000000000000000000000000000000000000000000000000815260040161040c9190610b86565b60405180910390fd5b60015f9054906101000a900460ff161560015f6101000a81548160ff0219169083151502179055507ff99b96adca25fb6b5f18efcd55fb526ce79dfd548d90e14b4e3aaa8e3f5a5e6d60015f9054906101000a900460ff1660405161047a91906109e2565b60405180910390a1565b5f60015f9054906101000a900460ff16905090565b60015f9054906101000a900460ff166104e957336040517f6769df4f0000000000000000000000000000000000000000000000000000000081526004016104e09190610b86565b60405180910390fd5b3373ffffffffffffffffffffffffffffffffffffffff167f000000000000000000000000000000000000000000000000000000000000000073ffffffffffffffffffffffffffffffffffffffff161461057957336040517fa096967c0000000000000000000000000000000000000000000000000000000081526004016105709190610b86565b60405180910390fd5b6105838282610650565b5050565b60015f9054906101000a900460ff166105d757336040517f6769df4f0000000000000000000000000000000000000000000000000000000081526004016105ce9190610b86565b60405180910390fd5b6105e13382610650565b50565b5f805f8373ffffffffffffffffffffffffffffffffffffffff1673ffffffffffffffffffffffffffffffffffffffff1681526020019081526020015f20549050919050565b5f7f0000000000000000000000000000000000000000000000000000000000000000905090565b5f73ffffffffffffffffffffffffffffffffffffffff168273ffffffffffffffffffffffffffffffffffffffff16036107005781815f808573ffffffffffffffffffffffffffffffffffffffff1673ffffffffffffffffffffffffffffffffffffffff1681526020019081526020015f20546040517ff46664a50000000000000000000000000000000000000000000000000000000081526004016106f793929190610c15565b60405180910390fd5b67d02ab486cedc000081111561075957818167d02ab486cedc00006040517ff046c68500000000000000000000000000000000000000000000000000000000815260040161075093929190610c15565b60405180910390fd5b5f808373ffffffffffffffffffffffffffffffffffffffff1673ffffffffffffffffffffffffffffffffffffffff1681526020019081526020015f205481111561081a5781815f808573ffffffffffffffffffffffffffffffffffffffff1673ffffffffffffffffffffffffffffffffffffffff1681526020019081526020015f20546040517f9149188400000000000000000000000000000000000000000000000000000000815260040161081193929190610c15565b60405180910390fd5b805f808473ffffffffffffffffffffffffffffffffffffffff1673ffffffffffffffffffffffffffffffffffffffff1681526020019081526020015f205f8282546108659190610b44565b925050819055507ffb9d45a4c4e0c9731e23b6b4b205d9bc6a36c8719c5200db0626fd91a33cb0f782825f808673ffffffffffffffffffffffffffffffffffffffff1673ffffffffffffffffffffffffffffffffffffffff1681526020019081526020015f20546040516108db93929190610c15565b60405180910390a15f808373ffffffffffffffffffffffffffffffffffffffff168360405161090990610c77565b5f6040518083038185875af1925050503d805f8114610943576040519150601f19603f3d011682016040523d82523d5f602084013e610948565b606091505b5091509150816109915783816040517f47560346000000000000000000000000000000000000000000000000000000008152600401610988929190610d15565b60405180910390fd5b50505050565b5f819050919050565b6109a981610997565b82525050565b5f6020820190506109c25f8301846109a0565b92915050565b5f8115159050919050565b6109dc816109c8565b82525050565b5f6020820190506109f55f8301846109d3565b92915050565b5f80fd5b5f73ffffffffffffffffffffffffffffffffffffffff82169050919050565b5f610a28826109ff565b9050919050565b610a3881610a1e565b8114610a42575f80fd5b50565b5f81359050610a5381610a2f565b92915050565b610a6281610997565b8114610a6c575f80fd5b50565b5f81359050610a7d81610a59565b92915050565b5f8060408385031215610a9957610a986109fb565b5b5f610aa685828601610a45565b9250506020610ab785828601610a6f565b9150509250929050565b5f60208284031215610ad657610ad56109fb565b5b5f610ae384828501610a6f565b91505092915050565b5f60208284031215610b0157610b006109fb565b5b5f610b0e84828501610a45565b91505092915050565b7f4e487b71000000000000000000000000000000000000000000000000000000005f52601160045260245ffd5b5f610b4e82610997565b9150610b5983610997565b9250828203905081811115610b7157610b70610b17565b5b92915050565b610b8081610a1e565b82525050565b5f602082019050610b995f830184610b77565b92915050565b5f608082019050610bb25f830187610b77565b610bbf60208301866109a0565b610bcc60408301856109a0565b610bd960608301846109a0565b95945050505050565b5f610bec82610997565b9150610bf783610997565b9250828201905080821115610c0f57610c0e610b17565b5b92915050565b5f606082019050610c285f830186610b77565b610c3560208301856109a0565b610c4260408301846109a0565b949350505050565b5f81905092915050565b50565b5f610c625f83610c4a565b9150610c6d82610c54565b5f82019050919050565b5f610c8182610c57565b9150819050919050565b5f81519050919050565b5f82825260208201905092915050565b5f5b83811015610cc2578082015181840152602081019050610ca7565b5f8484015250505050565b5f601f19601f8301169050919050565b5f610ce782610c8b565b610cf18185610c95565b9350610d01818560208601610ca5565b610d0a81610ccd565b840191505092915050565b5f604082019050610d285f830185610b77565b8181036020830152610d3a8184610cdd565b9050939250505056fea2646970667358221220ff1967be894333be509435cd1f9b5aab46654324b49f1dcbe3d4d11cd5437a2064736f6c63430008140033",
					"opcodes": "PUSH1 0xC0 PUSH1 0x40 MSTORE CALLVALUE DUP1 ISZERO PUSH2 0xF JUMPI PUSH0 DUP1 REVERT JUMPDEST POP PUSH1 0x40 MLOAD PUSH2 0xEA4 CODESIZE SUB DUP1 PUSH2 0xEA4 DUP4 CODECOPY DUP2 DUP2 ADD PUSH1 0x40 MSTORE DUP2 ADD SWAP1 PUSH2 0x31 SWAP2 SWAP1 PUSH2 0xC3 JUMP JUMPDEST CALLER PUSH20 0xFFFFFFFFFFFFFFFFFFFFFFFFFFFFFFFFFFFFFFFF AND PUSH1 0x80 DUP2 PUSH20 0xFFFFFFFFFFFFFFFFFFFFFFFFFFFFFFFFFFFFFFFF AND DUP2 MSTORE POP POP PUSH1 0x1 DUP1 PUSH0 PUSH2 0x100 EXP DUP2 SLOAD DUP2 PUSH1 0xFF MUL NOT AND SWAP1 DUP4 ISZERO ISZERO MUL OR SWAP1 SSTORE POP DUP1 PUSH1 0xA0 DUP2 DUP2 MSTORE POP POP POP PUSH2 0xEE JUMP JUMPDEST PUSH0 DUP1 REVERT JUMPDEST PUSH0 DUP2 SWAP1 POP SWAP2 SWAP1 POP JUMP JUMPDEST PUSH2 0xA2 DUP2 PUSH2 0x90 JUMP JUMPDEST DUP2 EQ PUSH2 0xAC JUMPI PUSH0 DUP1 REVERT JUMPDEST POP JUMP JUMPDEST PUSH0 DUP2 MLOAD SWAP1 POP PUSH2 0xBD DUP2 PUSH2 0x99 JUMP JUMPDEST SWAP3 SWAP2 POP POP JUMP JUMPDEST PUSH0 PUSH1 0x20 DUP3 DUP5 SUB SLT ISZERO PUSH2 0xD8 JUMPI PUSH2 0xD7 PUSH2 0x8C JUMP JUMPDEST JUMPDEST PUSH0 PUSH2 0xE5 DUP5 DUP3 DUP6 ADD PUSH2 0xAF JUMP JUMPDEST SWAP2 POP POP SWAP3 SWAP2 POP POP JUMP JUMPDEST PUSH1 0x80 MLOAD PUSH1 0xA0 MLOAD PUSH2 0xD79 PUSH2 0x12B PUSH0 CODECOPY PUSH0 DUP2 DUP2 PUSH2 0x1AC ADD MSTORE DUP2 DUP2 PUSH2 0x230 ADD MSTORE DUP2 DUP2 PUSH2 0x25B ADD MSTORE PUSH2 0x62C ADD MSTORE PUSH0 DUP2 DUP2 PUSH2 0x39E ADD MSTORE PUSH2 0x502 ADD MSTORE PUSH2 0xD79 PUSH0 RETURN INVALID PUSH1 0x80 PUSH1 0x40 MSTORE PUSH1 0x4 CALLDATASIZE LT PUSH2 0x7A JUMPI PUSH0 CALLDATALOAD PUSH1 0xE0 SHR DUP1 PUSH4 0xC2B2DD0F GT PUSH2 0x4D JUMPI DUP1 PUSH4 0xC2B2DD0F EQ PUSH2 0xF2 JUMPI DUP1 PUSH4 0xCDF92C51 EQ PUSH2 0x11A JUMPI DUP1 PUSH4 0xE3D670D7 EQ PUSH2 0x142 JUMPI DUP1 PUSH4 0xECBEA24D EQ PUSH2 0x17E JUMPI PUSH2 0x7A JUMP JUMPDEST DUP1 PUSH4 0x295D71B EQ PUSH2 0x7E JUMPI DUP1 PUSH4 0x4A7BA7D6 EQ PUSH2 0xA8 JUMPI DUP1 PUSH4 0x6252DB32 EQ PUSH2 0xB2 JUMPI DUP1 PUSH4 0x8F5949F9 EQ PUSH2 0xC8 JUMPI JUMPDEST PUSH0 DUP1 REVERT JUMPDEST CALLVALUE DUP1 ISZERO PUSH2 0x89 JUMPI PUSH0 DUP1 REVERT JUMPDEST POP PUSH2 0x92 PUSH2 0x1A8 JUMP JUMPDEST PUSH1 0x40 MLOAD PUSH2 0x9F SWAP2 SWAP1 PUSH2 0x9AF JUMP JUMPDEST PUSH1 0x40 MLOAD DUP1 SWAP2 SUB SWAP1 RETURN JUMPDEST PUSH2 0xB0 PUSH2 0x1DA JUMP JUMPDEST STOP JUMPDEST CALLVALUE DUP1 ISZERO PUSH2 0xBD JUMPI PUSH0 DUP1 REVERT JUMPDEST POP PUSH2 0xC6 PUSH2 0x385 JUMP JUMPDEST STOP JUMPDEST CALLVALUE DUP1 ISZERO PUSH2 0xD3 JUMPI PUSH0 DUP1 REVERT JUMPDEST POP PUSH2 0xDC PUSH2 0x484 JUMP JUMPDEST PUSH1 0x40 MLOAD PUSH2 0xE9 SWAP2 SWAP1 PUSH2 0x9E2 JUMP JUMPDEST PUSH1 0x40 MLOAD DUP1 SWAP2 SUB SWAP1 RETURN JUMPDEST CALLVALUE DUP1 ISZERO PUSH2 0xFD JUMPI PUSH0 DUP1 REVERT JUMPDEST POP PUSH2 0x118 PUSH1 0x4 DUP1 CALLDATASIZE SUB DUP2 ADD SWAP1 PUSH2 0x113 SWAP2 SWAP1 PUSH2 0xA83 JUMP JUMPDEST PUSH2 0x499 JUMP JUMPDEST STOP JUMPDEST CALLVALUE DUP1 ISZERO PUSH2 0x125 JUMPI PUSH0 DUP1 REVERT JUMPDEST POP PUSH2 0x140 PUSH1 0x4 DUP1 CALLDATASIZE SUB DUP2 ADD SWAP1 PUSH2 0x13B SWAP2 SWAP1 PUSH2 0xAC1 JUMP JUMPDEST PUSH2 0x587 JUMP JUMPDEST STOP JUMPDEST CALLVALUE DUP1 ISZERO PUSH2 0x14D JUMPI PUSH0 DUP1 REVERT JUMPDEST POP PUSH2 0x168 PUSH1 0x4 DUP1 CALLDATASIZE SUB DUP2 ADD SWAP1 PUSH2 0x163 SWAP2 SWAP1 PUSH2 0xAEC JUMP JUMPDEST PUSH2 0x5E4 JUMP JUMPDEST PUSH1 0x40 MLOAD PUSH2 0x175 SWAP2 SWAP1 PUSH2 0x9AF JUMP JUMPDEST PUSH1 0x40 MLOAD DUP1 SWAP2 SUB SWAP1 RETURN JUMPDEST CALLVALUE DUP1 ISZERO PUSH2 0x189 JUMPI PUSH0 DUP1 REVERT JUMPDEST POP PUSH2 0x192 PUSH2 0x629 JUMP JUMPDEST PUSH1 0x40 MLOAD PUSH2 0x19F SWAP2 SWAP1 PUSH2 0x9AF JUMP JUMPDEST PUSH1 0x40 MLOAD DUP1 SWAP2 SUB SWAP1 RETURN JUMPDEST PUSH0 SELFBALANCE PUSH32 0x0 PUSH2 0x1D5 SWAP2 SWAP1 PUSH2 0xB44 JUMP JUMPDEST SWAP1 POP SWAP1 JUMP JUMPDEST PUSH1 0x1 PUSH0 SWAP1 SLOAD SWAP1 PUSH2 0x100 EXP SWAP1 DIV PUSH1 0xFF AND PUSH2 0x22A JUMPI CALLER PUSH1 0x40 MLOAD PUSH32 0x6769DF4F00000000000000000000000000000000000000000000000000000000 DUP2 MSTORE PUSH1 0x4 ADD PUSH2 0x221 SWAP2 SWAP1 PUSH2 0xB86 JUMP JUMPDEST PUSH1 0x40 MLOAD DUP1 SWAP2 SUB SWAP1 REVERT JUMPDEST PUSH0 SELFBALANCE SWAP1 POP PUSH32 0x0 DUP2 GT ISZERO PUSH2 0x2B9 JUMPI CALLER CALLVALUE DUP3 PUSH32 0x0 PUSH1 0x40 MLOAD PUSH32 0xBD8346E500000000000000000000000000000000000000000000000000000000 DUP2 MSTORE PUSH1 0x4 ADD PUSH2 0x2B0 SWAP5 SWAP4 SWAP3 SWAP2 SWAP1 PUSH2 0xB9F JUMP JUMPDEST PUSH1 0x40 MLOAD DUP1 SWAP2 SUB SWAP1 REVERT JUMPDEST CALLVALUE PUSH0 DUP1 CALLER PUSH20 0xFFFFFFFFFFFFFFFFFFFFFFFFFFFFFFFFFFFFFFFF AND PUSH20 0xFFFFFFFFFFFFFFFFFFFFFFFFFFFFFFFFFFFFFFFF AND DUP2 MSTORE PUSH1 0x20 ADD SWAP1 DUP2 MSTORE PUSH1 0x20 ADD PUSH0 KECCAK256 PUSH0 DUP3 DUP3 SLOAD PUSH2 0x304 SWAP2 SWAP1 PUSH2 0xBE2 JUMP JUMPDEST SWAP3 POP POP DUP2 SWAP1 SSTORE POP PUSH32 0x564A88D09454CB949119782721636BAB5E9D20E52CE5B8F74167A2752D794FEC CALLER CALLVALUE PUSH0 DUP1 CALLER PUSH20 0xFFFFFFFFFFFFFFFFFFFFFFFFFFFFFFFFFFFFFFFF AND PUSH20 0xFFFFFFFFFFFFFFFFFFFFFFFFFFFFFFFFFFFFFFFF AND DUP2 MSTORE PUSH1 0x20 ADD SWAP1 DUP2 MSTORE PUSH1 0x20 ADD PUSH0 KECCAK256 SLOAD PUSH1 0x40 MLOAD PUSH2 0x37A SWAP4 SWAP3 SWAP2 SWAP1 PUSH2 0xC15 JUMP JUMPDEST PUSH1 0x40 MLOAD DUP1 SWAP2 SUB SWAP1 LOG1 POP JUMP JUMPDEST CALLER PUSH20 0xFFFFFFFFFFFFFFFFFFFFFFFFFFFFFFFFFFFFFFFF AND PUSH32 0x0 PUSH20 0xFFFFFFFFFFFFFFFFFFFFFFFFFFFFFFFFFFFFFFFF AND EQ PUSH2 0x415 JUMPI CALLER PUSH1 0x40 MLOAD PUSH32 0xA096967C00000000000000000000000000000000000000000000000000000000 DUP2 MSTORE PUSH1 0x4 ADD PUSH2 0x40C SWAP2 SWAP1 PUSH2 0xB86 JUMP JUMPDEST PUSH1 0x40 MLOAD DUP1 SWAP2 SUB SWAP1 REVERT JUMPDEST PUSH1 0x1 PUSH0 SWAP1 SLOAD SWAP1 PUSH2 0x100 EXP SWAP1 DIV PUSH1 0xFF AND ISZERO PUSH1 0x1 PUSH0 PUSH2 0x100 EXP DUP2 SLOAD DUP2 PUSH1 0xFF MUL NOT AND SWAP1 DUP4 ISZERO ISZERO MUL OR SWAP1 SSTORE POP PUSH32 0xF99B96ADCA25FB6B5F18EFCD55FB526CE79DFD548D90E14B4E3AAA8E3F5A5E6D PUSH1 0x1 PUSH0 SWAP1 SLOAD SWAP1 PUSH2 0x100 EXP SWAP1 DIV PUSH1 0xFF AND PUSH1 0x40 MLOAD PUSH2 0x47A SWAP2 SWAP1 PUSH2 0x9E2 JUMP JUMPDEST PUSH1 0x40 MLOAD DUP1 SWAP2 SUB SWAP1 LOG1 JUMP JUMPDEST PUSH0 PUSH1 0x1 PUSH0 SWAP1 SLOAD SWAP1 PUSH2 0x100 EXP SWAP1 DIV PUSH1 0xFF AND SWAP1 POP SWAP1 JUMP JUMPDEST PUSH1 0x1 PUSH0 SWAP1 SLOAD SWAP1 PUSH2 0x100 EXP SWAP1 DIV PUSH1 0xFF AND PUSH2 0x4E9 JUMPI CALLER PUSH1 0x40 MLOAD PUSH32 0x6769DF4F00000000000000000000000000000000000000000000000000000000 DUP2 MSTORE PUSH1 0x4 ADD PUSH2 0x4E0 SWAP2 SWAP1 PUSH2 0xB86 JUMP JUMPDEST PUSH1 0x40 MLOAD DUP1 SWAP2 SUB SWAP1 REVERT JUMPDEST CALLER PUSH20 0xFFFFFFFFFFFFFFFFFFFFFFFFFFFFFFFFFFFFFFFF AND PUSH32 0x0 PUSH20 0xFFFFFFFFFFFFFFFFFFFFFFFFFFFFFFFFFFFFFFFF AND EQ PUSH2 0x579 JUMPI CALLER PUSH1 0x40 MLOAD PUSH32 0xA096967C00000000000000000000000000000000000000000000000000000000 DUP2 MSTORE PUSH1 0x4 ADD PUSH2 0x570 SWAP2 SWAP1 PUSH2 0xB86 JUMP JUMPDEST PUSH1 0x40 MLOAD DUP1 SWAP2 SUB SWAP1 REVERT JUMPDEST PUSH2 0x583 DUP3 DUP3 PUSH2 0x650 JUMP JUMPDEST POP POP JUMP JUMPDEST PUSH1 0x1 PUSH0 SWAP1 SLOAD SWAP1 PUSH2 0x100 EXP SWAP1 DIV PUSH1 0xFF AND PUSH2 0x5D7 JUMPI CALLER PUSH1 0x40 MLOAD PUSH32 0x6769DF4F00000000000000000000000000000000000000000000000000000000 DUP2 MSTORE PUSH1 0x4 ADD PUSH2 0x5CE SWAP2 SWAP1 PUSH2 0xB86 JUMP JUMPDEST PUSH1 0x40 MLOAD DUP1 SWAP2 SUB SWAP1 REVERT JUMPDEST PUSH2 0x5E1 CALLER DUP3 PUSH2 0x650 JUMP JUMPDEST POP JUMP JUMPDEST PUSH0 DUP1 PUSH0 DUP4 PUSH20 0xFFFFFFFFFFFFFFFFFFFFFFFFFFFFFFFFFFFFFFFF AND PUSH20 0xFFFFFFFFFFFFFFFFFFFFFFFFFFFFFFFFFFFFFFFF AND DUP2 MSTORE PUSH1 0x20 ADD SWAP1 DUP2 MSTORE PUSH1 0x20 ADD PUSH0 KECCAK256 SLOAD SWAP1 POP SWAP2 SWAP1 POP JUMP JUMPDEST PUSH0 PUSH32 0x0 SWAP1 POP SWAP1 JUMP JUMPDEST PUSH0 PUSH20 0xFFFFFFFFFFFFFFFFFFFFFFFFFFFFFFFFFFFFFFFF AND DUP3 PUSH20 0xFFFFFFFFFFFFFFFFFFFFFFFFFFFFFFFFFFFFFFFF AND SUB PUSH2 0x700 JUMPI DUP2 DUP2 PUSH0 DUP1 DUP6 PUSH20 0xFFFFFFFFFFFFFFFFFFFFFFFFFFFFFFFFFFFFFFFF AND PUSH20 0xFFFFFFFFFFFFFFFFFFFFFFFFFFFFFFFFFFFFFFFF AND DUP2 MSTORE PUSH1 0x20 ADD SWAP1 DUP2 MSTORE PUSH1 0x20 ADD PUSH0 KECCAK256 SLOAD PUSH1 0x40 MLOAD PUSH32 0xF46664A500000000000000000000000000000000000000000000000000000000 DUP2 MSTORE PUSH1 0x4 ADD PUSH2 0x6F7 SWAP4 SWAP3 SWAP2 SWAP1 PUSH2 0xC15 JUMP JUMPDEST PUSH1 0x40 MLOAD DUP1 SWAP2 SUB SWAP1 REVERT JUMPDEST PUSH8 0xD02AB486CEDC0000 DUP2 GT ISZERO PUSH2 0x759 JUMPI DUP2 DUP2 PUSH8 0xD02AB486CEDC0000 PUSH1 0x40 MLOAD PUSH32 0xF046C68500000000000000000000000000000000000000000000000000000000 DUP2 MSTORE PUSH1 0x4 ADD PUSH2 0x750 SWAP4 SWAP3 SWAP2 SWAP1 PUSH2 0xC15 JUMP JUMPDEST PUSH1 0x40 MLOAD DUP1 SWAP2 SUB SWAP1 REVERT JUMPDEST PUSH0 DUP1 DUP4 PUSH20 0xFFFFFFFFFFFFFFFFFFFFFFFFFFFFFFFFFFFFFFFF AND PUSH20 0xFFFFFFFFFFFFFFFFFFFFFFFFFFFFFFFFFFFFFFFF AND DUP2 MSTORE PUSH1 0x20 ADD SWAP1 DUP2 MSTORE PUSH1 0x20 ADD PUSH0 KECCAK256 SLOAD DUP2 GT ISZERO PUSH2 0x81A JUMPI DUP2 DUP2 PUSH0 DUP1 DUP6 PUSH20 0xFFFFFFFFFFFFFFFFFFFFFFFFFFFFFFFFFFFFFFFF AND PUSH20 0xFFFFFFFFFFFFFFFFFFFFFFFFFFFFFFFFFFFFFFFF AND DUP2 MSTORE PUSH1 0x20 ADD SWAP1 DUP2 MSTORE PUSH1 0x20 ADD PUSH0 KECCAK256 SLOAD PUSH1 0x40 MLOAD PUSH32 0x9149188400000000000000000000000000000000000000000000000000000000 DUP2 MSTORE PUSH1 0x4 ADD PUSH2 0x811 SWAP4 SWAP3 SWAP2 SWAP1 PUSH2 0xC15 JUMP JUMPDEST PUSH1 0x40 MLOAD DUP1 SWAP2 SUB SWAP1 REVERT JUMPDEST DUP1 PUSH0 DUP1 DUP5 PUSH20 0xFFFFFFFFFFFFFFFFFFFFFFFFFFFFFFFFFFFFFFFF AND PUSH20 0xFFFFFFFFFFFFFFFFFFFFFFFFFFFFFFFFFFFFFFFF AND DUP2 MSTORE PUSH1 0x20 ADD SWAP1 DUP2 MSTORE PUSH1 0x20 ADD PUSH0 KECCAK256 PUSH0 DUP3 DUP3 SLOAD PUSH2 0x865 SWAP2 SWAP1 PUSH2 0xB44 JUMP JUMPDEST SWAP3 POP POP DUP2 SWAP1 SSTORE POP PUSH32 0xFB9D45A4C4E0C9731E23B6B4B205D9BC6A36C8719C5200DB0626FD91A33CB0F7 DUP3 DUP3 PUSH0 DUP1 DUP7 PUSH20 0xFFFFFFFFFFFFFFFFFFFFFFFFFFFFFFFFFFFFFFFF AND PUSH20 0xFFFFFFFFFFFFFFFFFFFFFFFFFFFFFFFFFFFFFFFF AND DUP2 MSTORE PUSH1 0x20 ADD SWAP1 DUP2 MSTORE PUSH1 0x20 ADD PUSH0 KECCAK256 SLOAD PUSH1 0x40 MLOAD PUSH2 0x8DB SWAP4 SWAP3 SWAP2 SWAP1 PUSH2 0xC15 JUMP JUMPDEST PUSH1 0x40 MLOAD DUP1 SWAP2 SUB SWAP1 LOG1 PUSH0 DUP1 DUP4 PUSH20 0xFFFFFFFFFFFFFFFFFFFFFFFFFFFFFFFFFFFFFFFF AND DUP4 PUSH1 0x40 MLOAD PUSH2 0x909 SWAP1 PUSH2 0xC77 JUMP JUMPDEST PUSH0 PUSH1 0x40 MLOAD DUP1 DUP4 SUB DUP2 DUP6 DUP8 GAS CALL SWAP3 POP POP POP RETURNDATASIZE DUP1 PUSH0 DUP2 EQ PUSH2 0x943 JUMPI PUSH1 0x40 MLOAD SWAP2 POP PUSH1 0x1F NOT PUSH1 0x3F RETURNDATASIZE ADD AND DUP3 ADD PUSH1 0x40 MSTORE RETURNDATASIZE DUP3 MSTORE RETURNDATASIZE PUSH0 PUSH1 0x20 DUP5 ADD RETURNDATACOPY PUSH2 0x948 JUMP JUMPDEST PUSH1 0x60 SWAP2 POP JUMPDEST POP SWAP2 POP SWAP2 POP DUP2 PUSH2 0x991 JUMPI DUP4 DUP2 PUSH1 0x40 MLOAD PUSH32 0x4756034600000000000000000000000000000000000000000000000000000000 DUP2 MSTORE PUSH1 0x4 ADD PUSH2 0x988 SWAP3 SWAP2 SWAP1 PUSH2 0xD15 JUMP JUMPDEST PUSH1 0x40 MLOAD DUP1 SWAP2 SUB SWAP1 REVERT JUMPDEST POP POP POP POP JUMP JUMPDEST PUSH0 DUP2 SWAP1 POP SWAP2 SWAP1 POP JUMP JUMPDEST PUSH2 0x9A9 DUP2 PUSH2 0x997 JUMP JUMPDEST DUP3 MSTORE POP POP JUMP JUMPDEST PUSH0 PUSH1 0x20 DUP3 ADD SWAP1 POP PUSH2 0x9C2 PUSH0 DUP4 ADD DUP5 PUSH2 0x9A0 JUMP JUMPDEST SWAP3 SWAP2 POP POP JUMP JUMPDEST PUSH0 DUP2 ISZERO ISZERO SWAP1 POP SWAP2 SWAP1 POP JUMP JUMPDEST PUSH2 0x9DC DUP2 PUSH2 0x9C8 JUMP JUMPDEST DUP3 MSTORE POP POP JUMP JUMPDEST PUSH0 PUSH1 0x20 DUP3 ADD SWAP1 POP PUSH2 0x9F5 PUSH0 DUP4 ADD DUP5 PUSH2 0x9D3 JUMP JUMPDEST SWAP3 SWAP2 POP POP JUMP JUMPDEST PUSH0 DUP1 REVERT JUMPDEST PUSH0 PUSH20 0xFFFFFFFFFFFFFFFFFFFFFFFFFFFFFFFFFFFFFFFF DUP3 AND SWAP1 POP SWAP2 SWAP1 POP JUMP JUMPDEST PUSH0 PUSH2 0xA28 DUP3 PUSH2 0x9FF JUMP JUMPDEST SWAP1 POP SWAP2 SWAP1 POP JUMP JUMPDEST PUSH2 0xA38 DUP2 PUSH2 0xA1E JUMP JUMPDEST DUP2 EQ PUSH2 0xA42 JUMPI PUSH0 DUP1 REVERT JUMPDEST POP JUMP JUMPDEST PUSH0 DUP2 CALLDATALOAD SWAP1 POP PUSH2 0xA53 DUP2 PUSH2 0xA2F JUMP JUMPDEST SWAP3 SWAP2 POP POP JUMP JUMPDEST PUSH2 0xA62 DUP2 PUSH2 0x997 JUMP JUMPDEST DUP2 EQ PUSH2 0xA6C JUMPI PUSH0 DUP1 REVERT JUMPDEST POP JUMP JUMPDEST PUSH0 DUP2 CALLDATALOAD SWAP1 POP PUSH2 0xA7D DUP2 PUSH2 0xA59 JUMP JUMPDEST SWAP3 SWAP2 POP POP JUMP JUMPDEST PUSH0 DUP1 PUSH1 0x40 DUP4 DUP6 SUB SLT ISZERO PUSH2 0xA99 JUMPI PUSH2 0xA98 PUSH2 0x9FB JUMP JUMPDEST JUMPDEST PUSH0 PUSH2 0xAA6 DUP6 DUP3 DUP7 ADD PUSH2 0xA45 JUMP JUMPDEST SWAP3 POP POP PUSH1 0x20 PUSH2 0xAB7 DUP6 DUP3 DUP7 ADD PUSH2 0xA6F JUMP JUMPDEST SWAP2 POP POP SWAP3 POP SWAP3 SWAP1 POP JUMP JUMPDEST PUSH0 PUSH1 0x20 DUP3 DUP5 SUB SLT ISZERO PUSH2 0xAD6 JUMPI PUSH2 0xAD5 PUSH2 0x9FB JUMP JUMPDEST JUMPDEST PUSH0 PUSH2 0xAE3 DUP5 DUP3 DUP6 ADD PUSH2 0xA6F JUMP JUMPDEST SWAP2 POP POP SWAP3 SWAP2 POP POP JUMP JUMPDEST PUSH0 PUSH1 0x20 DUP3 DUP5 SUB SLT ISZERO PUSH2 0xB01 JUMPI PUSH2 0xB00 PUSH2 0x9FB JUMP JUMPDEST JUMPDEST PUSH0 PUSH2 0xB0E DUP5 DUP3 DUP6 ADD PUSH2 0xA45 JUMP JUMPDEST SWAP2 POP POP SWAP3 SWAP2 POP POP JUMP JUMPDEST PUSH32 0x4E487B7100000000000000000000000000000000000000000000000000000000 PUSH0 MSTORE PUSH1 0x11 PUSH1 0x4 MSTORE PUSH1 0x24 PUSH0 REVERT JUMPDEST PUSH0 PUSH2 0xB4E DUP3 PUSH2 0x997 JUMP JUMPDEST SWAP2 POP PUSH2 0xB59 DUP4 PUSH2 0x997 JUMP JUMPDEST SWAP3 POP DUP3 DUP3 SUB SWAP1 POP DUP2 DUP2 GT ISZERO PUSH2 0xB71 JUMPI PUSH2 0xB70 PUSH2 0xB17 JUMP JUMPDEST JUMPDEST SWAP3 SWAP2 POP POP JUMP JUMPDEST PUSH2 0xB80 DUP2 PUSH2 0xA1E JUMP JUMPDEST DUP3 MSTORE POP POP JUMP JUMPDEST PUSH0 PUSH1 0x20 DUP3 ADD SWAP1 POP PUSH2 0xB99 PUSH0 DUP4 ADD DUP5 PUSH2 0xB77 JUMP JUMPDEST SWAP3 SWAP2 POP POP JUMP JUMPDEST PUSH0 PUSH1 0x80 DUP3 ADD SWAP1 POP PUSH2 0xBB2 PUSH0 DUP4 ADD DUP8 PUSH2 0xB77 JUMP JUMPDEST PUSH2 0xBBF PUSH1 0x20 DUP4 ADD DUP7 PUSH2 0x9A0 JUMP JUMPDEST PUSH2 0xBCC PUSH1 0x40 DUP4 ADD DUP6 PUSH2 0x9A0 JUMP JUMPDEST PUSH2 0xBD9 PUSH1 0x60 DUP4 ADD DUP5 PUSH2 0x9A0 JUMP JUMPDEST SWAP6 SWAP5 POP POP POP POP POP JUMP JUMPDEST PUSH0 PUSH2 0xBEC DUP3 PUSH2 0x997 JUMP JUMPDEST SWAP2 POP PUSH2 0xBF7 DUP4 PUSH2 0x997 JUMP JUMPDEST SWAP3 POP DUP3 DUP3 ADD SWAP1 POP DUP1 DUP3 GT ISZERO PUSH2 0xC0F JUMPI PUSH2 0xC0E PUSH2 0xB17 JUMP JUMPDEST JUMPDEST SWAP3 SWAP2 POP POP JUMP JUMPDEST PUSH0 PUSH1 0x60 DUP3 ADD SWAP1 POP PUSH2 0xC28 PUSH0 DUP4 ADD DUP7 PUSH2 0xB77 JUMP JUMPDEST PUSH2 0xC35 PUSH1 0x20 DUP4 ADD DUP6 PUSH2 0x9A0 JUMP JUMPDEST PUSH2 0xC42 PUSH1 0x40 DUP4 ADD DUP5 PUSH2 0x9A0 JUMP JUMPDEST SWAP5 SWAP4 POP POP POP POP JUMP JUMPDEST PUSH0 DUP2 SWAP1 POP SWAP3 SWAP2 POP POP JUMP JUMPDEST POP JUMP JUMPDEST PUSH0 PUSH2 0xC62 PUSH0 DUP4 PUSH2 0xC4A JUMP JUMPDEST SWAP2 POP PUSH2 0xC6D DUP3 PUSH2 0xC54 JUMP JUMPDEST PUSH0 DUP3 ADD SWAP1 POP SWAP2 SWAP1 POP JUMP JUMPDEST PUSH0 PUSH2 0xC81 DUP3 PUSH2 0xC57 JUMP JUMPDEST SWAP2 POP DUP2 SWAP1 POP SWAP2 SWAP1 POP JUMP JUMPDEST PUSH0 DUP2 MLOAD SWAP1 POP SWAP2 SWAP1 POP JUMP JUMPDEST PUSH0 DUP3 DUP3 MSTORE PUSH1 0x20 DUP3 ADD SWAP1 POP SWAP3 SWAP2 POP POP JUMP JUMPDEST PUSH0 JUMPDEST DUP4 DUP2 LT ISZERO PUSH2 0xCC2 JUMPI DUP1 DUP3 ADD MLOAD DUP2 DUP5 ADD MSTORE PUSH1 0x20 DUP2 ADD SWAP1 POP PUSH2 0xCA7 JUMP JUMPDEST PUSH0 DUP5 DUP5 ADD MSTORE POP POP POP POP JUMP JUMPDEST PUSH0 PUSH1 0x1F NOT PUSH1 0x1F DUP4 ADD AND SWAP1 POP SWAP2 SWAP1 POP JUMP JUMPDEST PUSH0 PUSH2 0xCE7 DUP3 PUSH2 0xC8B JUMP JUMPDEST PUSH2 0xCF1 DUP2 DUP6 PUSH2 0xC95 JUMP JUMPDEST SWAP4 POP PUSH2 0xD01 DUP2 DUP6 PUSH1 0x20 DUP7 ADD PUSH2 0xCA5 JUMP JUMPDEST PUSH2 0xD0A DUP2 PUSH2 0xCCD JUMP JUMPDEST DUP5 ADD SWAP2 POP POP SWAP3 SWAP2 POP POP JUMP JUMPDEST PUSH0 PUSH1 0x40 DUP3 ADD SWAP1 POP PUSH2 0xD28 PUSH0 DUP4 ADD DUP6 PUSH2 0xB77 JUMP JUMPDEST DUP2 DUP2 SUB PUSH1 0x20 DUP4 ADD MSTORE PUSH2 0xD3A DUP2 DUP5 PUSH2 0xCDD JUMP JUMPDEST SWAP1 POP SWAP4 SWAP3 POP POP POP JUMP INVALID LOG2 PUSH5 0x6970667358 0x22 SLT KECCAK256 SELFDESTRUCT NOT PUSH8 0xBE894333BE509435 0xCD 0x1F SWAP12 GAS 0xAB CHAINID PUSH6 0x4324B49F1DCB 0xE3 0xD4 0xD1 SHR 0xD5 NUMBER PUSH27 0x2064736F6C63430008140033000000000000000000000000000000 "
				},
				"gasEstimates": {
					"creation": {
						"codeDepositCost": "689800",
						"executionCost": "infinite",
						"totalCost": "infinite"
					},
					"external": {
						"balance(address)": "2873",
						"bankCap()": "infinite",
						"currentDepositLimit()": "infinite",
						"depositForSender()": "infinite",
						"isContractActive()": "2540",
						"toggleActive_ownerOnly()": "infinite",
						"withdrawForReceiver_ownerOnly(address,uint256)": "infinite",
						"withdrawForSender(uint256)": "infinite"
					},
					"internal": {
						"withdraw(address,uint256)": "infinite"
					}
				},
				"methodIdentifiers": {
					"balance(address)": "e3d670d7",
					"bankCap()": "ecbea24d",
					"currentDepositLimit()": "0295d71b",
					"depositForSender()": "4a7ba7d6",
					"isContractActive()": "8f5949f9",
					"toggleActive_ownerOnly()": "6252db32",
					"withdrawForReceiver_ownerOnly(address,uint256)": "c2b2dd0f",
					"withdrawForSender(uint256)": "cdf92c51"
				}
			},
			"storageLayout": {
				"storage": [
					{
						"astId": 63,
						"contract": "KipuBank.sol:KipuBank",
						"label": "s_balance",
						"offset": 0,
						"slot": "0",
						"type": "t_mapping(t_address,t_uint256)"
					},
					{
						"astId": 65,
						"contract": "KipuBank.sol:KipuBank",
						"label": "s_isActive",
						"offset": 0,
						"slot": "1",
						"type": "t_bool"
					}
				],
				"types": {
					"t_address": {
						"encoding": "inplace",
						"label": "address",
						"numberOfBytes": "20"
					},
					"t_bool": {
						"encoding": "inplace",
						"label": "bool",
						"numberOfBytes": "1"
					},
					"t_mapping(t_address,t_uint256)": {
						"encoding": "mapping",
						"key": "t_address",
						"label": "mapping(address => uint256)",
						"numberOfBytes": "32",
						"value": "t_uint256"
					},
					"t_uint256": {
						"encoding": "inplace",
						"label": "uint256",
						"numberOfBytes": "32"
					}
				}
			},
			"userdoc": {
				"errors": {
					"KipuBank_BadRequest_NotTheOwner(address)": [
						{
							"notice": "Errors///"
						}
					]
				},
				"events": {
					"KipuBank_ActiveToggled(bool)": {
						"notice": "Events///"
					}
				},
				"kind": "user",
				"methods": {
					"balance(address)": {
						"notice": "Returns the balance of the informed address "
					},
					"bankCap()": {
						"notice": "Returns the balance limit set on this contract "
					},
					"currentDepositLimit()": {
						"notice": "Returns the current available value to be deposited "
					},
					"isContractActive()": {
						"notice": "Is this contract active? "
					},
					"toggleActive_ownerOnly()": {
						"notice": "possibility to turn off the contract, if something goes wrong"
					}
				},
				"notice": "trabalho de conclusao de EDP BR - Modulo 2: Fundamentos de Solidityauthor Gustavo P Gialluisi",
				"version": 1
			}
		}
	}
}