{
	"GubaBank.sol": {
		"GubaBank": {
			"abi": [
				{
					"inputs": [
						{
							"internalType": "uint256",
							"name": "_bankCap",
							"type": "uint256"
						}
					],
					"stateMutability": "nonpayable",
					"type": "constructor"
				},
				{
					"inputs": [
						{
							"internalType": "address",
							"name": "_sender",
							"type": "address"
						}
					],
					"name": "GubaBank_BadRequest_ContractIsInactive",
					"type": "error"
				},
				{
					"inputs": [
						{
							"internalType": "address",
							"name": "_owner",
							"type": "address"
						},
						{
							"internalType": "uint256",
							"name": "_withdraw_value_tried",
							"type": "uint256"
						},
						{
							"internalType": "uint256",
							"name": "_balance",
							"type": "uint256"
						}
					],
					"name": "GubaBank_BadRequest_NotEnoughtBalance",
					"type": "error"
				},
				{
					"inputs": [
						{
							"internalType": "address",
							"name": "_sender",
							"type": "address"
						},
						{
							"internalType": "uint256",
							"name": "_deposit_value_tried",
							"type": "uint256"
						}
					],
					"name": "GubaBank_BadRequest_NotEnoughtDepositLimit",
					"type": "error"
				},
				{
					"inputs": [
						{
							"internalType": "address",
							"name": "_sender",
							"type": "address"
						}
					],
					"name": "GubaBank_BadRequest_NotTheOwner",
					"type": "error"
				},
				{
					"inputs": [
						{
							"internalType": "address",
							"name": "_owner",
							"type": "address"
						},
						{
							"internalType": "bytes",
							"name": "_error",
							"type": "bytes"
						}
					],
					"name": "GubaBank_ServerError_ErrorOnCall",
					"type": "error"
				},
				{
					"anonymous": false,
					"inputs": [
						{
							"indexed": false,
							"internalType": "bool",
							"name": "isActive",
							"type": "bool"
						}
					],
					"name": "GubaBank_ActiveToggled",
					"type": "event"
				},
				{
					"anonymous": false,
					"inputs": [
						{
							"indexed": false,
							"internalType": "address",
							"name": "sender",
							"type": "address"
						},
						{
							"indexed": false,
							"internalType": "uint256",
							"name": "value",
							"type": "uint256"
						},
						{
							"indexed": false,
							"internalType": "uint256",
							"name": "balance",
							"type": "uint256"
						}
					],
					"name": "GubaBank_DepositSucceded",
					"type": "event"
				},
				{
					"anonymous": false,
					"inputs": [
						{
							"indexed": false,
							"internalType": "bytes",
							"name": "_error",
							"type": "bytes"
						}
					],
					"name": "GubaBank_TransactionRolledBack",
					"type": "event"
				},
				{
					"anonymous": false,
					"inputs": [
						{
							"indexed": false,
							"internalType": "address",
							"name": "to",
							"type": "address"
						},
						{
							"indexed": false,
							"internalType": "uint256",
							"name": "value",
							"type": "uint256"
						},
						{
							"indexed": false,
							"internalType": "uint256",
							"name": "balance",
							"type": "uint256"
						}
					],
					"name": "GubaBank_WithdrawSucceded",
					"type": "event"
				},
				{
					"inputs": [],
					"name": "bankCap",
					"outputs": [
						{
							"internalType": "uint256",
							"name": "",
							"type": "uint256"
						}
					],
					"stateMutability": "view",
					"type": "function"
				},
				{
					"inputs": [],
					"name": "currentDepositLimit",
					"outputs": [
						{
							"internalType": "uint256",
							"name": "",
							"type": "uint256"
						}
					],
					"stateMutability": "view",
					"type": "function"
				},
				{
					"inputs": [],
					"name": "depositForSender",
					"outputs": [],
					"stateMutability": "payable",
					"type": "function"
				},
				{
					"inputs": [],
					"name": "i_balanceLimit",
					"outputs": [
						{
							"internalType": "uint256",
							"name": "",
							"type": "uint256"
						}
					],
					"stateMutability": "view",
					"type": "function"
				},
				{
					"inputs": [],
					"name": "isContractActive",
					"outputs": [
						{
							"internalType": "bool",
							"name": "",
							"type": "bool"
						}
					],
					"stateMutability": "view",
					"type": "function"
				},
				{
					"inputs": [
						{
							"internalType": "address",
							"name": "",
							"type": "address"
						}
					],
					"name": "s_balance",
					"outputs": [
						{
							"internalType": "uint256",
							"name": "",
							"type": "uint256"
						}
					],
					"stateMutability": "view",
					"type": "function"
				},
				{
					"inputs": [],
					"name": "toggleActive",
					"outputs": [],
					"stateMutability": "nonpayable",
					"type": "function"
				},
				{
					"inputs": [],
					"name": "totalBalance",
					"outputs": [
						{
							"internalType": "uint256",
							"name": "",
							"type": "uint256"
						}
					],
					"stateMutability": "view",
					"type": "function"
				},
				{
					"inputs": [
						{
							"internalType": "address payable",
							"name": "_owner",
							"type": "address"
						},
						{
							"internalType": "uint256",
							"name": "_value",
							"type": "uint256"
						}
					],
					"name": "withdraw",
					"outputs": [],
					"stateMutability": "nonpayable",
					"type": "function"
				}
			],
			"devdoc": {
				"kind": "dev",
				"methods": {},
				"version": 1
			},
			"evm": {
				"assembly": "    /* \"GubaBank.sol\":485:4486  contract GubaBank {... */\n  mstore(0x40, 0xc0)\n    /* \"GubaBank.sol\":1857:1984  constructor(uint _bankCap) {... */\n  callvalue\n  dup1\n  iszero\n  tag_1\n  jumpi\n  0x00\n  dup1\n  revert\ntag_1:\n  pop\n  mload(0x40)\n  sub(codesize, bytecodeSize)\n  dup1\n  bytecodeSize\n  dup4\n  codecopy\n  dup2\n  dup2\n  add\n  0x40\n  mstore\n  dup2\n  add\n  swap1\n  tag_2\n  swap2\n  swap1\n  tag_3\n  jump\t// in\ntag_2:\n    /* \"GubaBank.sol\":1907:1912  false */\n  0x00\n    /* \"GubaBank.sol\":1894:1904  s_isActive */\n  dup1\n  0x00\n    /* \"GubaBank.sol\":1894:1912  s_isActive = false */\n  0x0100\n  exp\n  dup2\n  sload\n  dup2\n  0xff\n  mul\n  not\n  and\n  swap1\n  dup4\n  iszero\n  iszero\n  mul\n  or\n  swap1\n  sstore\n  pop\n    /* \"GubaBank.sol\":1932:1942  msg.sender */\n  caller\n    /* \"GubaBank.sol\":1922:1942  i_owner = msg.sender */\n  0xffffffffffffffffffffffffffffffffffffffff\n  and\n  0x80\n  dup2\n  0xffffffffffffffffffffffffffffffffffffffff\n  and\n  dup2\n  mstore\n  pop\n  pop\n    /* \"GubaBank.sol\":1969:1977  _bankCap */\n  dup1\n    /* \"GubaBank.sol\":1952:1977  i_balanceLimit = _bankCap */\n  0xa0\n  dup2\n  dup2\n  mstore\n  pop\n  pop\n    /* \"GubaBank.sol\":1857:1984  constructor(uint _bankCap) {... */\n  pop\n    /* \"GubaBank.sol\":485:4486  contract GubaBank {... */\n  jump(tag_6)\n    /* \"#utility.yul\":88:205   */\ntag_8:\n    /* \"#utility.yul\":197:198   */\n  0x00\n    /* \"#utility.yul\":194:195   */\n  dup1\n    /* \"#utility.yul\":187:199   */\n  revert\n    /* \"#utility.yul\":334:411   */\ntag_10:\n    /* \"#utility.yul\":371:378   */\n  0x00\n    /* \"#utility.yul\":400:405   */\n  dup2\n    /* \"#utility.yul\":389:405   */\n  swap1\n  pop\n    /* \"#utility.yul\":334:411   */\n  swap2\n  swap1\n  pop\n  jump\t// out\n    /* \"#utility.yul\":417:539   */\ntag_11:\n    /* \"#utility.yul\":490:514   */\n  tag_19\n    /* \"#utility.yul\":508:513   */\n  dup2\n    /* \"#utility.yul\":490:514   */\n  tag_10\n  jump\t// in\ntag_19:\n    /* \"#utility.yul\":483:488   */\n  dup2\n    /* \"#utility.yul\":480:515   */\n  eq\n    /* \"#utility.yul\":470:533   */\n  tag_20\n  jumpi\n    /* \"#utility.yul\":529:530   */\n  0x00\n    /* \"#utility.yul\":526:527   */\n  dup1\n    /* \"#utility.yul\":519:531   */\n  revert\n    /* \"#utility.yul\":470:533   */\ntag_20:\n    /* \"#utility.yul\":417:539   */\n  pop\n  jump\t// out\n    /* \"#utility.yul\":545:688   */\ntag_12:\n    /* \"#utility.yul\":602:607   */\n  0x00\n    /* \"#utility.yul\":633:639   */\n  dup2\n    /* \"#utility.yul\":627:640   */\n  mload\n    /* \"#utility.yul\":618:640   */\n  swap1\n  pop\n    /* \"#utility.yul\":649:682   */\n  tag_22\n    /* \"#utility.yul\":676:681   */\n  dup2\n    /* \"#utility.yul\":649:682   */\n  tag_11\n  jump\t// in\ntag_22:\n    /* \"#utility.yul\":545:688   */\n  swap3\n  swap2\n  pop\n  pop\n  jump\t// out\n    /* \"#utility.yul\":694:1045   */\ntag_3:\n    /* \"#utility.yul\":764:770   */\n  0x00\n    /* \"#utility.yul\":813:815   */\n  0x20\n    /* \"#utility.yul\":801:810   */\n  dup3\n    /* \"#utility.yul\":792:799   */\n  dup5\n    /* \"#utility.yul\":788:811   */\n  sub\n    /* \"#utility.yul\":784:816   */\n  slt\n    /* \"#utility.yul\":781:900   */\n  iszero\n  tag_24\n  jumpi\n    /* \"#utility.yul\":819:898   */\n  tag_25\n  tag_8\n  jump\t// in\ntag_25:\n    /* \"#utility.yul\":781:900   */\ntag_24:\n    /* \"#utility.yul\":939:940   */\n  0x00\n    /* \"#utility.yul\":964:1028   */\n  tag_26\n    /* \"#utility.yul\":1020:1027   */\n  dup5\n    /* \"#utility.yul\":1011:1017   */\n  dup3\n    /* \"#utility.yul\":1000:1009   */\n  dup6\n    /* \"#utility.yul\":996:1018   */\n  add\n    /* \"#utility.yul\":964:1028   */\n  tag_12\n  jump\t// in\ntag_26:\n    /* \"#utility.yul\":954:1028   */\n  swap2\n  pop\n    /* \"#utility.yul\":910:1038   */\n  pop\n    /* \"#utility.yul\":694:1045   */\n  swap3\n  swap2\n  pop\n  pop\n  jump\t// out\n    /* \"GubaBank.sol\":485:4486  contract GubaBank {... */\ntag_6:\n  mload(0x80)\n  mload(0xa0)\n  codecopy(0x00, dataOffset(sub_0), dataSize(sub_0))\n  0x00\n  assignImmutable(\"0x6bcaf047ba4c8ac400fca43393035242dd1aabda2d6068a0c51242b97224de8d\")\n  0x00\n  assignImmutable(\"0xed93c67e1a9b7f09d3b44ee593360f0073603a8e45415e2c3c69afc994a1103d\")\n  return(0x00, dataSize(sub_0))\nstop\n\nsub_0: assembly {\n        /* \"GubaBank.sol\":485:4486  contract GubaBank {... */\n      mstore(0x40, 0x80)\n      jumpi(tag_1, lt(calldatasize, 0x04))\n      shr(0xe0, calldataload(0x00))\n      dup1\n      0x8f5949f9\n      gt\n      tag_11\n      jumpi\n      dup1\n      0x8f5949f9\n      eq\n      tag_6\n      jumpi\n      dup1\n      0xad7a672f\n      eq\n      tag_7\n      jumpi\n      dup1\n      0xe7394daf\n      eq\n      tag_8\n      jumpi\n      dup1\n      0xecbea24d\n      eq\n      tag_9\n      jumpi\n      dup1\n      0xf3fef3a3\n      eq\n      tag_10\n      jumpi\n      jump(tag_1)\n    tag_11:\n      dup1\n      0x0295d71b\n      eq\n      tag_2\n      jumpi\n      dup1\n      0x29c68dc1\n      eq\n      tag_3\n      jumpi\n      dup1\n      0x4a7ba7d6\n      eq\n      tag_4\n      jumpi\n      dup1\n      0x88d15ddc\n      eq\n      tag_5\n      jumpi\n    tag_1:\n      0x00\n      dup1\n      revert\n        /* \"GubaBank.sol\":4169:4290  function currentDepositLimit() external view returns(uint) {... */\n    tag_2:\n      callvalue\n      dup1\n      iszero\n      tag_12\n      jumpi\n      0x00\n      dup1\n      revert\n    tag_12:\n      pop\n      tag_13\n      tag_14\n      jump\t// in\n    tag_13:\n      mload(0x40)\n      tag_15\n      swap2\n      swap1\n      tag_16\n      jump\t// in\n    tag_15:\n      mload(0x40)\n      dup1\n      swap2\n      sub\n      swap1\n      return\n        /* \"GubaBank.sol\":2259:2392  function toggleActive() external onlyOwner {... */\n    tag_3:\n      callvalue\n      dup1\n      iszero\n      tag_17\n      jumpi\n      0x00\n      dup1\n      revert\n    tag_17:\n      pop\n      tag_18\n      tag_19\n      jump\t// in\n    tag_18:\n      stop\n        /* \"GubaBank.sol\":2398:2821  function depositForSender() external payable depositCheck {... */\n    tag_4:\n      tag_20\n      tag_21\n      jump\t// in\n    tag_20:\n      stop\n        /* \"GubaBank.sol\":788:824  uint public immutable i_balanceLimit */\n    tag_5:\n      callvalue\n      dup1\n      iszero\n      tag_22\n      jumpi\n      0x00\n      dup1\n      revert\n    tag_22:\n      pop\n      tag_23\n      tag_24\n      jump\t// in\n    tag_23:\n      mload(0x40)\n      tag_25\n      swap2\n      swap1\n      tag_16\n      jump\t// in\n    tag_25:\n      mload(0x40)\n      dup1\n      swap2\n      sub\n      swap1\n      return\n        /* \"GubaBank.sol\":4072:4162  function isContractActive() external view returns(bool) {... */\n    tag_6:\n      callvalue\n      dup1\n      iszero\n      tag_26\n      jumpi\n      0x00\n      dup1\n      revert\n    tag_26:\n      pop\n      tag_27\n      tag_28\n      jump\t// in\n    tag_27:\n      mload(0x40)\n      tag_29\n      swap2\n      swap1\n      tag_30\n      jump\t// in\n    tag_29:\n      mload(0x40)\n      dup1\n      swap2\n      sub\n      swap1\n      return\n        /* \"GubaBank.sol\":4296:4393  function totalBalance() external view returns(uint) {... */\n    tag_7:\n      callvalue\n      dup1\n      iszero\n      tag_31\n      jumpi\n      0x00\n      dup1\n      revert\n    tag_31:\n      pop\n      tag_32\n      tag_33\n      jump\t// in\n    tag_32:\n      mload(0x40)\n      tag_34\n      swap2\n      swap1\n      tag_16\n      jump\t// in\n    tag_34:\n      mload(0x40)\n      dup1\n      swap2\n      sub\n      swap1\n      return\n        /* \"GubaBank.sol\":741:782  mapping(address => uint) public s_balance */\n    tag_8:\n      callvalue\n      dup1\n      iszero\n      tag_35\n      jumpi\n      0x00\n      dup1\n      revert\n    tag_35:\n      pop\n      tag_36\n      0x04\n      dup1\n      calldatasize\n      sub\n      dup2\n      add\n      swap1\n      tag_37\n      swap2\n      swap1\n      tag_38\n      jump\t// in\n    tag_37:\n      tag_39\n      jump\t// in\n    tag_36:\n      mload(0x40)\n      tag_40\n      swap2\n      swap1\n      tag_16\n      jump\t// in\n    tag_40:\n      mload(0x40)\n      dup1\n      swap2\n      sub\n      swap1\n      return\n        /* \"GubaBank.sol\":4399:4484  function bankCap() external view returns(uint) {... */\n    tag_9:\n      callvalue\n      dup1\n      iszero\n      tag_41\n      jumpi\n      0x00\n      dup1\n      revert\n    tag_41:\n      pop\n      tag_42\n      tag_43\n      jump\t// in\n    tag_42:\n      mload(0x40)\n      tag_44\n      swap2\n      swap1\n      tag_16\n      jump\t// in\n    tag_44:\n      mload(0x40)\n      dup1\n      swap2\n      sub\n      swap1\n      return\n        /* \"GubaBank.sol\":2827:3648  function withdraw(address payable _owner, uint _value) external activeCheck{... */\n    tag_10:\n      callvalue\n      dup1\n      iszero\n      tag_45\n      jumpi\n      0x00\n      dup1\n      revert\n    tag_45:\n      pop\n      tag_46\n      0x04\n      dup1\n      calldatasize\n      sub\n      dup2\n      add\n      swap1\n      tag_47\n      swap2\n      swap1\n      tag_48\n      jump\t// in\n    tag_47:\n      tag_49\n      jump\t// in\n    tag_46:\n      stop\n        /* \"GubaBank.sol\":4169:4290  function currentDepositLimit() external view returns(uint) {... */\n    tag_14:\n        /* \"GubaBank.sol\":4222:4226  uint */\n      0x00\n        /* \"GubaBank.sol\":4262:4283  address(this).balance */\n      selfbalance\n        /* \"GubaBank.sol\":4245:4259  i_balanceLimit */\n      immutable(\"0x6bcaf047ba4c8ac400fca43393035242dd1aabda2d6068a0c51242b97224de8d\")\n        /* \"GubaBank.sol\":4245:4283  i_balanceLimit - address(this).balance */\n      tag_51\n      swap2\n      swap1\n      tag_52\n      jump\t// in\n    tag_51:\n        /* \"GubaBank.sol\":4238:4283  return i_balanceLimit - address(this).balance */\n      swap1\n      pop\n        /* \"GubaBank.sol\":4169:4290  function currentDepositLimit() external view returns(uint) {... */\n      swap1\n      jump\t// out\n        /* \"GubaBank.sol\":2259:2392  function toggleActive() external onlyOwner {... */\n    tag_19:\n        /* \"GubaBank.sol\":1246:1256  msg.sender */\n      caller\n        /* \"GubaBank.sol\":1235:1256  i_owner != msg.sender */\n      0xffffffffffffffffffffffffffffffffffffffff\n      and\n        /* \"GubaBank.sol\":1235:1242  i_owner */\n      immutable(\"0xed93c67e1a9b7f09d3b44ee593360f0073603a8e45415e2c3c69afc994a1103d\")\n        /* \"GubaBank.sol\":1235:1256  i_owner != msg.sender */\n      0xffffffffffffffffffffffffffffffffffffffff\n      and\n      eq\n        /* \"GubaBank.sol\":1232:1308  if(i_owner != msg.sender) revert GubaBank_BadRequest_NotTheOwner(msg.sender) */\n      tag_54\n      jumpi\n        /* \"GubaBank.sol\":1297:1307  msg.sender */\n      caller\n        /* \"GubaBank.sol\":1265:1308  GubaBank_BadRequest_NotTheOwner(msg.sender) */\n      mload(0x40)\n      0xc217e2f600000000000000000000000000000000000000000000000000000000\n      dup2\n      mstore\n      0x04\n      add\n      tag_55\n      swap2\n      swap1\n      tag_56\n      jump\t// in\n    tag_55:\n      mload(0x40)\n      dup1\n      swap2\n      sub\n      swap1\n      revert\n        /* \"GubaBank.sol\":1232:1308  if(i_owner != msg.sender) revert GubaBank_BadRequest_NotTheOwner(msg.sender) */\n    tag_54:\n        /* \"GubaBank.sol\":2326:2336  s_isActive */\n      0x00\n      dup1\n      sload\n      swap1\n      0x0100\n      exp\n      swap1\n      div\n      0xff\n      and\n        /* \"GubaBank.sol\":2325:2336  !s_isActive */\n      iszero\n        /* \"GubaBank.sol\":2312:2322  s_isActive */\n      0x00\n      dup1\n        /* \"GubaBank.sol\":2312:2336  s_isActive = !s_isActive */\n      0x0100\n      exp\n      dup2\n      sload\n      dup2\n      0xff\n      mul\n      not\n      and\n      swap1\n      dup4\n      iszero\n      iszero\n      mul\n      or\n      swap1\n      sstore\n      pop\n        /* \"GubaBank.sol\":2351:2385  GubaBank_ActiveToggled(s_isActive) */\n      0x5796a129928d10076a601609d5da7a8b014c5dc55ad403abc3b9e0497f06b602\n        /* \"GubaBank.sol\":2374:2384  s_isActive */\n      0x00\n      dup1\n      sload\n      swap1\n      0x0100\n      exp\n      swap1\n      div\n      0xff\n      and\n        /* \"GubaBank.sol\":2351:2385  GubaBank_ActiveToggled(s_isActive) */\n      mload(0x40)\n      tag_58\n      swap2\n      swap1\n      tag_30\n      jump\t// in\n    tag_58:\n      mload(0x40)\n      dup1\n      swap2\n      sub\n      swap1\n      log1\n        /* \"GubaBank.sol\":2259:2392  function toggleActive() external onlyOwner {... */\n      jump\t// out\n        /* \"GubaBank.sol\":2398:2821  function depositForSender() external payable depositCheck {... */\n    tag_21:\n        /* \"GubaBank.sol\":1370:1380  s_isActive */\n      0x00\n      dup1\n      sload\n      swap1\n      0x0100\n      exp\n      swap1\n      div\n      0xff\n      and\n        /* \"GubaBank.sol\":1366:1439  if(!s_isActive) revert GubaBank_BadRequest_ContractIsInactive(msg.sender) */\n      tag_60\n      jumpi\n        /* \"GubaBank.sol\":1428:1438  msg.sender */\n      caller\n        /* \"GubaBank.sol\":1389:1439  GubaBank_BadRequest_ContractIsInactive(msg.sender) */\n      mload(0x40)\n      0xb4031ba100000000000000000000000000000000000000000000000000000000\n      dup2\n      mstore\n      0x04\n      add\n      tag_61\n      swap2\n      swap1\n      tag_56\n      jump\t// in\n    tag_61:\n      mload(0x40)\n      dup1\n      swap2\n      sub\n      swap1\n      revert\n        /* \"GubaBank.sol\":1366:1439  if(!s_isActive) revert GubaBank_BadRequest_ContractIsInactive(msg.sender) */\n    tag_60:\n        /* \"GubaBank.sol\":1488:1502  i_balanceLimit */\n      immutable(\"0x6bcaf047ba4c8ac400fca43393035242dd1aabda2d6068a0c51242b97224de8d\")\n        /* \"GubaBank.sol\":1464:1485  address(this).balance */\n      selfbalance\n        /* \"GubaBank.sol\":1452:1461  msg.value */\n      callvalue\n        /* \"GubaBank.sol\":1452:1485  msg.value + address(this).balance */\n      tag_62\n      swap2\n      swap1\n      tag_63\n      jump\t// in\n    tag_62:\n        /* \"GubaBank.sol\":1452:1502  msg.value + address(this).balance > i_balanceLimit */\n      gt\n        /* \"GubaBank.sol\":1449:1576  if(msg.value + address(this).balance > i_balanceLimit) revert GubaBank_BadRequest_NotEnoughtDepositLimit(msg.sender, msg.value) */\n      iszero\n      tag_64\n      jumpi\n        /* \"GubaBank.sol\":1554:1564  msg.sender */\n      caller\n        /* \"GubaBank.sol\":1566:1575  msg.value */\n      callvalue\n        /* \"GubaBank.sol\":1511:1576  GubaBank_BadRequest_NotEnoughtDepositLimit(msg.sender, msg.value) */\n      mload(0x40)\n      0xb98438ed00000000000000000000000000000000000000000000000000000000\n      dup2\n      mstore\n      0x04\n      add\n      tag_65\n      swap3\n      swap2\n      swap1\n      tag_66\n      jump\t// in\n    tag_65:\n      mload(0x40)\n      dup1\n      swap2\n      sub\n      swap1\n      revert\n        /* \"GubaBank.sol\":1449:1576  if(msg.value + address(this).balance > i_balanceLimit) revert GubaBank_BadRequest_NotEnoughtDepositLimit(msg.sender, msg.value) */\n    tag_64:\n        /* \"GubaBank.sol\":2653:2662  msg.value */\n      callvalue\n        /* \"GubaBank.sol\":2628:2637  s_balance */\n      0x01\n        /* \"GubaBank.sol\":2628:2649  s_balance[msg.sender] */\n      0x00\n        /* \"GubaBank.sol\":2638:2648  msg.sender */\n      caller\n        /* \"GubaBank.sol\":2628:2649  s_balance[msg.sender] */\n      0xffffffffffffffffffffffffffffffffffffffff\n      and\n      0xffffffffffffffffffffffffffffffffffffffff\n      and\n      dup2\n      mstore\n      0x20\n      add\n      swap1\n      dup2\n      mstore\n      0x20\n      add\n      0x00\n      keccak256\n      0x00\n        /* \"GubaBank.sol\":2628:2662  s_balance[msg.sender] += msg.value */\n      dup3\n      dup3\n      sload\n      tag_68\n      swap2\n      swap1\n      tag_63\n      jump\t// in\n    tag_68:\n      swap3\n      pop\n      pop\n      dup2\n      swap1\n      sstore\n      pop\n        /* \"GubaBank.sol\":2677:2747  GubaBank_DepositSucceded(msg.sender, msg.value, s_balance[msg.sender]) */\n      0x15ba1938fae5e0c6e44ccb0f8758616eb7c4fa80e0f250dcd3d51c367f0d57e9\n        /* \"GubaBank.sol\":2702:2712  msg.sender */\n      caller\n        /* \"GubaBank.sol\":2714:2723  msg.value */\n      callvalue\n        /* \"GubaBank.sol\":2725:2734  s_balance */\n      0x01\n        /* \"GubaBank.sol\":2725:2746  s_balance[msg.sender] */\n      0x00\n        /* \"GubaBank.sol\":2735:2745  msg.sender */\n      caller\n        /* \"GubaBank.sol\":2725:2746  s_balance[msg.sender] */\n      0xffffffffffffffffffffffffffffffffffffffff\n      and\n      0xffffffffffffffffffffffffffffffffffffffff\n      and\n      dup2\n      mstore\n      0x20\n      add\n      swap1\n      dup2\n      mstore\n      0x20\n      add\n      0x00\n      keccak256\n      sload\n        /* \"GubaBank.sol\":2677:2747  GubaBank_DepositSucceded(msg.sender, msg.value, s_balance[msg.sender]) */\n      mload(0x40)\n      tag_69\n      swap4\n      swap3\n      swap2\n      swap1\n      tag_70\n      jump\t// in\n    tag_69:\n      mload(0x40)\n      dup1\n      swap2\n      sub\n      swap1\n      log1\n        /* \"GubaBank.sol\":2398:2821  function depositForSender() external payable depositCheck {... */\n      jump\t// out\n        /* \"GubaBank.sol\":788:824  uint public immutable i_balanceLimit */\n    tag_24:\n      immutable(\"0x6bcaf047ba4c8ac400fca43393035242dd1aabda2d6068a0c51242b97224de8d\")\n      dup2\n      jump\t// out\n        /* \"GubaBank.sol\":4072:4162  function isContractActive() external view returns(bool) {... */\n    tag_28:\n        /* \"GubaBank.sol\":4122:4126  bool */\n      0x00\n        /* \"GubaBank.sol\":4145:4155  s_isActive */\n      dup1\n      0x00\n      swap1\n      sload\n      swap1\n      0x0100\n      exp\n      swap1\n      div\n      0xff\n      and\n        /* \"GubaBank.sol\":4138:4155  return s_isActive */\n      swap1\n      pop\n        /* \"GubaBank.sol\":4072:4162  function isContractActive() external view returns(bool) {... */\n      swap1\n      jump\t// out\n        /* \"GubaBank.sol\":4296:4393  function totalBalance() external view returns(uint) {... */\n    tag_33:\n        /* \"GubaBank.sol\":4342:4346  uint */\n      0x00\n        /* \"GubaBank.sol\":4365:4386  address(this).balance */\n      selfbalance\n        /* \"GubaBank.sol\":4358:4386  return address(this).balance */\n      swap1\n      pop\n        /* \"GubaBank.sol\":4296:4393  function totalBalance() external view returns(uint) {... */\n      swap1\n      jump\t// out\n        /* \"GubaBank.sol\":741:782  mapping(address => uint) public s_balance */\n    tag_39:\n      mstore(0x20, 0x01)\n      dup1\n      0x00\n      mstore\n      keccak256(0x00, 0x40)\n      0x00\n      swap2\n      pop\n      swap1\n      pop\n      sload\n      dup2\n      jump\t// out\n        /* \"GubaBank.sol\":4399:4484  function bankCap() external view returns(uint) {... */\n    tag_43:\n        /* \"GubaBank.sol\":4440:4444  uint */\n      0x00\n        /* \"GubaBank.sol\":4463:4477  i_balanceLimit */\n      immutable(\"0x6bcaf047ba4c8ac400fca43393035242dd1aabda2d6068a0c51242b97224de8d\")\n        /* \"GubaBank.sol\":4456:4477  return i_balanceLimit */\n      swap1\n      pop\n        /* \"GubaBank.sol\":4399:4484  function bankCap() external view returns(uint) {... */\n      swap1\n      jump\t// out\n        /* \"GubaBank.sol\":2827:3648  function withdraw(address payable _owner, uint _value) external activeCheck{... */\n    tag_49:\n        /* \"GubaBank.sol\":1637:1647  s_isActive */\n      0x00\n      dup1\n      sload\n      swap1\n      0x0100\n      exp\n      swap1\n      div\n      0xff\n      and\n        /* \"GubaBank.sol\":1633:1706  if(!s_isActive) revert GubaBank_BadRequest_ContractIsInactive(msg.sender) */\n      tag_75\n      jumpi\n        /* \"GubaBank.sol\":1695:1705  msg.sender */\n      caller\n        /* \"GubaBank.sol\":1656:1706  GubaBank_BadRequest_ContractIsInactive(msg.sender) */\n      mload(0x40)\n      0xb4031ba100000000000000000000000000000000000000000000000000000000\n      dup2\n      mstore\n      0x04\n      add\n      tag_76\n      swap2\n      swap1\n      tag_56\n      jump\t// in\n    tag_76:\n      mload(0x40)\n      dup1\n      swap2\n      sub\n      swap1\n      revert\n        /* \"GubaBank.sol\":1633:1706  if(!s_isActive) revert GubaBank_BadRequest_ContractIsInactive(msg.sender) */\n    tag_75:\n        /* \"GubaBank.sol\":3058:3064  _value */\n      dup1\n        /* \"GubaBank.sol\":3038:3047  s_balance */\n      0x01\n        /* \"GubaBank.sol\":3038:3055  s_balance[_owner] */\n      0x00\n        /* \"GubaBank.sol\":3048:3054  _owner */\n      dup5\n        /* \"GubaBank.sol\":3038:3055  s_balance[_owner] */\n      0xffffffffffffffffffffffffffffffffffffffff\n      and\n      0xffffffffffffffffffffffffffffffffffffffff\n      and\n      dup2\n      mstore\n      0x20\n      add\n      swap1\n      dup2\n      mstore\n      0x20\n      add\n      0x00\n      keccak256\n      sload\n        /* \"GubaBank.sol\":3038:3064  s_balance[_owner] < _value */\n      lt\n        /* \"GubaBank.sol\":3035:3149  if(s_balance[_owner] < _value) revert GubaBank_BadRequest_NotEnoughtBalance(msg.sender, _value, s_balance[_owner]) */\n      iszero\n      tag_78\n      jumpi\n        /* \"GubaBank.sol\":3111:3121  msg.sender */\n      caller\n        /* \"GubaBank.sol\":3123:3129  _value */\n      dup2\n        /* \"GubaBank.sol\":3131:3140  s_balance */\n      0x01\n        /* \"GubaBank.sol\":3131:3148  s_balance[_owner] */\n      0x00\n        /* \"GubaBank.sol\":3141:3147  _owner */\n      dup6\n        /* \"GubaBank.sol\":3131:3148  s_balance[_owner] */\n      0xffffffffffffffffffffffffffffffffffffffff\n      and\n      0xffffffffffffffffffffffffffffffffffffffff\n      and\n      dup2\n      mstore\n      0x20\n      add\n      swap1\n      dup2\n      mstore\n      0x20\n      add\n      0x00\n      keccak256\n      sload\n        /* \"GubaBank.sol\":3073:3149  GubaBank_BadRequest_NotEnoughtBalance(msg.sender, _value, s_balance[_owner]) */\n      mload(0x40)\n      0xa4ce9e6700000000000000000000000000000000000000000000000000000000\n      dup2\n      mstore\n      0x04\n      add\n      tag_79\n      swap4\n      swap3\n      swap2\n      swap1\n      tag_70\n      jump\t// in\n    tag_79:\n      mload(0x40)\n      dup1\n      swap2\n      sub\n      swap1\n      revert\n        /* \"GubaBank.sol\":3035:3149  if(s_balance[_owner] < _value) revert GubaBank_BadRequest_NotEnoughtBalance(msg.sender, _value, s_balance[_owner]) */\n    tag_78:\n        /* \"GubaBank.sol\":3268:3274  _value */\n      dup1\n        /* \"GubaBank.sol\":3247:3256  s_balance */\n      0x01\n        /* \"GubaBank.sol\":3247:3264  s_balance[_owner] */\n      0x00\n        /* \"GubaBank.sol\":3257:3263  _owner */\n      dup5\n        /* \"GubaBank.sol\":3247:3264  s_balance[_owner] */\n      0xffffffffffffffffffffffffffffffffffffffff\n      and\n      0xffffffffffffffffffffffffffffffffffffffff\n      and\n      dup2\n      mstore\n      0x20\n      add\n      swap1\n      dup2\n      mstore\n      0x20\n      add\n      0x00\n      keccak256\n      0x00\n        /* \"GubaBank.sol\":3247:3274  s_balance[_owner] -= _value */\n      dup3\n      dup3\n      sload\n      tag_80\n      swap2\n      swap1\n      tag_52\n      jump\t// in\n    tag_80:\n      swap3\n      pop\n      pop\n      dup2\n      swap1\n      sstore\n      pop\n        /* \"GubaBank.sol\":3289:3349  GubaBank_WithdrawSucceded(_owner, _value, s_balance[_owner]) */\n      0x07c8766f9b60f35d834f5dcb63820c5652b10c311b733da3e4ed8b8bcbc4a13d\n        /* \"GubaBank.sol\":3315:3321  _owner */\n      dup3\n        /* \"GubaBank.sol\":3323:3329  _value */\n      dup3\n        /* \"GubaBank.sol\":3331:3340  s_balance */\n      0x01\n        /* \"GubaBank.sol\":3331:3348  s_balance[_owner] */\n      0x00\n        /* \"GubaBank.sol\":3341:3347  _owner */\n      dup7\n        /* \"GubaBank.sol\":3331:3348  s_balance[_owner] */\n      0xffffffffffffffffffffffffffffffffffffffff\n      and\n      0xffffffffffffffffffffffffffffffffffffffff\n      and\n      dup2\n      mstore\n      0x20\n      add\n      swap1\n      dup2\n      mstore\n      0x20\n      add\n      0x00\n      keccak256\n      sload\n        /* \"GubaBank.sol\":3289:3349  GubaBank_WithdrawSucceded(_owner, _value, s_balance[_owner]) */\n      mload(0x40)\n      tag_81\n      swap4\n      swap3\n      swap2\n      swap1\n      tag_82\n      jump\t// in\n    tag_81:\n      mload(0x40)\n      dup1\n      swap2\n      sub\n      swap1\n      log1\n        /* \"GubaBank.sol\":3424:3436  bool success */\n      0x00\n        /* \"GubaBank.sol\":3438:3457  bytes memory _error */\n      dup1\n        /* \"GubaBank.sol\":3461:3467  _owner */\n      dup4\n        /* \"GubaBank.sol\":3461:3472  _owner.call */\n      0xffffffffffffffffffffffffffffffffffffffff\n      and\n        /* \"GubaBank.sol\":3480:3486  _value */\n      dup4\n        /* \"GubaBank.sol\":3461:3491  _owner.call{value: _value}(\"\") */\n      mload(0x40)\n      tag_83\n      swap1\n      tag_84\n      jump\t// in\n    tag_83:\n      0x00\n      mload(0x40)\n      dup1\n      dup4\n      sub\n      dup2\n      dup6\n      dup8\n      gas\n      call\n      swap3\n      pop\n      pop\n      pop\n      returndatasize\n      dup1\n      0x00\n      dup2\n      eq\n      tag_87\n      jumpi\n      mload(0x40)\n      swap2\n      pop\n      and(add(returndatasize, 0x3f), not(0x1f))\n      dup3\n      add\n      0x40\n      mstore\n      returndatasize\n      dup3\n      mstore\n      returndatasize\n      0x00\n      0x20\n      dup5\n      add\n      returndatacopy\n      jump(tag_86)\n    tag_87:\n      0x60\n      swap2\n      pop\n    tag_86:\n      pop\n        /* \"GubaBank.sol\":3423:3491  (bool success, bytes memory _error) = _owner.call{value: _value}(\"\") */\n      swap2\n      pop\n      swap2\n      pop\n        /* \"GubaBank.sol\":3505:3512  success */\n      dup2\n        /* \"GubaBank.sol\":3501:3642  if(!success) {... */\n      tag_88\n      jumpi\n        /* \"GubaBank.sol\":3528:3562  doRollback(_owner, _value, _error) */\n      tag_89\n        /* \"GubaBank.sol\":3539:3545  _owner */\n      dup5\n        /* \"GubaBank.sol\":3547:3553  _value */\n      dup5\n        /* \"GubaBank.sol\":3555:3561  _error */\n      dup4\n        /* \"GubaBank.sol\":3528:3538  doRollback */\n      tag_90\n        /* \"GubaBank.sol\":3528:3562  doRollback(_owner, _value, _error) */\n      jump\t// in\n    tag_89:\n        /* \"GubaBank.sol\":3616:3622  _owner */\n      dup4\n        /* \"GubaBank.sol\":3624:3630  _error */\n      dup2\n        /* \"GubaBank.sol\":3583:3631  GubaBank_ServerError_ErrorOnCall(_owner, _error) */\n      mload(0x40)\n      0xc2056ca600000000000000000000000000000000000000000000000000000000\n      dup2\n      mstore\n      0x04\n      add\n      tag_91\n      swap3\n      swap2\n      swap1\n      tag_92\n      jump\t// in\n    tag_91:\n      mload(0x40)\n      dup1\n      swap2\n      sub\n      swap1\n      revert\n        /* \"GubaBank.sol\":3501:3642  if(!success) {... */\n    tag_88:\n        /* \"GubaBank.sol\":2902:3648  {... */\n      pop\n      pop\n        /* \"GubaBank.sol\":2827:3648  function withdraw(address payable _owner, uint _value) external activeCheck{... */\n      pop\n      pop\n      jump\t// out\n        /* \"GubaBank.sol\":3818:4000  function doRollback(address _owner, uint _value, bytes memory _error) private {... */\n    tag_90:\n        /* \"GubaBank.sol\":3927:3933  _value */\n      dup2\n        /* \"GubaBank.sol\":3906:3915  s_balance */\n      0x01\n        /* \"GubaBank.sol\":3906:3923  s_balance[_owner] */\n      0x00\n        /* \"GubaBank.sol\":3916:3922  _owner */\n      dup6\n        /* \"GubaBank.sol\":3906:3923  s_balance[_owner] */\n      0xffffffffffffffffffffffffffffffffffffffff\n      and\n      0xffffffffffffffffffffffffffffffffffffffff\n      and\n      dup2\n      mstore\n      0x20\n      add\n      swap1\n      dup2\n      mstore\n      0x20\n      add\n      0x00\n      keccak256\n      0x00\n        /* \"GubaBank.sol\":3906:3933  s_balance[_owner] += _value */\n      dup3\n      dup3\n      sload\n      tag_94\n      swap2\n      swap1\n      tag_63\n      jump\t// in\n    tag_94:\n      swap3\n      pop\n      pop\n      dup2\n      swap1\n      sstore\n      pop\n        /* \"GubaBank.sol\":3955:3993  GubaBank_TransactionRolledBack(_error) */\n      0x0e386ae850e8423b00f74526a4aaa2c61ae81780e62a8a0d17116e076c0192b7\n        /* \"GubaBank.sol\":3986:3992  _error */\n      dup2\n        /* \"GubaBank.sol\":3955:3993  GubaBank_TransactionRolledBack(_error) */\n      mload(0x40)\n      tag_95\n      swap2\n      swap1\n      tag_96\n      jump\t// in\n    tag_95:\n      mload(0x40)\n      dup1\n      swap2\n      sub\n      swap1\n      log1\n        /* \"GubaBank.sol\":3818:4000  function doRollback(address _owner, uint _value, bytes memory _error) private {... */\n      pop\n      pop\n      pop\n      jump\t// out\n        /* \"#utility.yul\":7:84   */\n    tag_97:\n        /* \"#utility.yul\":44:51   */\n      0x00\n        /* \"#utility.yul\":73:78   */\n      dup2\n        /* \"#utility.yul\":62:78   */\n      swap1\n      pop\n        /* \"#utility.yul\":7:84   */\n      swap2\n      swap1\n      pop\n      jump\t// out\n        /* \"#utility.yul\":90:208   */\n    tag_98:\n        /* \"#utility.yul\":177:201   */\n      tag_131\n        /* \"#utility.yul\":195:200   */\n      dup2\n        /* \"#utility.yul\":177:201   */\n      tag_97\n      jump\t// in\n    tag_131:\n        /* \"#utility.yul\":172:175   */\n      dup3\n        /* \"#utility.yul\":165:202   */\n      mstore\n        /* \"#utility.yul\":90:208   */\n      pop\n      pop\n      jump\t// out\n        /* \"#utility.yul\":214:436   */\n    tag_16:\n        /* \"#utility.yul\":307:311   */\n      0x00\n        /* \"#utility.yul\":345:347   */\n      0x20\n        /* \"#utility.yul\":334:343   */\n      dup3\n        /* \"#utility.yul\":330:348   */\n      add\n        /* \"#utility.yul\":322:348   */\n      swap1\n      pop\n        /* \"#utility.yul\":358:429   */\n      tag_133\n        /* \"#utility.yul\":426:427   */\n      0x00\n        /* \"#utility.yul\":415:424   */\n      dup4\n        /* \"#utility.yul\":411:428   */\n      add\n        /* \"#utility.yul\":402:408   */\n      dup5\n        /* \"#utility.yul\":358:429   */\n      tag_98\n      jump\t// in\n    tag_133:\n        /* \"#utility.yul\":214:436   */\n      swap3\n      swap2\n      pop\n      pop\n      jump\t// out\n        /* \"#utility.yul\":442:532   */\n    tag_99:\n        /* \"#utility.yul\":476:483   */\n      0x00\n        /* \"#utility.yul\":519:524   */\n      dup2\n        /* \"#utility.yul\":512:525   */\n      iszero\n        /* \"#utility.yul\":505:526   */\n      iszero\n        /* \"#utility.yul\":494:526   */\n      swap1\n      pop\n        /* \"#utility.yul\":442:532   */\n      swap2\n      swap1\n      pop\n      jump\t// out\n        /* \"#utility.yul\":538:647   */\n    tag_100:\n        /* \"#utility.yul\":619:640   */\n      tag_136\n        /* \"#utility.yul\":634:639   */\n      dup2\n        /* \"#utility.yul\":619:640   */\n      tag_99\n      jump\t// in\n    tag_136:\n        /* \"#utility.yul\":614:617   */\n      dup3\n        /* \"#utility.yul\":607:641   */\n      mstore\n        /* \"#utility.yul\":538:647   */\n      pop\n      pop\n      jump\t// out\n        /* \"#utility.yul\":653:863   */\n    tag_30:\n        /* \"#utility.yul\":740:744   */\n      0x00\n        /* \"#utility.yul\":778:780   */\n      0x20\n        /* \"#utility.yul\":767:776   */\n      dup3\n        /* \"#utility.yul\":763:781   */\n      add\n        /* \"#utility.yul\":755:781   */\n      swap1\n      pop\n        /* \"#utility.yul\":791:856   */\n      tag_138\n        /* \"#utility.yul\":853:854   */\n      0x00\n        /* \"#utility.yul\":842:851   */\n      dup4\n        /* \"#utility.yul\":838:855   */\n      add\n        /* \"#utility.yul\":829:835   */\n      dup5\n        /* \"#utility.yul\":791:856   */\n      tag_100\n      jump\t// in\n    tag_138:\n        /* \"#utility.yul\":653:863   */\n      swap3\n      swap2\n      pop\n      pop\n      jump\t// out\n        /* \"#utility.yul\":950:1067   */\n    tag_102:\n        /* \"#utility.yul\":1059:1060   */\n      0x00\n        /* \"#utility.yul\":1056:1057   */\n      dup1\n        /* \"#utility.yul\":1049:1061   */\n      revert\n        /* \"#utility.yul\":1196:1322   */\n    tag_104:\n        /* \"#utility.yul\":1233:1240   */\n      0x00\n        /* \"#utility.yul\":1273:1315   */\n      0xffffffffffffffffffffffffffffffffffffffff\n        /* \"#utility.yul\":1266:1271   */\n      dup3\n        /* \"#utility.yul\":1262:1316   */\n      and\n        /* \"#utility.yul\":1251:1316   */\n      swap1\n      pop\n        /* \"#utility.yul\":1196:1322   */\n      swap2\n      swap1\n      pop\n      jump\t// out\n        /* \"#utility.yul\":1328:1424   */\n    tag_105:\n        /* \"#utility.yul\":1365:1372   */\n      0x00\n        /* \"#utility.yul\":1394:1418   */\n      tag_144\n        /* \"#utility.yul\":1412:1417   */\n      dup3\n        /* \"#utility.yul\":1394:1418   */\n      tag_104\n      jump\t// in\n    tag_144:\n        /* \"#utility.yul\":1383:1418   */\n      swap1\n      pop\n        /* \"#utility.yul\":1328:1424   */\n      swap2\n      swap1\n      pop\n      jump\t// out\n        /* \"#utility.yul\":1430:1552   */\n    tag_106:\n        /* \"#utility.yul\":1503:1527   */\n      tag_146\n        /* \"#utility.yul\":1521:1526   */\n      dup2\n        /* \"#utility.yul\":1503:1527   */\n      tag_105\n      jump\t// in\n    tag_146:\n        /* \"#utility.yul\":1496:1501   */\n      dup2\n        /* \"#utility.yul\":1493:1528   */\n      eq\n        /* \"#utility.yul\":1483:1546   */\n      tag_147\n      jumpi\n        /* \"#utility.yul\":1542:1543   */\n      0x00\n        /* \"#utility.yul\":1539:1540   */\n      dup1\n        /* \"#utility.yul\":1532:1544   */\n      revert\n        /* \"#utility.yul\":1483:1546   */\n    tag_147:\n        /* \"#utility.yul\":1430:1552   */\n      pop\n      jump\t// out\n        /* \"#utility.yul\":1558:1697   */\n    tag_107:\n        /* \"#utility.yul\":1604:1609   */\n      0x00\n        /* \"#utility.yul\":1642:1648   */\n      dup2\n        /* \"#utility.yul\":1629:1649   */\n      calldataload\n        /* \"#utility.yul\":1620:1649   */\n      swap1\n      pop\n        /* \"#utility.yul\":1658:1691   */\n      tag_149\n        /* \"#utility.yul\":1685:1690   */\n      dup2\n        /* \"#utility.yul\":1658:1691   */\n      tag_106\n      jump\t// in\n    tag_149:\n        /* \"#utility.yul\":1558:1697   */\n      swap3\n      swap2\n      pop\n      pop\n      jump\t// out\n        /* \"#utility.yul\":1703:2032   */\n    tag_38:\n        /* \"#utility.yul\":1762:1768   */\n      0x00\n        /* \"#utility.yul\":1811:1813   */\n      0x20\n        /* \"#utility.yul\":1799:1808   */\n      dup3\n        /* \"#utility.yul\":1790:1797   */\n      dup5\n        /* \"#utility.yul\":1786:1809   */\n      sub\n        /* \"#utility.yul\":1782:1814   */\n      slt\n        /* \"#utility.yul\":1779:1898   */\n      iszero\n      tag_151\n      jumpi\n        /* \"#utility.yul\":1817:1896   */\n      tag_152\n      tag_102\n      jump\t// in\n    tag_152:\n        /* \"#utility.yul\":1779:1898   */\n    tag_151:\n        /* \"#utility.yul\":1937:1938   */\n      0x00\n        /* \"#utility.yul\":1962:2015   */\n      tag_153\n        /* \"#utility.yul\":2007:2014   */\n      dup5\n        /* \"#utility.yul\":1998:2004   */\n      dup3\n        /* \"#utility.yul\":1987:1996   */\n      dup6\n        /* \"#utility.yul\":1983:2005   */\n      add\n        /* \"#utility.yul\":1962:2015   */\n      tag_107\n      jump\t// in\n    tag_153:\n        /* \"#utility.yul\":1952:2015   */\n      swap2\n      pop\n        /* \"#utility.yul\":1908:2025   */\n      pop\n        /* \"#utility.yul\":1703:2032   */\n      swap3\n      swap2\n      pop\n      pop\n      jump\t// out\n        /* \"#utility.yul\":2038:2142   */\n    tag_108:\n        /* \"#utility.yul\":2083:2090   */\n      0x00\n        /* \"#utility.yul\":2112:2136   */\n      tag_155\n        /* \"#utility.yul\":2130:2135   */\n      dup3\n        /* \"#utility.yul\":2112:2136   */\n      tag_104\n      jump\t// in\n    tag_155:\n        /* \"#utility.yul\":2101:2136   */\n      swap1\n      pop\n        /* \"#utility.yul\":2038:2142   */\n      swap2\n      swap1\n      pop\n      jump\t// out\n        /* \"#utility.yul\":2148:2286   */\n    tag_109:\n        /* \"#utility.yul\":2229:2261   */\n      tag_157\n        /* \"#utility.yul\":2255:2260   */\n      dup2\n        /* \"#utility.yul\":2229:2261   */\n      tag_108\n      jump\t// in\n    tag_157:\n        /* \"#utility.yul\":2222:2227   */\n      dup2\n        /* \"#utility.yul\":2219:2262   */\n      eq\n        /* \"#utility.yul\":2209:2280   */\n      tag_158\n      jumpi\n        /* \"#utility.yul\":2276:2277   */\n      0x00\n        /* \"#utility.yul\":2273:2274   */\n      dup1\n        /* \"#utility.yul\":2266:2278   */\n      revert\n        /* \"#utility.yul\":2209:2280   */\n    tag_158:\n        /* \"#utility.yul\":2148:2286   */\n      pop\n      jump\t// out\n        /* \"#utility.yul\":2292:2447   */\n    tag_110:\n        /* \"#utility.yul\":2346:2351   */\n      0x00\n        /* \"#utility.yul\":2384:2390   */\n      dup2\n        /* \"#utility.yul\":2371:2391   */\n      calldataload\n        /* \"#utility.yul\":2362:2391   */\n      swap1\n      pop\n        /* \"#utility.yul\":2400:2441   */\n      tag_160\n        /* \"#utility.yul\":2435:2440   */\n      dup2\n        /* \"#utility.yul\":2400:2441   */\n      tag_109\n      jump\t// in\n    tag_160:\n        /* \"#utility.yul\":2292:2447   */\n      swap3\n      swap2\n      pop\n      pop\n      jump\t// out\n        /* \"#utility.yul\":2453:2575   */\n    tag_111:\n        /* \"#utility.yul\":2526:2550   */\n      tag_162\n        /* \"#utility.yul\":2544:2549   */\n      dup2\n        /* \"#utility.yul\":2526:2550   */\n      tag_97\n      jump\t// in\n    tag_162:\n        /* \"#utility.yul\":2519:2524   */\n      dup2\n        /* \"#utility.yul\":2516:2551   */\n      eq\n        /* \"#utility.yul\":2506:2569   */\n      tag_163\n      jumpi\n        /* \"#utility.yul\":2565:2566   */\n      0x00\n        /* \"#utility.yul\":2562:2563   */\n      dup1\n        /* \"#utility.yul\":2555:2567   */\n      revert\n        /* \"#utility.yul\":2506:2569   */\n    tag_163:\n        /* \"#utility.yul\":2453:2575   */\n      pop\n      jump\t// out\n        /* \"#utility.yul\":2581:2720   */\n    tag_112:\n        /* \"#utility.yul\":2627:2632   */\n      0x00\n        /* \"#utility.yul\":2665:2671   */\n      dup2\n        /* \"#utility.yul\":2652:2672   */\n      calldataload\n        /* \"#utility.yul\":2643:2672   */\n      swap1\n      pop\n        /* \"#utility.yul\":2681:2714   */\n      tag_165\n        /* \"#utility.yul\":2708:2713   */\n      dup2\n        /* \"#utility.yul\":2681:2714   */\n      tag_111\n      jump\t// in\n    tag_165:\n        /* \"#utility.yul\":2581:2720   */\n      swap3\n      swap2\n      pop\n      pop\n      jump\t// out\n        /* \"#utility.yul\":2726:3216   */\n    tag_48:\n        /* \"#utility.yul\":2802:2808   */\n      0x00\n        /* \"#utility.yul\":2810:2816   */\n      dup1\n        /* \"#utility.yul\":2859:2861   */\n      0x40\n        /* \"#utility.yul\":2847:2856   */\n      dup4\n        /* \"#utility.yul\":2838:2845   */\n      dup6\n        /* \"#utility.yul\":2834:2857   */\n      sub\n        /* \"#utility.yul\":2830:2862   */\n      slt\n        /* \"#utility.yul\":2827:2946   */\n      iszero\n      tag_167\n      jumpi\n        /* \"#utility.yul\":2865:2944   */\n      tag_168\n      tag_102\n      jump\t// in\n    tag_168:\n        /* \"#utility.yul\":2827:2946   */\n    tag_167:\n        /* \"#utility.yul\":2985:2986   */\n      0x00\n        /* \"#utility.yul\":3010:3071   */\n      tag_169\n        /* \"#utility.yul\":3063:3070   */\n      dup6\n        /* \"#utility.yul\":3054:3060   */\n      dup3\n        /* \"#utility.yul\":3043:3052   */\n      dup7\n        /* \"#utility.yul\":3039:3061   */\n      add\n        /* \"#utility.yul\":3010:3071   */\n      tag_110\n      jump\t// in\n    tag_169:\n        /* \"#utility.yul\":3000:3071   */\n      swap3\n      pop\n        /* \"#utility.yul\":2956:3081   */\n      pop\n        /* \"#utility.yul\":3120:3122   */\n      0x20\n        /* \"#utility.yul\":3146:3199   */\n      tag_170\n        /* \"#utility.yul\":3191:3198   */\n      dup6\n        /* \"#utility.yul\":3182:3188   */\n      dup3\n        /* \"#utility.yul\":3171:3180   */\n      dup7\n        /* \"#utility.yul\":3167:3189   */\n      add\n        /* \"#utility.yul\":3146:3199   */\n      tag_112\n      jump\t// in\n    tag_170:\n        /* \"#utility.yul\":3136:3199   */\n      swap2\n      pop\n        /* \"#utility.yul\":3091:3209   */\n      pop\n        /* \"#utility.yul\":2726:3216   */\n      swap3\n      pop\n      swap3\n      swap1\n      pop\n      jump\t// out\n        /* \"#utility.yul\":3222:3402   */\n    tag_113:\n        /* \"#utility.yul\":3270:3347   */\n      0x4e487b7100000000000000000000000000000000000000000000000000000000\n        /* \"#utility.yul\":3267:3268   */\n      0x00\n        /* \"#utility.yul\":3260:3348   */\n      mstore\n        /* \"#utility.yul\":3367:3371   */\n      0x11\n        /* \"#utility.yul\":3364:3365   */\n      0x04\n        /* \"#utility.yul\":3357:3372   */\n      mstore\n        /* \"#utility.yul\":3391:3395   */\n      0x24\n        /* \"#utility.yul\":3388:3389   */\n      0x00\n        /* \"#utility.yul\":3381:3396   */\n      revert\n        /* \"#utility.yul\":3408:3602   */\n    tag_52:\n        /* \"#utility.yul\":3448:3452   */\n      0x00\n        /* \"#utility.yul\":3468:3488   */\n      tag_173\n        /* \"#utility.yul\":3486:3487   */\n      dup3\n        /* \"#utility.yul\":3468:3488   */\n      tag_97\n      jump\t// in\n    tag_173:\n        /* \"#utility.yul\":3463:3488   */\n      swap2\n      pop\n        /* \"#utility.yul\":3502:3522   */\n      tag_174\n        /* \"#utility.yul\":3520:3521   */\n      dup4\n        /* \"#utility.yul\":3502:3522   */\n      tag_97\n      jump\t// in\n    tag_174:\n        /* \"#utility.yul\":3497:3522   */\n      swap3\n      pop\n        /* \"#utility.yul\":3546:3547   */\n      dup3\n        /* \"#utility.yul\":3543:3544   */\n      dup3\n        /* \"#utility.yul\":3539:3548   */\n      sub\n        /* \"#utility.yul\":3531:3548   */\n      swap1\n      pop\n        /* \"#utility.yul\":3570:3571   */\n      dup2\n        /* \"#utility.yul\":3564:3568   */\n      dup2\n        /* \"#utility.yul\":3561:3572   */\n      gt\n        /* \"#utility.yul\":3558:3595   */\n      iszero\n      tag_175\n      jumpi\n        /* \"#utility.yul\":3575:3593   */\n      tag_176\n      tag_113\n      jump\t// in\n    tag_176:\n        /* \"#utility.yul\":3558:3595   */\n    tag_175:\n        /* \"#utility.yul\":3408:3602   */\n      swap3\n      swap2\n      pop\n      pop\n      jump\t// out\n        /* \"#utility.yul\":3608:3726   */\n    tag_114:\n        /* \"#utility.yul\":3695:3719   */\n      tag_178\n        /* \"#utility.yul\":3713:3718   */\n      dup2\n        /* \"#utility.yul\":3695:3719   */\n      tag_105\n      jump\t// in\n    tag_178:\n        /* \"#utility.yul\":3690:3693   */\n      dup3\n        /* \"#utility.yul\":3683:3720   */\n      mstore\n        /* \"#utility.yul\":3608:3726   */\n      pop\n      pop\n      jump\t// out\n        /* \"#utility.yul\":3732:3954   */\n    tag_56:\n        /* \"#utility.yul\":3825:3829   */\n      0x00\n        /* \"#utility.yul\":3863:3865   */\n      0x20\n        /* \"#utility.yul\":3852:3861   */\n      dup3\n        /* \"#utility.yul\":3848:3866   */\n      add\n        /* \"#utility.yul\":3840:3866   */\n      swap1\n      pop\n        /* \"#utility.yul\":3876:3947   */\n      tag_180\n        /* \"#utility.yul\":3944:3945   */\n      0x00\n        /* \"#utility.yul\":3933:3942   */\n      dup4\n        /* \"#utility.yul\":3929:3946   */\n      add\n        /* \"#utility.yul\":3920:3926   */\n      dup5\n        /* \"#utility.yul\":3876:3947   */\n      tag_114\n      jump\t// in\n    tag_180:\n        /* \"#utility.yul\":3732:3954   */\n      swap3\n      swap2\n      pop\n      pop\n      jump\t// out\n        /* \"#utility.yul\":3960:4151   */\n    tag_63:\n        /* \"#utility.yul\":4000:4003   */\n      0x00\n        /* \"#utility.yul\":4019:4039   */\n      tag_182\n        /* \"#utility.yul\":4037:4038   */\n      dup3\n        /* \"#utility.yul\":4019:4039   */\n      tag_97\n      jump\t// in\n    tag_182:\n        /* \"#utility.yul\":4014:4039   */\n      swap2\n      pop\n        /* \"#utility.yul\":4053:4073   */\n      tag_183\n        /* \"#utility.yul\":4071:4072   */\n      dup4\n        /* \"#utility.yul\":4053:4073   */\n      tag_97\n      jump\t// in\n    tag_183:\n        /* \"#utility.yul\":4048:4073   */\n      swap3\n      pop\n        /* \"#utility.yul\":4096:4097   */\n      dup3\n        /* \"#utility.yul\":4093:4094   */\n      dup3\n        /* \"#utility.yul\":4089:4098   */\n      add\n        /* \"#utility.yul\":4082:4098   */\n      swap1\n      pop\n        /* \"#utility.yul\":4117:4120   */\n      dup1\n        /* \"#utility.yul\":4114:4115   */\n      dup3\n        /* \"#utility.yul\":4111:4121   */\n      gt\n        /* \"#utility.yul\":4108:4144   */\n      iszero\n      tag_184\n      jumpi\n        /* \"#utility.yul\":4124:4142   */\n      tag_185\n      tag_113\n      jump\t// in\n    tag_185:\n        /* \"#utility.yul\":4108:4144   */\n    tag_184:\n        /* \"#utility.yul\":3960:4151   */\n      swap3\n      swap2\n      pop\n      pop\n      jump\t// out\n        /* \"#utility.yul\":4157:4489   */\n    tag_66:\n        /* \"#utility.yul\":4278:4282   */\n      0x00\n        /* \"#utility.yul\":4316:4318   */\n      0x40\n        /* \"#utility.yul\":4305:4314   */\n      dup3\n        /* \"#utility.yul\":4301:4319   */\n      add\n        /* \"#utility.yul\":4293:4319   */\n      swap1\n      pop\n        /* \"#utility.yul\":4329:4400   */\n      tag_187\n        /* \"#utility.yul\":4397:4398   */\n      0x00\n        /* \"#utility.yul\":4386:4395   */\n      dup4\n        /* \"#utility.yul\":4382:4399   */\n      add\n        /* \"#utility.yul\":4373:4379   */\n      dup6\n        /* \"#utility.yul\":4329:4400   */\n      tag_114\n      jump\t// in\n    tag_187:\n        /* \"#utility.yul\":4410:4482   */\n      tag_188\n        /* \"#utility.yul\":4478:4480   */\n      0x20\n        /* \"#utility.yul\":4467:4476   */\n      dup4\n        /* \"#utility.yul\":4463:4481   */\n      add\n        /* \"#utility.yul\":4454:4460   */\n      dup5\n        /* \"#utility.yul\":4410:4482   */\n      tag_98\n      jump\t// in\n    tag_188:\n        /* \"#utility.yul\":4157:4489   */\n      swap4\n      swap3\n      pop\n      pop\n      pop\n      jump\t// out\n        /* \"#utility.yul\":4495:4937   */\n    tag_70:\n        /* \"#utility.yul\":4644:4648   */\n      0x00\n        /* \"#utility.yul\":4682:4684   */\n      0x60\n        /* \"#utility.yul\":4671:4680   */\n      dup3\n        /* \"#utility.yul\":4667:4685   */\n      add\n        /* \"#utility.yul\":4659:4685   */\n      swap1\n      pop\n        /* \"#utility.yul\":4695:4766   */\n      tag_190\n        /* \"#utility.yul\":4763:4764   */\n      0x00\n        /* \"#utility.yul\":4752:4761   */\n      dup4\n        /* \"#utility.yul\":4748:4765   */\n      add\n        /* \"#utility.yul\":4739:4745   */\n      dup7\n        /* \"#utility.yul\":4695:4766   */\n      tag_114\n      jump\t// in\n    tag_190:\n        /* \"#utility.yul\":4776:4848   */\n      tag_191\n        /* \"#utility.yul\":4844:4846   */\n      0x20\n        /* \"#utility.yul\":4833:4842   */\n      dup4\n        /* \"#utility.yul\":4829:4847   */\n      add\n        /* \"#utility.yul\":4820:4826   */\n      dup6\n        /* \"#utility.yul\":4776:4848   */\n      tag_98\n      jump\t// in\n    tag_191:\n        /* \"#utility.yul\":4858:4930   */\n      tag_192\n        /* \"#utility.yul\":4926:4928   */\n      0x40\n        /* \"#utility.yul\":4915:4924   */\n      dup4\n        /* \"#utility.yul\":4911:4929   */\n      add\n        /* \"#utility.yul\":4902:4908   */\n      dup5\n        /* \"#utility.yul\":4858:4930   */\n      tag_98\n      jump\t// in\n    tag_192:\n        /* \"#utility.yul\":4495:4937   */\n      swap5\n      swap4\n      pop\n      pop\n      pop\n      pop\n      jump\t// out\n        /* \"#utility.yul\":4943:5003   */\n    tag_115:\n        /* \"#utility.yul\":4971:4974   */\n      0x00\n        /* \"#utility.yul\":4992:4997   */\n      dup2\n        /* \"#utility.yul\":4985:4997   */\n      swap1\n      pop\n        /* \"#utility.yul\":4943:5003   */\n      swap2\n      swap1\n      pop\n      jump\t// out\n        /* \"#utility.yul\":5009:5151   */\n    tag_116:\n        /* \"#utility.yul\":5059:5068   */\n      0x00\n        /* \"#utility.yul\":5092:5145   */\n      tag_195\n        /* \"#utility.yul\":5110:5144   */\n      tag_196\n        /* \"#utility.yul\":5119:5143   */\n      tag_197\n        /* \"#utility.yul\":5137:5142   */\n      dup5\n        /* \"#utility.yul\":5119:5143   */\n      tag_104\n      jump\t// in\n    tag_197:\n        /* \"#utility.yul\":5110:5144   */\n      tag_115\n      jump\t// in\n    tag_196:\n        /* \"#utility.yul\":5092:5145   */\n      tag_104\n      jump\t// in\n    tag_195:\n        /* \"#utility.yul\":5079:5145   */\n      swap1\n      pop\n        /* \"#utility.yul\":5009:5151   */\n      swap2\n      swap1\n      pop\n      jump\t// out\n        /* \"#utility.yul\":5157:5283   */\n    tag_117:\n        /* \"#utility.yul\":5207:5216   */\n      0x00\n        /* \"#utility.yul\":5240:5277   */\n      tag_199\n        /* \"#utility.yul\":5271:5276   */\n      dup3\n        /* \"#utility.yul\":5240:5277   */\n      tag_116\n      jump\t// in\n    tag_199:\n        /* \"#utility.yul\":5227:5277   */\n      swap1\n      pop\n        /* \"#utility.yul\":5157:5283   */\n      swap2\n      swap1\n      pop\n      jump\t// out\n        /* \"#utility.yul\":5289:5423   */\n    tag_118:\n        /* \"#utility.yul\":5347:5356   */\n      0x00\n        /* \"#utility.yul\":5380:5417   */\n      tag_201\n        /* \"#utility.yul\":5411:5416   */\n      dup3\n        /* \"#utility.yul\":5380:5417   */\n      tag_117\n      jump\t// in\n    tag_201:\n        /* \"#utility.yul\":5367:5417   */\n      swap1\n      pop\n        /* \"#utility.yul\":5289:5423   */\n      swap2\n      swap1\n      pop\n      jump\t// out\n        /* \"#utility.yul\":5429:5576   */\n    tag_119:\n        /* \"#utility.yul\":5524:5569   */\n      tag_203\n        /* \"#utility.yul\":5563:5568   */\n      dup2\n        /* \"#utility.yul\":5524:5569   */\n      tag_118\n      jump\t// in\n    tag_203:\n        /* \"#utility.yul\":5519:5522   */\n      dup3\n        /* \"#utility.yul\":5512:5570   */\n      mstore\n        /* \"#utility.yul\":5429:5576   */\n      pop\n      pop\n      jump\t// out\n        /* \"#utility.yul\":5582:6040   */\n    tag_82:\n        /* \"#utility.yul\":5739:5743   */\n      0x00\n        /* \"#utility.yul\":5777:5779   */\n      0x60\n        /* \"#utility.yul\":5766:5775   */\n      dup3\n        /* \"#utility.yul\":5762:5780   */\n      add\n        /* \"#utility.yul\":5754:5780   */\n      swap1\n      pop\n        /* \"#utility.yul\":5790:5869   */\n      tag_205\n        /* \"#utility.yul\":5866:5867   */\n      0x00\n        /* \"#utility.yul\":5855:5864   */\n      dup4\n        /* \"#utility.yul\":5851:5868   */\n      add\n        /* \"#utility.yul\":5842:5848   */\n      dup7\n        /* \"#utility.yul\":5790:5869   */\n      tag_119\n      jump\t// in\n    tag_205:\n        /* \"#utility.yul\":5879:5951   */\n      tag_206\n        /* \"#utility.yul\":5947:5949   */\n      0x20\n        /* \"#utility.yul\":5936:5945   */\n      dup4\n        /* \"#utility.yul\":5932:5950   */\n      add\n        /* \"#utility.yul\":5923:5929   */\n      dup6\n        /* \"#utility.yul\":5879:5951   */\n      tag_98\n      jump\t// in\n    tag_206:\n        /* \"#utility.yul\":5961:6033   */\n      tag_207\n        /* \"#utility.yul\":6029:6031   */\n      0x40\n        /* \"#utility.yul\":6018:6027   */\n      dup4\n        /* \"#utility.yul\":6014:6032   */\n      add\n        /* \"#utility.yul\":6005:6011   */\n      dup5\n        /* \"#utility.yul\":5961:6033   */\n      tag_98\n      jump\t// in\n    tag_207:\n        /* \"#utility.yul\":5582:6040   */\n      swap5\n      swap4\n      pop\n      pop\n      pop\n      pop\n      jump\t// out\n        /* \"#utility.yul\":6046:6193   */\n    tag_120:\n        /* \"#utility.yul\":6147:6158   */\n      0x00\n        /* \"#utility.yul\":6184:6187   */\n      dup2\n        /* \"#utility.yul\":6169:6187   */\n      swap1\n      pop\n        /* \"#utility.yul\":6046:6193   */\n      swap3\n      swap2\n      pop\n      pop\n      jump\t// out\n        /* \"#utility.yul\":6199:6313   */\n    tag_121:\n      pop\n      jump\t// out\n        /* \"#utility.yul\":6319:6717   */\n    tag_122:\n        /* \"#utility.yul\":6478:6481   */\n      0x00\n        /* \"#utility.yul\":6499:6582   */\n      tag_211\n        /* \"#utility.yul\":6580:6581   */\n      0x00\n        /* \"#utility.yul\":6575:6578   */\n      dup4\n        /* \"#utility.yul\":6499:6582   */\n      tag_120\n      jump\t// in\n    tag_211:\n        /* \"#utility.yul\":6492:6582   */\n      swap2\n      pop\n        /* \"#utility.yul\":6591:6684   */\n      tag_212\n        /* \"#utility.yul\":6680:6683   */\n      dup3\n        /* \"#utility.yul\":6591:6684   */\n      tag_121\n      jump\t// in\n    tag_212:\n        /* \"#utility.yul\":6709:6710   */\n      0x00\n        /* \"#utility.yul\":6704:6707   */\n      dup3\n        /* \"#utility.yul\":6700:6711   */\n      add\n        /* \"#utility.yul\":6693:6711   */\n      swap1\n      pop\n        /* \"#utility.yul\":6319:6717   */\n      swap2\n      swap1\n      pop\n      jump\t// out\n        /* \"#utility.yul\":6723:7102   */\n    tag_84:\n        /* \"#utility.yul\":6907:6910   */\n      0x00\n        /* \"#utility.yul\":6929:7076   */\n      tag_214\n        /* \"#utility.yul\":7072:7075   */\n      dup3\n        /* \"#utility.yul\":6929:7076   */\n      tag_122\n      jump\t// in\n    tag_214:\n        /* \"#utility.yul\":6922:7076   */\n      swap2\n      pop\n        /* \"#utility.yul\":7093:7096   */\n      dup2\n        /* \"#utility.yul\":7086:7096   */\n      swap1\n      pop\n        /* \"#utility.yul\":6723:7102   */\n      swap2\n      swap1\n      pop\n      jump\t// out\n        /* \"#utility.yul\":7108:7206   */\n    tag_123:\n        /* \"#utility.yul\":7159:7165   */\n      0x00\n        /* \"#utility.yul\":7193:7198   */\n      dup2\n        /* \"#utility.yul\":7187:7199   */\n      mload\n        /* \"#utility.yul\":7177:7199   */\n      swap1\n      pop\n        /* \"#utility.yul\":7108:7206   */\n      swap2\n      swap1\n      pop\n      jump\t// out\n        /* \"#utility.yul\":7212:7380   */\n    tag_124:\n        /* \"#utility.yul\":7295:7306   */\n      0x00\n        /* \"#utility.yul\":7329:7335   */\n      dup3\n        /* \"#utility.yul\":7324:7327   */\n      dup3\n        /* \"#utility.yul\":7317:7336   */\n      mstore\n        /* \"#utility.yul\":7369:7373   */\n      0x20\n        /* \"#utility.yul\":7364:7367   */\n      dup3\n        /* \"#utility.yul\":7360:7374   */\n      add\n        /* \"#utility.yul\":7345:7374   */\n      swap1\n      pop\n        /* \"#utility.yul\":7212:7380   */\n      swap3\n      swap2\n      pop\n      pop\n      jump\t// out\n        /* \"#utility.yul\":7386:7632   */\n    tag_125:\n        /* \"#utility.yul\":7467:7468   */\n      0x00\n        /* \"#utility.yul\":7477:7590   */\n    tag_218:\n        /* \"#utility.yul\":7491:7497   */\n      dup4\n        /* \"#utility.yul\":7488:7489   */\n      dup2\n        /* \"#utility.yul\":7485:7498   */\n      lt\n        /* \"#utility.yul\":7477:7590   */\n      iszero\n      tag_220\n      jumpi\n        /* \"#utility.yul\":7576:7577   */\n      dup1\n        /* \"#utility.yul\":7571:7574   */\n      dup3\n        /* \"#utility.yul\":7567:7578   */\n      add\n        /* \"#utility.yul\":7561:7579   */\n      mload\n        /* \"#utility.yul\":7557:7558   */\n      dup2\n        /* \"#utility.yul\":7552:7555   */\n      dup5\n        /* \"#utility.yul\":7548:7559   */\n      add\n        /* \"#utility.yul\":7541:7580   */\n      mstore\n        /* \"#utility.yul\":7513:7515   */\n      0x20\n        /* \"#utility.yul\":7510:7511   */\n      dup2\n        /* \"#utility.yul\":7506:7516   */\n      add\n        /* \"#utility.yul\":7501:7516   */\n      swap1\n      pop\n        /* \"#utility.yul\":7477:7590   */\n      jump(tag_218)\n    tag_220:\n        /* \"#utility.yul\":7624:7625   */\n      0x00\n        /* \"#utility.yul\":7615:7621   */\n      dup5\n        /* \"#utility.yul\":7610:7613   */\n      dup5\n        /* \"#utility.yul\":7606:7622   */\n      add\n        /* \"#utility.yul\":7599:7626   */\n      mstore\n        /* \"#utility.yul\":7448:7632   */\n      pop\n        /* \"#utility.yul\":7386:7632   */\n      pop\n      pop\n      pop\n      jump\t// out\n        /* \"#utility.yul\":7638:7740   */\n    tag_126:\n        /* \"#utility.yul\":7679:7685   */\n      0x00\n        /* \"#utility.yul\":7730:7732   */\n      0x1f\n        /* \"#utility.yul\":7726:7733   */\n      not\n        /* \"#utility.yul\":7721:7723   */\n      0x1f\n        /* \"#utility.yul\":7714:7719   */\n      dup4\n        /* \"#utility.yul\":7710:7724   */\n      add\n        /* \"#utility.yul\":7706:7734   */\n      and\n        /* \"#utility.yul\":7696:7734   */\n      swap1\n      pop\n        /* \"#utility.yul\":7638:7740   */\n      swap2\n      swap1\n      pop\n      jump\t// out\n        /* \"#utility.yul\":7746:8119   */\n    tag_127:\n        /* \"#utility.yul\":7832:7835   */\n      0x00\n        /* \"#utility.yul\":7860:7898   */\n      tag_223\n        /* \"#utility.yul\":7892:7897   */\n      dup3\n        /* \"#utility.yul\":7860:7898   */\n      tag_123\n      jump\t// in\n    tag_223:\n        /* \"#utility.yul\":7914:7984   */\n      tag_224\n        /* \"#utility.yul\":7977:7983   */\n      dup2\n        /* \"#utility.yul\":7972:7975   */\n      dup6\n        /* \"#utility.yul\":7914:7984   */\n      tag_124\n      jump\t// in\n    tag_224:\n        /* \"#utility.yul\":7907:7984   */\n      swap4\n      pop\n        /* \"#utility.yul\":7993:8058   */\n      tag_225\n        /* \"#utility.yul\":8051:8057   */\n      dup2\n        /* \"#utility.yul\":8046:8049   */\n      dup6\n        /* \"#utility.yul\":8039:8043   */\n      0x20\n        /* \"#utility.yul\":8032:8037   */\n      dup7\n        /* \"#utility.yul\":8028:8044   */\n      add\n        /* \"#utility.yul\":7993:8058   */\n      tag_125\n      jump\t// in\n    tag_225:\n        /* \"#utility.yul\":8083:8112   */\n      tag_226\n        /* \"#utility.yul\":8105:8111   */\n      dup2\n        /* \"#utility.yul\":8083:8112   */\n      tag_126\n      jump\t// in\n    tag_226:\n        /* \"#utility.yul\":8078:8081   */\n      dup5\n        /* \"#utility.yul\":8074:8113   */\n      add\n        /* \"#utility.yul\":8067:8113   */\n      swap2\n      pop\n        /* \"#utility.yul\":7836:8119   */\n      pop\n        /* \"#utility.yul\":7746:8119   */\n      swap3\n      swap2\n      pop\n      pop\n      jump\t// out\n        /* \"#utility.yul\":8125:8560   */\n    tag_92:\n        /* \"#utility.yul\":8272:8276   */\n      0x00\n        /* \"#utility.yul\":8310:8312   */\n      0x40\n        /* \"#utility.yul\":8299:8308   */\n      dup3\n        /* \"#utility.yul\":8295:8313   */\n      add\n        /* \"#utility.yul\":8287:8313   */\n      swap1\n      pop\n        /* \"#utility.yul\":8323:8402   */\n      tag_228\n        /* \"#utility.yul\":8399:8400   */\n      0x00\n        /* \"#utility.yul\":8388:8397   */\n      dup4\n        /* \"#utility.yul\":8384:8401   */\n      add\n        /* \"#utility.yul\":8375:8381   */\n      dup6\n        /* \"#utility.yul\":8323:8402   */\n      tag_119\n      jump\t// in\n    tag_228:\n        /* \"#utility.yul\":8449:8458   */\n      dup2\n        /* \"#utility.yul\":8443:8447   */\n      dup2\n        /* \"#utility.yul\":8439:8459   */\n      sub\n        /* \"#utility.yul\":8434:8436   */\n      0x20\n        /* \"#utility.yul\":8423:8432   */\n      dup4\n        /* \"#utility.yul\":8419:8437   */\n      add\n        /* \"#utility.yul\":8412:8460   */\n      mstore\n        /* \"#utility.yul\":8477:8553   */\n      tag_229\n        /* \"#utility.yul\":8548:8552   */\n      dup2\n        /* \"#utility.yul\":8539:8545   */\n      dup5\n        /* \"#utility.yul\":8477:8553   */\n      tag_127\n      jump\t// in\n    tag_229:\n        /* \"#utility.yul\":8469:8553   */\n      swap1\n      pop\n        /* \"#utility.yul\":8125:8560   */\n      swap4\n      swap3\n      pop\n      pop\n      pop\n      jump\t// out\n        /* \"#utility.yul\":8566:8875   */\n    tag_96:\n        /* \"#utility.yul\":8677:8681   */\n      0x00\n        /* \"#utility.yul\":8715:8717   */\n      0x20\n        /* \"#utility.yul\":8704:8713   */\n      dup3\n        /* \"#utility.yul\":8700:8718   */\n      add\n        /* \"#utility.yul\":8692:8718   */\n      swap1\n      pop\n        /* \"#utility.yul\":8764:8773   */\n      dup2\n        /* \"#utility.yul\":8758:8762   */\n      dup2\n        /* \"#utility.yul\":8754:8774   */\n      sub\n        /* \"#utility.yul\":8750:8751   */\n      0x00\n        /* \"#utility.yul\":8739:8748   */\n      dup4\n        /* \"#utility.yul\":8735:8752   */\n      add\n        /* \"#utility.yul\":8728:8775   */\n      mstore\n        /* \"#utility.yul\":8792:8868   */\n      tag_231\n        /* \"#utility.yul\":8863:8867   */\n      dup2\n        /* \"#utility.yul\":8854:8860   */\n      dup5\n        /* \"#utility.yul\":8792:8868   */\n      tag_127\n      jump\t// in\n    tag_231:\n        /* \"#utility.yul\":8784:8868   */\n      swap1\n      pop\n        /* \"#utility.yul\":8566:8875   */\n      swap3\n      swap2\n      pop\n      pop\n      jump\t// out\n\n    auxdata: 0xa2646970667358221220472f730ad6fa4e4ff89d933d9df823a88edf8f2a0c39c5e43ac67bc27c107af964736f6c63430008140033\n}\n",
				"bytecode": {
					"linkReferences": {},
					"object": "60c060405234801561000f575f80fd5b50604051610de6380380610de6833981810160405281019061003191906100c2565b5f805f6101000a81548160ff0219169083151502179055503373ffffffffffffffffffffffffffffffffffffffff1660808173ffffffffffffffffffffffffffffffffffffffff16815250508060a08181525050506100ed565b5f80fd5b5f819050919050565b6100a18161008f565b81146100ab575f80fd5b50565b5f815190506100bc81610098565b92915050565b5f602082840312156100d7576100d661008b565b5b5f6100e4848285016100ae565b91505092915050565b60805160a051610cc36101235f395f81816101e30152818161035b0152818161049a01526104ef01525f61022a0152610cc35ff3fe608060405260043610610085575f3560e01c80638f5949f9116100585780638f5949f9146100fd578063ad7a672f14610127578063e7394daf14610151578063ecbea24d1461018d578063f3fef3a3146101b757610085565b80630295d71b1461008957806329c68dc1146100b35780634a7ba7d6146100c957806388d15ddc146100d3575b5f80fd5b348015610094575f80fd5b5061009d6101df565b6040516100aa9190610855565b60405180910390f35b3480156100be575f80fd5b506100c7610211565b005b6100d161030b565b005b3480156100de575f80fd5b506100e7610498565b6040516100f49190610855565b60405180910390f35b348015610108575f80fd5b506101116104bc565b60405161011e9190610888565b60405180910390f35b348015610132575f80fd5b5061013b6104d0565b6040516101489190610855565b60405180910390f35b34801561015c575f80fd5b50610177600480360381019061017291906108ff565b6104d7565b6040516101849190610855565b60405180910390f35b348015610198575f80fd5b506101a16104ec565b6040516101ae9190610855565b60405180910390f35b3480156101c2575f80fd5b506101dd60048036038101906101d8919061098f565b610513565b005b5f477f000000000000000000000000000000000000000000000000000000000000000061020c91906109fa565b905090565b3373ffffffffffffffffffffffffffffffffffffffff167f000000000000000000000000000000000000000000000000000000000000000073ffffffffffffffffffffffffffffffffffffffff16146102a157336040517fc217e2f60000000000000000000000000000000000000000000000000000000081526004016102989190610a3c565b60405180910390fd5b5f8054906101000a900460ff16155f806101000a81548160ff0219169083151502179055507f5796a129928d10076a601609d5da7a8b014c5dc55ad403abc3b9e0497f06b6025f8054906101000a900460ff166040516103019190610888565b60405180910390a1565b5f8054906101000a900460ff1661035957336040517fb4031ba10000000000000000000000000000000000000000000000000000000081526004016103509190610a3c565b60405180910390fd5b7f000000000000000000000000000000000000000000000000000000000000000047346103869190610a55565b11156103cb5733346040517fb98438ed0000000000000000000000000000000000000000000000000000000081526004016103c2929190610a88565b60405180910390fd5b3460015f3373ffffffffffffffffffffffffffffffffffffffff1673ffffffffffffffffffffffffffffffffffffffff1681526020019081526020015f205f8282546104179190610a55565b925050819055507f15ba1938fae5e0c6e44ccb0f8758616eb7c4fa80e0f250dcd3d51c367f0d57e9333460015f3373ffffffffffffffffffffffffffffffffffffffff1673ffffffffffffffffffffffffffffffffffffffff1681526020019081526020015f205460405161048e93929190610aaf565b60405180910390a1565b7f000000000000000000000000000000000000000000000000000000000000000081565b5f805f9054906101000a900460ff16905090565b5f47905090565b6001602052805f5260405f205f915090505481565b5f7f0000000000000000000000000000000000000000000000000000000000000000905090565b5f8054906101000a900460ff1661056157336040517fb4031ba10000000000000000000000000000000000000000000000000000000081526004016105589190610a3c565b60405180910390fd5b8060015f8473ffffffffffffffffffffffffffffffffffffffff1673ffffffffffffffffffffffffffffffffffffffff1681526020019081526020015f2054101561062457338160015f8573ffffffffffffffffffffffffffffffffffffffff1673ffffffffffffffffffffffffffffffffffffffff1681526020019081526020015f20546040517fa4ce9e6700000000000000000000000000000000000000000000000000000000815260040161061b93929190610aaf565b60405180910390fd5b8060015f8473ffffffffffffffffffffffffffffffffffffffff1673ffffffffffffffffffffffffffffffffffffffff1681526020019081526020015f205f82825461067091906109fa565b925050819055507f07c8766f9b60f35d834f5dcb63820c5652b10c311b733da3e4ed8b8bcbc4a13d828260015f8673ffffffffffffffffffffffffffffffffffffffff1673ffffffffffffffffffffffffffffffffffffffff1681526020019081526020015f20546040516106e793929190610b3f565b60405180910390a15f808373ffffffffffffffffffffffffffffffffffffffff168360405161071590610ba1565b5f6040518083038185875af1925050503d805f811461074f576040519150601f19603f3d011682016040523d82523d5f602084013e610754565b606091505b5091509150816107a8576107698484836107ae565b83816040517fc2056ca600000000000000000000000000000000000000000000000000000000815260040161079f929190610c3f565b60405180910390fd5b50505050565b8160015f8573ffffffffffffffffffffffffffffffffffffffff1673ffffffffffffffffffffffffffffffffffffffff1681526020019081526020015f205f8282546107fa9190610a55565b925050819055507f0e386ae850e8423b00f74526a4aaa2c61ae81780e62a8a0d17116e076c0192b7816040516108309190610c6d565b60405180910390a1505050565b5f819050919050565b61084f8161083d565b82525050565b5f6020820190506108685f830184610846565b92915050565b5f8115159050919050565b6108828161086e565b82525050565b5f60208201905061089b5f830184610879565b92915050565b5f80fd5b5f73ffffffffffffffffffffffffffffffffffffffff82169050919050565b5f6108ce826108a5565b9050919050565b6108de816108c4565b81146108e8575f80fd5b50565b5f813590506108f9816108d5565b92915050565b5f60208284031215610914576109136108a1565b5b5f610921848285016108eb565b91505092915050565b5f610934826108a5565b9050919050565b6109448161092a565b811461094e575f80fd5b50565b5f8135905061095f8161093b565b92915050565b61096e8161083d565b8114610978575f80fd5b50565b5f8135905061098981610965565b92915050565b5f80604083850312156109a5576109a46108a1565b5b5f6109b285828601610951565b92505060206109c38582860161097b565b9150509250929050565b7f4e487b71000000000000000000000000000000000000000000000000000000005f52601160045260245ffd5b5f610a048261083d565b9150610a0f8361083d565b9250828203905081811115610a2757610a266109cd565b5b92915050565b610a36816108c4565b82525050565b5f602082019050610a4f5f830184610a2d565b92915050565b5f610a5f8261083d565b9150610a6a8361083d565b9250828201905080821115610a8257610a816109cd565b5b92915050565b5f604082019050610a9b5f830185610a2d565b610aa86020830184610846565b9392505050565b5f606082019050610ac25f830186610a2d565b610acf6020830185610846565b610adc6040830184610846565b949350505050565b5f819050919050565b5f610b07610b02610afd846108a5565b610ae4565b6108a5565b9050919050565b5f610b1882610aed565b9050919050565b5f610b2982610b0e565b9050919050565b610b3981610b1f565b82525050565b5f606082019050610b525f830186610b30565b610b5f6020830185610846565b610b6c6040830184610846565b949350505050565b5f81905092915050565b50565b5f610b8c5f83610b74565b9150610b9782610b7e565b5f82019050919050565b5f610bab82610b81565b9150819050919050565b5f81519050919050565b5f82825260208201905092915050565b5f5b83811015610bec578082015181840152602081019050610bd1565b5f8484015250505050565b5f601f19601f8301169050919050565b5f610c1182610bb5565b610c1b8185610bbf565b9350610c2b818560208601610bcf565b610c3481610bf7565b840191505092915050565b5f604082019050610c525f830185610b30565b8181036020830152610c648184610c07565b90509392505050565b5f6020820190508181035f830152610c858184610c07565b90509291505056fea2646970667358221220472f730ad6fa4e4ff89d933d9df823a88edf8f2a0c39c5e43ac67bc27c107af964736f6c63430008140033",
					"opcodes": "PUSH1 0xC0 PUSH1 0x40 MSTORE CALLVALUE DUP1 ISZERO PUSH2 0xF JUMPI PUSH0 DUP1 REVERT JUMPDEST POP PUSH1 0x40 MLOAD PUSH2 0xDE6 CODESIZE SUB DUP1 PUSH2 0xDE6 DUP4 CODECOPY DUP2 DUP2 ADD PUSH1 0x40 MSTORE DUP2 ADD SWAP1 PUSH2 0x31 SWAP2 SWAP1 PUSH2 0xC2 JUMP JUMPDEST PUSH0 DUP1 PUSH0 PUSH2 0x100 EXP DUP2 SLOAD DUP2 PUSH1 0xFF MUL NOT AND SWAP1 DUP4 ISZERO ISZERO MUL OR SWAP1 SSTORE POP CALLER PUSH20 0xFFFFFFFFFFFFFFFFFFFFFFFFFFFFFFFFFFFFFFFF AND PUSH1 0x80 DUP2 PUSH20 0xFFFFFFFFFFFFFFFFFFFFFFFFFFFFFFFFFFFFFFFF AND DUP2 MSTORE POP POP DUP1 PUSH1 0xA0 DUP2 DUP2 MSTORE POP POP POP PUSH2 0xED JUMP JUMPDEST PUSH0 DUP1 REVERT JUMPDEST PUSH0 DUP2 SWAP1 POP SWAP2 SWAP1 POP JUMP JUMPDEST PUSH2 0xA1 DUP2 PUSH2 0x8F JUMP JUMPDEST DUP2 EQ PUSH2 0xAB JUMPI PUSH0 DUP1 REVERT JUMPDEST POP JUMP JUMPDEST PUSH0 DUP2 MLOAD SWAP1 POP PUSH2 0xBC DUP2 PUSH2 0x98 JUMP JUMPDEST SWAP3 SWAP2 POP POP JUMP JUMPDEST PUSH0 PUSH1 0x20 DUP3 DUP5 SUB SLT ISZERO PUSH2 0xD7 JUMPI PUSH2 0xD6 PUSH2 0x8B JUMP JUMPDEST JUMPDEST PUSH0 PUSH2 0xE4 DUP5 DUP3 DUP6 ADD PUSH2 0xAE JUMP JUMPDEST SWAP2 POP POP SWAP3 SWAP2 POP POP JUMP JUMPDEST PUSH1 0x80 MLOAD PUSH1 0xA0 MLOAD PUSH2 0xCC3 PUSH2 0x123 PUSH0 CODECOPY PUSH0 DUP2 DUP2 PUSH2 0x1E3 ADD MSTORE DUP2 DUP2 PUSH2 0x35B ADD MSTORE DUP2 DUP2 PUSH2 0x49A ADD MSTORE PUSH2 0x4EF ADD MSTORE PUSH0 PUSH2 0x22A ADD MSTORE PUSH2 0xCC3 PUSH0 RETURN INVALID PUSH1 0x80 PUSH1 0x40 MSTORE PUSH1 0x4 CALLDATASIZE LT PUSH2 0x85 JUMPI PUSH0 CALLDATALOAD PUSH1 0xE0 SHR DUP1 PUSH4 0x8F5949F9 GT PUSH2 0x58 JUMPI DUP1 PUSH4 0x8F5949F9 EQ PUSH2 0xFD JUMPI DUP1 PUSH4 0xAD7A672F EQ PUSH2 0x127 JUMPI DUP1 PUSH4 0xE7394DAF EQ PUSH2 0x151 JUMPI DUP1 PUSH4 0xECBEA24D EQ PUSH2 0x18D JUMPI DUP1 PUSH4 0xF3FEF3A3 EQ PUSH2 0x1B7 JUMPI PUSH2 0x85 JUMP JUMPDEST DUP1 PUSH4 0x295D71B EQ PUSH2 0x89 JUMPI DUP1 PUSH4 0x29C68DC1 EQ PUSH2 0xB3 JUMPI DUP1 PUSH4 0x4A7BA7D6 EQ PUSH2 0xC9 JUMPI DUP1 PUSH4 0x88D15DDC EQ PUSH2 0xD3 JUMPI JUMPDEST PUSH0 DUP1 REVERT JUMPDEST CALLVALUE DUP1 ISZERO PUSH2 0x94 JUMPI PUSH0 DUP1 REVERT JUMPDEST POP PUSH2 0x9D PUSH2 0x1DF JUMP JUMPDEST PUSH1 0x40 MLOAD PUSH2 0xAA SWAP2 SWAP1 PUSH2 0x855 JUMP JUMPDEST PUSH1 0x40 MLOAD DUP1 SWAP2 SUB SWAP1 RETURN JUMPDEST CALLVALUE DUP1 ISZERO PUSH2 0xBE JUMPI PUSH0 DUP1 REVERT JUMPDEST POP PUSH2 0xC7 PUSH2 0x211 JUMP JUMPDEST STOP JUMPDEST PUSH2 0xD1 PUSH2 0x30B JUMP JUMPDEST STOP JUMPDEST CALLVALUE DUP1 ISZERO PUSH2 0xDE JUMPI PUSH0 DUP1 REVERT JUMPDEST POP PUSH2 0xE7 PUSH2 0x498 JUMP JUMPDEST PUSH1 0x40 MLOAD PUSH2 0xF4 SWAP2 SWAP1 PUSH2 0x855 JUMP JUMPDEST PUSH1 0x40 MLOAD DUP1 SWAP2 SUB SWAP1 RETURN JUMPDEST CALLVALUE DUP1 ISZERO PUSH2 0x108 JUMPI PUSH0 DUP1 REVERT JUMPDEST POP PUSH2 0x111 PUSH2 0x4BC JUMP JUMPDEST PUSH1 0x40 MLOAD PUSH2 0x11E SWAP2 SWAP1 PUSH2 0x888 JUMP JUMPDEST PUSH1 0x40 MLOAD DUP1 SWAP2 SUB SWAP1 RETURN JUMPDEST CALLVALUE DUP1 ISZERO PUSH2 0x132 JUMPI PUSH0 DUP1 REVERT JUMPDEST POP PUSH2 0x13B PUSH2 0x4D0 JUMP JUMPDEST PUSH1 0x40 MLOAD PUSH2 0x148 SWAP2 SWAP1 PUSH2 0x855 JUMP JUMPDEST PUSH1 0x40 MLOAD DUP1 SWAP2 SUB SWAP1 RETURN JUMPDEST CALLVALUE DUP1 ISZERO PUSH2 0x15C JUMPI PUSH0 DUP1 REVERT JUMPDEST POP PUSH2 0x177 PUSH1 0x4 DUP1 CALLDATASIZE SUB DUP2 ADD SWAP1 PUSH2 0x172 SWAP2 SWAP1 PUSH2 0x8FF JUMP JUMPDEST PUSH2 0x4D7 JUMP JUMPDEST PUSH1 0x40 MLOAD PUSH2 0x184 SWAP2 SWAP1 PUSH2 0x855 JUMP JUMPDEST PUSH1 0x40 MLOAD DUP1 SWAP2 SUB SWAP1 RETURN JUMPDEST CALLVALUE DUP1 ISZERO PUSH2 0x198 JUMPI PUSH0 DUP1 REVERT JUMPDEST POP PUSH2 0x1A1 PUSH2 0x4EC JUMP JUMPDEST PUSH1 0x40 MLOAD PUSH2 0x1AE SWAP2 SWAP1 PUSH2 0x855 JUMP JUMPDEST PUSH1 0x40 MLOAD DUP1 SWAP2 SUB SWAP1 RETURN JUMPDEST CALLVALUE DUP1 ISZERO PUSH2 0x1C2 JUMPI PUSH0 DUP1 REVERT JUMPDEST POP PUSH2 0x1DD PUSH1 0x4 DUP1 CALLDATASIZE SUB DUP2 ADD SWAP1 PUSH2 0x1D8 SWAP2 SWAP1 PUSH2 0x98F JUMP JUMPDEST PUSH2 0x513 JUMP JUMPDEST STOP JUMPDEST PUSH0 SELFBALANCE PUSH32 0x0 PUSH2 0x20C SWAP2 SWAP1 PUSH2 0x9FA JUMP JUMPDEST SWAP1 POP SWAP1 JUMP JUMPDEST CALLER PUSH20 0xFFFFFFFFFFFFFFFFFFFFFFFFFFFFFFFFFFFFFFFF AND PUSH32 0x0 PUSH20 0xFFFFFFFFFFFFFFFFFFFFFFFFFFFFFFFFFFFFFFFF AND EQ PUSH2 0x2A1 JUMPI CALLER PUSH1 0x40 MLOAD PUSH32 0xC217E2F600000000000000000000000000000000000000000000000000000000 DUP2 MSTORE PUSH1 0x4 ADD PUSH2 0x298 SWAP2 SWAP1 PUSH2 0xA3C JUMP JUMPDEST PUSH1 0x40 MLOAD DUP1 SWAP2 SUB SWAP1 REVERT JUMPDEST PUSH0 DUP1 SLOAD SWAP1 PUSH2 0x100 EXP SWAP1 DIV PUSH1 0xFF AND ISZERO PUSH0 DUP1 PUSH2 0x100 EXP DUP2 SLOAD DUP2 PUSH1 0xFF MUL NOT AND SWAP1 DUP4 ISZERO ISZERO MUL OR SWAP1 SSTORE POP PUSH32 0x5796A129928D10076A601609D5DA7A8B014C5DC55AD403ABC3B9E0497F06B602 PUSH0 DUP1 SLOAD SWAP1 PUSH2 0x100 EXP SWAP1 DIV PUSH1 0xFF AND PUSH1 0x40 MLOAD PUSH2 0x301 SWAP2 SWAP1 PUSH2 0x888 JUMP JUMPDEST PUSH1 0x40 MLOAD DUP1 SWAP2 SUB SWAP1 LOG1 JUMP JUMPDEST PUSH0 DUP1 SLOAD SWAP1 PUSH2 0x100 EXP SWAP1 DIV PUSH1 0xFF AND PUSH2 0x359 JUMPI CALLER PUSH1 0x40 MLOAD PUSH32 0xB4031BA100000000000000000000000000000000000000000000000000000000 DUP2 MSTORE PUSH1 0x4 ADD PUSH2 0x350 SWAP2 SWAP1 PUSH2 0xA3C JUMP JUMPDEST PUSH1 0x40 MLOAD DUP1 SWAP2 SUB SWAP1 REVERT JUMPDEST PUSH32 0x0 SELFBALANCE CALLVALUE PUSH2 0x386 SWAP2 SWAP1 PUSH2 0xA55 JUMP JUMPDEST GT ISZERO PUSH2 0x3CB JUMPI CALLER CALLVALUE PUSH1 0x40 MLOAD PUSH32 0xB98438ED00000000000000000000000000000000000000000000000000000000 DUP2 MSTORE PUSH1 0x4 ADD PUSH2 0x3C2 SWAP3 SWAP2 SWAP1 PUSH2 0xA88 JUMP JUMPDEST PUSH1 0x40 MLOAD DUP1 SWAP2 SUB SWAP1 REVERT JUMPDEST CALLVALUE PUSH1 0x1 PUSH0 CALLER PUSH20 0xFFFFFFFFFFFFFFFFFFFFFFFFFFFFFFFFFFFFFFFF AND PUSH20 0xFFFFFFFFFFFFFFFFFFFFFFFFFFFFFFFFFFFFFFFF AND DUP2 MSTORE PUSH1 0x20 ADD SWAP1 DUP2 MSTORE PUSH1 0x20 ADD PUSH0 KECCAK256 PUSH0 DUP3 DUP3 SLOAD PUSH2 0x417 SWAP2 SWAP1 PUSH2 0xA55 JUMP JUMPDEST SWAP3 POP POP DUP2 SWAP1 SSTORE POP PUSH32 0x15BA1938FAE5E0C6E44CCB0F8758616EB7C4FA80E0F250DCD3D51C367F0D57E9 CALLER CALLVALUE PUSH1 0x1 PUSH0 CALLER PUSH20 0xFFFFFFFFFFFFFFFFFFFFFFFFFFFFFFFFFFFFFFFF AND PUSH20 0xFFFFFFFFFFFFFFFFFFFFFFFFFFFFFFFFFFFFFFFF AND DUP2 MSTORE PUSH1 0x20 ADD SWAP1 DUP2 MSTORE PUSH1 0x20 ADD PUSH0 KECCAK256 SLOAD PUSH1 0x40 MLOAD PUSH2 0x48E SWAP4 SWAP3 SWAP2 SWAP1 PUSH2 0xAAF JUMP JUMPDEST PUSH1 0x40 MLOAD DUP1 SWAP2 SUB SWAP1 LOG1 JUMP JUMPDEST PUSH32 0x0 DUP2 JUMP JUMPDEST PUSH0 DUP1 PUSH0 SWAP1 SLOAD SWAP1 PUSH2 0x100 EXP SWAP1 DIV PUSH1 0xFF AND SWAP1 POP SWAP1 JUMP JUMPDEST PUSH0 SELFBALANCE SWAP1 POP SWAP1 JUMP JUMPDEST PUSH1 0x1 PUSH1 0x20 MSTORE DUP1 PUSH0 MSTORE PUSH1 0x40 PUSH0 KECCAK256 PUSH0 SWAP2 POP SWAP1 POP SLOAD DUP2 JUMP JUMPDEST PUSH0 PUSH32 0x0 SWAP1 POP SWAP1 JUMP JUMPDEST PUSH0 DUP1 SLOAD SWAP1 PUSH2 0x100 EXP SWAP1 DIV PUSH1 0xFF AND PUSH2 0x561 JUMPI CALLER PUSH1 0x40 MLOAD PUSH32 0xB4031BA100000000000000000000000000000000000000000000000000000000 DUP2 MSTORE PUSH1 0x4 ADD PUSH2 0x558 SWAP2 SWAP1 PUSH2 0xA3C JUMP JUMPDEST PUSH1 0x40 MLOAD DUP1 SWAP2 SUB SWAP1 REVERT JUMPDEST DUP1 PUSH1 0x1 PUSH0 DUP5 PUSH20 0xFFFFFFFFFFFFFFFFFFFFFFFFFFFFFFFFFFFFFFFF AND PUSH20 0xFFFFFFFFFFFFFFFFFFFFFFFFFFFFFFFFFFFFFFFF AND DUP2 MSTORE PUSH1 0x20 ADD SWAP1 DUP2 MSTORE PUSH1 0x20 ADD PUSH0 KECCAK256 SLOAD LT ISZERO PUSH2 0x624 JUMPI CALLER DUP2 PUSH1 0x1 PUSH0 DUP6 PUSH20 0xFFFFFFFFFFFFFFFFFFFFFFFFFFFFFFFFFFFFFFFF AND PUSH20 0xFFFFFFFFFFFFFFFFFFFFFFFFFFFFFFFFFFFFFFFF AND DUP2 MSTORE PUSH1 0x20 ADD SWAP1 DUP2 MSTORE PUSH1 0x20 ADD PUSH0 KECCAK256 SLOAD PUSH1 0x40 MLOAD PUSH32 0xA4CE9E6700000000000000000000000000000000000000000000000000000000 DUP2 MSTORE PUSH1 0x4 ADD PUSH2 0x61B SWAP4 SWAP3 SWAP2 SWAP1 PUSH2 0xAAF JUMP JUMPDEST PUSH1 0x40 MLOAD DUP1 SWAP2 SUB SWAP1 REVERT JUMPDEST DUP1 PUSH1 0x1 PUSH0 DUP5 PUSH20 0xFFFFFFFFFFFFFFFFFFFFFFFFFFFFFFFFFFFFFFFF AND PUSH20 0xFFFFFFFFFFFFFFFFFFFFFFFFFFFFFFFFFFFFFFFF AND DUP2 MSTORE PUSH1 0x20 ADD SWAP1 DUP2 MSTORE PUSH1 0x20 ADD PUSH0 KECCAK256 PUSH0 DUP3 DUP3 SLOAD PUSH2 0x670 SWAP2 SWAP1 PUSH2 0x9FA JUMP JUMPDEST SWAP3 POP POP DUP2 SWAP1 SSTORE POP PUSH32 0x7C8766F9B60F35D834F5DCB63820C5652B10C311B733DA3E4ED8B8BCBC4A13D DUP3 DUP3 PUSH1 0x1 PUSH0 DUP7 PUSH20 0xFFFFFFFFFFFFFFFFFFFFFFFFFFFFFFFFFFFFFFFF AND PUSH20 0xFFFFFFFFFFFFFFFFFFFFFFFFFFFFFFFFFFFFFFFF AND DUP2 MSTORE PUSH1 0x20 ADD SWAP1 DUP2 MSTORE PUSH1 0x20 ADD PUSH0 KECCAK256 SLOAD PUSH1 0x40 MLOAD PUSH2 0x6E7 SWAP4 SWAP3 SWAP2 SWAP1 PUSH2 0xB3F JUMP JUMPDEST PUSH1 0x40 MLOAD DUP1 SWAP2 SUB SWAP1 LOG1 PUSH0 DUP1 DUP4 PUSH20 0xFFFFFFFFFFFFFFFFFFFFFFFFFFFFFFFFFFFFFFFF AND DUP4 PUSH1 0x40 MLOAD PUSH2 0x715 SWAP1 PUSH2 0xBA1 JUMP JUMPDEST PUSH0 PUSH1 0x40 MLOAD DUP1 DUP4 SUB DUP2 DUP6 DUP8 GAS CALL SWAP3 POP POP POP RETURNDATASIZE DUP1 PUSH0 DUP2 EQ PUSH2 0x74F JUMPI PUSH1 0x40 MLOAD SWAP2 POP PUSH1 0x1F NOT PUSH1 0x3F RETURNDATASIZE ADD AND DUP3 ADD PUSH1 0x40 MSTORE RETURNDATASIZE DUP3 MSTORE RETURNDATASIZE PUSH0 PUSH1 0x20 DUP5 ADD RETURNDATACOPY PUSH2 0x754 JUMP JUMPDEST PUSH1 0x60 SWAP2 POP JUMPDEST POP SWAP2 POP SWAP2 POP DUP2 PUSH2 0x7A8 JUMPI PUSH2 0x769 DUP5 DUP5 DUP4 PUSH2 0x7AE JUMP JUMPDEST DUP4 DUP2 PUSH1 0x40 MLOAD PUSH32 0xC2056CA600000000000000000000000000000000000000000000000000000000 DUP2 MSTORE PUSH1 0x4 ADD PUSH2 0x79F SWAP3 SWAP2 SWAP1 PUSH2 0xC3F JUMP JUMPDEST PUSH1 0x40 MLOAD DUP1 SWAP2 SUB SWAP1 REVERT JUMPDEST POP POP POP POP JUMP JUMPDEST DUP2 PUSH1 0x1 PUSH0 DUP6 PUSH20 0xFFFFFFFFFFFFFFFFFFFFFFFFFFFFFFFFFFFFFFFF AND PUSH20 0xFFFFFFFFFFFFFFFFFFFFFFFFFFFFFFFFFFFFFFFF AND DUP2 MSTORE PUSH1 0x20 ADD SWAP1 DUP2 MSTORE PUSH1 0x20 ADD PUSH0 KECCAK256 PUSH0 DUP3 DUP3 SLOAD PUSH2 0x7FA SWAP2 SWAP1 PUSH2 0xA55 JUMP JUMPDEST SWAP3 POP POP DUP2 SWAP1 SSTORE POP PUSH32 0xE386AE850E8423B00F74526A4AAA2C61AE81780E62A8A0D17116E076C0192B7 DUP2 PUSH1 0x40 MLOAD PUSH2 0x830 SWAP2 SWAP1 PUSH2 0xC6D JUMP JUMPDEST PUSH1 0x40 MLOAD DUP1 SWAP2 SUB SWAP1 LOG1 POP POP POP JUMP JUMPDEST PUSH0 DUP2 SWAP1 POP SWAP2 SWAP1 POP JUMP JUMPDEST PUSH2 0x84F DUP2 PUSH2 0x83D JUMP JUMPDEST DUP3 MSTORE POP POP JUMP JUMPDEST PUSH0 PUSH1 0x20 DUP3 ADD SWAP1 POP PUSH2 0x868 PUSH0 DUP4 ADD DUP5 PUSH2 0x846 JUMP JUMPDEST SWAP3 SWAP2 POP POP JUMP JUMPDEST PUSH0 DUP2 ISZERO ISZERO SWAP1 POP SWAP2 SWAP1 POP JUMP JUMPDEST PUSH2 0x882 DUP2 PUSH2 0x86E JUMP JUMPDEST DUP3 MSTORE POP POP JUMP JUMPDEST PUSH0 PUSH1 0x20 DUP3 ADD SWAP1 POP PUSH2 0x89B PUSH0 DUP4 ADD DUP5 PUSH2 0x879 JUMP JUMPDEST SWAP3 SWAP2 POP POP JUMP JUMPDEST PUSH0 DUP1 REVERT JUMPDEST PUSH0 PUSH20 0xFFFFFFFFFFFFFFFFFFFFFFFFFFFFFFFFFFFFFFFF DUP3 AND SWAP1 POP SWAP2 SWAP1 POP JUMP JUMPDEST PUSH0 PUSH2 0x8CE DUP3 PUSH2 0x8A5 JUMP JUMPDEST SWAP1 POP SWAP2 SWAP1 POP JUMP JUMPDEST PUSH2 0x8DE DUP2 PUSH2 0x8C4 JUMP JUMPDEST DUP2 EQ PUSH2 0x8E8 JUMPI PUSH0 DUP1 REVERT JUMPDEST POP JUMP JUMPDEST PUSH0 DUP2 CALLDATALOAD SWAP1 POP PUSH2 0x8F9 DUP2 PUSH2 0x8D5 JUMP JUMPDEST SWAP3 SWAP2 POP POP JUMP JUMPDEST PUSH0 PUSH1 0x20 DUP3 DUP5 SUB SLT ISZERO PUSH2 0x914 JUMPI PUSH2 0x913 PUSH2 0x8A1 JUMP JUMPDEST JUMPDEST PUSH0 PUSH2 0x921 DUP5 DUP3 DUP6 ADD PUSH2 0x8EB JUMP JUMPDEST SWAP2 POP POP SWAP3 SWAP2 POP POP JUMP JUMPDEST PUSH0 PUSH2 0x934 DUP3 PUSH2 0x8A5 JUMP JUMPDEST SWAP1 POP SWAP2 SWAP1 POP JUMP JUMPDEST PUSH2 0x944 DUP2 PUSH2 0x92A JUMP JUMPDEST DUP2 EQ PUSH2 0x94E JUMPI PUSH0 DUP1 REVERT JUMPDEST POP JUMP JUMPDEST PUSH0 DUP2 CALLDATALOAD SWAP1 POP PUSH2 0x95F DUP2 PUSH2 0x93B JUMP JUMPDEST SWAP3 SWAP2 POP POP JUMP JUMPDEST PUSH2 0x96E DUP2 PUSH2 0x83D JUMP JUMPDEST DUP2 EQ PUSH2 0x978 JUMPI PUSH0 DUP1 REVERT JUMPDEST POP JUMP JUMPDEST PUSH0 DUP2 CALLDATALOAD SWAP1 POP PUSH2 0x989 DUP2 PUSH2 0x965 JUMP JUMPDEST SWAP3 SWAP2 POP POP JUMP JUMPDEST PUSH0 DUP1 PUSH1 0x40 DUP4 DUP6 SUB SLT ISZERO PUSH2 0x9A5 JUMPI PUSH2 0x9A4 PUSH2 0x8A1 JUMP JUMPDEST JUMPDEST PUSH0 PUSH2 0x9B2 DUP6 DUP3 DUP7 ADD PUSH2 0x951 JUMP JUMPDEST SWAP3 POP POP PUSH1 0x20 PUSH2 0x9C3 DUP6 DUP3 DUP7 ADD PUSH2 0x97B JUMP JUMPDEST SWAP2 POP POP SWAP3 POP SWAP3 SWAP1 POP JUMP JUMPDEST PUSH32 0x4E487B7100000000000000000000000000000000000000000000000000000000 PUSH0 MSTORE PUSH1 0x11 PUSH1 0x4 MSTORE PUSH1 0x24 PUSH0 REVERT JUMPDEST PUSH0 PUSH2 0xA04 DUP3 PUSH2 0x83D JUMP JUMPDEST SWAP2 POP PUSH2 0xA0F DUP4 PUSH2 0x83D JUMP JUMPDEST SWAP3 POP DUP3 DUP3 SUB SWAP1 POP DUP2 DUP2 GT ISZERO PUSH2 0xA27 JUMPI PUSH2 0xA26 PUSH2 0x9CD JUMP JUMPDEST JUMPDEST SWAP3 SWAP2 POP POP JUMP JUMPDEST PUSH2 0xA36 DUP2 PUSH2 0x8C4 JUMP JUMPDEST DUP3 MSTORE POP POP JUMP JUMPDEST PUSH0 PUSH1 0x20 DUP3 ADD SWAP1 POP PUSH2 0xA4F PUSH0 DUP4 ADD DUP5 PUSH2 0xA2D JUMP JUMPDEST SWAP3 SWAP2 POP POP JUMP JUMPDEST PUSH0 PUSH2 0xA5F DUP3 PUSH2 0x83D JUMP JUMPDEST SWAP2 POP PUSH2 0xA6A DUP4 PUSH2 0x83D JUMP JUMPDEST SWAP3 POP DUP3 DUP3 ADD SWAP1 POP DUP1 DUP3 GT ISZERO PUSH2 0xA82 JUMPI PUSH2 0xA81 PUSH2 0x9CD JUMP JUMPDEST JUMPDEST SWAP3 SWAP2 POP POP JUMP JUMPDEST PUSH0 PUSH1 0x40 DUP3 ADD SWAP1 POP PUSH2 0xA9B PUSH0 DUP4 ADD DUP6 PUSH2 0xA2D JUMP JUMPDEST PUSH2 0xAA8 PUSH1 0x20 DUP4 ADD DUP5 PUSH2 0x846 JUMP JUMPDEST SWAP4 SWAP3 POP POP POP JUMP JUMPDEST PUSH0 PUSH1 0x60 DUP3 ADD SWAP1 POP PUSH2 0xAC2 PUSH0 DUP4 ADD DUP7 PUSH2 0xA2D JUMP JUMPDEST PUSH2 0xACF PUSH1 0x20 DUP4 ADD DUP6 PUSH2 0x846 JUMP JUMPDEST PUSH2 0xADC PUSH1 0x40 DUP4 ADD DUP5 PUSH2 0x846 JUMP JUMPDEST SWAP5 SWAP4 POP POP POP POP JUMP JUMPDEST PUSH0 DUP2 SWAP1 POP SWAP2 SWAP1 POP JUMP JUMPDEST PUSH0 PUSH2 0xB07 PUSH2 0xB02 PUSH2 0xAFD DUP5 PUSH2 0x8A5 JUMP JUMPDEST PUSH2 0xAE4 JUMP JUMPDEST PUSH2 0x8A5 JUMP JUMPDEST SWAP1 POP SWAP2 SWAP1 POP JUMP JUMPDEST PUSH0 PUSH2 0xB18 DUP3 PUSH2 0xAED JUMP JUMPDEST SWAP1 POP SWAP2 SWAP1 POP JUMP JUMPDEST PUSH0 PUSH2 0xB29 DUP3 PUSH2 0xB0E JUMP JUMPDEST SWAP1 POP SWAP2 SWAP1 POP JUMP JUMPDEST PUSH2 0xB39 DUP2 PUSH2 0xB1F JUMP JUMPDEST DUP3 MSTORE POP POP JUMP JUMPDEST PUSH0 PUSH1 0x60 DUP3 ADD SWAP1 POP PUSH2 0xB52 PUSH0 DUP4 ADD DUP7 PUSH2 0xB30 JUMP JUMPDEST PUSH2 0xB5F PUSH1 0x20 DUP4 ADD DUP6 PUSH2 0x846 JUMP JUMPDEST PUSH2 0xB6C PUSH1 0x40 DUP4 ADD DUP5 PUSH2 0x846 JUMP JUMPDEST SWAP5 SWAP4 POP POP POP POP JUMP JUMPDEST PUSH0 DUP2 SWAP1 POP SWAP3 SWAP2 POP POP JUMP JUMPDEST POP JUMP JUMPDEST PUSH0 PUSH2 0xB8C PUSH0 DUP4 PUSH2 0xB74 JUMP JUMPDEST SWAP2 POP PUSH2 0xB97 DUP3 PUSH2 0xB7E JUMP JUMPDEST PUSH0 DUP3 ADD SWAP1 POP SWAP2 SWAP1 POP JUMP JUMPDEST PUSH0 PUSH2 0xBAB DUP3 PUSH2 0xB81 JUMP JUMPDEST SWAP2 POP DUP2 SWAP1 POP SWAP2 SWAP1 POP JUMP JUMPDEST PUSH0 DUP2 MLOAD SWAP1 POP SWAP2 SWAP1 POP JUMP JUMPDEST PUSH0 DUP3 DUP3 MSTORE PUSH1 0x20 DUP3 ADD SWAP1 POP SWAP3 SWAP2 POP POP JUMP JUMPDEST PUSH0 JUMPDEST DUP4 DUP2 LT ISZERO PUSH2 0xBEC JUMPI DUP1 DUP3 ADD MLOAD DUP2 DUP5 ADD MSTORE PUSH1 0x20 DUP2 ADD SWAP1 POP PUSH2 0xBD1 JUMP JUMPDEST PUSH0 DUP5 DUP5 ADD MSTORE POP POP POP POP JUMP JUMPDEST PUSH0 PUSH1 0x1F NOT PUSH1 0x1F DUP4 ADD AND SWAP1 POP SWAP2 SWAP1 POP JUMP JUMPDEST PUSH0 PUSH2 0xC11 DUP3 PUSH2 0xBB5 JUMP JUMPDEST PUSH2 0xC1B DUP2 DUP6 PUSH2 0xBBF JUMP JUMPDEST SWAP4 POP PUSH2 0xC2B DUP2 DUP6 PUSH1 0x20 DUP7 ADD PUSH2 0xBCF JUMP JUMPDEST PUSH2 0xC34 DUP2 PUSH2 0xBF7 JUMP JUMPDEST DUP5 ADD SWAP2 POP POP SWAP3 SWAP2 POP POP JUMP JUMPDEST PUSH0 PUSH1 0x40 DUP3 ADD SWAP1 POP PUSH2 0xC52 PUSH0 DUP4 ADD DUP6 PUSH2 0xB30 JUMP JUMPDEST DUP2 DUP2 SUB PUSH1 0x20 DUP4 ADD MSTORE PUSH2 0xC64 DUP2 DUP5 PUSH2 0xC07 JUMP JUMPDEST SWAP1 POP SWAP4 SWAP3 POP POP POP JUMP JUMPDEST PUSH0 PUSH1 0x20 DUP3 ADD SWAP1 POP DUP2 DUP2 SUB PUSH0 DUP4 ADD MSTORE PUSH2 0xC85 DUP2 DUP5 PUSH2 0xC07 JUMP JUMPDEST SWAP1 POP SWAP3 SWAP2 POP POP JUMP INVALID LOG2 PUSH5 0x6970667358 0x22 SLT KECCAK256 SELFBALANCE 0x2F PUSH20 0xAD6FA4E4FF89D933D9DF823A88EDF8F2A0C39C5 0xE4 GASPRICE 0xC6 PUSH28 0xC27C107AF964736F6C63430008140033000000000000000000000000 "
				},
				"gasEstimates": {
					"creation": {
						"codeDepositCost": "653400",
						"executionCost": "infinite",
						"totalCost": "infinite"
					},
					"external": {
						"bankCap()": "infinite",
						"currentDepositLimit()": "infinite",
						"depositForSender()": "infinite",
						"i_balanceLimit()": "infinite",
						"isContractActive()": "2473",
						"s_balance(address)": "2846",
						"toggleActive()": "infinite",
						"totalBalance()": "356",
						"withdraw(address,uint256)": "infinite"
					},
					"internal": {
						"doRollback(address,uint256,bytes memory)": "infinite"
					}
				},
				"methodIdentifiers": {
					"bankCap()": "ecbea24d",
					"currentDepositLimit()": "0295d71b",
					"depositForSender()": "4a7ba7d6",
					"i_balanceLimit()": "88d15ddc",
					"isContractActive()": "8f5949f9",
					"s_balance(address)": "e7394daf",
					"toggleActive()": "29c68dc1",
					"totalBalance()": "ad7a672f",
					"withdraw(address,uint256)": "f3fef3a3"
				}
			},
			"storageLayout": {
				"storage": [
					{
						"astId": 35,
						"contract": "GubaBank.sol:GubaBank",
						"label": "s_isActive",
						"offset": 0,
						"slot": "0",
						"type": "t_bool"
					},
					{
						"astId": 39,
						"contract": "GubaBank.sol:GubaBank",
						"label": "s_balance",
						"offset": 0,
						"slot": "1",
						"type": "t_mapping(t_address,t_uint256)"
					}
				],
				"types": {
					"t_address": {
						"encoding": "inplace",
						"label": "address",
						"numberOfBytes": "20"
					},
					"t_bool": {
						"encoding": "inplace",
						"label": "bool",
						"numberOfBytes": "1"
					},
					"t_mapping(t_address,t_uint256)": {
						"encoding": "mapping",
						"key": "t_address",
						"label": "mapping(address => uint256)",
						"numberOfBytes": "32",
						"value": "t_uint256"
					},
					"t_uint256": {
						"encoding": "inplace",
						"label": "uint256",
						"numberOfBytes": "32"
					}
				}
			},
			"userdoc": {
				"errors": {
					"GubaBank_BadRequest_NotTheOwner(address)": [
						{
							"notice": "Errors///"
						}
					]
				},
				"events": {
					"GubaBank_ActiveToggled(bool)": {
						"notice": "Events///"
					}
				},
				"kind": "user",
				"methods": {
					"constructor": {
						"notice": "constructor///"
					},
					"isContractActive()": {
						"notice": "view & pure///"
					},
					"toggleActive()": {
						"notice": "external///"
					}
				},
				"version": 1
			}
		}
	}
}