{
	"PrimeiroSC.sol": {
		"PrimeiroSC": {
			"abi": [
				{
					"inputs": [
						{
							"internalType": "address",
							"name": "_owner",
							"type": "address"
						}
					],
					"stateMutability": "nonpayable",
					"type": "constructor"
				},
				{
					"inputs": [],
					"name": "PrimeiroSC_NaoPermitido",
					"type": "error"
				},
				{
					"inputs": [],
					"name": "ADM_ONE",
					"outputs": [
						{
							"internalType": "uint256",
							"name": "",
							"type": "uint256"
						}
					],
					"stateMutability": "view",
					"type": "function"
				},
				{
					"inputs": [
						{
							"internalType": "uint256",
							"name": "_numero",
							"type": "uint256"
						}
					],
					"name": "condicional",
					"outputs": [
						{
							"internalType": "string",
							"name": "",
							"type": "string"
						}
					],
					"stateMutability": "pure",
					"type": "function"
				},
				{
					"inputs": [],
					"name": "depositForSender",
					"outputs": [],
					"stateMutability": "payable",
					"type": "function"
				},
				{
					"inputs": [
						{
							"internalType": "enum PrimeiroSC.OrdemDeChamada",
							"name": "_ordem",
							"type": "uint8"
						}
					],
					"name": "exemploEnum",
					"outputs": [],
					"stateMutability": "nonpayable",
					"type": "function"
				},
				{
					"inputs": [],
					"name": "externalFunction",
					"outputs": [],
					"stateMutability": "nonpayable",
					"type": "function"
				},
				{
					"inputs": [
						{
							"internalType": "uint256",
							"name": "_um",
							"type": "uint256"
						},
						{
							"internalType": "uint256",
							"name": "_dois",
							"type": "uint256"
						}
					],
					"name": "externalPureFunction",
					"outputs": [
						{
							"internalType": "uint256",
							"name": "_exemplo",
							"type": "uint256"
						}
					],
					"stateMutability": "pure",
					"type": "function"
				},
				{
					"inputs": [],
					"name": "externalViewBalance",
					"outputs": [
						{
							"internalType": "uint256",
							"name": "",
							"type": "uint256"
						}
					],
					"stateMutability": "view",
					"type": "function"
				},
				{
					"inputs": [],
					"name": "externalViewFunction",
					"outputs": [
						{
							"internalType": "uint256",
							"name": "_exemplo",
							"type": "uint256"
						}
					],
					"stateMutability": "view",
					"type": "function"
				},
				{
					"inputs": [],
					"name": "externalViewFunctionDois",
					"outputs": [
						{
							"internalType": "uint256",
							"name": "",
							"type": "uint256"
						}
					],
					"stateMutability": "view",
					"type": "function"
				},
				{
					"inputs": [],
					"name": "i_owner",
					"outputs": [
						{
							"internalType": "address",
							"name": "",
							"type": "address"
						}
					],
					"stateMutability": "view",
					"type": "function"
				},
				{
					"inputs": [
						{
							"internalType": "uint256",
							"name": "_numero",
							"type": "uint256"
						}
					],
					"name": "loops",
					"outputs": [
						{
							"internalType": "string",
							"name": "",
							"type": "string"
						}
					],
					"stateMutability": "nonpayable",
					"type": "function"
				},
				{
					"inputs": [],
					"name": "publicFunction",
					"outputs": [],
					"stateMutability": "nonpayable",
					"type": "function"
				},
				{
					"inputs": [
						{
							"internalType": "uint256",
							"name": "_value",
							"type": "uint256"
						}
					],
					"name": "requireChecks",
					"outputs": [],
					"stateMutability": "nonpayable",
					"type": "function"
				},
				{
					"inputs": [
						{
							"internalType": "uint256",
							"name": "_value",
							"type": "uint256"
						}
					],
					"name": "revertChecks",
					"outputs": [],
					"stateMutability": "nonpayable",
					"type": "function"
				},
				{
					"inputs": [],
					"name": "s_contractOwner",
					"outputs": [
						{
							"internalType": "address",
							"name": "",
							"type": "address"
						}
					],
					"stateMutability": "view",
					"type": "function"
				},
				{
					"inputs": [],
					"name": "s_uint",
					"outputs": [
						{
							"internalType": "uint256",
							"name": "",
							"type": "uint256"
						}
					],
					"stateMutability": "view",
					"type": "function"
				},
				{
					"inputs": [
						{
							"internalType": "uint256",
							"name": "_numero",
							"type": "uint256"
						}
					],
					"name": "whileBreak",
					"outputs": [
						{
							"internalType": "string",
							"name": "",
							"type": "string"
						}
					],
					"stateMutability": "pure",
					"type": "function"
				},
				{
					"inputs": [
						{
							"internalType": "address payable",
							"name": "_owner",
							"type": "address"
						}
					],
					"name": "withdraw",
					"outputs": [],
					"stateMutability": "nonpayable",
					"type": "function"
				},
				{
					"stateMutability": "payable",
					"type": "receive"
				}
			],
			"devdoc": {
				"kind": "dev",
				"methods": {},
				"version": 1
			},
			"evm": {
				"assembly": "    /* \"PrimeiroSC.sol\":366:5681  contract PrimeiroSC {... */\n  mstore(0x40, 0xa0)\n    /* \"PrimeiroSC.sol\":3292:3541  constructor(address _owner) {... */\n  callvalue\n  dup1\n  iszero\n  tag_1\n  jumpi\n  0x00\n  dup1\n  revert\ntag_1:\n  pop\n  mload(0x40)\n  sub(codesize, bytecodeSize)\n  dup1\n  bytecodeSize\n  dup4\n  codecopy\n  dup2\n  dup2\n  add\n  0x40\n  mstore\n  dup2\n  add\n  swap1\n  tag_2\n  swap2\n  swap1\n  tag_3\n  jump\t// in\ntag_2:\n    /* \"PrimeiroSC.sol\":3391:3401  msg.sender */\n  caller\n    /* \"PrimeiroSC.sol\":3373:3388  s_contractOwner */\n  0x03\n  0x00\n    /* \"PrimeiroSC.sol\":3373:3401  s_contractOwner = msg.sender */\n  0x0100\n  exp\n  dup2\n  sload\n  dup2\n  0xffffffffffffffffffffffffffffffffffffffff\n  mul\n  not\n  and\n  swap1\n  dup4\n  0xffffffffffffffffffffffffffffffffffffffff\n  and\n  mul\n  or\n  swap1\n  sstore\n  pop\n    /* \"PrimeiroSC.sol\":3490:3496  _owner */\n  dup1\n    /* \"PrimeiroSC.sol\":3480:3496  i_owner = _owner */\n  0xffffffffffffffffffffffffffffffffffffffff\n  and\n  0x80\n  dup2\n  0xffffffffffffffffffffffffffffffffffffffff\n  and\n  dup2\n  mstore\n  pop\n  pop\n    /* \"PrimeiroSC.sol\":3292:3541  constructor(address _owner) {... */\n  pop\n    /* \"PrimeiroSC.sol\":366:5681  contract PrimeiroSC {... */\n  jump(tag_6)\n    /* \"#utility.yul\":88:205   */\ntag_8:\n    /* \"#utility.yul\":197:198   */\n  0x00\n    /* \"#utility.yul\":194:195   */\n  dup1\n    /* \"#utility.yul\":187:199   */\n  revert\n    /* \"#utility.yul\":334:460   */\ntag_10:\n    /* \"#utility.yul\":371:378   */\n  0x00\n    /* \"#utility.yul\":411:453   */\n  0xffffffffffffffffffffffffffffffffffffffff\n    /* \"#utility.yul\":404:409   */\n  dup3\n    /* \"#utility.yul\":400:454   */\n  and\n    /* \"#utility.yul\":389:454   */\n  swap1\n  pop\n    /* \"#utility.yul\":334:460   */\n  swap2\n  swap1\n  pop\n  jump\t// out\n    /* \"#utility.yul\":466:562   */\ntag_11:\n    /* \"#utility.yul\":503:510   */\n  0x00\n    /* \"#utility.yul\":532:556   */\n  tag_20\n    /* \"#utility.yul\":550:555   */\n  dup3\n    /* \"#utility.yul\":532:556   */\n  tag_10\n  jump\t// in\ntag_20:\n    /* \"#utility.yul\":521:556   */\n  swap1\n  pop\n    /* \"#utility.yul\":466:562   */\n  swap2\n  swap1\n  pop\n  jump\t// out\n    /* \"#utility.yul\":568:690   */\ntag_12:\n    /* \"#utility.yul\":641:665   */\n  tag_22\n    /* \"#utility.yul\":659:664   */\n  dup2\n    /* \"#utility.yul\":641:665   */\n  tag_11\n  jump\t// in\ntag_22:\n    /* \"#utility.yul\":634:639   */\n  dup2\n    /* \"#utility.yul\":631:666   */\n  eq\n    /* \"#utility.yul\":621:684   */\n  tag_23\n  jumpi\n    /* \"#utility.yul\":680:681   */\n  0x00\n    /* \"#utility.yul\":677:678   */\n  dup1\n    /* \"#utility.yul\":670:682   */\n  revert\n    /* \"#utility.yul\":621:684   */\ntag_23:\n    /* \"#utility.yul\":568:690   */\n  pop\n  jump\t// out\n    /* \"#utility.yul\":696:839   */\ntag_13:\n    /* \"#utility.yul\":753:758   */\n  0x00\n    /* \"#utility.yul\":784:790   */\n  dup2\n    /* \"#utility.yul\":778:791   */\n  mload\n    /* \"#utility.yul\":769:791   */\n  swap1\n  pop\n    /* \"#utility.yul\":800:833   */\n  tag_25\n    /* \"#utility.yul\":827:832   */\n  dup2\n    /* \"#utility.yul\":800:833   */\n  tag_12\n  jump\t// in\ntag_25:\n    /* \"#utility.yul\":696:839   */\n  swap3\n  swap2\n  pop\n  pop\n  jump\t// out\n    /* \"#utility.yul\":845:1196   */\ntag_3:\n    /* \"#utility.yul\":915:921   */\n  0x00\n    /* \"#utility.yul\":964:966   */\n  0x20\n    /* \"#utility.yul\":952:961   */\n  dup3\n    /* \"#utility.yul\":943:950   */\n  dup5\n    /* \"#utility.yul\":939:962   */\n  sub\n    /* \"#utility.yul\":935:967   */\n  slt\n    /* \"#utility.yul\":932:1051   */\n  iszero\n  tag_27\n  jumpi\n    /* \"#utility.yul\":970:1049   */\n  tag_28\n  tag_8\n  jump\t// in\ntag_28:\n    /* \"#utility.yul\":932:1051   */\ntag_27:\n    /* \"#utility.yul\":1090:1091   */\n  0x00\n    /* \"#utility.yul\":1115:1179   */\n  tag_29\n    /* \"#utility.yul\":1171:1178   */\n  dup5\n    /* \"#utility.yul\":1162:1168   */\n  dup3\n    /* \"#utility.yul\":1151:1160   */\n  dup6\n    /* \"#utility.yul\":1147:1169   */\n  add\n    /* \"#utility.yul\":1115:1179   */\n  tag_13\n  jump\t// in\ntag_29:\n    /* \"#utility.yul\":1105:1179   */\n  swap2\n  pop\n    /* \"#utility.yul\":1061:1189   */\n  pop\n    /* \"#utility.yul\":845:1196   */\n  swap3\n  swap2\n  pop\n  pop\n  jump\t// out\n    /* \"PrimeiroSC.sol\":366:5681  contract PrimeiroSC {... */\ntag_6:\n  mload(0x80)\n  codecopy(0x00, dataOffset(sub_0), dataSize(sub_0))\n  0x00\n  assignImmutable(\"0x6bcaf047ba4c8ac400fca43393035242dd1aabda2d6068a0c51242b97224de8d\")\n  return(0x00, dataSize(sub_0))\nstop\n\nsub_0: assembly {\n        /* \"PrimeiroSC.sol\":366:5681  contract PrimeiroSC {... */\n      mstore(0x40, 0x80)\n      jumpi(tag_1, lt(calldatasize, 0x04))\n      shr(0xe0, calldataload(0x00))\n      dup1\n      0x7b5d520b\n      gt\n      tag_21\n      jumpi\n      dup1\n      0x9f4a079b\n      gt\n      tag_22\n      jumpi\n      dup1\n      0x9f4a079b\n      eq\n      tag_16\n      jumpi\n      dup1\n      0xb41f4c31\n      eq\n      tag_17\n      jumpi\n      dup1\n      0xc57ef1f7\n      eq\n      tag_18\n      jumpi\n      dup1\n      0xdba6335f\n      eq\n      tag_19\n      jumpi\n      dup1\n      0xe376abbc\n      eq\n      tag_20\n      jumpi\n      jump(tag_2)\n    tag_22:\n      dup1\n      0x7b5d520b\n      eq\n      tag_12\n      jumpi\n      dup1\n      0x8c5d78f4\n      eq\n      tag_13\n      jumpi\n      dup1\n      0x91fe10cd\n      eq\n      tag_14\n      jumpi\n      dup1\n      0x97bb180c\n      eq\n      tag_15\n      jumpi\n      jump(tag_2)\n    tag_21:\n      dup1\n      0x4a7ba7d6\n      gt\n      tag_23\n      jumpi\n      dup1\n      0x4a7ba7d6\n      eq\n      tag_7\n      jumpi\n      dup1\n      0x514d56ac\n      eq\n      tag_8\n      jumpi\n      dup1\n      0x51cff8d9\n      eq\n      tag_9\n      jumpi\n      dup1\n      0x5a37fb4e\n      eq\n      tag_10\n      jumpi\n      dup1\n      0x6984f020\n      eq\n      tag_11\n      jumpi\n      jump(tag_2)\n    tag_23:\n      dup1\n      0x3a32b549\n      eq\n      tag_3\n      jumpi\n      dup1\n      0x3c26d4dc\n      eq\n      tag_4\n      jumpi\n      dup1\n      0x47268bb0\n      eq\n      tag_5\n      jumpi\n      dup1\n      0x4a1ac746\n      eq\n      tag_6\n      jumpi\n      jump(tag_2)\n    tag_1:\n      jumpi(tag_2, calldatasize)\n      stop\n    tag_2:\n      0x00\n      dup1\n      revert\n        /* \"PrimeiroSC.sol\":3856:3987  function externalFunction() external {... */\n    tag_3:\n      callvalue\n      dup1\n      iszero\n      tag_26\n      jumpi\n      0x00\n      dup1\n      revert\n    tag_26:\n      pop\n      tag_27\n      tag_28\n      jump\t// in\n    tag_27:\n      stop\n        /* \"PrimeiroSC.sol\":2114:2590  function loops(uint256 _numero) external returns (string memory){... */\n    tag_4:\n      callvalue\n      dup1\n      iszero\n      tag_29\n      jumpi\n      0x00\n      dup1\n      revert\n    tag_29:\n      pop\n      tag_30\n      0x04\n      dup1\n      calldatasize\n      sub\n      dup2\n      add\n      swap1\n      tag_31\n      swap2\n      swap1\n      tag_32\n      jump\t// in\n    tag_31:\n      tag_33\n      jump\t// in\n    tag_30:\n      mload(0x40)\n      tag_34\n      swap2\n      swap1\n      tag_35\n      jump\t// in\n    tag_34:\n      mload(0x40)\n      dup1\n      swap2\n      sub\n      swap1\n      return\n        /* \"PrimeiroSC.sol\":584:668  function exemploEnum(OrdemDeChamada _ordem) external{... */\n    tag_5:\n      callvalue\n      dup1\n      iszero\n      tag_36\n      jumpi\n      0x00\n      dup1\n      revert\n    tag_36:\n      pop\n      tag_37\n      0x04\n      dup1\n      calldatasize\n      sub\n      dup2\n      add\n      swap1\n      tag_38\n      swap2\n      swap1\n      tag_39\n      jump\t// in\n    tag_38:\n      tag_40\n      jump\t// in\n    tag_37:\n      stop\n        /* \"PrimeiroSC.sol\":1870:2108  function condicional(uint256 _numero) external pure returns (string memory){... */\n    tag_6:\n      callvalue\n      dup1\n      iszero\n      tag_41\n      jumpi\n      0x00\n      dup1\n      revert\n    tag_41:\n      pop\n      tag_42\n      0x04\n      dup1\n      calldatasize\n      sub\n      dup2\n      add\n      swap1\n      tag_43\n      swap2\n      swap1\n      tag_32\n      jump\t// in\n    tag_43:\n      tag_44\n      jump\t// in\n    tag_42:\n      mload(0x40)\n      tag_45\n      swap2\n      swap1\n      tag_35\n      jump\t// in\n    tag_45:\n      mload(0x40)\n      dup1\n      swap2\n      sub\n      swap1\n      return\n        /* \"PrimeiroSC.sol\":3992:4181  function depositForSender() external payable {... */\n    tag_7:\n      tag_46\n      tag_47\n      jump\t// in\n    tag_46:\n      stop\n        /* \"PrimeiroSC.sol\":979:1009  address public s_contractOwner */\n    tag_8:\n      callvalue\n      dup1\n      iszero\n      tag_48\n      jumpi\n      0x00\n      dup1\n      revert\n    tag_48:\n      pop\n      tag_49\n      tag_50\n      jump\t// in\n    tag_49:\n      mload(0x40)\n      tag_51\n      swap2\n      swap1\n      tag_52\n      jump\t// in\n    tag_51:\n      mload(0x40)\n      dup1\n      swap2\n      sub\n      swap1\n      return\n        /* \"PrimeiroSC.sol\":4186:4549  function withdraw(address payable _owner) external {... */\n    tag_9:\n      callvalue\n      dup1\n      iszero\n      tag_53\n      jumpi\n      0x00\n      dup1\n      revert\n    tag_53:\n      pop\n      tag_54\n      0x04\n      dup1\n      calldatasize\n      sub\n      dup2\n      add\n      swap1\n      tag_55\n      swap2\n      swap1\n      tag_56\n      jump\t// in\n    tag_55:\n      tag_57\n      jump\t// in\n    tag_54:\n      stop\n        /* \"PrimeiroSC.sol\":5434:5678  function externalPureFunction(uint256 _um, uint256 _dois) external pure returns(uint256 _exemplo) {... */\n    tag_10:\n      callvalue\n      dup1\n      iszero\n      tag_58\n      jumpi\n      0x00\n      dup1\n      revert\n    tag_58:\n      pop\n      tag_59\n      0x04\n      dup1\n      calldatasize\n      sub\n      dup2\n      add\n      swap1\n      tag_60\n      swap2\n      swap1\n      tag_61\n      jump\t// in\n    tag_60:\n      tag_62\n      jump\t// in\n    tag_59:\n      mload(0x40)\n      tag_63\n      swap2\n      swap1\n      tag_64\n      jump\t// in\n    tag_63:\n      mload(0x40)\n      dup1\n      swap2\n      sub\n      swap1\n      return\n        /* \"PrimeiroSC.sol\":5218:5315  function externalViewFunctionDois() external view returns(uint256) {... */\n    tag_11:\n      callvalue\n      dup1\n      iszero\n      tag_65\n      jumpi\n      0x00\n      dup1\n      revert\n    tag_65:\n      pop\n      tag_66\n      tag_67\n      jump\t// in\n    tag_66:\n      mload(0x40)\n      tag_68\n      swap2\n      swap1\n      tag_64\n      jump\t// in\n    tag_68:\n      mload(0x40)\n      dup1\n      swap2\n      sub\n      swap1\n      return\n        /* \"PrimeiroSC.sol\":4606:4684  function publicFunction() public {... */\n    tag_12:\n      callvalue\n      dup1\n      iszero\n      tag_69\n      jumpi\n      0x00\n      dup1\n      revert\n    tag_69:\n      pop\n      tag_70\n      tag_71\n      jump\t// in\n    tag_70:\n      stop\n        /* \"PrimeiroSC.sol\":5321:5428  function externalViewBalance() external view returns(uint256) {... */\n    tag_13:\n      callvalue\n      dup1\n      iszero\n      tag_72\n      jumpi\n      0x00\n      dup1\n      revert\n    tag_72:\n      pop\n      tag_73\n      tag_74\n      jump\t// in\n    tag_73:\n      mload(0x40)\n      tag_75\n      swap2\n      swap1\n      tag_64\n      jump\t// in\n    tag_75:\n      mload(0x40)\n      dup1\n      swap2\n      sub\n      swap1\n      return\n        /* \"PrimeiroSC.sol\":2596:2723  function requireChecks(uint256 _value) external {... */\n    tag_14:\n      callvalue\n      dup1\n      iszero\n      tag_76\n      jumpi\n      0x00\n      dup1\n      revert\n    tag_76:\n      pop\n      tag_77\n      0x04\n      dup1\n      calldatasize\n      sub\n      dup2\n      add\n      swap1\n      tag_78\n      swap2\n      swap1\n      tag_32\n      jump\t// in\n    tag_78:\n      tag_79\n      jump\t// in\n    tag_77:\n      stop\n        /* \"PrimeiroSC.sol\":1583:1618  uint256 public constant ADM_ONE = 1 */\n    tag_15:\n      callvalue\n      dup1\n      iszero\n      tag_80\n      jumpi\n      0x00\n      dup1\n      revert\n    tag_80:\n      pop\n      tag_81\n      tag_82\n      jump\t// in\n    tag_81:\n      mload(0x40)\n      tag_83\n      swap2\n      swap1\n      tag_64\n      jump\t// in\n    tag_83:\n      mload(0x40)\n      dup1\n      swap2\n      sub\n      swap1\n      return\n        /* \"PrimeiroSC.sol\":5105:5211  function externalViewFunction() external view returns(uint256 _exemplo) {... */\n    tag_16:\n      callvalue\n      dup1\n      iszero\n      tag_84\n      jumpi\n      0x00\n      dup1\n      revert\n    tag_84:\n      pop\n      tag_85\n      tag_86\n      jump\t// in\n    tag_85:\n      mload(0x40)\n      tag_87\n      swap2\n      swap1\n      tag_64\n      jump\t// in\n    tag_87:\n      mload(0x40)\n      dup1\n      swap2\n      sub\n      swap1\n      return\n        /* \"PrimeiroSC.sol\":2885:3220  function whileBreak(uint256 _numero) external pure returns (string memory){... */\n    tag_17:\n      callvalue\n      dup1\n      iszero\n      tag_88\n      jumpi\n      0x00\n      dup1\n      revert\n    tag_88:\n      pop\n      tag_89\n      0x04\n      dup1\n      calldatasize\n      sub\n      dup2\n      add\n      swap1\n      tag_90\n      swap2\n      swap1\n      tag_32\n      jump\t// in\n    tag_90:\n      tag_91\n      jump\t// in\n    tag_89:\n      mload(0x40)\n      tag_92\n      swap2\n      swap1\n      tag_35\n      jump\t// in\n    tag_92:\n      mload(0x40)\n      dup1\n      swap2\n      sub\n      swap1\n      return\n        /* \"PrimeiroSC.sol\":879:900  uint256 public s_uint */\n    tag_18:\n      callvalue\n      dup1\n      iszero\n      tag_93\n      jumpi\n      0x00\n      dup1\n      revert\n    tag_93:\n      pop\n      tag_94\n      tag_95\n      jump\t// in\n    tag_94:\n      mload(0x40)\n      tag_96\n      swap2\n      swap1\n      tag_64\n      jump\t// in\n    tag_96:\n      mload(0x40)\n      dup1\n      swap2\n      sub\n      swap1\n      return\n        /* \"PrimeiroSC.sol\":1474:1506  address public immutable i_owner */\n    tag_19:\n      callvalue\n      dup1\n      iszero\n      tag_97\n      jumpi\n      0x00\n      dup1\n      revert\n    tag_97:\n      pop\n      tag_98\n      tag_99\n      jump\t// in\n    tag_98:\n      mload(0x40)\n      tag_100\n      swap2\n      swap1\n      tag_52\n      jump\t// in\n    tag_100:\n      mload(0x40)\n      dup1\n      swap2\n      sub\n      swap1\n      return\n        /* \"PrimeiroSC.sol\":2729:2879  function revertChecks(uint256 _value) external {... */\n    tag_20:\n      callvalue\n      dup1\n      iszero\n      tag_101\n      jumpi\n      0x00\n      dup1\n      revert\n    tag_101:\n      pop\n      tag_102\n      0x04\n      dup1\n      calldatasize\n      sub\n      dup2\n      add\n      swap1\n      tag_103\n      swap2\n      swap1\n      tag_32\n      jump\t// in\n    tag_103:\n      tag_104\n      jump\t// in\n    tag_102:\n      stop\n        /* \"PrimeiroSC.sol\":3856:3987  function externalFunction() external {... */\n    tag_28:\n      jump\t// out\n        /* \"PrimeiroSC.sol\":2114:2590  function loops(uint256 _numero) external returns (string memory){... */\n    tag_33:\n        /* \"PrimeiroSC.sol\":2164:2177  string memory */\n      0x60\n        /* \"PrimeiroSC.sol\":2201:2210  uint256 i */\n      0x00\n        /* \"PrimeiroSC.sol\":2197:2560  for(uint256 i; i <= _numero; ++i){  // no FOR, ++i é mais barato que i++ ou as outras formas...... */\n    tag_107:\n        /* \"PrimeiroSC.sol\":2217:2224  _numero */\n      dup3\n        /* \"PrimeiroSC.sol\":2212:2213  i */\n      dup2\n        /* \"PrimeiroSC.sol\":2212:2224  i <= _numero */\n      gt\n        /* \"PrimeiroSC.sol\":2197:2560  for(uint256 i; i <= _numero; ++i){  // no FOR, ++i é mais barato que i++ ou as outras formas...... */\n      tag_108\n      jumpi\n        /* \"PrimeiroSC.sol\":2501:2502  1 */\n      0x01\n        /* \"PrimeiroSC.sol\":2492:2498  s_uint */\n      dup1\n      sload\n        /* \"PrimeiroSC.sol\":2492:2502  s_uint + 1 */\n      tag_110\n      swap2\n      swap1\n      tag_111\n      jump\t// in\n    tag_110:\n        /* \"PrimeiroSC.sol\":2483:2489  s_uint */\n      0x01\n        /* \"PrimeiroSC.sol\":2483:2502  s_uint = s_uint + 1 */\n      dup2\n      swap1\n      sstore\n      pop\n        /* \"PrimeiroSC.sol\":2226:2229  ++i */\n      dup1\n      tag_112\n      swap1\n      tag_113\n      jump\t// in\n    tag_112:\n      swap1\n      pop\n        /* \"PrimeiroSC.sol\":2197:2560  for(uint256 i; i <= _numero; ++i){  // no FOR, ++i é mais barato que i++ ou as outras formas...... */\n      jump(tag_107)\n    tag_108:\n      pop\n        /* \"PrimeiroSC.sol\":2569:2583  return \"vamoo\" */\n      mload(0x40)\n      dup1\n      0x40\n      add\n      0x40\n      mstore\n      dup1\n      0x05\n      dup2\n      mstore\n      0x20\n      add\n      0x76616d6f6f000000000000000000000000000000000000000000000000000000\n      dup2\n      mstore\n      pop\n      swap1\n      pop\n        /* \"PrimeiroSC.sol\":2114:2590  function loops(uint256 _numero) external returns (string memory){... */\n      swap2\n      swap1\n      pop\n      jump\t// out\n        /* \"PrimeiroSC.sol\":584:668  function exemploEnum(OrdemDeChamada _ordem) external{... */\n    tag_40:\n        /* \"PrimeiroSC.sol\":655:661  _ordem */\n      dup1\n        /* \"PrimeiroSC.sol\":646:652  status */\n      0x00\n      dup1\n        /* \"PrimeiroSC.sol\":646:661  status = _ordem */\n      0x0100\n      exp\n      dup2\n      sload\n      dup2\n      0xff\n      mul\n      not\n      and\n      swap1\n      dup4\n      0x02\n      dup2\n      gt\n      iszero\n      tag_115\n      jumpi\n      tag_116\n      tag_117\n      jump\t// in\n    tag_116:\n    tag_115:\n      mul\n      or\n      swap1\n      sstore\n      pop\n        /* \"PrimeiroSC.sol\":584:668  function exemploEnum(OrdemDeChamada _ordem) external{... */\n      pop\n      jump\t// out\n        /* \"PrimeiroSC.sol\":1870:2108  function condicional(uint256 _numero) external pure returns (string memory){... */\n    tag_44:\n        /* \"PrimeiroSC.sol\":1931:1944  string memory */\n      0x60\n        /* \"PrimeiroSC.sol\":1969:1971  77 */\n      0x4d\n        /* \"PrimeiroSC.sol\":1958:1965  _numero */\n      dup3\n        /* \"PrimeiroSC.sol\":1958:1971  _numero == 77 */\n      sub\n        /* \"PrimeiroSC.sol\":1955:2080  if(_numero == 77){... */\n      tag_119\n      jumpi\n        /* \"PrimeiroSC.sol\":1986:2004  return \"Good Luck\" */\n      mload(0x40)\n      dup1\n      0x40\n      add\n      0x40\n      mstore\n      dup1\n      0x09\n      dup2\n      mstore\n      0x20\n      add\n      0x476f6f64204c75636b0000000000000000000000000000000000000000000000\n      dup2\n      mstore\n      pop\n      swap1\n      pop\n      jump(tag_118)\n        /* \"PrimeiroSC.sol\":1955:2080  if(_numero == 77){... */\n    tag_119:\n        /* \"PrimeiroSC.sol\":2035:2037  13 */\n      0x0d\n        /* \"PrimeiroSC.sol\":2024:2031  _numero */\n      dup3\n        /* \"PrimeiroSC.sol\":2024:2037  _numero == 13 */\n      sub\n        /* \"PrimeiroSC.sol\":2021:2080  if(_numero == 13){... */\n      tag_121\n      jumpi\n        /* \"PrimeiroSC.sol\":2052:2069  return \"Bad Luck\" */\n      mload(0x40)\n      dup1\n      0x40\n      add\n      0x40\n      mstore\n      dup1\n      0x08\n      dup2\n      mstore\n      0x20\n      add\n      0x426164204c75636b000000000000000000000000000000000000000000000000\n      dup2\n      mstore\n      pop\n      swap1\n      pop\n      jump(tag_118)\n        /* \"PrimeiroSC.sol\":2021:2080  if(_numero == 13){... */\n    tag_121:\n        /* \"PrimeiroSC.sol\":2089:2101  return \"opa\" */\n      mload(0x40)\n      dup1\n      0x40\n      add\n      0x40\n      mstore\n      dup1\n      0x03\n      dup2\n      mstore\n      0x20\n      add\n      0x6f70610000000000000000000000000000000000000000000000000000000000\n      dup2\n      mstore\n      pop\n      swap1\n      pop\n        /* \"PrimeiroSC.sol\":1870:2108  function condicional(uint256 _numero) external pure returns (string memory){... */\n    tag_118:\n      swap2\n      swap1\n      pop\n      jump\t// out\n        /* \"PrimeiroSC.sol\":3992:4181  function depositForSender() external payable {... */\n    tag_47:\n      jump\t// out\n        /* \"PrimeiroSC.sol\":979:1009  address public s_contractOwner */\n    tag_50:\n      0x03\n      0x00\n      swap1\n      sload\n      swap1\n      0x0100\n      exp\n      swap1\n      div\n      0xffffffffffffffffffffffffffffffffffffffff\n      and\n      dup2\n      jump\t// out\n        /* \"PrimeiroSC.sol\":4186:4549  function withdraw(address payable _owner) external {... */\n    tag_57:\n        /* \"PrimeiroSC.sol\":4248:4260  bool success */\n      0x00\n        /* \"PrimeiroSC.sol\":4262:4281  bytes memory _error */\n      dup1\n        /* \"PrimeiroSC.sol\":4285:4291  _owner */\n      dup3\n        /* \"PrimeiroSC.sol\":4285:4296  _owner.call */\n      0xffffffffffffffffffffffffffffffffffffffff\n      and\n        /* \"PrimeiroSC.sol\":4304:4325  address(this).balance */\n      selfbalance\n        /* \"PrimeiroSC.sol\":4285:4330  _owner.call{value: address(this).balance}(\"\") */\n      mload(0x40)\n      tag_124\n      swap1\n      tag_125\n      jump\t// in\n    tag_124:\n      0x00\n      mload(0x40)\n      dup1\n      dup4\n      sub\n      dup2\n      dup6\n      dup8\n      gas\n      call\n      swap3\n      pop\n      pop\n      pop\n      returndatasize\n      dup1\n      0x00\n      dup2\n      eq\n      tag_128\n      jumpi\n      mload(0x40)\n      swap2\n      pop\n      and(add(returndatasize, 0x3f), not(0x1f))\n      dup3\n      add\n      0x40\n      mstore\n      returndatasize\n      dup3\n      mstore\n      returndatasize\n      0x00\n      0x20\n      dup5\n      add\n      returndatacopy\n      jump(tag_127)\n    tag_128:\n      0x60\n      swap2\n      pop\n    tag_127:\n      pop\n        /* \"PrimeiroSC.sol\":4247:4330  (bool success, bytes memory _error) = _owner.call{value: address(this).balance}(\"\") */\n      swap2\n      pop\n      swap2\n      pop\n        /* \"PrimeiroSC.sol\":4344:4351  success */\n      dup2\n        /* \"PrimeiroSC.sol\":4340:4363  if(!success) revert(\"\") */\n      tag_129\n      jumpi\n        /* \"PrimeiroSC.sol\":4353:4363  revert(\"\") */\n      mload(0x40)\n      0x08c379a000000000000000000000000000000000000000000000000000000000\n      dup2\n      mstore\n      0x04\n      add\n      tag_130\n      swap1\n      tag_131\n      jump\t// in\n    tag_130:\n      mload(0x40)\n      dup1\n      swap2\n      sub\n      swap1\n      revert\n        /* \"PrimeiroSC.sol\":4340:4363  if(!success) revert(\"\") */\n    tag_129:\n        /* \"PrimeiroSC.sol\":4237:4549  {... */\n      pop\n      pop\n        /* \"PrimeiroSC.sol\":4186:4549  function withdraw(address payable _owner) external {... */\n      pop\n      jump\t// out\n        /* \"PrimeiroSC.sol\":5434:5678  function externalPureFunction(uint256 _um, uint256 _dois) external pure returns(uint256 _exemplo) {... */\n    tag_62:\n        /* \"PrimeiroSC.sol\":5514:5530  uint256 _exemplo */\n      0x00\n        /* \"PrimeiroSC.sol\":5666:5671  _dois */\n      dup2\n        /* \"PrimeiroSC.sol\":5660:5663  _um */\n      dup4\n        /* \"PrimeiroSC.sol\":5660:5671  _um * _dois */\n      tag_133\n      swap2\n      swap1\n      tag_134\n      jump\t// in\n    tag_133:\n        /* \"PrimeiroSC.sol\":5649:5671  _exemplo = _um * _dois */\n      swap1\n      pop\n        /* \"PrimeiroSC.sol\":5434:5678  function externalPureFunction(uint256 _um, uint256 _dois) external pure returns(uint256 _exemplo) {... */\n      swap3\n      swap2\n      pop\n      pop\n      jump\t// out\n        /* \"PrimeiroSC.sol\":5218:5315  function externalViewFunctionDois() external view returns(uint256) {... */\n    tag_67:\n        /* \"PrimeiroSC.sol\":5276:5283  uint256 */\n      0x00\n        /* \"PrimeiroSC.sol\":5302:5308  s_uint */\n      sload(0x01)\n        /* \"PrimeiroSC.sol\":5295:5308  return s_uint */\n      swap1\n      pop\n        /* \"PrimeiroSC.sol\":5218:5315  function externalViewFunctionDois() external view returns(uint256) {... */\n      swap1\n      jump\t// out\n        /* \"PrimeiroSC.sol\":4606:4684  function publicFunction() public {... */\n    tag_71:\n      jump\t// out\n        /* \"PrimeiroSC.sol\":5321:5428  function externalViewBalance() external view returns(uint256) {... */\n    tag_74:\n        /* \"PrimeiroSC.sol\":5374:5381  uint256 */\n      0x00\n        /* \"PrimeiroSC.sol\":5400:5421  address(this).balance */\n      selfbalance\n        /* \"PrimeiroSC.sol\":5393:5421  return address(this).balance */\n      swap1\n      pop\n        /* \"PrimeiroSC.sol\":5321:5428  function externalViewBalance() external view returns(uint256) {... */\n      swap1\n      jump\t// out\n        /* \"PrimeiroSC.sol\":2596:2723  function requireChecks(uint256 _value) external {... */\n    tag_79:\n        /* \"PrimeiroSC.sol\":2671:2680  100 ether */\n      0x056bc75e2d63100000\n        /* \"PrimeiroSC.sol\":2662:2668  _value */\n      dup2\n        /* \"PrimeiroSC.sol\":2662:2680  _value < 100 ether */\n      lt\n        /* \"PrimeiroSC.sol\":2654:2696  require(_value < 100 ether, \"msg de erro\") */\n      tag_139\n      jumpi\n      mload(0x40)\n      0x08c379a000000000000000000000000000000000000000000000000000000000\n      dup2\n      mstore\n      0x04\n      add\n      tag_140\n      swap1\n      tag_141\n      jump\t// in\n    tag_140:\n      mload(0x40)\n      dup1\n      swap2\n      sub\n      swap1\n      revert\n    tag_139:\n        /* \"PrimeiroSC.sol\":2596:2723  function requireChecks(uint256 _value) external {... */\n      pop\n      jump\t// out\n        /* \"PrimeiroSC.sol\":1583:1618  uint256 public constant ADM_ONE = 1 */\n    tag_82:\n        /* \"PrimeiroSC.sol\":1617:1618  1 */\n      0x01\n        /* \"PrimeiroSC.sol\":1583:1618  uint256 public constant ADM_ONE = 1 */\n      dup2\n      jump\t// out\n        /* \"PrimeiroSC.sol\":5105:5211  function externalViewFunction() external view returns(uint256 _exemplo) {... */\n    tag_86:\n        /* \"PrimeiroSC.sol\":5159:5175  uint256 _exemplo */\n      0x00\n        /* \"PrimeiroSC.sol\":5198:5204  s_uint */\n      sload(0x01)\n        /* \"PrimeiroSC.sol\":5187:5204  _exemplo = s_uint */\n      swap1\n      pop\n        /* \"PrimeiroSC.sol\":5105:5211  function externalViewFunction() external view returns(uint256 _exemplo) {... */\n      swap1\n      jump\t// out\n        /* \"PrimeiroSC.sol\":2885:3220  function whileBreak(uint256 _numero) external pure returns (string memory){... */\n    tag_91:\n        /* \"PrimeiroSC.sol\":2945:2958  string memory */\n      0x60\n        /* \"PrimeiroSC.sol\":2969:2978  uint256 i */\n      0x00\n        /* \"PrimeiroSC.sol\":2992:3190  while(i <= _numero){... */\n    tag_144:\n        /* \"PrimeiroSC.sol\":3003:3010  _numero */\n      dup3\n        /* \"PrimeiroSC.sol\":2998:2999  i */\n      dup2\n        /* \"PrimeiroSC.sol\":2998:3010  i <= _numero */\n      gt\n        /* \"PrimeiroSC.sol\":2992:3190  while(i <= _numero){... */\n      tag_145\n      jumpi\n        /* \"PrimeiroSC.sol\":3033:3035  70 */\n      0x46\n        /* \"PrimeiroSC.sol\":3028:3029  i */\n      dup2\n        /* \"PrimeiroSC.sol\":3028:3035  i == 70 */\n      sub\n        /* \"PrimeiroSC.sol\":3025:3074  if(i == 70){... */\n      iszero\n        /* \"PrimeiroSC.sol\":3054:3059  break */\n      tag_145\n        /* \"PrimeiroSC.sol\":3025:3074  if(i == 70){... */\n      jumpi\n        /* \"PrimeiroSC.sol\":3131:3132  1 */\n      0x01\n        /* \"PrimeiroSC.sol\":3127:3128  i */\n      dup2\n        /* \"PrimeiroSC.sol\":3127:3132  i + 1 */\n      tag_147\n      swap2\n      swap1\n      tag_111\n      jump\t// in\n    tag_147:\n        /* \"PrimeiroSC.sol\":3123:3132  i = i + 1 */\n      swap1\n      pop\n        /* \"PrimeiroSC.sol\":2992:3190  while(i <= _numero){... */\n      jump(tag_144)\n    tag_145:\n        /* \"PrimeiroSC.sol\":3199:3213  return \"vamoo\" */\n      mload(0x40)\n      dup1\n      0x40\n      add\n      0x40\n      mstore\n      dup1\n      0x05\n      dup2\n      mstore\n      0x20\n      add\n      0x76616d6f6f000000000000000000000000000000000000000000000000000000\n      dup2\n      mstore\n      pop\n      swap2\n      pop\n      pop\n        /* \"PrimeiroSC.sol\":2885:3220  function whileBreak(uint256 _numero) external pure returns (string memory){... */\n      swap2\n      swap1\n      pop\n      jump\t// out\n        /* \"PrimeiroSC.sol\":879:900  uint256 public s_uint */\n    tag_95:\n      sload(0x01)\n      dup2\n      jump\t// out\n        /* \"PrimeiroSC.sol\":1474:1506  address public immutable i_owner */\n    tag_99:\n      immutable(\"0x6bcaf047ba4c8ac400fca43393035242dd1aabda2d6068a0c51242b97224de8d\")\n      dup2\n      jump\t// out\n        /* \"PrimeiroSC.sol\":2729:2879  function revertChecks(uint256 _value) external {... */\n    tag_104:\n        /* \"PrimeiroSC.sol\":2799:2808  100 ether */\n      0x056bc75e2d63100000\n        /* \"PrimeiroSC.sol\":2789:2795  _value */\n      dup2\n        /* \"PrimeiroSC.sol\":2789:2808  _value >= 100 ether */\n      lt\n        /* \"PrimeiroSC.sol\":2786:2842  if(_value >= 100 ether) revert PrimeiroSC_NaoPermitido() */\n      tag_149\n      jumpi\n        /* \"PrimeiroSC.sol\":2817:2842  PrimeiroSC_NaoPermitido() */\n      mload(0x40)\n      0xcad821b800000000000000000000000000000000000000000000000000000000\n      dup2\n      mstore\n      0x04\n      add\n      mload(0x40)\n      dup1\n      swap2\n      sub\n      swap1\n      revert\n        /* \"PrimeiroSC.sol\":2786:2842  if(_value >= 100 ether) revert PrimeiroSC_NaoPermitido() */\n    tag_149:\n        /* \"PrimeiroSC.sol\":2729:2879  function revertChecks(uint256 _value) external {... */\n      pop\n      jump\t// out\n        /* \"#utility.yul\":88:205   */\n    tag_151:\n        /* \"#utility.yul\":197:198   */\n      0x00\n        /* \"#utility.yul\":194:195   */\n      dup1\n        /* \"#utility.yul\":187:199   */\n      revert\n        /* \"#utility.yul\":334:411   */\n    tag_153:\n        /* \"#utility.yul\":371:378   */\n      0x00\n        /* \"#utility.yul\":400:405   */\n      dup2\n        /* \"#utility.yul\":389:405   */\n      swap1\n      pop\n        /* \"#utility.yul\":334:411   */\n      swap2\n      swap1\n      pop\n      jump\t// out\n        /* \"#utility.yul\":417:539   */\n    tag_154:\n        /* \"#utility.yul\":490:514   */\n      tag_183\n        /* \"#utility.yul\":508:513   */\n      dup2\n        /* \"#utility.yul\":490:514   */\n      tag_153\n      jump\t// in\n    tag_183:\n        /* \"#utility.yul\":483:488   */\n      dup2\n        /* \"#utility.yul\":480:515   */\n      eq\n        /* \"#utility.yul\":470:533   */\n      tag_184\n      jumpi\n        /* \"#utility.yul\":529:530   */\n      0x00\n        /* \"#utility.yul\":526:527   */\n      dup1\n        /* \"#utility.yul\":519:531   */\n      revert\n        /* \"#utility.yul\":470:533   */\n    tag_184:\n        /* \"#utility.yul\":417:539   */\n      pop\n      jump\t// out\n        /* \"#utility.yul\":545:684   */\n    tag_155:\n        /* \"#utility.yul\":591:596   */\n      0x00\n        /* \"#utility.yul\":629:635   */\n      dup2\n        /* \"#utility.yul\":616:636   */\n      calldataload\n        /* \"#utility.yul\":607:636   */\n      swap1\n      pop\n        /* \"#utility.yul\":645:678   */\n      tag_186\n        /* \"#utility.yul\":672:677   */\n      dup2\n        /* \"#utility.yul\":645:678   */\n      tag_154\n      jump\t// in\n    tag_186:\n        /* \"#utility.yul\":545:684   */\n      swap3\n      swap2\n      pop\n      pop\n      jump\t// out\n        /* \"#utility.yul\":690:1019   */\n    tag_32:\n        /* \"#utility.yul\":749:755   */\n      0x00\n        /* \"#utility.yul\":798:800   */\n      0x20\n        /* \"#utility.yul\":786:795   */\n      dup3\n        /* \"#utility.yul\":777:784   */\n      dup5\n        /* \"#utility.yul\":773:796   */\n      sub\n        /* \"#utility.yul\":769:801   */\n      slt\n        /* \"#utility.yul\":766:885   */\n      iszero\n      tag_188\n      jumpi\n        /* \"#utility.yul\":804:883   */\n      tag_189\n      tag_151\n      jump\t// in\n    tag_189:\n        /* \"#utility.yul\":766:885   */\n    tag_188:\n        /* \"#utility.yul\":924:925   */\n      0x00\n        /* \"#utility.yul\":949:1002   */\n      tag_190\n        /* \"#utility.yul\":994:1001   */\n      dup5\n        /* \"#utility.yul\":985:991   */\n      dup3\n        /* \"#utility.yul\":974:983   */\n      dup6\n        /* \"#utility.yul\":970:992   */\n      add\n        /* \"#utility.yul\":949:1002   */\n      tag_155\n      jump\t// in\n    tag_190:\n        /* \"#utility.yul\":939:1002   */\n      swap2\n      pop\n        /* \"#utility.yul\":895:1012   */\n      pop\n        /* \"#utility.yul\":690:1019   */\n      swap3\n      swap2\n      pop\n      pop\n      jump\t// out\n        /* \"#utility.yul\":1025:1124   */\n    tag_156:\n        /* \"#utility.yul\":1077:1083   */\n      0x00\n        /* \"#utility.yul\":1111:1116   */\n      dup2\n        /* \"#utility.yul\":1105:1117   */\n      mload\n        /* \"#utility.yul\":1095:1117   */\n      swap1\n      pop\n        /* \"#utility.yul\":1025:1124   */\n      swap2\n      swap1\n      pop\n      jump\t// out\n        /* \"#utility.yul\":1130:1299   */\n    tag_157:\n        /* \"#utility.yul\":1214:1225   */\n      0x00\n        /* \"#utility.yul\":1248:1254   */\n      dup3\n        /* \"#utility.yul\":1243:1246   */\n      dup3\n        /* \"#utility.yul\":1236:1255   */\n      mstore\n        /* \"#utility.yul\":1288:1292   */\n      0x20\n        /* \"#utility.yul\":1283:1286   */\n      dup3\n        /* \"#utility.yul\":1279:1293   */\n      add\n        /* \"#utility.yul\":1264:1293   */\n      swap1\n      pop\n        /* \"#utility.yul\":1130:1299   */\n      swap3\n      swap2\n      pop\n      pop\n      jump\t// out\n        /* \"#utility.yul\":1305:1551   */\n    tag_158:\n        /* \"#utility.yul\":1386:1387   */\n      0x00\n        /* \"#utility.yul\":1396:1509   */\n    tag_194:\n        /* \"#utility.yul\":1410:1416   */\n      dup4\n        /* \"#utility.yul\":1407:1408   */\n      dup2\n        /* \"#utility.yul\":1404:1417   */\n      lt\n        /* \"#utility.yul\":1396:1509   */\n      iszero\n      tag_196\n      jumpi\n        /* \"#utility.yul\":1495:1496   */\n      dup1\n        /* \"#utility.yul\":1490:1493   */\n      dup3\n        /* \"#utility.yul\":1486:1497   */\n      add\n        /* \"#utility.yul\":1480:1498   */\n      mload\n        /* \"#utility.yul\":1476:1477   */\n      dup2\n        /* \"#utility.yul\":1471:1474   */\n      dup5\n        /* \"#utility.yul\":1467:1478   */\n      add\n        /* \"#utility.yul\":1460:1499   */\n      mstore\n        /* \"#utility.yul\":1432:1434   */\n      0x20\n        /* \"#utility.yul\":1429:1430   */\n      dup2\n        /* \"#utility.yul\":1425:1435   */\n      add\n        /* \"#utility.yul\":1420:1435   */\n      swap1\n      pop\n        /* \"#utility.yul\":1396:1509   */\n      jump(tag_194)\n    tag_196:\n        /* \"#utility.yul\":1543:1544   */\n      0x00\n        /* \"#utility.yul\":1534:1540   */\n      dup5\n        /* \"#utility.yul\":1529:1532   */\n      dup5\n        /* \"#utility.yul\":1525:1541   */\n      add\n        /* \"#utility.yul\":1518:1545   */\n      mstore\n        /* \"#utility.yul\":1367:1551   */\n      pop\n        /* \"#utility.yul\":1305:1551   */\n      pop\n      pop\n      pop\n      jump\t// out\n        /* \"#utility.yul\":1557:1659   */\n    tag_159:\n        /* \"#utility.yul\":1598:1604   */\n      0x00\n        /* \"#utility.yul\":1649:1651   */\n      0x1f\n        /* \"#utility.yul\":1645:1652   */\n      not\n        /* \"#utility.yul\":1640:1642   */\n      0x1f\n        /* \"#utility.yul\":1633:1638   */\n      dup4\n        /* \"#utility.yul\":1629:1643   */\n      add\n        /* \"#utility.yul\":1625:1653   */\n      and\n        /* \"#utility.yul\":1615:1653   */\n      swap1\n      pop\n        /* \"#utility.yul\":1557:1659   */\n      swap2\n      swap1\n      pop\n      jump\t// out\n        /* \"#utility.yul\":1665:2042   */\n    tag_160:\n        /* \"#utility.yul\":1753:1756   */\n      0x00\n        /* \"#utility.yul\":1781:1820   */\n      tag_199\n        /* \"#utility.yul\":1814:1819   */\n      dup3\n        /* \"#utility.yul\":1781:1820   */\n      tag_156\n      jump\t// in\n    tag_199:\n        /* \"#utility.yul\":1836:1907   */\n      tag_200\n        /* \"#utility.yul\":1900:1906   */\n      dup2\n        /* \"#utility.yul\":1895:1898   */\n      dup6\n        /* \"#utility.yul\":1836:1907   */\n      tag_157\n      jump\t// in\n    tag_200:\n        /* \"#utility.yul\":1829:1907   */\n      swap4\n      pop\n        /* \"#utility.yul\":1916:1981   */\n      tag_201\n        /* \"#utility.yul\":1974:1980   */\n      dup2\n        /* \"#utility.yul\":1969:1972   */\n      dup6\n        /* \"#utility.yul\":1962:1966   */\n      0x20\n        /* \"#utility.yul\":1955:1960   */\n      dup7\n        /* \"#utility.yul\":1951:1967   */\n      add\n        /* \"#utility.yul\":1916:1981   */\n      tag_158\n      jump\t// in\n    tag_201:\n        /* \"#utility.yul\":2006:2035   */\n      tag_202\n        /* \"#utility.yul\":2028:2034   */\n      dup2\n        /* \"#utility.yul\":2006:2035   */\n      tag_159\n      jump\t// in\n    tag_202:\n        /* \"#utility.yul\":2001:2004   */\n      dup5\n        /* \"#utility.yul\":1997:2036   */\n      add\n        /* \"#utility.yul\":1990:2036   */\n      swap2\n      pop\n        /* \"#utility.yul\":1757:2042   */\n      pop\n        /* \"#utility.yul\":1665:2042   */\n      swap3\n      swap2\n      pop\n      pop\n      jump\t// out\n        /* \"#utility.yul\":2048:2361   */\n    tag_35:\n        /* \"#utility.yul\":2161:2165   */\n      0x00\n        /* \"#utility.yul\":2199:2201   */\n      0x20\n        /* \"#utility.yul\":2188:2197   */\n      dup3\n        /* \"#utility.yul\":2184:2202   */\n      add\n        /* \"#utility.yul\":2176:2202   */\n      swap1\n      pop\n        /* \"#utility.yul\":2248:2257   */\n      dup2\n        /* \"#utility.yul\":2242:2246   */\n      dup2\n        /* \"#utility.yul\":2238:2258   */\n      sub\n        /* \"#utility.yul\":2234:2235   */\n      0x00\n        /* \"#utility.yul\":2223:2232   */\n      dup4\n        /* \"#utility.yul\":2219:2236   */\n      add\n        /* \"#utility.yul\":2212:2259   */\n      mstore\n        /* \"#utility.yul\":2276:2354   */\n      tag_204\n        /* \"#utility.yul\":2349:2353   */\n      dup2\n        /* \"#utility.yul\":2340:2346   */\n      dup5\n        /* \"#utility.yul\":2276:2354   */\n      tag_160\n      jump\t// in\n    tag_204:\n        /* \"#utility.yul\":2268:2354   */\n      swap1\n      pop\n        /* \"#utility.yul\":2048:2361   */\n      swap3\n      swap2\n      pop\n      pop\n      jump\t// out\n        /* \"#utility.yul\":2367:2483   */\n    tag_161:\n        /* \"#utility.yul\":2457:2458   */\n      0x03\n        /* \"#utility.yul\":2450:2455   */\n      dup2\n        /* \"#utility.yul\":2447:2459   */\n      lt\n        /* \"#utility.yul\":2437:2477   */\n      tag_206\n      jumpi\n        /* \"#utility.yul\":2473:2474   */\n      0x00\n        /* \"#utility.yul\":2470:2471   */\n      dup1\n        /* \"#utility.yul\":2463:2475   */\n      revert\n        /* \"#utility.yul\":2437:2477   */\n    tag_206:\n        /* \"#utility.yul\":2367:2483   */\n      pop\n      jump\t// out\n        /* \"#utility.yul\":2489:2662   */\n    tag_162:\n        /* \"#utility.yul\":2552:2557   */\n      0x00\n        /* \"#utility.yul\":2590:2596   */\n      dup2\n        /* \"#utility.yul\":2577:2597   */\n      calldataload\n        /* \"#utility.yul\":2568:2597   */\n      swap1\n      pop\n        /* \"#utility.yul\":2606:2656   */\n      tag_208\n        /* \"#utility.yul\":2650:2655   */\n      dup2\n        /* \"#utility.yul\":2606:2656   */\n      tag_161\n      jump\t// in\n    tag_208:\n        /* \"#utility.yul\":2489:2662   */\n      swap3\n      swap2\n      pop\n      pop\n      jump\t// out\n        /* \"#utility.yul\":2668:3031   */\n    tag_39:\n        /* \"#utility.yul\":2744:2750   */\n      0x00\n        /* \"#utility.yul\":2793:2795   */\n      0x20\n        /* \"#utility.yul\":2781:2790   */\n      dup3\n        /* \"#utility.yul\":2772:2779   */\n      dup5\n        /* \"#utility.yul\":2768:2791   */\n      sub\n        /* \"#utility.yul\":2764:2796   */\n      slt\n        /* \"#utility.yul\":2761:2880   */\n      iszero\n      tag_210\n      jumpi\n        /* \"#utility.yul\":2799:2878   */\n      tag_211\n      tag_151\n      jump\t// in\n    tag_211:\n        /* \"#utility.yul\":2761:2880   */\n    tag_210:\n        /* \"#utility.yul\":2919:2920   */\n      0x00\n        /* \"#utility.yul\":2944:3014   */\n      tag_212\n        /* \"#utility.yul\":3006:3013   */\n      dup5\n        /* \"#utility.yul\":2997:3003   */\n      dup3\n        /* \"#utility.yul\":2986:2995   */\n      dup6\n        /* \"#utility.yul\":2982:3004   */\n      add\n        /* \"#utility.yul\":2944:3014   */\n      tag_162\n      jump\t// in\n    tag_212:\n        /* \"#utility.yul\":2934:3014   */\n      swap2\n      pop\n        /* \"#utility.yul\":2890:3024   */\n      pop\n        /* \"#utility.yul\":2668:3031   */\n      swap3\n      swap2\n      pop\n      pop\n      jump\t// out\n        /* \"#utility.yul\":3037:3163   */\n    tag_163:\n        /* \"#utility.yul\":3074:3081   */\n      0x00\n        /* \"#utility.yul\":3114:3156   */\n      0xffffffffffffffffffffffffffffffffffffffff\n        /* \"#utility.yul\":3107:3112   */\n      dup3\n        /* \"#utility.yul\":3103:3157   */\n      and\n        /* \"#utility.yul\":3092:3157   */\n      swap1\n      pop\n        /* \"#utility.yul\":3037:3163   */\n      swap2\n      swap1\n      pop\n      jump\t// out\n        /* \"#utility.yul\":3169:3265   */\n    tag_164:\n        /* \"#utility.yul\":3206:3213   */\n      0x00\n        /* \"#utility.yul\":3235:3259   */\n      tag_215\n        /* \"#utility.yul\":3253:3258   */\n      dup3\n        /* \"#utility.yul\":3235:3259   */\n      tag_163\n      jump\t// in\n    tag_215:\n        /* \"#utility.yul\":3224:3259   */\n      swap1\n      pop\n        /* \"#utility.yul\":3169:3265   */\n      swap2\n      swap1\n      pop\n      jump\t// out\n        /* \"#utility.yul\":3271:3389   */\n    tag_165:\n        /* \"#utility.yul\":3358:3382   */\n      tag_217\n        /* \"#utility.yul\":3376:3381   */\n      dup2\n        /* \"#utility.yul\":3358:3382   */\n      tag_164\n      jump\t// in\n    tag_217:\n        /* \"#utility.yul\":3353:3356   */\n      dup3\n        /* \"#utility.yul\":3346:3383   */\n      mstore\n        /* \"#utility.yul\":3271:3389   */\n      pop\n      pop\n      jump\t// out\n        /* \"#utility.yul\":3395:3617   */\n    tag_52:\n        /* \"#utility.yul\":3488:3492   */\n      0x00\n        /* \"#utility.yul\":3526:3528   */\n      0x20\n        /* \"#utility.yul\":3515:3524   */\n      dup3\n        /* \"#utility.yul\":3511:3529   */\n      add\n        /* \"#utility.yul\":3503:3529   */\n      swap1\n      pop\n        /* \"#utility.yul\":3539:3610   */\n      tag_219\n        /* \"#utility.yul\":3607:3608   */\n      0x00\n        /* \"#utility.yul\":3596:3605   */\n      dup4\n        /* \"#utility.yul\":3592:3609   */\n      add\n        /* \"#utility.yul\":3583:3589   */\n      dup5\n        /* \"#utility.yul\":3539:3610   */\n      tag_165\n      jump\t// in\n    tag_219:\n        /* \"#utility.yul\":3395:3617   */\n      swap3\n      swap2\n      pop\n      pop\n      jump\t// out\n        /* \"#utility.yul\":3623:3727   */\n    tag_166:\n        /* \"#utility.yul\":3668:3675   */\n      0x00\n        /* \"#utility.yul\":3697:3721   */\n      tag_221\n        /* \"#utility.yul\":3715:3720   */\n      dup3\n        /* \"#utility.yul\":3697:3721   */\n      tag_163\n      jump\t// in\n    tag_221:\n        /* \"#utility.yul\":3686:3721   */\n      swap1\n      pop\n        /* \"#utility.yul\":3623:3727   */\n      swap2\n      swap1\n      pop\n      jump\t// out\n        /* \"#utility.yul\":3733:3871   */\n    tag_167:\n        /* \"#utility.yul\":3814:3846   */\n      tag_223\n        /* \"#utility.yul\":3840:3845   */\n      dup2\n        /* \"#utility.yul\":3814:3846   */\n      tag_166\n      jump\t// in\n    tag_223:\n        /* \"#utility.yul\":3807:3812   */\n      dup2\n        /* \"#utility.yul\":3804:3847   */\n      eq\n        /* \"#utility.yul\":3794:3865   */\n      tag_224\n      jumpi\n        /* \"#utility.yul\":3861:3862   */\n      0x00\n        /* \"#utility.yul\":3858:3859   */\n      dup1\n        /* \"#utility.yul\":3851:3863   */\n      revert\n        /* \"#utility.yul\":3794:3865   */\n    tag_224:\n        /* \"#utility.yul\":3733:3871   */\n      pop\n      jump\t// out\n        /* \"#utility.yul\":3877:4032   */\n    tag_168:\n        /* \"#utility.yul\":3931:3936   */\n      0x00\n        /* \"#utility.yul\":3969:3975   */\n      dup2\n        /* \"#utility.yul\":3956:3976   */\n      calldataload\n        /* \"#utility.yul\":3947:3976   */\n      swap1\n      pop\n        /* \"#utility.yul\":3985:4026   */\n      tag_226\n        /* \"#utility.yul\":4020:4025   */\n      dup2\n        /* \"#utility.yul\":3985:4026   */\n      tag_167\n      jump\t// in\n    tag_226:\n        /* \"#utility.yul\":3877:4032   */\n      swap3\n      swap2\n      pop\n      pop\n      jump\t// out\n        /* \"#utility.yul\":4038:4383   */\n    tag_56:\n        /* \"#utility.yul\":4105:4111   */\n      0x00\n        /* \"#utility.yul\":4154:4156   */\n      0x20\n        /* \"#utility.yul\":4142:4151   */\n      dup3\n        /* \"#utility.yul\":4133:4140   */\n      dup5\n        /* \"#utility.yul\":4129:4152   */\n      sub\n        /* \"#utility.yul\":4125:4157   */\n      slt\n        /* \"#utility.yul\":4122:4241   */\n      iszero\n      tag_228\n      jumpi\n        /* \"#utility.yul\":4160:4239   */\n      tag_229\n      tag_151\n      jump\t// in\n    tag_229:\n        /* \"#utility.yul\":4122:4241   */\n    tag_228:\n        /* \"#utility.yul\":4280:4281   */\n      0x00\n        /* \"#utility.yul\":4305:4366   */\n      tag_230\n        /* \"#utility.yul\":4358:4365   */\n      dup5\n        /* \"#utility.yul\":4349:4355   */\n      dup3\n        /* \"#utility.yul\":4338:4347   */\n      dup6\n        /* \"#utility.yul\":4334:4356   */\n      add\n        /* \"#utility.yul\":4305:4366   */\n      tag_168\n      jump\t// in\n    tag_230:\n        /* \"#utility.yul\":4295:4366   */\n      swap2\n      pop\n        /* \"#utility.yul\":4251:4376   */\n      pop\n        /* \"#utility.yul\":4038:4383   */\n      swap3\n      swap2\n      pop\n      pop\n      jump\t// out\n        /* \"#utility.yul\":4389:4863   */\n    tag_61:\n        /* \"#utility.yul\":4457:4463   */\n      0x00\n        /* \"#utility.yul\":4465:4471   */\n      dup1\n        /* \"#utility.yul\":4514:4516   */\n      0x40\n        /* \"#utility.yul\":4502:4511   */\n      dup4\n        /* \"#utility.yul\":4493:4500   */\n      dup6\n        /* \"#utility.yul\":4489:4512   */\n      sub\n        /* \"#utility.yul\":4485:4517   */\n      slt\n        /* \"#utility.yul\":4482:4601   */\n      iszero\n      tag_232\n      jumpi\n        /* \"#utility.yul\":4520:4599   */\n      tag_233\n      tag_151\n      jump\t// in\n    tag_233:\n        /* \"#utility.yul\":4482:4601   */\n    tag_232:\n        /* \"#utility.yul\":4640:4641   */\n      0x00\n        /* \"#utility.yul\":4665:4718   */\n      tag_234\n        /* \"#utility.yul\":4710:4717   */\n      dup6\n        /* \"#utility.yul\":4701:4707   */\n      dup3\n        /* \"#utility.yul\":4690:4699   */\n      dup7\n        /* \"#utility.yul\":4686:4708   */\n      add\n        /* \"#utility.yul\":4665:4718   */\n      tag_155\n      jump\t// in\n    tag_234:\n        /* \"#utility.yul\":4655:4718   */\n      swap3\n      pop\n        /* \"#utility.yul\":4611:4728   */\n      pop\n        /* \"#utility.yul\":4767:4769   */\n      0x20\n        /* \"#utility.yul\":4793:4846   */\n      tag_235\n        /* \"#utility.yul\":4838:4845   */\n      dup6\n        /* \"#utility.yul\":4829:4835   */\n      dup3\n        /* \"#utility.yul\":4818:4827   */\n      dup7\n        /* \"#utility.yul\":4814:4836   */\n      add\n        /* \"#utility.yul\":4793:4846   */\n      tag_155\n      jump\t// in\n    tag_235:\n        /* \"#utility.yul\":4783:4846   */\n      swap2\n      pop\n        /* \"#utility.yul\":4738:4856   */\n      pop\n        /* \"#utility.yul\":4389:4863   */\n      swap3\n      pop\n      swap3\n      swap1\n      pop\n      jump\t// out\n        /* \"#utility.yul\":4869:4987   */\n    tag_169:\n        /* \"#utility.yul\":4956:4980   */\n      tag_237\n        /* \"#utility.yul\":4974:4979   */\n      dup2\n        /* \"#utility.yul\":4956:4980   */\n      tag_153\n      jump\t// in\n    tag_237:\n        /* \"#utility.yul\":4951:4954   */\n      dup3\n        /* \"#utility.yul\":4944:4981   */\n      mstore\n        /* \"#utility.yul\":4869:4987   */\n      pop\n      pop\n      jump\t// out\n        /* \"#utility.yul\":4993:5215   */\n    tag_64:\n        /* \"#utility.yul\":5086:5090   */\n      0x00\n        /* \"#utility.yul\":5124:5126   */\n      0x20\n        /* \"#utility.yul\":5113:5122   */\n      dup3\n        /* \"#utility.yul\":5109:5127   */\n      add\n        /* \"#utility.yul\":5101:5127   */\n      swap1\n      pop\n        /* \"#utility.yul\":5137:5208   */\n      tag_239\n        /* \"#utility.yul\":5205:5206   */\n      0x00\n        /* \"#utility.yul\":5194:5203   */\n      dup4\n        /* \"#utility.yul\":5190:5207   */\n      add\n        /* \"#utility.yul\":5181:5187   */\n      dup5\n        /* \"#utility.yul\":5137:5208   */\n      tag_169\n      jump\t// in\n    tag_239:\n        /* \"#utility.yul\":4993:5215   */\n      swap3\n      swap2\n      pop\n      pop\n      jump\t// out\n        /* \"#utility.yul\":5221:5401   */\n    tag_170:\n        /* \"#utility.yul\":5269:5346   */\n      0x4e487b7100000000000000000000000000000000000000000000000000000000\n        /* \"#utility.yul\":5266:5267   */\n      0x00\n        /* \"#utility.yul\":5259:5347   */\n      mstore\n        /* \"#utility.yul\":5366:5370   */\n      0x11\n        /* \"#utility.yul\":5363:5364   */\n      0x04\n        /* \"#utility.yul\":5356:5371   */\n      mstore\n        /* \"#utility.yul\":5390:5394   */\n      0x24\n        /* \"#utility.yul\":5387:5388   */\n      0x00\n        /* \"#utility.yul\":5380:5395   */\n      revert\n        /* \"#utility.yul\":5407:5598   */\n    tag_111:\n        /* \"#utility.yul\":5447:5450   */\n      0x00\n        /* \"#utility.yul\":5466:5486   */\n      tag_242\n        /* \"#utility.yul\":5484:5485   */\n      dup3\n        /* \"#utility.yul\":5466:5486   */\n      tag_153\n      jump\t// in\n    tag_242:\n        /* \"#utility.yul\":5461:5486   */\n      swap2\n      pop\n        /* \"#utility.yul\":5500:5520   */\n      tag_243\n        /* \"#utility.yul\":5518:5519   */\n      dup4\n        /* \"#utility.yul\":5500:5520   */\n      tag_153\n      jump\t// in\n    tag_243:\n        /* \"#utility.yul\":5495:5520   */\n      swap3\n      pop\n        /* \"#utility.yul\":5543:5544   */\n      dup3\n        /* \"#utility.yul\":5540:5541   */\n      dup3\n        /* \"#utility.yul\":5536:5545   */\n      add\n        /* \"#utility.yul\":5529:5545   */\n      swap1\n      pop\n        /* \"#utility.yul\":5564:5567   */\n      dup1\n        /* \"#utility.yul\":5561:5562   */\n      dup3\n        /* \"#utility.yul\":5558:5568   */\n      gt\n        /* \"#utility.yul\":5555:5591   */\n      iszero\n      tag_244\n      jumpi\n        /* \"#utility.yul\":5571:5589   */\n      tag_245\n      tag_170\n      jump\t// in\n    tag_245:\n        /* \"#utility.yul\":5555:5591   */\n    tag_244:\n        /* \"#utility.yul\":5407:5598   */\n      swap3\n      swap2\n      pop\n      pop\n      jump\t// out\n        /* \"#utility.yul\":5604:5837   */\n    tag_113:\n        /* \"#utility.yul\":5643:5646   */\n      0x00\n        /* \"#utility.yul\":5666:5690   */\n      tag_247\n        /* \"#utility.yul\":5684:5689   */\n      dup3\n        /* \"#utility.yul\":5666:5690   */\n      tag_153\n      jump\t// in\n    tag_247:\n        /* \"#utility.yul\":5657:5690   */\n      swap2\n      pop\n        /* \"#utility.yul\":5712:5778   */\n      0xffffffffffffffffffffffffffffffffffffffffffffffffffffffffffffffff\n        /* \"#utility.yul\":5705:5710   */\n      dup3\n        /* \"#utility.yul\":5702:5779   */\n      sub\n        /* \"#utility.yul\":5699:5802   */\n      tag_248\n      jumpi\n        /* \"#utility.yul\":5782:5800   */\n      tag_249\n      tag_170\n      jump\t// in\n    tag_249:\n        /* \"#utility.yul\":5699:5802   */\n    tag_248:\n        /* \"#utility.yul\":5829:5830   */\n      0x01\n        /* \"#utility.yul\":5822:5827   */\n      dup3\n        /* \"#utility.yul\":5818:5831   */\n      add\n        /* \"#utility.yul\":5811:5831   */\n      swap1\n      pop\n        /* \"#utility.yul\":5604:5837   */\n      swap2\n      swap1\n      pop\n      jump\t// out\n        /* \"#utility.yul\":5843:6023   */\n    tag_117:\n        /* \"#utility.yul\":5891:5968   */\n      0x4e487b7100000000000000000000000000000000000000000000000000000000\n        /* \"#utility.yul\":5888:5889   */\n      0x00\n        /* \"#utility.yul\":5881:5969   */\n      mstore\n        /* \"#utility.yul\":5988:5992   */\n      0x21\n        /* \"#utility.yul\":5985:5986   */\n      0x04\n        /* \"#utility.yul\":5978:5993   */\n      mstore\n        /* \"#utility.yul\":6012:6016   */\n      0x24\n        /* \"#utility.yul\":6009:6010   */\n      0x00\n        /* \"#utility.yul\":6002:6017   */\n      revert\n        /* \"#utility.yul\":6029:6176   */\n    tag_171:\n        /* \"#utility.yul\":6130:6141   */\n      0x00\n        /* \"#utility.yul\":6167:6170   */\n      dup2\n        /* \"#utility.yul\":6152:6170   */\n      swap1\n      pop\n        /* \"#utility.yul\":6029:6176   */\n      swap3\n      swap2\n      pop\n      pop\n      jump\t// out\n        /* \"#utility.yul\":6182:6296   */\n    tag_172:\n      pop\n      jump\t// out\n        /* \"#utility.yul\":6302:6700   */\n    tag_173:\n        /* \"#utility.yul\":6461:6464   */\n      0x00\n        /* \"#utility.yul\":6482:6565   */\n      tag_254\n        /* \"#utility.yul\":6563:6564   */\n      0x00\n        /* \"#utility.yul\":6558:6561   */\n      dup4\n        /* \"#utility.yul\":6482:6565   */\n      tag_171\n      jump\t// in\n    tag_254:\n        /* \"#utility.yul\":6475:6565   */\n      swap2\n      pop\n        /* \"#utility.yul\":6574:6667   */\n      tag_255\n        /* \"#utility.yul\":6663:6666   */\n      dup3\n        /* \"#utility.yul\":6574:6667   */\n      tag_172\n      jump\t// in\n    tag_255:\n        /* \"#utility.yul\":6692:6693   */\n      0x00\n        /* \"#utility.yul\":6687:6690   */\n      dup3\n        /* \"#utility.yul\":6683:6694   */\n      add\n        /* \"#utility.yul\":6676:6694   */\n      swap1\n      pop\n        /* \"#utility.yul\":6302:6700   */\n      swap2\n      swap1\n      pop\n      jump\t// out\n        /* \"#utility.yul\":6706:7085   */\n    tag_125:\n        /* \"#utility.yul\":6890:6893   */\n      0x00\n        /* \"#utility.yul\":6912:7059   */\n      tag_257\n        /* \"#utility.yul\":7055:7058   */\n      dup3\n        /* \"#utility.yul\":6912:7059   */\n      tag_173\n      jump\t// in\n    tag_257:\n        /* \"#utility.yul\":6905:7059   */\n      swap2\n      pop\n        /* \"#utility.yul\":7076:7079   */\n      dup2\n        /* \"#utility.yul\":7069:7079   */\n      swap1\n      pop\n        /* \"#utility.yul\":6706:7085   */\n      swap2\n      swap1\n      pop\n      jump\t// out\n        /* \"#utility.yul\":7091:7455   */\n    tag_174:\n        /* \"#utility.yul\":7233:7236   */\n      0x00\n        /* \"#utility.yul\":7254:7320   */\n      tag_259\n        /* \"#utility.yul\":7318:7319   */\n      0x00\n        /* \"#utility.yul\":7313:7316   */\n      dup4\n        /* \"#utility.yul\":7254:7320   */\n      tag_157\n      jump\t// in\n    tag_259:\n        /* \"#utility.yul\":7247:7320   */\n      swap2\n      pop\n        /* \"#utility.yul\":7329:7422   */\n      tag_260\n        /* \"#utility.yul\":7418:7421   */\n      dup3\n        /* \"#utility.yul\":7329:7422   */\n      tag_172\n      jump\t// in\n    tag_260:\n        /* \"#utility.yul\":7447:7448   */\n      0x00\n        /* \"#utility.yul\":7442:7445   */\n      dup3\n        /* \"#utility.yul\":7438:7449   */\n      add\n        /* \"#utility.yul\":7431:7449   */\n      swap1\n      pop\n        /* \"#utility.yul\":7091:7455   */\n      swap2\n      swap1\n      pop\n      jump\t// out\n        /* \"#utility.yul\":7461:7880   */\n    tag_131:\n        /* \"#utility.yul\":7627:7631   */\n      0x00\n        /* \"#utility.yul\":7665:7667   */\n      0x20\n        /* \"#utility.yul\":7654:7663   */\n      dup3\n        /* \"#utility.yul\":7650:7668   */\n      add\n        /* \"#utility.yul\":7642:7668   */\n      swap1\n      pop\n        /* \"#utility.yul\":7714:7723   */\n      dup2\n        /* \"#utility.yul\":7708:7712   */\n      dup2\n        /* \"#utility.yul\":7704:7724   */\n      sub\n        /* \"#utility.yul\":7700:7701   */\n      0x00\n        /* \"#utility.yul\":7689:7698   */\n      dup4\n        /* \"#utility.yul\":7685:7702   */\n      add\n        /* \"#utility.yul\":7678:7725   */\n      mstore\n        /* \"#utility.yul\":7742:7873   */\n      tag_262\n        /* \"#utility.yul\":7868:7872   */\n      dup2\n        /* \"#utility.yul\":7742:7873   */\n      tag_174\n      jump\t// in\n    tag_262:\n        /* \"#utility.yul\":7734:7873   */\n      swap1\n      pop\n        /* \"#utility.yul\":7461:7880   */\n      swap2\n      swap1\n      pop\n      jump\t// out\n        /* \"#utility.yul\":7886:8296   */\n    tag_134:\n        /* \"#utility.yul\":7926:7933   */\n      0x00\n        /* \"#utility.yul\":7949:7969   */\n      tag_264\n        /* \"#utility.yul\":7967:7968   */\n      dup3\n        /* \"#utility.yul\":7949:7969   */\n      tag_153\n      jump\t// in\n    tag_264:\n        /* \"#utility.yul\":7944:7969   */\n      swap2\n      pop\n        /* \"#utility.yul\":7983:8003   */\n      tag_265\n        /* \"#utility.yul\":8001:8002   */\n      dup4\n        /* \"#utility.yul\":7983:8003   */\n      tag_153\n      jump\t// in\n    tag_265:\n        /* \"#utility.yul\":7978:8003   */\n      swap3\n      pop\n        /* \"#utility.yul\":8038:8039   */\n      dup3\n        /* \"#utility.yul\":8035:8036   */\n      dup3\n        /* \"#utility.yul\":8031:8040   */\n      mul\n        /* \"#utility.yul\":8060:8090   */\n      tag_266\n        /* \"#utility.yul\":8078:8089   */\n      dup2\n        /* \"#utility.yul\":8060:8090   */\n      tag_153\n      jump\t// in\n    tag_266:\n        /* \"#utility.yul\":8049:8090   */\n      swap2\n      pop\n        /* \"#utility.yul\":8239:8240   */\n      dup3\n        /* \"#utility.yul\":8230:8237   */\n      dup3\n        /* \"#utility.yul\":8226:8241   */\n      div\n        /* \"#utility.yul\":8223:8224   */\n      dup5\n        /* \"#utility.yul\":8220:8242   */\n      eq\n        /* \"#utility.yul\":8200:8201   */\n      dup4\n        /* \"#utility.yul\":8193:8202   */\n      iszero\n        /* \"#utility.yul\":8173:8256   */\n      or\n        /* \"#utility.yul\":8150:8289   */\n      tag_267\n      jumpi\n        /* \"#utility.yul\":8269:8287   */\n      tag_268\n      tag_170\n      jump\t// in\n    tag_268:\n        /* \"#utility.yul\":8150:8289   */\n    tag_267:\n        /* \"#utility.yul\":7934:8296   */\n      pop\n        /* \"#utility.yul\":7886:8296   */\n      swap3\n      swap2\n      pop\n      pop\n      jump\t// out\n        /* \"#utility.yul\":8302:8463   */\n    tag_175:\n        /* \"#utility.yul\":8442:8455   */\n      0x6d7367206465206572726f000000000000000000000000000000000000000000\n        /* \"#utility.yul\":8438:8439   */\n      0x00\n        /* \"#utility.yul\":8430:8436   */\n      dup3\n        /* \"#utility.yul\":8426:8440   */\n      add\n        /* \"#utility.yul\":8419:8456   */\n      mstore\n        /* \"#utility.yul\":8302:8463   */\n      pop\n      jump\t// out\n        /* \"#utility.yul\":8469:8835   */\n    tag_176:\n        /* \"#utility.yul\":8611:8614   */\n      0x00\n        /* \"#utility.yul\":8632:8699   */\n      tag_271\n        /* \"#utility.yul\":8696:8698   */\n      0x0b\n        /* \"#utility.yul\":8691:8694   */\n      dup4\n        /* \"#utility.yul\":8632:8699   */\n      tag_157\n      jump\t// in\n    tag_271:\n        /* \"#utility.yul\":8625:8699   */\n      swap2\n      pop\n        /* \"#utility.yul\":8708:8801   */\n      tag_272\n        /* \"#utility.yul\":8797:8800   */\n      dup3\n        /* \"#utility.yul\":8708:8801   */\n      tag_175\n      jump\t// in\n    tag_272:\n        /* \"#utility.yul\":8826:8828   */\n      0x20\n        /* \"#utility.yul\":8821:8824   */\n      dup3\n        /* \"#utility.yul\":8817:8829   */\n      add\n        /* \"#utility.yul\":8810:8829   */\n      swap1\n      pop\n        /* \"#utility.yul\":8469:8835   */\n      swap2\n      swap1\n      pop\n      jump\t// out\n        /* \"#utility.yul\":8841:9260   */\n    tag_141:\n        /* \"#utility.yul\":9007:9011   */\n      0x00\n        /* \"#utility.yul\":9045:9047   */\n      0x20\n        /* \"#utility.yul\":9034:9043   */\n      dup3\n        /* \"#utility.yul\":9030:9048   */\n      add\n        /* \"#utility.yul\":9022:9048   */\n      swap1\n      pop\n        /* \"#utility.yul\":9094:9103   */\n      dup2\n        /* \"#utility.yul\":9088:9092   */\n      dup2\n        /* \"#utility.yul\":9084:9104   */\n      sub\n        /* \"#utility.yul\":9080:9081   */\n      0x00\n        /* \"#utility.yul\":9069:9078   */\n      dup4\n        /* \"#utility.yul\":9065:9082   */\n      add\n        /* \"#utility.yul\":9058:9105   */\n      mstore\n        /* \"#utility.yul\":9122:9253   */\n      tag_274\n        /* \"#utility.yul\":9248:9252   */\n      dup2\n        /* \"#utility.yul\":9122:9253   */\n      tag_176\n      jump\t// in\n    tag_274:\n        /* \"#utility.yul\":9114:9253   */\n      swap1\n      pop\n        /* \"#utility.yul\":8841:9260   */\n      swap2\n      swap1\n      pop\n      jump\t// out\n\n    auxdata: 0xa2646970667358221220c74a540273edc93ea678f25cc8ae07fc0ca58c64a78eb27dba46ec9a569029c164736f6c63430008140033\n}\n",
				"bytecode": {
					"linkReferences": {},
					"object": "60a060405234801561000f575f80fd5b50604051610d92380380610d9283398181016040528101906100319190610109565b3360035f6101000a81548173ffffffffffffffffffffffffffffffffffffffff021916908373ffffffffffffffffffffffffffffffffffffffff1602179055508073ffffffffffffffffffffffffffffffffffffffff1660808173ffffffffffffffffffffffffffffffffffffffff168152505050610134565b5f80fd5b5f73ffffffffffffffffffffffffffffffffffffffff82169050919050565b5f6100d8826100af565b9050919050565b6100e8816100ce565b81146100f2575f80fd5b50565b5f81519050610103816100df565b92915050565b5f6020828403121561011e5761011d6100ab565b5b5f61012b848285016100f5565b91505092915050565b608051610c4661014c5f395f61072f0152610c465ff3fe60806040526004361061010c575f3560e01c80637b5d520b116100945780639f4a079b116100635780639f4a079b14610321578063b41f4c311461034b578063c57ef1f714610387578063dba6335f146103b1578063e376abbc146103db57610113565b80637b5d520b1461028f5780638c5d78f4146102a557806391fe10cd146102cf57806397bb180c146102f757610113565b80634a7ba7d6116100db5780634a7ba7d6146101cd578063514d56ac146101d757806351cff8d9146102015780635a37fb4e146102295780636984f0201461026557610113565b80633a32b549146101175780633c26d4dc1461012d57806347268bb0146101695780634a1ac7461461019157610113565b3661011357005b5f80fd5b348015610122575f80fd5b5061012b610403565b005b348015610138575f80fd5b50610153600480360381019061014e91906107cd565b610405565b6040516101609190610882565b60405180910390f35b348015610174575f80fd5b5061018f600480360381019061018a91906108c5565b610473565b005b34801561019c575f80fd5b506101b760048036038101906101b291906107cd565b61049e565b6040516101c49190610882565b60405180910390f35b6101d5610568565b005b3480156101e2575f80fd5b506101eb61056a565b6040516101f8919061092f565b60405180910390f35b34801561020c575f80fd5b5061022760048036038101906102229190610983565b61058f565b005b348015610234575f80fd5b5061024f600480360381019061024a91906109ae565b61063e565b60405161025c91906109fb565b60405180910390f35b348015610270575f80fd5b50610279610653565b60405161028691906109fb565b60405180910390f35b34801561029a575f80fd5b506102a361065c565b005b3480156102b0575f80fd5b506102b961065e565b6040516102c691906109fb565b60405180910390f35b3480156102da575f80fd5b506102f560048036038101906102f091906107cd565b610665565b005b348015610302575f80fd5b5061030b6106b3565b60405161031891906109fb565b60405180910390f35b34801561032c575f80fd5b506103356106b8565b60405161034291906109fb565b60405180910390f35b348015610356575f80fd5b50610371600480360381019061036c91906107cd565b6106c1565b60405161037e9190610882565b60405180910390f35b348015610392575f80fd5b5061039b610727565b6040516103a891906109fb565b60405180910390f35b3480156103bc575f80fd5b506103c561072d565b6040516103d2919061092f565b60405180910390f35b3480156103e6575f80fd5b5061040160048036038101906103fc91906107cd565b610751565b005b565b60605f5b828111610435576001805461041e9190610a41565b6001819055508061042e90610a74565b9050610409565b506040518060400160405280600581526020017f76616d6f6f0000000000000000000000000000000000000000000000000000008152509050919050565b805f806101000a81548160ff0219169083600281111561049657610495610abb565b5b021790555050565b6060604d82036104e5576040518060400160405280600981526020017f476f6f64204c75636b00000000000000000000000000000000000000000000008152509050610563565b600d820361052a576040518060400160405280600881526020017f426164204c75636b0000000000000000000000000000000000000000000000008152509050610563565b6040518060400160405280600381526020017f6f7061000000000000000000000000000000000000000000000000000000000081525090505b919050565b565b60035f9054906101000a900473ffffffffffffffffffffffffffffffffffffffff1681565b5f808273ffffffffffffffffffffffffffffffffffffffff16476040516105b590610b15565b5f6040518083038185875af1925050503d805f81146105ef576040519150601f19603f3d011682016040523d82523d5f602084013e6105f4565b606091505b509150915081610639576040517f08c379a000000000000000000000000000000000000000000000000000000000815260040161063090610b49565b60405180910390fd5b505050565b5f818361064b9190610b67565b905092915050565b5f600154905090565b565b5f47905090565b68056bc75e2d6310000081106106b0576040517f08c379a00000000000000000000000000000000000000000000000000000000081526004016106a790610bf2565b60405180910390fd5b50565b600181565b5f600154905090565b60605f5b8281116106e95760468103156106e9576001816106e29190610a41565b90506106c5565b6040518060400160405280600581526020017f76616d6f6f000000000000000000000000000000000000000000000000000000815250915050919050565b60015481565b7f000000000000000000000000000000000000000000000000000000000000000081565b68056bc75e2d631000008110610793576040517fcad821b800000000000000000000000000000000000000000000000000000000815260040160405180910390fd5b50565b5f80fd5b5f819050919050565b6107ac8161079a565b81146107b6575f80fd5b50565b5f813590506107c7816107a3565b92915050565b5f602082840312156107e2576107e1610796565b5b5f6107ef848285016107b9565b91505092915050565b5f81519050919050565b5f82825260208201905092915050565b5f5b8381101561082f578082015181840152602081019050610814565b5f8484015250505050565b5f601f19601f8301169050919050565b5f610854826107f8565b61085e8185610802565b935061086e818560208601610812565b6108778161083a565b840191505092915050565b5f6020820190508181035f83015261089a818461084a565b905092915050565b600381106108ae575f80fd5b50565b5f813590506108bf816108a2565b92915050565b5f602082840312156108da576108d9610796565b5b5f6108e7848285016108b1565b91505092915050565b5f73ffffffffffffffffffffffffffffffffffffffff82169050919050565b5f610919826108f0565b9050919050565b6109298161090f565b82525050565b5f6020820190506109425f830184610920565b92915050565b5f610952826108f0565b9050919050565b61096281610948565b811461096c575f80fd5b50565b5f8135905061097d81610959565b92915050565b5f6020828403121561099857610997610796565b5b5f6109a58482850161096f565b91505092915050565b5f80604083850312156109c4576109c3610796565b5b5f6109d1858286016107b9565b92505060206109e2858286016107b9565b9150509250929050565b6109f58161079a565b82525050565b5f602082019050610a0e5f8301846109ec565b92915050565b7f4e487b71000000000000000000000000000000000000000000000000000000005f52601160045260245ffd5b5f610a4b8261079a565b9150610a568361079a565b9250828201905080821115610a6e57610a6d610a14565b5b92915050565b5f610a7e8261079a565b91507fffffffffffffffffffffffffffffffffffffffffffffffffffffffffffffffff8203610ab057610aaf610a14565b5b600182019050919050565b7f4e487b71000000000000000000000000000000000000000000000000000000005f52602160045260245ffd5b5f81905092915050565b50565b5f610b005f83610ae8565b9150610b0b82610af2565b5f82019050919050565b5f610b1f82610af5565b9150819050919050565b5f610b345f83610802565b9150610b3f82610af2565b5f82019050919050565b5f6020820190508181035f830152610b6081610b29565b9050919050565b5f610b718261079a565b9150610b7c8361079a565b9250828202610b8a8161079a565b91508282048414831517610ba157610ba0610a14565b5b5092915050565b7f6d7367206465206572726f0000000000000000000000000000000000000000005f82015250565b5f610bdc600b83610802565b9150610be782610ba8565b602082019050919050565b5f6020820190508181035f830152610c0981610bd0565b905091905056fea2646970667358221220c74a540273edc93ea678f25cc8ae07fc0ca58c64a78eb27dba46ec9a569029c164736f6c63430008140033",
					"opcodes": "PUSH1 0xA0 PUSH1 0x40 MSTORE CALLVALUE DUP1 ISZERO PUSH2 0xF JUMPI PUSH0 DUP1 REVERT JUMPDEST POP PUSH1 0x40 MLOAD PUSH2 0xD92 CODESIZE SUB DUP1 PUSH2 0xD92 DUP4 CODECOPY DUP2 DUP2 ADD PUSH1 0x40 MSTORE DUP2 ADD SWAP1 PUSH2 0x31 SWAP2 SWAP1 PUSH2 0x109 JUMP JUMPDEST CALLER PUSH1 0x3 PUSH0 PUSH2 0x100 EXP DUP2 SLOAD DUP2 PUSH20 0xFFFFFFFFFFFFFFFFFFFFFFFFFFFFFFFFFFFFFFFF MUL NOT AND SWAP1 DUP4 PUSH20 0xFFFFFFFFFFFFFFFFFFFFFFFFFFFFFFFFFFFFFFFF AND MUL OR SWAP1 SSTORE POP DUP1 PUSH20 0xFFFFFFFFFFFFFFFFFFFFFFFFFFFFFFFFFFFFFFFF AND PUSH1 0x80 DUP2 PUSH20 0xFFFFFFFFFFFFFFFFFFFFFFFFFFFFFFFFFFFFFFFF AND DUP2 MSTORE POP POP POP PUSH2 0x134 JUMP JUMPDEST PUSH0 DUP1 REVERT JUMPDEST PUSH0 PUSH20 0xFFFFFFFFFFFFFFFFFFFFFFFFFFFFFFFFFFFFFFFF DUP3 AND SWAP1 POP SWAP2 SWAP1 POP JUMP JUMPDEST PUSH0 PUSH2 0xD8 DUP3 PUSH2 0xAF JUMP JUMPDEST SWAP1 POP SWAP2 SWAP1 POP JUMP JUMPDEST PUSH2 0xE8 DUP2 PUSH2 0xCE JUMP JUMPDEST DUP2 EQ PUSH2 0xF2 JUMPI PUSH0 DUP1 REVERT JUMPDEST POP JUMP JUMPDEST PUSH0 DUP2 MLOAD SWAP1 POP PUSH2 0x103 DUP2 PUSH2 0xDF JUMP JUMPDEST SWAP3 SWAP2 POP POP JUMP JUMPDEST PUSH0 PUSH1 0x20 DUP3 DUP5 SUB SLT ISZERO PUSH2 0x11E JUMPI PUSH2 0x11D PUSH2 0xAB JUMP JUMPDEST JUMPDEST PUSH0 PUSH2 0x12B DUP5 DUP3 DUP6 ADD PUSH2 0xF5 JUMP JUMPDEST SWAP2 POP POP SWAP3 SWAP2 POP POP JUMP JUMPDEST PUSH1 0x80 MLOAD PUSH2 0xC46 PUSH2 0x14C PUSH0 CODECOPY PUSH0 PUSH2 0x72F ADD MSTORE PUSH2 0xC46 PUSH0 RETURN INVALID PUSH1 0x80 PUSH1 0x40 MSTORE PUSH1 0x4 CALLDATASIZE LT PUSH2 0x10C JUMPI PUSH0 CALLDATALOAD PUSH1 0xE0 SHR DUP1 PUSH4 0x7B5D520B GT PUSH2 0x94 JUMPI DUP1 PUSH4 0x9F4A079B GT PUSH2 0x63 JUMPI DUP1 PUSH4 0x9F4A079B EQ PUSH2 0x321 JUMPI DUP1 PUSH4 0xB41F4C31 EQ PUSH2 0x34B JUMPI DUP1 PUSH4 0xC57EF1F7 EQ PUSH2 0x387 JUMPI DUP1 PUSH4 0xDBA6335F EQ PUSH2 0x3B1 JUMPI DUP1 PUSH4 0xE376ABBC EQ PUSH2 0x3DB JUMPI PUSH2 0x113 JUMP JUMPDEST DUP1 PUSH4 0x7B5D520B EQ PUSH2 0x28F JUMPI DUP1 PUSH4 0x8C5D78F4 EQ PUSH2 0x2A5 JUMPI DUP1 PUSH4 0x91FE10CD EQ PUSH2 0x2CF JUMPI DUP1 PUSH4 0x97BB180C EQ PUSH2 0x2F7 JUMPI PUSH2 0x113 JUMP JUMPDEST DUP1 PUSH4 0x4A7BA7D6 GT PUSH2 0xDB JUMPI DUP1 PUSH4 0x4A7BA7D6 EQ PUSH2 0x1CD JUMPI DUP1 PUSH4 0x514D56AC EQ PUSH2 0x1D7 JUMPI DUP1 PUSH4 0x51CFF8D9 EQ PUSH2 0x201 JUMPI DUP1 PUSH4 0x5A37FB4E EQ PUSH2 0x229 JUMPI DUP1 PUSH4 0x6984F020 EQ PUSH2 0x265 JUMPI PUSH2 0x113 JUMP JUMPDEST DUP1 PUSH4 0x3A32B549 EQ PUSH2 0x117 JUMPI DUP1 PUSH4 0x3C26D4DC EQ PUSH2 0x12D JUMPI DUP1 PUSH4 0x47268BB0 EQ PUSH2 0x169 JUMPI DUP1 PUSH4 0x4A1AC746 EQ PUSH2 0x191 JUMPI PUSH2 0x113 JUMP JUMPDEST CALLDATASIZE PUSH2 0x113 JUMPI STOP JUMPDEST PUSH0 DUP1 REVERT JUMPDEST CALLVALUE DUP1 ISZERO PUSH2 0x122 JUMPI PUSH0 DUP1 REVERT JUMPDEST POP PUSH2 0x12B PUSH2 0x403 JUMP JUMPDEST STOP JUMPDEST CALLVALUE DUP1 ISZERO PUSH2 0x138 JUMPI PUSH0 DUP1 REVERT JUMPDEST POP PUSH2 0x153 PUSH1 0x4 DUP1 CALLDATASIZE SUB DUP2 ADD SWAP1 PUSH2 0x14E SWAP2 SWAP1 PUSH2 0x7CD JUMP JUMPDEST PUSH2 0x405 JUMP JUMPDEST PUSH1 0x40 MLOAD PUSH2 0x160 SWAP2 SWAP1 PUSH2 0x882 JUMP JUMPDEST PUSH1 0x40 MLOAD DUP1 SWAP2 SUB SWAP1 RETURN JUMPDEST CALLVALUE DUP1 ISZERO PUSH2 0x174 JUMPI PUSH0 DUP1 REVERT JUMPDEST POP PUSH2 0x18F PUSH1 0x4 DUP1 CALLDATASIZE SUB DUP2 ADD SWAP1 PUSH2 0x18A SWAP2 SWAP1 PUSH2 0x8C5 JUMP JUMPDEST PUSH2 0x473 JUMP JUMPDEST STOP JUMPDEST CALLVALUE DUP1 ISZERO PUSH2 0x19C JUMPI PUSH0 DUP1 REVERT JUMPDEST POP PUSH2 0x1B7 PUSH1 0x4 DUP1 CALLDATASIZE SUB DUP2 ADD SWAP1 PUSH2 0x1B2 SWAP2 SWAP1 PUSH2 0x7CD JUMP JUMPDEST PUSH2 0x49E JUMP JUMPDEST PUSH1 0x40 MLOAD PUSH2 0x1C4 SWAP2 SWAP1 PUSH2 0x882 JUMP JUMPDEST PUSH1 0x40 MLOAD DUP1 SWAP2 SUB SWAP1 RETURN JUMPDEST PUSH2 0x1D5 PUSH2 0x568 JUMP JUMPDEST STOP JUMPDEST CALLVALUE DUP1 ISZERO PUSH2 0x1E2 JUMPI PUSH0 DUP1 REVERT JUMPDEST POP PUSH2 0x1EB PUSH2 0x56A JUMP JUMPDEST PUSH1 0x40 MLOAD PUSH2 0x1F8 SWAP2 SWAP1 PUSH2 0x92F JUMP JUMPDEST PUSH1 0x40 MLOAD DUP1 SWAP2 SUB SWAP1 RETURN JUMPDEST CALLVALUE DUP1 ISZERO PUSH2 0x20C JUMPI PUSH0 DUP1 REVERT JUMPDEST POP PUSH2 0x227 PUSH1 0x4 DUP1 CALLDATASIZE SUB DUP2 ADD SWAP1 PUSH2 0x222 SWAP2 SWAP1 PUSH2 0x983 JUMP JUMPDEST PUSH2 0x58F JUMP JUMPDEST STOP JUMPDEST CALLVALUE DUP1 ISZERO PUSH2 0x234 JUMPI PUSH0 DUP1 REVERT JUMPDEST POP PUSH2 0x24F PUSH1 0x4 DUP1 CALLDATASIZE SUB DUP2 ADD SWAP1 PUSH2 0x24A SWAP2 SWAP1 PUSH2 0x9AE JUMP JUMPDEST PUSH2 0x63E JUMP JUMPDEST PUSH1 0x40 MLOAD PUSH2 0x25C SWAP2 SWAP1 PUSH2 0x9FB JUMP JUMPDEST PUSH1 0x40 MLOAD DUP1 SWAP2 SUB SWAP1 RETURN JUMPDEST CALLVALUE DUP1 ISZERO PUSH2 0x270 JUMPI PUSH0 DUP1 REVERT JUMPDEST POP PUSH2 0x279 PUSH2 0x653 JUMP JUMPDEST PUSH1 0x40 MLOAD PUSH2 0x286 SWAP2 SWAP1 PUSH2 0x9FB JUMP JUMPDEST PUSH1 0x40 MLOAD DUP1 SWAP2 SUB SWAP1 RETURN JUMPDEST CALLVALUE DUP1 ISZERO PUSH2 0x29A JUMPI PUSH0 DUP1 REVERT JUMPDEST POP PUSH2 0x2A3 PUSH2 0x65C JUMP JUMPDEST STOP JUMPDEST CALLVALUE DUP1 ISZERO PUSH2 0x2B0 JUMPI PUSH0 DUP1 REVERT JUMPDEST POP PUSH2 0x2B9 PUSH2 0x65E JUMP JUMPDEST PUSH1 0x40 MLOAD PUSH2 0x2C6 SWAP2 SWAP1 PUSH2 0x9FB JUMP JUMPDEST PUSH1 0x40 MLOAD DUP1 SWAP2 SUB SWAP1 RETURN JUMPDEST CALLVALUE DUP1 ISZERO PUSH2 0x2DA JUMPI PUSH0 DUP1 REVERT JUMPDEST POP PUSH2 0x2F5 PUSH1 0x4 DUP1 CALLDATASIZE SUB DUP2 ADD SWAP1 PUSH2 0x2F0 SWAP2 SWAP1 PUSH2 0x7CD JUMP JUMPDEST PUSH2 0x665 JUMP JUMPDEST STOP JUMPDEST CALLVALUE DUP1 ISZERO PUSH2 0x302 JUMPI PUSH0 DUP1 REVERT JUMPDEST POP PUSH2 0x30B PUSH2 0x6B3 JUMP JUMPDEST PUSH1 0x40 MLOAD PUSH2 0x318 SWAP2 SWAP1 PUSH2 0x9FB JUMP JUMPDEST PUSH1 0x40 MLOAD DUP1 SWAP2 SUB SWAP1 RETURN JUMPDEST CALLVALUE DUP1 ISZERO PUSH2 0x32C JUMPI PUSH0 DUP1 REVERT JUMPDEST POP PUSH2 0x335 PUSH2 0x6B8 JUMP JUMPDEST PUSH1 0x40 MLOAD PUSH2 0x342 SWAP2 SWAP1 PUSH2 0x9FB JUMP JUMPDEST PUSH1 0x40 MLOAD DUP1 SWAP2 SUB SWAP1 RETURN JUMPDEST CALLVALUE DUP1 ISZERO PUSH2 0x356 JUMPI PUSH0 DUP1 REVERT JUMPDEST POP PUSH2 0x371 PUSH1 0x4 DUP1 CALLDATASIZE SUB DUP2 ADD SWAP1 PUSH2 0x36C SWAP2 SWAP1 PUSH2 0x7CD JUMP JUMPDEST PUSH2 0x6C1 JUMP JUMPDEST PUSH1 0x40 MLOAD PUSH2 0x37E SWAP2 SWAP1 PUSH2 0x882 JUMP JUMPDEST PUSH1 0x40 MLOAD DUP1 SWAP2 SUB SWAP1 RETURN JUMPDEST CALLVALUE DUP1 ISZERO PUSH2 0x392 JUMPI PUSH0 DUP1 REVERT JUMPDEST POP PUSH2 0x39B PUSH2 0x727 JUMP JUMPDEST PUSH1 0x40 MLOAD PUSH2 0x3A8 SWAP2 SWAP1 PUSH2 0x9FB JUMP JUMPDEST PUSH1 0x40 MLOAD DUP1 SWAP2 SUB SWAP1 RETURN JUMPDEST CALLVALUE DUP1 ISZERO PUSH2 0x3BC JUMPI PUSH0 DUP1 REVERT JUMPDEST POP PUSH2 0x3C5 PUSH2 0x72D JUMP JUMPDEST PUSH1 0x40 MLOAD PUSH2 0x3D2 SWAP2 SWAP1 PUSH2 0x92F JUMP JUMPDEST PUSH1 0x40 MLOAD DUP1 SWAP2 SUB SWAP1 RETURN JUMPDEST CALLVALUE DUP1 ISZERO PUSH2 0x3E6 JUMPI PUSH0 DUP1 REVERT JUMPDEST POP PUSH2 0x401 PUSH1 0x4 DUP1 CALLDATASIZE SUB DUP2 ADD SWAP1 PUSH2 0x3FC SWAP2 SWAP1 PUSH2 0x7CD JUMP JUMPDEST PUSH2 0x751 JUMP JUMPDEST STOP JUMPDEST JUMP JUMPDEST PUSH1 0x60 PUSH0 JUMPDEST DUP3 DUP2 GT PUSH2 0x435 JUMPI PUSH1 0x1 DUP1 SLOAD PUSH2 0x41E SWAP2 SWAP1 PUSH2 0xA41 JUMP JUMPDEST PUSH1 0x1 DUP2 SWAP1 SSTORE POP DUP1 PUSH2 0x42E SWAP1 PUSH2 0xA74 JUMP JUMPDEST SWAP1 POP PUSH2 0x409 JUMP JUMPDEST POP PUSH1 0x40 MLOAD DUP1 PUSH1 0x40 ADD PUSH1 0x40 MSTORE DUP1 PUSH1 0x5 DUP2 MSTORE PUSH1 0x20 ADD PUSH32 0x76616D6F6F000000000000000000000000000000000000000000000000000000 DUP2 MSTORE POP SWAP1 POP SWAP2 SWAP1 POP JUMP JUMPDEST DUP1 PUSH0 DUP1 PUSH2 0x100 EXP DUP2 SLOAD DUP2 PUSH1 0xFF MUL NOT AND SWAP1 DUP4 PUSH1 0x2 DUP2 GT ISZERO PUSH2 0x496 JUMPI PUSH2 0x495 PUSH2 0xABB JUMP JUMPDEST JUMPDEST MUL OR SWAP1 SSTORE POP POP JUMP JUMPDEST PUSH1 0x60 PUSH1 0x4D DUP3 SUB PUSH2 0x4E5 JUMPI PUSH1 0x40 MLOAD DUP1 PUSH1 0x40 ADD PUSH1 0x40 MSTORE DUP1 PUSH1 0x9 DUP2 MSTORE PUSH1 0x20 ADD PUSH32 0x476F6F64204C75636B0000000000000000000000000000000000000000000000 DUP2 MSTORE POP SWAP1 POP PUSH2 0x563 JUMP JUMPDEST PUSH1 0xD DUP3 SUB PUSH2 0x52A JUMPI PUSH1 0x40 MLOAD DUP1 PUSH1 0x40 ADD PUSH1 0x40 MSTORE DUP1 PUSH1 0x8 DUP2 MSTORE PUSH1 0x20 ADD PUSH32 0x426164204C75636B000000000000000000000000000000000000000000000000 DUP2 MSTORE POP SWAP1 POP PUSH2 0x563 JUMP JUMPDEST PUSH1 0x40 MLOAD DUP1 PUSH1 0x40 ADD PUSH1 0x40 MSTORE DUP1 PUSH1 0x3 DUP2 MSTORE PUSH1 0x20 ADD PUSH32 0x6F70610000000000000000000000000000000000000000000000000000000000 DUP2 MSTORE POP SWAP1 POP JUMPDEST SWAP2 SWAP1 POP JUMP JUMPDEST JUMP JUMPDEST PUSH1 0x3 PUSH0 SWAP1 SLOAD SWAP1 PUSH2 0x100 EXP SWAP1 DIV PUSH20 0xFFFFFFFFFFFFFFFFFFFFFFFFFFFFFFFFFFFFFFFF AND DUP2 JUMP JUMPDEST PUSH0 DUP1 DUP3 PUSH20 0xFFFFFFFFFFFFFFFFFFFFFFFFFFFFFFFFFFFFFFFF AND SELFBALANCE PUSH1 0x40 MLOAD PUSH2 0x5B5 SWAP1 PUSH2 0xB15 JUMP JUMPDEST PUSH0 PUSH1 0x40 MLOAD DUP1 DUP4 SUB DUP2 DUP6 DUP8 GAS CALL SWAP3 POP POP POP RETURNDATASIZE DUP1 PUSH0 DUP2 EQ PUSH2 0x5EF JUMPI PUSH1 0x40 MLOAD SWAP2 POP PUSH1 0x1F NOT PUSH1 0x3F RETURNDATASIZE ADD AND DUP3 ADD PUSH1 0x40 MSTORE RETURNDATASIZE DUP3 MSTORE RETURNDATASIZE PUSH0 PUSH1 0x20 DUP5 ADD RETURNDATACOPY PUSH2 0x5F4 JUMP JUMPDEST PUSH1 0x60 SWAP2 POP JUMPDEST POP SWAP2 POP SWAP2 POP DUP2 PUSH2 0x639 JUMPI PUSH1 0x40 MLOAD PUSH32 0x8C379A000000000000000000000000000000000000000000000000000000000 DUP2 MSTORE PUSH1 0x4 ADD PUSH2 0x630 SWAP1 PUSH2 0xB49 JUMP JUMPDEST PUSH1 0x40 MLOAD DUP1 SWAP2 SUB SWAP1 REVERT JUMPDEST POP POP POP JUMP JUMPDEST PUSH0 DUP2 DUP4 PUSH2 0x64B SWAP2 SWAP1 PUSH2 0xB67 JUMP JUMPDEST SWAP1 POP SWAP3 SWAP2 POP POP JUMP JUMPDEST PUSH0 PUSH1 0x1 SLOAD SWAP1 POP SWAP1 JUMP JUMPDEST JUMP JUMPDEST PUSH0 SELFBALANCE SWAP1 POP SWAP1 JUMP JUMPDEST PUSH9 0x56BC75E2D63100000 DUP2 LT PUSH2 0x6B0 JUMPI PUSH1 0x40 MLOAD PUSH32 0x8C379A000000000000000000000000000000000000000000000000000000000 DUP2 MSTORE PUSH1 0x4 ADD PUSH2 0x6A7 SWAP1 PUSH2 0xBF2 JUMP JUMPDEST PUSH1 0x40 MLOAD DUP1 SWAP2 SUB SWAP1 REVERT JUMPDEST POP JUMP JUMPDEST PUSH1 0x1 DUP2 JUMP JUMPDEST PUSH0 PUSH1 0x1 SLOAD SWAP1 POP SWAP1 JUMP JUMPDEST PUSH1 0x60 PUSH0 JUMPDEST DUP3 DUP2 GT PUSH2 0x6E9 JUMPI PUSH1 0x46 DUP2 SUB ISZERO PUSH2 0x6E9 JUMPI PUSH1 0x1 DUP2 PUSH2 0x6E2 SWAP2 SWAP1 PUSH2 0xA41 JUMP JUMPDEST SWAP1 POP PUSH2 0x6C5 JUMP JUMPDEST PUSH1 0x40 MLOAD DUP1 PUSH1 0x40 ADD PUSH1 0x40 MSTORE DUP1 PUSH1 0x5 DUP2 MSTORE PUSH1 0x20 ADD PUSH32 0x76616D6F6F000000000000000000000000000000000000000000000000000000 DUP2 MSTORE POP SWAP2 POP POP SWAP2 SWAP1 POP JUMP JUMPDEST PUSH1 0x1 SLOAD DUP2 JUMP JUMPDEST PUSH32 0x0 DUP2 JUMP JUMPDEST PUSH9 0x56BC75E2D63100000 DUP2 LT PUSH2 0x793 JUMPI PUSH1 0x40 MLOAD PUSH32 0xCAD821B800000000000000000000000000000000000000000000000000000000 DUP2 MSTORE PUSH1 0x4 ADD PUSH1 0x40 MLOAD DUP1 SWAP2 SUB SWAP1 REVERT JUMPDEST POP JUMP JUMPDEST PUSH0 DUP1 REVERT JUMPDEST PUSH0 DUP2 SWAP1 POP SWAP2 SWAP1 POP JUMP JUMPDEST PUSH2 0x7AC DUP2 PUSH2 0x79A JUMP JUMPDEST DUP2 EQ PUSH2 0x7B6 JUMPI PUSH0 DUP1 REVERT JUMPDEST POP JUMP JUMPDEST PUSH0 DUP2 CALLDATALOAD SWAP1 POP PUSH2 0x7C7 DUP2 PUSH2 0x7A3 JUMP JUMPDEST SWAP3 SWAP2 POP POP JUMP JUMPDEST PUSH0 PUSH1 0x20 DUP3 DUP5 SUB SLT ISZERO PUSH2 0x7E2 JUMPI PUSH2 0x7E1 PUSH2 0x796 JUMP JUMPDEST JUMPDEST PUSH0 PUSH2 0x7EF DUP5 DUP3 DUP6 ADD PUSH2 0x7B9 JUMP JUMPDEST SWAP2 POP POP SWAP3 SWAP2 POP POP JUMP JUMPDEST PUSH0 DUP2 MLOAD SWAP1 POP SWAP2 SWAP1 POP JUMP JUMPDEST PUSH0 DUP3 DUP3 MSTORE PUSH1 0x20 DUP3 ADD SWAP1 POP SWAP3 SWAP2 POP POP JUMP JUMPDEST PUSH0 JUMPDEST DUP4 DUP2 LT ISZERO PUSH2 0x82F JUMPI DUP1 DUP3 ADD MLOAD DUP2 DUP5 ADD MSTORE PUSH1 0x20 DUP2 ADD SWAP1 POP PUSH2 0x814 JUMP JUMPDEST PUSH0 DUP5 DUP5 ADD MSTORE POP POP POP POP JUMP JUMPDEST PUSH0 PUSH1 0x1F NOT PUSH1 0x1F DUP4 ADD AND SWAP1 POP SWAP2 SWAP1 POP JUMP JUMPDEST PUSH0 PUSH2 0x854 DUP3 PUSH2 0x7F8 JUMP JUMPDEST PUSH2 0x85E DUP2 DUP6 PUSH2 0x802 JUMP JUMPDEST SWAP4 POP PUSH2 0x86E DUP2 DUP6 PUSH1 0x20 DUP7 ADD PUSH2 0x812 JUMP JUMPDEST PUSH2 0x877 DUP2 PUSH2 0x83A JUMP JUMPDEST DUP5 ADD SWAP2 POP POP SWAP3 SWAP2 POP POP JUMP JUMPDEST PUSH0 PUSH1 0x20 DUP3 ADD SWAP1 POP DUP2 DUP2 SUB PUSH0 DUP4 ADD MSTORE PUSH2 0x89A DUP2 DUP5 PUSH2 0x84A JUMP JUMPDEST SWAP1 POP SWAP3 SWAP2 POP POP JUMP JUMPDEST PUSH1 0x3 DUP2 LT PUSH2 0x8AE JUMPI PUSH0 DUP1 REVERT JUMPDEST POP JUMP JUMPDEST PUSH0 DUP2 CALLDATALOAD SWAP1 POP PUSH2 0x8BF DUP2 PUSH2 0x8A2 JUMP JUMPDEST SWAP3 SWAP2 POP POP JUMP JUMPDEST PUSH0 PUSH1 0x20 DUP3 DUP5 SUB SLT ISZERO PUSH2 0x8DA JUMPI PUSH2 0x8D9 PUSH2 0x796 JUMP JUMPDEST JUMPDEST PUSH0 PUSH2 0x8E7 DUP5 DUP3 DUP6 ADD PUSH2 0x8B1 JUMP JUMPDEST SWAP2 POP POP SWAP3 SWAP2 POP POP JUMP JUMPDEST PUSH0 PUSH20 0xFFFFFFFFFFFFFFFFFFFFFFFFFFFFFFFFFFFFFFFF DUP3 AND SWAP1 POP SWAP2 SWAP1 POP JUMP JUMPDEST PUSH0 PUSH2 0x919 DUP3 PUSH2 0x8F0 JUMP JUMPDEST SWAP1 POP SWAP2 SWAP1 POP JUMP JUMPDEST PUSH2 0x929 DUP2 PUSH2 0x90F JUMP JUMPDEST DUP3 MSTORE POP POP JUMP JUMPDEST PUSH0 PUSH1 0x20 DUP3 ADD SWAP1 POP PUSH2 0x942 PUSH0 DUP4 ADD DUP5 PUSH2 0x920 JUMP JUMPDEST SWAP3 SWAP2 POP POP JUMP JUMPDEST PUSH0 PUSH2 0x952 DUP3 PUSH2 0x8F0 JUMP JUMPDEST SWAP1 POP SWAP2 SWAP1 POP JUMP JUMPDEST PUSH2 0x962 DUP2 PUSH2 0x948 JUMP JUMPDEST DUP2 EQ PUSH2 0x96C JUMPI PUSH0 DUP1 REVERT JUMPDEST POP JUMP JUMPDEST PUSH0 DUP2 CALLDATALOAD SWAP1 POP PUSH2 0x97D DUP2 PUSH2 0x959 JUMP JUMPDEST SWAP3 SWAP2 POP POP JUMP JUMPDEST PUSH0 PUSH1 0x20 DUP3 DUP5 SUB SLT ISZERO PUSH2 0x998 JUMPI PUSH2 0x997 PUSH2 0x796 JUMP JUMPDEST JUMPDEST PUSH0 PUSH2 0x9A5 DUP5 DUP3 DUP6 ADD PUSH2 0x96F JUMP JUMPDEST SWAP2 POP POP SWAP3 SWAP2 POP POP JUMP JUMPDEST PUSH0 DUP1 PUSH1 0x40 DUP4 DUP6 SUB SLT ISZERO PUSH2 0x9C4 JUMPI PUSH2 0x9C3 PUSH2 0x796 JUMP JUMPDEST JUMPDEST PUSH0 PUSH2 0x9D1 DUP6 DUP3 DUP7 ADD PUSH2 0x7B9 JUMP JUMPDEST SWAP3 POP POP PUSH1 0x20 PUSH2 0x9E2 DUP6 DUP3 DUP7 ADD PUSH2 0x7B9 JUMP JUMPDEST SWAP2 POP POP SWAP3 POP SWAP3 SWAP1 POP JUMP JUMPDEST PUSH2 0x9F5 DUP2 PUSH2 0x79A JUMP JUMPDEST DUP3 MSTORE POP POP JUMP JUMPDEST PUSH0 PUSH1 0x20 DUP3 ADD SWAP1 POP PUSH2 0xA0E PUSH0 DUP4 ADD DUP5 PUSH2 0x9EC JUMP JUMPDEST SWAP3 SWAP2 POP POP JUMP JUMPDEST PUSH32 0x4E487B7100000000000000000000000000000000000000000000000000000000 PUSH0 MSTORE PUSH1 0x11 PUSH1 0x4 MSTORE PUSH1 0x24 PUSH0 REVERT JUMPDEST PUSH0 PUSH2 0xA4B DUP3 PUSH2 0x79A JUMP JUMPDEST SWAP2 POP PUSH2 0xA56 DUP4 PUSH2 0x79A JUMP JUMPDEST SWAP3 POP DUP3 DUP3 ADD SWAP1 POP DUP1 DUP3 GT ISZERO PUSH2 0xA6E JUMPI PUSH2 0xA6D PUSH2 0xA14 JUMP JUMPDEST JUMPDEST SWAP3 SWAP2 POP POP JUMP JUMPDEST PUSH0 PUSH2 0xA7E DUP3 PUSH2 0x79A JUMP JUMPDEST SWAP2 POP PUSH32 0xFFFFFFFFFFFFFFFFFFFFFFFFFFFFFFFFFFFFFFFFFFFFFFFFFFFFFFFFFFFFFFFF DUP3 SUB PUSH2 0xAB0 JUMPI PUSH2 0xAAF PUSH2 0xA14 JUMP JUMPDEST JUMPDEST PUSH1 0x1 DUP3 ADD SWAP1 POP SWAP2 SWAP1 POP JUMP JUMPDEST PUSH32 0x4E487B7100000000000000000000000000000000000000000000000000000000 PUSH0 MSTORE PUSH1 0x21 PUSH1 0x4 MSTORE PUSH1 0x24 PUSH0 REVERT JUMPDEST PUSH0 DUP2 SWAP1 POP SWAP3 SWAP2 POP POP JUMP JUMPDEST POP JUMP JUMPDEST PUSH0 PUSH2 0xB00 PUSH0 DUP4 PUSH2 0xAE8 JUMP JUMPDEST SWAP2 POP PUSH2 0xB0B DUP3 PUSH2 0xAF2 JUMP JUMPDEST PUSH0 DUP3 ADD SWAP1 POP SWAP2 SWAP1 POP JUMP JUMPDEST PUSH0 PUSH2 0xB1F DUP3 PUSH2 0xAF5 JUMP JUMPDEST SWAP2 POP DUP2 SWAP1 POP SWAP2 SWAP1 POP JUMP JUMPDEST PUSH0 PUSH2 0xB34 PUSH0 DUP4 PUSH2 0x802 JUMP JUMPDEST SWAP2 POP PUSH2 0xB3F DUP3 PUSH2 0xAF2 JUMP JUMPDEST PUSH0 DUP3 ADD SWAP1 POP SWAP2 SWAP1 POP JUMP JUMPDEST PUSH0 PUSH1 0x20 DUP3 ADD SWAP1 POP DUP2 DUP2 SUB PUSH0 DUP4 ADD MSTORE PUSH2 0xB60 DUP2 PUSH2 0xB29 JUMP JUMPDEST SWAP1 POP SWAP2 SWAP1 POP JUMP JUMPDEST PUSH0 PUSH2 0xB71 DUP3 PUSH2 0x79A JUMP JUMPDEST SWAP2 POP PUSH2 0xB7C DUP4 PUSH2 0x79A JUMP JUMPDEST SWAP3 POP DUP3 DUP3 MUL PUSH2 0xB8A DUP2 PUSH2 0x79A JUMP JUMPDEST SWAP2 POP DUP3 DUP3 DIV DUP5 EQ DUP4 ISZERO OR PUSH2 0xBA1 JUMPI PUSH2 0xBA0 PUSH2 0xA14 JUMP JUMPDEST JUMPDEST POP SWAP3 SWAP2 POP POP JUMP JUMPDEST PUSH32 0x6D7367206465206572726F000000000000000000000000000000000000000000 PUSH0 DUP3 ADD MSTORE POP JUMP JUMPDEST PUSH0 PUSH2 0xBDC PUSH1 0xB DUP4 PUSH2 0x802 JUMP JUMPDEST SWAP2 POP PUSH2 0xBE7 DUP3 PUSH2 0xBA8 JUMP JUMPDEST PUSH1 0x20 DUP3 ADD SWAP1 POP SWAP2 SWAP1 POP JUMP JUMPDEST PUSH0 PUSH1 0x20 DUP3 ADD SWAP1 POP DUP2 DUP2 SUB PUSH0 DUP4 ADD MSTORE PUSH2 0xC09 DUP2 PUSH2 0xBD0 JUMP JUMPDEST SWAP1 POP SWAP2 SWAP1 POP JUMP INVALID LOG2 PUSH5 0x6970667358 0x22 SLT KECCAK256 0xC7 0x4A SLOAD MUL PUSH20 0xEDC93EA678F25CC8AE07FC0CA58C64A78EB27DBA CHAINID 0xEC SWAP11 JUMP SWAP1 0x29 0xC1 PUSH5 0x736F6C6343 STOP ADDMOD EQ STOP CALLER "
				},
				"gasEstimates": {
					"creation": {
						"codeDepositCost": "628400",
						"executionCost": "infinite",
						"totalCost": "infinite"
					},
					"external": {
						"ADM_ONE()": "414",
						"condicional(uint256)": "infinite",
						"depositForSender()": "142",
						"exemploEnum(uint8)": "24713",
						"externalFunction()": "167",
						"externalPureFunction(uint256,uint256)": "infinite",
						"externalViewBalance()": "379",
						"externalViewFunction()": "2454",
						"externalViewFunctionDois()": "2543",
						"i_owner()": "infinite",
						"loops(uint256)": "infinite",
						"publicFunction()": "166",
						"requireChecks(uint256)": "773",
						"revertChecks(uint256)": "567",
						"s_contractOwner()": "2553",
						"s_uint()": "2491",
						"whileBreak(uint256)": "infinite",
						"withdraw(address)": "infinite"
					},
					"internal": {
						"internalFunction()": "infinite",
						"privateFunction()": "infinite"
					}
				},
				"methodIdentifiers": {
					"ADM_ONE()": "97bb180c",
					"condicional(uint256)": "4a1ac746",
					"depositForSender()": "4a7ba7d6",
					"exemploEnum(uint8)": "47268bb0",
					"externalFunction()": "3a32b549",
					"externalPureFunction(uint256,uint256)": "5a37fb4e",
					"externalViewBalance()": "8c5d78f4",
					"externalViewFunction()": "9f4a079b",
					"externalViewFunctionDois()": "6984f020",
					"i_owner()": "dba6335f",
					"loops(uint256)": "3c26d4dc",
					"publicFunction()": "7b5d520b",
					"requireChecks(uint256)": "91fe10cd",
					"revertChecks(uint256)": "e376abbc",
					"s_contractOwner()": "514d56ac",
					"s_uint()": "c57ef1f7",
					"whileBreak(uint256)": "b41f4c31",
					"withdraw(address)": "51cff8d9"
				}
			},
			"storageLayout": {
				"storage": [
					{
						"astId": 25,
						"contract": "PrimeiroSC.sol:PrimeiroSC",
						"label": "status",
						"offset": 0,
						"slot": "0",
						"type": "t_enum(OrdemDeChamada)10"
					},
					{
						"astId": 27,
						"contract": "PrimeiroSC.sol:PrimeiroSC",
						"label": "s_uint",
						"offset": 0,
						"slot": "1",
						"type": "t_uint256"
					},
					{
						"astId": 29,
						"contract": "PrimeiroSC.sol:PrimeiroSC",
						"label": "s_int",
						"offset": 0,
						"slot": "2",
						"type": "t_int256"
					},
					{
						"astId": 31,
						"contract": "PrimeiroSC.sol:PrimeiroSC",
						"label": "s_contractOwner",
						"offset": 0,
						"slot": "3",
						"type": "t_address"
					},
					{
						"astId": 33,
						"contract": "PrimeiroSC.sol:PrimeiroSC",
						"label": "s_exemploHash",
						"offset": 0,
						"slot": "4",
						"type": "t_bytes32"
					},
					{
						"astId": 35,
						"contract": "PrimeiroSC.sol:PrimeiroSC",
						"label": "s_bool",
						"offset": 0,
						"slot": "5",
						"type": "t_bool"
					},
					{
						"astId": 37,
						"contract": "PrimeiroSC.sol:PrimeiroSC",
						"label": "s_str",
						"offset": 0,
						"slot": "6",
						"type": "t_string_storage"
					},
					{
						"astId": 39,
						"contract": "PrimeiroSC.sol:PrimeiroSC",
						"label": "s_textoBytes",
						"offset": 0,
						"slot": "7",
						"type": "t_bytes_storage"
					}
				],
				"types": {
					"t_address": {
						"encoding": "inplace",
						"label": "address",
						"numberOfBytes": "20"
					},
					"t_bool": {
						"encoding": "inplace",
						"label": "bool",
						"numberOfBytes": "1"
					},
					"t_bytes32": {
						"encoding": "inplace",
						"label": "bytes32",
						"numberOfBytes": "32"
					},
					"t_bytes_storage": {
						"encoding": "bytes",
						"label": "bytes",
						"numberOfBytes": "32"
					},
					"t_enum(OrdemDeChamada)10": {
						"encoding": "inplace",
						"label": "enum PrimeiroSC.OrdemDeChamada",
						"numberOfBytes": "1"
					},
					"t_int256": {
						"encoding": "inplace",
						"label": "int256",
						"numberOfBytes": "32"
					},
					"t_string_storage": {
						"encoding": "bytes",
						"label": "string",
						"numberOfBytes": "32"
					},
					"t_uint256": {
						"encoding": "inplace",
						"label": "uint256",
						"numberOfBytes": "32"
					}
				}
			},
			"userdoc": {
				"errors": {
					"PrimeiroSC_NaoPermitido()": [
						{
							"notice": "Errors///"
						}
					]
				},
				"kind": "user",
				"methods": {
					"condicional(uint256)": {
						"notice": "Functions///"
					},
					"constructor": {
						"notice": "constructor///"
					},
					"externalFunction()": {
						"notice": "external///"
					},
					"externalViewFunction()": {
						"notice": "view & pure///"
					},
					"publicFunction()": {
						"notice": "public///"
					}
				},
				"notice": "Interfaces, Libraries///",
				"version": 1
			}
		}
	}
}