{
	"data": {
		"bytecode": {
			"linkReferences": {},
			"object": "60806040525f600155348015610013575f80fd5b5061072b806100215f395ff3fe608060405234801561000f575f80fd5b506004361061003f575f3560e01c80632af2bc27146100435780635a9b0b8914610061578063937f6e771461007f575b5f80fd5b61004b61009b565b6040516100589190610171565b60405180910390f35b6100696100a1565b6040516100769190610214565b60405180910390f35b61009960048036038101906100949190610371565b610130565b005b60015481565b60605f80546100af906103e5565b80601f01602080910402602001604051908101604052809291908181526020018280546100db906103e5565b80156101265780601f106100fd57610100808354040283529160200191610126565b820191905f5260205f20905b81548152906001019060200180831161010957829003601f168201915b5050505050905090565b805f908161013e91906105b2565b5060015f815480929190610151906106ae565b919050555050565b5f819050919050565b61016b81610159565b82525050565b5f6020820190506101845f830184610162565b92915050565b5f81519050919050565b5f82825260208201905092915050565b5f5b838110156101c15780820151818401526020810190506101a6565b5f8484015250505050565b5f601f19601f8301169050919050565b5f6101e68261018a565b6101f08185610194565b93506102008185602086016101a4565b610209816101cc565b840191505092915050565b5f6020820190508181035f83015261022c81846101dc565b905092915050565b5f604051905090565b5f80fd5b5f80fd5b5f80fd5b5f80fd5b7f4e487b71000000000000000000000000000000000000000000000000000000005f52604160045260245ffd5b610283826101cc565b810181811067ffffffffffffffff821117156102a2576102a161024d565b5b80604052505050565b5f6102b4610234565b90506102c0828261027a565b919050565b5f67ffffffffffffffff8211156102df576102de61024d565b5b6102e8826101cc565b9050602081019050919050565b828183375f83830152505050565b5f610315610310846102c5565b6102ab565b90508281526020810184848401111561033157610330610249565b5b61033c8482856102f5565b509392505050565b5f82601f83011261035857610357610245565b5b8135610368848260208601610303565b91505092915050565b5f602082840312156103865761038561023d565b5b5f82013567ffffffffffffffff8111156103a3576103a2610241565b5b6103af84828501610344565b91505092915050565b7f4e487b71000000000000000000000000000000000000000000000000000000005f52602260045260245ffd5b5f60028204905060018216806103fc57607f821691505b60208210810361040f5761040e6103b8565b5b50919050565b5f819050815f5260205f209050919050565b5f6020601f8301049050919050565b5f82821b905092915050565b5f600883026104717fffffffffffffffffffffffffffffffffffffffffffffffffffffffffffffffff82610436565b61047b8683610436565b95508019841693508086168417925050509392505050565b5f819050919050565b5f6104b66104b16104ac84610159565b610493565b610159565b9050919050565b5f819050919050565b6104cf8361049c565b6104e36104db826104bd565b848454610442565b825550505050565b5f90565b6104f76104eb565b6105028184846104c6565b505050565b5b818110156105255761051a5f826104ef565b600181019050610508565b5050565b601f82111561056a5761053b81610415565b61054484610427565b81016020851015610553578190505b61056761055f85610427565b830182610507565b50505b505050565b5f82821c905092915050565b5f61058a5f198460080261056f565b1980831691505092915050565b5f6105a2838361057b565b9150826002028217905092915050565b6105bb8261018a565b67ffffffffffffffff8111156105d4576105d361024d565b5b6105de82546103e5565b6105e9828285610529565b5f60209050601f83116001811461061a575f8415610608578287015190505b6106128582610597565b865550610679565b601f19841661062886610415565b5f5b8281101561064f5784890151825560018201915060208501945060208101905061062a565b8683101561066c5784890151610668601f89168261057b565b8355505b6001600288020188555050505b505050505050565b7f4e487b71000000000000000000000000000000000000000000000000000000005f52601160045260245ffd5b5f6106b882610159565b91507fffffffffffffffffffffffffffffffffffffffffffffffffffffffffffffffff82036106ea576106e9610681565b5b60018201905091905056fea26469706673582212202ae3b9eee3c73d9acba069cfca413af6be8099a0166250712c6a9eb12b7f179f64736f6c63430008140033",
			"opcodes": "PUSH1 0x80 PUSH1 0x40 MSTORE PUSH0 PUSH1 0x1 SSTORE CALLVALUE DUP1 ISZERO PUSH2 0x13 JUMPI PUSH0 DUP1 REVERT JUMPDEST POP PUSH2 0x72B DUP1 PUSH2 0x21 PUSH0 CODECOPY PUSH0 RETURN INVALID PUSH1 0x80 PUSH1 0x40 MSTORE CALLVALUE DUP1 ISZERO PUSH2 0xF JUMPI PUSH0 DUP1 REVERT JUMPDEST POP PUSH1 0x4 CALLDATASIZE LT PUSH2 0x3F JUMPI PUSH0 CALLDATALOAD PUSH1 0xE0 SHR DUP1 PUSH4 0x2AF2BC27 EQ PUSH2 0x43 JUMPI DUP1 PUSH4 0x5A9B0B89 EQ PUSH2 0x61 JUMPI DUP1 PUSH4 0x937F6E77 EQ PUSH2 0x7F JUMPI JUMPDEST PUSH0 DUP1 REVERT JUMPDEST PUSH2 0x4B PUSH2 0x9B JUMP JUMPDEST PUSH1 0x40 MLOAD PUSH2 0x58 SWAP2 SWAP1 PUSH2 0x171 JUMP JUMPDEST PUSH1 0x40 MLOAD DUP1 SWAP2 SUB SWAP1 RETURN JUMPDEST PUSH2 0x69 PUSH2 0xA1 JUMP JUMPDEST PUSH1 0x40 MLOAD PUSH2 0x76 SWAP2 SWAP1 PUSH2 0x214 JUMP JUMPDEST PUSH1 0x40 MLOAD DUP1 SWAP2 SUB SWAP1 RETURN JUMPDEST PUSH2 0x99 PUSH1 0x4 DUP1 CALLDATASIZE SUB DUP2 ADD SWAP1 PUSH2 0x94 SWAP2 SWAP1 PUSH2 0x371 JUMP JUMPDEST PUSH2 0x130 JUMP JUMPDEST STOP JUMPDEST PUSH1 0x1 SLOAD DUP2 JUMP JUMPDEST PUSH1 0x60 PUSH0 DUP1 SLOAD PUSH2 0xAF SWAP1 PUSH2 0x3E5 JUMP JUMPDEST DUP1 PUSH1 0x1F ADD PUSH1 0x20 DUP1 SWAP2 DIV MUL PUSH1 0x20 ADD PUSH1 0x40 MLOAD SWAP1 DUP2 ADD PUSH1 0x40 MSTORE DUP1 SWAP3 SWAP2 SWAP1 DUP2 DUP2 MSTORE PUSH1 0x20 ADD DUP3 DUP1 SLOAD PUSH2 0xDB SWAP1 PUSH2 0x3E5 JUMP JUMPDEST DUP1 ISZERO PUSH2 0x126 JUMPI DUP1 PUSH1 0x1F LT PUSH2 0xFD JUMPI PUSH2 0x100 DUP1 DUP4 SLOAD DIV MUL DUP4 MSTORE SWAP2 PUSH1 0x20 ADD SWAP2 PUSH2 0x126 JUMP JUMPDEST DUP3 ADD SWAP2 SWAP1 PUSH0 MSTORE PUSH1 0x20 PUSH0 KECCAK256 SWAP1 JUMPDEST DUP2 SLOAD DUP2 MSTORE SWAP1 PUSH1 0x1 ADD SWAP1 PUSH1 0x20 ADD DUP1 DUP4 GT PUSH2 0x109 JUMPI DUP3 SWAP1 SUB PUSH1 0x1F AND DUP3 ADD SWAP2 JUMPDEST POP POP POP POP POP SWAP1 POP SWAP1 JUMP JUMPDEST DUP1 PUSH0 SWAP1 DUP2 PUSH2 0x13E SWAP2 SWAP1 PUSH2 0x5B2 JUMP JUMPDEST POP PUSH1 0x1 PUSH0 DUP2 SLOAD DUP1 SWAP3 SWAP2 SWAP1 PUSH2 0x151 SWAP1 PUSH2 0x6AE JUMP JUMPDEST SWAP2 SWAP1 POP SSTORE POP POP JUMP JUMPDEST PUSH0 DUP2 SWAP1 POP SWAP2 SWAP1 POP JUMP JUMPDEST PUSH2 0x16B DUP2 PUSH2 0x159 JUMP JUMPDEST DUP3 MSTORE POP POP JUMP JUMPDEST PUSH0 PUSH1 0x20 DUP3 ADD SWAP1 POP PUSH2 0x184 PUSH0 DUP4 ADD DUP5 PUSH2 0x162 JUMP JUMPDEST SWAP3 SWAP2 POP POP JUMP JUMPDEST PUSH0 DUP2 MLOAD SWAP1 POP SWAP2 SWAP1 POP JUMP JUMPDEST PUSH0 DUP3 DUP3 MSTORE PUSH1 0x20 DUP3 ADD SWAP1 POP SWAP3 SWAP2 POP POP JUMP JUMPDEST PUSH0 JUMPDEST DUP4 DUP2 LT ISZERO PUSH2 0x1C1 JUMPI DUP1 DUP3 ADD MLOAD DUP2 DUP5 ADD MSTORE PUSH1 0x20 DUP2 ADD SWAP1 POP PUSH2 0x1A6 JUMP JUMPDEST PUSH0 DUP5 DUP5 ADD MSTORE POP POP POP POP JUMP JUMPDEST PUSH0 PUSH1 0x1F NOT PUSH1 0x1F DUP4 ADD AND SWAP1 POP SWAP2 SWAP1 POP JUMP JUMPDEST PUSH0 PUSH2 0x1E6 DUP3 PUSH2 0x18A JUMP JUMPDEST PUSH2 0x1F0 DUP2 DUP6 PUSH2 0x194 JUMP JUMPDEST SWAP4 POP PUSH2 0x200 DUP2 DUP6 PUSH1 0x20 DUP7 ADD PUSH2 0x1A4 JUMP JUMPDEST PUSH2 0x209 DUP2 PUSH2 0x1CC JUMP JUMPDEST DUP5 ADD SWAP2 POP POP SWAP3 SWAP2 POP POP JUMP JUMPDEST PUSH0 PUSH1 0x20 DUP3 ADD SWAP1 POP DUP2 DUP2 SUB PUSH0 DUP4 ADD MSTORE PUSH2 0x22C DUP2 DUP5 PUSH2 0x1DC JUMP JUMPDEST SWAP1 POP SWAP3 SWAP2 POP POP JUMP JUMPDEST PUSH0 PUSH1 0x40 MLOAD SWAP1 POP SWAP1 JUMP JUMPDEST PUSH0 DUP1 REVERT JUMPDEST PUSH0 DUP1 REVERT JUMPDEST PUSH0 DUP1 REVERT JUMPDEST PUSH0 DUP1 REVERT JUMPDEST PUSH32 0x4E487B7100000000000000000000000000000000000000000000000000000000 PUSH0 MSTORE PUSH1 0x41 PUSH1 0x4 MSTORE PUSH1 0x24 PUSH0 REVERT JUMPDEST PUSH2 0x283 DUP3 PUSH2 0x1CC JUMP JUMPDEST DUP2 ADD DUP2 DUP2 LT PUSH8 0xFFFFFFFFFFFFFFFF DUP3 GT OR ISZERO PUSH2 0x2A2 JUMPI PUSH2 0x2A1 PUSH2 0x24D JUMP JUMPDEST JUMPDEST DUP1 PUSH1 0x40 MSTORE POP POP POP JUMP JUMPDEST PUSH0 PUSH2 0x2B4 PUSH2 0x234 JUMP JUMPDEST SWAP1 POP PUSH2 0x2C0 DUP3 DUP3 PUSH2 0x27A JUMP JUMPDEST SWAP2 SWAP1 POP JUMP JUMPDEST PUSH0 PUSH8 0xFFFFFFFFFFFFFFFF DUP3 GT ISZERO PUSH2 0x2DF JUMPI PUSH2 0x2DE PUSH2 0x24D JUMP JUMPDEST JUMPDEST PUSH2 0x2E8 DUP3 PUSH2 0x1CC JUMP JUMPDEST SWAP1 POP PUSH1 0x20 DUP2 ADD SWAP1 POP SWAP2 SWAP1 POP JUMP JUMPDEST DUP3 DUP2 DUP4 CALLDATACOPY PUSH0 DUP4 DUP4 ADD MSTORE POP POP POP JUMP JUMPDEST PUSH0 PUSH2 0x315 PUSH2 0x310 DUP5 PUSH2 0x2C5 JUMP JUMPDEST PUSH2 0x2AB JUMP JUMPDEST SWAP1 POP DUP3 DUP2 MSTORE PUSH1 0x20 DUP2 ADD DUP5 DUP5 DUP5 ADD GT ISZERO PUSH2 0x331 JUMPI PUSH2 0x330 PUSH2 0x249 JUMP JUMPDEST JUMPDEST PUSH2 0x33C DUP5 DUP3 DUP6 PUSH2 0x2F5 JUMP JUMPDEST POP SWAP4 SWAP3 POP POP POP JUMP JUMPDEST PUSH0 DUP3 PUSH1 0x1F DUP4 ADD SLT PUSH2 0x358 JUMPI PUSH2 0x357 PUSH2 0x245 JUMP JUMPDEST JUMPDEST DUP2 CALLDATALOAD PUSH2 0x368 DUP5 DUP3 PUSH1 0x20 DUP7 ADD PUSH2 0x303 JUMP JUMPDEST SWAP2 POP POP SWAP3 SWAP2 POP POP JUMP JUMPDEST PUSH0 PUSH1 0x20 DUP3 DUP5 SUB SLT ISZERO PUSH2 0x386 JUMPI PUSH2 0x385 PUSH2 0x23D JUMP JUMPDEST JUMPDEST PUSH0 DUP3 ADD CALLDATALOAD PUSH8 0xFFFFFFFFFFFFFFFF DUP2 GT ISZERO PUSH2 0x3A3 JUMPI PUSH2 0x3A2 PUSH2 0x241 JUMP JUMPDEST JUMPDEST PUSH2 0x3AF DUP5 DUP3 DUP6 ADD PUSH2 0x344 JUMP JUMPDEST SWAP2 POP POP SWAP3 SWAP2 POP POP JUMP JUMPDEST PUSH32 0x4E487B7100000000000000000000000000000000000000000000000000000000 PUSH0 MSTORE PUSH1 0x22 PUSH1 0x4 MSTORE PUSH1 0x24 PUSH0 REVERT JUMPDEST PUSH0 PUSH1 0x2 DUP3 DIV SWAP1 POP PUSH1 0x1 DUP3 AND DUP1 PUSH2 0x3FC JUMPI PUSH1 0x7F DUP3 AND SWAP2 POP JUMPDEST PUSH1 0x20 DUP3 LT DUP2 SUB PUSH2 0x40F JUMPI PUSH2 0x40E PUSH2 0x3B8 JUMP JUMPDEST JUMPDEST POP SWAP2 SWAP1 POP JUMP JUMPDEST PUSH0 DUP2 SWAP1 POP DUP2 PUSH0 MSTORE PUSH1 0x20 PUSH0 KECCAK256 SWAP1 POP SWAP2 SWAP1 POP JUMP JUMPDEST PUSH0 PUSH1 0x20 PUSH1 0x1F DUP4 ADD DIV SWAP1 POP SWAP2 SWAP1 POP JUMP JUMPDEST PUSH0 DUP3 DUP3 SHL SWAP1 POP SWAP3 SWAP2 POP POP JUMP JUMPDEST PUSH0 PUSH1 0x8 DUP4 MUL PUSH2 0x471 PUSH32 0xFFFFFFFFFFFFFFFFFFFFFFFFFFFFFFFFFFFFFFFFFFFFFFFFFFFFFFFFFFFFFFFF DUP3 PUSH2 0x436 JUMP JUMPDEST PUSH2 0x47B DUP7 DUP4 PUSH2 0x436 JUMP JUMPDEST SWAP6 POP DUP1 NOT DUP5 AND SWAP4 POP DUP1 DUP7 AND DUP5 OR SWAP3 POP POP POP SWAP4 SWAP3 POP POP POP JUMP JUMPDEST PUSH0 DUP2 SWAP1 POP SWAP2 SWAP1 POP JUMP JUMPDEST PUSH0 PUSH2 0x4B6 PUSH2 0x4B1 PUSH2 0x4AC DUP5 PUSH2 0x159 JUMP JUMPDEST PUSH2 0x493 JUMP JUMPDEST PUSH2 0x159 JUMP JUMPDEST SWAP1 POP SWAP2 SWAP1 POP JUMP JUMPDEST PUSH0 DUP2 SWAP1 POP SWAP2 SWAP1 POP JUMP JUMPDEST PUSH2 0x4CF DUP4 PUSH2 0x49C JUMP JUMPDEST PUSH2 0x4E3 PUSH2 0x4DB DUP3 PUSH2 0x4BD JUMP JUMPDEST DUP5 DUP5 SLOAD PUSH2 0x442 JUMP JUMPDEST DUP3 SSTORE POP POP POP POP JUMP JUMPDEST PUSH0 SWAP1 JUMP JUMPDEST PUSH2 0x4F7 PUSH2 0x4EB JUMP JUMPDEST PUSH2 0x502 DUP2 DUP5 DUP5 PUSH2 0x4C6 JUMP JUMPDEST POP POP POP JUMP JUMPDEST JUMPDEST DUP2 DUP2 LT ISZERO PUSH2 0x525 JUMPI PUSH2 0x51A PUSH0 DUP3 PUSH2 0x4EF JUMP JUMPDEST PUSH1 0x1 DUP2 ADD SWAP1 POP PUSH2 0x508 JUMP JUMPDEST POP POP JUMP JUMPDEST PUSH1 0x1F DUP3 GT ISZERO PUSH2 0x56A JUMPI PUSH2 0x53B DUP2 PUSH2 0x415 JUMP JUMPDEST PUSH2 0x544 DUP5 PUSH2 0x427 JUMP JUMPDEST DUP2 ADD PUSH1 0x20 DUP6 LT ISZERO PUSH2 0x553 JUMPI DUP2 SWAP1 POP JUMPDEST PUSH2 0x567 PUSH2 0x55F DUP6 PUSH2 0x427 JUMP JUMPDEST DUP4 ADD DUP3 PUSH2 0x507 JUMP JUMPDEST POP POP JUMPDEST POP POP POP JUMP JUMPDEST PUSH0 DUP3 DUP3 SHR SWAP1 POP SWAP3 SWAP2 POP POP JUMP JUMPDEST PUSH0 PUSH2 0x58A PUSH0 NOT DUP5 PUSH1 0x8 MUL PUSH2 0x56F JUMP JUMPDEST NOT DUP1 DUP4 AND SWAP2 POP POP SWAP3 SWAP2 POP POP JUMP JUMPDEST PUSH0 PUSH2 0x5A2 DUP4 DUP4 PUSH2 0x57B JUMP JUMPDEST SWAP2 POP DUP3 PUSH1 0x2 MUL DUP3 OR SWAP1 POP SWAP3 SWAP2 POP POP JUMP JUMPDEST PUSH2 0x5BB DUP3 PUSH2 0x18A JUMP JUMPDEST PUSH8 0xFFFFFFFFFFFFFFFF DUP2 GT ISZERO PUSH2 0x5D4 JUMPI PUSH2 0x5D3 PUSH2 0x24D JUMP JUMPDEST JUMPDEST PUSH2 0x5DE DUP3 SLOAD PUSH2 0x3E5 JUMP JUMPDEST PUSH2 0x5E9 DUP3 DUP3 DUP6 PUSH2 0x529 JUMP JUMPDEST PUSH0 PUSH1 0x20 SWAP1 POP PUSH1 0x1F DUP4 GT PUSH1 0x1 DUP2 EQ PUSH2 0x61A JUMPI PUSH0 DUP5 ISZERO PUSH2 0x608 JUMPI DUP3 DUP8 ADD MLOAD SWAP1 POP JUMPDEST PUSH2 0x612 DUP6 DUP3 PUSH2 0x597 JUMP JUMPDEST DUP7 SSTORE POP PUSH2 0x679 JUMP JUMPDEST PUSH1 0x1F NOT DUP5 AND PUSH2 0x628 DUP7 PUSH2 0x415 JUMP JUMPDEST PUSH0 JUMPDEST DUP3 DUP2 LT ISZERO PUSH2 0x64F JUMPI DUP5 DUP10 ADD MLOAD DUP3 SSTORE PUSH1 0x1 DUP3 ADD SWAP2 POP PUSH1 0x20 DUP6 ADD SWAP5 POP PUSH1 0x20 DUP2 ADD SWAP1 POP PUSH2 0x62A JUMP JUMPDEST DUP7 DUP4 LT ISZERO PUSH2 0x66C JUMPI DUP5 DUP10 ADD MLOAD PUSH2 0x668 PUSH1 0x1F DUP10 AND DUP3 PUSH2 0x57B JUMP JUMPDEST DUP4 SSTORE POP JUMPDEST PUSH1 0x1 PUSH1 0x2 DUP9 MUL ADD DUP9 SSTORE POP POP POP JUMPDEST POP POP POP POP POP POP JUMP JUMPDEST PUSH32 0x4E487B7100000000000000000000000000000000000000000000000000000000 PUSH0 MSTORE PUSH1 0x11 PUSH1 0x4 MSTORE PUSH1 0x24 PUSH0 REVERT JUMPDEST PUSH0 PUSH2 0x6B8 DUP3 PUSH2 0x159 JUMP JUMPDEST SWAP2 POP PUSH32 0xFFFFFFFFFFFFFFFFFFFFFFFFFFFFFFFFFFFFFFFFFFFFFFFFFFFFFFFFFFFFFFFF DUP3 SUB PUSH2 0x6EA JUMPI PUSH2 0x6E9 PUSH2 0x681 JUMP JUMPDEST JUMPDEST PUSH1 0x1 DUP3 ADD SWAP1 POP SWAP2 SWAP1 POP JUMP INVALID LOG2 PUSH5 0x6970667358 0x22 SLT KECCAK256 0x2A 0xE3 0xB9 0xEE 0xE3 0xC7 RETURNDATASIZE SWAP11 0xCB LOG0 PUSH10 0xCFCA413AF6BE8099A016 PUSH3 0x50712C PUSH11 0x9EB12B7F179F64736F6C63 NUMBER STOP ADDMOD EQ STOP CALLER "
		},
		"gasEstimates": {
			"creation": {
				"codeDepositCost": "367000",
				"executionCost": "5408",
				"totalCost": "372408"
			},
			"external": {
				"countChanges()": "2403",
				"getInfo()": "infinite",
				"setInfo(string)": "infinite"
			}
		},
		"methodIdentifiers": {
			"countChanges()": "2af2bc27",
			"getInfo()": "5a9b0b89",
			"setInfo(string)": "937f6e77"
		}
	},
	"abi": [
		{
			"inputs": [],
			"name": "countChanges",
			"outputs": [
				{
					"internalType": "uint256",
					"name": "",
					"type": "uint256"
				}
			],
			"stateMutability": "view",
			"type": "function"
		},
		{
			"inputs": [],
			"name": "getInfo",
			"outputs": [
				{
					"internalType": "string",
					"name": "",
					"type": "string"
				}
			],
			"stateMutability": "view",
			"type": "function"
		},
		{
			"inputs": [
				{
					"internalType": "string",
					"name": "myInfo",
					"type": "string"
				}
			],
			"name": "setInfo",
			"outputs": [],
			"stateMutability": "nonpayable",
			"type": "function"
		}
	]
}